{
    "address": "0x98CeC18602d8ee3D80CB96F06a91a7FbEB43D496",
    "abi": [
        {
            "inputs": [
                {
                    "internalType": "address",
                    "name": "_controller",
                    "type": "address"
                },
                {
                    "internalType": "address",
                    "name": "_want",
                    "type": "address"
                },
                {
                    "internalType": "address",
                    "name": "_nativeWrapper",
                    "type": "address"
                },
                {
                    "internalType": "address",
                    "name": "_vault",
                    "type": "address"
                },
                {
                    "internalType": "address",
                    "name": "_vaultWant",
                    "type": "address"
                }
            ],
            "stateMutability": "nonpayable",
            "type": "constructor"
        },
        {
            "inputs": [],
            "name": "balanceOf",
            "outputs": [
                {
                    "internalType": "uint256",
                    "name": "",
                    "type": "uint256"
                }
            ],
            "stateMutability": "view",
            "type": "function"
        },
        {
            "inputs": [],
            "name": "controller",
            "outputs": [
                {
                    "internalType": "address",
                    "name": "",
                    "type": "address"
                }
            ],
            "stateMutability": "view",
            "type": "function"
        },
        {
            "inputs": [],
            "name": "deposit",
            "outputs": [],
            "stateMutability": "nonpayable",
            "type": "function"
        },
        {
            "inputs": [],
            "name": "gasReserve",
            "outputs": [
                {
                    "internalType": "uint256",
                    "name": "",
                    "type": "uint256"
                }
            ],
            "stateMutability": "view",
            "type": "function"
        },
        {
            "inputs": [],
            "name": "governance",
            "outputs": [
                {
                    "internalType": "address",
                    "name": "",
                    "type": "address"
                }
            ],
            "stateMutability": "view",
            "type": "function"
        },
        {
            "inputs": [],
            "name": "isActive",
            "outputs": [
                {
                    "internalType": "bool",
                    "name": "",
                    "type": "bool"
                }
            ],
            "stateMutability": "view",
            "type": "function"
        },
        {
            "inputs": [],
            "name": "name",
            "outputs": [
                {
                    "internalType": "string",
                    "name": "",
                    "type": "string"
                }
            ],
            "stateMutability": "view",
            "type": "function"
        },
        {
            "inputs": [],
            "name": "nativeWrapper",
            "outputs": [
                {
                    "internalType": "address",
                    "name": "",
                    "type": "address"
                }
            ],
            "stateMutability": "view",
            "type": "function"
        },
        {
            "inputs": [
                {
                    "internalType": "address payable",
                    "name": "_target",
                    "type": "address"
                },
                {
                    "internalType": "uint256",
                    "name": "_amount",
                    "type": "uint256"
                }
            ],
            "name": "permissionedEther",
            "outputs": [],
            "stateMutability": "nonpayable",
            "type": "function"
        },
        {
            "inputs": [
                {
                    "internalType": "address",
                    "name": "_module",
                    "type": "address"
                },
                {
                    "internalType": "uint256",
                    "name": "_amount",
                    "type": "uint256"
                }
            ],
            "name": "permissionedSend",
            "outputs": [
                {
                    "internalType": "uint256",
                    "name": "",
                    "type": "uint256"
                }
            ],
            "stateMutability": "nonpayable",
            "type": "function"
        },
        {
            "inputs": [],
            "name": "strategist",
            "outputs": [
                {
                    "internalType": "address",
                    "name": "",
                    "type": "address"
                }
            ],
            "stateMutability": "view",
            "type": "function"
        },
        {
            "inputs": [],
            "name": "vault",
            "outputs": [
                {
                    "internalType": "address",
                    "name": "",
                    "type": "address"
                }
            ],
            "stateMutability": "view",
            "type": "function"
        },
        {
            "inputs": [],
            "name": "vaultWant",
            "outputs": [
                {
                    "internalType": "address",
                    "name": "",
                    "type": "address"
                }
            ],
            "stateMutability": "view",
            "type": "function"
        },
        {
            "inputs": [],
            "name": "vaultWantIndex",
            "outputs": [
                {
                    "internalType": "int128",
                    "name": "",
                    "type": "int128"
                }
            ],
            "stateMutability": "view",
            "type": "function"
        },
        {
            "inputs": [],
            "name": "want",
            "outputs": [
                {
                    "internalType": "address",
                    "name": "",
                    "type": "address"
                }
            ],
            "stateMutability": "view",
            "type": "function"
        },
        {
            "inputs": [],
            "name": "wantIndex",
            "outputs": [
                {
                    "internalType": "int128",
                    "name": "",
                    "type": "int128"
                }
            ],
            "stateMutability": "view",
            "type": "function"
        },
        {
            "inputs": [],
            "name": "wantReserve",
            "outputs": [
                {
                    "internalType": "uint256",
                    "name": "",
                    "type": "uint256"
                }
            ],
            "stateMutability": "view",
            "type": "function"
        },
        {
            "inputs": [
                {
                    "internalType": "uint256",
                    "name": "_amount",
                    "type": "uint256"
                }
            ],
            "name": "withdraw",
            "outputs": [],
            "stateMutability": "nonpayable",
            "type": "function"
        },
        {
            "inputs": [],
            "name": "withdrawAll",
            "outputs": [],
            "stateMutability": "nonpayable",
            "type": "function"
        },
        {
            "stateMutability": "payable",
            "type": "receive"
        }
    ],
    "transactionHash": "0x99a2426f1df9c643330fb26df22be52aa925f70061f0c793a58bc9370eaadbff",
    "args": [
        "0x53f38bEA30fE6919e0475Fe57C2629f3D3754d1E",
        "0xdbf31df14b66535af65aac99c32e9ea844e14501",
        "0x82af49447d8a07e3bd95bd0d56f35241523fbab1",
        "0x375d515b1d4B77F5e57bE448666fb1884626737e",
        "0x2f2a2543b76a4166549f7aab2e75bef0aefc5b0f"
    ],
    "solcInputHash": "357e3fe63165b3ab3385fc0c705650cd",
    "bytecode": "0x6101206040523480156200001257600080fd5b5060405162002ebe38038062002ebe833981810160405260a08110156200003857600080fd5b50805160208083015160408401516060808601516080968701516001600160601b031984841b811660a05285841b811660c05282841b811690985280831b881660e052600080546001600160a01b0319908116339081179092556001805490911690911790559186901b90961661010052939491939092620000d4906001600160a01b0383169084906000199062001b3c620000df821b17901c565b5050505050620004f1565b80158062000169575060408051636eb1769f60e11b81523060048201526001600160a01b03848116602483015291519185169163dd62ed3e91604480820192602092909190829003018186803b1580156200013957600080fd5b505afa1580156200014e573d6000803e3d6000fd5b505050506040513d60208110156200016557600080fd5b5051155b620001a65760405162461bcd60e51b815260040180806020018281038252603681526020018062002e886036913960400191505060405180910390fd5b604080516001600160a01b038416602482015260448082018490528251808303909101815260649091019091526020810180516001600160e01b0390811663095ea7b360e01b17909152620001fe9185916200020316565b505050565b60006200025f826040518060400160405280602081526020017f5361666545524332303a206c6f772d6c6576656c2063616c6c206661696c6564815250856001600160a01b0316620002bf60201b62001c4f179092919060201c565b805190915015620001fe578080602001905160208110156200028057600080fd5b5051620001fe5760405162461bcd60e51b815260040180806020018281038252602a81526020018062002e5e602a913960400191505060405180910390fd5b6060620002d08484600085620002da565b90505b9392505050565b6060824710156200031d5760405162461bcd60e51b815260040180806020018281038252602681526020018062002e386026913960400191505060405180910390fd5b620003288562000441565b6200037a576040805162461bcd60e51b815260206004820152601d60248201527f416464726573733a2063616c6c20746f206e6f6e2d636f6e7472616374000000604482015290519081900360640190fd5b600080866001600160a01b031685876040518082805190602001908083835b60208310620003ba5780518252601f19909201916020918201910162000399565b6001836020036101000a03801982511681845116808217855250505050505090500191505060006040518083038185875af1925050503d80600081146200041e576040519150601f19603f3d011682016040523d82523d6000602084013e62000423565b606091505b5090925090506200043682828662000447565b979650505050505050565b3b151590565b6060831562000458575081620002d3565b825115620004695782518084602001fd5b8160405162461bcd60e51b81526004018080602001828103825283818151815260200191508051906020019080838360005b83811015620004b55781810151838201526020016200049b565b50505050905090810190601f168015620004e35780820380516001836020036101000a031916815260200191505b509250505060405180910390fd5b60805160601c60a05160601c60c05160601c60e05160601c6101005160601c6127e0620006586000398061048652806104eb52806106225280610687528061077552806107e75280610a575280610b1c5280610e1352806110a052806114075280611751528061192d5280611af65280611d335280611f9f52508061083752806109ff5280610bbd52806110f0528061145752806116f952806117f25280611ac65280611ca75280611d835280611fce52806120b35250806104455280610510528061053e52806107445280610e775280610f8d5280610ff852806110cf52806111e55280611c6c5280611d625280611e1f5280611f685280611fef52508061042152806108165280610a275280610ae45280610cd45280611436528061172152806118f552806119ce52508061057b52806106ab52806109575280611365528061157a52806116515280611b1a5280611ed4528061220952806122aa52506127e06000f3fe6080604052600436106101175760003560e01c8063853828b6116100a0578063d3a71c4e11610064578063d3a71c4e14610376578063eea7570e1461038b578063f4f2a509146103a0578063f77c4791146103b5578063fbfa77cf146103ca5761011e565b8063853828b6146102ae5780638802bdad146102c35780639068871f146102fc578063a60bbc8014610328578063d0e30db0146103615761011e565b80631fe4a686116100e75780631fe4a6861461021a57806322f3e2d41461022f5780632e1a7d4d146102585780635aa6e67514610284578063722713f7146102995761011e565b806262ba931461012357806306fdde031461014a5780630b48a8b8146101d45780631f1fcd51146102055761011e565b3661011e57005b600080fd5b34801561012f57600080fd5b506101386103df565b60408051918252519081900360200190f35b34801561015657600080fd5b5061015f6103e6565b6040805160208082528351818301528351919283929083019185019080838360005b83811015610199578181015183820152602001610181565b50505050905090810190601f1680156101c65780820380516001836020036101000a031916815260200191505b509250505060405180910390f35b3480156101e057600080fd5b506101e961041f565b604080516001600160a01b039092168252519081900360200190f35b34801561021157600080fd5b506101e9610443565b34801561022657600080fd5b506101e9610467565b34801561023b57600080fd5b50610244610476565b604080519115158252519081900360200190f35b34801561026457600080fd5b506102826004803603602081101561027b57600080fd5b503561047b565b005b34801561029057600080fd5b506101e9610568565b3480156102a557600080fd5b50610138610577565b3480156102ba57600080fd5b50610282610617565b3480156102cf57600080fd5b50610282600480360360408110156102e657600080fd5b506001600160a01b03813516906020013561076a565b34801561030857600080fd5b50610311610e01565b60408051600f9290920b8252519081900360200190f35b34801561033457600080fd5b506101386004803603604081101561034b57600080fd5b506001600160a01b038135169060200135610e06565b34801561036d57600080fd5b50610282610ff4565b34801561038257600080fd5b506101e9611ac4565b34801561039757600080fd5b50610138611ae8565b3480156103ac57600080fd5b50610311610476565b3480156103c157600080fd5b506101e9611af4565b3480156103d657600080fd5b506101e9611b18565b620f424081565b6040518060400160405280601c81526020017f30636f6e6669726d6174696f6e2052656e564d2053747261746567790000000081525081565b7f000000000000000000000000000000000000000000000000000000000000000081565b7f000000000000000000000000000000000000000000000000000000000000000081565b6001546001600160a01b031681565b600181565b336001600160a01b037f000000000000000000000000000000000000000000000000000000000000000016146104e6576040805162461bcd60e51b815260206004820152600b60248201526a10b1b7b73a3937b63632b960a91b604482015290519081900360640190fd5b6105657f0000000000000000000000000000000000000000000000000000000000000000610534837f0000000000000000000000000000000000000000000000000000000000000000611c68565b6001600160a01b037f00000000000000000000000000000000000000000000000000000000000000001691906121b0565b50565b6000546001600160a01b031681565b60007f00000000000000000000000000000000000000000000000000000000000000006001600160a01b03166370a08231306040518263ffffffff1660e01b815260040180826001600160a01b0316815260200191505060206040518083038186803b1580156105e657600080fd5b505afa1580156105fa573d6000803e3d6000fd5b505050506040513d602081101561061057600080fd5b5051905090565b336001600160a01b037f00000000000000000000000000000000000000000000000000000000000000001614610682576040805162461bcd60e51b815260206004820152600b60248201526a10b1b7b73a3937b63632b960a91b604482015290519081900360640190fd5b6107687f00000000000000000000000000000000000000000000000000000000000000006105347f00000000000000000000000000000000000000000000000000000000000000006001600160a01b03166370a08231306040518263ffffffff1660e01b815260040180826001600160a01b0316815260200191505060206040518083038186803b15801561071657600080fd5b505afa15801561072a573d6000803e3d6000fd5b505050506040513d602081101561074057600080fd5b50517f0000000000000000000000000000000000000000000000000000000000000000611c68565b565b336001600160a01b037f000000000000000000000000000000000000000000000000000000000000000016146107d5576040805162461bcd60e51b815260206004820152600b60248201526a10b1b7b73a3937b63632b960a91b604482015290519081900360640190fd5b674563918244f40000811115610dc6577f00000000000000000000000000000000000000000000000000000000000000006001600160a01b031663e4f2494d7f00000000000000000000000000000000000000000000000000000000000000007f00000000000000000000000000000000000000000000000000000000000000006040518363ffffffff1660e01b815260040180836001600160a01b03168152602001826001600160a01b031681526020019250505060206040518083038186803b1580156108a357600080fd5b505afa1580156108b7573d6000803e3d6000fd5b505050506040513d60208110156108cd57600080fd5b50516040805163138f252760e31b81526004810184905290516001600160a01b0390921691639c79293891602480820192602092909190829003018186803b15801561091857600080fd5b505afa15801561092c573d6000803e3d6000fd5b505050506040513d602081101561094257600080fd5b50519050600061095182612202565b905060007f00000000000000000000000000000000000000000000000000000000000000006001600160a01b0316632e1a7d4d836040518263ffffffff1660e01b815260040180828152602001915050602060405180830381600087803b1580156109bb57600080fd5b505af11580156109cf573d6000803e3d6000fd5b505050506040513d60208110156109e557600080fd5b50516040805163e4f2494d60e01b81526001600160a01b037f0000000000000000000000000000000000000000000000000000000000000000811660048301527f00000000000000000000000000000000000000000000000000000000000000008116602483015291519293506000927f00000000000000000000000000000000000000000000000000000000000000009092169163e4f2494d91604480820192602092909190829003018186803b158015610aa057600080fd5b505afa158015610ab4573d6000803e3d6000fd5b505050506040513d6020811015610aca57600080fd5b50516040805163e4f2494d60e01b81526001600160a01b037f000000000000000000000000000000000000000000000000000000000000000081166004830152600060248301819052925193945091927f00000000000000000000000000000000000000000000000000000000000000009092169163e4f2494d91604480820192602092909190829003018186803b158015610b6557600080fd5b505afa158015610b79573d6000803e3d6000fd5b505050506040513d6020811015610b8f57600080fd5b50516040805163a9059cbb60e01b81526001600160a01b0385811660048301526024820187905291519293507f00000000000000000000000000000000000000000000000000000000000000009091169163a9059cbb916044808201926020929091908290030181600087803b158015610c0857600080fd5b505af1158015610c1c573d6000803e3d6000fd5b505050506040513d6020811015610c3257600080fd5b50506040805163def2489b60e01b815230600482015290516001600160a01b0384169163def2489b9160248083019260209291908290030181600087803b158015610c7c57600080fd5b505af1158015610c90573d6000803e3d6000fd5b505050506040513d6020811015610ca657600080fd5b50516040805163a9059cbb60e01b81526001600160a01b0384811660048301526024820184905291519297507f00000000000000000000000000000000000000000000000000000000000000009091169163a9059cbb916044808201926020929091908290030181600087803b158015610d1f57600080fd5b505af1158015610d33573d6000803e3d6000fd5b505050506040513d6020811015610d4957600080fd5b50506040805163def2489b60e01b815230600482015290516001600160a01b0383169163def2489b9160248083019260209291908290030181600087803b158015610d9357600080fd5b505af1158015610da7573d6000803e3d6000fd5b505050506040513d6020811015610dbd57600080fd5b50519450505050505b6040516001600160a01b0383169082156108fc029083906000818181858888f19350505050158015610dfc573d6000803e3d6000fd5b505050565b600081565b6000336001600160a01b037f00000000000000000000000000000000000000000000000000000000000000001614610e73576040805162461bcd60e51b815260206004820152600b60248201526a10b1b7b73a3937b63632b960a91b604482015290519081900360640190fd5b60007f00000000000000000000000000000000000000000000000000000000000000006001600160a01b03166370a08231306040518263ffffffff1660e01b815260040180826001600160a01b0316815260200191505060206040518083038186803b158015610ee257600080fd5b505afa158015610ef6573d6000803e3d6000fd5b505050506040513d6020811015610f0c57600080fd5b505160408051631f1fcd5160e01b815290519192506000916001600160a01b03871691631f1fcd51916004808301926020929190829003018186803b158015610f5457600080fd5b505afa158015610f68573d6000803e3d6000fd5b505050506040513d6020811015610f7e57600080fd5b5051905081841180610fc257507f00000000000000000000000000000000000000000000000000000000000000006001600160a01b0316816001600160a01b031614155b15610fd457610fd18482611c68565b93505b610fe86001600160a01b03821686866121b0565b83925050505b92915050565b60007f00000000000000000000000000000000000000000000000000000000000000006001600160a01b03166370a08231306040518263ffffffff1660e01b815260040180826001600160a01b0316815260200191505060206040518083038186803b15801561106357600080fd5b505afa158015611077573d6000803e3d6000fd5b505050506040513d602081101561108d57600080fd5b50519050620f42408111156113de5760007f00000000000000000000000000000000000000000000000000000000000000006001600160a01b031663e4f2494d7f00000000000000000000000000000000000000000000000000000000000000007f00000000000000000000000000000000000000000000000000000000000000006040518363ffffffff1660e01b815260040180836001600160a01b03168152602001826001600160a01b031681526020019250505060206040518083038186803b15801561115c57600080fd5b505afa158015611170573d6000803e3d6000fd5b505050506040513d602081101561118657600080fd5b505190506001600160a01b0381166111d2576040805162461bcd60e51b815260206004820152600a60248201526910b1b7b73b32b93a32b960b11b604482015290519081900360640190fd5b60006111e183620f4240612330565b90507f00000000000000000000000000000000000000000000000000000000000000006001600160a01b031663a9059cbb83836040518363ffffffff1660e01b815260040180836001600160a01b0316815260200182815260200192505050602060405180830381600087803b15801561125a57600080fd5b505af115801561126e573d6000803e3d6000fd5b505050506040513d602081101561128457600080fd5b50516112c3576040805162461bcd60e51b815260206004820152600960248201526810ba3930b739b332b960b91b604482015290519081900360640190fd5b6000826001600160a01b031663def2489b60006040518263ffffffff1660e01b815260040180826001600160a01b03168152602001915050602060405180830381600087803b15801561131557600080fd5b505af1158015611329573d6000803e3d6000fd5b505050506040513d602081101561133f57600080fd5b50516040805163b6b55f2560e01b81526004810183905290519192506001600160a01b037f0000000000000000000000000000000000000000000000000000000000000000169163b6b55f25916024808201926020929091908290030181600087803b1580156113ae57600080fd5b505af11580156113c2573d6000803e3d6000fd5b505050506040513d60208110156113d857600080fd5b50505050505b47674563918244f40000811015611ac057611401674563918244f4000082612330565b905060007f00000000000000000000000000000000000000000000000000000000000000006001600160a01b031663e4f2494d7f00000000000000000000000000000000000000000000000000000000000000007f00000000000000000000000000000000000000000000000000000000000000006040518363ffffffff1660e01b815260040180836001600160a01b03168152602001826001600160a01b031681526020019250505060206040518083038186803b1580156114c357600080fd5b505afa1580156114d7573d6000803e3d6000fd5b505050506040513d60208110156114ed57600080fd5b50516040805163138f252760e31b81526004810185905290519192506000916001600160a01b03841691639c792938916024808301926020929190829003018186803b15801561153c57600080fd5b505afa158015611550573d6000803e3d6000fd5b505050506040513d602081101561156657600080fd5b50519050600061157582612202565b9050807f00000000000000000000000000000000000000000000000000000000000000006001600160a01b03166370a08231306040518263ffffffff1660e01b815260040180826001600160a01b0316815260200191505060206040518083038186803b1580156115e557600080fd5b505afa1580156115f9573d6000803e3d6000fd5b505050506040513d602081101561160f57600080fd5b50511161164d576040805162461bcd60e51b8152602060048201526007602482015266042cadcdeeaced60cb1b604482015290519081900360640190fd5b60007f00000000000000000000000000000000000000000000000000000000000000006001600160a01b0316632e1a7d4d836040518263ffffffff1660e01b815260040180828152602001915050602060405180830381600087803b1580156116b557600080fd5b505af11580156116c9573d6000803e3d6000fd5b505050506040513d60208110156116df57600080fd5b50516040805163e4f2494d60e01b81526001600160a01b037f0000000000000000000000000000000000000000000000000000000000000000811660048301527f00000000000000000000000000000000000000000000000000000000000000008116602483015291519293506000927f00000000000000000000000000000000000000000000000000000000000000009092169163e4f2494d91604480820192602092909190829003018186803b15801561179a57600080fd5b505afa1580156117ae573d6000803e3d6000fd5b505050506040513d60208110156117c457600080fd5b50516040805163a9059cbb60e01b81526001600160a01b0380841660048301526024820186905291519293507f00000000000000000000000000000000000000000000000000000000000000009091169163a9059cbb916044808201926020929091908290030181600087803b15801561183d57600080fd5b505af1158015611851573d6000803e3d6000fd5b505050506040513d602081101561186757600080fd5b50506040805163def2489b60e01b815230600482015290516001600160a01b0383169163def2489b9160248083019260209291908290030181600087803b1580156118b157600080fd5b505af11580156118c5573d6000803e3d6000fd5b505050506040513d60208110156118db57600080fd5b50516040805163e4f2494d60e01b81526001600160a01b037f000000000000000000000000000000000000000000000000000000000000000081166004830152600060248301819052925193955091927f00000000000000000000000000000000000000000000000000000000000000009092169163e4f2494d91604480820192602092909190829003018186803b15801561197657600080fd5b505afa15801561198a573d6000803e3d6000fd5b505050506040513d60208110156119a057600080fd5b50516040805163a9059cbb60e01b81526001600160a01b0380841660048301526024820187905291519293507f00000000000000000000000000000000000000000000000000000000000000009091169163a9059cbb916044808201926020929091908290030181600087803b158015611a1957600080fd5b505af1158015611a2d573d6000803e3d6000fd5b505050506040513d6020811015611a4357600080fd5b50506040805163def2489b60e01b815230600482015290516001600160a01b0383169163def2489b9160248083019260209291908290030181600087803b158015611a8d57600080fd5b505af1158015611aa1573d6000803e3d6000fd5b505050506040513d6020811015611ab757600080fd5b50505050505050505b5050565b7f000000000000000000000000000000000000000000000000000000000000000081565b674563918244f4000081565b7f000000000000000000000000000000000000000000000000000000000000000081565b7f000000000000000000000000000000000000000000000000000000000000000081565b801580611bc2575060408051636eb1769f60e11b81523060048201526001600160a01b03848116602483015291519185169163dd62ed3e91604480820192602092909190829003018186803b158015611b9457600080fd5b505afa158015611ba8573d6000803e3d6000fd5b505050506040513d6020811015611bbe57600080fd5b5051155b611bfd5760405162461bcd60e51b81526004018080602001828103825260368152602001806127756036913960400191505060405180910390fd5b604080516001600160a01b038416602482015260448082018490528251808303909101815260649091019091526020810180516001600160e01b031663095ea7b360e01b179052610dfc90849061238d565b6060611c5e848460008561243e565b90505b9392505050565b60007f00000000000000000000000000000000000000000000000000000000000000006001600160a01b0316826001600160a01b03161480611cdb57507f00000000000000000000000000000000000000000000000000000000000000006001600160a01b0316826001600160a01b0316145b611d22576040805162461bcd60e51b8152602060048201526013602482015272185cdcd95d081b9bdd081cdd5c1c1bdc9d1959606a1b604482015290519081900360640190fd5b82611d2f57506000610fee565b60007f00000000000000000000000000000000000000000000000000000000000000006001600160a01b031663e4f2494d7f00000000000000000000000000000000000000000000000000000000000000007f00000000000000000000000000000000000000000000000000000000000000006040518363ffffffff1660e01b815260040180836001600160a01b03168152602001826001600160a01b031681526020019250505060206040518083038186803b158015611def57600080fd5b505afa158015611e03573d6000803e3d6000fd5b505050506040513d6020811015611e1957600080fd5b505190507f00000000000000000000000000000000000000000000000000000000000000006001600160a01b039081169084161415611ec557806001600160a01b0316639c792938856040518263ffffffff1660e01b81526004018082815260200191505060206040518083038186803b158015611e9657600080fd5b505afa158015611eaa573d6000803e3d6000fd5b505050506040513d6020811015611ec057600080fd5b505193505b6000611ed085612202565b90507f00000000000000000000000000000000000000000000000000000000000000006001600160a01b0316632e1a7d4d826040518263ffffffff1660e01b815260040180828152602001915050602060405180830381600087803b158015611f3857600080fd5b505af1158015611f4c573d6000803e3d6000fd5b505050506040513d6020811015611f6257600080fd5b505194507f00000000000000000000000000000000000000000000000000000000000000006001600160a01b0390811690851614156121a75760007f00000000000000000000000000000000000000000000000000000000000000006001600160a01b031663e4f2494d7f00000000000000000000000000000000000000000000000000000000000000007f00000000000000000000000000000000000000000000000000000000000000006040518363ffffffff1660e01b815260040180836001600160a01b03168152602001826001600160a01b031681526020019250505060206040518083038186803b15801561205b57600080fd5b505afa15801561206f573d6000803e3d6000fd5b505050506040513d602081101561208557600080fd5b50516040805163a9059cbb60e01b81526001600160a01b038084166004830152602482018a905291519293507f00000000000000000000000000000000000000000000000000000000000000009091169163a9059cbb916044808201926020929091908290030181600087803b1580156120fe57600080fd5b505af1158015612112573d6000803e3d6000fd5b505050506040513d602081101561212857600080fd5b50506040805163def2489b60e01b815260006004820181905291516001600160a01b0384169263def2489b92602480820193602093909283900390910190829087803b15801561217757600080fd5b505af115801561218b573d6000803e3d6000fd5b505050506040513d60208110156121a157600080fd5b50519550505b50929392505050565b604080516001600160a01b038416602482015260448082018490528251808303909101815260649091019091526020810180516001600160e01b031663a9059cbb60e01b179052610dfc90849061238d565b6000610fee7f00000000000000000000000000000000000000000000000000000000000000006001600160a01b03166399530b066040518163ffffffff1660e01b815260040160206040518083038186803b15801561226057600080fd5b505afa158015612274573d6000803e3d6000fd5b505050506040513d602081101561228a57600080fd5b50516040805163313ce56760e01b8152905161232a916001600160a01b037f0000000000000000000000000000000000000000000000000000000000000000169163313ce56791600480820192602092909190829003018186803b1580156122f157600080fd5b505afa158015612305573d6000803e3d6000fd5b505050506040513d602081101561231b57600080fd5b5051859060ff16600a0a612599565b906125f2565b600082821115612387576040805162461bcd60e51b815260206004820152601e60248201527f536166654d6174683a207375627472616374696f6e206f766572666c6f770000604482015290519081900360640190fd5b50900390565b60006123e2826040518060400160405280602081526020017f5361666545524332303a206c6f772d6c6576656c2063616c6c206661696c6564815250856001600160a01b0316611c4f9092919063ffffffff16565b805190915015610dfc5780806020019051602081101561240157600080fd5b5051610dfc5760405162461bcd60e51b815260040180806020018281038252602a81526020018061274b602a913960400191505060405180910390fd5b60608247101561247f5760405162461bcd60e51b81526004018080602001828103825260268152602001806127046026913960400191505060405180910390fd5b61248885612659565b6124d9576040805162461bcd60e51b815260206004820152601d60248201527f416464726573733a2063616c6c20746f206e6f6e2d636f6e7472616374000000604482015290519081900360640190fd5b600080866001600160a01b031685876040518082805190602001908083835b602083106125175780518252601f1990920191602091820191016124f8565b6001836020036101000a03801982511681845116808217855250505050505090500191505060006040518083038185875af1925050503d8060008114612579576040519150601f19603f3d011682016040523d82523d6000602084013e61257e565b606091505b509150915061258e82828661265f565b979650505050505050565b6000826125a857506000610fee565b828202828482816125b557fe5b0414611c615760405162461bcd60e51b815260040180806020018281038252602181526020018061272a6021913960400191505060405180910390fd5b6000808211612648576040805162461bcd60e51b815260206004820152601a60248201527f536166654d6174683a206469766973696f6e206279207a65726f000000000000604482015290519081900360640190fd5b81838161265157fe5b049392505050565b3b151590565b6060831561266e575081611c61565b82511561267e5782518084602001fd5b8160405162461bcd60e51b81526004018080602001828103825283818151815260200191508051906020019080838360005b838110156126c85781810151838201526020016126b0565b50505050905090810190601f1680156126f55780820380516001836020036101000a031916815260200191505b509250505060405180910390fdfe416464726573733a20696e73756666696369656e742062616c616e636520666f722063616c6c536166654d6174683a206d756c7469706c69636174696f6e206f766572666c6f775361666545524332303a204552433230206f7065726174696f6e20646964206e6f7420737563636565645361666545524332303a20617070726f76652066726f6d206e6f6e2d7a65726f20746f206e6f6e2d7a65726f20616c6c6f77616e6365a2646970667358221220091a49856844429ffa4738d0f7d403cd0d66dc977b4bae6270f578bf077dc6ac64736f6c63430007060033416464726573733a20696e73756666696369656e742062616c616e636520666f722063616c6c5361666545524332303a204552433230206f7065726174696f6e20646964206e6f7420737563636565645361666545524332303a20617070726f76652066726f6d206e6f6e2d7a65726f20746f206e6f6e2d7a65726f20616c6c6f77616e6365",
    "devdoc": {
        "kind": "dev",
        "methods": {},
        "version": 1
    },
    "userdoc": {
        "kind": "user",
        "methods": {},
        "version": 1
    },
    "storageLayout": {
        "storage": [
            {
                "astId": 7643,
                "contract": "contracts/strategies/StrategyRenVM.sol:StrategyRenVM",
                "label": "governance",
                "offset": 0,
                "slot": "0",
                "type": "t_address"
            },
            {
                "astId": 7645,
                "contract": "contracts/strategies/StrategyRenVM.sol:StrategyRenVM",
                "label": "strategist",
                "offset": 0,
                "slot": "1",
                "type": "t_address"
            }
        ],
        "types": {
            "t_address": {
                "encoding": "inplace",
                "label": "address",
                "numberOfBytes": "20"
            }
        }
    }
}