{
    "address": "0xd0D8fA764352e33F40c66C75B3BC0204DC95973e",
    "abi": [
        {
            "inputs": [
                {
                    "internalType": "address payable",
                    "name": "_controller",
                    "type": "address"
                }
            ],
            "stateMutability": "nonpayable",
            "type": "constructor"
        },
        {
            "anonymous": false,
            "inputs": [
                {
                    "indexed": true,
                    "internalType": "address",
                    "name": "previousOwner",
                    "type": "address"
                },
                {
                    "indexed": true,
                    "internalType": "address",
                    "name": "newOwner",
                    "type": "address"
                }
            ],
            "name": "OwnershipTransferred",
            "type": "event"
        },
        {
            "stateMutability": "payable",
            "type": "fallback"
        },
        {
            "inputs": [],
            "name": "controller",
            "outputs": [
                {
                    "internalType": "address payable",
                    "name": "",
                    "type": "address"
                }
            ],
            "stateMutability": "view",
            "type": "function"
        },
        {
            "inputs": [
                {
                    "internalType": "address",
                    "name": "to",
                    "type": "address"
                },
                {
                    "internalType": "address",
                    "name": "asset",
                    "type": "address"
                },
                {
                    "internalType": "uint256",
                    "name": "amount",
                    "type": "uint256"
                },
                {
                    "internalType": "uint256",
                    "name": "nonce",
                    "type": "uint256"
                },
                {
                    "internalType": "address",
                    "name": "module",
                    "type": "address"
                },
                {
                    "internalType": "bytes",
                    "name": "data",
                    "type": "bytes"
                },
                {
                    "internalType": "bytes",
                    "name": "userSignature",
                    "type": "bytes"
                }
            ],
            "name": "loan",
            "outputs": [],
            "stateMutability": "nonpayable",
            "type": "function"
        },
        {
            "inputs": [],
            "name": "owner",
            "outputs": [
                {
                    "internalType": "address",
                    "name": "",
                    "type": "address"
                }
            ],
            "stateMutability": "view",
            "type": "function"
        },
        {
            "inputs": [
                {
                    "internalType": "address payable",
                    "name": "target",
                    "type": "address"
                },
                {
                    "internalType": "bytes",
                    "name": "data",
                    "type": "bytes"
                }
            ],
            "name": "proxy",
            "outputs": [],
            "stateMutability": "payable",
            "type": "function"
        },
        {
            "inputs": [],
            "name": "renounceOwnership",
            "outputs": [],
            "stateMutability": "nonpayable",
            "type": "function"
        },
        {
            "inputs": [
                {
                    "internalType": "address",
                    "name": "underwriter",
                    "type": "address"
                },
                {
                    "internalType": "address",
                    "name": "to",
                    "type": "address"
                },
                {
                    "internalType": "address",
                    "name": "asset",
                    "type": "address"
                },
                {
                    "internalType": "uint256",
                    "name": "amount",
                    "type": "uint256"
                },
                {
                    "internalType": "uint256",
                    "name": "actualAmount",
                    "type": "uint256"
                },
                {
                    "internalType": "uint256",
                    "name": "nonce",
                    "type": "uint256"
                },
                {
                    "internalType": "address",
                    "name": "module",
                    "type": "address"
                },
                {
                    "internalType": "bytes32",
                    "name": "nHash",
                    "type": "bytes32"
                },
                {
                    "internalType": "bytes",
                    "name": "data",
                    "type": "bytes"
                },
                {
                    "internalType": "bytes",
                    "name": "signature",
                    "type": "bytes"
                }
            ],
            "name": "repay",
            "outputs": [],
            "stateMutability": "nonpayable",
            "type": "function"
        },
        {
            "inputs": [
                {
                    "internalType": "address",
                    "name": "newOwner",
                    "type": "address"
                }
            ],
            "name": "transferOwnership",
            "outputs": [],
            "stateMutability": "nonpayable",
            "type": "function"
        }
    ],
    "transactionHash": "0x91ff04a806c31c18539ed525e8dd0d03cce0de357e4d898da9e80560fe4e9b88",
    "args": [
        "0x53f38bEA30fE6919e0475Fe57C2629f3D3754d1E"
    ],
    "solcInputHash": "357e3fe63165b3ab3385fc0c705650cd",
    "bytecode": "0x60a060405234801561001057600080fd5b50604051610e1d380380610e1d8339818101604052602081101561003357600080fd5b5051600061003f61009e565b600080546001600160a01b0319166001600160a01b0383169081178255604051929350917f8be0079c531659141344cd1fd0a4f28419497f9722a3daafe3b4186f6b6457e0908290a35060601b6001600160601b0319166080526100a2565b3390565b60805160601c610d506100cd6000398060dc528061061d528061083b5280610cce5250610d506000f3fe6080604052600436106100705760003560e01c80638da5cb5b1161004e5780638da5cb5b14610463578063be6d055a14610494578063f2fde38b14610548578063f77c47911461057b57610070565b80633b36c7f8146101715780636c285cc6146102eb578063715018a61461044e575b610078610590565b6001600160a01b0316336001600160a01b0316146100d7576040805162461bcd60e51b815260206004820152601760248201527636bab9ba1031329031b0b63632b210313c9037bbb732b960491b604482015290519081900360640190fd5b6000807f00000000000000000000000000000000000000000000000000000000000000006001600160a01b031634600036604051808383808284376040519201945060009350909150508083038185875af1925050503d8060008114610159576040519150601f19603f3d011682016040523d82523d6000602084013e61015e565b606091505b509150915061016d828261059f565b5050005b34801561017d57600080fd5b506102e9600480360361014081101561019557600080fd5b6001600160a01b0382358116926020810135821692604082013583169260608301359260808101359260a08201359260c0830135169160e0810135918101906101208101610100820135600160201b8111156101f057600080fd5b82018360208201111561020257600080fd5b803590602001918460018302840111600160201b8311171561022357600080fd5b91908080601f0160208091040260200160405190810160405280939291908181526020018383808284376000920191909152509295949360208101935035915050600160201b81111561027557600080fd5b82018360208201111561028757600080fd5b803590602001918460018302840111600160201b831117156102a857600080fd5b91908080601f0160208091040260200160405190810160405280939291908181526020018383808284376000920191909152509295506105b4945050505050565b005b3480156102f757600080fd5b506102e9600480360360e081101561030e57600080fd5b6001600160a01b038235811692602081013582169260408201359260608301359260808101359091169181019060c0810160a0820135600160201b81111561035557600080fd5b82018360208201111561036757600080fd5b803590602001918460018302840111600160201b8311171561038857600080fd5b91908080601f0160208091040260200160405190810160405280939291908181526020018383808284376000920191909152509295949360208101935035915050600160201b8111156103da57600080fd5b8201836020820111156103ec57600080fd5b803590602001918460018302840111600160201b8311171561040d57600080fd5b91908080601f0160208091040260200160405190810160405280939291908181526020018383808284376000920191909152509295506107d2945050505050565b34801561045a57600080fd5b506102e96109cc565b34801561046f57600080fd5b50610478610590565b604080516001600160a01b039092168252519081900360200190f35b6102e9600480360360408110156104aa57600080fd5b6001600160a01b038235169190810190604081016020820135600160201b8111156104d457600080fd5b8201836020820111156104e657600080fd5b803590602001918460018302840111600160201b8311171561050757600080fd5b91908080601f016020809104026020016040519081016040528093929190818152602001838380828437600092019190915250929550610a8a945050505050565b34801561055457600080fd5b506102e96004803603602081101561056b57600080fd5b50356001600160a01b0316610bb8565b34801561058757600080fd5b50610478610ccc565b6000546001600160a01b031690565b816105ac57805181602001fd5b805181602001f35b6105bc610590565b6001600160a01b0316336001600160a01b03161461061b576040805162461bcd60e51b815260206004820152601760248201527636bab9ba1031329031b0b63632b210313c9037bbb732b960491b604482015290519081900360640190fd5b7f00000000000000000000000000000000000000000000000000000000000000006001600160a01b0316633b36c7f88b8b8b8b8b8b8b8b8b8b6040518b63ffffffff1660e01b8152600401808b6001600160a01b031681526020018a6001600160a01b03168152602001896001600160a01b03168152602001888152602001878152602001868152602001856001600160a01b031681526020018481526020018060200180602001838103835285818151815260200191508051906020019080838360005b838110156106f85781810151838201526020016106e0565b50505050905090810190601f1680156107255780820380516001836020036101000a031916815260200191505b50838103825284518152845160209182019186019080838360005b83811015610758578181015183820152602001610740565b50505050905090810190601f1680156107855780820380516001836020036101000a031916815260200191505b509c50505050505050505050505050600060405180830381600087803b1580156107ae57600080fd5b505af11580156107c2573d6000803e3d6000fd5b5050505050505050505050505050565b6107da610590565b6001600160a01b0316336001600160a01b031614610839576040805162461bcd60e51b815260206004820152601760248201527636bab9ba1031329031b0b63632b210313c9037bbb732b960491b604482015290519081900360640190fd5b7f00000000000000000000000000000000000000000000000000000000000000006001600160a01b0316636c285cc6888888888888886040518863ffffffff1660e01b815260040180886001600160a01b03168152602001876001600160a01b03168152602001868152602001858152602001846001600160a01b031681526020018060200180602001838103835285818151815260200191508051906020019080838360005b838110156108f85781810151838201526020016108e0565b50505050905090810190601f1680156109255780820380516001836020036101000a031916815260200191505b50838103825284518152845160209182019186019080838360005b83811015610958578181015183820152602001610940565b50505050905090810190601f1680156109855780820380516001836020036101000a031916815260200191505b509950505050505050505050600060405180830381600087803b1580156109ab57600080fd5b505af11580156109bf573d6000803e3d6000fd5b5050505050505050505050565b6109d4610cf0565b6001600160a01b03166109e5610590565b6001600160a01b031614610a40576040805162461bcd60e51b815260206004820181905260248201527f4f776e61626c653a2063616c6c6572206973206e6f7420746865206f776e6572604482015290519081900360640190fd5b600080546040516001600160a01b03909116907f8be0079c531659141344cd1fd0a4f28419497f9722a3daafe3b4186f6b6457e0908390a3600080546001600160a01b0319169055565b610a92610cf0565b6001600160a01b0316610aa3610590565b6001600160a01b031614610afe576040805162461bcd60e51b815260206004820181905260248201527f4f776e61626c653a2063616c6c6572206973206e6f7420746865206f776e6572604482015290519081900360640190fd5b600080836001600160a01b031634846040518082805190602001908083835b60208310610b3c5780518252601f199092019160209182019101610b1d565b6001836020036101000a03801982511681845116808217855250505050505090500191505060006040518083038185875af1925050503d8060008114610b9e576040519150601f19603f3d011682016040523d82523d6000602084013e610ba3565b606091505b5091509150610bb2828261059f565b50505050565b610bc0610cf0565b6001600160a01b0316610bd1610590565b6001600160a01b031614610c2c576040805162461bcd60e51b815260206004820181905260248201527f4f776e61626c653a2063616c6c6572206973206e6f7420746865206f776e6572604482015290519081900360640190fd5b6001600160a01b038116610c715760405162461bcd60e51b8152600401808060200182810382526026815260200180610cf56026913960400191505060405180910390fd5b600080546040516001600160a01b03808516939216917f8be0079c531659141344cd1fd0a4f28419497f9722a3daafe3b4186f6b6457e091a3600080546001600160a01b0319166001600160a01b0392909216919091179055565b7f000000000000000000000000000000000000000000000000000000000000000081565b339056fe4f776e61626c653a206e6577206f776e657220697320746865207a65726f2061646472657373a2646970667358221220e8a1a014f5659241fade13112b5e60b0185b6babc1478fc839f223cf0168a09364736f6c63430007060033",
    "devdoc": {
        "author": "raymondpulver",
        "kind": "dev",
        "methods": {
            "owner()": {
                "details": "Returns the address of the current owner."
            },
            "proxy(address,bytes)": {
                "params": {
                    "data": "the calldata for the transaction",
                    "target": "the to address of the transaction"
                }
            },
            "renounceOwnership()": {
                "details": "Leaves the contract without owner. It will not be possible to call `onlyOwner` functions anymore. Can only be called by the current owner. NOTE: Renouncing ownership will leave the contract without an owner, thereby removing any functionality that is only available to the owner."
            },
            "transferOwnership(address)": {
                "details": "Transfers ownership of the contract to a new account (`newOwner`). Can only be called by the current owner."
            }
        },
        "title": "contract that is the simplest underwriter, just a proxy with an owner tag",
        "version": 1
    },
    "userdoc": {
        "kind": "user",
        "methods": {
            "proxy(address,bytes)": {
                "notice": "proxy a regular call to an arbitrary contract"
            }
        },
        "version": 1
    },
    "storageLayout": {
        "storage": [
            {
                "astId": 18449,
                "contract": "contracts/underwriter/DelegateUnderwriter.sol:DelegateUnderwriter",
                "label": "_owner",
                "offset": 0,
                "slot": "0",
                "type": "t_address"
            }
        ],
        "types": {
            "t_address": {
                "encoding": "inplace",
                "label": "address",
                "numberOfBytes": "20"
            }
        }
    }
}