{
    "address": "0x6fA31E6732Ac227631CE7e9aFeB02f1C02284ec9",
    "abi": [
        {
            "inputs": [
                {
                    "internalType": "address",
                    "name": "_wrapper",
                    "type": "address"
                }
            ],
            "stateMutability": "nonpayable",
            "type": "constructor"
        },
        {
            "inputs": [
                {
                    "internalType": "address",
                    "name": "_module",
                    "type": "address"
                }
            ],
            "name": "convert",
            "outputs": [
                {
                    "internalType": "uint256",
                    "name": "",
                    "type": "uint256"
                }
            ],
            "stateMutability": "payable",
            "type": "function"
        },
        {
            "inputs": [
                {
                    "internalType": "uint256",
                    "name": "_amount",
                    "type": "uint256"
                }
            ],
            "name": "estimate",
            "outputs": [
                {
                    "internalType": "uint256",
                    "name": "",
                    "type": "uint256"
                }
            ],
            "stateMutability": "view",
            "type": "function"
        },
        {
            "inputs": [],
            "name": "wrapper",
            "outputs": [
                {
                    "internalType": "address",
                    "name": "",
                    "type": "address"
                }
            ],
            "stateMutability": "view",
            "type": "function"
        },
        {
            "stateMutability": "payable",
            "type": "receive"
        }
    ],
    "transactionHash": "0x3118225d5ef8597c1626b1e3cad9fdf185e27cf5ea95f33ea09f4ee5841d4934",
    "args": [
        "0x82af49447d8a07e3bd95bd0d56f35241523fbab1"
    ],
    "solcInputHash": "357e3fe63165b3ab3385fc0c705650cd",
    "bytecode": "0x60a060405234801561001057600080fd5b506040516102e63803806102e68339818101604052602081101561003357600080fd5b5051606081901b6001600160601b0319166080526001600160a01b03166102766100706000398060dc5280610102528061013152506102766000f3fe6080604052600436106100385760003560e01c80639c79293814610044578063ac210cc714610080578063def2489b146100b15761003f565b3661003f57005b600080fd5b34801561005057600080fd5b5061006e6004803603602081101561006757600080fd5b50356100d7565b60408051918252519081900360200190f35b34801561008c57600080fd5b506100956100da565b604080516001600160a01b039092168252519081900360200190f35b61006e600480360360208110156100c757600080fd5b50356001600160a01b03166100fe565b90565b7f000000000000000000000000000000000000000000000000000000000000000081565b60007f00000000000000000000000000000000000000000000000000000000000000006001600160a01b0316632e1a7d4d7f00000000000000000000000000000000000000000000000000000000000000006001600160a01b03166370a08231306040518263ffffffff1660e01b815260040180826001600160a01b0316815260200191505060206040518083038186803b15801561019c57600080fd5b505afa1580156101b0573d6000803e3d6000fd5b505050506040513d60208110156101c657600080fd5b5051604080516001600160e01b031960e085901b168152600481019290925251602480830192600092919082900301818387803b15801561020657600080fd5b505af115801561021a573d6000803e3d6000fd5b50506040513392504780156108fc029250906000818181858888f193505050505091905056fea2646970667358221220c90573b9e12f256ef43d0596448c9654683fce719a4df5dda5d08e6194a7657f64736f6c63430007060033",
    "devdoc": {
        "kind": "dev",
        "methods": {},
        "version": 1
    },
    "userdoc": {
        "kind": "user",
        "methods": {},
        "version": 1
    },
    "storageLayout": {
        "storage": [],
        "types": null
    }
}