{
  "address": "0x60b85C3eA78A33A07C88E5b492A41EBAFe36Ad7B",
  "abi": [
    {
      "inputs": [],
      "name": "BURN_GAS_DIFF",
      "outputs": [
        {
          "internalType": "uint256",
          "name": "",
          "type": "uint256"
        }
      ],
      "stateMutability": "view",
      "type": "function"
    },
    {
      "inputs": [],
      "name": "REPAY_GAS_DIFF",
      "outputs": [
        {
          "internalType": "uint256",
          "name": "",
          "type": "uint256"
        }
      ],
      "stateMutability": "view",
      "type": "function"
    },
    {
      "inputs": [
        {
          "internalType": "address",
          "name": "to",
          "type": "address"
        },
        {
          "internalType": "address",
          "name": "asset",
          "type": "address"
        },
        {
          "internalType": "uint256",
          "name": "amount",
          "type": "uint256"
        },
        {
          "internalType": "uint256",
          "name": "deadline",
          "type": "uint256"
        },
        {
          "internalType": "bytes",
          "name": "data",
          "type": "bytes"
        },
        {
          "internalType": "bytes",
          "name": "destination",
          "type": "bytes"
        },
        {
          "internalType": "bytes",
          "name": "signature",
          "type": "bytes"
        }
      ],
      "name": "burn",
      "outputs": [
        {
          "internalType": "uint256",
          "name": "amountToBurn",
          "type": "uint256"
        }
      ],
      "stateMutability": "nonpayable",
      "type": "function"
    },
    {
      "inputs": [
        {
          "internalType": "address",
          "name": "from",
          "type": "address"
        },
        {
          "internalType": "address",
          "name": "asset",
          "type": "address"
        },
        {
          "internalType": "uint256",
          "name": "amount",
          "type": "uint256"
        },
        {
          "internalType": "uint256",
          "name": "minOut",
          "type": "uint256"
        },
        {
          "internalType": "bytes",
          "name": "destination",
          "type": "bytes"
        }
      ],
      "name": "burnApproved",
      "outputs": [
        {
          "internalType": "uint256",
          "name": "amountToBurn",
          "type": "uint256"
        }
      ],
      "stateMutability": "payable",
      "type": "function"
    },
    {
      "inputs": [
        {
          "internalType": "uint256",
          "name": "minOut",
          "type": "uint256"
        },
        {
          "internalType": "bytes",
          "name": "destination",
          "type": "bytes"
        }
      ],
      "name": "burnETH",
      "outputs": [
        {
          "internalType": "uint256",
          "name": "amountToBurn",
          "type": "uint256"
        }
      ],
      "stateMutability": "payable",
      "type": "function"
    },
    {
      "inputs": [],
      "name": "earn",
      "outputs": [],
      "stateMutability": "nonpayable",
      "type": "function"
    },
    {
      "inputs": [
        {
          "internalType": "address",
          "name": "underwriter",
          "type": "address"
        },
        {
          "internalType": "address",
          "name": "to",
          "type": "address"
        },
        {
          "internalType": "address",
          "name": "asset",
          "type": "address"
        },
        {
          "internalType": "uint256",
          "name": "amount",
          "type": "uint256"
        },
        {
          "internalType": "uint256",
          "name": "actualAmount",
          "type": "uint256"
        },
        {
          "internalType": "uint256",
          "name": "nonce",
          "type": "uint256"
        },
        {
          "internalType": "address",
          "name": "module",
          "type": "address"
        },
        {
          "internalType": "bytes32",
          "name": "nHash",
          "type": "bytes32"
        },
        {
          "internalType": "bytes",
          "name": "data",
          "type": "bytes"
        },
        {
          "internalType": "bytes",
          "name": "signature",
          "type": "bytes"
        }
      ],
      "name": "fallbackMint",
      "outputs": [],
      "stateMutability": "nonpayable",
      "type": "function"
    },
    {
      "inputs": [],
      "name": "fee",
      "outputs": [
        {
          "internalType": "uint256",
          "name": "",
          "type": "uint256"
        }
      ],
      "stateMutability": "view",
      "type": "function"
    },
    {
      "inputs": [],
      "name": "governance",
      "outputs": [
        {
          "internalType": "address",
          "name": "",
          "type": "address"
        }
      ],
      "stateMutability": "view",
      "type": "function"
    },
    {
      "inputs": [],
      "name": "governanceFee",
      "outputs": [
        {
          "internalType": "uint256",
          "name": "",
          "type": "uint256"
        }
      ],
      "stateMutability": "view",
      "type": "function"
    },
    {
      "inputs": [
        {
          "internalType": "address",
          "name": "_governance",
          "type": "address"
        },
        {
          "internalType": "address",
          "name": "_strategist",
          "type": "address"
        }
      ],
      "name": "initialize",
      "outputs": [],
      "stateMutability": "nonpayable",
      "type": "function"
    },
    {
      "inputs": [],
      "name": "keeperReward",
      "outputs": [
        {
          "internalType": "uint256",
          "name": "",
          "type": "uint256"
        }
      ],
      "stateMutability": "view",
      "type": "function"
    },
    {
      "inputs": [
        {
          "internalType": "address",
          "name": "",
          "type": "address"
        }
      ],
      "name": "nonces",
      "outputs": [
        {
          "internalType": "uint256",
          "name": "",
          "type": "uint256"
        }
      ],
      "stateMutability": "view",
      "type": "function"
    },
    {
      "inputs": [
        {
          "internalType": "address",
          "name": "underwriter",
          "type": "address"
        },
        {
          "internalType": "address",
          "name": "to",
          "type": "address"
        },
        {
          "internalType": "address",
          "name": "asset",
          "type": "address"
        },
        {
          "internalType": "uint256",
          "name": "amount",
          "type": "uint256"
        },
        {
          "internalType": "uint256",
          "name": "actualAmount",
          "type": "uint256"
        },
        {
          "internalType": "uint256",
          "name": "nonce",
          "type": "uint256"
        },
        {
          "internalType": "address",
          "name": "module",
          "type": "address"
        },
        {
          "internalType": "bytes32",
          "name": "nHash",
          "type": "bytes32"
        },
        {
          "internalType": "bytes",
          "name": "data",
          "type": "bytes"
        },
        {
          "internalType": "bytes",
          "name": "signature",
          "type": "bytes"
        }
      ],
      "name": "repay",
      "outputs": [
        {
          "internalType": "uint256",
          "name": "amountOut",
          "type": "uint256"
        }
      ],
      "stateMutability": "nonpayable",
      "type": "function"
    },
    {
      "inputs": [
        {
          "internalType": "address",
          "name": "_governance",
          "type": "address"
        }
      ],
      "name": "setGovernance",
      "outputs": [],
      "stateMutability": "nonpayable",
      "type": "function"
    },
    {
      "inputs": [
        {
          "internalType": "uint256",
          "name": "_governanceFee",
          "type": "uint256"
        },
        {
          "internalType": "uint256",
          "name": "_fee",
          "type": "uint256"
        },
        {
          "internalType": "uint256",
          "name": "_burnFee",
          "type": "uint256"
        },
        {
          "internalType": "uint256",
          "name": "_keeperReward",
          "type": "uint256"
        }
      ],
      "name": "setParameters",
      "outputs": [],
      "stateMutability": "nonpayable",
      "type": "function"
    },
    {
      "inputs": [
        {
          "internalType": "address",
          "name": "_strategist",
          "type": "address"
        }
      ],
      "name": "setStrategist",
      "outputs": [],
      "stateMutability": "nonpayable",
      "type": "function"
    },
    {
      "inputs": [],
      "name": "strategist",
      "outputs": [
        {
          "internalType": "address",
          "name": "",
          "type": "address"
        }
      ],
      "stateMutability": "view",
      "type": "function"
    },
    {
      "stateMutability": "payable",
      "type": "receive"
    }
  ],
  "transactionHash": "0x4573824f0223a7a1246bd73d4c8c65810b0262b398921e9aec66bf03a4eb5eda",
  "args": [],
  "numDeployments": 2,
  "solcInputHash": "400f9248c5ee8dced8070a0290d7816c",
  "bytecode": "0x608060405234801561001057600080fd5b5061378b806100206000396000f3fe6080604052600436106100dd5760003560e01c8063056f4e18146100e95780630ea90a12146101145780631fe4a686146101295780633816cbf31461014b5780633b36c7f81461015e578063485cc9551461017e5780635aa6e675146101a05780636bc6f683146101b55780637ecebe00146101c8578063a9ec75f6146101e8578063ab033ea9146101fd578063b0a82ee81461021d578063c7b9d53014610232578063d389800f14610252578063ddca3f4314610267578063e20d36821461027c578063e4759b2f1461029c578063fcd9da44146102bc576100e4565b366100e457005b600080fd5b3480156100f557600080fd5b506100fe6102dc565b60405161010b91906131d7565b60405180910390f35b34801561012057600080fd5b506100fe6102e2565b34801561013557600080fd5b5061013e6102e8565b60405161010b91906131e0565b6100fe610159366004613071565b6102f7565b34801561016a57600080fd5b506100fe610179366004612e47565b6103ad565b34801561018a57600080fd5b5061019e610199366004612e15565b61077c565b005b3480156101ac57600080fd5b5061013e610a1e565b6100fe6101c3366004612f12565b610a2d565b3480156101d457600080fd5b506100fe6101e3366004612dfb565b610cab565b3480156101f457600080fd5b506100fe610cbd565b34801561020957600080fd5b5061019e610218366004612dfb565b610cc3565b34801561022957600080fd5b506100fe610d0f565b34801561023e57600080fd5b5061019e61024d366004612dfb565b610d15565b34801561025e57600080fd5b5061019e610d61565b34801561027357600080fd5b506100fe610f48565b34801561028857600080fd5b506100fe610297366004612f81565b610f4e565b3480156102a857600080fd5b5061019e6102b7366004612e47565b6116b1565b3480156102c857600080fd5b5061019e6102d73660046130b5565b61182a565b61a22681565b60385481565b6037546001600160a01b031681565b60006103188361031361030c34603a54611868565b349061188d565b6118ef565b6040516338463cff60e01b81529091507305cadbf3128bcb7f2b89f3dd55e5b0a036a49e20906338463cff90610354908590859060040161339a565b602060405180830381600087803b15801561036e57600080fd5b505af1158015610382573d6000803e3d6000fd5b505050506040513d601f19601f820116820180604052508101906103a69190613059565b5092915050565b60006102043611156103da5760405162461bcd60e51b81526004016103d190613509565b60405180910390fd5b60005a90506103e7612cf9565b6001600160a01b0387166000805160206135bd833981519152148061042257506001600160a01b0387166000805160206136b6833981519152145b8061044957506001600160a01b03871673dbf31df14b66535af65aac99c32e9ea844e14501145b8061045b57506001600160a01b038716155b6104775760405162461bcd60e51b81526004016103d190613463565b6040518061014001604052808d6001600160a01b031681526020018c6001600160a01b031681526020018981526020018b8152602001886001600160a01b031681526020018e6001600160a01b0316815260200186815260200160018152602001600081526020016104e7611a12565b905285519091501561050d57848060200190518101906105079190613059565b60e08201525b600061051882611a6c565b90507305cadbf3128bcb7f2b89f3dd55e5b0a036a49e206001600160a01b031663159ab14d8360000151846040015185608001518660c0015160405160200161056494939291906132a2565b604051602081830303815290604052805190602001208c8a896040518563ffffffff1660e01b815260040161059c9493929190613375565b602060405180830381600087803b1580156105b657600080fd5b505af11580156105ca573d6000803e3d6000fd5b505050506040513d601f19601f820116820180604052508101906105ee9190613059565b6101008301526001600160a01b0388166000805160206135bd8339815191521461069a576001600160a01b03881615610677576001600160a01b0388166000805160206136b6833981519152146106545761064f8261010001516001611af2565b610672565b6106728260e0015161066c8461010001516001611af2565b8f611b0b565b610695565b6106958260e0015161068f8461010001516001611af2565b8f611c33565b6106b2565b6106b26106ad8361010001516001611af2565b611dfd565b93506001600160a01b0388166000805160206136b6833981519152148015906106e357506001600160a01b03881615155b156106fc576106fc6001600160a01b0389168e86611e90565b326001600160a01b03166108fc61074261073c603b546107303a61073689610120015161073061a2266107305a8f9061188d565b90611ee2565b90611f3a565b47611f93565b6040518115909202916000818181858888f1935050505015801561076a573d6000803e3d6000fd5b505050509a9950505050505050505050565b600054610100900460ff16806107955750610795611fa9565b806107a3575060005460ff16155b6107de5760405162461bcd60e51b815260040180806020018281038252602e815260200180613645602e913960400191505060405180910390fd5b600054610100900460ff16158015610809576000805460ff1961ff0019909116610100171660011790555b6608e1bc9bf04000603555660e35fa931a0000603a556706f05b59d3b20000603855603680546001600160a01b038086166001600160a01b031992831617909255603780549285169290911691909117905561086f670de0b6b3a76400006103e8611fba565b603b556108ac73dbf31df14b66535af65aac99c32e9ea844e1450173c2d95eef97ec6c17551d45e77b590dc1f9117c676001600160fe1b0361201e565b6108e06000805160206135bd83398151915273c2d95eef97ec6c17551d45e77b590dc1f9117c676001600160fe1b0361201e565b6109146000805160206135bd83398151915273960ea3e3c7fb317332d990873d354e18d76455906001600160fe1b0361201e565b6109426000805160206135bd8339815191526000805160206135ff8339815191526001600160fe1b0361201e565b6109706000805160206136b68339815191526000805160206135ff8339815191526001600160fe1b0361201e565b6000805160206137008339815191527f98da2c5e4c6b1db946694570273b859a6e4083ccc8faa155edfc4c54eb3cfd737fc89efdaa54c0f20c7adf612882df0950f5a951637e0307cdcb4c672f298b8bc66109c9612131565b6000805160206135bd8339815191526040516020016109ec959493929190613349565b60408051601f198184030181529190528051602090910120603d558015610a19576000805461ff00191690555b505050565b6036546001600160a01b031681565b60006001600160a01b0385166000805160206135bd8339815191521480610a6a57506001600160a01b0385166000805160206136b6833981519152145b80610a9157506001600160a01b03851673dbf31df14b66535af65aac99c32e9ea844e14501145b80610aa357506001600160a01b038516155b610abf5760405162461bcd60e51b81526004016103d190613463565b6001600160a01b03851615610b52576040516323b872dd60e01b81526001600160a01b038616906323b872dd90610afe903390309089906004016131f4565b602060405180830381600087803b158015610b1857600080fd5b505af1158015610b2c573d6000803e3d6000fd5b505050506040513d601f19601f82011682018060405250810190610b509190613039565b505b6001600160a01b0385166000805160206135bd83398151915214610bf5576001600160a01b0385166000805160206136b683398151915214610bd1576001600160a01b03851673dbf31df14b66535af65aac99c32e9ea844e1450114610bca57610bc58361031361030c34603a54611868565b610bcc565b835b610bf0565b610bf083610beb610be487603a54611868565b879061188d565b612135565b610c13565b610c13610c0e610c0786603a54611868565b869061188d565b61223c565b6040516338463cff60e01b81529091507305cadbf3128bcb7f2b89f3dd55e5b0a036a49e20906338463cff90610c4f908590859060040161339a565b602060405180830381600087803b158015610c6957600080fd5b505af1158015610c7d573d6000803e3d6000fd5b505050506040513d601f19601f82011682018060405250810190610ca19190613059565b5095945050505050565b603c6020526000908152604090205481565b603b5481565b6036546001600160a01b03163314610ced5760405162461bcd60e51b81526004016103d1906133df565b603680546001600160a01b0319166001600160a01b0392909216919091179055565b61a09e81565b6036546001600160a01b03163314610d3f5760405162461bcd60e51b81526004016103d1906133df565b603780546001600160a01b0319166001600160a01b0392909216919091179055565b610d6961227d565b6040516370a0823160e01b8152610df49073dbf31df14b66535af65aac99c32e9ea844e14501906370a0823190610da49030906004016131e0565b60206040518083038186803b158015610dbc57600080fd5b505afa158015610dd0573d6000803e3d6000fd5b505050506040513d601f19601f820116820180604052508101906106ad9190613059565b50610dfd61237b565b5047674563918244f40000811115610f45576000674563918244f40000820390506000610e2c82603854611868565b6036549091506000906001600160a01b031680835a90604051610e4e90611a69565b600060405180830381858888f193505050503d8060008114610e8c576040519150601f19603f3d011682016040523d82523d6000602084013e610e91565b606091505b50508092505081610eb45760405162461bcd60e51b81526004016103d19061342e565b6037546001600160a01b031680610ecb868661188d565b5a90604051610ed990611a69565b600060405180830381858888f193505050503d8060008114610f17576040519150601f19603f3d011682016040523d82523d6000602084013e610f1c565b606091505b50508093505082610f3f5760405162461bcd60e51b81526004016103d1906134b1565b50505050505b50565b60355481565b6000610244361115610f725760405162461bcd60e51b81526004016103d190613509565b6000604051806101e001604052808a6001600160a01b03168152602001896001600160a01b031681526020018881526020018781526020016000815260200186815260200160018152602001600081526020015a81526000602082018190526040820181905260608201819052608082015260a0810186905260c0018490529050610ffb611a12565b61012082015260a0810151511561102a578060a001518060200190518101906110249190613059565b60c08201525b8060600151421061104d5760405162461bcd60e51b81526004016103d1906134e6565b60208101516001600160a01b03166000805160206135bd833981519152141561119a576001600160a01b03808a166000908152603c6020818152604080842054608087015285519094168352522080546001019055603d546110be906110b39083612580565b826101c00151612617565b6001600160a01b031681600001516001600160a01b0316146110f25760405162461bcd60e51b81526004016103d19061348d565b80602001516001600160a01b03166323b872dd82600001513084604001516040518463ffffffff1660e01b815260040161112e939291906131f4565b602060405180830381600087803b15801561114857600080fd5b505af115801561115c573d6000803e3d6000fd5b505050506040513d601f19601f820116820180604052508101906111809190613039565b50611193610c0e82604001516001612697565b91506115b2565b60208101516001600160a01b031673dbf31df14b66535af65aac99c32e9ea844e1450114156113975760208101518151604051623f675f60e91b81526001600160a01b0390921691637ecebe00916111f4916004016131e0565b60206040518083038186803b15801561120c57600080fd5b505afa158015611220573d6000803e3d6000fd5b505050506040513d601f19601f820116820180604052508101906112449190613059565b6080820152611252816126a9565b60e08201526101c081015161126690612730565b6101808401819052610160840182905260ff909216610140840181905260208401518451608086015160e08701516040516323f2ebc360e21b81526001600160a01b0390941696638fcbaf0c966112c99694953095600193909291600401613218565b600060405180830381600087803b1580156112e357600080fd5b505af11580156112f7573d6000803e3d6000fd5b5050506020820151825160408085015190516323b872dd60e01b81526001600160a01b0390931693506323b872dd92611335929130916004016131f4565b602060405180830381600087803b15801561134f57600080fd5b505af1158015611363573d6000803e3d6000fd5b505050506040513d601f19601f820116820180604052508101906113879190613039565b5061119381604001516001612697565b60208101516001600160a01b03166000805160206136b6833981519152141561159a5760208101518151604051623f675f60e91b81526001600160a01b0390921691637ecebe00916113eb916004016131e0565b60206040518083038186803b15801561140357600080fd5b505afa158015611417573d6000803e3d6000fd5b505050506040513d601f19601f8201168201806040525081019061143b9190613059565b6080820152611449816126a9565b60e08201526101c081015161145d90612730565b6101808401819052610160840182905260ff90921661014084018190526020840151845160408087015160e0880151915163d505accf60e01b81526001600160a01b039094169663d505accf966114bf96949530959394939290600401613261565b600060405180830381600087803b1580156114d957600080fd5b505af11580156114ed573d6000803e3d6000fd5b5050506020820151825160408085015190516323b872dd60e01b81526001600160a01b0390931693506323b872dd9261152b929130916004016131f4565b602060405180830381600087803b15801561154557600080fd5b505af1158015611559573d6000803e3d6000fd5b505050506040513d601f19601f8201168201806040525081019061157d9190613039565b506111936115938260c001518360400151612135565b6001612697565b60405162461bcd60e51b81526004016103d190613404565b6101a08101516040516338463cff60e01b81527305cadbf3128bcb7f2b89f3dd55e5b0a036a49e20916338463cff916115f09190869060040161339a565b602060405180830381600087803b15801561160a57600080fd5b505af115801561161e573d6000803e3d6000fd5b505050506040513d601f19601f820116820180604052508101906116429190613059565b50326001600160a01b03166108fc61167c61073c603b546107303a61073688610120015161073061a09e6107305a6101008e01519061188d565b6040518115909202916000818181858888f193505050501580156116a4573d6000803e3d6000fd5b5050979650505050505050565b60006040518061014001604052808b6001600160a01b031681526020018a6001600160a01b03168152602001878152602001898152602001866001600160a01b031681526020018c6001600160a01b03168152602001848152602001600181526020016000815260200160008152509050600061172d82611a6c565b905060007305cadbf3128bcb7f2b89f3dd55e5b0a036a49e206001600160a01b031663159ab14d8460000151856040015186608001518760c0015160405160200161177b94939291906132a2565b604051602081830303815290604052805190602001208b89886040518563ffffffff1660e01b81526004016117b39493929190613375565b602060405180830381600087803b1580156117cd57600080fd5b505af11580156117e1573d6000803e3d6000fd5b505050506040513d601f19601f820116820180604052508101906118059190613059565b905061181b6001600160a01b038c168d83611e90565b50505050505050505050505050565b6036546001600160a01b031633146118545760405162461bcd60e51b81526004016103d1906133df565b603893909355603591909155603a55603b55565b6000611886670de0b6b3a76400006118808585611f3a565b90611fba565b9392505050565b6000828211156118e4576040805162461bcd60e51b815260206004820152601e60248201527f536166654d6174683a207375627472616374696f6e206f766572666c6f770000604482015290519081900360640190fd5b508082035b92915050565b600080730d500b1d8e8ef31e21c99d1db9a6444d3adf12706101f4737ceb23fd6bc0add59e62ac25578270cff1b9f6196101f46000805160206135bd833981519152604051602001611945959493929190613112565b60408051601f1981840301815260a08301825280835230602084015260014201838301526060830186905260808301879052905163c04b8d5960e01b81529092506000805160206135ff8339815191529063c04b8d599086906119ac908590600401613534565b6020604051808303818588803b1580156119c557600080fd5b505af11580156119d9573d6000803e3d6000fd5b50505050506040513d601f19601f820116820180604052508101906119fe9190613059565b9250611a098361223c565b95945050505050565b6000611a69565b82811015611a6557803560005b61010081108015611a3c5750600019811b821615155b15611a5b5760ff82821c1615611a53576040860395505b600801611a26565b5050602001611a19565b5050505b90565b600080611ae97fdb76b3b6f252d5a7418b86aea25c87126f450d18491ccb7b8427fe0e9697a31c846020015185606001518660a00151876080015188604001518960c0015180519060200120604051602001611ace979695949392919061330b565b6040516020818303038152906040528051906020012061278d565b9150505b919050565b6000611886611b0484603554856127d9565b849061188d565b600080611b1784611dfd565b905060006000805160206135bd8339815191526101f4737ceb23fd6bc0add59e62ac25578270cff1b9f6196101f46000805160206136b6833981519152604051602001611b68959493929190613112565b60408051601f1981840301815260a0830182528083526001600160a01b038716602084015260014201838301526060830185905260808301899052905163c04b8d5960e01b81529092506000805160206135ff8339815191529063c04b8d5990611bd6908490600401613534565b602060405180830381600087803b158015611bf057600080fd5b505af1158015611c04573d6000803e3d6000fd5b505050506040513d601f19601f82011682018060405250810190611c289190613059565b979650505050505050565b600080611c3f84611dfd565b905060006000805160206135bd8339815191526101f4737ceb23fd6bc0add59e62ac25578270cff1b9f6196101f4730d500b1d8e8ef31e21c99d1db9a6444d3adf1270604051602001611c96959493929190613112565b60408051601f1981840301815260a08301825280835230602084015260014201838301526060830185905260808301899052905163c04b8d5960e01b81529092506000805160206135ff8339815191529063c04b8d5990611cfb908490600401613534565b602060405180830381600087803b158015611d1557600080fd5b505af1158015611d29573d6000803e3d6000fd5b505050506040513d601f19601f82011682018060405250810190611d4d9190613059565b604051632e1a7d4d60e01b81529094508590730d500b1d8e8ef31e21c99d1db9a6444d3adf127090632e1a7d4d90611d899088906004016131d7565b600060405180830381600087803b158015611da357600080fd5b505af1158015611db7573d6000803e3d6000fd5b50506040516001600160a01b038416925087156108fc02915087906000818181858888f19350505050158015611df1573d6000803e3d6000fd5b50505050509392505050565b604051635320bf6b60e11b815260009073c2d95eef97ec6c17551d45e77b590dc1f9117c679063a6417ed690611e3e906001908590879083906004016133bc565b602060405180830381600087803b158015611e5857600080fd5b505af1158015611e6c573d6000803e3d6000fd5b505050506040513d601f19601f820116820180604052508101906118e99190613059565b604080516001600160a01b038416602482015260448082018490528251808303909101815260649091019091526020810180516001600160e01b031663a9059cbb60e01b179052610a1990849061281b565b600082820183811015611886576040805162461bcd60e51b815260206004820152601b60248201527a536166654d6174683a206164646974696f6e206f766572666c6f7760281b604482015290519081900360640190fd5b600082611f49575060006118e9565b82820282848281611f5657fe5b04146118865760405162461bcd60e51b81526004018080602001828103825260218152602001806136956021913960400191505060405180910390fd5b6000818310611fa25781611886565b5090919050565b6000611fb4306128cc565b15905090565b600080821161200d576040805162461bcd60e51b815260206004820152601a602482015279536166654d6174683a206469766973696f6e206279207a65726f60301b604482015290519081900360640190fd5b81838161201657fe5b049392505050565b8015806120a4575060408051636eb1769f60e11b81523060048201526001600160a01b03848116602483015291519185169163dd62ed3e91604480820192602092909190829003018186803b15801561207657600080fd5b505afa15801561208a573d6000803e3d6000fd5b505050506040513d60208110156120a057600080fd5b5051155b6120df5760405162461bcd60e51b81526004018080602001828103825260368152602001806137206036913960400191505060405180910390fd5b604080516001600160a01b038416602482015260448082018490528251808303909101815260649091019091526020810180516001600160e01b031663095ea7b360e01b179052610a1990849061281b565b4690565b6000806000805160206136b68339815191526101f4737ceb23fd6bc0add59e62ac25578270cff1b9f6196101f46000805160206135bd833981519152604051602001612185959493929190613112565b60408051601f1981840301815260a08301825280835230602084015260014201838301526060830186905260808301879052905163c04b8d5960e01b81529092506000805160206135ff8339815191529063c04b8d59906121ea908490600401613534565b602060405180830381600087803b15801561220457600080fd5b505af1158015612218573d6000803e3d6000fd5b505050506040513d601f19601f820116820180604052508101906119fe9190613059565b604051635320bf6b60e11b815260009073c2d95eef97ec6c17551d45e77b590dc1f9117c679063a6417ed690611e3e908490600190879082906004016133bc565b6000730d500b1d8e8ef31e21c99d1db9a6444d3adf12706101f4737ceb23fd6bc0add59e62ac25578270cff1b9f6196101f46000805160206135bd8339815191526040516020016122d2959493929190613112565b60408051601f198184030181529082905263cdca175360e01b8252915073b27308f9f90d607463bb33ea1bebb41c27ce5ab69063cdca175390612323908490670de0b6b3a76400009060040161339a565b602060405180830381600087803b15801561233d57600080fd5b505af1158015612351573d6000803e3d6000fd5b505050506040513d601f19601f820116820180604052508101906123759190613059565b60395550565b6040516370a0823160e01b815260009081906000805160206135bd833981519152906370a08231906123b19030906004016131e0565b60206040518083038186803b1580156123c957600080fd5b505afa1580156123dd573d6000803e3d6000fd5b505050506040513d601f19601f820116820180604052508101906124019190613059565b905060006000805160206135bd8339815191526101f4737ceb23fd6bc0add59e62ac25578270cff1b9f6196101f4730d500b1d8e8ef31e21c99d1db9a6444d3adf1270604051602001612458959493929190613112565b60408051601f1981840301815260a083018252808352306020840152600142810184840152606084018690526080840152905163c04b8d5960e01b81529092506000805160206135ff8339815191529063c04b8d59906124bc908490600401613534565b602060405180830381600087803b1580156124d657600080fd5b505af11580156124ea573d6000803e3d6000fd5b505050506040513d601f19601f8201168201806040525081019061250e9190613059565b604051632e1a7d4d60e01b8152909450730d500b1d8e8ef31e21c99d1db9a6444d3adf127090632e1a7d4d906125489087906004016131d7565b600060405180830381600087803b15801561256257600080fd5b505af1158015612576573d6000803e3d6000fd5b5050505050505090565b6000827fea2aa0a1be11a07ed86d755c93467f4f82362b452371d1ba94d1715123511acb60001b83600001513085608001516125bb876126a9565b60016040516020016125d2969594939291906132d5565b604051602081830303815290604052805190602001206040516020016125f99291906131bc565b60405160208183030381529060405280519060200120905092915050565b6000815160411461266f576040805162461bcd60e51b815260206004820152601f60248201527f45434453413a20696e76616c6964207369676e6174757265206c656e67746800604482015290519081900360640190fd5b60208201516040830151606084015160001a61268d868285856128d2565b9695505050505050565b6000611886611b0484603a54856127d9565b6020808201516040808401516060850151608086015160a08701516101a088015194516000976126db9796910161315f565b6040516020818303038152906040528051906020012060001c90505b42811015611aed578060405160200161271091906131d7565b6040516020818303038152906040528051906020012060001c90506126f7565b600080600083516041141561275b5750505060208101516040820151606083015160001a9190612786565b835160401415612786575050506020810151604082015160ff81901c601b0191906001600160ff1b03165b9193909250565b6000612797612a38565b82604051602001808061190160f01b81525060020183815260200182815260200192505050604051602081830303815290604052805190602001209050919050565b60006128136127e88585611868565b61073061280d6128033a603b54611fba90919063ffffffff16565b6209cbd090611ee2565b3a612a66565b949350505050565b6000612870826040518060400160405280602081526020017f5361666545524332303a206c6f772d6c6576656c2063616c6c206661696c6564815250856001600160a01b0316612a8d9092919063ffffffff16565b805190915015610a195780806020019051602081101561288f57600080fd5b5051610a195760405162461bcd60e51b815260040180806020018281038252602a8152602001806136d6602a913960400191505060405180910390fd5b3b151590565b60006fa2a8918ca85bafe22016d0b997e4df60600160ff1b038211156129295760405162461bcd60e51b81526004018080602001828103825260228152602001806135dd6022913960400191505060405180910390fd5b8360ff16601b148061293e57508360ff16601c145b6129795760405162461bcd60e51b81526004018080602001828103825260228152602001806136736022913960400191505060405180910390fd5b600060018686868660405160008152602001604052604051808581526020018460ff1681526020018381526020018281526020019450505050506020604051602081039080840390855afa1580156129d5573d6000803e3d6000fd5b5050604051601f1901519150506001600160a01b038116611a09576040805162461bcd60e51b815260206004820152601860248201527745434453413a20696e76616c6964207369676e617475726560401b604482015290519081900360640190fd5b6000612a61600080516020613700833981519152612a54612a9c565b612a5c612aa2565b612aa8565b905090565b6000611886670de0b6b3a76400006118806039546107363a88611f3a90919063ffffffff16565b60606128138484600085612b0a565b60015490565b60025490565b6000838383612ab5612131565b3060405160200180868152602001858152602001848152602001838152602001826001600160a01b03168152602001955050505050506040516020818303038152906040528051906020012090509392505050565b606082471015612b4b5760405162461bcd60e51b815260040180806020018281038252602681526020018061361f6026913960400191505060405180910390fd5b612b54856128cc565b612ba5576040805162461bcd60e51b815260206004820152601d60248201527f416464726573733a2063616c6c20746f206e6f6e2d636f6e7472616374000000604482015290519081900360640190fd5b600080866001600160a01b031685876040518082805190602001908083835b60208310612be35780518252601f199092019160209182019101612bc4565b6001836020036101000a03801982511681845116808217855250505050505090500191505060006040518083038185875af1925050503d8060008114612c45576040519150601f19603f3d011682016040523d82523d6000602084013e612c4a565b606091505b5091509150611c2882828660608315612c64575081611886565b825115612c745782518084602001fd5b8160405162461bcd60e51b81526004018080602001828103825283818151815260200191508051906020019080838360005b83811015612cbe578181015183820152602001612ca6565b50505050905090810190601f168015612ceb5780820380516001836020036101000a031916815260200191505b509250505060405180910390fd5b60405180610140016040528060006001600160a01b0316815260200160006001600160a01b03168152602001600081526020016000815260200160006001600160a01b0316815260200160006001600160a01b03168152602001606081526020016000815260200160008152602001600081525090565b80356001600160a01b0381168114611aed57600080fd5b600082601f830112612d97578081fd5b81356001600160401b0380821115612dab57fe5b604051601f8301601f191681016020018281118282101715612dc957fe5b604052828152848301602001861015612de0578384fd5b82602086016020830137918201602001929092529392505050565b600060208284031215612e0c578081fd5b61188682612d70565b60008060408385031215612e27578081fd5b612e3083612d70565b9150612e3e60208401612d70565b90509250929050565b6000806000806000806000806000806101408b8d031215612e66578586fd5b612e6f8b612d70565b9950612e7d60208c01612d70565b9850612e8b60408c01612d70565b975060608b0135965060808b0135955060a08b01359450612eae60c08c01612d70565b935060e08b013592506101008b01356001600160401b0380821115612ed1578384fd5b612edd8e838f01612d87565b93506101208d0135915080821115612ef3578283fd5b50612f008d828e01612d87565b9150509295989b9194979a5092959850565b600080600080600060a08688031215612f29578081fd5b612f3286612d70565b9450612f4060208701612d70565b9350604086013592506060860135915060808601356001600160401b03811115612f68578182fd5b612f7488828901612d87565b9150509295509295909350565b600080600080600080600060e0888a031215612f9b578283fd5b612fa488612d70565b9650612fb260208901612d70565b9550604088013594506060880135935060808801356001600160401b0380821115612fdb578485fd5b612fe78b838c01612d87565b945060a08a0135915080821115612ffc578384fd5b6130088b838c01612d87565b935060c08a013591508082111561301d578283fd5b5061302a8a828b01612d87565b91505092959891949750929550565b60006020828403121561304a578081fd5b81518015158114611886578182fd5b60006020828403121561306a578081fd5b5051919050565b60008060408385031215613083578182fd5b8235915060208301356001600160401b0381111561309f578182fd5b6130ab85828601612d87565b9150509250929050565b600080600080608085870312156130ca578384fd5b5050823594602084013594506040840135936060013592509050565b600081518084526130fe81602086016020860161358c565b601f01601f19169290920160200192915050565b6001600160601b0319606096871b811682526001600160e81b031960e896871b8116601484015294871b811660178301529290941b909216602b840152921b909116602e82015260420190565b600060018060601b03198860601b168252866014830152856034830152846054830152835161319581607485016020880161358c565b8351908301906131ac81607484016020880161358c565b0160740198975050505050505050565b61190160f01b81526002810192909252602282015260420190565b90815260200190565b6001600160a01b0391909116815260200190565b6001600160a01b039384168152919092166020820152604081019190915260600190565b6001600160a01b039889168152969097166020870152604086019490945260608501929092521515608084015260ff1660a083015260c082015260e08101919091526101000190565b6001600160a01b0397881681529590961660208601526040850193909352606084019190915260ff16608083015260a082015260c081019190915260e00190565b6001600160a01b038581168252602082018590528316604082015260806060820181905260009061268d908301846130e6565b9586526001600160a01b03948516602087015292909316604085015260608401526080830191909152151560a082015260c00190565b9687526001600160a01b03958616602088015260408701949094529184166060860152909216608084015260a083019190915260c082015260e00190565b9485526020850193909352604084019190915260608301526001600160a01b0316608082015260a00190565b60008582528460208301528360408301526080606083015261268d60808301846130e6565b6000604082526133ad60408301856130e6565b90508260208301529392505050565b600f94850b81529290930b60208301526040820152606081019190915260800190565b6020808252600b908201526a21676f7665726e616e636560a81b604082015260600190565b60208082526010908201526f085cdd5c1c1bdc9d19590b585cdcd95d60821b604082015260600190565b6020808252601b908201527a6572726f722073656e64696e6720746f20676f7665726e616e636560281b604082015260600190565b60208082526010908201526f21617070726f7665642d6d6f64756c6560801b604082015260600190565b6020808252600a9082015269217369676e617475726560b01b604082015260600190565b6020808252601b908201527a195c9c9bdc881cd95b991a5b99c81d1bc81cdd1c985d1959da5cdd602a1b604082015260600190565b60208082526009908201526821646561646c696e6560b81b604082015260600190565b602080825260119082015270746f6f206d7563682063616c6c6461746160781b604082015260600190565b600060208252825160a0602084015261355060c08401826130e6565b905060018060a01b0360208501511660408401526040840151606084015260608401516080840152608084015160a08401528091505092915050565b60005b838110156135a757818101518382015260200161358f565b838111156135b6576000848401525b5050505056fe0000000000000000000000001bfd67037b42cf73acf2047067bd4f2c47d9bfd645434453413a20696e76616c6964207369676e6174757265202773272076616c7565000000000000000000000000e592427a0aece92de3edee1f18e0157c05861564416464726573733a20696e73756666696369656e742062616c616e636520666f722063616c6c496e697469616c697a61626c653a20636f6e747261637420697320616c726561647920696e697469616c697a656445434453413a20696e76616c6964207369676e6174757265202776272076616c7565536166654d6174683a206d756c7469706c69636174696f6e206f766572666c6f770000000000000000000000002791bca1f2de4661ed88a30c99a7a9449aa841745361666545524332303a204552433230206f7065726174696f6e20646964206e6f7420737563636565648b73c3c69bb8fe3d512ecc4cf759cc79239f7b179b0ffacaa9a75d522b39400f5361666545524332303a20617070726f76652066726f6d206e6f6e2d7a65726f20746f206e6f6e2d7a65726f20616c6c6f77616e6365a2646970667358221220238e910e751ec4c928f29e51ba9f78bbbef86392920f78bd10aa7d421d4269a364736f6c63430007060033",
  "libraries": {},
  "devdoc": {
    "kind": "dev",
    "methods": {},
    "version": 1
  },
  "userdoc": {
    "kind": "user",
    "methods": {},
    "version": 1
  },
  "storageLayout": {
    "storage": [
      {
        "astId": 652,
        "contract": "contracts/controllers/BadgerBridgeZeroControllerMatic.sol:BadgerBridgeZeroControllerMatic",
        "label": "_initialized",
        "offset": 0,
        "slot": "0",
        "type": "t_bool"
      },
      {
        "astId": 655,
        "contract": "contracts/controllers/BadgerBridgeZeroControllerMatic.sol:BadgerBridgeZeroControllerMatic",
        "label": "_initializing",
        "offset": 1,
        "slot": "0",
        "type": "t_bool"
      },
      {
        "astId": 138,
        "contract": "contracts/controllers/BadgerBridgeZeroControllerMatic.sol:BadgerBridgeZeroControllerMatic",
        "label": "_HASHED_NAME",
        "offset": 0,
        "slot": "1",
        "type": "t_bytes32"
      },
      {
        "astId": 140,
        "contract": "contracts/controllers/BadgerBridgeZeroControllerMatic.sol:BadgerBridgeZeroControllerMatic",
        "label": "_HASHED_VERSION",
        "offset": 0,
        "slot": "2",
        "type": "t_bytes32"
      },
      {
        "astId": 289,
        "contract": "contracts/controllers/BadgerBridgeZeroControllerMatic.sol:BadgerBridgeZeroControllerMatic",
        "label": "__gap",
        "offset": 0,
        "slot": "3",
        "type": "t_array(t_uint256)50_storage"
      },
      {
        "astId": 13770,
        "contract": "contracts/controllers/BadgerBridgeZeroControllerMatic.sol:BadgerBridgeZeroControllerMatic",
        "label": "fee",
        "offset": 0,
        "slot": "53",
        "type": "t_uint256"
      },
      {
        "astId": 13772,
        "contract": "contracts/controllers/BadgerBridgeZeroControllerMatic.sol:BadgerBridgeZeroControllerMatic",
        "label": "governance",
        "offset": 0,
        "slot": "54",
        "type": "t_address"
      },
      {
        "astId": 13774,
        "contract": "contracts/controllers/BadgerBridgeZeroControllerMatic.sol:BadgerBridgeZeroControllerMatic",
        "label": "strategist",
        "offset": 0,
        "slot": "55",
        "type": "t_address"
      },
      {
        "astId": 13818,
        "contract": "contracts/controllers/BadgerBridgeZeroControllerMatic.sol:BadgerBridgeZeroControllerMatic",
        "label": "governanceFee",
        "offset": 0,
        "slot": "56",
        "type": "t_uint256"
      },
      {
        "astId": 13840,
        "contract": "contracts/controllers/BadgerBridgeZeroControllerMatic.sol:BadgerBridgeZeroControllerMatic",
        "label": "renbtcForOneETHPrice",
        "offset": 0,
        "slot": "57",
        "type": "t_uint256"
      },
      {
        "astId": 13842,
        "contract": "contracts/controllers/BadgerBridgeZeroControllerMatic.sol:BadgerBridgeZeroControllerMatic",
        "label": "burnFee",
        "offset": 0,
        "slot": "58",
        "type": "t_uint256"
      },
      {
        "astId": 13844,
        "contract": "contracts/controllers/BadgerBridgeZeroControllerMatic.sol:BadgerBridgeZeroControllerMatic",
        "label": "keeperReward",
        "offset": 0,
        "slot": "59",
        "type": "t_uint256"
      },
      {
        "astId": 13854,
        "contract": "contracts/controllers/BadgerBridgeZeroControllerMatic.sol:BadgerBridgeZeroControllerMatic",
        "label": "nonces",
        "offset": 0,
        "slot": "60",
        "type": "t_mapping(t_address,t_uint256)"
      },
      {
        "astId": 13856,
        "contract": "contracts/controllers/BadgerBridgeZeroControllerMatic.sol:BadgerBridgeZeroControllerMatic",
        "label": "PERMIT_DOMAIN_SEPARATOR_WBTC",
        "offset": 0,
        "slot": "61",
        "type": "t_bytes32"
      }
    ],
    "types": {
      "t_address": {
        "encoding": "inplace",
        "label": "address",
        "numberOfBytes": "20"
      },
      "t_array(t_uint256)50_storage": {
        "base": "t_uint256",
        "encoding": "inplace",
        "label": "uint256[50]",
        "numberOfBytes": "1600"
      },
      "t_bool": {
        "encoding": "inplace",
        "label": "bool",
        "numberOfBytes": "1"
      },
      "t_bytes32": {
        "encoding": "inplace",
        "label": "bytes32",
        "numberOfBytes": "32"
      },
      "t_mapping(t_address,t_uint256)": {
        "encoding": "mapping",
        "key": "t_address",
        "label": "mapping(address => uint256)",
        "numberOfBytes": "32",
        "value": "t_uint256"
      },
      "t_uint256": {
        "encoding": "inplace",
        "label": "uint256",
        "numberOfBytes": "32"
      }
    }
  }
}