{
  "address": "0xCC981075EE9C1a84DbAE768406cFE53e3e39BdeD",
  "abi": [
    {
      "inputs": [
        {
          "internalType": "address",
          "name": "_controller",
          "type": "address"
        },
        {
          "internalType": "address",
          "name": "_want",
          "type": "address"
        },
        {
          "internalType": "address",
          "name": "_nativeWrapper",
          "type": "address"
        },
        {
          "internalType": "address",
          "name": "_vault",
          "type": "address"
        },
        {
          "internalType": "address",
          "name": "_vaultWant",
          "type": "address"
        }
      ],
      "stateMutability": "nonpayable",
      "type": "constructor"
    },
    {
      "inputs": [],
      "name": "balanceOf",
      "outputs": [
        {
          "internalType": "uint256",
          "name": "",
          "type": "uint256"
        }
      ],
      "stateMutability": "view",
      "type": "function"
    },
    {
      "inputs": [],
      "name": "controller",
      "outputs": [
        {
          "internalType": "address",
          "name": "",
          "type": "address"
        }
      ],
      "stateMutability": "view",
      "type": "function"
    },
    {
      "inputs": [],
      "name": "deposit",
      "outputs": [],
      "stateMutability": "nonpayable",
      "type": "function"
    },
    {
      "inputs": [],
      "name": "gasReserve",
      "outputs": [
        {
          "internalType": "uint256",
          "name": "",
          "type": "uint256"
        }
      ],
      "stateMutability": "view",
      "type": "function"
    },
    {
      "inputs": [],
      "name": "governance",
      "outputs": [
        {
          "internalType": "address",
          "name": "",
          "type": "address"
        }
      ],
      "stateMutability": "view",
      "type": "function"
    },
    {
      "inputs": [],
      "name": "isActive",
      "outputs": [
        {
          "internalType": "bool",
          "name": "",
          "type": "bool"
        }
      ],
      "stateMutability": "view",
      "type": "function"
    },
    {
      "inputs": [],
      "name": "name",
      "outputs": [
        {
          "internalType": "string",
          "name": "",
          "type": "string"
        }
      ],
      "stateMutability": "view",
      "type": "function"
    },
    {
      "inputs": [],
      "name": "nativeWrapper",
      "outputs": [
        {
          "internalType": "address",
          "name": "",
          "type": "address"
        }
      ],
      "stateMutability": "view",
      "type": "function"
    },
    {
      "inputs": [
        {
          "internalType": "address payable",
          "name": "_target",
          "type": "address"
        },
        {
          "internalType": "uint256",
          "name": "_amount",
          "type": "uint256"
        }
      ],
      "name": "permissionedEther",
      "outputs": [],
      "stateMutability": "nonpayable",
      "type": "function"
    },
    {
      "inputs": [
        {
          "internalType": "address",
          "name": "_module",
          "type": "address"
        },
        {
          "internalType": "uint256",
          "name": "_amount",
          "type": "uint256"
        }
      ],
      "name": "permissionedSend",
      "outputs": [
        {
          "internalType": "uint256",
          "name": "",
          "type": "uint256"
        }
      ],
      "stateMutability": "nonpayable",
      "type": "function"
    },
    {
      "inputs": [],
      "name": "strategist",
      "outputs": [
        {
          "internalType": "address",
          "name": "",
          "type": "address"
        }
      ],
      "stateMutability": "view",
      "type": "function"
    },
    {
      "inputs": [],
      "name": "vault",
      "outputs": [
        {
          "internalType": "address",
          "name": "",
          "type": "address"
        }
      ],
      "stateMutability": "view",
      "type": "function"
    },
    {
      "inputs": [],
      "name": "vaultWant",
      "outputs": [
        {
          "internalType": "address",
          "name": "",
          "type": "address"
        }
      ],
      "stateMutability": "view",
      "type": "function"
    },
    {
      "inputs": [],
      "name": "vaultWantIndex",
      "outputs": [
        {
          "internalType": "int128",
          "name": "",
          "type": "int128"
        }
      ],
      "stateMutability": "view",
      "type": "function"
    },
    {
      "inputs": [],
      "name": "want",
      "outputs": [
        {
          "internalType": "address",
          "name": "",
          "type": "address"
        }
      ],
      "stateMutability": "view",
      "type": "function"
    },
    {
      "inputs": [],
      "name": "wantIndex",
      "outputs": [
        {
          "internalType": "int128",
          "name": "",
          "type": "int128"
        }
      ],
      "stateMutability": "view",
      "type": "function"
    },
    {
      "inputs": [],
      "name": "wantReserve",
      "outputs": [
        {
          "internalType": "uint256",
          "name": "",
          "type": "uint256"
        }
      ],
      "stateMutability": "view",
      "type": "function"
    },
    {
      "inputs": [
        {
          "internalType": "uint256",
          "name": "_amount",
          "type": "uint256"
        }
      ],
      "name": "withdraw",
      "outputs": [],
      "stateMutability": "nonpayable",
      "type": "function"
    },
    {
      "inputs": [],
      "name": "withdrawAll",
      "outputs": [],
      "stateMutability": "nonpayable",
      "type": "function"
    },
    {
      "stateMutability": "payable",
      "type": "receive"
    }
  ],
  "transactionHash": "0x47cd2415384545a4fd7652d4241de788dfa5299ec067c3875e8da06b8f510039",
  "args": [
    "0x8322D8a9851f8a09193529B365c35553570E5921",
    "0xDBf31dF14B66535aF65AaC99C32e9eA844e14501",
    "0x0d500B1d8E8eF31E21C99d1Db9A6444d3ADf1270",
    "0x63080eE2C95CD5699d174A6ef92df285aCb2e2Cc",
    "0x1BFD67037B42Cf73acF2047067bd4F2C47D9BfD6"
  ],
  "solcInputHash": "9cfa923a247d4c0a802570627e5d2ffa",
  "bytecode": "0x6101206040523480156200001257600080fd5b5060405162002db838038062002db8833981810160405260a08110156200003857600080fd5b50805160208083015160408401516060808601516080968701516001600160601b031984841b811660a05285841b811660c05282841b811690985280831b881660e052600080546001600160a01b0319908116339081179092556001805490911690911790559186901b90961661010052939491939092620000d4906001600160a01b0383169084906000199062001b3f620000df821b17901c565b5050505050620004f1565b80158062000169575060408051636eb1769f60e11b81523060048201526001600160a01b03848116602483015291519185169163dd62ed3e91604480820192602092909190829003018186803b1580156200013957600080fd5b505afa1580156200014e573d6000803e3d6000fd5b505050506040513d60208110156200016557600080fd5b5051155b620001a65760405162461bcd60e51b815260040180806020018281038252603681526020018062002d826036913960400191505060405180910390fd5b604080516001600160a01b038416602482015260448082018490528251808303909101815260649091019091526020810180516001600160e01b0390811663095ea7b360e01b17909152620001fe9185916200020316565b505050565b60006200025f826040518060400160405280602081526020017f5361666545524332303a206c6f772d6c6576656c2063616c6c206661696c6564815250856001600160a01b0316620002bf60201b62001c52179092919060201c565b805190915015620001fe578080602001905160208110156200028057600080fd5b5051620001fe5760405162461bcd60e51b815260040180806020018281038252602a81526020018062002d58602a913960400191505060405180910390fd5b6060620002d08484600085620002da565b90505b9392505050565b6060824710156200031d5760405162461bcd60e51b815260040180806020018281038252602681526020018062002d326026913960400191505060405180910390fd5b620003288562000441565b6200037a576040805162461bcd60e51b815260206004820152601d60248201527f416464726573733a2063616c6c20746f206e6f6e2d636f6e7472616374000000604482015290519081900360640190fd5b600080866001600160a01b031685876040518082805190602001908083835b60208310620003ba5780518252601f19909201916020918201910162000399565b6001836020036101000a03801982511681845116808217855250505050505090500191505060006040518083038185875af1925050503d80600081146200041e576040519150601f19603f3d011682016040523d82523d6000602084013e62000423565b606091505b5090925090506200043682828662000447565b979650505050505050565b3b151590565b6060831562000458575081620002d3565b825115620004695782518084602001fd5b8160405162461bcd60e51b81526004018080602001828103825283818151815260200191508051906020019080838360005b83811015620004b55781810151838201526020016200049b565b50505050905090810190601f168015620004e35780820380516001836020036101000a031916815260200191505b509250505060405180910390fd5b60805160601c60a05160601c60c05160601c60e05160601c6101005160601c6126e9620006496000398061048752806104ec52806106235280610688528061077652806107e85280610a585280610b1d5280610e1452806110a2528061140a528061175452806119305280611af95280611d295250806108385280610a005280610bbe52806110f2528061145a52806116fc52806117f55280611ac95280611caa5280611d795280611f935250806104465280610511528061053f52806107455280610e785280610f8e5280610ff952806110d152806111e85280611c6f5280611d585280611e155280611f5e52508061042252806108175280610a285280610ae55280610cd55280611439528061172452806118f852806119d152508061057c52806106ac52806109585280611368528061157d52806116545280611b1d5280611eca528061211252806121b352506126e96000f3fe6080604052600436106101175760003560e01c8063853828b6116100a0578063d3a71c4e11610064578063d3a71c4e14610376578063eea7570e1461038b578063f4f2a509146103a0578063f77c4791146103b5578063fbfa77cf146103ca5761011e565b8063853828b6146102ae5780638802bdad146102c35780639068871f146102fc578063a60bbc8014610328578063d0e30db0146103615761011e565b80631fe4a686116100e75780631fe4a6861461021a57806322f3e2d41461022f5780632e1a7d4d146102585780635aa6e67514610284578063722713f7146102995761011e565b806262ba931461012357806306fdde031461014a5780630b48a8b8146101d45780631f1fcd51146102055761011e565b3661011e57005b600080fd5b34801561012f57600080fd5b506101386103df565b60408051918252519081900360200190f35b34801561015657600080fd5b5061015f6103e7565b6040805160208082528351818301528351919283929083019185019080838360005b83811015610199578181015183820152602001610181565b50505050905090810190601f1680156101c65780820380516001836020036101000a031916815260200191505b509250505060405180910390f35b3480156101e057600080fd5b506101e9610420565b604080516001600160a01b039092168252519081900360200190f35b34801561021157600080fd5b506101e9610444565b34801561022657600080fd5b506101e9610468565b34801561023b57600080fd5b50610244610477565b604080519115158252519081900360200190f35b34801561026457600080fd5b506102826004803603602081101561027b57600080fd5b503561047c565b005b34801561029057600080fd5b506101e9610569565b3480156102a557600080fd5b50610138610578565b3480156102ba57600080fd5b50610282610618565b3480156102cf57600080fd5b50610282600480360360408110156102e657600080fd5b506001600160a01b03813516906020013561076b565b34801561030857600080fd5b50610311610e02565b60408051600f9290920b8252519081900360200190f35b34801561033457600080fd5b506101386004803603604081101561034b57600080fd5b506001600160a01b038135169060200135610e07565b34801561036d57600080fd5b50610282610ff5565b34801561038257600080fd5b506101e9611ac7565b34801561039757600080fd5b50610138611aeb565b3480156103ac57600080fd5b50610311610477565b3480156103c157600080fd5b506101e9611af7565b3480156103d657600080fd5b506101e9611b1b565b630bebc20081565b6040518060400160405280601c81526020017f30636f6e6669726d6174696f6e2052656e564d2053747261746567790000000081525081565b7f000000000000000000000000000000000000000000000000000000000000000081565b7f000000000000000000000000000000000000000000000000000000000000000081565b6001546001600160a01b031681565b600181565b336001600160a01b037f000000000000000000000000000000000000000000000000000000000000000016146104e7576040805162461bcd60e51b815260206004820152600b60248201526a10b1b7b73a3937b63632b960a91b604482015290519081900360640190fd5b6105667f0000000000000000000000000000000000000000000000000000000000000000610535837f0000000000000000000000000000000000000000000000000000000000000000611c6b565b6001600160a01b037f00000000000000000000000000000000000000000000000000000000000000001691906120b9565b50565b6000546001600160a01b031681565b60007f00000000000000000000000000000000000000000000000000000000000000006001600160a01b03166370a08231306040518263ffffffff1660e01b815260040180826001600160a01b0316815260200191505060206040518083038186803b1580156105e757600080fd5b505afa1580156105fb573d6000803e3d6000fd5b505050506040513d602081101561061157600080fd5b5051905090565b336001600160a01b037f00000000000000000000000000000000000000000000000000000000000000001614610683576040805162461bcd60e51b815260206004820152600b60248201526a10b1b7b73a3937b63632b960a91b604482015290519081900360640190fd5b6107697f00000000000000000000000000000000000000000000000000000000000000006105357f00000000000000000000000000000000000000000000000000000000000000006001600160a01b03166370a08231306040518263ffffffff1660e01b815260040180826001600160a01b0316815260200191505060206040518083038186803b15801561071757600080fd5b505afa15801561072b573d6000803e3d6000fd5b505050506040513d602081101561074157600080fd5b50517f0000000000000000000000000000000000000000000000000000000000000000611c6b565b565b336001600160a01b037f000000000000000000000000000000000000000000000000000000000000000016146107d6576040805162461bcd60e51b815260206004820152600b60248201526a10b1b7b73a3937b63632b960a91b604482015290519081900360640190fd5b674563918244f40000811115610dc7577f00000000000000000000000000000000000000000000000000000000000000006001600160a01b031663e4f2494d7f00000000000000000000000000000000000000000000000000000000000000007f00000000000000000000000000000000000000000000000000000000000000006040518363ffffffff1660e01b815260040180836001600160a01b03168152602001826001600160a01b031681526020019250505060206040518083038186803b1580156108a457600080fd5b505afa1580156108b8573d6000803e3d6000fd5b505050506040513d60208110156108ce57600080fd5b50516040805163138f252760e31b81526004810184905290516001600160a01b0390921691639c79293891602480820192602092909190829003018186803b15801561091957600080fd5b505afa15801561092d573d6000803e3d6000fd5b505050506040513d602081101561094357600080fd5b5051905060006109528261210b565b905060007f00000000000000000000000000000000000000000000000000000000000000006001600160a01b0316632e1a7d4d836040518263ffffffff1660e01b815260040180828152602001915050602060405180830381600087803b1580156109bc57600080fd5b505af11580156109d0573d6000803e3d6000fd5b505050506040513d60208110156109e657600080fd5b50516040805163e4f2494d60e01b81526001600160a01b037f0000000000000000000000000000000000000000000000000000000000000000811660048301527f00000000000000000000000000000000000000000000000000000000000000008116602483015291519293506000927f00000000000000000000000000000000000000000000000000000000000000009092169163e4f2494d91604480820192602092909190829003018186803b158015610aa157600080fd5b505afa158015610ab5573d6000803e3d6000fd5b505050506040513d6020811015610acb57600080fd5b50516040805163e4f2494d60e01b81526001600160a01b037f000000000000000000000000000000000000000000000000000000000000000081166004830152600060248301819052925193945091927f00000000000000000000000000000000000000000000000000000000000000009092169163e4f2494d91604480820192602092909190829003018186803b158015610b6657600080fd5b505afa158015610b7a573d6000803e3d6000fd5b505050506040513d6020811015610b9057600080fd5b50516040805163a9059cbb60e01b81526001600160a01b0385811660048301526024820187905291519293507f00000000000000000000000000000000000000000000000000000000000000009091169163a9059cbb916044808201926020929091908290030181600087803b158015610c0957600080fd5b505af1158015610c1d573d6000803e3d6000fd5b505050506040513d6020811015610c3357600080fd5b50506040805163def2489b60e01b815230600482015290516001600160a01b0384169163def2489b9160248083019260209291908290030181600087803b158015610c7d57600080fd5b505af1158015610c91573d6000803e3d6000fd5b505050506040513d6020811015610ca757600080fd5b50516040805163a9059cbb60e01b81526001600160a01b0384811660048301526024820184905291519297507f00000000000000000000000000000000000000000000000000000000000000009091169163a9059cbb916044808201926020929091908290030181600087803b158015610d2057600080fd5b505af1158015610d34573d6000803e3d6000fd5b505050506040513d6020811015610d4a57600080fd5b50506040805163def2489b60e01b815230600482015290516001600160a01b0383169163def2489b9160248083019260209291908290030181600087803b158015610d9457600080fd5b505af1158015610da8573d6000803e3d6000fd5b505050506040513d6020811015610dbe57600080fd5b50519450505050505b6040516001600160a01b0383169082156108fc029083906000818181858888f19350505050158015610dfd573d6000803e3d6000fd5b505050565b600081565b6000336001600160a01b037f00000000000000000000000000000000000000000000000000000000000000001614610e74576040805162461bcd60e51b815260206004820152600b60248201526a10b1b7b73a3937b63632b960a91b604482015290519081900360640190fd5b60007f00000000000000000000000000000000000000000000000000000000000000006001600160a01b03166370a08231306040518263ffffffff1660e01b815260040180826001600160a01b0316815260200191505060206040518083038186803b158015610ee357600080fd5b505afa158015610ef7573d6000803e3d6000fd5b505050506040513d6020811015610f0d57600080fd5b505160408051631f1fcd5160e01b815290519192506000916001600160a01b03871691631f1fcd51916004808301926020929190829003018186803b158015610f5557600080fd5b505afa158015610f69573d6000803e3d6000fd5b505050506040513d6020811015610f7f57600080fd5b5051905081841180610fc357507f00000000000000000000000000000000000000000000000000000000000000006001600160a01b0316816001600160a01b031614155b15610fd557610fd28482611c6b565b93505b610fe96001600160a01b03821686866120b9565b83925050505b92915050565b60007f00000000000000000000000000000000000000000000000000000000000000006001600160a01b03166370a08231306040518263ffffffff1660e01b815260040180826001600160a01b0316815260200191505060206040518083038186803b15801561106457600080fd5b505afa158015611078573d6000803e3d6000fd5b505050506040513d602081101561108e57600080fd5b50519050630bebc2008111156113e15760007f00000000000000000000000000000000000000000000000000000000000000006001600160a01b031663e4f2494d7f00000000000000000000000000000000000000000000000000000000000000007f00000000000000000000000000000000000000000000000000000000000000006040518363ffffffff1660e01b815260040180836001600160a01b03168152602001826001600160a01b031681526020019250505060206040518083038186803b15801561115e57600080fd5b505afa158015611172573d6000803e3d6000fd5b505050506040513d602081101561118857600080fd5b505190506001600160a01b0381166111d4576040805162461bcd60e51b815260206004820152600a60248201526910b1b7b73b32b93a32b960b11b604482015290519081900360640190fd5b60006111e483630bebc200612239565b90507f00000000000000000000000000000000000000000000000000000000000000006001600160a01b031663a9059cbb83836040518363ffffffff1660e01b815260040180836001600160a01b0316815260200182815260200192505050602060405180830381600087803b15801561125d57600080fd5b505af1158015611271573d6000803e3d6000fd5b505050506040513d602081101561128757600080fd5b50516112c6576040805162461bcd60e51b815260206004820152600960248201526810ba3930b739b332b960b91b604482015290519081900360640190fd5b6000826001600160a01b031663def2489b60006040518263ffffffff1660e01b815260040180826001600160a01b03168152602001915050602060405180830381600087803b15801561131857600080fd5b505af115801561132c573d6000803e3d6000fd5b505050506040513d602081101561134257600080fd5b50516040805163b6b55f2560e01b81526004810183905290519192506001600160a01b037f0000000000000000000000000000000000000000000000000000000000000000169163b6b55f25916024808201926020929091908290030181600087803b1580156113b157600080fd5b505af11580156113c5573d6000803e3d6000fd5b505050506040513d60208110156113db57600080fd5b50505050505b47674563918244f40000811015611ac357611404674563918244f4000082612239565b905060007f00000000000000000000000000000000000000000000000000000000000000006001600160a01b031663e4f2494d7f00000000000000000000000000000000000000000000000000000000000000007f00000000000000000000000000000000000000000000000000000000000000006040518363ffffffff1660e01b815260040180836001600160a01b03168152602001826001600160a01b031681526020019250505060206040518083038186803b1580156114c657600080fd5b505afa1580156114da573d6000803e3d6000fd5b505050506040513d60208110156114f057600080fd5b50516040805163138f252760e31b81526004810185905290519192506000916001600160a01b03841691639c792938916024808301926020929190829003018186803b15801561153f57600080fd5b505afa158015611553573d6000803e3d6000fd5b505050506040513d602081101561156957600080fd5b5051905060006115788261210b565b9050807f00000000000000000000000000000000000000000000000000000000000000006001600160a01b03166370a08231306040518263ffffffff1660e01b815260040180826001600160a01b0316815260200191505060206040518083038186803b1580156115e857600080fd5b505afa1580156115fc573d6000803e3d6000fd5b505050506040513d602081101561161257600080fd5b505111611650576040805162461bcd60e51b8152602060048201526007602482015266042cadcdeeaced60cb1b604482015290519081900360640190fd5b60007f00000000000000000000000000000000000000000000000000000000000000006001600160a01b0316632e1a7d4d836040518263ffffffff1660e01b815260040180828152602001915050602060405180830381600087803b1580156116b857600080fd5b505af11580156116cc573d6000803e3d6000fd5b505050506040513d60208110156116e257600080fd5b50516040805163e4f2494d60e01b81526001600160a01b037f0000000000000000000000000000000000000000000000000000000000000000811660048301527f00000000000000000000000000000000000000000000000000000000000000008116602483015291519293506000927f00000000000000000000000000000000000000000000000000000000000000009092169163e4f2494d91604480820192602092909190829003018186803b15801561179d57600080fd5b505afa1580156117b1573d6000803e3d6000fd5b505050506040513d60208110156117c757600080fd5b50516040805163a9059cbb60e01b81526001600160a01b0380841660048301526024820186905291519293507f00000000000000000000000000000000000000000000000000000000000000009091169163a9059cbb916044808201926020929091908290030181600087803b15801561184057600080fd5b505af1158015611854573d6000803e3d6000fd5b505050506040513d602081101561186a57600080fd5b50506040805163def2489b60e01b815230600482015290516001600160a01b0383169163def2489b9160248083019260209291908290030181600087803b1580156118b457600080fd5b505af11580156118c8573d6000803e3d6000fd5b505050506040513d60208110156118de57600080fd5b50516040805163e4f2494d60e01b81526001600160a01b037f000000000000000000000000000000000000000000000000000000000000000081166004830152600060248301819052925193955091927f00000000000000000000000000000000000000000000000000000000000000009092169163e4f2494d91604480820192602092909190829003018186803b15801561197957600080fd5b505afa15801561198d573d6000803e3d6000fd5b505050506040513d60208110156119a357600080fd5b50516040805163a9059cbb60e01b81526001600160a01b0380841660048301526024820187905291519293507f00000000000000000000000000000000000000000000000000000000000000009091169163a9059cbb916044808201926020929091908290030181600087803b158015611a1c57600080fd5b505af1158015611a30573d6000803e3d6000fd5b505050506040513d6020811015611a4657600080fd5b50506040805163def2489b60e01b815230600482015290516001600160a01b0383169163def2489b9160248083019260209291908290030181600087803b158015611a9057600080fd5b505af1158015611aa4573d6000803e3d6000fd5b505050506040513d6020811015611aba57600080fd5b50505050505050505b5050565b7f000000000000000000000000000000000000000000000000000000000000000081565b674563918244f4000081565b7f000000000000000000000000000000000000000000000000000000000000000081565b7f000000000000000000000000000000000000000000000000000000000000000081565b801580611bc5575060408051636eb1769f60e11b81523060048201526001600160a01b03848116602483015291519185169163dd62ed3e91604480820192602092909190829003018186803b158015611b9757600080fd5b505afa158015611bab573d6000803e3d6000fd5b505050506040513d6020811015611bc157600080fd5b5051155b611c005760405162461bcd60e51b815260040180806020018281038252603681526020018061267e6036913960400191505060405180910390fd5b604080516001600160a01b038416602482015260448082018490528251808303909101815260649091019091526020810180516001600160e01b031663095ea7b360e01b179052610dfd908490612296565b6060611c618484600085612347565b90505b9392505050565b60007f00000000000000000000000000000000000000000000000000000000000000006001600160a01b0316826001600160a01b03161480611cde57507f00000000000000000000000000000000000000000000000000000000000000006001600160a01b0316826001600160a01b0316145b611d25576040805162461bcd60e51b8152602060048201526013602482015272185cdcd95d081b9bdd081cdd5c1c1bdc9d1959606a1b604482015290519081900360640190fd5b60007f00000000000000000000000000000000000000000000000000000000000000006001600160a01b031663e4f2494d7f00000000000000000000000000000000000000000000000000000000000000007f00000000000000000000000000000000000000000000000000000000000000006040518363ffffffff1660e01b815260040180836001600160a01b03168152602001826001600160a01b031681526020019250505060206040518083038186803b158015611de557600080fd5b505afa158015611df9573d6000803e3d6000fd5b505050506040513d6020811015611e0f57600080fd5b505190507f00000000000000000000000000000000000000000000000000000000000000006001600160a01b039081169084161415611ebb57806001600160a01b0316639c792938856040518263ffffffff1660e01b81526004018082815260200191505060206040518083038186803b158015611e8c57600080fd5b505afa158015611ea0573d6000803e3d6000fd5b505050506040513d6020811015611eb657600080fd5b505193505b6000611ec68561210b565b90507f00000000000000000000000000000000000000000000000000000000000000006001600160a01b0316632e1a7d4d826040518263ffffffff1660e01b815260040180828152602001915050602060405180830381600087803b158015611f2e57600080fd5b505af1158015611f42573d6000803e3d6000fd5b505050506040513d6020811015611f5857600080fd5b505194507f00000000000000000000000000000000000000000000000000000000000000006001600160a01b0390811690851614156120b0577f00000000000000000000000000000000000000000000000000000000000000006001600160a01b031663a9059cbb83876040518363ffffffff1660e01b815260040180836001600160a01b0316815260200182815260200192505050602060405180830381600087803b15801561200857600080fd5b505af115801561201c573d6000803e3d6000fd5b505050506040513d602081101561203257600080fd5b50506040805163def2489b60e01b815260006004820181905291516001600160a01b0385169263def2489b92602480820193602093909283900390910190829087803b15801561208157600080fd5b505af1158015612095573d6000803e3d6000fd5b505050506040513d60208110156120ab57600080fd5b505194505b50929392505050565b604080516001600160a01b038416602482015260448082018490528251808303909101815260649091019091526020810180516001600160e01b031663a9059cbb60e01b179052610dfd908490612296565b6000610fef7f00000000000000000000000000000000000000000000000000000000000000006001600160a01b03166399530b066040518163ffffffff1660e01b815260040160206040518083038186803b15801561216957600080fd5b505afa15801561217d573d6000803e3d6000fd5b505050506040513d602081101561219357600080fd5b50516040805163313ce56760e01b81529051612233916001600160a01b037f0000000000000000000000000000000000000000000000000000000000000000169163313ce56791600480820192602092909190829003018186803b1580156121fa57600080fd5b505afa15801561220e573d6000803e3d6000fd5b505050506040513d602081101561222457600080fd5b5051859060ff16600a0a6124a2565b906124fb565b600082821115612290576040805162461bcd60e51b815260206004820152601e60248201527f536166654d6174683a207375627472616374696f6e206f766572666c6f770000604482015290519081900360640190fd5b50900390565b60006122eb826040518060400160405280602081526020017f5361666545524332303a206c6f772d6c6576656c2063616c6c206661696c6564815250856001600160a01b0316611c529092919063ffffffff16565b805190915015610dfd5780806020019051602081101561230a57600080fd5b5051610dfd5760405162461bcd60e51b815260040180806020018281038252602a815260200180612654602a913960400191505060405180910390fd5b6060824710156123885760405162461bcd60e51b815260040180806020018281038252602681526020018061260d6026913960400191505060405180910390fd5b61239185612562565b6123e2576040805162461bcd60e51b815260206004820152601d60248201527f416464726573733a2063616c6c20746f206e6f6e2d636f6e7472616374000000604482015290519081900360640190fd5b600080866001600160a01b031685876040518082805190602001908083835b602083106124205780518252601f199092019160209182019101612401565b6001836020036101000a03801982511681845116808217855250505050505090500191505060006040518083038185875af1925050503d8060008114612482576040519150601f19603f3d011682016040523d82523d6000602084013e612487565b606091505b5091509150612497828286612568565b979650505050505050565b6000826124b157506000610fef565b828202828482816124be57fe5b0414611c645760405162461bcd60e51b81526004018080602001828103825260218152602001806126336021913960400191505060405180910390fd5b6000808211612551576040805162461bcd60e51b815260206004820152601a60248201527f536166654d6174683a206469766973696f6e206279207a65726f000000000000604482015290519081900360640190fd5b81838161255a57fe5b049392505050565b3b151590565b60608315612577575081611c64565b8251156125875782518084602001fd5b8160405162461bcd60e51b81526004018080602001828103825283818151815260200191508051906020019080838360005b838110156125d15781810151838201526020016125b9565b50505050905090810190601f1680156125fe5780820380516001836020036101000a031916815260200191505b509250505060405180910390fdfe416464726573733a20696e73756666696369656e742062616c616e636520666f722063616c6c536166654d6174683a206d756c7469706c69636174696f6e206f766572666c6f775361666545524332303a204552433230206f7065726174696f6e20646964206e6f7420737563636565645361666545524332303a20617070726f76652066726f6d206e6f6e2d7a65726f20746f206e6f6e2d7a65726f20616c6c6f77616e6365a2646970667358221220975576bc615a761a496450bb8a28f210271d93ed7377e4c5fda95bceeb05ce8064736f6c63430007060033416464726573733a20696e73756666696369656e742062616c616e636520666f722063616c6c5361666545524332303a204552433230206f7065726174696f6e20646964206e6f7420737563636565645361666545524332303a20617070726f76652066726f6d206e6f6e2d7a65726f20746f206e6f6e2d7a65726f20616c6c6f77616e6365",
  "devdoc": {
    "kind": "dev",
    "methods": {},
    "version": 1
  },
  "userdoc": {
    "kind": "user",
    "methods": {},
    "version": 1
  },
  "storageLayout": {
    "storage": [
      {
        "astId": 8998,
        "contract": "contracts/strategies/StrategyRenVM.sol:StrategyRenVM",
        "label": "governance",
        "offset": 0,
        "slot": "0",
        "type": "t_address"
      },
      {
        "astId": 9000,
        "contract": "contracts/strategies/StrategyRenVM.sol:StrategyRenVM",
        "label": "strategist",
        "offset": 0,
        "slot": "1",
        "type": "t_address"
      }
    ],
    "types": {
      "t_address": {
        "encoding": "inplace",
        "label": "address",
        "numberOfBytes": "20"
      }
    }
  }
}