{
  "address": "0xaCD5575991aB1624A2a1FEb62A5390f76bEC92Eb",
  "abi": [
    {
      "inputs": [
        {
          "internalType": "address",
          "name": "_controller",
          "type": "address"
        },
        {
          "internalType": "address",
          "name": "_wNative",
          "type": "address"
        },
        {
          "internalType": "address",
          "name": "_want",
          "type": "address"
        },
        {
          "internalType": "address",
          "name": "_router",
          "type": "address"
        },
        {
          "internalType": "address",
          "name": "_fiat",
          "type": "address"
        },
        {
          "internalType": "address",
          "name": "_controllerWant",
          "type": "address"
        }
      ],
      "stateMutability": "nonpayable",
      "type": "constructor"
    },
    {
      "inputs": [],
      "name": "blockTimeout",
      "outputs": [
        {
          "internalType": "uint256",
          "name": "",
          "type": "uint256"
        }
      ],
      "stateMutability": "view",
      "type": "function"
    },
    {
      "inputs": [
        {
          "internalType": "uint256",
          "name": "_in",
          "type": "uint256"
        }
      ],
      "name": "computeReserveRequirement",
      "outputs": [
        {
          "internalType": "uint256",
          "name": "",
          "type": "uint256"
        }
      ],
      "stateMutability": "view",
      "type": "function"
    },
    {
      "inputs": [],
      "name": "controller",
      "outputs": [
        {
          "internalType": "address",
          "name": "",
          "type": "address"
        }
      ],
      "stateMutability": "view",
      "type": "function"
    },
    {
      "inputs": [],
      "name": "controllerWant",
      "outputs": [
        {
          "internalType": "address",
          "name": "",
          "type": "address"
        }
      ],
      "stateMutability": "view",
      "type": "function"
    },
    {
      "inputs": [
        {
          "internalType": "uint256",
          "name": "_nonce",
          "type": "uint256"
        }
      ],
      "name": "defaultLoan",
      "outputs": [],
      "stateMutability": "nonpayable",
      "type": "function"
    },
    {
      "inputs": [],
      "name": "fiat",
      "outputs": [
        {
          "internalType": "address",
          "name": "",
          "type": "address"
        }
      ],
      "stateMutability": "view",
      "type": "function"
    },
    {
      "inputs": [],
      "name": "governance",
      "outputs": [
        {
          "internalType": "address",
          "name": "",
          "type": "address"
        }
      ],
      "stateMutability": "view",
      "type": "function"
    },
    {
      "inputs": [
        {
          "internalType": "uint256",
          "name": "",
          "type": "uint256"
        }
      ],
      "name": "outstanding",
      "outputs": [
        {
          "internalType": "address",
          "name": "token",
          "type": "address"
        },
        {
          "internalType": "uint64",
          "name": "when",
          "type": "uint64"
        },
        {
          "internalType": "uint256",
          "name": "qty",
          "type": "uint256"
        }
      ],
      "stateMutability": "view",
      "type": "function"
    },
    {
      "inputs": [
        {
          "internalType": "address",
          "name": "_to",
          "type": "address"
        },
        {
          "internalType": "address",
          "name": "_asset",
          "type": "address"
        },
        {
          "internalType": "uint256",
          "name": "_actual",
          "type": "uint256"
        },
        {
          "internalType": "uint256",
          "name": "_nonce",
          "type": "uint256"
        },
        {
          "internalType": "bytes",
          "name": "_data",
          "type": "bytes"
        }
      ],
      "name": "receiveLoan",
      "outputs": [],
      "stateMutability": "nonpayable",
      "type": "function"
    },
    {
      "inputs": [
        {
          "internalType": "address",
          "name": "_to",
          "type": "address"
        },
        {
          "internalType": "address",
          "name": "_asset",
          "type": "address"
        },
        {
          "internalType": "uint256",
          "name": "_actualAmount",
          "type": "uint256"
        },
        {
          "internalType": "uint256",
          "name": "_nonce",
          "type": "uint256"
        },
        {
          "internalType": "bytes",
          "name": "_data",
          "type": "bytes"
        }
      ],
      "name": "repayLoan",
      "outputs": [],
      "stateMutability": "nonpayable",
      "type": "function"
    },
    {
      "inputs": [],
      "name": "router",
      "outputs": [
        {
          "internalType": "address",
          "name": "",
          "type": "address"
        }
      ],
      "stateMutability": "view",
      "type": "function"
    },
    {
      "inputs": [
        {
          "internalType": "uint256",
          "name": "_ct",
          "type": "uint256"
        }
      ],
      "name": "setBlockTimeout",
      "outputs": [],
      "stateMutability": "nonpayable",
      "type": "function"
    },
    {
      "inputs": [],
      "name": "wNative",
      "outputs": [
        {
          "internalType": "address",
          "name": "",
          "type": "address"
        }
      ],
      "stateMutability": "view",
      "type": "function"
    },
    {
      "inputs": [],
      "name": "want",
      "outputs": [
        {
          "internalType": "address",
          "name": "",
          "type": "address"
        }
      ],
      "stateMutability": "view",
      "type": "function"
    }
  ],
  "transactionHash": "0xedd5fcbe5f8c95618dc4ec7022cdcc2cfae45799825a65973ca966864b85423b",
  "args": [
    "0xba227751e973C6DfEb4A56F811215F847EFEfC3E",
    "0x7ceB23fD6bC0adD59E62ac25578270cFf1b9f619",
    "0x1BFD67037B42Cf73acF2047067bd4F2C47D9BfD6",
    "0x1b02dA8Cb0d097eB8D57A175b88c7D8b47997506",
    "0x2791Bca1f2de4661ED88A30C99A7a9449Aa84174",
    "0xDBf31dF14B66535aF65AaC99C32e9eA844e14501"
  ],
  "solcInputHash": "e31e0f139d284a22e01d46b230649d8c",
  "bytecode": "0x6101606040523480156200001257600080fd5b506040516200181e3803806200181e833981810160405260c08110156200003857600080fd5b50805160208083015160408085015160608087015160808089015160a0909901516001600160601b031989851b811690925286841b821660e05284841b82166101005282841b82166101205289841b821660c0529283901b16610140528351635aa6e67560e01b8152935196979496929590949391926001600160a01b03891692635aa6e675926004808301939192829003018186803b158015620000dc57600080fd5b505afa158015620000f1573d6000803e3d6000fd5b505050506040513d60208110156200010857600080fd5b505160601b6001600160601b03191660a0526200013e6001600160a01b0385168460001962000171602090811b6200087017901c565b6200016583600019846001600160a01b03166200017160201b62000870179092919060201c565b50505050505062000583565b801580620001fb575060408051636eb1769f60e11b81523060048201526001600160a01b03848116602483015291519185169163dd62ed3e91604480820192602092909190829003018186803b158015620001cb57600080fd5b505afa158015620001e0573d6000803e3d6000fd5b505050506040513d6020811015620001f757600080fd5b5051155b620002385760405162461bcd60e51b8152600401808060200182810382526036815260200180620017e86036913960400191505060405180910390fd5b604080516001600160a01b038416602482015260448082018490528251808303909101815260649091019091526020810180516001600160e01b0390811663095ea7b360e01b17909152620002909185916200029516565b505050565b6000620002f1826040518060400160405280602081526020017f5361666545524332303a206c6f772d6c6576656c2063616c6c206661696c6564815250856001600160a01b03166200035160201b62000988179092919060201c565b80519091501562000290578080602001905160208110156200031257600080fd5b5051620002905760405162461bcd60e51b815260040180806020018281038252602a815260200180620017be602a913960400191505060405180910390fd5b60606200036284846000856200036c565b90505b9392505050565b606082471015620003af5760405162461bcd60e51b8152600401808060200182810382526026815260200180620017986026913960400191505060405180910390fd5b620003ba85620004d3565b6200040c576040805162461bcd60e51b815260206004820152601d60248201527f416464726573733a2063616c6c20746f206e6f6e2d636f6e7472616374000000604482015290519081900360640190fd5b600080866001600160a01b031685876040518082805190602001908083835b602083106200044c5780518252601f1990920191602091820191016200042b565b6001836020036101000a03801982511681845116808217855250505050505090500191505060006040518083038185875af1925050503d8060008114620004b0576040519150601f19603f3d011682016040523d82523d6000602084013e620004b5565b606091505b509092509050620004c8828286620004d9565b979650505050505050565b3b151590565b60608315620004ea57508162000365565b825115620004fb5782518084602001fd5b8160405162461bcd60e51b81526004018080602001828103825283818151815260200191508051906020019080838360005b83811015620005475781810151838201526020016200052d565b50505050905090810190601f168015620005755780820380516001836020036101000a031916815260200191505b509250505060405180910390fd5b60805160601c60a05160601c60c05160601c60e05160601c6101005160601c6101205160601c6101405160601c611175620006236000398061061a528061064e528061076a52508061078e5280610a825280610b6052508061041152806104dd52508061050152806109f752508061043252806105f8528061072252806108225250806103a55280610525525080610670528061074652506111756000f3fe608060405234801561001057600080fd5b50600436106100ea5760003560e01c806380e716551161008c578063f77c479111610066578063f77c4791146102b7578063f833dbc5146102bf578063f887ea40146102c7578063fd8e9154146102cf576100ea565b806380e7165514610259578063874a0e7314610261578063a50edca0146102af576100ea565b80632d68efc9116100c85780632d68efc9146101fd5780635aa6e6751461020557806367bf61c41461020d57806373883a2b1461022a576100ea565b8063086d3c7a146100ef5780631639743b1461010e5780631f1fcd51146101d9575b600080fd5b61010c6004803603602081101561010557600080fd5b503561039a565b005b61010c600480360360a081101561012457600080fd5b6001600160a01b03823581169260208101359091169160408201359160608101359181019060a08101608082013564010000000081111561016457600080fd5b82018360208201111561017657600080fd5b8035906020019184600183028401116401000000008311171561019857600080fd5b91908080601f01602080910402602001604051908101604052809392919081815260200183838082843760009201919091525092955061040a945050505050565b6101e16104db565b604080516001600160a01b039092168252519081900360200190f35b6101e16104ff565b6101e1610523565b61010c6004803603602081101561022357600080fd5b5035610547565b6102476004803603602081101561024057600080fd5b50356106b8565b60408051918252519081900360200190f35b6102476106e4565b61027e6004803603602081101561027757600080fd5b50356106ea565b604080516001600160a01b03909416845267ffffffffffffffff909216602084015282820152519081900360600190f35b6101e1610720565b6101e1610744565b6101e1610768565b6101e161078c565b61010c600480360360a08110156102e557600080fd5b6001600160a01b03823581169260208101359091169160408201359160608101359181019060a08101608082013564010000000081111561032557600080fd5b82018360208201111561033757600080fd5b8035906020019184600183028401116401000000008311171561035957600080fd5b91908080601f0160208091040260200160405190810160405280939291908181526020018383808284376000920191909152509295506107b0945050505050565b336001600160a01b037f00000000000000000000000000000000000000000000000000000000000000001614610405576040805162461bcd60e51b815260206004820152600b60248201526a21676f7665726e616e636560a81b604482015290519081900360640190fd5b600155565b60006104577f00000000000000000000000000000000000000000000000000000000000000007f0000000000000000000000000000000000000000000000000000000000000000866109a1565b604080516060810182526001600160a01b0397881681524267ffffffffffffffff90811660208084019182528385019586526000988952889052929096209051815492516001600160a01b031990931698169790971767ffffffffffffffff60a01b1916600160a01b91909516029390931785555050516001909201919091555050565b7f000000000000000000000000000000000000000000000000000000000000000081565b7f000000000000000000000000000000000000000000000000000000000000000081565b7f000000000000000000000000000000000000000000000000000000000000000081565b80600154101561058e576040805162461bcd60e51b815260206004820152600d60248201526c08589b1bd8dad51a5b595bdd5d609a1b604482015290519081900360640190fd5b6000818152602081905260409020600101546105e0576040805162461bcd60e51b815260206004820152600c60248201526b216f75747374616e64696e6760a01b604482015290519081900360640190fd5b60008181526020819052604081206001015461063f907f0000000000000000000000000000000000000000000000000000000000000000907f0000000000000000000000000000000000000000000000000000000000000000906109a1565b90506106956001600160a01b037f0000000000000000000000000000000000000000000000000000000000000000167f000000000000000000000000000000000000000000000000000000000000000083610cd0565b50600090815260208190526040812080546001600160e01b031916815560010155565b60006106de670de0b6b3a76400006106d88467016345785d8a0000610d22565b90610d7b565b92915050565b60015481565b600060208190529081526040902080546001909101546001600160a01b03821691600160a01b900467ffffffffffffffff169083565b7f000000000000000000000000000000000000000000000000000000000000000081565b7f000000000000000000000000000000000000000000000000000000000000000081565b7f000000000000000000000000000000000000000000000000000000000000000081565b7f000000000000000000000000000000000000000000000000000000000000000081565b600082815260208190526040902060010154610802576040805162461bcd60e51b815260206004820152600c60248201526b216f75747374616e64696e6760a01b604482015290519081900360640190fd5b60008281526020819052604090206001015461084a906001600160a01b037f000000000000000000000000000000000000000000000000000000000000000016908790610cd0565b50600090815260208190526040812080546001600160e01b031916815560010155505050565b8015806108f6575060408051636eb1769f60e11b81523060048201526001600160a01b03848116602483015291519185169163dd62ed3e91604480820192602092909190829003018186803b1580156108c857600080fd5b505afa1580156108dc573d6000803e3d6000fd5b505050506040513d60208110156108f257600080fd5b5051155b6109315760405162461bcd60e51b815260040180806020018281038252603681526020018061110a6036913960400191505060405180910390fd5b604080516001600160a01b038416602482015260448082018490528251808303909101815260649091019091526020810180516001600160e01b031663095ea7b360e01b179052610983908490610de2565b505050565b60606109978484600085610e93565b90505b9392505050565b604080516003808252608082019092526000918291906020820160608036833701905050905084816000815181106109d557fe5b60200260200101906001600160a01b031690816001600160a01b0316815250507f000000000000000000000000000000000000000000000000000000000000000081600181518110610a2357fe5b60200260200101906001600160a01b031690816001600160a01b0316815250508381600281518110610a5157fe5b60200260200101906001600160a01b031690816001600160a01b031681525050846001600160a01b031663095ea7b37f0000000000000000000000000000000000000000000000000000000000000000856040518363ffffffff1660e01b815260040180836001600160a01b0316815260200182815260200192505050602060405180830381600087803b158015610ae857600080fd5b505af1158015610afc573d6000803e3d6000fd5b505050506040513d6020811015610b1257600080fd5b50506040516338ed173960e01b8152600481018481526001602483018190523060648401819052426084850181905260a060448601908152865160a487015286516000966001600160a01b037f000000000000000000000000000000000000000000000000000000000000000016966338ed1739968c9690958b959194909360c40190602087810191028083838f5b83811015610bb9578181015183820152602001610ba1565b505050509050019650505050505050600060405180830381600087803b158015610be257600080fd5b505af1158015610bf6573d6000803e3d6000fd5b505050506040513d6000823e601f3d908101601f191682016040526020811015610c1f57600080fd5b8101908080516040519392919084640100000000821115610c3f57600080fd5b908301906020820185811115610c5457600080fd5b8251866020820283011164010000000082111715610c7157600080fd5b82525081516020918201928201910280838360005b83811015610c9e578181015183820152602001610c86565b50505050905001604052505050600183510381518110610cba57fe5b6020026020010151905080925050509392505050565b604080516001600160a01b038416602482015260448082018490528251808303909101815260649091019091526020810180516001600160e01b031663a9059cbb60e01b179052610983908490610de2565b600082610d31575060006106de565b82820282848281610d3e57fe5b041461099a5760405162461bcd60e51b81526004018080602001828103825260218152602001806110bf6021913960400191505060405180910390fd5b6000808211610dd1576040805162461bcd60e51b815260206004820152601a60248201527f536166654d6174683a206469766973696f6e206279207a65726f000000000000604482015290519081900360640190fd5b818381610dda57fe5b049392505050565b6000610e37826040518060400160405280602081526020017f5361666545524332303a206c6f772d6c6576656c2063616c6c206661696c6564815250856001600160a01b03166109889092919063ffffffff16565b80519091501561098357808060200190516020811015610e5657600080fd5b50516109835760405162461bcd60e51b815260040180806020018281038252602a8152602001806110e0602a913960400191505060405180910390fd5b606082471015610ed45760405162461bcd60e51b81526004018080602001828103825260268152602001806110996026913960400191505060405180910390fd5b610edd85610fee565b610f2e576040805162461bcd60e51b815260206004820152601d60248201527f416464726573733a2063616c6c20746f206e6f6e2d636f6e7472616374000000604482015290519081900360640190fd5b600080866001600160a01b031685876040518082805190602001908083835b60208310610f6c5780518252601f199092019160209182019101610f4d565b6001836020036101000a03801982511681845116808217855250505050505090500191505060006040518083038185875af1925050503d8060008114610fce576040519150601f19603f3d011682016040523d82523d6000602084013e610fd3565b606091505b5091509150610fe3828286610ff4565b979650505050505050565b3b151590565b6060831561100357508161099a565b8251156110135782518084602001fd5b8160405162461bcd60e51b81526004018080602001828103825283818151815260200191508051906020019080838360005b8381101561105d578181015183820152602001611045565b50505050905090810190601f16801561108a5780820380516001836020036101000a031916815260200191505b509250505060405180910390fdfe416464726573733a20696e73756666696369656e742062616c616e636520666f722063616c6c536166654d6174683a206d756c7469706c69636174696f6e206f766572666c6f775361666545524332303a204552433230206f7065726174696f6e20646964206e6f7420737563636565645361666545524332303a20617070726f76652066726f6d206e6f6e2d7a65726f20746f206e6f6e2d7a65726f20616c6c6f77616e6365a26469706673582212206e594820f26894dde68d034b6929fa075a6916a42e6a8c5ee8ccda7cbe10736464736f6c63430007060033416464726573733a20696e73756666696369656e742062616c616e636520666f722063616c6c5361666545524332303a204552433230206f7065726174696f6e20646964206e6f7420737563636565645361666545524332303a20617070726f76652066726f6d206e6f6e2d7a65726f20746f206e6f6e2d7a65726f20616c6c6f77616e6365",
  "devdoc": {
    "kind": "dev",
    "methods": {},
    "version": 1
  },
  "userdoc": {
    "kind": "user",
    "methods": {},
    "version": 1
  },
  "storageLayout": {
    "storage": [
      {
        "astId": 8603,
        "contract": "contracts/modules/Swap.sol:Swap",
        "label": "outstanding",
        "offset": 0,
        "slot": "0",
        "type": "t_mapping(t_uint256,t_struct(SwapRecord)8937_storage)"
      },
      {
        "astId": 8609,
        "contract": "contracts/modules/Swap.sol:Swap",
        "label": "blockTimeout",
        "offset": 0,
        "slot": "1",
        "type": "t_uint256"
      }
    ],
    "types": {
      "t_address": {
        "encoding": "inplace",
        "label": "address",
        "numberOfBytes": "20"
      },
      "t_mapping(t_uint256,t_struct(SwapRecord)8937_storage)": {
        "encoding": "mapping",
        "key": "t_uint256",
        "label": "mapping(uint256 => struct SwapLib.SwapRecord)",
        "numberOfBytes": "32",
        "value": "t_struct(SwapRecord)8937_storage"
      },
      "t_struct(SwapRecord)8937_storage": {
        "encoding": "inplace",
        "label": "struct SwapLib.SwapRecord",
        "members": [
          {
            "astId": 8932,
            "contract": "contracts/modules/Swap.sol:Swap",
            "label": "token",
            "offset": 0,
            "slot": "0",
            "type": "t_address"
          },
          {
            "astId": 8934,
            "contract": "contracts/modules/Swap.sol:Swap",
            "label": "when",
            "offset": 20,
            "slot": "0",
            "type": "t_uint64"
          },
          {
            "astId": 8936,
            "contract": "contracts/modules/Swap.sol:Swap",
            "label": "qty",
            "offset": 0,
            "slot": "1",
            "type": "t_uint256"
          }
        ],
        "numberOfBytes": "64"
      },
      "t_uint256": {
        "encoding": "inplace",
        "label": "uint256",
        "numberOfBytes": "32"
      },
      "t_uint64": {
        "encoding": "inplace",
        "label": "uint64",
        "numberOfBytes": "8"
      }
    }
  }
}