{
  "address": "0xc173Fdc443Cdc932cFbB6a4F366A4a7eAB737720",
  "abi": [
    {
      "inputs": [],
      "name": "get",
      "outputs": [
        {
          "internalType": "bytes",
          "name": "result",
          "type": "bytes"
        }
      ],
      "stateMutability": "pure",
      "type": "function"
    }
  ],
  "transactionHash": "0x18af33d220ea44677ab7e85e633bcd8f82a40d179bdec57e6b0db57a5e9fa667",
  "args": [],
  "solcInputHash": "e31e0f139d284a22e01d46b230649d8c",
  "bytecode": "0x610fc3610026600b82828239805160001a60731461001957fe5b30600052607381538281f3fe73000000000000000000000000000000000000000030146080604052600436106100355760003560e01c80636d4ce63c1461003a575b600080fd5b6100426100b7565b6040805160208082528351818301528351919283929083019185019080838360005b8381101561007c578181015183820152602001610064565b50505050905090810190601f1680156100a95780820380516001836020036101000a031916815260200191505b509250505060405180910390f35b6060604051806020016100c9906100e1565b601f1982820381018352601f90910116604052919050565b610e9f806100ef8339019056fe608060405234801561001057600080fd5b50610e7f806100206000396000f3fe608060405234801561001057600080fd5b50600436106100a95760003560e01c8063bc25cf7711610071578063bc25cf7714610169578063c4d66de81461018f578063c87d6779146101b5578063cd3293de146101cf578063f77c4791146101d7578063fbfa77cf146101df576100a9565b806322285cf6146100ae57806346b9edf4146100d45780635583376e1461010257806389afcb441461011f5780638da5cb5b14610145575b600080fd5b6100b66101e7565b60408051938452602084019290925282820152519081900360600190f35b610100600480360360408110156100ea57600080fd5b506001600160a01b038135169060200135610205565b005b6101006004803603602081101561011857600080fd5b5035610383565b6101006004803603602081101561013557600080fd5b50356001600160a01b0316610470565b61014d610616565b604080516001600160a01b039092168252519081900360200190f35b6101006004803603602081101561017f57600080fd5b50356001600160a01b0316610698565b610100600480360360208110156101a557600080fd5b50356001600160a01b031661078c565b6101bd6107c7565b60408051918252519081900360200190f35b6101bd610809565b61014d6108e4565b61014d6108f9565b6002546003546001600160801b0380831693600160801b9093041691565b6000546201000090046001600160a01b03163314610258576040805162461bcd60e51b815260206004820152600b60248201526a10b1b7b73a3937b63632b960a91b604482015290519081900360640190fd5b600254600090610271906001600160801b031683610908565b9050600061027d6107c7565b9050816103496103186102908487610908565b610312670de0b6b3a7640000896001600160a01b03166373883a2b8a6040518263ffffffff1660e01b81526004018082815260200191505060206040518083038186803b1580156102e057600080fd5b505afa1580156102f4573d6000803e3d6000fd5b505050506040513d602081101561030a57600080fd5b50519061096b565b906109c4565b60025461034390670de0b6b3a76400009061031290600160801b90046001600160801b03168761096b565b90610908565b600280546001600160801b03938416928416600160801b029316929092176fffffffffffffffffffffffffffffffff191617905550505050565b6000546201000090046001600160a01b031633146103d6576040805162461bcd60e51b815260206004820152600b60248201526a10b1b7b73a3937b63632b960a91b604482015290519081900360640190fd5b60006103e06107c7565b905081811061043c576104376103f68284610a2b565b60025461031290670de0b6b3a76400009061043190879061042b9084908690600160801b90046001600160801b03168a61096b565b90610a2b565b9061096b565b61043f565b60005b600280546001600160801b03928316600160801b0292169190911790556003546104699083610908565b6003555050565b610478610616565b6001600160a01b0316336001600160a01b0316146104dd576040805162461bcd60e51b815260206004820152601760248201527f6d7573742062652063616c6c6564206279206f776e6572000000000000000000604482015290519081900360640190fd5b600154604080516370a0823160e01b815230600482015290516001600160a01b039092169163a9059cbb91849184916370a08231916024808301926020929190829003018186803b15801561053157600080fd5b505afa158015610545573d6000803e3d6000fd5b505050506040513d602081101561055b57600080fd5b5051604080516001600160e01b031960e086901b1681526001600160a01b03909316600484015260248301919091525160448083019260209291908290030181600087803b1580156105ac57600080fd5b505af11580156105c0573d6000803e3d6000fd5b505050506040513d60208110156105d657600080fd5b50516106135760405162461bcd60e51b815260040180806020018281038252602a815260200180610df6602a913960400191505060405180910390fd5b33ff5b60008054604080516331a9108f60e11b81523060048201529051620100009092046001600160a01b031691636352211e91602480820192602092909190829003018186803b15801561066757600080fd5b505afa15801561067b573d6000803e3d6000fd5b505050506040513d602081101561069157600080fd5b5051919050565b6001546001600160a01b03828116911614156106fb576040805162461bcd60e51b815260206004820152601760248201527f63616e6e6f7420736b696d207661756c7420746f6b656e000000000000000000604482015290519081900360640190fd5b61078933826001600160a01b03166370a08231306040518263ffffffff1660e01b815260040180826001600160a01b0316815260200191505060206040518083038186803b15801561074c57600080fd5b505afa158015610760573d6000803e3d6000fd5b505050506040513d602081101561077657600080fd5b50516001600160a01b0384169190610a88565b50565b6000805462010000600160b01b031916336201000002179055600180546001600160a01b0319166001600160a01b0392909216919091179055565b6003546002546000916001600160801b0390911610610802576003546002546107fb916001600160801b0390911690610a2b565b9050610806565b5060005b90565b60006108df670de0b6b3a7640000610312600160009054906101000a90046001600160a01b03166001600160a01b03166377c7b8fc6040518163ffffffff1660e01b815260040160206040518083038186803b15801561086857600080fd5b505afa15801561087c573d6000803e3d6000fd5b505050506040513d602081101561089257600080fd5b5051600154604080516370a0823160e01b815230600482015290516001600160a01b03909216916370a0823191602480820192602092909190829003018186803b1580156102e057600080fd5b905090565b6000546201000090046001600160a01b031681565b6001546001600160a01b031681565b600082820183811015610962576040805162461bcd60e51b815260206004820152601b60248201527f536166654d6174683a206164646974696f6e206f766572666c6f770000000000604482015290519081900360640190fd5b90505b92915050565b60008261097a57506000610965565b8282028284828161098757fe5b04146109625760405162461bcd60e51b8152600401808060200182810382526021815260200180610dd56021913960400191505060405180910390fd5b6000808211610a1a576040805162461bcd60e51b815260206004820152601a60248201527f536166654d6174683a206469766973696f6e206279207a65726f000000000000604482015290519081900360640190fd5b818381610a2357fe5b049392505050565b600082821115610a82576040805162461bcd60e51b815260206004820152601e60248201527f536166654d6174683a207375627472616374696f6e206f766572666c6f770000604482015290519081900360640190fd5b50900390565b604080516001600160a01b038416602482015260448082018490528251808303909101815260649091019091526020810180516001600160e01b031663a9059cbb60e01b179052610ada908490610adf565b505050565b6000610b34826040518060400160405280602081526020017f5361666545524332303a206c6f772d6c6576656c2063616c6c206661696c6564815250856001600160a01b0316610b909092919063ffffffff16565b805190915015610ada57808060200190516020811015610b5357600080fd5b5051610ada5760405162461bcd60e51b815260040180806020018281038252602a815260200180610e20602a913960400191505060405180910390fd5b6060610b9f8484600085610ba9565b90505b9392505050565b606082471015610bea5760405162461bcd60e51b8152600401808060200182810382526026815260200180610daf6026913960400191505060405180910390fd5b610bf385610d04565b610c44576040805162461bcd60e51b815260206004820152601d60248201527f416464726573733a2063616c6c20746f206e6f6e2d636f6e7472616374000000604482015290519081900360640190fd5b600080866001600160a01b031685876040518082805190602001908083835b60208310610c825780518252601f199092019160209182019101610c63565b6001836020036101000a03801982511681845116808217855250505050505090500191505060006040518083038185875af1925050503d8060008114610ce4576040519150601f19603f3d011682016040523d82523d6000602084013e610ce9565b606091505b5091509150610cf9828286610d0a565b979650505050505050565b3b151590565b60608315610d19575081610ba2565b825115610d295782518084602001fd5b8160405162461bcd60e51b81526004018080602001828103825283818151815260200191508051906020019080838360005b83811015610d73578181015183820152602001610d5b565b50505050905090810190601f168015610da05780820380516001836020036101000a031916815260200191505b509250505060405180910390fdfe416464726573733a20696e73756666696369656e742062616c616e636520666f722063616c6c536166654d6174683a206d756c7469706c69636174696f6e206f766572666c6f776661696c656420746f207472616e73666572207661756c7420746f6b656e20746f2072656365697665725361666545524332303a204552433230206f7065726174696f6e20646964206e6f742073756363656564a264697066735822122021df997b4fac6ef7812bbc0495261ee75539045de15ef28111828f882eb4ea8a64736f6c63430007060033a2646970667358221220077c0c267b81b083f75d957ad170787a972f3a27c316c51c505fa2e76122a31564736f6c63430007060033",
  "devdoc": {
    "kind": "dev",
    "methods": {},
    "version": 1
  },
  "userdoc": {
    "kind": "user",
    "methods": {},
    "version": 1
  },
  "storageLayout": {
    "storage": [],
    "types": null
  }
}