{
  "_format": "hh-sol-artifact-1",
  "contractName": "yDelegatedVault",
  "sourceName": "contracts/vendor/yearn/vaults/yDelegatedVault.sol",
  "abi": [
    {
      "inputs": [
        {
          "internalType": "address",
          "name": "_token",
          "type": "address"
        },
        {
          "internalType": "address",
          "name": "_controller",
          "type": "address"
        }
      ],
      "stateMutability": "nonpayable",
      "type": "constructor"
    },
    {
      "anonymous": false,
      "inputs": [
        {
          "indexed": true,
          "internalType": "address",
          "name": "owner",
          "type": "address"
        },
        {
          "indexed": true,
          "internalType": "address",
          "name": "spender",
          "type": "address"
        },
        {
          "indexed": false,
          "internalType": "uint256",
          "name": "value",
          "type": "uint256"
        }
      ],
      "name": "Approval",
      "type": "event"
    },
    {
      "anonymous": false,
      "inputs": [
        {
          "indexed": true,
          "internalType": "address",
          "name": "from",
          "type": "address"
        },
        {
          "indexed": true,
          "internalType": "address",
          "name": "to",
          "type": "address"
        },
        {
          "indexed": false,
          "internalType": "uint256",
          "name": "value",
          "type": "uint256"
        }
      ],
      "name": "Transfer",
      "type": "event"
    },
    {
      "inputs": [],
      "name": "aave",
      "outputs": [
        {
          "internalType": "address",
          "name": "",
          "type": "address"
        }
      ],
      "stateMutability": "view",
      "type": "function"
    },
    {
      "inputs": [],
      "name": "activate",
      "outputs": [],
      "stateMutability": "nonpayable",
      "type": "function"
    },
    {
      "inputs": [
        {
          "internalType": "address",
          "name": "owner",
          "type": "address"
        },
        {
          "internalType": "address",
          "name": "spender",
          "type": "address"
        }
      ],
      "name": "allowance",
      "outputs": [
        {
          "internalType": "uint256",
          "name": "",
          "type": "uint256"
        }
      ],
      "stateMutability": "view",
      "type": "function"
    },
    {
      "inputs": [
        {
          "internalType": "address",
          "name": "spender",
          "type": "address"
        },
        {
          "internalType": "uint256",
          "name": "amount",
          "type": "uint256"
        }
      ],
      "name": "approve",
      "outputs": [
        {
          "internalType": "bool",
          "name": "",
          "type": "bool"
        }
      ],
      "stateMutability": "nonpayable",
      "type": "function"
    },
    {
      "inputs": [],
      "name": "availableToBorrowETH",
      "outputs": [
        {
          "internalType": "uint256",
          "name": "",
          "type": "uint256"
        }
      ],
      "stateMutability": "view",
      "type": "function"
    },
    {
      "inputs": [],
      "name": "availableToBorrowReserve",
      "outputs": [
        {
          "internalType": "uint256",
          "name": "",
          "type": "uint256"
        }
      ],
      "stateMutability": "view",
      "type": "function"
    },
    {
      "inputs": [],
      "name": "balance",
      "outputs": [
        {
          "internalType": "uint256",
          "name": "",
          "type": "uint256"
        }
      ],
      "stateMutability": "view",
      "type": "function"
    },
    {
      "inputs": [
        {
          "internalType": "address",
          "name": "account",
          "type": "address"
        }
      ],
      "name": "balanceOf",
      "outputs": [
        {
          "internalType": "uint256",
          "name": "",
          "type": "uint256"
        }
      ],
      "stateMutability": "view",
      "type": "function"
    },
    {
      "inputs": [],
      "name": "claimInsurance",
      "outputs": [],
      "stateMutability": "nonpayable",
      "type": "function"
    },
    {
      "inputs": [],
      "name": "controller",
      "outputs": [
        {
          "internalType": "address",
          "name": "",
          "type": "address"
        }
      ],
      "stateMutability": "view",
      "type": "function"
    },
    {
      "inputs": [],
      "name": "credit",
      "outputs": [
        {
          "internalType": "uint256",
          "name": "",
          "type": "uint256"
        }
      ],
      "stateMutability": "view",
      "type": "function"
    },
    {
      "inputs": [],
      "name": "debt",
      "outputs": [
        {
          "internalType": "uint256",
          "name": "",
          "type": "uint256"
        }
      ],
      "stateMutability": "view",
      "type": "function"
    },
    {
      "inputs": [
        {
          "internalType": "address",
          "name": "_lp",
          "type": "address"
        }
      ],
      "name": "debtShare",
      "outputs": [
        {
          "internalType": "uint256",
          "name": "",
          "type": "uint256"
        }
      ],
      "stateMutability": "view",
      "type": "function"
    },
    {
      "inputs": [],
      "name": "decimals",
      "outputs": [
        {
          "internalType": "uint8",
          "name": "",
          "type": "uint8"
        }
      ],
      "stateMutability": "view",
      "type": "function"
    },
    {
      "inputs": [
        {
          "internalType": "address",
          "name": "spender",
          "type": "address"
        },
        {
          "internalType": "uint256",
          "name": "subtractedValue",
          "type": "uint256"
        }
      ],
      "name": "decreaseAllowance",
      "outputs": [
        {
          "internalType": "bool",
          "name": "",
          "type": "bool"
        }
      ],
      "stateMutability": "nonpayable",
      "type": "function"
    },
    {
      "inputs": [
        {
          "internalType": "uint256",
          "name": "_amount",
          "type": "uint256"
        }
      ],
      "name": "deposit",
      "outputs": [],
      "stateMutability": "nonpayable",
      "type": "function"
    },
    {
      "inputs": [],
      "name": "depositAll",
      "outputs": [],
      "stateMutability": "nonpayable",
      "type": "function"
    },
    {
      "inputs": [],
      "name": "earn",
      "outputs": [],
      "stateMutability": "nonpayable",
      "type": "function"
    },
    {
      "inputs": [],
      "name": "getAave",
      "outputs": [
        {
          "internalType": "address",
          "name": "",
          "type": "address"
        }
      ],
      "stateMutability": "view",
      "type": "function"
    },
    {
      "inputs": [],
      "name": "getAaveCore",
      "outputs": [
        {
          "internalType": "address",
          "name": "",
          "type": "address"
        }
      ],
      "stateMutability": "view",
      "type": "function"
    },
    {
      "inputs": [],
      "name": "getAaveOracle",
      "outputs": [
        {
          "internalType": "address",
          "name": "",
          "type": "address"
        }
      ],
      "stateMutability": "view",
      "type": "function"
    },
    {
      "inputs": [],
      "name": "getPricePerFullShare",
      "outputs": [
        {
          "internalType": "uint256",
          "name": "",
          "type": "uint256"
        }
      ],
      "stateMutability": "view",
      "type": "function"
    },
    {
      "inputs": [],
      "name": "getReservePrice",
      "outputs": [
        {
          "internalType": "uint256",
          "name": "",
          "type": "uint256"
        }
      ],
      "stateMutability": "view",
      "type": "function"
    },
    {
      "inputs": [
        {
          "internalType": "address",
          "name": "reserve",
          "type": "address"
        }
      ],
      "name": "getReservePriceETH",
      "outputs": [
        {
          "internalType": "uint256",
          "name": "",
          "type": "uint256"
        }
      ],
      "stateMutability": "view",
      "type": "function"
    },
    {
      "inputs": [],
      "name": "getUnderlyingPrice",
      "outputs": [
        {
          "internalType": "uint256",
          "name": "",
          "type": "uint256"
        }
      ],
      "stateMutability": "view",
      "type": "function"
    },
    {
      "inputs": [
        {
          "internalType": "uint256",
          "name": "_amount",
          "type": "uint256"
        }
      ],
      "name": "getUnderlyingPriceETH",
      "outputs": [
        {
          "internalType": "uint256",
          "name": "",
          "type": "uint256"
        }
      ],
      "stateMutability": "view",
      "type": "function"
    },
    {
      "inputs": [],
      "name": "governance",
      "outputs": [
        {
          "internalType": "address",
          "name": "",
          "type": "address"
        }
      ],
      "stateMutability": "view",
      "type": "function"
    },
    {
      "inputs": [
        {
          "internalType": "address",
          "name": "reserve",
          "type": "address"
        },
        {
          "internalType": "uint256",
          "name": "amount",
          "type": "uint256"
        }
      ],
      "name": "harvest",
      "outputs": [],
      "stateMutability": "nonpayable",
      "type": "function"
    },
    {
      "inputs": [],
      "name": "healthFactor",
      "outputs": [
        {
          "internalType": "uint256",
          "name": "",
          "type": "uint256"
        }
      ],
      "stateMutability": "view",
      "type": "function"
    },
    {
      "inputs": [
        {
          "internalType": "address",
          "name": "spender",
          "type": "address"
        },
        {
          "internalType": "uint256",
          "name": "addedValue",
          "type": "uint256"
        }
      ],
      "name": "increaseAllowance",
      "outputs": [
        {
          "internalType": "bool",
          "name": "",
          "type": "bool"
        }
      ],
      "stateMutability": "nonpayable",
      "type": "function"
    },
    {
      "inputs": [],
      "name": "insurance",
      "outputs": [
        {
          "internalType": "uint256",
          "name": "",
          "type": "uint256"
        }
      ],
      "stateMutability": "view",
      "type": "function"
    },
    {
      "inputs": [],
      "name": "locked",
      "outputs": [
        {
          "internalType": "uint256",
          "name": "",
          "type": "uint256"
        }
      ],
      "stateMutability": "view",
      "type": "function"
    },
    {
      "inputs": [],
      "name": "ltv",
      "outputs": [
        {
          "internalType": "uint256",
          "name": "",
          "type": "uint256"
        }
      ],
      "stateMutability": "view",
      "type": "function"
    },
    {
      "inputs": [],
      "name": "max",
      "outputs": [
        {
          "internalType": "uint256",
          "name": "",
          "type": "uint256"
        }
      ],
      "stateMutability": "view",
      "type": "function"
    },
    {
      "inputs": [],
      "name": "maxSafeETH",
      "outputs": [
        {
          "internalType": "uint256",
          "name": "maxBorrowsETH",
          "type": "uint256"
        },
        {
          "internalType": "uint256",
          "name": "totalBorrowsETH",
          "type": "uint256"
        },
        {
          "internalType": "uint256",
          "name": "availableBorrowsETH",
          "type": "uint256"
        }
      ],
      "stateMutability": "view",
      "type": "function"
    },
    {
      "inputs": [
        {
          "internalType": "address",
          "name": "account",
          "type": "address"
        }
      ],
      "name": "maxWithdrawal",
      "outputs": [
        {
          "internalType": "uint256",
          "name": "",
          "type": "uint256"
        }
      ],
      "stateMutability": "view",
      "type": "function"
    },
    {
      "inputs": [],
      "name": "name",
      "outputs": [
        {
          "internalType": "string",
          "name": "",
          "type": "string"
        }
      ],
      "stateMutability": "view",
      "type": "function"
    },
    {
      "inputs": [
        {
          "internalType": "uint256",
          "name": "_amount",
          "type": "uint256"
        }
      ],
      "name": "over",
      "outputs": [
        {
          "internalType": "uint256",
          "name": "",
          "type": "uint256"
        }
      ],
      "stateMutability": "view",
      "type": "function"
    },
    {
      "inputs": [],
      "name": "over",
      "outputs": [
        {
          "internalType": "uint256",
          "name": "",
          "type": "uint256"
        }
      ],
      "stateMutability": "view",
      "type": "function"
    },
    {
      "inputs": [],
      "name": "rebalance",
      "outputs": [],
      "stateMutability": "nonpayable",
      "type": "function"
    },
    {
      "inputs": [
        {
          "internalType": "address",
          "name": "reserve",
          "type": "address"
        },
        {
          "internalType": "uint256",
          "name": "amount",
          "type": "uint256"
        }
      ],
      "name": "repay",
      "outputs": [],
      "stateMutability": "nonpayable",
      "type": "function"
    },
    {
      "inputs": [],
      "name": "repayAll",
      "outputs": [],
      "stateMutability": "nonpayable",
      "type": "function"
    },
    {
      "inputs": [],
      "name": "reserve",
      "outputs": [
        {
          "internalType": "address",
          "name": "",
          "type": "address"
        }
      ],
      "stateMutability": "view",
      "type": "function"
    },
    {
      "inputs": [],
      "name": "safeWithdraw",
      "outputs": [],
      "stateMutability": "nonpayable",
      "type": "function"
    },
    {
      "inputs": [
        {
          "internalType": "address",
          "name": "_controller",
          "type": "address"
        }
      ],
      "name": "setController",
      "outputs": [],
      "stateMutability": "nonpayable",
      "type": "function"
    },
    {
      "inputs": [
        {
          "internalType": "address",
          "name": "_governance",
          "type": "address"
        }
      ],
      "name": "setGovernance",
      "outputs": [],
      "stateMutability": "nonpayable",
      "type": "function"
    },
    {
      "inputs": [
        {
          "internalType": "uint256",
          "name": "_hf",
          "type": "uint256"
        }
      ],
      "name": "setHealthFactor",
      "outputs": [],
      "stateMutability": "nonpayable",
      "type": "function"
    },
    {
      "inputs": [],
      "name": "shouldBorrow",
      "outputs": [
        {
          "internalType": "bool",
          "name": "",
          "type": "bool"
        }
      ],
      "stateMutability": "view",
      "type": "function"
    },
    {
      "inputs": [],
      "name": "shouldRebalance",
      "outputs": [
        {
          "internalType": "bool",
          "name": "",
          "type": "bool"
        }
      ],
      "stateMutability": "view",
      "type": "function"
    },
    {
      "inputs": [],
      "name": "symbol",
      "outputs": [
        {
          "internalType": "string",
          "name": "",
          "type": "string"
        }
      ],
      "stateMutability": "view",
      "type": "function"
    },
    {
      "inputs": [],
      "name": "token",
      "outputs": [
        {
          "internalType": "contract IERC20",
          "name": "",
          "type": "address"
        }
      ],
      "stateMutability": "view",
      "type": "function"
    },
    {
      "inputs": [],
      "name": "totalSupply",
      "outputs": [
        {
          "internalType": "uint256",
          "name": "",
          "type": "uint256"
        }
      ],
      "stateMutability": "view",
      "type": "function"
    },
    {
      "inputs": [
        {
          "internalType": "address",
          "name": "recipient",
          "type": "address"
        },
        {
          "internalType": "uint256",
          "name": "amount",
          "type": "uint256"
        }
      ],
      "name": "transfer",
      "outputs": [
        {
          "internalType": "bool",
          "name": "",
          "type": "bool"
        }
      ],
      "stateMutability": "nonpayable",
      "type": "function"
    },
    {
      "inputs": [
        {
          "internalType": "address",
          "name": "sender",
          "type": "address"
        },
        {
          "internalType": "address",
          "name": "recipient",
          "type": "address"
        },
        {
          "internalType": "uint256",
          "name": "amount",
          "type": "uint256"
        }
      ],
      "name": "transferFrom",
      "outputs": [
        {
          "internalType": "bool",
          "name": "",
          "type": "bool"
        }
      ],
      "stateMutability": "nonpayable",
      "type": "function"
    },
    {
      "inputs": [],
      "name": "underlying",
      "outputs": [
        {
          "internalType": "address",
          "name": "",
          "type": "address"
        }
      ],
      "stateMutability": "view",
      "type": "function"
    },
    {
      "inputs": [
        {
          "internalType": "uint256",
          "name": "_shares",
          "type": "uint256"
        }
      ],
      "name": "withdraw",
      "outputs": [],
      "stateMutability": "nonpayable",
      "type": "function"
    },
    {
      "inputs": [],
      "name": "withdrawAll",
      "outputs": [],
      "stateMutability": "nonpayable",
      "type": "function"
    }
  ],
  "bytecode": "0x608060405260046009556041600a556064600b553480156200002057600080fd5b5060405162002e7d38038062002e7d833981810160405260408110156200004657600080fd5b508051602090910151604080516306fdde0360e01b815290516001600160a01b038416916306fdde03916004808301926000929190829003018186803b1580156200009057600080fd5b505afa158015620000a5573d6000803e3d6000fd5b505050506040513d6000823e601f3d908101601f191682016040526020811015620000cf57600080fd5b8101908080516040519392919084640100000000821115620000f057600080fd5b9083019060208201858111156200010657600080fd5b82516401000000008111828201881017156200012157600080fd5b82525081516020918201929091019080838360005b838110156200015057818101518382015260200162000136565b50505050905090810190601f1680156200017e5780820380516001836020036101000a031916815260200191505b5060405250505060405160200180806503cb2b0b937160d51b81525060060182805190602001908083835b60208310620001ca5780518252601f199092019160209182019101620001a9565b6001836020036101000a038019825116818451168082178552505050505050905001915050604051602081830303815290604052826001600160a01b03166395d89b416040518163ffffffff1660e01b815260040160006040518083038186803b1580156200023857600080fd5b505afa1580156200024d573d6000803e3d6000fd5b505050506040513d6000823e601f3d908101601f1916820160405260208110156200027757600080fd5b81019080805160405193929190846401000000008211156200029857600080fd5b908301906020820185811115620002ae57600080fd5b8251640100000000811182820188101715620002c957600080fd5b82525081516020918201929091019080838360005b83811015620002f8578181015183820152602001620002de565b50505050905090810190601f168015620003265780820380516001836020036101000a031916815260200191505b506040525050506040516020018080607960f81b81525060010182805190602001908083835b602083106200036d5780518252601f1990920191602091820191016200034c565b6001836020036101000a0380198251168184511680821785525050505050509050019150506040516020818303038152906040528160039080519060200190620003b9929190620004ba565b508051620003cf906004906020840190620004ba565b50506005805460ff19166012179055506040805163313ce56760e01b815290516200045a916001600160a01b0385169163313ce56791600480820192602092909190829003018186803b1580156200042657600080fd5b505afa1580156200043b573d6000803e3d6000fd5b505050506040513d60208110156200045257600080fd5b5051620004a4565b60058054610100600160a81b0319166101006001600160a01b039485160217905560068054336001600160a01b031991821617909155600780549091169190921617905562000556565b6005805460ff191660ff92909216919091179055565b828054600181600116156101000203166002900490600052602060002090601f016020900481019282601f10620004fd57805160ff19168380011785556200052d565b828001600101855582156200052d579182015b828111156200052d57825182559160200191906001019062000510565b506200053b9291506200053f565b5090565b5b808211156200053b576000815560010162000540565b61291780620005666000396000f3fe608060405234801561001057600080fd5b50600436106103835760003560e01c80637fd42617116101de578063b040785a1161010f578063dd90a791116100ad578063f7c1ec771161007c578063f7c1ec7714610866578063f82ce27d1461086e578063fa3ae6dc14610876578063fc0c546a1461087e57610383565b8063dd90a79114610831578063de5f62681461084e578063f072232214610856578063f77c47911461085e57610383565b8063cd3293de116100e9578063cd3293de146107eb578063cf309012146107f3578063d389800f146107fb578063dd62ed3e1461080357610383565b8063b040785a146107be578063b69ef8a8146107c6578063b6b55f25146107ce57610383565b80639f287e161161017c578063a75ac60811610156578063a75ac6081461075c578063a9059cbb14610764578063ab033ea914610790578063ae2c1d5f146107b657610383565b80639f287e1614610720578063a06d083c14610728578063a457c2d71461073057610383565b806389cf3204116101b857806389cf3204146106e2578063929c8849146106ea57806392eefe9b146106f257806395d89b411461071857610383565b80637fd42617146106ca578063819faf7b146106d2578063853828b6146106da57610383565b806331111708116102b85780636ad4e2511161025657806370a082311161023057806370a082311461068c57806377c7b8fc146106b25780637d7c2a1c146106ba5780637eaef50c146106c257610383565b80636ad4e2511461065f5780636f307dc31461067c5780636fb49d731461068457610383565b8063468f02d211610292578063468f02d2146106055780635aa6e6751461060d57806362f5548d146106315780636ac5db191461065757610383565b8063311117081461059e578063313ce567146105bb57806339509351146105d957610383565b80631b93e5b01161032557806323b872dd116102ff57806323b872dd146104ff57806327afd028146105355780632851e2e01461055b5780632e1a7d4d1461058157610383565b80631b93e5b0146104c357806322841f01146104cb57806322867d78146104d357610383565b80630dca59c1116103615780630dca59c1146104735780630f15f4c01461048d57806311dddca41461049557806318160ddd146104bb57610383565b8063018ee9b71461038857806306fdde03146103b6578063095ea7b314610433575b600080fd5b6103b46004803603604081101561039e57600080fd5b506001600160a01b038135169060200135610886565b005b6103be610941565b6040805160208082528351818301528351919283929083019185019080838360005b838110156103f85781810151838201526020016103e0565b50505050905090810190601f1680156104255780820380516001836020036101000a031916815260200191505b509250505060405180910390f35b61045f6004803603604081101561044957600080fd5b506001600160a01b0381351690602001356109d8565b604080519115158252519081900360200190f35b61047b6109f6565b60408051918252519081900360200190f35b6103b4610b13565b61047b600480360360208110156104ab57600080fd5b50356001600160a01b0316610b95565b61047b610c1f565b61045f610c25565b61047b610c36565b6103b4600480360360408110156104e957600080fd5b506001600160a01b038135169060200135610c3c565b61045f6004803603606081101561051557600080fd5b506001600160a01b03813581169160208101359091169060400135610ddd565b61047b6004803603602081101561054b57600080fd5b50356001600160a01b0316610e65565b61047b6004803603602081101561057157600080fd5b50356001600160a01b0316610ee2565b6103b46004803603602081101561059757600080fd5b5035610f09565b6103b4600480360360208110156105b457600080fd5b5035610f53565b6105c3610fa5565b6040805160ff9092168252519081900360200190f35b61045f600480360360408110156105ef57600080fd5b506001600160a01b038135169060200135610fae565b61047b610ffc565b610615611013565b604080516001600160a01b039092168252519081900360200190f35b610639611022565b60408051938452602084019290925282820152519081900360600190f35b61047b6110eb565b61047b6004803603602081101561067557600080fd5b50356110f1565b610615611203565b61047b611284565b61047b600480360360208110156106a257600080fd5b50356001600160a01b031661128a565b61047b6112a5565b6103b46112c6565b61047b6112d2565b6103b46112e2565b6106156112f3565b6103b461130b565b61047b611317565b61047b61131d565b6103b46004803603602081101561070857600080fd5b50356001600160a01b0316611397565b6103be611406565b610615611467565b61047b6114b6565b61045f6004803603604081101561074657600080fd5b506001600160a01b038135169060200135611501565b6103b4611569565b61045f6004803603604081101561077a57600080fd5b506001600160a01b0381351690602001356115e3565b6103b4600480360360208110156107a657600080fd5b50356001600160a01b03166115f7565b61045f611666565b61047b611671565b61047b6116ce565b6103b4600480360360208110156107e457600080fd5b503561176a565b6106156117fe565b61047b611849565b6103b461186a565b61047b6004803603604081101561081957600080fd5b506001600160a01b0381358116916020013516611a1f565b61047b6004803603602081101561084757600080fd5b5035611a4a565b6103b4611afd565b61047b611b7f565b610615611b8c565b610615611b9b565b610615611bea565b6103b4611c39565b610615611ccc565b6007546001600160a01b031633146108d3576040805162461bcd60e51b815260206004820152600b60248201526a10b1b7b73a3937b63632b960a91b604482015290519081900360640190fd5b6005546001600160a01b03838116610100909204161415610923576040805162461bcd60e51b81526020600482015260056024820152643a37b5b2b760d91b604482015290519081900360640190fd5b60075461093d906001600160a01b03848116911683611ce0565b5050565b60038054604080516020601f60026000196101006001881615020190951694909404938401819004810282018101909252828152606093909290918301828280156109cd5780601f106109a2576101008083540402835291602001916109cd565b820191906000526020600020905b8154815290600101906020018083116109b057829003601f168201915b505050505090505b90565b60006109ec6109e5611d32565b8484611d36565b5060015b92915050565b60075460408051637572458960e01b8152306004820152905160009283926001600160a01b0390911691637572458991602480820192602092909190829003018186803b158015610a4657600080fd5b505afa158015610a5a573d6000803e3d6000fd5b505050506040513d6020811015610a7057600080fd5b505190506000610a7e611b9b565b6001600160a01b03166328dd2d0183306040518363ffffffff1660e01b815260040180836001600160a01b03168152602001826001600160a01b03168152602001925050506101406040518083038186803b158015610adc57600080fd5b505afa158015610af0573d6000803e3d6000fd5b505050506040513d610140811015610b0757600080fd5b50602001519250505090565b610b1b611b9b565b6001600160a01b0316635a3b74b9610b31611203565b60016040518363ffffffff1660e01b815260040180836001600160a01b03168152602001821515815260200192505050600060405180830381600087803b158015610b7b57600080fd5b505af1158015610b8f573d6000803e3d6000fd5b50505050565b6000610b9f611467565b6001600160a01b031663b3596f07836040518263ffffffff1660e01b815260040180826001600160a01b0316815260200191505060206040518083038186803b158015610beb57600080fd5b505afa158015610bff573d6000803e3d6000fd5b505050506040513d6020811015610c1557600080fd5b505190505b919050565b60025490565b600080610c3061131d565b11905090565b60095481565b816001600160a01b031663095ea7b3610c53611bea565b60006040518363ffffffff1660e01b815260040180836001600160a01b0316815260200182815260200192505050602060405180830381600087803b158015610c9b57600080fd5b505af1158015610caf573d6000803e3d6000fd5b505050506040513d6020811015610cc557600080fd5b50506001600160a01b03821663095ea7b3610cde611bea565b836040518363ffffffff1660e01b815260040180836001600160a01b0316815260200182815260200192505050602060405180830381600087803b158015610d2557600080fd5b505af1158015610d39573d6000803e3d6000fd5b505050506040513d6020811015610d4f57600080fd5b50610d5a9050611b9b565b6001600160a01b0316635ceae9c48383306040518463ffffffff1660e01b815260040180846001600160a01b03168152602001838152602001826001600160a01b031681526020019350505050600060405180830381600087803b158015610dc157600080fd5b505af1158015610dd5573d6000803e3d6000fd5b505050505050565b6000610dea848484611e22565b610e5a84610df6611d32565b610e5585604051806060016040528060288152602001612801602891396001600160a01b038a16600090815260016020526040812090610e34611d32565b6001600160a01b031681526020810191909152604001600020549190611f7d565b611d36565b5060015b9392505050565b600080610e718361128a565b90506000610e99670de0b6b3a7640000610e93610e8c611849565b8590612014565b9061206d565b905081811115610eab57509050610c1a565b6000610eb783836120af565b9050610ed8610ed16009548361201490919063ffffffff16565b84906120af565b9350505050610c1a565b60006109f0610eef610c1f565b610f03610efb8561128a565b610f036109f6565b90612014565b6000610f22610f16610c1f565b610e9384610f036116ce565b9050610f2e33836120f1565b610f37816121ed565b60055461093d9061010090046001600160a01b03163383611ce0565b6006546001600160a01b03163314610fa0576040805162461bcd60e51b815260206004820152600b60248201526a21676f7665726e616e636560a81b604482015290519081900360640190fd5b600955565b60055460ff1690565b60006109ec610fbb611d32565b84610e558560016000610fcc611d32565b6001600160a01b03908116825260208083019390935260409182016000908120918c168152925290205490612293565b600061100e611009611203565b610b95565b905090565b6006546001600160a01b031681565b6000806000806000611032611b9b565b6001600160a01b031663bf92857c306040518263ffffffff1660e01b815260040180826001600160a01b031681526020019150506101006040518083038186803b15801561107f57600080fd5b505afa158015611093573d6000803e3d6000fd5b505050506040513d6101008110156110aa57600080fd5b506040810151608090910151909250905060006110c78383612293565b90506110de6009548261206d90919063ffffffff16565b9550919350915050909192565b600b5481565b6000806110fc6117fe565b9050600061110984611a4a565b9050600080611116611022565b50909250905061112c6064610e93846069612014565b91508183111561113f576000915061114c565b61114982846120af565b91505b808210156111f657600061116782610e93610e8c82876120af565b90506111e9611174611b7f565b610e93876001600160a01b031663313ce5676040518163ffffffff1660e01b815260040160206040518083038186803b1580156111b057600080fd5b505afa1580156111c4573d6000803e3d6000fd5b505050506040513d60208110156111da57600080fd5b5051849060ff16600a0a612014565b9550610c1a945050505050565b6000945050505050610c1a565b6000600560019054906101000a90046001600160a01b03166001600160a01b03166389d1a0fc6040518163ffffffff1660e01b815260040160206040518083038186803b15801561125357600080fd5b505afa158015611267573d6000803e3d6000fd5b505050506040513d602081101561127d57600080fd5b5051905090565b600a5481565b6001600160a01b031660009081526020819052604090205490565b600061100e6112b2610c1f565b610e93670de0b6b3a7640000610f036116ce565b6112d060006121ed565b565b60006112de60006110f1565b5090565b6112d06112ee33610e65565b610f09565b7324a42fd28c976a61df5d00d0599c34c4f90748c881565b6112d06112ee3361128a565b60085481565b6000806113286117fe565b90506000611334611671565b9050801561138c57611383611347611b7f565b610e93846001600160a01b031663313ce5676040518163ffffffff1660e01b815260040160206040518083038186803b1580156111b057600080fd5b925050506109d5565b6000925050506109d5565b6006546001600160a01b031633146113e4576040805162461bcd60e51b815260206004820152600b60248201526a21676f7665726e616e636560a81b604482015290519081900360640190fd5b600780546001600160a01b0319166001600160a01b0392909216919091179055565b60048054604080516020601f60026000196101006001881615020190951694909404938401819004810282018101909252828152606093909290918301828280156109cd5780601f106109a2576101008083540402835291602001916109cd565b60007324a42fd28c976a61df5d00d0599c34c4f90748c86001600160a01b031663fca513a86040518163ffffffff1660e01b815260040160206040518083038186803b15801561125357600080fd5b600754604080516370a0823160e01b815230600482015290516000926001600160a01b0316916370a08231916024808301926020929190829003018186803b15801561125357600080fd5b60006109ec61150e611d32565b84610e55856040518060600160405280602581526020016128bd6025913960016000611538611d32565b6001600160a01b03908116825260208083019390935260409182016000908120918d16815292529020549190611f7d565b6007546001600160a01b031633146115b6576040805162461bcd60e51b815260206004820152600b60248201526a10b1b7b73a3937b63632b960a91b604482015290519081900360640190fd5b6007546008546005546115dc926001600160a01b03610100909204821692911690611ce0565b6000600855565b60006109ec6115f0611d32565b8484611e22565b6006546001600160a01b03163314611644576040805162461bcd60e51b815260206004820152600b60248201526a21676f7665726e616e636560a81b604482015290519081900360640190fd5b600680546001600160a01b0319166001600160a01b0392909216919091179055565b600080610c306112d2565b60008060008061167f611022565b919450925090506116966064610e9385605f612014565b9250818311156116c2576116b881610e936116b186866120af565b8490612014565b93505050506109d5565b600093505050506109d5565b600061100e600854600560019054906101000a90046001600160a01b03166001600160a01b03166370a08231306040518263ffffffff1660e01b815260040180826001600160a01b0316815260200191505060206040518083038186803b15801561173857600080fd5b505afa15801561174c573d6000803e3d6000fd5b505050506040513d602081101561176257600080fd5b5051906120af565b60006117746116ce565b6005549091506117949061010090046001600160a01b03163330856122ed565b60006117a7612710610e93856032612014565b90506117b383826120af565b6008549093506117c39082612293565b60085560006117d0610c1f565b6117db5750826117f4565b6117f183610e936117ea610c1f565b8790612014565b90505b610b8f3382612347565b60075460408051637572458960e01b815230600482015290516000926001600160a01b0316916375724589916024808301926020929190829003018186803b15801561125357600080fd5b600061100e6118566109f6565b610e93670de0b6b3a7640000610f036114b6565b60006118746117fe565b9050600061188061131d565b9050801561191157611890611b9b565b6001600160a01b031663c858f5f98383600260076040518563ffffffff1660e01b815260040180856001600160a01b03168152602001848152602001838152602001828152602001945050505050600060405180830381600087803b1580156118f857600080fd5b505af115801561190c573d6000803e3d6000fd5b505050505b6000826001600160a01b03166370a08231306040518263ffffffff1660e01b815260040180826001600160a01b0316815260200191505060206040518083038186803b15801561196057600080fd5b505afa158015611974573d6000803e3d6000fd5b505050506040513d602081101561198a57600080fd5b505190508015611a1a576007546119ae906001600160a01b03858116911683611ce0565b6007546040805163b02bf4b960e01b81523060048201526024810184905290516001600160a01b039092169163b02bf4b99160448082019260009290919082900301818387803b158015611a0157600080fd5b505af1158015611a15573d6000803e3d6000fd5b505050505b505050565b6001600160a01b03918216600090815260016020908152604080832093909416825291909152205490565b6000611ada600560019054906101000a90046001600160a01b03166001600160a01b031663313ce5676040518163ffffffff1660e01b815260040160206040518083038186803b158015611a9d57600080fd5b505afa158015611ab1573d6000803e3d6000fd5b505050506040513d6020811015611ac757600080fd5b505160ff16600a0a610e93610e8c610ffc565b91506109f0600954610e93600b54610e93600a548761201490919063ffffffff16565b600554604080516370a0823160e01b815233600482015290516112d09261010090046001600160a01b0316916370a08231916024808301926020929190829003018186803b158015611b4e57600080fd5b505afa158015611b62573d6000803e3d6000fd5b505050506040513d6020811015611b7857600080fd5b505161176a565b600061100e6110096117fe565b6007546001600160a01b031681565b60007324a42fd28c976a61df5d00d0599c34c4f90748c86001600160a01b0316630261bf8b6040518163ffffffff1660e01b815260040160206040518083038186803b15801561125357600080fd5b60007324a42fd28c976a61df5d00d0599c34c4f90748c86001600160a01b031663ed6ff7606040518163ffffffff1660e01b815260040160206040518083038186803b15801561125357600080fd5b6000611c436117fe565b90506000816001600160a01b03166370a08231306040518263ffffffff1660e01b815260040180826001600160a01b0316815260200191505060206040518083038186803b158015611c9457600080fd5b505afa158015611ca8573d6000803e3d6000fd5b505050506040513d6020811015611cbe57600080fd5b5051905061093d8282610c3c565b60055461010090046001600160a01b031681565b604080516001600160a01b038416602482015260448082018490528251808303909101815260649091019091526020810180516001600160e01b031663a9059cbb60e01b179052611a1a908490612437565b3390565b6001600160a01b038316611d7b5760405162461bcd60e51b815260040180806020018281038252602481526020018061286f6024913960400191505060405180910390fd5b6001600160a01b038216611dc05760405162461bcd60e51b81526004018080602001828103825260228152602001806127726022913960400191505060405180910390fd5b6001600160a01b03808416600081815260016020908152604080832094871680845294825291829020859055815185815291517f8c5be1e5ebec7d5bd14f71427d1e84f3dd0314c0f7b2291e5b200ac8c7c3b9259281900390910190a3505050565b6001600160a01b038316611e675760405162461bcd60e51b815260040180806020018281038252602581526020018061284a6025913960400191505060405180910390fd5b6001600160a01b038216611eac5760405162461bcd60e51b815260040180806020018281038252602381526020018061272d6023913960400191505060405180910390fd5b611eb7838383611a1a565b611ef481604051806060016040528060268152602001612794602691396001600160a01b0386166000908152602081905260409020549190611f7d565b6001600160a01b038085166000908152602081905260408082209390935590841681522054611f239082612293565b6001600160a01b038084166000818152602081815260409182902094909455805185815290519193928716927fddf252ad1be2c89b69c2b068fc378daa952ba7f163c4a11628f55a4df523b3ef92918290030190a3505050565b6000818484111561200c5760405162461bcd60e51b81526004018080602001828103825283818151815260200191508051906020019080838360005b83811015611fd1578181015183820152602001611fb9565b50505050905090810190601f168015611ffe5780820380516001836020036101000a031916815260200191505b509250505060405180910390fd5b505050900390565b600082612023575060006109f0565b8282028284828161203057fe5b0414610e5e5760405162461bcd60e51b81526004018080602001828103825260218152602001806127e06021913960400191505060405180910390fd5b6000610e5e83836040518060400160405280601a81526020017f536166654d6174683a206469766973696f6e206279207a65726f0000000000008152506124e8565b6000610e5e83836040518060400160405280601e81526020017f536166654d6174683a207375627472616374696f6e206f766572666c6f770000815250611f7d565b6001600160a01b0382166121365760405162461bcd60e51b81526004018080602001828103825260218152602001806128296021913960400191505060405180910390fd5b61214282600083611a1a565b61217f81604051806060016040528060228152602001612750602291396001600160a01b0385166000908152602081905260409020549190611f7d565b6001600160a01b0383166000908152602081905260409020556002546121a590826120af565b6002556040805182815290516000916001600160a01b038516917fddf252ad1be2c89b69c2b068fc378daa952ba7f163c4a11628f55a4df523b3ef9181900360200190a35050565b60006121f8826110f1565b9050801561093d576122086114b6565b81111561221a576122176114b6565b90505b801561093d576007546040805163f3fef3a360e01b81523060048201526024810184905290516001600160a01b039092169163f3fef3a39160448082019260009290919082900301818387803b15801561227357600080fd5b505af1158015612287573d6000803e3d6000fd5b5050505061093d611c39565b600082820183811015610e5e576040805162461bcd60e51b815260206004820152601b60248201527f536166654d6174683a206164646974696f6e206f766572666c6f770000000000604482015290519081900360640190fd5b604080516001600160a01b0380861660248301528416604482015260648082018490528251808303909101815260849091019091526020810180516001600160e01b03166323b872dd60e01b179052610b8f908590612437565b6001600160a01b0382166123a2576040805162461bcd60e51b815260206004820152601f60248201527f45524332303a206d696e7420746f20746865207a65726f206164647265737300604482015290519081900360640190fd5b6123ae60008383611a1a565b6002546123bb9082612293565b6002556001600160a01b0382166000908152602081905260409020546123e19082612293565b6001600160a01b0383166000818152602081815260408083209490945583518581529351929391927fddf252ad1be2c89b69c2b068fc378daa952ba7f163c4a11628f55a4df523b3ef9281900390910190a35050565b606061248c826040518060400160405280602081526020017f5361666545524332303a206c6f772d6c6576656c2063616c6c206661696c6564815250856001600160a01b031661254d9092919063ffffffff16565b805190915015611a1a578080602001905160208110156124ab57600080fd5b5051611a1a5760405162461bcd60e51b815260040180806020018281038252602a815260200180612893602a913960400191505060405180910390fd5b600081836125375760405162461bcd60e51b8152602060048201818152835160248401528351909283926044909101919085019080838360008315611fd1578181015183820152602001611fb9565b50600083858161254357fe5b0495945050505050565b606061255c8484600085612564565b949350505050565b6060824710156125a55760405162461bcd60e51b81526004018080602001828103825260268152602001806127ba6026913960400191505060405180910390fd5b6125ae856126c0565b6125ff576040805162461bcd60e51b815260206004820152601d60248201527f416464726573733a2063616c6c20746f206e6f6e2d636f6e7472616374000000604482015290519081900360640190fd5b60006060866001600160a01b031685876040518082805190602001908083835b6020831061263e5780518252601f19909201916020918201910161261f565b6001836020036101000a03801982511681845116808217855250505050505090500191505060006040518083038185875af1925050503d80600081146126a0576040519150601f19603f3d011682016040523d82523d6000602084013e6126a5565b606091505b50915091506126b58282866126c6565b979650505050505050565b3b151590565b606083156126d5575081610e5e565b8251156126e55782518084602001fd5b60405162461bcd60e51b8152602060048201818152845160248401528451859391928392604401919085019080838360008315611fd1578181015183820152602001611fb956fe45524332303a207472616e7366657220746f20746865207a65726f206164647265737345524332303a206275726e20616d6f756e7420657863656564732062616c616e636545524332303a20617070726f766520746f20746865207a65726f206164647265737345524332303a207472616e7366657220616d6f756e7420657863656564732062616c616e6365416464726573733a20696e73756666696369656e742062616c616e636520666f722063616c6c536166654d6174683a206d756c7469706c69636174696f6e206f766572666c6f7745524332303a207472616e7366657220616d6f756e74206578636565647320616c6c6f77616e636545524332303a206275726e2066726f6d20746865207a65726f206164647265737345524332303a207472616e736665722066726f6d20746865207a65726f206164647265737345524332303a20617070726f76652066726f6d20746865207a65726f20616464726573735361666545524332303a204552433230206f7065726174696f6e20646964206e6f74207375636365656445524332303a2064656372656173656420616c6c6f77616e63652062656c6f77207a65726fa2646970667358221220de9f120869a19d7d5f0a75ae42d923f27fbe4ec3485b80383d988e53166fea0064736f6c634300060c0033",
  "linkReferences": {},
  "deployedLinkReferences": {}
}