{
    "address": "0x32e07AfdC9b69de9f477908Acdbc6440cf9aa42D",
    "abi": [
        {
            "inputs": [
                {
                    "internalType": "address",
                    "name": "_controller",
                    "type": "address"
                }
            ],
            "stateMutability": "nonpayable",
            "type": "constructor"
        },
        {
            "inputs": [],
            "name": "blockTimeout",
            "outputs": [
                {
                    "internalType": "uint256",
                    "name": "",
                    "type": "uint256"
                }
            ],
            "stateMutability": "view",
            "type": "function"
        },
        {
            "inputs": [
                {
                    "internalType": "uint256",
                    "name": "_in",
                    "type": "uint256"
                }
            ],
            "name": "computeReserveRequirement",
            "outputs": [
                {
                    "internalType": "uint256",
                    "name": "",
                    "type": "uint256"
                }
            ],
            "stateMutability": "view",
            "type": "function"
        },
        {
            "inputs": [],
            "name": "controller",
            "outputs": [
                {
                    "internalType": "address",
                    "name": "",
                    "type": "address"
                }
            ],
            "stateMutability": "view",
            "type": "function"
        },
        {
            "inputs": [
                {
                    "internalType": "uint256",
                    "name": "_nonce",
                    "type": "uint256"
                }
            ],
            "name": "defaultLoan",
            "outputs": [],
            "stateMutability": "nonpayable",
            "type": "function"
        },
        {
            "inputs": [],
            "name": "governance",
            "outputs": [
                {
                    "internalType": "address",
                    "name": "",
                    "type": "address"
                }
            ],
            "stateMutability": "view",
            "type": "function"
        },
        {
            "inputs": [
                {
                    "internalType": "uint256",
                    "name": "",
                    "type": "uint256"
                }
            ],
            "name": "outstanding",
            "outputs": [
                {
                    "internalType": "uint64",
                    "name": "when",
                    "type": "uint64"
                },
                {
                    "internalType": "uint256",
                    "name": "qtyETH",
                    "type": "uint256"
                },
                {
                    "internalType": "uint256",
                    "name": "qty",
                    "type": "uint256"
                }
            ],
            "stateMutability": "view",
            "type": "function"
        },
        {
            "inputs": [
                {
                    "internalType": "address",
                    "name": "_to",
                    "type": "address"
                },
                {
                    "internalType": "address",
                    "name": "_asset",
                    "type": "address"
                },
                {
                    "internalType": "uint256",
                    "name": "_actual",
                    "type": "uint256"
                },
                {
                    "internalType": "uint256",
                    "name": "_nonce",
                    "type": "uint256"
                },
                {
                    "internalType": "bytes",
                    "name": "_data",
                    "type": "bytes"
                }
            ],
            "name": "receiveLoan",
            "outputs": [],
            "stateMutability": "nonpayable",
            "type": "function"
        },
        {
            "inputs": [],
            "name": "renCrvPolygon",
            "outputs": [
                {
                    "internalType": "address",
                    "name": "",
                    "type": "address"
                }
            ],
            "stateMutability": "view",
            "type": "function"
        },
        {
            "inputs": [
                {
                    "internalType": "address",
                    "name": "_to",
                    "type": "address"
                },
                {
                    "internalType": "address",
                    "name": "_asset",
                    "type": "address"
                },
                {
                    "internalType": "uint256",
                    "name": "_actualAmount",
                    "type": "uint256"
                },
                {
                    "internalType": "uint256",
                    "name": "_nonce",
                    "type": "uint256"
                },
                {
                    "internalType": "bytes",
                    "name": "_data",
                    "type": "bytes"
                }
            ],
            "name": "repayLoan",
            "outputs": [],
            "stateMutability": "nonpayable",
            "type": "function"
        },
        {
            "inputs": [],
            "name": "router",
            "outputs": [
                {
                    "internalType": "address",
                    "name": "",
                    "type": "address"
                }
            ],
            "stateMutability": "view",
            "type": "function"
        },
        {
            "inputs": [
                {
                    "internalType": "uint256",
                    "name": "_ct",
                    "type": "uint256"
                }
            ],
            "name": "setBlockTimeout",
            "outputs": [],
            "stateMutability": "nonpayable",
            "type": "function"
        },
        {
            "inputs": [],
            "name": "tricryptoPolygon",
            "outputs": [
                {
                    "internalType": "address",
                    "name": "",
                    "type": "address"
                }
            ],
            "stateMutability": "view",
            "type": "function"
        },
        {
            "inputs": [],
            "name": "wMatic",
            "outputs": [
                {
                    "internalType": "address",
                    "name": "",
                    "type": "address"
                }
            ],
            "stateMutability": "view",
            "type": "function"
        },
        {
            "inputs": [],
            "name": "want",
            "outputs": [
                {
                    "internalType": "address",
                    "name": "",
                    "type": "address"
                }
            ],
            "stateMutability": "view",
            "type": "function"
        },
        {
            "inputs": [],
            "name": "wbtc",
            "outputs": [
                {
                    "internalType": "address",
                    "name": "",
                    "type": "address"
                }
            ],
            "stateMutability": "view",
            "type": "function"
        },
        {
            "inputs": [],
            "name": "weth",
            "outputs": [
                {
                    "internalType": "address",
                    "name": "",
                    "type": "address"
                }
            ],
            "stateMutability": "view",
            "type": "function"
        },
        {
            "stateMutability": "payable",
            "type": "receive"
        }
    ],
    "transactionHash": "0xe5a30ff70d8f050fea0a8b81bd33d6558e26f8aae0a4f5d451edb0462d697469",
    "args": [
        "0x6a90954A7884ccA45536e0418102AE21B249614c"
    ],
    "numDeployments": 2,
    "solcInputHash": "1c6b3333970e403b0fb7d3bd2d8c68f7",
    "bytecode": "0x60c06040523480156200001157600080fd5b5060405162001be938038062001be9833981810160405260208110156200003757600080fd5b50516001600160601b0319606082901b1660805260408051635aa6e67560e01b815290516001600160a01b03831691635aa6e675916004808301926020929190829003018186803b1580156200008c57600080fd5b505afa158015620000a1573d6000803e3d6000fd5b505050506040513d6020811015620000b857600080fd5b505160601b6001600160601b03191660a0526200011273dbf31df14b66535af65aac99c32e9ea844e14501731b02da8cb0d097eb8d57a175b88c7d8b479975066001600160fe1b0362000119602090811b620009c017901c565b506200052b565b801580620001a3575060408051636eb1769f60e11b81523060048201526001600160a01b03848116602483015291519185169163dd62ed3e91604480820192602092909190829003018186803b1580156200017357600080fd5b505afa15801562000188573d6000803e3d6000fd5b505050506040513d60208110156200019f57600080fd5b5051155b620001e05760405162461bcd60e51b815260040180806020018281038252603681526020018062001bb36036913960400191505060405180910390fd5b604080516001600160a01b038416602482015260448082018490528251808303909101815260649091019091526020810180516001600160e01b0390811663095ea7b360e01b17909152620002389185916200023d16565b505050565b600062000299826040518060400160405280602081526020017f5361666545524332303a206c6f772d6c6576656c2063616c6c206661696c6564815250856001600160a01b0316620002f960201b62000ad8179092919060201c565b8051909150156200023857808060200190516020811015620002ba57600080fd5b5051620002385760405162461bcd60e51b815260040180806020018281038252602a81526020018062001b89602a913960400191505060405180910390fd5b60606200030a848460008562000314565b90505b9392505050565b606082471015620003575760405162461bcd60e51b815260040180806020018281038252602681526020018062001b636026913960400191505060405180910390fd5b62000362856200047b565b620003b4576040805162461bcd60e51b815260206004820152601d60248201527f416464726573733a2063616c6c20746f206e6f6e2d636f6e7472616374000000604482015290519081900360640190fd5b600080866001600160a01b031685876040518082805190602001908083835b60208310620003f45780518252601f199092019160209182019101620003d3565b6001836020036101000a03801982511681845116808217855250505050505090500191505060006040518083038185875af1925050503d806000811462000458576040519150601f19603f3d011682016040523d82523d6000602084013e6200045d565b606091505b5090925090506200047082828662000481565b979650505050505050565b3b151590565b60608315620004925750816200030d565b825115620004a35782518084602001fd5b8160405162461bcd60e51b81526004018080602001828103825283818151815260200191508051906020019080838360005b83811015620004ef578181015183820152602001620004d5565b50505050905090810190601f1680156200051d5780820380516001836020036101000a031916815260200191505b509250505060405180910390fd5b60805160601c60a05160601c6115fa6200056960003980610491528061066452508061050152806107395280610801528061084652506115fa6000f3fe6080604052600436106100f75760003560e01c806367bf61c41161008a578063c75eb46e11610059578063c75eb46e1461036f578063f77c479114610384578063f887ea4014610399578063fd8e9154146103ae576100fe565b806367bf61c4146102a157806373883a2b146102cb57806380e7165514610307578063874a0e731461031c576100fe565b80633cdc5389116100c65780633cdc53891461024d5780633fc8cef3146102625780634d04f3a8146102775780635aa6e6751461028c576100fe565b8063086d3c7a146101035780631639743b1461012f5780631f1fcd51146102075780633c81fdb414610238576100fe565b366100fe57005b600080fd5b34801561010f57600080fd5b5061012d6004803603602081101561012657600080fd5b5035610486565b005b34801561013b57600080fd5b5061012d600480360360a081101561015257600080fd5b6001600160a01b03823581169260208101359091169160408201359160608101359181019060a08101608082013564010000000081111561019257600080fd5b8201836020820111156101a457600080fd5b803590602001918460018302840111640100000000831117156101c657600080fd5b91908080601f0160208091040260200160405190810160405280939291908181526020018383808284376000920191909152509295506104f6945050505050565b34801561021357600080fd5b5061021c6105ea565b604080516001600160a01b039092168252519081900360200190f35b34801561024457600080fd5b5061021c610602565b34801561025957600080fd5b5061021c61061a565b34801561026e57600080fd5b5061021c610632565b34801561028357600080fd5b5061021c61064a565b34801561029857600080fd5b5061021c610662565b3480156102ad57600080fd5b5061012d600480360360208110156102c457600080fd5b5035610686565b3480156102d757600080fd5b506102f5600480360360208110156102ee57600080fd5b5035610789565b60408051918252519081900360200190f35b34801561031357600080fd5b506102f56107b5565b34801561032857600080fd5b506103466004803603602081101561033f57600080fd5b50356107bb565b6040805167ffffffffffffffff9094168452602084019290925282820152519081900360600190f35b34801561037b57600080fd5b5061021c6107e7565b34801561039057600080fd5b5061021c6107ff565b3480156103a557600080fd5b5061021c610823565b3480156103ba57600080fd5b5061012d600480360360a08110156103d157600080fd5b6001600160a01b03823581169260208101359091169160408201359160608101359181019060a08101608082013564010000000081111561041157600080fd5b82018360208201111561042357600080fd5b8035906020019184600183028401116401000000008311171561044557600080fd5b91908080601f01602080910402602001604051908101604052809392919081815260200183838082843760009201919091525092955061083b945050505050565b336001600160a01b037f000000000000000000000000000000000000000000000000000000000000000016146104f1576040805162461bcd60e51b815260206004820152600b60248201526a21676f7665726e616e636560a81b604482015290519081900360640190fd5b600155565b336001600160a01b037f00000000000000000000000000000000000000000000000000000000000000001614610561576040805162461bcd60e51b815260206004820152600b60248201526a10b1b7b73a3937b63632b960a91b604482015290519081900360640190fd5b600081806020019051602081101561057857600080fd5b505190506000806105898684610af1565b604080516060810182524267ffffffffffffffff9081168252602080830195865282840194855260009a8b528a9052919098209751885467ffffffffffffffff19169116178755905160018701555160029095019490945550505050505050565b73dbf31df14b66535af65aac99c32e9ea844e1450181565b730d500b1d8e8ef31e21c99d1db9a6444d3adf127081565b731bfd67037b42cf73acf2047067bd4f2c47d9bfd681565b737ceb23fd6bc0add59e62ac25578270cff1b9f61981565b73c2d95eef97ec6c17551d45e77b590dc1f9117c6781565b7f000000000000000000000000000000000000000000000000000000000000000081565b60015460008281526020819052604090205467ffffffffffffffff16014310156106af57600080fd5b60008181526020819052604090206106c690610d89565b610706576040805162461bcd60e51b815260206004820152600c60248201526b216f75747374616e64696e6760a01b604482015290519081900360640190fd5b600081815260208190526040812061071d90610da4565b905061075e73dbf31df14b66535af65aac99c32e9ea844e145017f00000000000000000000000000000000000000000000000000000000000000008361109e565b506000908152602081905260408120805467ffffffffffffffff191681556001810182905560020155565b60006107af670de0b6b3a76400006107a98467016345785d8a00006110f0565b90611149565b92915050565b60015481565b60006020819052908152604090208054600182015460029092015467ffffffffffffffff909116919083565b7392215849c439e1f8612b6646060b4e3e5ef822cc81565b7f000000000000000000000000000000000000000000000000000000000000000081565b731b02da8cb0d097eb8d57a175b88c7d8b4799750681565b336001600160a01b037f000000000000000000000000000000000000000000000000000000000000000016146108a6576040805162461bcd60e51b815260206004820152600b60248201526a10b1b7b73a3937b63632b960a91b604482015290519081900360640190fd5b6000828152602081905260409020600201541515806108d5575060008281526020819052604090206001015415155b610915576040805162461bcd60e51b815260206004820152600c60248201526b216f75747374616e64696e6760a01b604482015290519081900360640190fd5b6000828152602081905260409020600201546109489073dbf31df14b66535af65aac99c32e9ea844e1450190879061109e565b60008281526020819052604080822060010154905187926001600160a01b0384169280156108fc02929091818181858888f19350505050158015610990573d6000803e3d6000fd5b5050506000908152602081905260408120805467ffffffffffffffff191681556001810182905560020155505050565b801580610a46575060408051636eb1769f60e11b81523060048201526001600160a01b03848116602483015291519185169163dd62ed3e91604480820192602092909190829003018186803b158015610a1857600080fd5b505afa158015610a2c573d6000803e3d6000fd5b505050506040513d6020811015610a4257600080fd5b5051155b610a815760405162461bcd60e51b815260040180806020018281038252603681526020018061158f6036913960400191505060405180910390fd5b604080516001600160a01b038416602482015260448082018490528251808303909101815260649091019091526020810180516001600160e01b031663095ea7b360e01b179052610ad39084906111b0565b505050565b6060610ae78484600085611261565b90505b9392505050565b60008080610b0b670de0b6b3a76400006107a986886110f0565b90508015610d7d5760408051600280825260608201835260009260208301908036833701905050905073dbf31df14b66535af65aac99c32e9ea844e1450181600081518110610b5657fe5b60200260200101906001600160a01b031690816001600160a01b031681525050730d500b1d8e8ef31e21c99d1db9a6444d3adf127081600181518110610b9857fe5b60200260200101906001600160a01b031690816001600160a01b0316815250506000731b02da8cb0d097eb8d57a175b88c7d8b479975066001600160a01b03166318cbafe58460018530426001016040518663ffffffff1660e01b81526004018086815260200185815260200180602001846001600160a01b03168152602001838152602001828103825285818151815260200191508051906020019060200280838360005b83811015610c56578181015183820152602001610c3e565b505050509050019650505050505050600060405180830381600087803b158015610c7f57600080fd5b505af1158015610c93573d6000803e3d6000fd5b505050506040513d6000823e601f3d908101601f191682016040526020811015610cbc57600080fd5b8101908080516040519392919084640100000000821115610cdc57600080fd5b908301906020820185811115610cf157600080fd5b8251866020820283011164010000000082111715610d0e57600080fd5b82525081516020918201928201910280838360005b83811015610d3b578181015183820152602001610d23565b50505050905001604052505050905080600181518110610d5757fe5b60200260200101519450610d7483886113bc90919063ffffffff16565b93505050610d81565b8491505b509250929050565b6000816002015460001415806107af57505060010154151590565b604080516370a0823160e01b815230600482015290516000918291731bfd67037b42cf73acf2047067bd4f2c47d9bfd6916370a08231916024808301926020929190829003018186803b158015610dfa57600080fd5b505afa158015610e0e573d6000803e3d6000fd5b505050506040513d6020811015610e2457600080fd5b50516001808501546040805160026024820152604481019390935260648301829052600060848085018290528251808603909101815260a490940182526020840180516001600160e01b0316630b68372160e31b1781529151845195965090947392215849c439e1f8612b6646060b4e3e5ef822cc949282918083835b60208310610ec05780518252601f199092019160209182019101610ea1565b6001836020036101000a03801982511681845116808217855250505050505090500191505060006040518083038185875af1925050503d8060008114610f22576040519150601f19603f3d011682016040523d82523d6000602084013e610f27565b606091505b5050905080610f69576040805162461bcd60e51b81526020600482015260096024820152682165786368616e676560b81b604482015290519081900360640190fd5b604080516370a0823160e01b81523060048201529051600091731bfd67037b42cf73acf2047067bd4f2c47d9bfd6916370a0823191602480820192602092909190829003018186803b158015610fbe57600080fd5b505afa158015610fd2573d6000803e3d6000fd5b505050506040513d6020811015610fe857600080fd5b5051600286015460408051630f7c084960e21b815260006004820181905260016024830152604482018590526064820181905291519394506110959373c2d95eef97ec6c17551d45e77b590dc1f9117c6792633df0212492608480820193602093909283900390910190829087803b15801561106357600080fd5b505af1158015611077573d6000803e3d6000fd5b505050506040513d602081101561108d57600080fd5b505190611419565b95945050505050565b604080516001600160a01b038416602482015260448082018490528251808303909101815260649091019091526020810180516001600160e01b031663a9059cbb60e01b179052610ad39084906111b0565b6000826110ff575060006107af565b8282028284828161110c57fe5b0414610aea5760405162461bcd60e51b81526004018080602001828103825260218152602001806115446021913960400191505060405180910390fd5b600080821161119f576040805162461bcd60e51b815260206004820152601a60248201527f536166654d6174683a206469766973696f6e206279207a65726f000000000000604482015290519081900360640190fd5b8183816111a857fe5b049392505050565b6000611205826040518060400160405280602081526020017f5361666545524332303a206c6f772d6c6576656c2063616c6c206661696c6564815250856001600160a01b0316610ad89092919063ffffffff16565b805190915015610ad35780806020019051602081101561122457600080fd5b5051610ad35760405162461bcd60e51b815260040180806020018281038252602a815260200180611565602a913960400191505060405180910390fd5b6060824710156112a25760405162461bcd60e51b815260040180806020018281038252602681526020018061151e6026913960400191505060405180910390fd5b6112ab85611473565b6112fc576040805162461bcd60e51b815260206004820152601d60248201527f416464726573733a2063616c6c20746f206e6f6e2d636f6e7472616374000000604482015290519081900360640190fd5b600080866001600160a01b031685876040518082805190602001908083835b6020831061133a5780518252601f19909201916020918201910161131b565b6001836020036101000a03801982511681845116808217855250505050505090500191505060006040518083038185875af1925050503d806000811461139c576040519150601f19603f3d011682016040523d82523d6000602084013e6113a1565b606091505b50915091506113b1828286611479565b979650505050505050565b600082821115611413576040805162461bcd60e51b815260206004820152601e60248201527f536166654d6174683a207375627472616374696f6e206f766572666c6f770000604482015290519081900360640190fd5b50900390565b600082820183811015610aea576040805162461bcd60e51b815260206004820152601b60248201527f536166654d6174683a206164646974696f6e206f766572666c6f770000000000604482015290519081900360640190fd5b3b151590565b60608315611488575081610aea565b8251156114985782518084602001fd5b8160405162461bcd60e51b81526004018080602001828103825283818151815260200191508051906020019080838360005b838110156114e25781810151838201526020016114ca565b50505050905090810190601f16801561150f5780820380516001836020036101000a031916815260200191505b509250505060405180910390fdfe416464726573733a20696e73756666696369656e742062616c616e636520666f722063616c6c536166654d6174683a206d756c7469706c69636174696f6e206f766572666c6f775361666545524332303a204552433230206f7065726174696f6e20646964206e6f7420737563636565645361666545524332303a20617070726f76652066726f6d206e6f6e2d7a65726f20746f206e6f6e2d7a65726f20616c6c6f77616e6365a2646970667358221220275ba5d0162d8be6dcbb039972e603a8bccf53ef033976b55bf7c6a57fa3983964736f6c63430007060033416464726573733a20696e73756666696369656e742062616c616e636520666f722063616c6c5361666545524332303a204552433230206f7065726174696f6e20646964206e6f7420737563636565645361666545524332303a20617070726f76652066726f6d206e6f6e2d7a65726f20746f206e6f6e2d7a65726f20616c6c6f77616e6365",
    "devdoc": {
        "kind": "dev",
        "methods": {},
        "version": 1
    },
    "userdoc": {
        "kind": "user",
        "methods": {},
        "version": 1
    },
    "storageLayout": {
        "storage": [
            {
                "astId": 9420,
                "contract": "contracts/modules/PolygonConvert.sol:PolygonConvert",
                "label": "outstanding",
                "offset": 0,
                "slot": "0",
                "type": "t_mapping(t_uint256,t_struct(ConvertRecord)9894_storage)"
            },
            {
                "astId": 9426,
                "contract": "contracts/modules/PolygonConvert.sol:PolygonConvert",
                "label": "blockTimeout",
                "offset": 0,
                "slot": "1",
                "type": "t_uint256"
            }
        ],
        "types": {
            "t_mapping(t_uint256,t_struct(ConvertRecord)9894_storage)": {
                "encoding": "mapping",
                "key": "t_uint256",
                "label": "mapping(uint256 => struct PolygonConvertLib.ConvertRecord)",
                "numberOfBytes": "32",
                "value": "t_struct(ConvertRecord)9894_storage"
            },
            "t_struct(ConvertRecord)9894_storage": {
                "encoding": "inplace",
                "label": "struct PolygonConvertLib.ConvertRecord",
                "members": [
                    {
                        "astId": 9889,
                        "contract": "contracts/modules/PolygonConvert.sol:PolygonConvert",
                        "label": "when",
                        "offset": 0,
                        "slot": "0",
                        "type": "t_uint64"
                    },
                    {
                        "astId": 9891,
                        "contract": "contracts/modules/PolygonConvert.sol:PolygonConvert",
                        "label": "qtyETH",
                        "offset": 0,
                        "slot": "1",
                        "type": "t_uint256"
                    },
                    {
                        "astId": 9893,
                        "contract": "contracts/modules/PolygonConvert.sol:PolygonConvert",
                        "label": "qty",
                        "offset": 0,
                        "slot": "2",
                        "type": "t_uint256"
                    }
                ],
                "numberOfBytes": "96"
            },
            "t_uint256": {
                "encoding": "inplace",
                "label": "uint256",
                "numberOfBytes": "32"
            },
            "t_uint64": {
                "encoding": "inplace",
                "label": "uint64",
                "numberOfBytes": "8"
            }
        }
    }
}