{
    "address": "0xFB453351d31213a69E4912996715754181Cc5A15",
    "abi": [
        {
            "inputs": [
                {
                    "internalType": "address",
                    "name": "_router",
                    "type": "address"
                }
            ],
            "stateMutability": "nonpayable",
            "type": "constructor"
        },
        {
            "anonymous": false,
            "inputs": [
                {
                    "indexed": false,
                    "internalType": "address",
                    "name": "_wrapper",
                    "type": "address"
                }
            ],
            "name": "CreateWrapper",
            "type": "event"
        },
        {
            "inputs": [
                {
                    "internalType": "address[]",
                    "name": "_path",
                    "type": "address[]"
                }
            ],
            "name": "createWrapper",
            "outputs": [],
            "stateMutability": "nonpayable",
            "type": "function"
        },
        {
            "inputs": [],
            "name": "router",
            "outputs": [
                {
                    "internalType": "address",
                    "name": "",
                    "type": "address"
                }
            ],
            "stateMutability": "view",
            "type": "function"
        }
    ],
    "transactionHash": "0x753f9d2d8a40e4edbc040b648c34a59b77c16a427ff0e3101f9639c96d171143",
    "args": [
        "0x1b02dA8Cb0d097eB8D57A175b88c7D8b47997506"
    ],
    "solcInputHash": "2f76c51869df8faf1461922eeef4d7cd",
    "bytecode": "0x60a060405234801561001057600080fd5b506040516117503803806117508339818101604052602081101561003357600080fd5b5051606081901b6001600160601b0319166080526001600160a01b03166116e461006c6000398061010852806101ec52506116e46000f3fe608060405234801561001057600080fd5b50600436106100365760003560e01c8063c431115b1461003b578063f887ea40146100e0575b600080fd5b6100de6004803603602081101561005157600080fd5b81019060208101813564010000000081111561006c57600080fd5b82018360208201111561007e57600080fd5b803590602001918460208302840111640100000000831117156100a057600080fd5b919080806020026020016040519081016040528093929190818152602001838360200280828437600092019190915250929550610104945050505050565b005b6100e86101ea565b604080516001600160a01b039092168252519081900360200190f35b60007f0000000000000000000000000000000000000000000000000000000000000000826040516101349061020e565b6001600160a01b03831681526040602080830182815284519284019290925283516060840191858101910280838360005b8381101561017d578181015183820152602001610165565b505050509050019350505050604051809103906000f0801580156101a5573d6000803e3d6000fd5b50604080516001600160a01b038316815290519192507f729bbe2c9703a1bd3cf2ce66444473a305404e4080924c1e3068becdc1a3e0b1919081900360200190a15050565b7f000000000000000000000000000000000000000000000000000000000000000081565b6114938061021c8339019056fe60a06040523480156200001157600080fd5b506040516200149338038062001493833981810160405260408110156200003757600080fd5b8151602083018051604051929492938301929190846401000000008211156200005f57600080fd5b9083019060208201858111156200007557600080fd5b82518660208202830111640100000000821117156200009357600080fd5b82525081516020918201928201910280838360005b83811015620000c2578181015183820152602001620000a8565b50505050919091016040525050506001600160601b0319606084901b16608052508051620000f89060009060208401906200054f565b506200013582600019836000815181106200010f57fe5b60200260200101516001600160a01b03166200013d60201b62000862179092919060201c565b5050620005d0565b801580620001c7575060408051636eb1769f60e11b81523060048201526001600160a01b03848116602483015291519185169163dd62ed3e91604480820192602092909190829003018186803b1580156200019757600080fd5b505afa158015620001ac573d6000803e3d6000fd5b505050506040513d6020811015620001c357600080fd5b5051155b620002045760405162461bcd60e51b81526004018080602001828103825260368152602001806200145d6036913960400191505060405180910390fd5b604080516001600160a01b038416602482015260448082018490528251808303909101815260649091019091526020810180516001600160e01b0390811663095ea7b360e01b179091526200025c9185916200026116565b505050565b6000620002bd826040518060400160405280602081526020017f5361666545524332303a206c6f772d6c6576656c2063616c6c206661696c6564815250856001600160a01b03166200031d60201b6200097a179092919060201c565b8051909150156200025c57808060200190516020811015620002de57600080fd5b50516200025c5760405162461bcd60e51b815260040180806020018281038252602a81526020018062001433602a913960400191505060405180910390fd5b60606200032e848460008562000338565b90505b9392505050565b6060824710156200037b5760405162461bcd60e51b81526004018080602001828103825260268152602001806200140d6026913960400191505060405180910390fd5b62000386856200049f565b620003d8576040805162461bcd60e51b815260206004820152601d60248201527f416464726573733a2063616c6c20746f206e6f6e2d636f6e7472616374000000604482015290519081900360640190fd5b600080866001600160a01b031685876040518082805190602001908083835b60208310620004185780518252601f199092019160209182019101620003f7565b6001836020036101000a03801982511681845116808217855250505050505090500191505060006040518083038185875af1925050503d80600081146200047c576040519150601f19603f3d011682016040523d82523d6000602084013e62000481565b606091505b50909250905062000494828286620004a5565b979650505050505050565b3b151590565b60608315620004b657508162000331565b825115620004c75782518084602001fd5b8160405162461bcd60e51b81526004018080602001828103825283818151815260200191508051906020019080838360005b8381101562000513578181015183820152602001620004f9565b50505050905090810190601f168015620005415780820380516001836020036101000a031916815260200191505b509250505060405180910390fd5b828054828255906000526020600020908101928215620005a7579160200282015b82811115620005a757825182546001600160a01b0319166001600160a01b0390911617825560209092019160019091019062000570565b50620005b5929150620005b9565b5090565b5b80821115620005b55760008155600101620005ba565b60805160601c610e0b620006026000398061013752806103685280610410528061067752806108405250610e0b6000f3fe60806040526004361061003f5760003560e01c80639c79293814610044578063af6d1fe414610080578063def2489b146100c6578063f887ea40146100ec575b600080fd5b34801561005057600080fd5b5061006e6004803603602081101561006757600080fd5b5035610101565b60408051918252519081900360200190f35b34801561008c57600080fd5b506100aa600480360360208110156100a357600080fd5b50356105a4565b604080516001600160a01b039092168252519081900360200190f35b61006e600480360360208110156100dc57600080fd5b50356001600160a01b03166105ce565b3480156100f857600080fd5b506100aa61083e565b6000806001600160a01b03166000808154811061011a57fe5b6000918252602090912001546001600160a01b03161415610337577f00000000000000000000000000000000000000000000000000000000000000006001600160a01b031663d06ca61f836101d3600160008054806020026020016040519081016040528092919081815260200182805480156101c057602002820191906000526020600020905b81546001600160a01b031681526001909101906020018083116101a2575b505050505061099390919063ffffffff16565b6040518363ffffffff1660e01b81526004018083815260200180602001828103825283818151815260200191508051906020019060200280838360005b83811015610228578181015183820152602001610210565b50505050905001935050505060006040518083038186803b15801561024c57600080fd5b505afa158015610260573d6000803e3d6000fd5b505050506040513d6000823e601f3d908101601f19168201604052602081101561028957600080fd5b81019080805160405193929190846401000000008211156102a957600080fd5b9083019060208201858111156102be57600080fd5b82518660208202830111640100000000821117156102db57600080fd5b82525081516020918201928201910280838360005b838110156103085781810151838201526020016102f0565b505050509050016040525050506002600080549050038151811061032857fe5b6020026020010151905061059f565b600080548190600019810190811061034b57fe5b6000918252602090912001546001600160a01b0316141561040e577f00000000000000000000000000000000000000000000000000000000000000006001600160a01b031663d06ca61f836101d3600060016000805490500360008054806020026020016040519081016040528092919081815260200182805480156103fa57602002820191906000526020600020905b81546001600160a01b031681526001909101906020018083116103dc575b505050505061099d9092919063ffffffff16565b7f00000000000000000000000000000000000000000000000000000000000000006001600160a01b031663d06ca61f8360006040518363ffffffff1660e01b8152600401808381526020018060200182810382528381815481526020019150805480156104a457602002820191906000526020600020905b81546001600160a01b03168152600190910190602001808311610486575b5050935050505060006040518083038186803b1580156104c357600080fd5b505afa1580156104d7573d6000803e3d6000fd5b505050506040513d6000823e601f3d908101601f19168201604052602081101561050057600080fd5b810190808051604051939291908464010000000082111561052057600080fd5b90830190602082018581111561053557600080fd5b825186602082028301116401000000008211171561055257600080fd5b82525081516020918201928201910280838360005b8381101561057f578181015183820152602001610567565b505050509050016040525050506001600080549050038151811061032857fe5b919050565b600081815481106105b457600080fd5b6000918252602090912001546001600160a01b0316905081565b600080600080815481106105de57fe5b60009182526020918290200154604080516370a0823160e01b815230600482015290516001600160a01b03909216926370a0823192602480840193829003018186803b15801561062d57600080fd5b505afa158015610641573d6000803e3d6000fd5b505050506040513d602081101561065757600080fd5b505190506000610671600161066b84610101565b90610a3c565b905060007f00000000000000000000000000000000000000000000000000000000000000006001600160a01b03166338ed17398484600033426040518663ffffffff1660e01b81526004018086815260200185815260200180602001846001600160a01b03168152602001838152602001828103825285818154815260200191508054801561072957602002820191906000526020600020905b81546001600160a01b0316815260019091019060200180831161070b575b50509650505050505050600060405180830381600087803b15801561074d57600080fd5b505af1158015610761573d6000803e3d6000fd5b505050506040513d6000823e601f3d908101601f19168201604052602081101561078a57600080fd5b81019080805160405193929190846401000000008211156107aa57600080fd5b9083019060208201858111156107bf57600080fd5b82518660208202830111640100000000821117156107dc57600080fd5b82525081516020918201928201910280838360005b838110156108095781810151838201526020016107f1565b505050509050016040525050506001600080549050038151811061082957fe5b60200260200101519050809350505050919050565b7f000000000000000000000000000000000000000000000000000000000000000081565b8015806108e8575060408051636eb1769f60e11b81523060048201526001600160a01b03848116602483015291519185169163dd62ed3e91604480820192602092909190829003018186803b1580156108ba57600080fd5b505afa1580156108ce573d6000803e3d6000fd5b505050506040513d60208110156108e457600080fd5b5051155b6109235760405162461bcd60e51b8152600401808060200182810382526036815260200180610da06036913960400191505060405180910390fd5b604080516001600160a01b038416602482015260448082018490528251808303909101815260649091019091526020810180516001600160e01b031663095ea7b360e01b179052610975908490610a99565b505050565b60606109898484600085610b4a565b90505b9392505050565b606061098c838385515b60608282038067ffffffffffffffff811180156109b957600080fd5b506040519080825280602002602001820160405280156109e3578160200160208202803683370190505b50915060005b81811015610a335785858201815181106109ff57fe5b6020026020010151838281518110610a1357fe5b6001600160a01b03909216602092830291909101909101526001016109e9565b50509392505050565b600082821115610a93576040805162461bcd60e51b815260206004820152601e60248201527f536166654d6174683a207375627472616374696f6e206f766572666c6f770000604482015290519081900360640190fd5b50900390565b6000610aee826040518060400160405280602081526020017f5361666545524332303a206c6f772d6c6576656c2063616c6c206661696c6564815250856001600160a01b031661097a9092919063ffffffff16565b80519091501561097557808060200190516020811015610b0d57600080fd5b50516109755760405162461bcd60e51b815260040180806020018281038252602a815260200180610d76602a913960400191505060405180910390fd5b606082471015610b8b5760405162461bcd60e51b8152600401808060200182810382526026815260200180610d506026913960400191505060405180910390fd5b610b9485610ca5565b610be5576040805162461bcd60e51b815260206004820152601d60248201527f416464726573733a2063616c6c20746f206e6f6e2d636f6e7472616374000000604482015290519081900360640190fd5b600080866001600160a01b031685876040518082805190602001908083835b60208310610c235780518252601f199092019160209182019101610c04565b6001836020036101000a03801982511681845116808217855250505050505090500191505060006040518083038185875af1925050503d8060008114610c85576040519150601f19603f3d011682016040523d82523d6000602084013e610c8a565b606091505b5091509150610c9a828286610cab565b979650505050505050565b3b151590565b60608315610cba57508161098c565b825115610cca5782518084602001fd5b8160405162461bcd60e51b81526004018080602001828103825283818151815260200191508051906020019080838360005b83811015610d14578181015183820152602001610cfc565b50505050905090810190601f168015610d415780820380516001836020036101000a031916815260200191505b509250505060405180910390fdfe416464726573733a20696e73756666696369656e742062616c616e636520666f722063616c6c5361666545524332303a204552433230206f7065726174696f6e20646964206e6f7420737563636565645361666545524332303a20617070726f76652066726f6d206e6f6e2d7a65726f20746f206e6f6e2d7a65726f20616c6c6f77616e6365a2646970667358221220c3b31e08b000f6f118b9640f5881df4c8a642fae4fd6392906dfd9988bb4330564736f6c63430007060033416464726573733a20696e73756666696369656e742062616c616e636520666f722063616c6c5361666545524332303a204552433230206f7065726174696f6e20646964206e6f7420737563636565645361666545524332303a20617070726f76652066726f6d206e6f6e2d7a65726f20746f206e6f6e2d7a65726f20616c6c6f77616e6365a26469706673582212207f8683c529b7b820f9776667e5ee4a7f3a0899a6c0987da193c19effe48f95f264736f6c63430007060033",
    "devdoc": {
        "kind": "dev",
        "methods": {},
        "version": 1
    },
    "userdoc": {
        "kind": "user",
        "methods": {},
        "version": 1
    },
    "storageLayout": {
        "storage": [],
        "types": null
    }
}