{
  "_format": "hh-sol-artifact-1",
  "contractName": "veCurveVault",
  "sourceName": "contracts/vendor/yearn/vaults/CurveVault.sol",
  "abi": [
    {
      "inputs": [],
      "stateMutability": "nonpayable",
      "type": "constructor"
    },
    {
      "anonymous": false,
      "inputs": [
        {
          "indexed": true,
          "internalType": "address",
          "name": "owner",
          "type": "address"
        },
        {
          "indexed": true,
          "internalType": "address",
          "name": "spender",
          "type": "address"
        },
        {
          "indexed": false,
          "internalType": "uint256",
          "name": "amount",
          "type": "uint256"
        }
      ],
      "name": "Approval",
      "type": "event"
    },
    {
      "anonymous": false,
      "inputs": [
        {
          "indexed": true,
          "internalType": "address",
          "name": "delegator",
          "type": "address"
        },
        {
          "indexed": true,
          "internalType": "address",
          "name": "fromDelegate",
          "type": "address"
        },
        {
          "indexed": true,
          "internalType": "address",
          "name": "toDelegate",
          "type": "address"
        }
      ],
      "name": "DelegateChanged",
      "type": "event"
    },
    {
      "anonymous": false,
      "inputs": [
        {
          "indexed": true,
          "internalType": "address",
          "name": "delegate",
          "type": "address"
        },
        {
          "indexed": false,
          "internalType": "uint256",
          "name": "previousBalance",
          "type": "uint256"
        },
        {
          "indexed": false,
          "internalType": "uint256",
          "name": "newBalance",
          "type": "uint256"
        }
      ],
      "name": "DelegateVotesChanged",
      "type": "event"
    },
    {
      "anonymous": false,
      "inputs": [
        {
          "indexed": true,
          "internalType": "address",
          "name": "from",
          "type": "address"
        },
        {
          "indexed": true,
          "internalType": "address",
          "name": "to",
          "type": "address"
        },
        {
          "indexed": false,
          "internalType": "uint256",
          "name": "amount",
          "type": "uint256"
        }
      ],
      "name": "Transfer",
      "type": "event"
    },
    {
      "inputs": [],
      "name": "CRV",
      "outputs": [
        {
          "internalType": "contract IERC20",
          "name": "",
          "type": "address"
        }
      ],
      "stateMutability": "view",
      "type": "function"
    },
    {
      "inputs": [],
      "name": "DELEGATION_TYPEHASH",
      "outputs": [
        {
          "internalType": "bytes32",
          "name": "",
          "type": "bytes32"
        }
      ],
      "stateMutability": "view",
      "type": "function"
    },
    {
      "inputs": [],
      "name": "DOMAINSEPARATOR",
      "outputs": [
        {
          "internalType": "bytes32",
          "name": "",
          "type": "bytes32"
        }
      ],
      "stateMutability": "view",
      "type": "function"
    },
    {
      "inputs": [],
      "name": "DOMAIN_TYPEHASH",
      "outputs": [
        {
          "internalType": "bytes32",
          "name": "",
          "type": "bytes32"
        }
      ],
      "stateMutability": "view",
      "type": "function"
    },
    {
      "inputs": [],
      "name": "LOCK",
      "outputs": [
        {
          "internalType": "address",
          "name": "",
          "type": "address"
        }
      ],
      "stateMutability": "view",
      "type": "function"
    },
    {
      "inputs": [],
      "name": "PERMIT_TYPEHASH",
      "outputs": [
        {
          "internalType": "bytes32",
          "name": "",
          "type": "bytes32"
        }
      ],
      "stateMutability": "view",
      "type": "function"
    },
    {
      "inputs": [],
      "name": "acceptGovernance",
      "outputs": [],
      "stateMutability": "nonpayable",
      "type": "function"
    },
    {
      "inputs": [
        {
          "internalType": "address",
          "name": "account",
          "type": "address"
        },
        {
          "internalType": "address",
          "name": "spender",
          "type": "address"
        }
      ],
      "name": "allowance",
      "outputs": [
        {
          "internalType": "uint256",
          "name": "",
          "type": "uint256"
        }
      ],
      "stateMutability": "view",
      "type": "function"
    },
    {
      "inputs": [
        {
          "internalType": "address",
          "name": "spender",
          "type": "address"
        },
        {
          "internalType": "uint256",
          "name": "amount",
          "type": "uint256"
        }
      ],
      "name": "approve",
      "outputs": [
        {
          "internalType": "bool",
          "name": "",
          "type": "bool"
        }
      ],
      "stateMutability": "nonpayable",
      "type": "function"
    },
    {
      "inputs": [],
      "name": "bal",
      "outputs": [
        {
          "internalType": "uint256",
          "name": "",
          "type": "uint256"
        }
      ],
      "stateMutability": "view",
      "type": "function"
    },
    {
      "inputs": [
        {
          "internalType": "address",
          "name": "account",
          "type": "address"
        }
      ],
      "name": "balanceOf",
      "outputs": [
        {
          "internalType": "uint256",
          "name": "",
          "type": "uint256"
        }
      ],
      "stateMutability": "view",
      "type": "function"
    },
    {
      "inputs": [
        {
          "internalType": "address",
          "name": "",
          "type": "address"
        },
        {
          "internalType": "uint32",
          "name": "",
          "type": "uint32"
        }
      ],
      "name": "checkpoints",
      "outputs": [
        {
          "internalType": "uint32",
          "name": "fromBlock",
          "type": "uint32"
        },
        {
          "internalType": "uint256",
          "name": "votes",
          "type": "uint256"
        }
      ],
      "stateMutability": "view",
      "type": "function"
    },
    {
      "inputs": [],
      "name": "claim",
      "outputs": [],
      "stateMutability": "nonpayable",
      "type": "function"
    },
    {
      "inputs": [
        {
          "internalType": "address",
          "name": "recipient",
          "type": "address"
        }
      ],
      "name": "claimFor",
      "outputs": [],
      "stateMutability": "nonpayable",
      "type": "function"
    },
    {
      "inputs": [
        {
          "internalType": "address",
          "name": "",
          "type": "address"
        }
      ],
      "name": "claimable",
      "outputs": [
        {
          "internalType": "uint256",
          "name": "",
          "type": "uint256"
        }
      ],
      "stateMutability": "view",
      "type": "function"
    },
    {
      "inputs": [],
      "name": "decimals",
      "outputs": [
        {
          "internalType": "uint8",
          "name": "",
          "type": "uint8"
        }
      ],
      "stateMutability": "view",
      "type": "function"
    },
    {
      "inputs": [
        {
          "internalType": "address",
          "name": "delegatee",
          "type": "address"
        }
      ],
      "name": "delegate",
      "outputs": [],
      "stateMutability": "nonpayable",
      "type": "function"
    },
    {
      "inputs": [
        {
          "internalType": "address",
          "name": "delegatee",
          "type": "address"
        },
        {
          "internalType": "uint256",
          "name": "nonce",
          "type": "uint256"
        },
        {
          "internalType": "uint256",
          "name": "expiry",
          "type": "uint256"
        },
        {
          "internalType": "uint8",
          "name": "v",
          "type": "uint8"
        },
        {
          "internalType": "bytes32",
          "name": "r",
          "type": "bytes32"
        },
        {
          "internalType": "bytes32",
          "name": "s",
          "type": "bytes32"
        }
      ],
      "name": "delegateBySig",
      "outputs": [],
      "stateMutability": "nonpayable",
      "type": "function"
    },
    {
      "inputs": [
        {
          "internalType": "address",
          "name": "",
          "type": "address"
        }
      ],
      "name": "delegates",
      "outputs": [
        {
          "internalType": "address",
          "name": "",
          "type": "address"
        }
      ],
      "stateMutability": "view",
      "type": "function"
    },
    {
      "inputs": [
        {
          "internalType": "uint256",
          "name": "_amount",
          "type": "uint256"
        }
      ],
      "name": "deposit",
      "outputs": [],
      "stateMutability": "nonpayable",
      "type": "function"
    },
    {
      "inputs": [],
      "name": "depositAll",
      "outputs": [],
      "stateMutability": "nonpayable",
      "type": "function"
    },
    {
      "inputs": [],
      "name": "feeDistribution",
      "outputs": [
        {
          "internalType": "address",
          "name": "",
          "type": "address"
        }
      ],
      "stateMutability": "view",
      "type": "function"
    },
    {
      "inputs": [
        {
          "internalType": "address",
          "name": "account",
          "type": "address"
        }
      ],
      "name": "getCurrentVotes",
      "outputs": [
        {
          "internalType": "uint256",
          "name": "",
          "type": "uint256"
        }
      ],
      "stateMutability": "view",
      "type": "function"
    },
    {
      "inputs": [
        {
          "internalType": "address",
          "name": "account",
          "type": "address"
        },
        {
          "internalType": "uint256",
          "name": "blockNumber",
          "type": "uint256"
        }
      ],
      "name": "getPriorVotes",
      "outputs": [
        {
          "internalType": "uint256",
          "name": "",
          "type": "uint256"
        }
      ],
      "stateMutability": "view",
      "type": "function"
    },
    {
      "inputs": [],
      "name": "governance",
      "outputs": [
        {
          "internalType": "address",
          "name": "",
          "type": "address"
        }
      ],
      "stateMutability": "view",
      "type": "function"
    },
    {
      "inputs": [],
      "name": "index",
      "outputs": [
        {
          "internalType": "uint256",
          "name": "",
          "type": "uint256"
        }
      ],
      "stateMutability": "view",
      "type": "function"
    },
    {
      "inputs": [],
      "name": "name",
      "outputs": [
        {
          "internalType": "string",
          "name": "",
          "type": "string"
        }
      ],
      "stateMutability": "view",
      "type": "function"
    },
    {
      "inputs": [
        {
          "internalType": "address",
          "name": "",
          "type": "address"
        }
      ],
      "name": "nonces",
      "outputs": [
        {
          "internalType": "uint256",
          "name": "",
          "type": "uint256"
        }
      ],
      "stateMutability": "view",
      "type": "function"
    },
    {
      "inputs": [
        {
          "internalType": "address",
          "name": "",
          "type": "address"
        }
      ],
      "name": "numCheckpoints",
      "outputs": [
        {
          "internalType": "uint32",
          "name": "",
          "type": "uint32"
        }
      ],
      "stateMutability": "view",
      "type": "function"
    },
    {
      "inputs": [],
      "name": "pendingGovernance",
      "outputs": [
        {
          "internalType": "address",
          "name": "",
          "type": "address"
        }
      ],
      "stateMutability": "view",
      "type": "function"
    },
    {
      "inputs": [
        {
          "internalType": "address",
          "name": "owner",
          "type": "address"
        },
        {
          "internalType": "address",
          "name": "spender",
          "type": "address"
        },
        {
          "internalType": "uint256",
          "name": "amount",
          "type": "uint256"
        },
        {
          "internalType": "uint256",
          "name": "deadline",
          "type": "uint256"
        },
        {
          "internalType": "uint8",
          "name": "v",
          "type": "uint8"
        },
        {
          "internalType": "bytes32",
          "name": "r",
          "type": "bytes32"
        },
        {
          "internalType": "bytes32",
          "name": "s",
          "type": "bytes32"
        }
      ],
      "name": "permit",
      "outputs": [],
      "stateMutability": "nonpayable",
      "type": "function"
    },
    {
      "inputs": [],
      "name": "proxy",
      "outputs": [
        {
          "internalType": "address",
          "name": "",
          "type": "address"
        }
      ],
      "stateMutability": "view",
      "type": "function"
    },
    {
      "inputs": [],
      "name": "rewards",
      "outputs": [
        {
          "internalType": "contract IERC20",
          "name": "",
          "type": "address"
        }
      ],
      "stateMutability": "view",
      "type": "function"
    },
    {
      "inputs": [
        {
          "internalType": "address",
          "name": "_feeDistribution",
          "type": "address"
        }
      ],
      "name": "setFeeDistribution",
      "outputs": [],
      "stateMutability": "nonpayable",
      "type": "function"
    },
    {
      "inputs": [
        {
          "internalType": "address",
          "name": "_governance",
          "type": "address"
        }
      ],
      "name": "setGovernance",
      "outputs": [],
      "stateMutability": "nonpayable",
      "type": "function"
    },
    {
      "inputs": [
        {
          "internalType": "address",
          "name": "_proxy",
          "type": "address"
        }
      ],
      "name": "setProxy",
      "outputs": [],
      "stateMutability": "nonpayable",
      "type": "function"
    },
    {
      "inputs": [
        {
          "internalType": "address",
          "name": "",
          "type": "address"
        }
      ],
      "name": "supplyIndex",
      "outputs": [
        {
          "internalType": "uint256",
          "name": "",
          "type": "uint256"
        }
      ],
      "stateMutability": "view",
      "type": "function"
    },
    {
      "inputs": [],
      "name": "symbol",
      "outputs": [
        {
          "internalType": "string",
          "name": "",
          "type": "string"
        }
      ],
      "stateMutability": "view",
      "type": "function"
    },
    {
      "inputs": [],
      "name": "totalSupply",
      "outputs": [
        {
          "internalType": "uint256",
          "name": "",
          "type": "uint256"
        }
      ],
      "stateMutability": "view",
      "type": "function"
    },
    {
      "inputs": [
        {
          "internalType": "address",
          "name": "dst",
          "type": "address"
        },
        {
          "internalType": "uint256",
          "name": "amount",
          "type": "uint256"
        }
      ],
      "name": "transfer",
      "outputs": [
        {
          "internalType": "bool",
          "name": "",
          "type": "bool"
        }
      ],
      "stateMutability": "nonpayable",
      "type": "function"
    },
    {
      "inputs": [
        {
          "internalType": "address",
          "name": "src",
          "type": "address"
        },
        {
          "internalType": "address",
          "name": "dst",
          "type": "address"
        },
        {
          "internalType": "uint256",
          "name": "amount",
          "type": "uint256"
        }
      ],
      "name": "transferFrom",
      "outputs": [
        {
          "internalType": "bool",
          "name": "",
          "type": "bool"
        }
      ],
      "stateMutability": "nonpayable",
      "type": "function"
    },
    {
      "inputs": [],
      "name": "update",
      "outputs": [],
      "stateMutability": "nonpayable",
      "type": "function"
    },
    {
      "inputs": [
        {
          "internalType": "address",
          "name": "recipient",
          "type": "address"
        }
      ],
      "name": "updateFor",
      "outputs": [],
      "stateMutability": "nonpayable",
      "type": "function"
    }
  ],
  "bytecode": "0x60806040526000808055600a80546001600160a01b031916737a1848e7847f3f5ffb4d8e63bdb9569db535a4f0179055600c819055600d5534801561004357600080fd5b50600880546001600160a01b0319163317905560408051808201909152601081526f1d9950d4958b511053c81e55985d5b1d60821b6020909101527f797cfab58fcb15f590eb8e4252d5c228ff88f94f907e119e80c4393a946e8f357fe221ea24e1957eed640af1c444f368d3df27b92f51aaa842e46ce73f81cadd6f6100c8610118565b3060405160200180858152602001848152602001838152602001826001600160a01b031681526020019450505050506040516020818303038152906040528051906020012060068190555061011c565b4690565b6123078061012b6000396000f3fe608060405234801561001057600080fd5b50600436106102695760003560e01c8063782d6fe111610151578063b6b55f25116100c3578063de5f626811610087578063de5f626814610743578063e380fcad1461074b578063e7a324dc14610771578063ec55688914610779578063f1127ed814610781578063f39c38a0146107d357610269565b8063b6b55f251461063a578063c3cda52014610657578063d505accf1461069e578063dd62ed3e146106ef578063ddeae0331461071d57610269565b80639ec5a894116101155780639ec5a894146105aa578063a2e62045146105b2578063a4f0d7d0146105ba578063a9059cbb146105c2578063ab033ea9146105ee578063b4b5ea571461061457610269565b8063782d6fe1146105225780637ecebe001461054e578063945c91421461057457806395d89b411461057c57806397107d6d1461058457610269565b80632986c0e5116101ea5780634e71d92d116101ae5780634e71d92d14610461578063587cde1e146104695780635aa6e6751461048f5780635c19a95c146104975780636fcfff45146104bd57806370a08231146104fc57610269565b80632986c0e51461040557806330adf81f1461040d578063313ce567146104155780633d79d1c814610433578063402914f51461043b57610269565b80631919db33116102315780631919db331461037557806320606b701461039b578063238efcbc146103a357806323b872dd146103ab5780632479b177146103e157610269565b806306fdde031461026e578063095ea7b3146102eb5780630e0a59681461032b5780631778e29c1461035357806318160ddd1461036d575b600080fd5b6102766107db565b6040805160208082528351818301528351919283929083019185019080838360005b838110156102b0578181015183820152602001610298565b50505050905090810190601f1680156102dd5780820380516001836020036101000a031916815260200191505b509250505060405180910390f35b6103176004803603604081101561030157600080fd5b506001600160a01b038135169060200135610807565b604080519115158252519081900360200190f35b6103516004803603602081101561034157600080fd5b50356001600160a01b031661086e565b005b61035b61098a565b60408051918252519081900360200190f35b61035b610990565b6103516004803603602081101561038b57600080fd5b50356001600160a01b0316610996565b61035b610a0d565b610351610a31565b610317600480360360608110156103c157600080fd5b506001600160a01b03813581169160208101359091169060400135610ab4565b6103e9610b96565b604080516001600160a01b039092168252519081900360200190f35b61035b610ba5565b61035b610bab565b61041d610bcf565b6040805160ff9092168252519081900360200190f35b61035b610bd4565b61035b6004803603602081101561045157600080fd5b50356001600160a01b0316610bda565b610351610bec565b6103e96004803603602081101561047f57600080fd5b50356001600160a01b0316610bf7565b6103e9610c12565b610351600480360360208110156104ad57600080fd5b50356001600160a01b0316610c21565b6104e3600480360360208110156104d357600080fd5b50356001600160a01b0316610c2e565b6040805163ffffffff9092168252519081900360200190f35b61035b6004803603602081101561051257600080fd5b50356001600160a01b0316610c46565b61035b6004803603604081101561053857600080fd5b506001600160a01b038135169060200135610c61565b61035b6004803603602081101561056457600080fd5b50356001600160a01b0316610e70565b6103e9610e82565b610276610e9a565b6103516004803603602081101561059a57600080fd5b50356001600160a01b0316610ec0565b6103e9610f37565b610351610f4f565b6103e9610f57565b610317600480360360408110156105d857600080fd5b506001600160a01b038135169060200135610f6f565b6103516004803603602081101561060457600080fd5b50356001600160a01b0316610f85565b61035b6004803603602081101561062a57600080fd5b50356001600160a01b0316610ffc565b6103516004803603602081101561065057600080fd5b5035611060565b610351600480360360c081101561066d57600080fd5b506001600160a01b038135169060208101359060408101359060ff6060820135169060808101359060a00135611069565b610351600480360360e08110156106b457600080fd5b506001600160a01b03813581169160208101359091169060408101359060608101359060ff6080820135169060a08101359060c00135611289565b61035b6004803603604081101561070557600080fd5b506001600160a01b038135811691602001351661150f565b6103516004803603602081101561073357600080fd5b50356001600160a01b031661153a565b610351611543565b61035b6004803603602081101561076157600080fd5b50356001600160a01b03166115ca565b61035b6115dc565b6103e9611600565b6107b36004803603604081101561079757600080fd5b5080356001600160a01b0316906020013563ffffffff1661160f565b6040805163ffffffff909316835260208301919091528051918290030190f35b6103e961163c565b6040518060400160405280601081526020016f1d9950d4958b511053c81e55985d5b1d60821b81525081565b3360008181526004602090815260408083206001600160a01b038716808552908352818420869055815186815291519394909390927f8c5be1e5ebec7d5bd14f71427d1e84f3dd0314c0f7b2291e5b200ac8c7c3b925928290030190a35060015b92915050565b61087661164b565b6001600160a01b0381166000908152600560205260409020548015610969576001600160a01b0382166000908152600e602090815260408083208054600c54918290558251808401909352601d83527f76654352563a3a5f636c61696d466f723a20696e6465782064656c7461000000938301939093529192916108fb91849061177c565b90508015610962576000610921670de0b6b3a764000061091b8685611813565b9061186c565b6001600160a01b0386166000908152600f602052604090205490915061094790826118ae565b6001600160a01b0386166000908152600f6020526040902055505b5050610986565b600c546001600160a01b0383166000908152600e60205260409020555b5050565b60065481565b60005481565b6008546001600160a01b031633146109eb576040805162461bcd60e51b815260206004820152601360248201527239b2ba23b7bb32b93730b731b29d1010b3b7bb60691b604482015290519081900360640190fd5b600b80546001600160a01b0319166001600160a01b0392909216919091179055565b7f797cfab58fcb15f590eb8e4252d5c228ff88f94f907e119e80c4393a946e8f3581565b6009546001600160a01b03163314610a90576040805162461bcd60e51b815260206004820152601d60248201527f616363657074476f7665726e616e63653a202170656e64696e67476f76000000604482015290519081900360640190fd5b600954600880546001600160a01b0319166001600160a01b03909216919091179055565b6001600160a01b038316600081815260046020908152604080832033808552925282205491929091908214801590610aee57506000198114155b15610b7f576000610b1a856040518060600160405280602781526020016122ab6027913984919061177c565b6001600160a01b0380891660008181526004602090815260408083209489168084529482529182902085905581518581529151949550929391927f8c5be1e5ebec7d5bd14f71427d1e84f3dd0314c0f7b2291e5b200ac8c7c3b92592918290030190a3505b610b8a868686611908565b50600195945050505050565b600b546001600160a01b031681565b600c5481565b7f5fae9ec55a1e547936e0e74d606b44cd5f912f9adcd0bba561fea62d570259e981565b601281565b600d5481565b600f6020526000908152604090205481565b610bf533611ab2565b565b6001602052600090815260409020546001600160a01b031681565b6008546001600160a01b031681565b610c2b3382611bf4565b50565b60036020526000908152604090205463ffffffff1681565b6001600160a01b031660009081526005602052604090205490565b6000438210610ca8576040805162461bcd60e51b815260206004820152600e60248201526d33b2ba283934b7b92b37ba32b99d60911b604482015290519081900360640190fd5b6001600160a01b03831660009081526003602052604090205463ffffffff1680610cd6576000915050610868565b6001600160a01b038416600090815260026020908152604080832063ffffffff600019860181168552925290912054168310610d45576001600160a01b03841660009081526002602090815260408083206000199490940163ffffffff16835292905220600101549050610868565b6001600160a01b038416600090815260026020908152604080832083805290915290205463ffffffff16831015610d80576000915050610868565b600060001982015b8163ffffffff168163ffffffff161115610e3957600282820363ffffffff16048103610db2612272565b506001600160a01b038716600090815260026020908152604080832063ffffffff808616855290835292819020815180830190925280549093168082526001909301549181019190915290871415610e14576020015194506108689350505050565b805163ffffffff16871115610e2b57819350610e32565b6001820392505b5050610d88565b506001600160a01b038516600090815260026020908152604080832063ffffffff9094168352929052206001015491505092915050565b60076020526000908152604090205481565b73d533a949740bb3306d119cc777fa900ba034cd5281565b6040518060400160405280600a8152602001697976654352562d44414f60b01b81525081565b6008546001600160a01b03163314610f15576040805162461bcd60e51b815260206004820152601360248201527239b2ba23b7bb32b93730b731b29d1010b3b7bb60691b604482015290519081900360640190fd5b600a80546001600160a01b0319166001600160a01b0392909216919091179055565b736c3f90f043a72fa612cbac8115ee7e52bde6e49081565b610bf561164b565b73f147b8125d2ef93fb6965db97d6746952a13393481565b6000610f7c338484611908565b50600192915050565b6008546001600160a01b03163314610fda576040805162461bcd60e51b815260206004820152601360248201527239b2ba23b7bb32b93730b731b29d1010b3b7bb60691b604482015290519081900360640190fd5b600980546001600160a01b0319166001600160a01b0392909216919091179055565b6001600160a01b03811660009081526003602052604081205463ffffffff1680611027576000611059565b6001600160a01b038316600090815260026020908152604080832063ffffffff60001986011684529091529020600101545b9392505050565b610c2b81611c74565b604080517f1ac861a6a8532f3704e1768564a53a32774f00d6cf20ccbbdf60ab61378302bc6020808301919091526001600160a01b038916828401526060820188905260808083018890528351808403909101815260a08301845280519082012060065461190160f01b60c085015260c284015260e2808401829052845180850390910181526101028401808652815191840191909120600091829052610122850180875281905260ff891661014286015261016285018890526101828501879052945191949390926001926101a280840193601f198301929081900390910190855afa15801561115e573d6000803e3d6000fd5b5050604051601f1901519150506001600160a01b0381166111bb576040805162461bcd60e51b815260206004820152601260248201527164656c656761746542795369673a2073696760701b604482015290519081900360640190fd5b6001600160a01b03811660009081526007602052604090208054600181019091558814611226576040805162461bcd60e51b815260206004820152601460248201527364656c656761746542795369673a206e6f6e636560601b604482015290519081900360640190fd5b86421115611274576040805162461bcd60e51b815260206004820152601660248201527519195b1959d85d19509e54da59ce88195e1c1a5c995960521b604482015290519081900360640190fd5b61127e818a611bf4565b505050505050505050565b6001600160a01b0380881660008181526007602090815260408083208054600180820190925582517f5fae9ec55a1e547936e0e74d606b44cd5f912f9adcd0bba561fea62d570259e98186015280840196909652958c166060860152608085018b905260a085019590955260c08085018a90528151808603909101815260e08501825280519083012060065461190160f01b61010087015261010286015261012280860182905282518087039091018152610142860180845281519185019190912090859052610162860180845281905260ff8a166101828701526101a286018990526101c2860188905291519095919491926101e2808401939192601f1981019281900390910190855afa1580156113a6573d6000803e3d6000fd5b5050604051601f1901519150506001600160a01b038116611402576040805162461bcd60e51b81526020600482015260116024820152707065726d69743a207369676e617475726560781b604482015290519081900360640190fd5b896001600160a01b0316816001600160a01b03161461145f576040805162461bcd60e51b81526020600482015260146024820152731c195c9b5a5d0e881d5b985d5d1a1bdc9a5e995960621b604482015290519081900360640190fd5b864211156114a6576040805162461bcd60e51b815260206004820152600f60248201526e1c195c9b5a5d0e88195e1c1a5c9959608a1b604482015290519081900360640190fd5b6001600160a01b03808b166000818152600460209081526040808320948e16808452948252918290208c905581518c815291517f8c5be1e5ebec7d5bd14f71427d1e84f3dd0314c0f7b2291e5b200ac8c7c3b9259281900390910190a350505050505050505050565b6001600160a01b03918216600090815260046020908152604080832093909416825291909152205490565b610c2b81611ab2565b604080516370a0823160e01b81523360048201529051610bf59173d533a949740bb3306d119cc777fa900ba034cd52916370a0823191602480820192602092909190829003018186803b15801561159957600080fd5b505afa1580156115ad573d6000803e3d6000fd5b505050506040513d60208110156115c357600080fd5b5051611c74565b600e6020526000908152604090205481565b7f1ac861a6a8532f3704e1768564a53a32774f00d6cf20ccbbdf60ab61378302bc81565b600a546001600160a01b031681565b60026020908152600092835260408084209091529082529020805460019091015463ffffffff9091169082565b6009546001600160a01b031681565b60005415610bf55761165b611d8a565b604080516370a0823160e01b81523060048201529051600091736c3f90f043a72fa612cbac8115ee7e52bde6e490916370a0823191602480820192602092909190829003018186803b1580156116b057600080fd5b505afa1580156116c4573d6000803e3d6000fd5b505050506040513d60208110156116da57600080fd5b5051600d54909150811115610c2b576000611737600d546040518060400160405280601981526020017f76654352563a3a5f7570646174653a2062616c205f64696666000000000000008152508461177c9092919063ffffffff16565b9050801561098657600080546117599061091b84670de0b6b3a7640000611813565b9050801561177757600c5461176e90826118ae565b600c55600d8390555b505050565b6000818484111561180b5760405162461bcd60e51b81526004018080602001828103825283818151815260200191508051906020019080838360005b838110156117d05781810151838201526020016117b8565b50505050905090810190601f1680156117fd5780820380516001836020036101000a031916815260200191505b509250505060405180910390fd5b505050900390565b60008261182257506000610868565b8282028284828161182f57fe5b04146110595760405162461bcd60e51b815260040180806020018281038252602181526020018061228a6021913960400191505060405180910390fd5b600061105983836040518060400160405280601a81526020017f536166654d6174683a206469766973696f6e206279207a65726f000000000000815250611dfb565b600082820183811015611059576040805162461bcd60e51b815260206004820152601b60248201527f536166654d6174683a206164646974696f6e206f766572666c6f770000000000604482015290519081900360640190fd5b6001600160a01b038316611963576040805162461bcd60e51b815260206004820152601d60248201527f5f7472616e73666572546f6b656e733a207a65726f2061646472657373000000604482015290519081900360640190fd5b6001600160a01b0382166119be576040805162461bcd60e51b815260206004820152601d60248201527f5f7472616e73666572546f6b656e733a207a65726f2061646472657373000000604482015290519081900360640190fd5b6119c78361086e565b6119d08261086e565b60408051808201825260208082527f5f7472616e73666572546f6b656e733a20657863656564732062616c616e6365818301526001600160a01b038616600090815260059091529190912054611a2791839061177c565b6001600160a01b038085166000908152600560205260408082209390935590841681522054611a5690826118ae565b6001600160a01b0380841660008181526005602090815260409182902094909455805185815290519193928716927fddf252ad1be2c89b69c2b068fc378daa952ba7f163c4a11628f55a4df523b3ef92918290030190a3505050565b611abb8161086e565b6001600160a01b0381166000818152600f6020908152604080832054815163a9059cbb60e01b81526004810195909552602485015251736c3f90f043a72fa612cbac8115ee7e52bde6e4909363a9059cbb9360448083019493928390030190829087803b158015611b2b57600080fd5b505af1158015611b3f573d6000803e3d6000fd5b505050506040513d6020811015611b5557600080fd5b50506001600160a01b0381166000908152600f602090815260408083209290925581516370a0823160e01b81523060048201529151736c3f90f043a72fa612cbac8115ee7e52bde6e490926370a08231926024808301939192829003018186803b158015611bc257600080fd5b505afa158015611bd6573d6000803e3d6000fd5b505050506040513d6020811015611bec57600080fd5b5051600d5550565b6001600160a01b03808316600081815260016020818152604080842080546005845282862054949093528787166001600160a01b03198416811790915590519190951694919391928592917f3134e8a2e6d97e929a7e54011ea5485d7d196dd5f0ba4d4ef95803e8e3fc257f9190a4611c6e828483611e60565b50505050565b604080516323b872dd60e01b815233600482015273f147b8125d2ef93fb6965db97d6746952a133934602482015260448101839052905173d533a949740bb3306d119cc777fa900ba034cd52916323b872dd9160648083019260209291908290030181600087803b158015611ce857600080fd5b505af1158015611cfc573d6000803e3d6000fd5b505050506040513d6020811015611d1257600080fd5b50611d1f90503382611fde565b600a60009054906101000a90046001600160a01b03166001600160a01b031663f83d08ba6040518163ffffffff1660e01b8152600401600060405180830381600087803b158015611d6f57600080fd5b505af1158015611d83573d6000803e3d6000fd5b5050505050565b600b546001600160a01b031615610bf557600b5460408051630f41a04d60e11b815230600482015290516001600160a01b0390921691631e83409a9160248082019260009290919082900301818387803b158015611de757600080fd5b505af1158015611c6e573d6000803e3d6000fd5b60008183611e4a5760405162461bcd60e51b81526020600482018181528351602484015283519092839260449091019190850190808383600083156117d05781810151838201526020016117b8565b506000838581611e5657fe5b0495945050505050565b816001600160a01b0316836001600160a01b031614158015611e825750600081115b15611777576001600160a01b03831615611f4d576001600160a01b03831660009081526003602052604081205463ffffffff169081611ec2576000611ef4565b6001600160a01b038516600090815260026020908152604080832063ffffffff60001987011684529091529020600101545b90506000611f3b84604051806040016040528060168152602001755f6d6f7665566f7465733a20756e646572666c6f777360501b8152508461177c9092919063ffffffff16565b9050611f4986848484612092565b5050505b6001600160a01b03821615611777576001600160a01b03821660009081526003602052604081205463ffffffff169081611f88576000611fba565b6001600160a01b038416600090815260026020908152604080832063ffffffff60001987011684529091529020600101545b90506000611fc882856118ae565b9050611fd685848484612092565b505050505050565b611fe78261086e565b600054611ff490826118ae565b60009081556001600160a01b03831681526005602052604090205461201990826118ae565b6001600160a01b03831660008181526005602090815260408083209490945583518581529351929391927fddf252ad1be2c89b69c2b068fc378daa952ba7f163c4a11628f55a4df523b3ef9281900390910190a36001600160a01b03808316600090815260016020526040812054610986921683611e60565b60006120d3436040518060400160405280601981526020017f5f7772697465436865636b706f696e743a203332206269747300000000000000815250612214565b905060008463ffffffff1611801561211c57506001600160a01b038516600090815260026020908152604080832063ffffffff6000198901811685529252909120548282169116145b15612159576001600160a01b038516600090815260026020908152604080832063ffffffff600019890116845290915290206001018290556121ca565b60408051808201825263ffffffff808416825260208083018681526001600160a01b038a166000818152600284528681208b8616825284528681209551865490861663ffffffff19918216178755925160019687015590815260039092529390208054928801909116919092161790555b604080518481526020810184905281516001600160a01b038816927fdec2bacdd2f05b59de34da9b523dff8be42e5e38e818c82fdb0bae774387a724928290030190a25050505050565b600081640100000000841061226a5760405162461bcd60e51b81526020600482018181528351602484015283519092839260449091019190850190808383600083156117d05781810151838201526020016117b8565b509192915050565b60408051808201909152600080825260208201529056fe536166654d6174683a206d756c7469706c69636174696f6e206f766572666c6f777472616e7366657246726f6d3a2065786365656473207370656e64657220616c6c6f77616e6365a2646970667358221220b91a83a41da912670fcf8944ed0e7ca005c790447221dfff8e040f5feaf8090964736f6c634300060c0033",
  "linkReferences": {},
  "deployedLinkReferences": {}
}