{
  "_format": "hh-sol-artifact-1",
  "contractName": "Controller",
  "sourceName": "contracts/vendor/yearn/controllers/Controller.sol",
  "abi": [
    {
      "inputs": [
        {
          "internalType": "address",
          "name": "_rewards",
          "type": "address"
        }
      ],
      "stateMutability": "nonpayable",
      "type": "constructor"
    },
    {
      "inputs": [
        {
          "internalType": "address",
          "name": "_token",
          "type": "address"
        },
        {
          "internalType": "address",
          "name": "_strategy",
          "type": "address"
        }
      ],
      "name": "approveStrategy",
      "outputs": [],
      "stateMutability": "nonpayable",
      "type": "function"
    },
    {
      "inputs": [
        {
          "internalType": "address",
          "name": "",
          "type": "address"
        },
        {
          "internalType": "address",
          "name": "",
          "type": "address"
        }
      ],
      "name": "approvedStrategies",
      "outputs": [
        {
          "internalType": "bool",
          "name": "",
          "type": "bool"
        }
      ],
      "stateMutability": "view",
      "type": "function"
    },
    {
      "inputs": [
        {
          "internalType": "address",
          "name": "_token",
          "type": "address"
        }
      ],
      "name": "balanceOf",
      "outputs": [
        {
          "internalType": "uint256",
          "name": "",
          "type": "uint256"
        }
      ],
      "stateMutability": "view",
      "type": "function"
    },
    {
      "inputs": [
        {
          "internalType": "address",
          "name": "",
          "type": "address"
        },
        {
          "internalType": "address",
          "name": "",
          "type": "address"
        }
      ],
      "name": "converters",
      "outputs": [
        {
          "internalType": "address",
          "name": "",
          "type": "address"
        }
      ],
      "stateMutability": "view",
      "type": "function"
    },
    {
      "inputs": [
        {
          "internalType": "address",
          "name": "_token",
          "type": "address"
        },
        {
          "internalType": "uint256",
          "name": "_amount",
          "type": "uint256"
        }
      ],
      "name": "earn",
      "outputs": [],
      "stateMutability": "nonpayable",
      "type": "function"
    },
    {
      "inputs": [
        {
          "internalType": "address",
          "name": "_strategy",
          "type": "address"
        },
        {
          "internalType": "address",
          "name": "_token",
          "type": "address"
        },
        {
          "internalType": "uint256",
          "name": "parts",
          "type": "uint256"
        }
      ],
      "name": "getExpectedReturn",
      "outputs": [
        {
          "internalType": "uint256",
          "name": "expected",
          "type": "uint256"
        }
      ],
      "stateMutability": "view",
      "type": "function"
    },
    {
      "inputs": [],
      "name": "governance",
      "outputs": [
        {
          "internalType": "address",
          "name": "",
          "type": "address"
        }
      ],
      "stateMutability": "view",
      "type": "function"
    },
    {
      "inputs": [
        {
          "internalType": "address",
          "name": "_strategy",
          "type": "address"
        },
        {
          "internalType": "address",
          "name": "_token",
          "type": "address"
        }
      ],
      "name": "inCaseStrategyTokenGetStuck",
      "outputs": [],
      "stateMutability": "nonpayable",
      "type": "function"
    },
    {
      "inputs": [
        {
          "internalType": "address",
          "name": "_token",
          "type": "address"
        },
        {
          "internalType": "uint256",
          "name": "_amount",
          "type": "uint256"
        }
      ],
      "name": "inCaseTokensGetStuck",
      "outputs": [],
      "stateMutability": "nonpayable",
      "type": "function"
    },
    {
      "inputs": [],
      "name": "max",
      "outputs": [
        {
          "internalType": "uint256",
          "name": "",
          "type": "uint256"
        }
      ],
      "stateMutability": "view",
      "type": "function"
    },
    {
      "inputs": [],
      "name": "onesplit",
      "outputs": [
        {
          "internalType": "address",
          "name": "",
          "type": "address"
        }
      ],
      "stateMutability": "view",
      "type": "function"
    },
    {
      "inputs": [
        {
          "internalType": "address",
          "name": "_token",
          "type": "address"
        },
        {
          "internalType": "address",
          "name": "_strategy",
          "type": "address"
        }
      ],
      "name": "revokeStrategy",
      "outputs": [],
      "stateMutability": "nonpayable",
      "type": "function"
    },
    {
      "inputs": [],
      "name": "rewards",
      "outputs": [
        {
          "internalType": "address",
          "name": "",
          "type": "address"
        }
      ],
      "stateMutability": "view",
      "type": "function"
    },
    {
      "inputs": [
        {
          "internalType": "address",
          "name": "_input",
          "type": "address"
        },
        {
          "internalType": "address",
          "name": "_output",
          "type": "address"
        },
        {
          "internalType": "address",
          "name": "_converter",
          "type": "address"
        }
      ],
      "name": "setConverter",
      "outputs": [],
      "stateMutability": "nonpayable",
      "type": "function"
    },
    {
      "inputs": [
        {
          "internalType": "address",
          "name": "_governance",
          "type": "address"
        }
      ],
      "name": "setGovernance",
      "outputs": [],
      "stateMutability": "nonpayable",
      "type": "function"
    },
    {
      "inputs": [
        {
          "internalType": "address",
          "name": "_onesplit",
          "type": "address"
        }
      ],
      "name": "setOneSplit",
      "outputs": [],
      "stateMutability": "nonpayable",
      "type": "function"
    },
    {
      "inputs": [
        {
          "internalType": "address",
          "name": "_rewards",
          "type": "address"
        }
      ],
      "name": "setRewards",
      "outputs": [],
      "stateMutability": "nonpayable",
      "type": "function"
    },
    {
      "inputs": [
        {
          "internalType": "uint256",
          "name": "_split",
          "type": "uint256"
        }
      ],
      "name": "setSplit",
      "outputs": [],
      "stateMutability": "nonpayable",
      "type": "function"
    },
    {
      "inputs": [
        {
          "internalType": "address",
          "name": "_strategist",
          "type": "address"
        }
      ],
      "name": "setStrategist",
      "outputs": [],
      "stateMutability": "nonpayable",
      "type": "function"
    },
    {
      "inputs": [
        {
          "internalType": "address",
          "name": "_token",
          "type": "address"
        },
        {
          "internalType": "address",
          "name": "_strategy",
          "type": "address"
        }
      ],
      "name": "setStrategy",
      "outputs": [],
      "stateMutability": "nonpayable",
      "type": "function"
    },
    {
      "inputs": [
        {
          "internalType": "address",
          "name": "_token",
          "type": "address"
        },
        {
          "internalType": "address",
          "name": "_vault",
          "type": "address"
        }
      ],
      "name": "setVault",
      "outputs": [],
      "stateMutability": "nonpayable",
      "type": "function"
    },
    {
      "inputs": [],
      "name": "split",
      "outputs": [
        {
          "internalType": "uint256",
          "name": "",
          "type": "uint256"
        }
      ],
      "stateMutability": "view",
      "type": "function"
    },
    {
      "inputs": [
        {
          "internalType": "address",
          "name": "",
          "type": "address"
        }
      ],
      "name": "strategies",
      "outputs": [
        {
          "internalType": "address",
          "name": "",
          "type": "address"
        }
      ],
      "stateMutability": "view",
      "type": "function"
    },
    {
      "inputs": [],
      "name": "strategist",
      "outputs": [
        {
          "internalType": "address",
          "name": "",
          "type": "address"
        }
      ],
      "stateMutability": "view",
      "type": "function"
    },
    {
      "inputs": [
        {
          "internalType": "address",
          "name": "",
          "type": "address"
        }
      ],
      "name": "vaults",
      "outputs": [
        {
          "internalType": "address",
          "name": "",
          "type": "address"
        }
      ],
      "stateMutability": "view",
      "type": "function"
    },
    {
      "inputs": [
        {
          "internalType": "address",
          "name": "_token",
          "type": "address"
        },
        {
          "internalType": "uint256",
          "name": "_amount",
          "type": "uint256"
        }
      ],
      "name": "withdraw",
      "outputs": [],
      "stateMutability": "nonpayable",
      "type": "function"
    },
    {
      "inputs": [
        {
          "internalType": "address",
          "name": "_token",
          "type": "address"
        }
      ],
      "name": "withdrawAll",
      "outputs": [],
      "stateMutability": "nonpayable",
      "type": "function"
    },
    {
      "inputs": [
        {
          "internalType": "address",
          "name": "_strategy",
          "type": "address"
        },
        {
          "internalType": "address",
          "name": "_token",
          "type": "address"
        },
        {
          "internalType": "uint256",
          "name": "parts",
          "type": "uint256"
        }
      ],
      "name": "yearn",
      "outputs": [],
      "stateMutability": "nonpayable",
      "type": "function"
    }
  ],
  "bytecode": "0x60806040526101f460085534801561001657600080fd5b5060405161211e38038061211e8339818101604052602081101561003957600080fd5b5051600080546001600160a01b0319908116339081179092556001805482169092179091556002805482167350fda034c0ce7a8f7efdaebda7aa7ca21cc1267e179055600380546001600160a01b039093169290911691909117905561207a806100a46000396000f3fe608060405234801561001057600080fd5b50600436106101c45760003560e01c8063a1578b6a116100f9578063ccd0631811610097578063f3fef3a311610071578063f3fef3a314610592578063f712adbb146105be578063f7654176146105c6578063fa09e630146105ce576101c4565b8063ccd0631814610506578063e4f2494d1461053e578063ec38a8621461056c576101c4565b8063b02bf4b9116100d3578063b02bf4b91461045a578063c494448e14610486578063c6d758cb146104b4578063c7b9d530146104e0576101c4565b8063a1578b6a146103cc578063a622ee7c1461040e578063ab033ea914610434576101c4565b80636ac5db1911610166578063714ccf7b11610140578063714ccf7b1461034257806372cb5d97146103705780638da1df4d1461039e5780639ec5a894146103c4576101c4565b80636ac5db19146102cc5780636dcd64e5146102e657806370a082311461031c576101c4565b806339ebf823116101a257806339ebf82314610253578063590bbb60146102795780635aa6e675146102a7578063674e694f146102af576101c4565b806304209f48146101c9578063197baa6d146102015780631fe4a6861461022f575b600080fd5b6101ff600480360360608110156101df57600080fd5b506001600160a01b038135811691602081013590911690604001356105f4565b005b6101ff6004803603604081101561021757600080fd5b506001600160a01b0381358116916020013516610c0d565b610237610cda565b604080516001600160a01b039092168252519081900360200190f35b6102376004803603602081101561026957600080fd5b50356001600160a01b0316610ce9565b6101ff6004803603604081101561028f57600080fd5b506001600160a01b0381358116916020013516610d04565b610237610d82565b6101ff600480360360208110156102c557600080fd5b5035610d91565b6102d4610de3565b60408051918252519081900360200190f35b6102d4600480360360608110156102fc57600080fd5b506001600160a01b03813581169160208101359091169060400135610de9565b6102d46004803603602081101561033257600080fd5b50356001600160a01b0316611020565b6101ff6004803603604081101561035857600080fd5b506001600160a01b03813581169160200135166110a4565b6101ff6004803603604081101561038657600080fd5b506001600160a01b0381358116916020013516611189565b6101ff600480360360208110156103b457600080fd5b50356001600160a01b031661130e565b61023761137d565b6103fa600480360360408110156103e257600080fd5b506001600160a01b038135811691602001351661138c565b604080519115158252519081900360200190f35b6102376004803603602081101561042457600080fd5b50356001600160a01b03166113ac565b6101ff6004803603602081101561044a57600080fd5b50356001600160a01b03166113c7565b6101ff6004803603604081101561047057600080fd5b506001600160a01b038135169060200135611436565b6101ff6004803603604081101561049c57600080fd5b506001600160a01b0381358116916020013516611602565b6101ff600480360360408110156104ca57600080fd5b506001600160a01b038135169060200135611683565b6101ff600480360360208110156104f657600080fd5b50356001600160a01b03166116fd565b6101ff6004803603606081101561051c57600080fd5b506001600160a01b03813581169160208101358216916040909101351661176c565b6102376004803603604081101561055457600080fd5b506001600160a01b038135811691602001351661180b565b6101ff6004803603602081101561058257600080fd5b50356001600160a01b0316611831565b6101ff600480360360408110156105a857600080fd5b506001600160a01b0381351690602001356118a0565b61023761194e565b6102d461195d565b6101ff600480360360208110156105e457600080fd5b50356001600160a01b0316611963565b6001546001600160a01b031633148061061757506000546001600160a01b031633145b610656576040805162461bcd60e51b815260206004820152600b60248201526a21676f7665726e616e636560a81b604482015290519081900360640190fd5b6000826001600160a01b03166370a08231306040518263ffffffff1660e01b815260040180826001600160a01b0316815260200191505060206040518083038186803b1580156106a557600080fd5b505afa1580156106b9573d6000803e3d6000fd5b505050506040513d60208110156106cf57600080fd5b5051604080516351cff8d960e01b81526001600160a01b0386811660048301529151929350908616916351cff8d99160248082019260009290919082900301818387803b15801561071f57600080fd5b505af1158015610733573d6000803e3d6000fd5b505050506000836001600160a01b03166370a08231306040518263ffffffff1660e01b815260040180826001600160a01b0316815260200191505060206040518083038186803b15801561078657600080fd5b505afa15801561079a573d6000803e3d6000fd5b505050506040513d60208110156107b057600080fd5b5051905081811115610c065760006107c88284611a45565b90506000866001600160a01b0316631f1fcd516040518163ffffffff1660e01b815260040160206040518083038186803b15801561080557600080fd5b505afa158015610819573d6000803e3d6000fd5b505050506040513d602081101561082f57600080fd5b5051604080516370a0823160e01b815230600482015290519192506060916000916001600160a01b038516916370a0823191602480820192602092909190829003018186803b15801561088157600080fd5b505afa158015610895573d6000803e3d6000fd5b505050506040513d60208110156108ab57600080fd5b50516002549096506108cb906001600160a01b038a811691166000611aa7565b6002546108e5906001600160a01b038a8116911686611aa7565b6002546040805163085e2c5b60e01b81526001600160a01b038b81166004830152868116602483015260448201889052606482018b9052600060848301819052925193169263085e2c5b9260a480840193919291829003018186803b15801561094d57600080fd5b505afa158015610961573d6000803e3d6000fd5b505050506040513d6000823e601f3d908101601f19168201604090815281101561098a57600080fd5b8151602083018051604051929492938301929190846401000000008211156109b157600080fd5b9083019060208201858111156109c657600080fd5b82518660208202830111640100000000821117156109e357600080fd5b82525081516020918201928201910280838360005b83811015610a105781810151838201526020016109f8565b505050509050016040525050508093508192505050600260009054906101000a90046001600160a01b03166001600160a01b031663e2a7515e898587858760006040518763ffffffff1660e01b815260040180876001600160a01b03168152602001866001600160a01b0316815260200185815260200184815260200180602001838152602001828103825284818151815260200191508051906020019060200280838360005b83811015610acf578181015183820152602001610ab7565b50505050905001975050505050505050602060405180830381600087803b158015610af957600080fd5b505af1158015610b0d573d6000803e3d6000fd5b505050506040513d6020811015610b2357600080fd5b5050604080516370a0823160e01b815230600482015290516001600160a01b038516916370a08231916024808301926020929190829003018186803b158015610b6b57600080fd5b505afa158015610b7f573d6000803e3d6000fd5b505050506040513d6020811015610b9557600080fd5b5051945085851115610c0157610bab8587611a45565b93506000610bd0612710610bca60085488611bba90919063ffffffff16565b90611c1a565b9050610be584610be08784611a45565b611436565b600354610bff906001600160a01b03868116911683611c81565b505b505050505b5050505050565b6001546001600160a01b0316331480610c3057506000546001600160a01b031633145b610c6f576040805162461bcd60e51b815260206004820152600b60248201526a21676f7665726e616e636560a81b604482015290519081900360640190fd5b816001600160a01b03166351cff8d9826040518263ffffffff1660e01b815260040180826001600160a01b03168152602001915050600060405180830381600087803b158015610cbe57600080fd5b505af1158015610cd2573d6000803e3d6000fd5b505050505050565b6001546001600160a01b031681565b6005602052600090815260409020546001600160a01b031681565b6000546001600160a01b03163314610d51576040805162461bcd60e51b815260206004820152600b60248201526a21676f7665726e616e636560a81b604482015290519081900360640190fd5b6001600160a01b0391821660009081526007602090815260408083209390941682529190915220805460ff19169055565b6000546001600160a01b031681565b6000546001600160a01b03163314610dde576040805162461bcd60e51b815260206004820152600b60248201526a21676f7665726e616e636560a81b604482015290519081900360640190fd5b600855565b61271081565b600080836001600160a01b03166370a08231866040518263ffffffff1660e01b815260040180826001600160a01b0316815260200191505060206040518083038186803b158015610e3957600080fd5b505afa158015610e4d573d6000803e3d6000fd5b505050506040513d6020811015610e6357600080fd5b505160408051631f1fcd5160e01b815290519192506000916001600160a01b03881691631f1fcd51916004808301926020929190829003018186803b158015610eab57600080fd5b505afa158015610ebf573d6000803e3d6000fd5b505050506040513d6020811015610ed557600080fd5b50516002546040805163085e2c5b60e01b81526001600160a01b0389811660048301528085166024830152604482018790526064820189905260006084830181905292519495509092169263085e2c5b9260a4808201939291829003018186803b158015610f4257600080fd5b505afa158015610f56573d6000803e3d6000fd5b505050506040513d6000823e601f3d908101601f191682016040908152811015610f7f57600080fd5b815160208301805160405192949293830192919084640100000000821115610fa657600080fd5b908301906020820185811115610fbb57600080fd5b8251866020820283011164010000000082111715610fd857600080fd5b82525081516020918201928201910280838360005b83811015611005578181015183820152602001610fed565b50505050905001604052505050508093505050509392505050565b6001600160a01b03808216600090815260056020908152604080832054815163722713f760e01b815291519394169263722713f792600480840193919291829003018186803b15801561107257600080fd5b505afa158015611086573d6000803e3d6000fd5b505050506040513d602081101561109c57600080fd5b505192915050565b6001546001600160a01b03163314806110c757506000546001600160a01b031633145b611106576040805162461bcd60e51b815260206004820152600b60248201526a085cdd1c985d1959da5cdd60aa1b604482015290519081900360640190fd5b6001600160a01b03828116600090815260046020526040902054161561115b576040805162461bcd60e51b81526020600482015260056024820152641d985d5b1d60da1b604482015290519081900360640190fd5b6001600160a01b03918216600090815260046020526040902080546001600160a01b03191691909216179055565b6001546001600160a01b03163314806111ac57506000546001600160a01b031633145b6111eb576040805162461bcd60e51b815260206004820152600b60248201526a085cdd1c985d1959da5cdd60aa1b604482015290519081900360640190fd5b6001600160a01b0380831660009081526007602090815260408083209385168352929052205460ff161515600114611256576040805162461bcd60e51b815260206004820152600960248201526808585c1c1c9bdd995960ba1b604482015290519081900360640190fd5b6001600160a01b038083166000908152600560205260409020541680156112df57806001600160a01b031663853828b66040518163ffffffff1660e01b8152600401602060405180830381600087803b1580156112b257600080fd5b505af11580156112c6573d6000803e3d6000fd5b505050506040513d60208110156112dc57600080fd5b50505b506001600160a01b03918216600090815260056020526040902080546001600160a01b03191691909216179055565b6000546001600160a01b0316331461135b576040805162461bcd60e51b815260206004820152600b60248201526a21676f7665726e616e636560a81b604482015290519081900360640190fd5b600280546001600160a01b0319166001600160a01b0392909216919091179055565b6003546001600160a01b031681565b600760209081526000928352604080842090915290825290205460ff1681565b6004602052600090815260409020546001600160a01b031681565b6000546001600160a01b03163314611414576040805162461bcd60e51b815260206004820152600b60248201526a21676f7665726e616e636560a81b604482015290519081900360640190fd5b600080546001600160a01b0319166001600160a01b0392909216919091179055565b6001600160a01b038083166000908152600560209081526040808320548151631f1fcd5160e01b815291519416938492631f1fcd519260048082019391829003018186803b15801561148757600080fd5b505afa15801561149b573d6000803e3d6000fd5b505050506040513d60208110156114b157600080fd5b505190506001600160a01b0380821690851614611595576001600160a01b0380851660008181526006602090815260408083208686168452909152902054909116906114fe908286611c81565b806001600160a01b031663def2489b846040518263ffffffff1660e01b815260040180826001600160a01b03168152602001915050602060405180830381600087803b15801561154d57600080fd5b505af1158015611561573d6000803e3d6000fd5b505050506040513d602081101561157757600080fd5b5051935061158f6001600160a01b0383168486611c81565b506115a9565b6115a96001600160a01b0385168385611c81565b816001600160a01b031663d0e30db06040518163ffffffff1660e01b8152600401600060405180830381600087803b1580156115e457600080fd5b505af11580156115f8573d6000803e3d6000fd5b5050505050505050565b6000546001600160a01b0316331461164f576040805162461bcd60e51b815260206004820152600b60248201526a21676f7665726e616e636560a81b604482015290519081900360640190fd5b6001600160a01b0391821660009081526007602090815260408083209390941682529190915220805460ff19166001179055565b6001546001600160a01b03163314806116a657506000546001600160a01b031633145b6116e5576040805162461bcd60e51b815260206004820152600b60248201526a21676f7665726e616e636560a81b604482015290519081900360640190fd5b6116f96001600160a01b0383163383611c81565b5050565b6000546001600160a01b0316331461174a576040805162461bcd60e51b815260206004820152600b60248201526a21676f7665726e616e636560a81b604482015290519081900360640190fd5b600180546001600160a01b0319166001600160a01b0392909216919091179055565b6001546001600160a01b031633148061178f57506000546001600160a01b031633145b6117ce576040805162461bcd60e51b815260206004820152600b60248201526a085cdd1c985d1959da5cdd60aa1b604482015290519081900360640190fd5b6001600160a01b03928316600090815260066020908152604080832094861683529390529190912080546001600160a01b03191691909216179055565b60066020908152600092835260408084209091529082529020546001600160a01b031681565b6000546001600160a01b0316331461187e576040805162461bcd60e51b815260206004820152600b60248201526a21676f7665726e616e636560a81b604482015290519081900360640190fd5b600380546001600160a01b0319166001600160a01b0392909216919091179055565b6001600160a01b038281166000908152600460205260409020541633146118f7576040805162461bcd60e51b8152602060048201526006602482015265085d985d5b1d60d21b604482015290519081900360640190fd5b6001600160a01b03808316600090815260056020526040808220548151632e1a7d4d60e01b8152600481018690529151931692632e1a7d4d9260248084019391929182900301818387803b158015610cbe57600080fd5b6002546001600160a01b031681565b60085481565b6001546001600160a01b031633148061198657506000546001600160a01b031633145b6119c5576040805162461bcd60e51b815260206004820152600b60248201526a085cdd1c985d1959da5cdd60aa1b604482015290519081900360640190fd5b6001600160a01b03808216600090815260056020908152604080832054815163429c145b60e11b8152915194169363853828b693600480840194938390030190829087803b158015611a1657600080fd5b505af1158015611a2a573d6000803e3d6000fd5b505050506040513d6020811015611a4057600080fd5b505050565b600082821115611a9c576040805162461bcd60e51b815260206004820152601e60248201527f536166654d6174683a207375627472616374696f6e206f766572666c6f770000604482015290519081900360640190fd5b508082035b92915050565b801580611b2d575060408051636eb1769f60e11b81523060048201526001600160a01b03848116602483015291519185169163dd62ed3e91604480820192602092909190829003018186803b158015611aff57600080fd5b505afa158015611b13573d6000803e3d6000fd5b505050506040513d6020811015611b2957600080fd5b5051155b611b685760405162461bcd60e51b815260040180806020018281038252603681526020018061200f6036913960400191505060405180910390fd5b604080516001600160a01b038416602482015260448082018490528251808303909101815260649091019091526020810180516001600160e01b031663095ea7b360e01b179052611a40908490611ccf565b600082611bc957506000611aa1565b82820282848281611bd657fe5b0414611c135760405162461bcd60e51b8152600401808060200182810382526021815260200180611fc46021913960400191505060405180910390fd5b9392505050565b6000808211611c70576040805162461bcd60e51b815260206004820152601a60248201527f536166654d6174683a206469766973696f6e206279207a65726f000000000000604482015290519081900360640190fd5b818381611c7957fe5b049392505050565b604080516001600160a01b038416602482015260448082018490528251808303909101815260649091019091526020810180516001600160e01b031663a9059cbb60e01b179052611a409084905b6060611d24826040518060400160405280602081526020017f5361666545524332303a206c6f772d6c6576656c2063616c6c206661696c6564815250856001600160a01b0316611d809092919063ffffffff16565b805190915015611a4057808060200190516020811015611d4357600080fd5b5051611a405760405162461bcd60e51b815260040180806020018281038252602a815260200180611fe5602a913960400191505060405180910390fd5b6060611d8f8484600085611d97565b949350505050565b606082471015611dd85760405162461bcd60e51b8152600401808060200182810382526026815260200180611f9e6026913960400191505060405180910390fd5b611de185611ef3565b611e32576040805162461bcd60e51b815260206004820152601d60248201527f416464726573733a2063616c6c20746f206e6f6e2d636f6e7472616374000000604482015290519081900360640190fd5b60006060866001600160a01b031685876040518082805190602001908083835b60208310611e715780518252601f199092019160209182019101611e52565b6001836020036101000a03801982511681845116808217855250505050505090500191505060006040518083038185875af1925050503d8060008114611ed3576040519150601f19603f3d011682016040523d82523d6000602084013e611ed8565b606091505b5091509150611ee8828286611ef9565b979650505050505050565b3b151590565b60608315611f08575081611c13565b825115611f185782518084602001fd5b8160405162461bcd60e51b81526004018080602001828103825283818151815260200191508051906020019080838360005b83811015611f62578181015183820152602001611f4a565b50505050905090810190601f168015611f8f5780820380516001836020036101000a031916815260200191505b509250505060405180910390fdfe416464726573733a20696e73756666696369656e742062616c616e636520666f722063616c6c536166654d6174683a206d756c7469706c69636174696f6e206f766572666c6f775361666545524332303a204552433230206f7065726174696f6e20646964206e6f7420737563636565645361666545524332303a20617070726f76652066726f6d206e6f6e2d7a65726f20746f206e6f6e2d7a65726f20616c6c6f77616e6365a26469706673582212202d8ab9af23c63bfd03233846a1c4be5f09ea9c22f6555fad8fe75c517cf86e0864736f6c63430007000033",
  "linkReferences": {},
  "deployedLinkReferences": {}
}