{
  "address": "0xA4f2d1d823514B30B2CD57d273644c6AA7875c5E",
  "abi": [
    {
      "inputs": [],
      "name": "BURN_GAS_DIFF",
      "outputs": [
        {
          "internalType": "uint256",
          "name": "",
          "type": "uint256"
        }
      ],
      "stateMutability": "view",
      "type": "function"
    },
    {
      "inputs": [],
      "name": "REPAY_GAS_DIFF",
      "outputs": [
        {
          "internalType": "uint256",
          "name": "",
          "type": "uint256"
        }
      ],
      "stateMutability": "view",
      "type": "function"
    },
    {
      "inputs": [
        {
          "internalType": "address",
          "name": "to",
          "type": "address"
        },
        {
          "internalType": "address",
          "name": "asset",
          "type": "address"
        },
        {
          "internalType": "uint256",
          "name": "amount",
          "type": "uint256"
        },
        {
          "internalType": "uint256",
          "name": "deadline",
          "type": "uint256"
        },
        {
          "internalType": "bytes",
          "name": "data",
          "type": "bytes"
        },
        {
          "internalType": "bytes",
          "name": "destination",
          "type": "bytes"
        },
        {
          "internalType": "bytes",
          "name": "signature",
          "type": "bytes"
        }
      ],
      "name": "burn",
      "outputs": [
        {
          "internalType": "uint256",
          "name": "amountToBurn",
          "type": "uint256"
        }
      ],
      "stateMutability": "nonpayable",
      "type": "function"
    },
    {
      "inputs": [
        {
          "internalType": "address",
          "name": "from",
          "type": "address"
        },
        {
          "internalType": "address",
          "name": "asset",
          "type": "address"
        },
        {
          "internalType": "uint256",
          "name": "amount",
          "type": "uint256"
        },
        {
          "internalType": "uint256",
          "name": "minOut",
          "type": "uint256"
        },
        {
          "internalType": "bytes",
          "name": "destination",
          "type": "bytes"
        }
      ],
      "name": "burnApproved",
      "outputs": [
        {
          "internalType": "uint256",
          "name": "amountToBurn",
          "type": "uint256"
        }
      ],
      "stateMutability": "payable",
      "type": "function"
    },
    {
      "inputs": [
        {
          "internalType": "uint256",
          "name": "minOut",
          "type": "uint256"
        },
        {
          "internalType": "bytes",
          "name": "destination",
          "type": "bytes"
        }
      ],
      "name": "burnETH",
      "outputs": [
        {
          "internalType": "uint256",
          "name": "amountToBurn",
          "type": "uint256"
        }
      ],
      "stateMutability": "payable",
      "type": "function"
    },
    {
      "inputs": [],
      "name": "earn",
      "outputs": [],
      "stateMutability": "nonpayable",
      "type": "function"
    },
    {
      "inputs": [
        {
          "internalType": "address",
          "name": "underwriter",
          "type": "address"
        },
        {
          "internalType": "address",
          "name": "to",
          "type": "address"
        },
        {
          "internalType": "address",
          "name": "asset",
          "type": "address"
        },
        {
          "internalType": "uint256",
          "name": "amount",
          "type": "uint256"
        },
        {
          "internalType": "uint256",
          "name": "actualAmount",
          "type": "uint256"
        },
        {
          "internalType": "uint256",
          "name": "nonce",
          "type": "uint256"
        },
        {
          "internalType": "address",
          "name": "module",
          "type": "address"
        },
        {
          "internalType": "bytes32",
          "name": "nHash",
          "type": "bytes32"
        },
        {
          "internalType": "bytes",
          "name": "data",
          "type": "bytes"
        },
        {
          "internalType": "bytes",
          "name": "signature",
          "type": "bytes"
        }
      ],
      "name": "fallbackMint",
      "outputs": [],
      "stateMutability": "nonpayable",
      "type": "function"
    },
    {
      "inputs": [],
      "name": "fee",
      "outputs": [
        {
          "internalType": "uint256",
          "name": "",
          "type": "uint256"
        }
      ],
      "stateMutability": "view",
      "type": "function"
    },
    {
      "inputs": [],
      "name": "governance",
      "outputs": [
        {
          "internalType": "address",
          "name": "",
          "type": "address"
        }
      ],
      "stateMutability": "view",
      "type": "function"
    },
    {
      "inputs": [],
      "name": "governanceFee",
      "outputs": [
        {
          "internalType": "uint256",
          "name": "",
          "type": "uint256"
        }
      ],
      "stateMutability": "view",
      "type": "function"
    },
    {
      "inputs": [
        {
          "internalType": "address",
          "name": "_governance",
          "type": "address"
        },
        {
          "internalType": "address",
          "name": "_strategist",
          "type": "address"
        }
      ],
      "name": "initialize",
      "outputs": [],
      "stateMutability": "nonpayable",
      "type": "function"
    },
    {
      "inputs": [],
      "name": "keeperReward",
      "outputs": [
        {
          "internalType": "uint256",
          "name": "",
          "type": "uint256"
        }
      ],
      "stateMutability": "view",
      "type": "function"
    },
    {
      "inputs": [
        {
          "internalType": "address",
          "name": "",
          "type": "address"
        }
      ],
      "name": "nonces",
      "outputs": [
        {
          "internalType": "uint256",
          "name": "",
          "type": "uint256"
        }
      ],
      "stateMutability": "view",
      "type": "function"
    },
    {
      "inputs": [
        {
          "internalType": "address",
          "name": "",
          "type": "address"
        }
      ],
      "name": "noncesUsdc",
      "outputs": [
        {
          "internalType": "uint256",
          "name": "",
          "type": "uint256"
        }
      ],
      "stateMutability": "view",
      "type": "function"
    },
    {
      "inputs": [
        {
          "internalType": "address",
          "name": "underwriter",
          "type": "address"
        },
        {
          "internalType": "address",
          "name": "to",
          "type": "address"
        },
        {
          "internalType": "address",
          "name": "asset",
          "type": "address"
        },
        {
          "internalType": "uint256",
          "name": "amount",
          "type": "uint256"
        },
        {
          "internalType": "uint256",
          "name": "actualAmount",
          "type": "uint256"
        },
        {
          "internalType": "uint256",
          "name": "nonce",
          "type": "uint256"
        },
        {
          "internalType": "address",
          "name": "module",
          "type": "address"
        },
        {
          "internalType": "bytes32",
          "name": "nHash",
          "type": "bytes32"
        },
        {
          "internalType": "bytes",
          "name": "data",
          "type": "bytes"
        },
        {
          "internalType": "bytes",
          "name": "signature",
          "type": "bytes"
        }
      ],
      "name": "repay",
      "outputs": [
        {
          "internalType": "uint256",
          "name": "amountOut",
          "type": "uint256"
        }
      ],
      "stateMutability": "nonpayable",
      "type": "function"
    },
    {
      "inputs": [
        {
          "internalType": "address",
          "name": "_governance",
          "type": "address"
        }
      ],
      "name": "setGovernance",
      "outputs": [],
      "stateMutability": "nonpayable",
      "type": "function"
    },
    {
      "inputs": [
        {
          "internalType": "uint256",
          "name": "_governanceFee",
          "type": "uint256"
        },
        {
          "internalType": "uint256",
          "name": "_fee",
          "type": "uint256"
        },
        {
          "internalType": "uint256",
          "name": "_burnFee",
          "type": "uint256"
        },
        {
          "internalType": "uint256",
          "name": "_keeperReward",
          "type": "uint256"
        }
      ],
      "name": "setParameters",
      "outputs": [],
      "stateMutability": "nonpayable",
      "type": "function"
    },
    {
      "inputs": [
        {
          "internalType": "address",
          "name": "_strategist",
          "type": "address"
        }
      ],
      "name": "setStrategist",
      "outputs": [],
      "stateMutability": "nonpayable",
      "type": "function"
    },
    {
      "inputs": [],
      "name": "strategist",
      "outputs": [
        {
          "internalType": "address",
          "name": "",
          "type": "address"
        }
      ],
      "stateMutability": "view",
      "type": "function"
    },
    {
      "stateMutability": "payable",
      "type": "receive"
    }
  ],
  "transactionHash": "0xc0a05cab177c2e66279624d1816f7e106fec4b045e0f78c2e892dc6059f1f8ba",
  "args": [],
  "numDeployments": 2,
  "solcInputHash": "5e7f41ba476b5f2d424db7fb3e01178b",
  "bytecode": "0x608060405234801561001057600080fd5b5061480d806100206000396000f3fe6080604052600436106100e85760003560e01c8063056f4e18146100f45780630ea90a121461011f5780631fe4a686146101345780633816cbf3146101565780633b36c7f814610169578063485cc955146101895780635aa6e675146101ab5780636bc6f683146101c05780637ecebe00146101d3578063a9ec75f6146101f3578063ab033ea914610208578063b0a82ee814610228578063c7b9d5301461023d578063d389800f1461025d578063ddca3f4314610272578063e20d368214610287578063e4759b2f146102a7578063ee6a46dc146102c7578063fcd9da44146102e7576100ef565b366100ef57005b600080fd5b34801561010057600080fd5b50610109610307565b6040516101169190614119565b60405180910390f35b34801561012b57600080fd5b5061010961030d565b34801561014057600080fd5b50610149610313565b6040516101169190614122565b610109610164366004613fbd565b610322565b34801561017557600080fd5b50610109610184366004613cf3565b6103d8565b34801561019557600080fd5b506101a96101a4366004613cc1565b6107ea565b005b3480156101b757600080fd5b50610149610d1b565b6101096101ce366004613dbe565b610d2a565b3480156101df57600080fd5b506101096101ee366004613ca7565b610f9e565b3480156101ff57600080fd5b50610109610fb0565b34801561021457600080fd5b506101a9610223366004613ca7565b610fb6565b34801561023457600080fd5b50610109611002565b34801561024957600080fd5b506101a9610258366004613ca7565b611008565b34801561026957600080fd5b506101a9611054565b34801561027e57600080fd5b506101096111a2565b34801561029357600080fd5b506101096102a2366004613e2d565b6111a8565b3480156102b357600080fd5b506101a96102c2366004613cf3565b61198b565b3480156102d357600080fd5b506101096102e2366004613ca7565b611b04565b3480156102f357600080fd5b506101a9610302366004614001565b611b16565b61a22681565b60385481565b6037546001600160a01b031681565b60006103438361033e61033734603a54611b54565b3490611b79565b611bdb565b6040516338463cff60e01b81529091507305cadbf3128bcb7f2b89f3dd55e5b0a036a49e20906338463cff9061037f9085908590600401614314565b602060405180830381600087803b15801561039957600080fd5b505af11580156103ad573d6000803e3d6000fd5b505050506040513d601f19601f820116820180604052508101906103d19190613fa5565b5092915050565b60006102043611156104055760405162461bcd60e51b81526004016103fc906144b4565b60405180910390fd5b60005a9050610412613b79565b6001600160a01b0387166000805160206145dd833981519152148061044d57506001600160a01b0387166000805160206146c7833981519152145b8061047457506001600160a01b03871673c4e15973e6ff2a35cc804c2cf9d2a1b817a8b40f145b8061049557506001600160a01b03871660008051602061461f833981519152145b806104a757506001600160a01b038716155b6104c35760405162461bcd60e51b81526004016103fc90614443565b6040518061014001604052808d6001600160a01b031681526020018c6001600160a01b031681526020018981526020018b8152602001886001600160a01b031681526020018e6001600160a01b031681526020018681526020016001815260200160008152602001610533611d3b565b905285519091501561055957848060200190518101906105539190613fa5565b60e08201525b600061056482611d95565b90507305cadbf3128bcb7f2b89f3dd55e5b0a036a49e206001600160a01b031663159ab14d8360000151846040015185608001518660c001516040516020016105b094939291906141a3565b604051602081830303815290604052805190602001208c8a896040518563ffffffff1660e01b81526004016105e894939291906142ef565b602060405180830381600087803b15801561060257600080fd5b505af1158015610616573d6000803e3d6000fd5b505050506040513d601f19601f8201168201806040525081019061063a9190613fa5565b6101008301526001600160a01b0388166000805160206145dd83398151915214610726576001600160a01b03881615610703576001600160a01b0388166000805160206146c7833981519152146106e1576001600160a01b03881673c4e15973e6ff2a35cc804c2cf9d2a1b817a8b40f146106c4576106bf8261010001516001611e1b565b6106dc565b6106dc6106d78361010001516003611e34565b611e46565b6106fe565b6106fe8260e001516106f98461010001516001611e1b565b6120d3565b610721565b6107218260e0015161071b8461010001516001611e1b565b8f612329565b610740565b6107406107398361010001516001611e1b565b6001612491565b93506001600160a01b03881615610765576107656001600160a01b0389168e86612564565b326001600160a01b03166108fc6107b06107aa603b5461079e64062b85e9006107a489610120015161079e61a22661079e5a8f90611b79565b906125b6565b9061260e565b47612667565b6040518115909202916000818181858888f193505050501580156107d8573d6000803e3d6000fd5b505050509a9950505050505050505050565b600054610100900460ff1680610803575061080361267d565b80610811575060005460ff16155b61084c5760405162461bcd60e51b815260040180806020018281038252602e8152602001806146e7602e913960400191505060405180910390fd5b600054610100900460ff16158015610877576000805460ff1961ff0019909116610100171660011790555b6608e1bc9bf04000603555660e35fa931a0000603a556706f05b59d3b20000603855603680546001600160a01b038086166001600160a01b03199283161790925560378054928516929091169190911790556108dd670de0b6b3a76400006103e861268e565b603b5561090e60008051602061461f83398151915260008051602061463f8339815191526001600160fe1b036126f2565b61094273686bef2417b6dc32c50a3cbfbcc3bb60e1e9a15d60008051602061463f8339815191526001600160fe1b036126f2565b6109706000805160206145dd83398151915260008051602061463f8339815191526001600160fe1b036126f2565b6109aa73686bef2417b6dc32c50a3cbfbcc3bb60e1e9a15d73b755b949c126c04e0348dd881a5cf55d424742b26001600160fe1b036126f2565b6109de6000805160206145dd8339815191527360ae616a2155ee3d9a68541ba4544862310933d46001600160fe1b036126f2565b610a187349d5c2bdffac6ce2bfdb6640f4f80f226bc10bab73b755b949c126c04e0348dd881a5cf55d424742b26001600160fe1b036126f2565b610a527349d5c2bdffac6ce2bfdb6640f4f80f226bc10bab7360ae616a2155ee3d9a68541ba4544862310933d46001600160fe1b036126f2565b610a8c73b31f66aa3c1e785363f0875a1b74e27b85fd66c77360ae616a2155ee3d9a68541ba4544862310933d46001600160fe1b036126f2565b610ac6731337bedc9d22ecbe766df105c9623922a27963ec737f90122bf0700f9e7e1f688fe926940e8839f3536001600160fe1b036126f2565b610b00731337bedc9d22ecbe766df105c9623922a27963ec73b755b949c126c04e0348dd881a5cf55d424742b26001600160fe1b036126f2565b610b346000805160206146c7833981519152737f90122bf0700f9e7e1f688fe926940e8839f3536001600160fe1b036126f2565b610b6e73c2b1df84112619d190193e48148000e3990bf627736def55d2e18486b9ddfaa075bc4e4ee0b28c15456001600160fe1b036126f2565b6000805160206147828339815191527f98da2c5e4c6b1db946694570273b859a6e4083ccc8faa155edfc4c54eb3cfd7360008051602061465f833981519152610bb5612805565b6000805160206145dd833981519152604051602001610bd89594939291906142c3565b60408051601f198184030181529190528051602090910120603e556000805160206147828339815191527f52878b207aaddbfc15ea7bebcda681eb8ccd306e2227b61cef68505c8c05634160008051602061465f833981519152610c3a612805565b6000805160206146c7833981519152604051602001610c5d9594939291906142c3565b604051602081830303815290604052805190602001206040819055506000805160206147828339815191527f2ebd54194914126698f04c81e3945e63f9a04cb5b45eb55794ad7b23ebf8a0f760008051602061465f833981519152610cc0612805565b73c4e15973e6ff2a35cc804c2cf9d2a1b817a8b40f604051602001610ce99594939291906142c3565b60408051601f198184030181529190528051602090910120603f558015610d16576000805461ff00191690555b505050565b6036546001600160a01b031681565b60006001600160a01b0385166000805160206145dd8339815191521480610d6757506001600160a01b0385166000805160206146c7833981519152145b80610d8857506001600160a01b03851660008051602061461f833981519152145b80610d9a57506001600160a01b038516155b610db65760405162461bcd60e51b81526004016103fc90614443565b6001600160a01b03851615610e49576040516323b872dd60e01b81526001600160a01b038616906323b872dd90610df590339030908990600401614136565b602060405180830381600087803b158015610e0f57600080fd5b505af1158015610e23573d6000803e3d6000fd5b505050506040513d601f19601f82011682018060405250810190610e479190613f85565b505b6001600160a01b0385166000805160206145dd83398151915214610ee6576001600160a01b0385166000805160206146c783398151915214610ec2576001600160a01b03851660008051602061461f83398151915214610ebb57610eb68361033e61033734603a54611b54565b610ebd565b835b610ee1565b610ee183610edc610ed587603a54611b54565b8790611b79565b612809565b610f06565b610f06610eff610ef886603a54611b54565b8690611b79565b6001612a0f565b6040516338463cff60e01b81529091507305cadbf3128bcb7f2b89f3dd55e5b0a036a49e20906338463cff90610f429085908590600401614314565b602060405180830381600087803b158015610f5c57600080fd5b505af1158015610f70573d6000803e3d6000fd5b505050506040513d601f19601f82011682018060405250810190610f949190613fa5565b5095945050505050565b603c6020526000908152604090205481565b603b5481565b6036546001600160a01b03163314610fe05760405162461bcd60e51b81526004016103fc906143f4565b603680546001600160a01b0319166001600160a01b0392909216919091179055565b61a09e81565b6036546001600160a01b031633146110325760405162461bcd60e51b81526004016103fc906143f4565b603780546001600160a01b0319166001600160a01b0392909216919091179055565b61105c612a89565b6040516370a0823160e01b81526110e19060008051602061461f833981519152906370a0823190611091903090600401614122565b60206040518083038186803b1580156110a957600080fd5b505afa1580156110bd573d6000803e3d6000fd5b505050506040513d601f19601f820116820180604052508101906107399190613fa5565b506110ea612b78565b5047674563918244f4000081111561119f576000674563918244f4000082039050600061111982603854611b54565b6036546040519192506001600160a01b031690819083156108fc029084906000818181858888f19350505050158015611156573d6000803e3d6000fd5b506037546001600160a01b0316806108fc6111718686611b79565b6040518115909202916000818181858888f19350505050158015611199573d6000803e3d6000fd5b50505050505b50565b60355481565b60006102443611156111cc5760405162461bcd60e51b81526004016103fc906144b4565b6000604051806101e001604052808a6001600160a01b03168152602001896001600160a01b031681526020018881526020018781526020016000815260200186815260200160018152602001600081526020015a81526000602082018190526040820181905260608201819052608082015260a0810186905260c0018490529050611255611d3b565b61012082015260a08101515115611284578060a0015180602001905181019061127e9190613fa5565b60c08201525b806060015142106112a75760405162461bcd60e51b81526004016103fc90614491565b60208101516001600160a01b03166000805160206145dd83398151915214156113f4576001600160a01b03808a166000908152603c6020818152604080842054608087015285519094168352522080546001019055603e546113189061130d9083612d54565b826101c00151612deb565b6001600160a01b031681600001516001600160a01b03161461134c5760405162461bcd60e51b81526004016103fc9061446d565b80602001516001600160a01b03166323b872dd82600001513084604001516040518463ffffffff1660e01b815260040161138893929190614136565b602060405180830381600087803b1580156113a257600080fd5b505af11580156113b6573d6000803e3d6000fd5b505050506040513d601f19601f820116820180604052508101906113da9190613f85565b506113ed610eff82604001516001612e6b565b9150611887565b6001600160a01b03881673c4e15973e6ff2a35cc804c2cf9d2a1b817a8b40f1415611533576001600160a01b0389166000818152603c602081815260408320805460808701819052949093525260019091019055603f546114599061130d9083612d54565b6001600160a01b031681600001516001600160a01b03161461148d5760405162461bcd60e51b81526004016103fc9061446d565b80602001516001600160a01b03166323b872dd82600001513084604001516040518463ffffffff1660e01b81526004016114c993929190614136565b602060405180830381600087803b1580156114e357600080fd5b505af11580156114f7573d6000803e3d6000fd5b505050506040513d601f19601f8201168201806040525081019061151b9190613f85565b506113ed61152c8260400151612e7d565b6003613197565b60208101516001600160a01b031660008051602061461f833981519152141561172a5760208101518151604051623f675f60e91b81526001600160a01b0390921691637ecebe009161158791600401614122565b60206040518083038186803b15801561159f57600080fd5b505afa1580156115b3573d6000803e3d6000fd5b505050506040513d601f19601f820116820180604052508101906115d79190613fa5565b60808201526115e5816131a9565b60e08201526101c08101516115f990613230565b6101808401819052610160840182905260ff909216610140840181905260208401518451608086015160e08701516040516323f2ebc360e21b81526001600160a01b0390941696638fcbaf0c9661165c969495309560019390929160040161415a565b600060405180830381600087803b15801561167657600080fd5b505af115801561168a573d6000803e3d6000fd5b5050506020820151825160408085015190516323b872dd60e01b81526001600160a01b0390931693506323b872dd926116c892913091600401614136565b602060405180830381600087803b1580156116e257600080fd5b505af11580156116f6573d6000803e3d6000fd5b505050506040513d601f19601f8201168201806040525081019061171a9190613f85565b506113ed81604001516001612e6b565b60208101516001600160a01b03166000805160206146c7833981519152141561186f576001600160a01b03808a166000908152603d60208181526040808420546080870152855190941683525281902080546001019055546117909061130d9083612d54565b6001600160a01b031681600001516001600160a01b0316146117c45760405162461bcd60e51b81526004016103fc9061446d565b80602001516001600160a01b03166323b872dd82600001513084604001516040518463ffffffff1660e01b815260040161180093929190614136565b602060405180830381600087803b15801561181a57600080fd5b505af115801561182e573d6000803e3d6000fd5b505050506040513d601f19601f820116820180604052508101906118529190613f85565b506113ed6118688260c001518360400151612809565b6001612e6b565b60405162461bcd60e51b81526004016103fc90614419565b6101a08101516040516338463cff60e01b81527305cadbf3128bcb7f2b89f3dd55e5b0a036a49e20916338463cff916118c591908690600401614314565b602060405180830381600087803b1580156118df57600080fd5b505af11580156118f3573d6000803e3d6000fd5b505050506040513d601f19601f820116820180604052508101906119179190613fa5565b50326001600160a01b03166108fc6119566107aa603b5461079e64062b85e9006107a488610120015161079e61a09e61079e5a6101008e015190611b79565b6040518115909202916000818181858888f1935050505015801561197e573d6000803e3d6000fd5b5050979650505050505050565b60006040518061014001604052808b6001600160a01b031681526020018a6001600160a01b03168152602001878152602001898152602001866001600160a01b031681526020018c6001600160a01b031681526020018481526020016001815260200160008152602001600081525090506000611a0782611d95565b905060007305cadbf3128bcb7f2b89f3dd55e5b0a036a49e206001600160a01b031663159ab14d8460000151856040015186608001518760c00151604051602001611a5594939291906141a3565b604051602081830303815290604052805190602001208b89886040518563ffffffff1660e01b8152600401611a8d94939291906142ef565b602060405180830381600087803b158015611aa757600080fd5b505af1158015611abb573d6000803e3d6000fd5b505050506040513d601f19601f82011682018060405250810190611adf9190613fa5565b9050611af56001600160a01b038c168d83612564565b50505050505050505050505050565b603d6020526000908152604090205481565b6036546001600160a01b03163314611b405760405162461bcd60e51b81526004016103fc906143f4565b603893909355603591909155603a55603b55565b6000611b72670de0b6b3a7640000611b6c858561260e565b9061268e565b9392505050565b600082821115611bd0576040805162461bcd60e51b815260206004820152601e60248201527f536166654d6174683a207375627472616374696f6e206f766572666c6f770000604482015290519081900360640190fd5b508082035b92915050565b6040805160028082526060820183526000928392919060208301908036833701905050905073b31f66aa3c1e785363f0875a1b74e27b85fd66c781600081518110611c2257fe5b60200260200101906001600160a01b031690816001600160a01b0316815250506000805160206145dd83398151915281600181518110611c5e57fe5b6001600160a01b039092166020928302919091019091015260405163a2a1623d60e01b81526000907360ae616a2155ee3d9a68541ba4544862310933d49063a2a1623d908690611cbb9089908790309060014201906004016144df565b6000604051808303818588803b158015611cd457600080fd5b505af1158015611ce8573d6000803e3d6000fd5b50505050506040513d6000823e601f3d908101601f19168201604052611d119190810190613ee5565b9050611d3281600181518110611d2357fe5b60200260200101516001612a0f565b95945050505050565b6000611d92565b82811015611d8e57803560005b61010081108015611d655750600019811b821615155b15611d845760ff82821c1615611d7c576040860395505b600801611d4f565b5050602001611d42565b5050505b90565b600080611e127fdb76b3b6f252d5a7418b86aea25c87126f450d18491ccb7b8427fe0e9697a31c846020015185606001518660a00151876080015188604001518960c0015180519060200120604051602001611df79796959493929190614285565b6040516020818303038152906040528051906020012061328d565b9150505b919050565b6000611b72611e2d84603554856132d9565b8490611b79565b6000611b72611e2d8460355485613325565b6000611e50613bf0565b828152604051630b4c7e4d60e01b815260008051602061463f83398151915290630b4c7e4d90611e879084906000906004016141d6565b600060405180830381600087803b158015611ea157600080fd5b505af1158015611eb5573d6000803e3d6000fd5b50506040516370a0823160e01b8152736def55d2e18486b9ddfaa075bc4e4ee0b28c1545925063b6b55f25915073c2b1df84112619d190193e48148000e3990bf627906370a0823190611f0c903090600401614122565b60206040518083038186803b158015611f2457600080fd5b505afa158015611f38573d6000803e3d6000fd5b505050506040513d601f19601f82011682018060405250810190611f5c9190613fa5565b6040518263ffffffff1660e01b8152600401611f789190614119565b600060405180830381600087803b158015611f9257600080fd5b505af1158015611fa6573d6000803e3d6000fd5b50506040516370a0823160e01b81527341671ba1abcba387b9b2b752c205e22e916be6e3925063e6d37b889150600090736def55d2e18486b9ddfaa075bc4e4ee0b28c1545906370a0823190612000903090600401614122565b60206040518083038186803b15801561201857600080fd5b505afa15801561202c573d6000803e3d6000fd5b505050506040513d601f19601f820116820180604052508101906120509190613fa5565b604080516000815260208101918290526001600160e01b031960e086901b1690915261208192919060248101614382565b602060405180830381600087803b15801561209b57600080fd5b505af11580156120af573d6000803e3d6000fd5b505050506040513d601f19601f82011682018060405250810190611b729190613fa5565b6040516370a0823160e01b81526000908190731337bedc9d22ecbe766df105c9623922a27963ec906370a082319061210f903090600401614122565b60206040518083038186803b15801561212757600080fd5b505afa15801561213b573d6000803e3d6000fd5b505050506040513d601f19601f8201168201806040525081019061215f9190613fa5565b9050600061216e846000612491565b604051630b68372160e31b815290915073b755b949c126c04e0348dd881a5cf55d424742b290635b41b908906121b09060019060009086908390600401614359565b602060405180830381600087803b1580156121ca57600080fd5b505af11580156121de573d6000803e3d6000fd5b505050506040513d601f19601f820116820180604052508101906122029190613fa5565b506040516370a0823160e01b8152612296908390731337bedc9d22ecbe766df105c9623922a27963ec906370a0823190612240903090600401614122565b60206040518083038186803b15801561225857600080fd5b505afa15801561226c573d6000803e3d6000fd5b505050506040513d601f19601f820116820180604052508101906122909190613fa5565b90611b79565b60405163517a55a360e01b8152909250737f90122bf0700f9e7e1f688fe926940e8839f3539063517a55a3906122d790859060019081908190600401614569565b602060405180830381600087803b1580156122f157600080fd5b505af1158015612305573d6000803e3d6000fd5b505050506040513d601f19601f82011682018060405250810190611d329190613fa5565b600080612337846001612491565b60408051600280825260608201835292935060009290916020830190803683370190505090506000805160206145dd8339815191528160008151811061237957fe5b60200260200101906001600160a01b031690816001600160a01b03168152505073b31f66aa3c1e785363f0875a1b74e27b85fd66c7816001815181106123bb57fe5b6001600160a01b039092166020928302919091019091015260405163676528d160e01b81526000907360ae616a2155ee3d9a68541ba4544862310933d49063676528d1906124189086908b9087908b90600142019060040161452d565b600060405180830381600087803b15801561243257600080fd5b505af1158015612446573d6000803e3d6000fd5b505050506040513d6000823e601f3d908101601f1916820160405261246e9190810190613ee5565b90508060018151811061247d57fe5b602002602001015193505050509392505050565b6000811561252b57604051635320bf6b60e11b815260008051602061463f8339815191529063a6417ed6906124d29060019060009088908390600401614336565b602060405180830381600087803b1580156124ec57600080fd5b505af1158015612500573d6000803e3d6000fd5b505050506040513d601f19601f820116820180604052508101906125249190613fa5565b9050611bd5565b604051630f7c084960e21b815260008051602061463f83398151915290633df02124906120819060019060009088908390600401614336565b604080516001600160a01b038416602482015260448082018490528251808303909101815260649091019091526020810180516001600160e01b031663a9059cbb60e01b179052610d1690849061335e565b600082820183811015611b72576040805162461bcd60e51b815260206004820152601b60248201527a536166654d6174683a206164646974696f6e206f766572666c6f7760281b604482015290519081900360640190fd5b60008261261d57506000611bd5565b8282028284828161262a57fe5b0414611b725760405162461bcd60e51b81526004018080602001828103825260218152602001806147376021913960400191505060405180910390fd5b60008183106126765781611b72565b5090919050565b60006126883061340f565b15905090565b60008082116126e1576040805162461bcd60e51b815260206004820152601a602482015279536166654d6174683a206469766973696f6e206279207a65726f60301b604482015290519081900360640190fd5b8183816126ea57fe5b049392505050565b801580612778575060408051636eb1769f60e11b81523060048201526001600160a01b03848116602483015291519185169163dd62ed3e91604480820192602092909190829003018186803b15801561274a57600080fd5b505afa15801561275e573d6000803e3d6000fd5b505050506040513d602081101561277457600080fd5b5051155b6127b35760405162461bcd60e51b81526004018080602001828103825260368152602001806147a26036913960400191505060405180910390fd5b604080516001600160a01b038416602482015260448082018490528251808303909101815260649091019091526020810180516001600160e01b031663095ea7b360e01b179052610d1690849061335e565b4690565b6040516370a0823160e01b8152600090819073686bef2417b6dc32c50a3cbfbcc3bb60e1e9a15d906370a0823190612845903090600401614122565b60206040518083038186803b15801561285d57600080fd5b505afa158015612871573d6000803e3d6000fd5b505050506040513d601f19601f820116820180604052508101906128959190613fa5565b905061289f613c0e565b602081018490526040516315b74c9d60e11b8152737f90122bf0700f9e7e1f688fe926940e8839f35390632b6e993a906128e2908490600190819060040161420e565b602060405180830381600087803b1580156128fc57600080fd5b505af1158015612910573d6000803e3d6000fd5b505050506040513d601f19601f820116820180604052508101906129349190613fa5565b604051630b68372160e31b815290935073b755b949c126c04e0348dd881a5cf55d424742b290635b41b908906129769060009060019088908290600401614359565b602060405180830381600087803b15801561299057600080fd5b505af11580156129a4573d6000803e3d6000fd5b505050506040513d601f19601f820116820180604052508101906129c89190613fa5565b506040516370a0823160e01b8152612a0690839073686bef2417b6dc32c50a3cbfbcc3bb60e1e9a15d906370a0823190612240903090600401614122565b9150611d328260005b60008115612a5057604051635320bf6b60e11b815260008051602061463f8339815191529063a6417ed6906124d29060009060019088908290600401614336565b604051630f7c084960e21b815260008051602061463f83398151915290633df02124906120819060009060019088908290600401614336565b600080612acd739ad6c38be94206ca50bb0d90783181662f0cfa1073b31f66aa3c1e785363f0875a1b74e27b85fd66c76000805160206145dd833981519152613415565b604051635e0d443f60e01b8152919350915060009060008051602061463f83398151915290635e0d443f90612b13906001908590670de0b6b3a7640000906004016143d6565b60206040518083038186803b158015612b2b57600080fd5b505afa158015612b3f573d6000803e3d6000fd5b505050506040513d601f19601f82011682018060405250810190612b639190613fa5565b9050612b708183856134dc565b603955505050565b6040516370a0823160e01b815260009081906000805160206145dd833981519152906370a0823190612bae903090600401614122565b60206040518083038186803b158015612bc657600080fd5b505afa158015612bda573d6000803e3d6000fd5b505050506040513d601f19601f82011682018060405250810190612bfe9190613fa5565b60408051600280825260608201835292935060009290916020830190803683370190505090506000805160206145dd83398151915281600081518110612c4057fe5b60200260200101906001600160a01b031690816001600160a01b03168152505073b31f66aa3c1e785363f0875a1b74e27b85fd66c781600181518110612c8257fe5b6001600160a01b039092166020928302919091019091015260405163676528d160e01b81526000907360ae616a2155ee3d9a68541ba4544862310933d49063676528d190612cdf908690600190879030904284019060040161452d565b600060405180830381600087803b158015612cf957600080fd5b505af1158015612d0d573d6000803e3d6000fd5b505050506040513d6000823e601f3d908101601f19168201604052612d359190810190613ee5565b905080600181518110612d4457fe5b6020026020010151935050505090565b6000827fea2aa0a1be11a07ed86d755c93467f4f82362b452371d1ba94d1715123511acb60001b8360000151308560800151612d8f876131a9565b6001604051602001612da69695949392919061424f565b60405160208183030381529060405280519060200120604051602001612dcd9291906140fe565b60405160208183030381529060405280519060200120905092915050565b60008151604114612e43576040805162461bcd60e51b815260206004820152601f60248201527f45434453413a20696e76616c6964207369676e6174757265206c656e67746800604482015290519081900360640190fd5b60208201516040830151606084015160001a612e6186828585613598565b9695505050505050565b6000611b72611e2d84603a54856132d9565b6040516370a0823160e01b8152600090819060008051602061461f833981519152906370a0823190612eb3903090600401614122565b60206040518083038186803b158015612ecb57600080fd5b505afa158015612edf573d6000803e3d6000fd5b505050506040513d601f19601f82011682018060405250810190612f039190613fa5565b604051637cbc237360e01b81529091507341671ba1abcba387b9b2b752c205e22e916be6e390637cbc237390612f40906000908790600401614374565b602060405180830381600087803b158015612f5a57600080fd5b505af1158015612f6e573d6000803e3d6000fd5b505050506040513d601f19601f82011682018060405250810190612f929190613fa5565b506040516370a0823160e01b8152736def55d2e18486b9ddfaa075bc4e4ee0b28c154590632e1a7d4d9082906370a0823190612fd2903090600401614122565b60206040518083038186803b158015612fea57600080fd5b505afa158015612ffe573d6000803e3d6000fd5b505050506040513d601f19601f820116820180604052508101906130229190613fa5565b6040518263ffffffff1660e01b815260040161303e9190614119565b600060405180830381600087803b15801561305857600080fd5b505af115801561306c573d6000803e3d6000fd5b50506040516370a0823160e01b815260008051602061463f8339815191529250631a4d01d2915073c2b1df84112619d190193e48148000e3990bf627906370a08231906130bd903090600401614122565b60206040518083038186803b1580156130d557600080fd5b505afa1580156130e9573d6000803e3d6000fd5b505050506040513d601f19601f8201168201806040525081019061310d9190613fa5565b6000806040518463ffffffff1660e01b815260040161312e93929190614514565b600060405180830381600087803b15801561314857600080fd5b505af115801561315c573d6000803e3d6000fd5b50506040516370a0823160e01b8152611b72925083915060008051602061461f833981519152906370a0823190612240903090600401614122565b6000611b72611e2d84603a5485613325565b6020808201516040808401516060850151608086015160a08701516101a088015194516000976131db979691016140a1565b6040516020818303038152906040528051906020012060001c90505b42811015611e1657806040516020016132109190614119565b6040516020818303038152906040528051906020012060001c90506131f7565b600080600083516041141561325b5750505060208101516040820151606083015160001a9190613286565b835160401415613286575050506020810151604082015160ff81901c601b0191906001600160ff1b03165b9193909250565b60006132976136fe565b82604051602001808061190160f01b81525060020183815260200182815260200192505050604051602081830303815290604052805190602001209050919050565b600061331d6132e88585611b54565b61079e61331261330864062b85e900603b5461268e90919063ffffffff16565b6212ebc0906125b6565b64062b85e90061372c565b949350505050565b600061331d6133348585611b54565b61079e61331261335464062b85e900603b5461268e90919063ffffffff16565b620aae60906125b6565b60006133b3826040518060400160405280602081526020017f5361666545524332303a206c6f772d6c6576656c2063616c6c206661696c6564815250856001600160a01b03166137539092919063ffffffff16565b805190915015610d16578080602001905160208110156133d257600080fd5b5051610d165760405162461bcd60e51b815260040180806020018281038252602a815260200180614758602a913960400191505060405180910390fd5b3b151590565b60008060006134248585613762565b509050600080613435888888613851565b6001600160a01b0316630902f1ac6040518163ffffffff1660e01b815260040160606040518083038186803b15801561346d57600080fd5b505afa158015613481573d6000803e3d6000fd5b505050506040513d606081101561349757600080fd5b5080516020909101516001600160701b0391821693501690506001600160a01b03878116908416146134ca5780826134cd565b81815b90999098509650505050505050565b6000808411613532576040805162461bcd60e51b815260206004820152601f60248201527f4a6f654c6962726172793a20494e53554646494349454e545f414d4f554e5400604482015290519081900360640190fd5b6000831180156135425750600082115b61357d5760405162461bcd60e51b81526004018080602001828103825260228152602001806145fd6022913960400191505060405180910390fd5b82613588858461260e565b8161358f57fe5b04949350505050565b60006fa2a8918ca85bafe22016d0b997e4df60600160ff1b038211156135ef5760405162461bcd60e51b815260040180806020018281038252602281526020018061467f6022913960400191505060405180910390fd5b8360ff16601b148061360457508360ff16601c145b61363f5760405162461bcd60e51b81526004018080602001828103825260228152602001806147156022913960400191505060405180910390fd5b600060018686868660405160008152602001604052604051808581526020018460ff1681526020018381526020018281526020019450505050506020604051602081039080840390855afa15801561369b573d6000803e3d6000fd5b5050604051601f1901519150506001600160a01b038116611d32576040805162461bcd60e51b815260206004820152601860248201527745434453413a20696e76616c6964207369676e617475726560401b604482015290519081900360640190fd5b600061372760008051602061478283398151915261371a61390c565b613722613912565b613918565b905090565b6000611b72670de0b6b3a7640000611b6c6039546107a4868861260e90919063ffffffff16565b606061331d848460008561397a565b600080826001600160a01b0316846001600160a01b031614156137cc576040805162461bcd60e51b815260206004820152601f60248201527f4a6f654c6962726172793a204944454e544943414c5f41444452455353455300604482015290519081900360640190fd5b826001600160a01b0316846001600160a01b0316106137ec5782846137ef565b83835b90925090506001600160a01b03821661384a576040805162461bcd60e51b81526020600482015260186024820152774a6f654c6962726172793a205a45524f5f4144445245535360401b604482015290519081900360640190fd5b9250929050565b60008060006138608585613762565b604080516001600160601b0319606094851b811660208084019190915293851b81166034830152825160288184030181526048830184528051908501206001600160f81b031960688401529a90941b9093166069840152607d8301989098527f0bbca9af0511ad1a1da383135cf3a8d2ac620e549ef9f6ae3a4c33c2fed0af91609d808401919091528851808403909101815260bd909201909752805196019590952095945050505050565b60015490565b60025490565b6000838383613925612805565b3060405160200180868152602001858152602001848152602001838152602001826001600160a01b03168152602001955050505050506040516020818303038152906040528051906020012090509392505050565b6060824710156139bb5760405162461bcd60e51b81526004018080602001828103825260268152602001806146a16026913960400191505060405180910390fd5b6139c48561340f565b613a15576040805162461bcd60e51b815260206004820152601d60248201527f416464726573733a2063616c6c20746f206e6f6e2d636f6e7472616374000000604482015290519081900360640190fd5b600080866001600160a01b031685876040518082805190602001908083835b60208310613a535780518252601f199092019160209182019101613a34565b6001836020036101000a03801982511681845116808217855250505050505090500191505060006040518083038185875af1925050503d8060008114613ab5576040519150601f19603f3d011682016040523d82523d6000602084013e613aba565b606091505b5091509150613aca828286613ad5565b979650505050505050565b60608315613ae4575081611b72565b825115613af45782518084602001fd5b8160405162461bcd60e51b81526004018080602001828103825283818151815260200191508051906020019080838360005b83811015613b3e578181015183820152602001613b26565b50505050905090810190601f168015613b6b5780820380516001836020036101000a031916815260200191505b509250505060405180910390fd5b60405180610140016040528060006001600160a01b0316815260200160006001600160a01b03168152602001600081526020016000815260200160006001600160a01b0316815260200160006001600160a01b03168152602001606081526020016000815260200160008152602001600081525090565b60405180604001604052806002906020820280368337509192915050565b60405180606001604052806003906020820280368337509192915050565b80356001600160a01b0381168114611e1657600080fd5b600082601f830112613c53578081fd5b81356001600160401b03811115613c6657fe5b613c79601f8201601f1916602001614589565b818152846020838601011115613c8d578283fd5b816020850160208301379081016020019190915292915050565b600060208284031215613cb8578081fd5b611b7282613c2c565b60008060408385031215613cd3578081fd5b613cdc83613c2c565b9150613cea60208401613c2c565b90509250929050565b6000806000806000806000806000806101408b8d031215613d12578586fd5b613d1b8b613c2c565b9950613d2960208c01613c2c565b9850613d3760408c01613c2c565b975060608b0135965060808b0135955060a08b01359450613d5a60c08c01613c2c565b935060e08b013592506101008b01356001600160401b0380821115613d7d578384fd5b613d898e838f01613c43565b93506101208d0135915080821115613d9f578283fd5b50613dac8d828e01613c43565b9150509295989b9194979a5092959850565b600080600080600060a08688031215613dd5578081fd5b613dde86613c2c565b9450613dec60208701613c2c565b9350604086013592506060860135915060808601356001600160401b03811115613e14578182fd5b613e2088828901613c43565b9150509295509295909350565b600080600080600080600060e0888a031215613e47578283fd5b613e5088613c2c565b9650613e5e60208901613c2c565b9550604088013594506060880135935060808801356001600160401b0380821115613e87578485fd5b613e938b838c01613c43565b945060a08a0135915080821115613ea8578384fd5b613eb48b838c01613c43565b935060c08a0135915080821115613ec9578283fd5b50613ed68a828b01613c43565b91505092959891949750929550565b60006020808385031215613ef7578182fd5b82516001600160401b0380821115613f0d578384fd5b818501915085601f830112613f20578384fd5b815181811115613f2c57fe5b8381029150613f3c848301614589565b8181528481019084860184860187018a1015613f56578788fd5b8795505b83861015613f78578051835260019590950194918601918601613f5a565b5098975050505050505050565b600060208284031215613f96578081fd5b81518015158114611b72578182fd5b600060208284031215613fb6578081fd5b5051919050565b60008060408385031215613fcf578182fd5b8235915060208301356001600160401b03811115613feb578182fd5b613ff785828601613c43565b9150509250929050565b60008060008060808587031215614016578384fd5b5050823594602084013594506040840135936060013592509050565b6000815180845260208085019450808401835b8381101561406a5781516001600160a01b031687529582019590820190600101614045565b509495945050505050565b6000815180845261408d8160208601602086016145ac565b601f01601f19169290920160200192915050565b600060018060601b03198860601b16825286601483015285603483015284605483015283516140d78160748501602088016145ac565b8351908301906140ee8160748401602088016145ac565b0160740198975050505050505050565b61190160f01b81526002810192909252602282015260420190565b90815260200190565b6001600160a01b0391909116815260200190565b6001600160a01b039384168152919092166020820152604081019190915260600190565b6001600160a01b039889168152969097166020870152604086019490945260608501929092521515608084015260ff1660a083015260c082015260e08101919091526101000190565b6001600160a01b0385811682526020820185905283166040820152608060608201819052600090612e6190830184614075565b60608101818460005b60028110156141fe5781518352602092830192909101906001016141df565b5050508260408301529392505050565b60a08101818560005b6003811015614236578151835260209283019290910190600101614217565b5050508360608301528215156080830152949350505050565b9586526001600160a01b03948516602087015292909316604085015260608401526080830191909152151560a082015260c00190565b9687526001600160a01b03958616602088015260408701949094529184166060860152909216608084015260a083019190915260c082015260e00190565b9485526020850193909352604084019190915260608301526001600160a01b0316608082015260a00190565b600085825284602083015283604083015260806060830152612e616080830184614075565b6000604082526143276040830185614075565b90508260208301529392505050565b600f94850b81529290930b60208301526040820152606081019190915260800190565b93845260208401929092526040830152606082015260800190565b918252602082015260400190565b60006060820185835260208581850152606060408501528185518084526080860191508287019350845b818110156143c8578451835293830193918301916001016143ac565b509098975050505050505050565b600f93840b81529190920b6020820152604081019190915260600190565b6020808252600b908201526a21676f7665726e616e636560a81b604082015260600190565b60208082526010908201526f085cdd5c1c1bdc9d19590b585cdcd95d60821b604082015260600190565b60208082526010908201526f21617070726f7665642d6d6f64756c6560801b604082015260600190565b6020808252600a9082015269217369676e617475726560b01b604082015260600190565b60208082526009908201526821646561646c696e6560b81b604082015260600190565b602080825260119082015270746f6f206d7563682063616c6c6461746160781b604082015260600190565b6000858252608060208301526144f86080830186614032565b6001600160a01b03949094166040830152506060015292915050565b928352600f9190910b6020830152604082015260600190565b600086825285602083015260a0604083015261454c60a0830186614032565b6001600160a01b0394909416606083015250608001529392505050565b938452600f9290920b602084015260408301521515606082015260800190565b6040518181016001600160401b03811182821017156145a457fe5b604052919050565b60005b838110156145c75781810151838201526020016145af565b838111156145d6576000848401525b5050505056fe00000000000000000000000050b7545627a5162f82a992c33b87adc75187b2184a6f654c6962726172793a20494e53554646494349454e545f4c4951554944495459000000000000000000000000dbf31df14b66535af65aac99c32e9ea844e1450100000000000000000000000016a7da911a4dd1d83f3ff066fe28f3c792c50d90c89efdaa54c0f20c7adf612882df0950f5a951637e0307cdcb4c672f298b8bc645434453413a20696e76616c6964207369676e6174757265202773272076616c7565416464726573733a20696e73756666696369656e742062616c616e636520666f722063616c6c000000000000000000000000a7d7079b0fead91f3e65f86e8915cb59c1a4c664496e697469616c697a61626c653a20636f6e747261637420697320616c726561647920696e697469616c697a656445434453413a20696e76616c6964207369676e6174757265202776272076616c7565536166654d6174683a206d756c7469706c69636174696f6e206f766572666c6f775361666545524332303a204552433230206f7065726174696f6e20646964206e6f7420737563636565648b73c3c69bb8fe3d512ecc4cf759cc79239f7b179b0ffacaa9a75d522b39400f5361666545524332303a20617070726f76652066726f6d206e6f6e2d7a65726f20746f206e6f6e2d7a65726f20616c6c6f77616e6365a26469706673582212205b29b914ce7f0530d8d7c4df044fe8f8b22b1f345896e47236ed0553c25a4b1d64736f6c63430007060033",
  "libraries": {},
  "devdoc": {
    "kind": "dev",
    "methods": {},
    "version": 1
  },
  "userdoc": {
    "kind": "user",
    "methods": {},
    "version": 1
  },
  "storageLayout": {
    "storage": [
      {
        "astId": 652,
        "contract": "contracts/controllers/BadgerBridgeZeroControllerAvax.sol:BadgerBridgeZeroControllerAvax",
        "label": "_initialized",
        "offset": 0,
        "slot": "0",
        "type": "t_bool"
      },
      {
        "astId": 655,
        "contract": "contracts/controllers/BadgerBridgeZeroControllerAvax.sol:BadgerBridgeZeroControllerAvax",
        "label": "_initializing",
        "offset": 1,
        "slot": "0",
        "type": "t_bool"
      },
      {
        "astId": 138,
        "contract": "contracts/controllers/BadgerBridgeZeroControllerAvax.sol:BadgerBridgeZeroControllerAvax",
        "label": "_HASHED_NAME",
        "offset": 0,
        "slot": "1",
        "type": "t_bytes32"
      },
      {
        "astId": 140,
        "contract": "contracts/controllers/BadgerBridgeZeroControllerAvax.sol:BadgerBridgeZeroControllerAvax",
        "label": "_HASHED_VERSION",
        "offset": 0,
        "slot": "2",
        "type": "t_bytes32"
      },
      {
        "astId": 289,
        "contract": "contracts/controllers/BadgerBridgeZeroControllerAvax.sol:BadgerBridgeZeroControllerAvax",
        "label": "__gap",
        "offset": 0,
        "slot": "3",
        "type": "t_array(t_uint256)50_storage"
      },
      {
        "astId": 10640,
        "contract": "contracts/controllers/BadgerBridgeZeroControllerAvax.sol:BadgerBridgeZeroControllerAvax",
        "label": "fee",
        "offset": 0,
        "slot": "53",
        "type": "t_uint256"
      },
      {
        "astId": 10642,
        "contract": "contracts/controllers/BadgerBridgeZeroControllerAvax.sol:BadgerBridgeZeroControllerAvax",
        "label": "governance",
        "offset": 0,
        "slot": "54",
        "type": "t_address"
      },
      {
        "astId": 10644,
        "contract": "contracts/controllers/BadgerBridgeZeroControllerAvax.sol:BadgerBridgeZeroControllerAvax",
        "label": "strategist",
        "offset": 0,
        "slot": "55",
        "type": "t_address"
      },
      {
        "astId": 10697,
        "contract": "contracts/controllers/BadgerBridgeZeroControllerAvax.sol:BadgerBridgeZeroControllerAvax",
        "label": "governanceFee",
        "offset": 0,
        "slot": "56",
        "type": "t_uint256"
      },
      {
        "astId": 10723,
        "contract": "contracts/controllers/BadgerBridgeZeroControllerAvax.sol:BadgerBridgeZeroControllerAvax",
        "label": "renbtcForOneETHPrice",
        "offset": 0,
        "slot": "57",
        "type": "t_uint256"
      },
      {
        "astId": 10725,
        "contract": "contracts/controllers/BadgerBridgeZeroControllerAvax.sol:BadgerBridgeZeroControllerAvax",
        "label": "burnFee",
        "offset": 0,
        "slot": "58",
        "type": "t_uint256"
      },
      {
        "astId": 10727,
        "contract": "contracts/controllers/BadgerBridgeZeroControllerAvax.sol:BadgerBridgeZeroControllerAvax",
        "label": "keeperReward",
        "offset": 0,
        "slot": "59",
        "type": "t_uint256"
      },
      {
        "astId": 10737,
        "contract": "contracts/controllers/BadgerBridgeZeroControllerAvax.sol:BadgerBridgeZeroControllerAvax",
        "label": "nonces",
        "offset": 0,
        "slot": "60",
        "type": "t_mapping(t_address,t_uint256)"
      },
      {
        "astId": 10741,
        "contract": "contracts/controllers/BadgerBridgeZeroControllerAvax.sol:BadgerBridgeZeroControllerAvax",
        "label": "noncesUsdc",
        "offset": 0,
        "slot": "61",
        "type": "t_mapping(t_address,t_uint256)"
      },
      {
        "astId": 10743,
        "contract": "contracts/controllers/BadgerBridgeZeroControllerAvax.sol:BadgerBridgeZeroControllerAvax",
        "label": "PERMIT_DOMAIN_SEPARATOR_WBTC",
        "offset": 0,
        "slot": "62",
        "type": "t_bytes32"
      },
      {
        "astId": 10745,
        "contract": "contracts/controllers/BadgerBridgeZeroControllerAvax.sol:BadgerBridgeZeroControllerAvax",
        "label": "PERMIT_DOMAIN_SEPARATOR_IBBTC",
        "offset": 0,
        "slot": "63",
        "type": "t_bytes32"
      },
      {
        "astId": 10747,
        "contract": "contracts/controllers/BadgerBridgeZeroControllerAvax.sol:BadgerBridgeZeroControllerAvax",
        "label": "PERMIT_DOMAIN_SEPARATOR_USDC",
        "offset": 0,
        "slot": "64",
        "type": "t_bytes32"
      }
    ],
    "types": {
      "t_address": {
        "encoding": "inplace",
        "label": "address",
        "numberOfBytes": "20"
      },
      "t_array(t_uint256)50_storage": {
        "base": "t_uint256",
        "encoding": "inplace",
        "label": "uint256[50]",
        "numberOfBytes": "1600"
      },
      "t_bool": {
        "encoding": "inplace",
        "label": "bool",
        "numberOfBytes": "1"
      },
      "t_bytes32": {
        "encoding": "inplace",
        "label": "bytes32",
        "numberOfBytes": "32"
      },
      "t_mapping(t_address,t_uint256)": {
        "encoding": "mapping",
        "key": "t_address",
        "label": "mapping(address => uint256)",
        "numberOfBytes": "32",
        "value": "t_uint256"
      },
      "t_uint256": {
        "encoding": "inplace",
        "label": "uint256",
        "numberOfBytes": "32"
      }
    }
  }
}