{
    "address": "0x9A9f2CCfdE556A7E9Ff0848998Aa4a0CFD8863AE",
    "abi": [
        {
            "inputs": [
                {
                    "internalType": "address",
                    "name": "_controller",
                    "type": "address"
                }
            ],
            "stateMutability": "nonpayable",
            "type": "constructor"
        },
        {
            "inputs": [],
            "name": "blockTimeout",
            "outputs": [
                {
                    "internalType": "uint256",
                    "name": "",
                    "type": "uint256"
                }
            ],
            "stateMutability": "view",
            "type": "function"
        },
        {
            "inputs": [
                {
                    "internalType": "uint256",
                    "name": "_in",
                    "type": "uint256"
                }
            ],
            "name": "computeReserveRequirement",
            "outputs": [
                {
                    "internalType": "uint256",
                    "name": "",
                    "type": "uint256"
                }
            ],
            "stateMutability": "view",
            "type": "function"
        },
        {
            "inputs": [],
            "name": "controller",
            "outputs": [
                {
                    "internalType": "address",
                    "name": "",
                    "type": "address"
                }
            ],
            "stateMutability": "view",
            "type": "function"
        },
        {
            "inputs": [
                {
                    "internalType": "uint256",
                    "name": "_nonce",
                    "type": "uint256"
                }
            ],
            "name": "defaultLoan",
            "outputs": [],
            "stateMutability": "nonpayable",
            "type": "function"
        },
        {
            "inputs": [],
            "name": "governance",
            "outputs": [
                {
                    "internalType": "address",
                    "name": "",
                    "type": "address"
                }
            ],
            "stateMutability": "view",
            "type": "function"
        },
        {
            "inputs": [
                {
                    "internalType": "uint256",
                    "name": "",
                    "type": "uint256"
                }
            ],
            "name": "outstanding",
            "outputs": [
                {
                    "internalType": "uint64",
                    "name": "when",
                    "type": "uint64"
                },
                {
                    "internalType": "uint256",
                    "name": "qtyETH",
                    "type": "uint256"
                },
                {
                    "internalType": "uint256",
                    "name": "qty",
                    "type": "uint256"
                }
            ],
            "stateMutability": "view",
            "type": "function"
        },
        {
            "inputs": [
                {
                    "internalType": "address",
                    "name": "_to",
                    "type": "address"
                },
                {
                    "internalType": "address",
                    "name": "_asset",
                    "type": "address"
                },
                {
                    "internalType": "uint256",
                    "name": "_actual",
                    "type": "uint256"
                },
                {
                    "internalType": "uint256",
                    "name": "_nonce",
                    "type": "uint256"
                },
                {
                    "internalType": "bytes",
                    "name": "_data",
                    "type": "bytes"
                }
            ],
            "name": "receiveLoan",
            "outputs": [],
            "stateMutability": "nonpayable",
            "type": "function"
        },
        {
            "inputs": [],
            "name": "renCrvArbitrum",
            "outputs": [
                {
                    "internalType": "address",
                    "name": "",
                    "type": "address"
                }
            ],
            "stateMutability": "view",
            "type": "function"
        },
        {
            "inputs": [
                {
                    "internalType": "address",
                    "name": "_to",
                    "type": "address"
                },
                {
                    "internalType": "address",
                    "name": "_asset",
                    "type": "address"
                },
                {
                    "internalType": "uint256",
                    "name": "_actualAmount",
                    "type": "uint256"
                },
                {
                    "internalType": "uint256",
                    "name": "_nonce",
                    "type": "uint256"
                },
                {
                    "internalType": "bytes",
                    "name": "_data",
                    "type": "bytes"
                }
            ],
            "name": "repayLoan",
            "outputs": [],
            "stateMutability": "nonpayable",
            "type": "function"
        },
        {
            "inputs": [
                {
                    "internalType": "uint256",
                    "name": "_ct",
                    "type": "uint256"
                }
            ],
            "name": "setBlockTimeout",
            "outputs": [],
            "stateMutability": "nonpayable",
            "type": "function"
        },
        {
            "inputs": [],
            "name": "tricryptoArbitrum",
            "outputs": [
                {
                    "internalType": "address",
                    "name": "",
                    "type": "address"
                }
            ],
            "stateMutability": "view",
            "type": "function"
        },
        {
            "inputs": [],
            "name": "want",
            "outputs": [
                {
                    "internalType": "address",
                    "name": "",
                    "type": "address"
                }
            ],
            "stateMutability": "view",
            "type": "function"
        },
        {
            "inputs": [],
            "name": "wbtc",
            "outputs": [
                {
                    "internalType": "address",
                    "name": "",
                    "type": "address"
                }
            ],
            "stateMutability": "view",
            "type": "function"
        },
        {
            "inputs": [],
            "name": "weth",
            "outputs": [
                {
                    "internalType": "address",
                    "name": "",
                    "type": "address"
                }
            ],
            "stateMutability": "view",
            "type": "function"
        },
        {
            "stateMutability": "payable",
            "type": "receive"
        }
    ],
    "transactionHash": "0x176a34bc17fba41b93d4acf499ce58c4d1457cea8cf447151e69dc6d4e8e5c00",
    "args": [
        "0x8A791620dd6260079BF849Dc5567aDC3F2FdC318"
    ],
    "numDeployments": 1,
    "solcInputHash": "a107231292f6da35c02f811adc5a79b2",
    "bytecode": "0x60c06040523480156200001157600080fd5b5060405162001b7938038062001b79833981810160405260208110156200003757600080fd5b50516001600160601b0319606082901b1660805260408051635aa6e67560e01b815290516001600160a01b03831691635aa6e675916004808301926020929190829003018186803b1580156200008c57600080fd5b505afa158015620000a1573d6000803e3d6000fd5b505050506040513d6020811015620000b857600080fd5b505160601b6001600160601b03191660a0526200011273dbf31df14b66535af65aac99c32e9ea844e14501733e01dd8a5e1fb3481f0f589056b428fc308af0fb6001600160fe1b0362000161602090811b6200095017901c565b6200015a732f2a2543b76a4166549f7aab2e75bef0aefc5b0f73960ea3e3c7fb317332d990873d354e18d76455906001600160fe1b0362000161602090811b6200095017901c565b5062000573565b801580620001eb575060408051636eb1769f60e11b81523060048201526001600160a01b03848116602483015291519185169163dd62ed3e91604480820192602092909190829003018186803b158015620001bb57600080fd5b505afa158015620001d0573d6000803e3d6000fd5b505050506040513d6020811015620001e757600080fd5b5051155b620002285760405162461bcd60e51b815260040180806020018281038252603681526020018062001b436036913960400191505060405180910390fd5b604080516001600160a01b038416602482015260448082018490528251808303909101815260649091019091526020810180516001600160e01b0390811663095ea7b360e01b17909152620002809185916200028516565b505050565b6000620002e1826040518060400160405280602081526020017f5361666545524332303a206c6f772d6c6576656c2063616c6c206661696c6564815250856001600160a01b03166200034160201b62000a68179092919060201c565b80519091501562000280578080602001905160208110156200030257600080fd5b5051620002805760405162461bcd60e51b815260040180806020018281038252602a81526020018062001b19602a913960400191505060405180910390fd5b60606200035284846000856200035c565b90505b9392505050565b6060824710156200039f5760405162461bcd60e51b815260040180806020018281038252602681526020018062001af36026913960400191505060405180910390fd5b620003aa85620004c3565b620003fc576040805162461bcd60e51b815260206004820152601d60248201527f416464726573733a2063616c6c20746f206e6f6e2d636f6e7472616374000000604482015290519081900360640190fd5b600080866001600160a01b031685876040518082805190602001908083835b602083106200043c5780518252601f1990920191602091820191016200041b565b6001836020036101000a03801982511681845116808217855250505050505090500191505060006040518083038185875af1925050503d8060008114620004a0576040519150601f19603f3d011682016040523d82523d6000602084013e620004a5565b606091505b509092509050620004b8828286620004c9565b979650505050505050565b3b151590565b60608315620004da57508162000355565b825115620004eb5782518084602001fd5b8160405162461bcd60e51b81526004018080602001828103825283818151815260200191508051906020019080838360005b83811015620005375781810151838201526020016200051d565b50505050905090810190601f168015620005655780820380516001836020036101000a031916815260200191505b509250505060405180910390fd5b60805160601c60a05160601c611542620005b16000398061045152806105f45250806104c152806106e152806107a952806107d652506115426000f3fe6080604052600436106100e15760003560e01c806367bf61c41161007f578063874a0e7311610059578063874a0e73146102f1578063a7f6ad1414610344578063f77c479114610359578063fd8e91541461036e576100e8565b806367bf61c41461027657806373883a2b146102a057806380e71655146102dc576100e8565b80633cdc5389116100bb5780633cdc5389146102225780633fc8cef3146102375780635aa6e6751461024c5780635b496f7514610261576100e8565b8063086d3c7a146100ed5780631639743b146101195780631f1fcd51146101f1576100e8565b366100e857005b600080fd5b3480156100f957600080fd5b506101176004803603602081101561011057600080fd5b5035610446565b005b34801561012557600080fd5b50610117600480360360a081101561013c57600080fd5b6001600160a01b03823581169260208101359091169160408201359160608101359181019060a08101608082013564010000000081111561017c57600080fd5b82018360208201111561018e57600080fd5b803590602001918460018302840111640100000000831117156101b057600080fd5b91908080601f0160208091040260200160405190810160405280939291908181526020018383808284376000920191909152509295506104b6945050505050565b3480156101fd57600080fd5b506102066105aa565b604080516001600160a01b039092168252519081900360200190f35b34801561022e57600080fd5b506102066105c2565b34801561024357600080fd5b506102066105da565b34801561025857600080fd5b506102066105f2565b34801561026d57600080fd5b50610206610616565b34801561028257600080fd5b506101176004803603602081101561029957600080fd5b503561062e565b3480156102ac57600080fd5b506102ca600480360360208110156102c357600080fd5b5035610731565b60408051918252519081900360200190f35b3480156102e857600080fd5b506102ca61075d565b3480156102fd57600080fd5b5061031b6004803603602081101561031457600080fd5b5035610763565b6040805167ffffffffffffffff9094168452602084019290925282820152519081900360600190f35b34801561035057600080fd5b5061020661078f565b34801561036557600080fd5b506102066107a7565b34801561037a57600080fd5b50610117600480360360a081101561039157600080fd5b6001600160a01b03823581169260208101359091169160408201359160608101359181019060a0810160808201356401000000008111156103d157600080fd5b8201836020820111156103e357600080fd5b8035906020019184600183028401116401000000008311171561040557600080fd5b91908080601f0160208091040260200160405190810160405280939291908181526020018383808284376000920191909152509295506107cb945050505050565b336001600160a01b037f000000000000000000000000000000000000000000000000000000000000000016146104b1576040805162461bcd60e51b815260206004820152600b60248201526a21676f7665726e616e636560a81b604482015290519081900360640190fd5b600155565b336001600160a01b037f00000000000000000000000000000000000000000000000000000000000000001614610521576040805162461bcd60e51b815260206004820152600b60248201526a10b1b7b73a3937b63632b960a91b604482015290519081900360640190fd5b600081806020019051602081101561053857600080fd5b505190506000806105498684610a81565b604080516060810182524267ffffffffffffffff9081168252602080830195865282840194855260009a8b528a9052919098209751885467ffffffffffffffff19169116178755905160018701555160029095019490945550505050505050565b73dbf31df14b66535af65aac99c32e9ea844e1450181565b732f2a2543b76a4166549f7aab2e75bef0aefc5b0f81565b7382af49447d8a07e3bd95bd0d56f35241523fbab181565b7f000000000000000000000000000000000000000000000000000000000000000081565b73960ea3e3c7fb317332d990873d354e18d764559081565b60015460008281526020819052604090205467ffffffffffffffff160143101561065757600080fd5b600081815260208190526040902061066e90610cc4565b6106ae576040805162461bcd60e51b815260206004820152600c60248201526b216f75747374616e64696e6760a01b604482015290519081900360640190fd5b60008181526020819052604081206106c590610cdf565b905061070673dbf31df14b66535af65aac99c32e9ea844e145017f000000000000000000000000000000000000000000000000000000000000000083610fe6565b506000908152602081905260408120805467ffffffffffffffff191681556001810182905560020155565b6000610757670de0b6b3a76400006107518467016345785d8a0000611038565b90611091565b92915050565b60015481565b60006020819052908152604090208054600182015460029092015467ffffffffffffffff909116919083565b733e01dd8a5e1fb3481f0f589056b428fc308af0fb81565b7f000000000000000000000000000000000000000000000000000000000000000081565b336001600160a01b037f00000000000000000000000000000000000000000000000000000000000000001614610836576040805162461bcd60e51b815260206004820152600b60248201526a10b1b7b73a3937b63632b960a91b604482015290519081900360640190fd5b600082815260208190526040902060020154151580610865575060008281526020819052604090206001015415155b6108a5576040805162461bcd60e51b815260206004820152600c60248201526b216f75747374616e64696e6760a01b604482015290519081900360640190fd5b6000828152602081905260409020600201546108d89073dbf31df14b66535af65aac99c32e9ea844e14501908790610fe6565b60008281526020819052604080822060010154905187926001600160a01b0384169280156108fc02929091818181858888f19350505050158015610920573d6000803e3d6000fd5b5050506000908152602081905260408120805467ffffffffffffffff191681556001810182905560020155505050565b8015806109d6575060408051636eb1769f60e11b81523060048201526001600160a01b03848116602483015291519185169163dd62ed3e91604480820192602092909190829003018186803b1580156109a857600080fd5b505afa1580156109bc573d6000803e3d6000fd5b505050506040513d60208110156109d257600080fd5b5051155b610a115760405162461bcd60e51b81526004018080602001828103825260368152602001806114d76036913960400191505060405180910390fd5b604080516001600160a01b038416602482015260448082018490528251808303909101815260649091019091526020810180516001600160e01b031663095ea7b360e01b179052610a639084906110f8565b505050565b6060610a7784846000856111a9565b90505b9392505050565b60008080610a9b670de0b6b3a76400006107518688611038565b9050600081610aab576000610b4b565b6040805163ddc1f59d60e01b81526001600482015260006024820181905260448201859052606482018190523060848301529151733e01dd8a5e1fb3481f0f589056b428fc308af0fb9263ddc1f59d9260a480820193602093909283900390910190829087803b158015610b1e57600080fd5b505af1158015610b32573d6000803e3d6000fd5b505050506040513d6020811015610b4857600080fd5b50515b90508015610cb75760408051600160248201819052600260448301526064820184905260006084830181905260a4808401929092528351808403909201825260c490920183526020810180516001600160e01b031663394747c560e01b17815292518151479473960ea3e3c7fb317332d990873d354e18d76455909392918291908083835b60208310610bef5780518252601f199092019160209182019101610bd0565b6001836020036101000a0380198251168184511680821785525050505050509050019150506000604051808303816000865af19150503d8060008114610c51576040519150601f19603f3d011682016040523d82523d6000602084013e610c56565b606091505b5050905080610c98576040805162461bcd60e51b81526020600482015260096024820152682165786368616e676560b81b604482015290519081900360640190fd5b610ca24783611304565b9550610cae8885611304565b94505050610cbb565b8592505b50509250929050565b60008160020154600014158061075757505060010154151590565b604080516370a0823160e01b815230600482015290516000918291732f2a2543b76a4166549f7aab2e75bef0aefc5b0f916370a08231916024808301926020929190829003018186803b158015610d3557600080fd5b505afa158015610d49573d6000803e3d6000fd5b505050506040513d6020811015610d5f57600080fd5b50516001808501546040805160026024820152604481018490526064810183905260006084820181905260a4808301959095528251808303909501855260c490910182526020840180516001600160e01b031663394747c560e01b17815291518451959650909473960ea3e3c7fb317332d990873d354e18d7645590949282918083835b60208310610e025780518252601f199092019160209182019101610de3565b6001836020036101000a03801982511681845116808217855250505050505090500191505060006040518083038185875af1925050503d8060008114610e64576040519150601f19603f3d011682016040523d82523d6000602084013e610e69565b606091505b5050905080610eab576040805162461bcd60e51b81526020600482015260096024820152682165786368616e676560b81b604482015290519081900360640190fd5b604080516370a0823160e01b81523060048201529051600091732f2a2543b76a4166549f7aab2e75bef0aefc5b0f916370a0823191602480820192602092909190829003018186803b158015610f0057600080fd5b505afa158015610f14573d6000803e3d6000fd5b505050506040513d6020811015610f2a57600080fd5b505160028601546040805163ddc1f59d60e01b81526000600482018190526001602483015260448201859052606482018190523060848301529151939450610fdd93733e01dd8a5e1fb3481f0f589056b428fc308af0fb9263ddc1f59d9260a480820193602093909283900390910190829087803b158015610fab57600080fd5b505af1158015610fbf573d6000803e3d6000fd5b505050506040513d6020811015610fd557600080fd5b505190611361565b95945050505050565b604080516001600160a01b038416602482015260448082018490528251808303909101815260649091019091526020810180516001600160e01b031663a9059cbb60e01b179052610a639084906110f8565b60008261104757506000610757565b8282028284828161105457fe5b0414610a7a5760405162461bcd60e51b815260040180806020018281038252602181526020018061148c6021913960400191505060405180910390fd5b60008082116110e7576040805162461bcd60e51b815260206004820152601a60248201527f536166654d6174683a206469766973696f6e206279207a65726f000000000000604482015290519081900360640190fd5b8183816110f057fe5b049392505050565b600061114d826040518060400160405280602081526020017f5361666545524332303a206c6f772d6c6576656c2063616c6c206661696c6564815250856001600160a01b0316610a689092919063ffffffff16565b805190915015610a635780806020019051602081101561116c57600080fd5b5051610a635760405162461bcd60e51b815260040180806020018281038252602a8152602001806114ad602a913960400191505060405180910390fd5b6060824710156111ea5760405162461bcd60e51b81526004018080602001828103825260268152602001806114666026913960400191505060405180910390fd5b6111f3856113bb565b611244576040805162461bcd60e51b815260206004820152601d60248201527f416464726573733a2063616c6c20746f206e6f6e2d636f6e7472616374000000604482015290519081900360640190fd5b600080866001600160a01b031685876040518082805190602001908083835b602083106112825780518252601f199092019160209182019101611263565b6001836020036101000a03801982511681845116808217855250505050505090500191505060006040518083038185875af1925050503d80600081146112e4576040519150601f19603f3d011682016040523d82523d6000602084013e6112e9565b606091505b50915091506112f98282866113c1565b979650505050505050565b60008282111561135b576040805162461bcd60e51b815260206004820152601e60248201527f536166654d6174683a207375627472616374696f6e206f766572666c6f770000604482015290519081900360640190fd5b50900390565b600082820183811015610a7a576040805162461bcd60e51b815260206004820152601b60248201527f536166654d6174683a206164646974696f6e206f766572666c6f770000000000604482015290519081900360640190fd5b3b151590565b606083156113d0575081610a7a565b8251156113e05782518084602001fd5b8160405162461bcd60e51b81526004018080602001828103825283818151815260200191508051906020019080838360005b8381101561142a578181015183820152602001611412565b50505050905090810190601f1680156114575780820380516001836020036101000a031916815260200191505b509250505060405180910390fdfe416464726573733a20696e73756666696369656e742062616c616e636520666f722063616c6c536166654d6174683a206d756c7469706c69636174696f6e206f766572666c6f775361666545524332303a204552433230206f7065726174696f6e20646964206e6f7420737563636565645361666545524332303a20617070726f76652066726f6d206e6f6e2d7a65726f20746f206e6f6e2d7a65726f20616c6c6f77616e6365a2646970667358221220310449699ef23a22ded9ccb5bd4defc0908ebdb76f3c1a96db1b4c61435fb26664736f6c63430007060033416464726573733a20696e73756666696369656e742062616c616e636520666f722063616c6c5361666545524332303a204552433230206f7065726174696f6e20646964206e6f7420737563636565645361666545524332303a20617070726f76652066726f6d206e6f6e2d7a65726f20746f206e6f6e2d7a65726f20616c6c6f77616e6365",
    "devdoc": {
        "kind": "dev",
        "methods": {},
        "version": 1
    },
    "userdoc": {
        "kind": "user",
        "methods": {},
        "version": 1
    },
    "storageLayout": {
        "storage": [
            {
                "astId": 10064,
                "contract": "contracts/modules/ArbitrumConvert.sol:ArbitrumConvert",
                "label": "outstanding",
                "offset": 0,
                "slot": "0",
                "type": "t_mapping(t_uint256,t_struct(ConvertRecord)10566_storage)"
            },
            {
                "astId": 10070,
                "contract": "contracts/modules/ArbitrumConvert.sol:ArbitrumConvert",
                "label": "blockTimeout",
                "offset": 0,
                "slot": "1",
                "type": "t_uint256"
            }
        ],
        "types": {
            "t_mapping(t_uint256,t_struct(ConvertRecord)10566_storage)": {
                "encoding": "mapping",
                "key": "t_uint256",
                "label": "mapping(uint256 => struct ArbitrumConvertLib.ConvertRecord)",
                "numberOfBytes": "32",
                "value": "t_struct(ConvertRecord)10566_storage"
            },
            "t_struct(ConvertRecord)10566_storage": {
                "encoding": "inplace",
                "label": "struct ArbitrumConvertLib.ConvertRecord",
                "members": [
                    {
                        "astId": 10561,
                        "contract": "contracts/modules/ArbitrumConvert.sol:ArbitrumConvert",
                        "label": "when",
                        "offset": 0,
                        "slot": "0",
                        "type": "t_uint64"
                    },
                    {
                        "astId": 10563,
                        "contract": "contracts/modules/ArbitrumConvert.sol:ArbitrumConvert",
                        "label": "qtyETH",
                        "offset": 0,
                        "slot": "1",
                        "type": "t_uint256"
                    },
                    {
                        "astId": 10565,
                        "contract": "contracts/modules/ArbitrumConvert.sol:ArbitrumConvert",
                        "label": "qty",
                        "offset": 0,
                        "slot": "2",
                        "type": "t_uint256"
                    }
                ],
                "numberOfBytes": "96"
            },
            "t_uint256": {
                "encoding": "inplace",
                "label": "uint256",
                "numberOfBytes": "32"
            },
            "t_uint64": {
                "encoding": "inplace",
                "label": "uint64",
                "numberOfBytes": "8"
            }
        }
    }
}