{
  "_format": "hh-sol-artifact-1",
  "contractName": "GovernorAlpha",
  "sourceName": "contracts/vendor/compound/GovernorAlpha.sol",
  "abi": [
    {
      "inputs": [
        {
          "internalType": "address",
          "name": "timelock_",
          "type": "address"
        },
        {
          "internalType": "address",
          "name": "comp_",
          "type": "address"
        },
        {
          "internalType": "address",
          "name": "guardian_",
          "type": "address"
        }
      ],
      "stateMutability": "nonpayable",
      "type": "constructor"
    },
    {
      "anonymous": false,
      "inputs": [
        {
          "indexed": false,
          "internalType": "uint256",
          "name": "id",
          "type": "uint256"
        }
      ],
      "name": "ProposalCanceled",
      "type": "event"
    },
    {
      "anonymous": false,
      "inputs": [
        {
          "indexed": false,
          "internalType": "uint256",
          "name": "id",
          "type": "uint256"
        },
        {
          "indexed": false,
          "internalType": "address",
          "name": "proposer",
          "type": "address"
        },
        {
          "indexed": false,
          "internalType": "address[]",
          "name": "targets",
          "type": "address[]"
        },
        {
          "indexed": false,
          "internalType": "uint256[]",
          "name": "values",
          "type": "uint256[]"
        },
        {
          "indexed": false,
          "internalType": "string[]",
          "name": "signatures",
          "type": "string[]"
        },
        {
          "indexed": false,
          "internalType": "bytes[]",
          "name": "calldatas",
          "type": "bytes[]"
        },
        {
          "indexed": false,
          "internalType": "uint256",
          "name": "startBlock",
          "type": "uint256"
        },
        {
          "indexed": false,
          "internalType": "uint256",
          "name": "endBlock",
          "type": "uint256"
        },
        {
          "indexed": false,
          "internalType": "string",
          "name": "description",
          "type": "string"
        }
      ],
      "name": "ProposalCreated",
      "type": "event"
    },
    {
      "anonymous": false,
      "inputs": [
        {
          "indexed": false,
          "internalType": "uint256",
          "name": "id",
          "type": "uint256"
        }
      ],
      "name": "ProposalExecuted",
      "type": "event"
    },
    {
      "anonymous": false,
      "inputs": [
        {
          "indexed": false,
          "internalType": "uint256",
          "name": "id",
          "type": "uint256"
        },
        {
          "indexed": false,
          "internalType": "uint256",
          "name": "eta",
          "type": "uint256"
        }
      ],
      "name": "ProposalQueued",
      "type": "event"
    },
    {
      "anonymous": false,
      "inputs": [
        {
          "indexed": false,
          "internalType": "address",
          "name": "voter",
          "type": "address"
        },
        {
          "indexed": false,
          "internalType": "uint256",
          "name": "proposalId",
          "type": "uint256"
        },
        {
          "indexed": false,
          "internalType": "bool",
          "name": "support",
          "type": "bool"
        },
        {
          "indexed": false,
          "internalType": "uint256",
          "name": "votes",
          "type": "uint256"
        }
      ],
      "name": "VoteCast",
      "type": "event"
    },
    {
      "inputs": [],
      "name": "BALLOT_TYPEHASH",
      "outputs": [
        {
          "internalType": "bytes32",
          "name": "",
          "type": "bytes32"
        }
      ],
      "stateMutability": "view",
      "type": "function"
    },
    {
      "inputs": [],
      "name": "DOMAIN_TYPEHASH",
      "outputs": [
        {
          "internalType": "bytes32",
          "name": "",
          "type": "bytes32"
        }
      ],
      "stateMutability": "view",
      "type": "function"
    },
    {
      "inputs": [],
      "name": "__abdicate",
      "outputs": [],
      "stateMutability": "nonpayable",
      "type": "function"
    },
    {
      "inputs": [],
      "name": "__acceptAdmin",
      "outputs": [],
      "stateMutability": "nonpayable",
      "type": "function"
    },
    {
      "inputs": [
        {
          "internalType": "address",
          "name": "newPendingAdmin",
          "type": "address"
        },
        {
          "internalType": "uint256",
          "name": "eta",
          "type": "uint256"
        }
      ],
      "name": "__executeSetTimelockPendingAdmin",
      "outputs": [],
      "stateMutability": "nonpayable",
      "type": "function"
    },
    {
      "inputs": [
        {
          "internalType": "address",
          "name": "newPendingAdmin",
          "type": "address"
        },
        {
          "internalType": "uint256",
          "name": "eta",
          "type": "uint256"
        }
      ],
      "name": "__queueSetTimelockPendingAdmin",
      "outputs": [],
      "stateMutability": "nonpayable",
      "type": "function"
    },
    {
      "inputs": [
        {
          "internalType": "uint256",
          "name": "proposalId",
          "type": "uint256"
        }
      ],
      "name": "cancel",
      "outputs": [],
      "stateMutability": "nonpayable",
      "type": "function"
    },
    {
      "inputs": [
        {
          "internalType": "uint256",
          "name": "proposalId",
          "type": "uint256"
        },
        {
          "internalType": "bool",
          "name": "support",
          "type": "bool"
        }
      ],
      "name": "castVote",
      "outputs": [],
      "stateMutability": "nonpayable",
      "type": "function"
    },
    {
      "inputs": [
        {
          "internalType": "uint256",
          "name": "proposalId",
          "type": "uint256"
        },
        {
          "internalType": "bool",
          "name": "support",
          "type": "bool"
        },
        {
          "internalType": "uint8",
          "name": "v",
          "type": "uint8"
        },
        {
          "internalType": "bytes32",
          "name": "r",
          "type": "bytes32"
        },
        {
          "internalType": "bytes32",
          "name": "s",
          "type": "bytes32"
        }
      ],
      "name": "castVoteBySig",
      "outputs": [],
      "stateMutability": "nonpayable",
      "type": "function"
    },
    {
      "inputs": [],
      "name": "comp",
      "outputs": [
        {
          "internalType": "contract CompInterface",
          "name": "",
          "type": "address"
        }
      ],
      "stateMutability": "view",
      "type": "function"
    },
    {
      "inputs": [
        {
          "internalType": "uint256",
          "name": "proposalId",
          "type": "uint256"
        }
      ],
      "name": "execute",
      "outputs": [],
      "stateMutability": "payable",
      "type": "function"
    },
    {
      "inputs": [
        {
          "internalType": "uint256",
          "name": "proposalId",
          "type": "uint256"
        }
      ],
      "name": "getActions",
      "outputs": [
        {
          "internalType": "address[]",
          "name": "targets",
          "type": "address[]"
        },
        {
          "internalType": "uint256[]",
          "name": "values",
          "type": "uint256[]"
        },
        {
          "internalType": "string[]",
          "name": "signatures",
          "type": "string[]"
        },
        {
          "internalType": "bytes[]",
          "name": "calldatas",
          "type": "bytes[]"
        }
      ],
      "stateMutability": "view",
      "type": "function"
    },
    {
      "inputs": [
        {
          "internalType": "uint256",
          "name": "proposalId",
          "type": "uint256"
        },
        {
          "internalType": "address",
          "name": "voter",
          "type": "address"
        }
      ],
      "name": "getReceipt",
      "outputs": [
        {
          "components": [
            {
              "internalType": "bool",
              "name": "hasVoted",
              "type": "bool"
            },
            {
              "internalType": "bool",
              "name": "support",
              "type": "bool"
            },
            {
              "internalType": "uint96",
              "name": "votes",
              "type": "uint96"
            }
          ],
          "internalType": "struct GovernorAlpha.Receipt",
          "name": "",
          "type": "tuple"
        }
      ],
      "stateMutability": "view",
      "type": "function"
    },
    {
      "inputs": [],
      "name": "guardian",
      "outputs": [
        {
          "internalType": "address",
          "name": "",
          "type": "address"
        }
      ],
      "stateMutability": "view",
      "type": "function"
    },
    {
      "inputs": [
        {
          "internalType": "address",
          "name": "",
          "type": "address"
        }
      ],
      "name": "latestProposalIds",
      "outputs": [
        {
          "internalType": "uint256",
          "name": "",
          "type": "uint256"
        }
      ],
      "stateMutability": "view",
      "type": "function"
    },
    {
      "inputs": [],
      "name": "name",
      "outputs": [
        {
          "internalType": "string",
          "name": "",
          "type": "string"
        }
      ],
      "stateMutability": "view",
      "type": "function"
    },
    {
      "inputs": [],
      "name": "proposalCount",
      "outputs": [
        {
          "internalType": "uint256",
          "name": "",
          "type": "uint256"
        }
      ],
      "stateMutability": "view",
      "type": "function"
    },
    {
      "inputs": [],
      "name": "proposalMaxOperations",
      "outputs": [
        {
          "internalType": "uint256",
          "name": "",
          "type": "uint256"
        }
      ],
      "stateMutability": "pure",
      "type": "function"
    },
    {
      "inputs": [],
      "name": "proposalThreshold",
      "outputs": [
        {
          "internalType": "uint256",
          "name": "",
          "type": "uint256"
        }
      ],
      "stateMutability": "pure",
      "type": "function"
    },
    {
      "inputs": [
        {
          "internalType": "uint256",
          "name": "",
          "type": "uint256"
        }
      ],
      "name": "proposals",
      "outputs": [
        {
          "internalType": "uint256",
          "name": "id",
          "type": "uint256"
        },
        {
          "internalType": "address",
          "name": "proposer",
          "type": "address"
        },
        {
          "internalType": "uint256",
          "name": "eta",
          "type": "uint256"
        },
        {
          "internalType": "uint256",
          "name": "startBlock",
          "type": "uint256"
        },
        {
          "internalType": "uint256",
          "name": "endBlock",
          "type": "uint256"
        },
        {
          "internalType": "uint256",
          "name": "forVotes",
          "type": "uint256"
        },
        {
          "internalType": "uint256",
          "name": "againstVotes",
          "type": "uint256"
        },
        {
          "internalType": "bool",
          "name": "canceled",
          "type": "bool"
        },
        {
          "internalType": "bool",
          "name": "executed",
          "type": "bool"
        }
      ],
      "stateMutability": "view",
      "type": "function"
    },
    {
      "inputs": [
        {
          "internalType": "address[]",
          "name": "targets",
          "type": "address[]"
        },
        {
          "internalType": "uint256[]",
          "name": "values",
          "type": "uint256[]"
        },
        {
          "internalType": "string[]",
          "name": "signatures",
          "type": "string[]"
        },
        {
          "internalType": "bytes[]",
          "name": "calldatas",
          "type": "bytes[]"
        },
        {
          "internalType": "string",
          "name": "description",
          "type": "string"
        }
      ],
      "name": "propose",
      "outputs": [
        {
          "internalType": "uint256",
          "name": "",
          "type": "uint256"
        }
      ],
      "stateMutability": "nonpayable",
      "type": "function"
    },
    {
      "inputs": [
        {
          "internalType": "uint256",
          "name": "proposalId",
          "type": "uint256"
        }
      ],
      "name": "queue",
      "outputs": [],
      "stateMutability": "nonpayable",
      "type": "function"
    },
    {
      "inputs": [],
      "name": "quorumVotes",
      "outputs": [
        {
          "internalType": "uint256",
          "name": "",
          "type": "uint256"
        }
      ],
      "stateMutability": "pure",
      "type": "function"
    },
    {
      "inputs": [
        {
          "internalType": "uint256",
          "name": "proposalId",
          "type": "uint256"
        }
      ],
      "name": "state",
      "outputs": [
        {
          "internalType": "enum GovernorAlpha.ProposalState",
          "name": "",
          "type": "uint8"
        }
      ],
      "stateMutability": "view",
      "type": "function"
    },
    {
      "inputs": [],
      "name": "timelock",
      "outputs": [
        {
          "internalType": "contract TimelockInterface",
          "name": "",
          "type": "address"
        }
      ],
      "stateMutability": "view",
      "type": "function"
    },
    {
      "inputs": [],
      "name": "votingDelay",
      "outputs": [
        {
          "internalType": "uint256",
          "name": "",
          "type": "uint256"
        }
      ],
      "stateMutability": "pure",
      "type": "function"
    },
    {
      "inputs": [],
      "name": "votingPeriod",
      "outputs": [
        {
          "internalType": "uint256",
          "name": "",
          "type": "uint256"
        }
      ],
      "stateMutability": "pure",
      "type": "function"
    }
  ],
  "bytecode": "0x60806040523480156200001157600080fd5b50604051620032cf380380620032cf833981016040819052620000349162000077565b600080546001600160a01b039485166001600160a01b031991821617909155600180549385169382169390931790925560028054919093169116179055620000e3565b6000806000606084860312156200008c578283fd5b83516200009981620000ca565b6020850151909350620000ac81620000ca565b6040850151909250620000bf81620000ca565b809150509250925092565b6001600160a01b0381168114620000e057600080fd5b50565b6131dc80620000f36000396000f3fe60806040526004361061019c5760003560e01c8063452a9320116100ec578063d33219b41161008a578063ddf0b00911610064578063ddf0b00914610456578063deaaa7cc14610476578063e23a9a521461048b578063fe0d94c1146104b85761019c565b8063d33219b41461040c578063da35c66414610421578063da95691a146104365761019c565b80637bdbe4d0116100c65780637bdbe4d0146103ad57806391500671146103c2578063b58131b0146103e2578063b9a61961146103f75761019c565b8063452a9320146103635780634634c61f14610378578063760fbc13146103985761019c565b806320606b7011610159578063328dd98211610133578063328dd982146102d15780633932abb1146103015780633e4f49e61461031657806340e58ee5146103435761019c565b806320606b701461028757806321f43e421461029c57806324bc1a64146102bc5761019c565b8063013cf08b146101a157806302a251a3146101df57806306fdde0314610201578063109d0af81461022357806315373e3d1461024557806317977c6114610267575b600080fd5b3480156101ad57600080fd5b506101c16101bc3660046123c5565b6104cb565b6040516101d69998979695949392919061309b565b60405180910390f35b3480156101eb57600080fd5b506101f4610524565b6040516101d691906127e8565b34801561020d57600080fd5b5061021661052a565b6040516101d6919061285f565b34801561022f57600080fd5b5061023861055d565b6040516101d69190612641565b34801561025157600080fd5b50610265610260366004612409565b61056c565b005b34801561027357600080fd5b506101f461028236600461220d565b61057b565b34801561029357600080fd5b506101f461058d565b3480156102a857600080fd5b506102656102b7366004612228565b6105b1565b3480156102c857600080fd5b506101f4610698565b3480156102dd57600080fd5b506102f16102ec3660046123c5565b6106a6565b6040516101d69493929190612790565b34801561030d57600080fd5b506101f4610935565b34801561032257600080fd5b506103366103313660046123c5565b61093a565b6040516101d6919061284b565b34801561034f57600080fd5b5061026561035e3660046123c5565b610ac4565b34801561036f57600080fd5b50610238610d2d565b34801561038457600080fd5b50610265610393366004612438565b610d3c565b3480156103a457600080fd5b50610265610eef565b3480156103b957600080fd5b506101f4610f2b565b3480156103ce57600080fd5b506102656103dd366004612228565b610f30565b3480156103ee57600080fd5b506101f4611005565b34801561040357600080fd5b50610265611013565b34801561041857600080fd5b50610238611098565b34801561042d57600080fd5b506101f46110a7565b34801561044257600080fd5b506101f4610451366004612252565b6110ad565b34801561046257600080fd5b506102656104713660046123c5565b6114cd565b34801561048257600080fd5b506101f4611737565b34801561049757600080fd5b506104ab6104a63660046123dd565b61175b565b6040516101d69190612fd5565b6102656104c63660046123c5565b6117ca565b6004602052600090815260409020805460018201546002830154600784015460088501546009860154600a870154600b9097015495966001600160a01b0390951695939492939192909160ff8082169161010090041689565b61438090565b60405180604001604052806017815260200176436f6d706f756e6420476f7665726e6f7220416c70686160481b81525081565b6001546001600160a01b031681565b61057733838361198f565b5050565b60056020526000908152604090205481565b7f8cad95687ba82c2ce50e74f7b754645e5117c3a5bec8151c0726d5857980a86681565b6002546001600160a01b031633146105e45760405162461bcd60e51b81526004016105db906129a4565b60405180910390fd5b600080546040516001600160a01b0390911691630825f38f9183919061060e908790602001612641565b604051602081830303815290604052856040518563ffffffff1660e01b815260040161063d949392919061266e565b600060405180830381600087803b15801561065757600080fd5b505af115801561066b573d6000803e3d6000fd5b505050506040513d6000823e601f3d908101601f191682016040526106939190810190612352565b505050565b6954b40b1f852bda00000090565b6060806060806000600460008781526020019081526020016000209050806003018160040182600501836006018380548060200260200160405190810160405280929190818152602001828054801561072857602002820191906000526020600020905b81546001600160a01b0316815260019091019060200180831161070a575b505050505093508280548060200260200160405190810160405280929190818152602001828054801561077a57602002820191906000526020600020905b815481526020019060010190808311610766575b5050505050925081805480602002602001604051908101604052809291908181526020016000905b8282101561084d5760008481526020908190208301805460408051601f60026000196101006001871615020190941693909304928301859004850281018501909152818152928301828280156108395780601f1061080e57610100808354040283529160200191610839565b820191906000526020600020905b81548152906001019060200180831161081c57829003601f168201915b5050505050815260200190600101906107a2565b50505050915080805480602002602001604051908101604052809291908181526020016000905b8282101561091f5760008481526020908190208301805460408051601f600260001961010060018716150201909416939093049283018590048502810185019091528181529283018282801561090b5780601f106108e05761010080835404028352916020019161090b565b820191906000526020600020905b8154815290600101906020018083116108ee57829003601f168201915b505050505081526020019060010190610874565b5050505090509450945094509450509193509193565b600190565b6000816003541015801561094e5750600082115b61096a5760405162461bcd60e51b81526004016105db90612a16565b6000828152600460205260409020600b81015460ff161561098f576002915050610abf565b806007015443116109a4576000915050610abf565b806008015443116109b9576001915050610abf565b80600a015481600901541115806109da57506109d3610698565b8160090154105b156109e9576003915050610abf565b60028101546109fc576004915050610abf565b600b810154610100900460ff1615610a18576007915050610abf565b610aa9816002015460008054906101000a90046001600160a01b03166001600160a01b031663c1a287e26040518163ffffffff1660e01b815260040160206040518083038186803b158015610a6c57600080fd5b505afa158015610a80573d6000803e3d6000fd5b505050506040513d601f19601f82011682018060405250810190610aa4919061233a565b611b58565b4210610ab9576006915050610abf565b60059150505b919050565b6000610acf8261093a565b90506007816007811115610adf57fe5b1415610afd5760405162461bcd60e51b81526004016105db90612eb0565b60008281526004602052604090206002546001600160a01b0316331480610bc85750610b27611005565b60018054838201546001600160a01b039182169263782d6fe19290911690610b50904390611b84565b6040518363ffffffff1660e01b8152600401610b6d929190612655565b60206040518083038186803b158015610b8557600080fd5b505afa158015610b99573d6000803e3d6000fd5b505050506040513d601f19601f82011682018060405250810190610bbd919061248e565b6001600160601b0316105b610be45760405162461bcd60e51b81526004016105db90612c7c565b600b8101805460ff1916600117905560005b6003820154811015610cf0576000546003830180546001600160a01b039092169163591fcdfe919084908110610c2857fe5b6000918252602090912001546004850180546001600160a01b039092169185908110610c5057fe5b9060005260206000200154856005018581548110610c6a57fe5b90600052602060002001866006018681548110610c8357fe5b9060005260206000200187600201546040518663ffffffff1660e01b8152600401610cb2959493929190612757565b600060405180830381600087803b158015610ccc57600080fd5b505af1158015610ce0573d6000803e3d6000fd5b505060019092019150610bf69050565b507f789cf55be980739dad1d0699b93b58e806b51c9d96619bfa8fe0a28abaa7b30c83604051610d2091906127e8565b60405180910390a1505050565b6002546001600160a01b031681565b604080518082019091526017815276436f6d706f756e6420476f7665726e6f7220416c70686160481b60209091015260007f8cad95687ba82c2ce50e74f7b754645e5117c3a5bec8151c0726d5857980a8667ff5eb22c2e7100465020c98b00537528808db4fec6eb24c550685a92742247bc5610db7611bac565b30604051602001610dcb94939291906127f1565b60405160208183030381529060405280519060200120905060007f8e25870c07e0b0b3884c78da52790939a455c275406c44ae8b434b692fb916ee8787604051602001610e1a93929190612815565b60405160208183030381529060405280519060200120905060008282604051602001610e47929190612626565b604051602081830303815290604052805190602001209050600060018288888860405160008152602001604052604051610e84949392919061282d565b6020604051602081039080840390855afa158015610ea6573d6000803e3d6000fd5b5050604051601f1901519150506001600160a01b038116610ed95760405162461bcd60e51b81526004016105db90612dde565b610ee4818a8a61198f565b505050505050505050565b6002546001600160a01b03163314610f195760405162461bcd60e51b81526004016105db90612f7f565b600280546001600160a01b0319169055565b600a90565b6002546001600160a01b03163314610f5a5760405162461bcd60e51b81526004016105db90612b2f565b600080546040516001600160a01b0390911691633a66f90191839190610f84908790602001612641565b604051602081830303815290604052856040518563ffffffff1660e01b8152600401610fb3949392919061266e565b602060405180830381600087803b158015610fcd57600080fd5b505af1158015610fe1573d6000803e3d6000fd5b505050506040513d601f19601f82011682018060405250810190610693919061233a565b69152d02c7e14af680000090565b6002546001600160a01b0316331461103d5760405162461bcd60e51b81526004016105db90612872565b6000805460408051630e18b68160e01b815290516001600160a01b0390921692630e18b6819260048084019382900301818387803b15801561107e57600080fd5b505af1158015611092573d6000803e3d6000fd5b50505050565b6000546001600160a01b031681565b60035481565b60006110b7611005565b600180546001600160a01b03169063782d6fe19033906110d8904390611b84565b6040518363ffffffff1660e01b81526004016110f5929190612655565b60206040518083038186803b15801561110d57600080fd5b505afa158015611121573d6000803e3d6000fd5b505050506040513d601f19601f82011682018060405250810190611145919061248e565b6001600160601b03161161116b5760405162461bcd60e51b81526004016105db90612d81565b8451865114801561117d575083518651145b801561118a575082518651145b6111a65760405162461bcd60e51b81526004016105db90612c12565b85516111c45760405162461bcd60e51b81526004016105db90612d35565b6111cc610f2b565b865111156111ec5760405162461bcd60e51b81526004016105db90612b9f565b33600090815260056020526040902054801561126957600061120d8261093a565b9050600181600781111561121d57fe5b141561123b5760405162461bcd60e51b81526004016105db90612e2d565b600081600781111561124957fe5b14156112675760405162461bcd60e51b81526004016105db90612aac565b505b600061127743610aa4610935565b9050600061128782610aa4610524565b600380546001019055905061129a611d0f565b604051806101a001604052806003548152602001336001600160a01b03168152602001600081526020018b81526020018a815260200189815260200188815260200184815260200183815260200160008152602001600081526020016000151581526020016000151581525090508060046000836000015181526020019081526020016000206000820151816000015560208201518160010160006101000a8154816001600160a01b0302191690836001600160a01b0316021790555060408201518160020155606082015181600301908051906020019061137d929190611d84565b5060808201518051611399916004840191602090910190611de9565b5060a082015180516113b5916005840191602090910190611e30565b5060c082015180516113d1916006840191602090910190611e89565b5060e082015181600701556101008201518160080155610120820151816009015561014082015181600a015561016082015181600b0160006101000a81548160ff02191690831515021790555061018082015181600b0160016101000a81548160ff02191690831515021790555090505080600001516005600083602001516001600160a01b03166001600160a01b03168152602001908152602001600020819055507f7d84a6263ae0d98d3329bd7b46bb4e8d6f98cd35a7adb45c274c8b7fd5ebd5e08160000151338c8c8c8c89898e6040516114b799989796959493929190613003565b60405180910390a1519998505050505050505050565b60046114d88261093a565b60078111156114e357fe5b146115005760405162461bcd60e51b81526004016105db906128cf565b600081815260046020818152604080842084548251630d48571f60e31b815292519195946115559442946001600160a01b0390931693636a42b8f8938084019390829003018186803b158015610a6c57600080fd5b905060005b60038301548110156116fd576116f583600301828154811061157857fe5b6000918252602090912001546004850180546001600160a01b0390921691849081106115a057fe5b90600052602060002001548560050184815481106115ba57fe5b600091825260209182902001805460408051601f60026000196101006001871615020190941693909304928301859004850281018501909152818152928301828280156116485780601f1061161d57610100808354040283529160200191611648565b820191906000526020600020905b81548152906001019060200180831161162b57829003601f168201915b505050505086600601858154811061165c57fe5b600091825260209182902001805460408051601f60026000196101006001871615020190941693909304928301859004850281018501909152818152928301828280156116ea5780601f106116bf576101008083540402835291602001916116ea565b820191906000526020600020905b8154815290600101906020018083116116cd57829003601f168201915b505050505086611bb0565b60010161155a565b50600282018190556040517f9a2e42fd6722813d69113e7d0079d3d940171428df7373df9c7f7617cfda289290610d2090859084906130e7565b7f8e25870c07e0b0b3884c78da52790939a455c275406c44ae8b434b692fb916ee81565b611763611ee2565b5060008281526004602090815260408083206001600160a01b0385168452600c018252918290208251606081018452905460ff80821615158352610100820416151592820192909252620100009091046001600160601b0316918101919091525b92915050565b60056117d58261093a565b60078111156117e057fe5b146117fd5760405162461bcd60e51b81526004016105db90612939565b6000818152600460205260408120600b8101805461ff001916610100179055905b6003820154811015611953576000546004830180546001600160a01b0390921691630825f38f91908490811061185057fe5b906000526020600020015484600301848154811061186a57fe5b6000918252602090912001546004860180546001600160a01b03909216918690811061189257fe5b90600052602060002001548660050186815481106118ac57fe5b906000526020600020018760060187815481106118c557fe5b9060005260206000200188600201546040518763ffffffff1660e01b81526004016118f4959493929190612757565b6000604051808303818588803b15801561190d57600080fd5b505af1158015611921573d6000803e3d6000fd5b50505050506040513d6000823e601f3d908101601f1916820160405261194a9190810190612352565b5060010161181e565b507f712ae1383f79ac853f8d882153778e0260ef8f03b504e2866e0593e04d2b291f8260405161198391906127e8565b60405180910390a15050565b600161199a8361093a565b60078111156119a557fe5b146119c25760405162461bcd60e51b81526004016105db90612f06565b60008281526004602090815260408083206001600160a01b0387168452600c8101909252909120805460ff1615611a0b5760405162461bcd60e51b81526004016105db90612a5f565b600154600783015460405163782d6fe160e01b81526000926001600160a01b03169163782d6fe191611a41918a91600401612655565b60206040518083038186803b158015611a5957600080fd5b505afa158015611a6d573d6000803e3d6000fd5b505050506040513d601f19601f82011682018060405250810190611a91919061248e565b90508315611aba57611ab08360090154826001600160601b0316611b58565b6009840155611ad7565b611ad183600a0154826001600160601b0316611b58565b600a8401555b8154600160ff199091161761ff00191661010085151502176dffffffffffffffffffffffff00001916620100006001600160601b038316021782556040517f877856338e13f63d0c36822ff0ef736b80934cd90574a3a5bc9262c39d217c4690611b489088908890889086906126da565b60405180910390a1505050505050565b600082820183811015611b7d5760405162461bcd60e51b81526004016105db90612be7565b9392505050565b600082821115611ba65760405162461bcd60e51b81526004016105db90612f50565b50900390565b4690565b6000546040516001600160a01b039091169063f2b0653790611bde908890889088908890889060200161270b565b604051602081830303815290604052805190602001206040518263ffffffff1660e01b8152600401611c1091906127e8565b60206040518083038186803b158015611c2857600080fd5b505afa158015611c3c573d6000803e3d6000fd5b505050506040513d601f19601f82011682018060405250810190611c60919061231e565b15611c7d5760405162461bcd60e51b81526004016105db90612ccb565b600054604051633a66f90160e01b81526001600160a01b0390911690633a66f90190611cb5908890889088908890889060040161270b565b602060405180830381600087803b158015611ccf57600080fd5b505af1158015611ce3573d6000803e3d6000fd5b505050506040513d601f19601f82011682018060405250810190611d07919061233a565b505050505050565b604051806101a001604052806000815260200160006001600160a01b031681526020016000815260200160608152602001606081526020016060815260200160608152602001600081526020016000815260200160008152602001600081526020016000151581526020016000151581525090565b828054828255906000526020600020908101928215611dd9579160200282015b82811115611dd957825182546001600160a01b0319166001600160a01b03909116178255602090920191600190910190611da4565b50611de5929150611f02565b5090565b828054828255906000526020600020908101928215611e24579160200282015b82811115611e24578251825591602001919060010190611e09565b50611de5929150611f21565b828054828255906000526020600020908101928215611e7d579160200282015b82811115611e7d5782518051611e6d918491602090910190611f36565b5091602001919060010190611e50565b50611de5929150611fa3565b828054828255906000526020600020908101928215611ed6579160200282015b82811115611ed65782518051611ec6918491602090910190611f36565b5091602001919060010190611ea9565b50611de5929150611fc0565b604080516060810182526000808252602082018190529181019190915290565b5b80821115611de55780546001600160a01b0319168155600101611f03565b5b80821115611de55760008155600101611f22565b828054600181600116156101000203166002900490600052602060002090601f016020900481019282601f10611f7757805160ff1916838001178555611e24565b82800160010185558215611e245791820182811115611e24578251825591602001919060010190611e09565b80821115611de5576000611fb78282611fdd565b50600101611fa3565b80821115611de5576000611fd48282611fdd565b50600101611fc0565b50805460018160011615610100020316600290046000825580601f106120035750612021565b601f0160209004906000526020600020908101906120219190611f21565b50565b80356001600160a01b03811681146117c457600080fd5b600082601f83011261204b578081fd5b813561205e6120598261311c565b6130f5565b81815291506020808301908481018184028601820187101561207f57600080fd5b60005b848110156120a6576120948883612024565b84529282019290820190600101612082565b505050505092915050565b600082601f8301126120c1578081fd5b81356120cf6120598261311c565b818152915060208083019084810160005b848110156120a6576120f7888484358a01016121bf565b845292820192908201906001016120e0565b600082601f830112612119578081fd5b81356121276120598261311c565b818152915060208083019084810160005b848110156120a65761214f888484358a01016121bf565b84529282019290820190600101612138565b600082601f830112612171578081fd5b813561217f6120598261311c565b8181529150602080830190848101818402860182018710156121a057600080fd5b60005b848110156120a6578135845292820192908201906001016121a3565b600082601f8301126121cf578081fd5b81356121dd6120598261313c565b91508082528360208285010111156121f457600080fd5b8060208401602084013760009082016020015292915050565b60006020828403121561221e578081fd5b611b7d8383612024565b6000806040838503121561223a578081fd5b6122448484612024565b946020939093013593505050565b600080600080600060a08688031215612269578081fd5b853567ffffffffffffffff80821115612280578283fd5b61228c89838a0161203b565b965060208801359150808211156122a1578283fd5b6122ad89838a01612161565b955060408801359150808211156122c2578283fd5b6122ce89838a01612109565b945060608801359150808211156122e3578283fd5b6122ef89838a016120b1565b93506080880135915080821115612304578283fd5b50612311888289016121bf565b9150509295509295909350565b60006020828403121561232f578081fd5b8151611b7d81613198565b60006020828403121561234b578081fd5b5051919050565b600060208284031215612363578081fd5b815167ffffffffffffffff811115612379578182fd5b8201601f81018413612389578182fd5b80516123976120598261313c565b8181528560208385010111156123ab578384fd5b6123bc82602083016020860161316c565b95945050505050565b6000602082840312156123d6578081fd5b5035919050565b600080604083850312156123ef578182fd5b823591506124008460208501612024565b90509250929050565b6000806040838503121561241b578182fd5b82359150602083013561242d81613198565b809150509250929050565b600080600080600060a0868803121561244f578283fd5b85359450602086013561246181613198565b9350604086013560ff81168114612476578384fd5b94979396509394606081013594506080013592915050565b60006020828403121561249f578081fd5b81516001600160601b0381168114611b7d578182fd5b6000815180845260208085019450808401835b838110156124ed5781516001600160a01b0316875295820195908201906001016124c8565b509495945050505050565b6000815180845260208085019450848183028601828601855b8581101561253b578383038952612529838351612577565b98850198925090840190600101612511565b5090979650505050505050565b6000815180845260208085019450808401835b838110156124ed5781518752958201959082019060010161255b565b6000815180845261258f81602086016020860161316c565b601f01601f19169290920160200192915050565b600081546001808216600081146125c157600181146125df5761261d565b60028304607f16865260ff198316602087015260408601935061261d565b600283048087526125ef86613160565b60005b828110156126135781546020828b01015284820191506020810190506125f2565b8801602001955050505b50505092915050565b61190160f01b81526002810192909252602282015260420190565b6001600160a01b0391909116815260200190565b6001600160a01b03929092168252602082015260400190565b600060018060a01b038616825284602083015260a06040830152601860a08301527f73657450656e64696e6741646d696e286164647265737329000000000000000060c083015260e060608301526126c960e0830185612577565b905082608083015295945050505050565b6001600160a01b039490941684526020840192909252151560408301526001600160601b0316606082015260800190565b600060018060a01b038716825285602083015260a0604083015261273260a0830186612577565b82810360608401526127448186612577565b9150508260808301529695505050505050565b600060018060a01b038716825285602083015260a0604083015261277e60a08301866125a3565b828103606084015261274481866125a3565b6000608082526127a360808301876124b5565b82810360208401526127b58187612548565b905082810360408401526127c981866124f8565b905082810360608401526127dd81856124f8565b979650505050505050565b90815260200190565b938452602084019290925260408301526001600160a01b0316606082015260800190565b92835260208301919091521515604082015260600190565b93845260ff9290921660208401526040830152606082015260800190565b602081016008831061285957fe5b91905290565b600060208252611b7d6020830184612577565b60208082526039908201527f476f7665726e6f72416c7068613a3a5f5f61636365707441646d696e3a20736560408201527f6e646572206d75737420626520676f7620677561726469616e00000000000000606082015260800190565b60208082526044908201527f476f7665726e6f72416c7068613a3a71756575653a2070726f706f73616c206360408201527f616e206f6e6c79206265207175657565642069662069742069732073756363656060820152631959195960e21b608082015260a00190565b60208082526045908201527f476f7665726e6f72416c7068613a3a657865637574653a2070726f706f73616c60408201527f2063616e206f6e6c7920626520657865637574656420696620697420697320716060820152641d595d595960da1b608082015260a00190565b6020808252604c908201527f476f7665726e6f72416c7068613a3a5f5f6578656375746553657454696d656c60408201527f6f636b50656e64696e6741646d696e3a2073656e646572206d7573742062652060608201526b33b7bb1033bab0b93234b0b760a11b608082015260a00190565b60208082526029908201527f476f7665726e6f72416c7068613a3a73746174653a20696e76616c69642070726040820152681bdc1bdcd85b081a5960ba1b606082015260800190565b6020808252602d908201527f476f7665726e6f72416c7068613a3a5f63617374566f74653a20766f7465722060408201526c185b1c9958591e481d9bdd1959609a1b606082015260800190565b60208082526059908201527f476f7665726e6f72416c7068613a3a70726f706f73653a206f6e65206c69766560408201527f2070726f706f73616c207065722070726f706f7365722c20666f756e6420616e60608201527f20616c72656164792070656e64696e672070726f706f73616c00000000000000608082015260a00190565b6020808252604a908201527f476f7665726e6f72416c7068613a3a5f5f717565756553657454696d656c6f6360408201527f6b50656e64696e6741646d696e3a2073656e646572206d75737420626520676f6060820152693b1033bab0b93234b0b760b11b608082015260a00190565b60208082526028908201527f476f7665726e6f72416c7068613a3a70726f706f73653a20746f6f206d616e7960408201526720616374696f6e7360c01b606082015260800190565b6020808252601190820152706164646974696f6e206f766572666c6f7760781b604082015260600190565b60208082526044908201527f476f7665726e6f72416c7068613a3a70726f706f73653a2070726f706f73616c60408201527f2066756e6374696f6e20696e666f726d6174696f6e206172697479206d69736d6060820152630c2e8c6d60e31b608082015260a00190565b6020808252602f908201527f476f7665726e6f72416c7068613a3a63616e63656c3a2070726f706f7365722060408201526e18589bdd99481d1a1c995cda1bdb19608a1b606082015260800190565b60208082526044908201527f476f7665726e6f72416c7068613a3a5f71756575654f725265766572743a207060408201527f726f706f73616c20616374696f6e20616c7265616479207175657565642061746060820152632065746160e01b608082015260a00190565b6020808252602c908201527f476f7665726e6f72416c7068613a3a70726f706f73653a206d7573742070726f60408201526b7669646520616374696f6e7360a01b606082015260800190565b6020808252603f908201527f476f7665726e6f72416c7068613a3a70726f706f73653a2070726f706f73657260408201527f20766f7465732062656c6f772070726f706f73616c207468726573686f6c6400606082015260800190565b6020808252602f908201527f476f7665726e6f72416c7068613a3a63617374566f746542795369673a20696e60408201526e76616c6964207369676e617475726560881b606082015260800190565b60208082526058908201527f476f7665726e6f72416c7068613a3a70726f706f73653a206f6e65206c69766560408201527f2070726f706f73616c207065722070726f706f7365722c20666f756e6420616e60608201527f20616c7265616479206163746976652070726f706f73616c0000000000000000608082015260a00190565b60208082526036908201527f476f7665726e6f72416c7068613a3a63616e63656c3a2063616e6e6f742063616040820152751b98d95b08195e1958dd5d1959081c1c9bdc1bdcd85b60521b606082015260800190565b6020808252602a908201527f476f7665726e6f72416c7068613a3a5f63617374566f74653a20766f74696e67604082015269081a5cc818db1bdcd95960b21b606082015260800190565b6020808252601590820152747375627472616374696f6e20756e646572666c6f7760581b604082015260600190565b60208082526036908201527f476f7665726e6f72416c7068613a3a5f5f61626469636174653a2073656e6465604082015275391036bab9ba1031329033b7bb1033bab0b93234b0b760511b606082015260800190565b8151151581526020808301511515908201526040918201516001600160601b03169181019190915260600190565b8981526001600160a01b03891660208201526101206040820181905260009061302e8382018b6124b5565b90508281036060840152613042818a612548565b9050828103608084015261305681896124f8565b905082810360a084015261306a81886124f8565b90508560c08401528460e084015282810361010084015261308b8185612577565b9c9b505050505050505050505050565b9889526001600160a01b0397909716602089015260408801959095526060870193909352608086019190915260a085015260c0840152151560e083015215156101008201526101200190565b918252602082015260400190565b60405181810167ffffffffffffffff8111828210171561311457600080fd5b604052919050565b600067ffffffffffffffff821115613132578081fd5b5060209081020190565b600067ffffffffffffffff821115613152578081fd5b50601f01601f191660200190565b60009081526020902090565b60005b8381101561318757818101518382015260200161316f565b838111156110925750506000910152565b801515811461202157600080fdfea26469706673582212206b554feb8c630ccdc42fbd7c0557e47cfbd5513a6b039d3afb50bffd941b362b64736f6c634300060c0033",
  "linkReferences": {},
  "deployedLinkReferences": {}
}