{
  "_format": "hh-sol-artifact-1",
  "contractName": "ControllerUpgradeable",
  "sourceName": "contracts/controllers/ControllerUpgradeable.sol",
  "abi": [
    {
      "inputs": [
        {
          "internalType": "address",
          "name": "_token",
          "type": "address"
        },
        {
          "internalType": "address",
          "name": "_strategy",
          "type": "address"
        }
      ],
      "name": "approveStrategy",
      "outputs": [],
      "stateMutability": "nonpayable",
      "type": "function"
    },
    {
      "inputs": [
        {
          "internalType": "address",
          "name": "",
          "type": "address"
        },
        {
          "internalType": "address",
          "name": "",
          "type": "address"
        }
      ],
      "name": "approvedStrategies",
      "outputs": [
        {
          "internalType": "bool",
          "name": "",
          "type": "bool"
        }
      ],
      "stateMutability": "view",
      "type": "function"
    },
    {
      "inputs": [
        {
          "internalType": "address",
          "name": "_token",
          "type": "address"
        }
      ],
      "name": "balanceOf",
      "outputs": [
        {
          "internalType": "uint256",
          "name": "",
          "type": "uint256"
        }
      ],
      "stateMutability": "view",
      "type": "function"
    },
    {
      "inputs": [
        {
          "internalType": "address",
          "name": "",
          "type": "address"
        },
        {
          "internalType": "address",
          "name": "",
          "type": "address"
        }
      ],
      "name": "converters",
      "outputs": [
        {
          "internalType": "address",
          "name": "",
          "type": "address"
        }
      ],
      "stateMutability": "view",
      "type": "function"
    },
    {
      "inputs": [
        {
          "internalType": "address",
          "name": "_token",
          "type": "address"
        },
        {
          "internalType": "uint256",
          "name": "_amount",
          "type": "uint256"
        }
      ],
      "name": "earn",
      "outputs": [],
      "stateMutability": "nonpayable",
      "type": "function"
    },
    {
      "inputs": [
        {
          "internalType": "address",
          "name": "_strategy",
          "type": "address"
        },
        {
          "internalType": "address",
          "name": "_token",
          "type": "address"
        },
        {
          "internalType": "uint256",
          "name": "parts",
          "type": "uint256"
        }
      ],
      "name": "getExpectedReturn",
      "outputs": [
        {
          "internalType": "uint256",
          "name": "expected",
          "type": "uint256"
        }
      ],
      "stateMutability": "view",
      "type": "function"
    },
    {
      "inputs": [],
      "name": "governance",
      "outputs": [
        {
          "internalType": "address",
          "name": "",
          "type": "address"
        }
      ],
      "stateMutability": "view",
      "type": "function"
    },
    {
      "inputs": [
        {
          "internalType": "address",
          "name": "_strategy",
          "type": "address"
        },
        {
          "internalType": "address",
          "name": "_token",
          "type": "address"
        }
      ],
      "name": "inCaseStrategyTokenGetStuck",
      "outputs": [],
      "stateMutability": "nonpayable",
      "type": "function"
    },
    {
      "inputs": [
        {
          "internalType": "address",
          "name": "_token",
          "type": "address"
        },
        {
          "internalType": "uint256",
          "name": "_amount",
          "type": "uint256"
        }
      ],
      "name": "inCaseTokensGetStuck",
      "outputs": [],
      "stateMutability": "nonpayable",
      "type": "function"
    },
    {
      "inputs": [],
      "name": "max",
      "outputs": [
        {
          "internalType": "uint256",
          "name": "",
          "type": "uint256"
        }
      ],
      "stateMutability": "view",
      "type": "function"
    },
    {
      "inputs": [],
      "name": "onesplit",
      "outputs": [
        {
          "internalType": "address",
          "name": "",
          "type": "address"
        }
      ],
      "stateMutability": "view",
      "type": "function"
    },
    {
      "inputs": [
        {
          "internalType": "address",
          "name": "_token",
          "type": "address"
        },
        {
          "internalType": "address",
          "name": "_strategy",
          "type": "address"
        }
      ],
      "name": "revokeStrategy",
      "outputs": [],
      "stateMutability": "nonpayable",
      "type": "function"
    },
    {
      "inputs": [],
      "name": "rewards",
      "outputs": [
        {
          "internalType": "address",
          "name": "",
          "type": "address"
        }
      ],
      "stateMutability": "view",
      "type": "function"
    },
    {
      "inputs": [
        {
          "internalType": "address",
          "name": "_input",
          "type": "address"
        },
        {
          "internalType": "address",
          "name": "_output",
          "type": "address"
        },
        {
          "internalType": "address",
          "name": "_converter",
          "type": "address"
        }
      ],
      "name": "setConverter",
      "outputs": [],
      "stateMutability": "nonpayable",
      "type": "function"
    },
    {
      "inputs": [
        {
          "internalType": "address",
          "name": "_governance",
          "type": "address"
        }
      ],
      "name": "setGovernance",
      "outputs": [],
      "stateMutability": "nonpayable",
      "type": "function"
    },
    {
      "inputs": [
        {
          "internalType": "address",
          "name": "_onesplit",
          "type": "address"
        }
      ],
      "name": "setOneSplit",
      "outputs": [],
      "stateMutability": "nonpayable",
      "type": "function"
    },
    {
      "inputs": [
        {
          "internalType": "address",
          "name": "_rewards",
          "type": "address"
        }
      ],
      "name": "setRewards",
      "outputs": [],
      "stateMutability": "nonpayable",
      "type": "function"
    },
    {
      "inputs": [
        {
          "internalType": "uint256",
          "name": "_split",
          "type": "uint256"
        }
      ],
      "name": "setSplit",
      "outputs": [],
      "stateMutability": "nonpayable",
      "type": "function"
    },
    {
      "inputs": [
        {
          "internalType": "address",
          "name": "_strategist",
          "type": "address"
        }
      ],
      "name": "setStrategist",
      "outputs": [],
      "stateMutability": "nonpayable",
      "type": "function"
    },
    {
      "inputs": [
        {
          "internalType": "address",
          "name": "_token",
          "type": "address"
        },
        {
          "internalType": "address",
          "name": "_strategy",
          "type": "address"
        }
      ],
      "name": "setStrategy",
      "outputs": [],
      "stateMutability": "nonpayable",
      "type": "function"
    },
    {
      "inputs": [
        {
          "internalType": "address",
          "name": "_token",
          "type": "address"
        },
        {
          "internalType": "address",
          "name": "_vault",
          "type": "address"
        }
      ],
      "name": "setVault",
      "outputs": [],
      "stateMutability": "nonpayable",
      "type": "function"
    },
    {
      "inputs": [],
      "name": "split",
      "outputs": [
        {
          "internalType": "uint256",
          "name": "",
          "type": "uint256"
        }
      ],
      "stateMutability": "view",
      "type": "function"
    },
    {
      "inputs": [
        {
          "internalType": "address",
          "name": "",
          "type": "address"
        }
      ],
      "name": "strategies",
      "outputs": [
        {
          "internalType": "address",
          "name": "",
          "type": "address"
        }
      ],
      "stateMutability": "view",
      "type": "function"
    },
    {
      "inputs": [],
      "name": "strategist",
      "outputs": [
        {
          "internalType": "address",
          "name": "",
          "type": "address"
        }
      ],
      "stateMutability": "view",
      "type": "function"
    },
    {
      "inputs": [
        {
          "internalType": "address",
          "name": "",
          "type": "address"
        }
      ],
      "name": "vaults",
      "outputs": [
        {
          "internalType": "address",
          "name": "",
          "type": "address"
        }
      ],
      "stateMutability": "view",
      "type": "function"
    },
    {
      "inputs": [
        {
          "internalType": "address",
          "name": "_token",
          "type": "address"
        },
        {
          "internalType": "uint256",
          "name": "_amount",
          "type": "uint256"
        }
      ],
      "name": "withdraw",
      "outputs": [],
      "stateMutability": "nonpayable",
      "type": "function"
    },
    {
      "inputs": [
        {
          "internalType": "address",
          "name": "_token",
          "type": "address"
        }
      ],
      "name": "withdrawAll",
      "outputs": [],
      "stateMutability": "nonpayable",
      "type": "function"
    },
    {
      "inputs": [
        {
          "internalType": "address",
          "name": "_strategy",
          "type": "address"
        },
        {
          "internalType": "address",
          "name": "_token",
          "type": "address"
        },
        {
          "internalType": "uint256",
          "name": "parts",
          "type": "uint256"
        }
      ],
      "name": "yearn",
      "outputs": [],
      "stateMutability": "nonpayable",
      "type": "function"
    }
  ],
  "bytecode": "0x60806040526101f460085534801561001657600080fd5b50611ca7806100266000396000f3fe608060405234801561001057600080fd5b50600436106101c45760003560e01c8063a1578b6a116100f9578063ccd0631811610097578063f3fef3a311610071578063f3fef3a31461042c578063f712adbb1461043f578063f765417614610452578063fa09e6301461045b57600080fd5b8063ccd06318146103d2578063e4f2494d146103e5578063ec38a8621461041957600080fd5b8063b02bf4b9116100d3578063b02bf4b914610386578063c494448e14610399578063c6d758cb146103ac578063c7b9d530146103bf57600080fd5b8063a1578b6a1461030c578063a622ee7c1461034a578063ab033ea91461037357600080fd5b80636ac5db1911610166578063714ccf7b11610140578063714ccf7b146102c057806372cb5d97146102d35780638da1df4d146102e65780639ec5a894146102f957600080fd5b80636ac5db19146102835780636dcd64e51461029a57806370a08231146102ad57600080fd5b806339ebf823116101a257806339ebf82314610221578063590bbb601461024a5780635aa6e6751461025d578063674e694f1461027057600080fd5b806304209f48146101c9578063197baa6d146101de5780631fe4a686146101f1575b600080fd5b6101dc6101d7366004611900565b61046e565b005b6101dc6101ec36600461187c565b610966565b600154610204906001600160a01b031681565b6040516001600160a01b0390911681526020015b60405180910390f35b61020461022f366004611842565b6005602052600090815260409020546001600160a01b031681565b6101dc61025836600461187c565b610a05565b600054610204906001600160a01b031681565b6101dc61027e36600461198f565b610a60565b61028c61271081565b604051908152602001610218565b61028c6102a8366004611900565b610a8f565b61028c6102bb366004611842565b610c2d565b6101dc6102ce36600461187c565b610cbd565b6101dc6102e136600461187c565b610d7a565b6101dc6102f4366004611842565b610ec3565b600354610204906001600160a01b031681565b61033a61031a36600461187c565b600760209081526000928352604080842090915290825290205460ff1681565b6040519015158152602001610218565b610204610358366004611842565b6004602052600090815260409020546001600160a01b031681565b6101dc610381366004611842565b610f0f565b6101dc610394366004611941565b610f5b565b6101dc6103a736600461187c565b611139565b6101dc6103ba366004611941565b611197565b6101dc6103cd366004611842565b6111ee565b6101dc6103e03660046118b5565b61123a565b6102046103f336600461187c565b60066020908152600092835260408084209091529082529020546001600160a01b031681565b6101dc610427366004611842565b6112b6565b6101dc61043a366004611941565b611302565b600254610204906001600160a01b031681565b61028c60085481565b6101dc610469366004611842565b61135e565b6001546001600160a01b031633148061049157506000546001600160a01b031633145b6104b65760405162461bcd60e51b81526004016104ad90611b80565b60405180910390fd5b6040516370a0823160e01b81523060048201526000906001600160a01b038416906370a082319060240160206040518083038186803b1580156104f857600080fd5b505afa15801561050c573d6000803e3d6000fd5b505050506040513d601f19601f8201168201806040525081019061053091906119a8565b6040516351cff8d960e01b81526001600160a01b038581166004830152919250908516906351cff8d990602401600060405180830381600087803b15801561057757600080fd5b505af115801561058b573d6000803e3d6000fd5b50506040516370a0823160e01b8152306004820152600092506001600160a01b03861691506370a082319060240160206040518083038186803b1580156105d157600080fd5b505afa1580156105e5573d6000803e3d6000fd5b505050506040513d601f19601f8201168201806040525081019061060991906119a8565b90508181111561095f57600061061f8284611401565b90506000866001600160a01b0316631f1fcd516040518163ffffffff1660e01b815260040160206040518083038186803b15801561065c57600080fd5b505afa158015610670573d6000803e3d6000fd5b505050506040513d601f19601f82011682018060405250810190610694919061185f565b6040516370a0823160e01b81523060048201529091506060906000906001600160a01b038416906370a082319060240160206040518083038186803b1580156106dc57600080fd5b505afa1580156106f0573d6000803e3d6000fd5b505050506040513d601f19601f8201168201806040525081019061071491906119a8565b600254909650610732906001600160a01b038a811691166000611414565b60025461074c906001600160a01b038a8116911686611414565b60025460405163085e2c5b60e01b81526001600160a01b038a81166004830152858116602483015260448201879052606482018a9052600060848301529091169063085e2c5b9060a40160006040518083038186803b1580156107ae57600080fd5b505afa1580156107c2573d6000803e3d6000fd5b505050506040513d6000823e601f3d908101601f191682016040526107ea91908101906119c1565b600254604051637153a8af60e11b81529194509192506001600160a01b039091169063e2a7515e9061082b908b908790899087908990600090600401611aae565b602060405180830381600087803b15801561084557600080fd5b505af1158015610859573d6000803e3d6000fd5b505050506040513d601f19601f8201168201806040525081019061087d91906119a8565b506040516370a0823160e01b81523060048201526001600160a01b038416906370a082319060240160206040518083038186803b1580156108bd57600080fd5b505afa1580156108d1573d6000803e3d6000fd5b505050506040513d601f19601f820116820180604052508101906108f591906119a8565b94508585111561095a576109098587611401565b9350600061092e6127106109286008548861157090919063ffffffff16565b9061157c565b905061093e846103948784611401565b600354610958906001600160a01b03868116911683611588565b505b505050505b5050505050565b6001546001600160a01b031633148061098957506000546001600160a01b031633145b6109a55760405162461bcd60e51b81526004016104ad90611b80565b6040516351cff8d960e01b81526001600160a01b0382811660048301528316906351cff8d9906024015b600060405180830381600087803b1580156109e957600080fd5b505af11580156109fd573d6000803e3d6000fd5b505050505050565b6000546001600160a01b03163314610a2f5760405162461bcd60e51b81526004016104ad90611b80565b6001600160a01b0391821660009081526007602090815260408083209390941682529190915220805460ff19169055565b6000546001600160a01b03163314610a8a5760405162461bcd60e51b81526004016104ad90611b80565b600855565b6040516370a0823160e01b81526001600160a01b03848116600483015260009182918516906370a082319060240160206040518083038186803b158015610ad557600080fd5b505afa158015610ae9573d6000803e3d6000fd5b505050506040513d601f19601f82011682018060405250810190610b0d91906119a8565b90506000856001600160a01b0316631f1fcd516040518163ffffffff1660e01b815260040160206040518083038186803b158015610b4a57600080fd5b505afa158015610b5e573d6000803e3d6000fd5b505050506040513d601f19601f82011682018060405250810190610b82919061185f565b60025460405163085e2c5b60e01b81526001600160a01b038881166004830152808416602483015260448201869052606482018890526000608483015292935091169063085e2c5b9060a40160006040518083038186803b158015610be657600080fd5b505afa158015610bfa573d6000803e3d6000fd5b505050506040513d6000823e601f3d908101601f19168201604052610c2291908101906119c1565b509695505050505050565b6001600160a01b03808216600090815260056020908152604080832054815163722713f760e01b815291519394169263722713f792600480840193919291829003018186803b158015610c7f57600080fd5b505afa158015610c93573d6000803e3d6000fd5b505050506040513d601f19601f82011682018060405250810190610cb791906119a8565b92915050565b6001546001600160a01b0316331480610ce057506000546001600160a01b031633145b610cfc5760405162461bcd60e51b81526004016104ad90611b5b565b6001600160a01b038281166000908152600460205260409020541615610d4c5760405162461bcd60e51b81526020600482015260056024820152641d985d5b1d60da1b60448201526064016104ad565b6001600160a01b03918216600090815260046020526040902080546001600160a01b03191691909216179055565b6001546001600160a01b0316331480610d9d57506000546001600160a01b031633145b610db95760405162461bcd60e51b81526004016104ad90611b5b565b6001600160a01b0380831660009081526007602090815260408083209385168352929052205460ff161515600114610e1f5760405162461bcd60e51b815260206004820152600960248201526808585c1c1c9bdd995960ba1b60448201526064016104ad565b6001600160a01b03808316600090815260056020526040902054168015610e9457806001600160a01b031663853828b66040518163ffffffff1660e01b8152600401600060405180830381600087803b158015610e7b57600080fd5b505af1158015610e8f573d6000803e3d6000fd5b505050505b506001600160a01b03918216600090815260056020526040902080546001600160a01b03191691909216179055565b6000546001600160a01b03163314610eed5760405162461bcd60e51b81526004016104ad90611b80565b600280546001600160a01b0319166001600160a01b0392909216919091179055565b6000546001600160a01b03163314610f395760405162461bcd60e51b81526004016104ad90611b80565b600080546001600160a01b0319166001600160a01b0392909216919091179055565b6001600160a01b038083166000908152600560209081526040808320548151631f1fcd5160e01b815291519416938492631f1fcd519260048082019391829003018186803b158015610fac57600080fd5b505afa158015610fc0573d6000803e3d6000fd5b505050506040513d601f19601f82011682018060405250810190610fe4919061185f565b9050836001600160a01b0316816001600160a01b0316146110cc576001600160a01b038085166000818152600660209081526040808320868616845290915290205490911690611035908286611588565b60405163def2489b60e01b81526001600160a01b03848116600483015282169063def2489b90602401602060405180830381600087803b15801561107857600080fd5b505af115801561108c573d6000803e3d6000fd5b505050506040513d601f19601f820116820180604052508101906110b091906119a8565b93506110c66001600160a01b0383168486611588565b506110e0565b6110e06001600160a01b0385168385611588565b816001600160a01b031663d0e30db06040518163ffffffff1660e01b8152600401600060405180830381600087803b15801561111b57600080fd5b505af115801561112f573d6000803e3d6000fd5b5050505050505050565b6000546001600160a01b031633146111635760405162461bcd60e51b81526004016104ad90611b80565b6001600160a01b0391821660009081526007602090815260408083209390941682529190915220805460ff19166001179055565b6001546001600160a01b03163314806111ba57506000546001600160a01b031633145b6111d65760405162461bcd60e51b81526004016104ad90611b80565b6111ea6001600160a01b0383163383611588565b5050565b6000546001600160a01b031633146112185760405162461bcd60e51b81526004016104ad90611b80565b600180546001600160a01b0319166001600160a01b0392909216919091179055565b6001546001600160a01b031633148061125d57506000546001600160a01b031633145b6112795760405162461bcd60e51b81526004016104ad90611b5b565b6001600160a01b03928316600090815260066020908152604080832094861683529390529190912080546001600160a01b03191691909216179055565b6000546001600160a01b031633146112e05760405162461bcd60e51b81526004016104ad90611b80565b600380546001600160a01b0319166001600160a01b0392909216919091179055565b6001600160a01b038281166000908152600460205260409020541633146113545760405162461bcd60e51b8152602060048201526006602482015265085d985d5b1d60d21b60448201526064016104ad565b6111ea82826115b8565b6001546001600160a01b031633148061138157506000546001600160a01b031633145b61139d5760405162461bcd60e51b81526004016104ad90611b5b565b6001600160a01b0380821660009081526005602052604080822054815163429c145b60e11b8152915193169263853828b69260048084019391929182900301818387803b1580156113ed57600080fd5b505af115801561095f573d6000803e3d6000fd5b600061140d8284611be6565b9392505050565b80158061149d5750604051636eb1769f60e11b81523060048201526001600160a01b03838116602483015284169063dd62ed3e9060440160206040518083038186803b15801561146357600080fd5b505afa158015611477573d6000803e3d6000fd5b505050506040513d601f19601f8201168201806040525081019061149b91906119a8565b155b6115085760405162461bcd60e51b815260206004820152603660248201527f5361666545524332303a20617070726f76652066726f6d206e6f6e2d7a65726f60448201527520746f206e6f6e2d7a65726f20616c6c6f77616e636560501b60648201526084016104ad565b6040516001600160a01b03831660248201526044810182905261156b90849063095ea7b360e01b906064015b60408051601f198184030181529190526020810180516001600160e01b03166001600160e01b0319909316929092179091526115f8565b505050565b600061140d8284611bc7565b600061140d8284611ba5565b6040516001600160a01b03831660248201526044810182905261156b90849063a9059cbb60e01b90606401611534565b6001600160a01b0382811660009081526005602052604090819020549051632e1a7d4d60e01b815260048101849052911690632e1a7d4d906024016109cf565b600061164d826040518060400160405280602081526020017f5361666545524332303a206c6f772d6c6576656c2063616c6c206661696c6564815250856001600160a01b03166116ca9092919063ffffffff16565b80519091501561156b578080602001905181019061166b919061196d565b61156b5760405162461bcd60e51b815260206004820152602a60248201527f5361666545524332303a204552433230206f7065726174696f6e20646964206e6044820152691bdd081cdd58d8d9595960b21b60648201526084016104ad565b60606116d984846000856116e1565b949350505050565b6060824710156117425760405162461bcd60e51b815260206004820152602660248201527f416464726573733a20696e73756666696369656e742062616c616e636520666f6044820152651c8818d85b1b60d21b60648201526084016104ad565b843b6117905760405162461bcd60e51b815260206004820152601d60248201527f416464726573733a2063616c6c20746f206e6f6e2d636f6e747261637400000060448201526064016104ad565b600080866001600160a01b031685876040516117ac9190611a92565b60006040518083038185875af1925050503d80600081146117e9576040519150601f19603f3d011682016040523d82523d6000602084013e6117ee565b606091505b50915091506117fe828286611809565b979650505050505050565b6060831561181857508161140d565b8251156118285782518084602001fd5b8160405162461bcd60e51b81526004016104ad9190611b28565b60006020828403121561185457600080fd5b813561140d81611c59565b60006020828403121561187157600080fd5b815161140d81611c59565b6000806040838503121561188f57600080fd5b823561189a81611c59565b915060208301356118aa81611c59565b809150509250929050565b6000806000606084860312156118ca57600080fd5b83356118d581611c59565b925060208401356118e581611c59565b915060408401356118f581611c59565b809150509250925092565b60008060006060848603121561191557600080fd5b833561192081611c59565b9250602084013561193081611c59565b929592945050506040919091013590565b6000806040838503121561195457600080fd5b823561195f81611c59565b946020939093013593505050565b60006020828403121561197f57600080fd5b8151801515811461140d57600080fd5b6000602082840312156119a157600080fd5b5035919050565b6000602082840312156119ba57600080fd5b5051919050565b600080604083850312156119d457600080fd5b8251915060208084015167ffffffffffffffff808211156119f457600080fd5b818601915086601f830112611a0857600080fd5b815181811115611a1a57611a1a611c43565b8060051b604051601f19603f83011681018181108582111715611a3f57611a3f611c43565b604052828152858101935084860182860187018b1015611a5e57600080fd5b600095505b83861015611a81578051855260019590950194938601938601611a63565b508096505050505050509250929050565b60008251611aa4818460208701611bfd565b9190910192915050565b6001600160a01b0387811682528616602080830191909152604082018690526060820185905260c06080830181905284519083018190526000918581019160e085019190845b81811015611b1057845184529382019392820192600101611af4565b50505060a09390930193909352509695505050505050565b6020815260008251806020840152611b47816040850160208701611bfd565b601f01601f19169190910160400192915050565b6020808252600b908201526a085cdd1c985d1959da5cdd60aa1b604082015260600190565b6020808252600b908201526a21676f7665726e616e636560a81b604082015260600190565b600082611bc257634e487b7160e01b600052601260045260246000fd5b500490565b6000816000190483118215151615611be157611be1611c2d565b500290565b600082821015611bf857611bf8611c2d565b500390565b60005b83811015611c18578181015183820152602001611c00565b83811115611c27576000848401525b50505050565b634e487b7160e01b600052601160045260246000fd5b634e487b7160e01b600052604160045260246000fd5b6001600160a01b0381168114611c6e57600080fd5b5056fea26469706673582212202b5eb38980814a1e17d36b3d7d18c67710dea23d67d296ba0e418a205c582a9464736f6c63430008050033",
  "linkReferences": {},
  "deployedLinkReferences": {}
}