{
  "_format": "hh-sol-artifact-1",
  "contractName": "Comp",
  "sourceName": "contracts/vendor/compound/Comp.sol",
  "abi": [
    {
      "inputs": [
        {
          "internalType": "address",
          "name": "account",
          "type": "address"
        }
      ],
      "stateMutability": "nonpayable",
      "type": "constructor"
    },
    {
      "anonymous": false,
      "inputs": [
        {
          "indexed": true,
          "internalType": "address",
          "name": "owner",
          "type": "address"
        },
        {
          "indexed": true,
          "internalType": "address",
          "name": "spender",
          "type": "address"
        },
        {
          "indexed": false,
          "internalType": "uint256",
          "name": "amount",
          "type": "uint256"
        }
      ],
      "name": "Approval",
      "type": "event"
    },
    {
      "anonymous": false,
      "inputs": [
        {
          "indexed": true,
          "internalType": "address",
          "name": "delegator",
          "type": "address"
        },
        {
          "indexed": true,
          "internalType": "address",
          "name": "fromDelegate",
          "type": "address"
        },
        {
          "indexed": true,
          "internalType": "address",
          "name": "toDelegate",
          "type": "address"
        }
      ],
      "name": "DelegateChanged",
      "type": "event"
    },
    {
      "anonymous": false,
      "inputs": [
        {
          "indexed": true,
          "internalType": "address",
          "name": "delegate",
          "type": "address"
        },
        {
          "indexed": false,
          "internalType": "uint256",
          "name": "previousBalance",
          "type": "uint256"
        },
        {
          "indexed": false,
          "internalType": "uint256",
          "name": "newBalance",
          "type": "uint256"
        }
      ],
      "name": "DelegateVotesChanged",
      "type": "event"
    },
    {
      "anonymous": false,
      "inputs": [
        {
          "indexed": true,
          "internalType": "address",
          "name": "from",
          "type": "address"
        },
        {
          "indexed": true,
          "internalType": "address",
          "name": "to",
          "type": "address"
        },
        {
          "indexed": false,
          "internalType": "uint256",
          "name": "amount",
          "type": "uint256"
        }
      ],
      "name": "Transfer",
      "type": "event"
    },
    {
      "inputs": [],
      "name": "DELEGATION_TYPEHASH",
      "outputs": [
        {
          "internalType": "bytes32",
          "name": "",
          "type": "bytes32"
        }
      ],
      "stateMutability": "view",
      "type": "function"
    },
    {
      "inputs": [],
      "name": "DOMAIN_TYPEHASH",
      "outputs": [
        {
          "internalType": "bytes32",
          "name": "",
          "type": "bytes32"
        }
      ],
      "stateMutability": "view",
      "type": "function"
    },
    {
      "inputs": [
        {
          "internalType": "address",
          "name": "account",
          "type": "address"
        },
        {
          "internalType": "address",
          "name": "spender",
          "type": "address"
        }
      ],
      "name": "allowance",
      "outputs": [
        {
          "internalType": "uint256",
          "name": "",
          "type": "uint256"
        }
      ],
      "stateMutability": "view",
      "type": "function"
    },
    {
      "inputs": [
        {
          "internalType": "address",
          "name": "spender",
          "type": "address"
        },
        {
          "internalType": "uint256",
          "name": "rawAmount",
          "type": "uint256"
        }
      ],
      "name": "approve",
      "outputs": [
        {
          "internalType": "bool",
          "name": "",
          "type": "bool"
        }
      ],
      "stateMutability": "nonpayable",
      "type": "function"
    },
    {
      "inputs": [
        {
          "internalType": "address",
          "name": "account",
          "type": "address"
        }
      ],
      "name": "balanceOf",
      "outputs": [
        {
          "internalType": "uint256",
          "name": "",
          "type": "uint256"
        }
      ],
      "stateMutability": "view",
      "type": "function"
    },
    {
      "inputs": [
        {
          "internalType": "address",
          "name": "",
          "type": "address"
        },
        {
          "internalType": "uint32",
          "name": "",
          "type": "uint32"
        }
      ],
      "name": "checkpoints",
      "outputs": [
        {
          "internalType": "uint32",
          "name": "fromBlock",
          "type": "uint32"
        },
        {
          "internalType": "uint96",
          "name": "votes",
          "type": "uint96"
        }
      ],
      "stateMutability": "view",
      "type": "function"
    },
    {
      "inputs": [],
      "name": "decimals",
      "outputs": [
        {
          "internalType": "uint8",
          "name": "",
          "type": "uint8"
        }
      ],
      "stateMutability": "view",
      "type": "function"
    },
    {
      "inputs": [
        {
          "internalType": "address",
          "name": "delegatee",
          "type": "address"
        }
      ],
      "name": "delegate",
      "outputs": [],
      "stateMutability": "nonpayable",
      "type": "function"
    },
    {
      "inputs": [
        {
          "internalType": "address",
          "name": "delegatee",
          "type": "address"
        },
        {
          "internalType": "uint256",
          "name": "nonce",
          "type": "uint256"
        },
        {
          "internalType": "uint256",
          "name": "expiry",
          "type": "uint256"
        },
        {
          "internalType": "uint8",
          "name": "v",
          "type": "uint8"
        },
        {
          "internalType": "bytes32",
          "name": "r",
          "type": "bytes32"
        },
        {
          "internalType": "bytes32",
          "name": "s",
          "type": "bytes32"
        }
      ],
      "name": "delegateBySig",
      "outputs": [],
      "stateMutability": "nonpayable",
      "type": "function"
    },
    {
      "inputs": [
        {
          "internalType": "address",
          "name": "",
          "type": "address"
        }
      ],
      "name": "delegates",
      "outputs": [
        {
          "internalType": "address",
          "name": "",
          "type": "address"
        }
      ],
      "stateMutability": "view",
      "type": "function"
    },
    {
      "inputs": [
        {
          "internalType": "address",
          "name": "account",
          "type": "address"
        }
      ],
      "name": "getCurrentVotes",
      "outputs": [
        {
          "internalType": "uint96",
          "name": "",
          "type": "uint96"
        }
      ],
      "stateMutability": "view",
      "type": "function"
    },
    {
      "inputs": [
        {
          "internalType": "address",
          "name": "account",
          "type": "address"
        },
        {
          "internalType": "uint256",
          "name": "blockNumber",
          "type": "uint256"
        }
      ],
      "name": "getPriorVotes",
      "outputs": [
        {
          "internalType": "uint96",
          "name": "",
          "type": "uint96"
        }
      ],
      "stateMutability": "view",
      "type": "function"
    },
    {
      "inputs": [],
      "name": "name",
      "outputs": [
        {
          "internalType": "string",
          "name": "",
          "type": "string"
        }
      ],
      "stateMutability": "view",
      "type": "function"
    },
    {
      "inputs": [
        {
          "internalType": "address",
          "name": "",
          "type": "address"
        }
      ],
      "name": "nonces",
      "outputs": [
        {
          "internalType": "uint256",
          "name": "",
          "type": "uint256"
        }
      ],
      "stateMutability": "view",
      "type": "function"
    },
    {
      "inputs": [
        {
          "internalType": "address",
          "name": "",
          "type": "address"
        }
      ],
      "name": "numCheckpoints",
      "outputs": [
        {
          "internalType": "uint32",
          "name": "",
          "type": "uint32"
        }
      ],
      "stateMutability": "view",
      "type": "function"
    },
    {
      "inputs": [],
      "name": "symbol",
      "outputs": [
        {
          "internalType": "string",
          "name": "",
          "type": "string"
        }
      ],
      "stateMutability": "view",
      "type": "function"
    },
    {
      "inputs": [],
      "name": "totalSupply",
      "outputs": [
        {
          "internalType": "uint256",
          "name": "",
          "type": "uint256"
        }
      ],
      "stateMutability": "view",
      "type": "function"
    },
    {
      "inputs": [
        {
          "internalType": "address",
          "name": "dst",
          "type": "address"
        },
        {
          "internalType": "uint256",
          "name": "rawAmount",
          "type": "uint256"
        }
      ],
      "name": "transfer",
      "outputs": [
        {
          "internalType": "bool",
          "name": "",
          "type": "bool"
        }
      ],
      "stateMutability": "nonpayable",
      "type": "function"
    },
    {
      "inputs": [
        {
          "internalType": "address",
          "name": "src",
          "type": "address"
        },
        {
          "internalType": "address",
          "name": "dst",
          "type": "address"
        },
        {
          "internalType": "uint256",
          "name": "rawAmount",
          "type": "uint256"
        }
      ],
      "name": "transferFrom",
      "outputs": [
        {
          "internalType": "bool",
          "name": "",
          "type": "bool"
        }
      ],
      "stateMutability": "nonpayable",
      "type": "function"
    }
  ],
  "bytecode": "0x60c0604052600860808190526710dbdb5c1bdd5b9960c21b60a09081526200002b9160009190620000ff565b50604080518082019091526004808252630434f4d560e41b60209092019182526200005991600191620000ff565b503480156200006757600080fd5b5060405162001aa338038062001aa38339810160408190526200008a916200019b565b6001600160a01b03811660008181526003602052604080822080546001600160601b0319166a084595161401484a00000090811790915590517fddf252ad1be2c89b69c2b068fc378daa952ba7f163c4a11628f55a4df523b3ef91620000f091620001cb565b60405180910390a350620001d4565b828054600181600116156101000203166002900490600052602060002090601f016020900481019282601f106200014257805160ff191683800117855562000172565b8280016001018555821562000172579182015b828111156200017257825182559160200191906001019062000155565b506200018092915062000184565b5090565b5b8082111562000180576000815560010162000185565b600060208284031215620001ad578081fd5b81516001600160a01b0381168114620001c4578182fd5b9392505050565b90815260200190565b6118bf80620001e46000396000f3fe608060405234801561001057600080fd5b50600436106101215760003560e01c806370a08231116100ad578063b4b5ea5711610071578063b4b5ea571461025f578063c3cda52014610272578063dd62ed3e14610285578063e7a324dc14610298578063f1127ed8146102a057610121565b806370a08231146101fe578063782d6fe1146102115780637ecebe001461023157806395d89b4114610244578063a9059cbb1461024c57610121565b806323b872dd116100f457806323b872dd14610181578063313ce56714610194578063587cde1e146101a95780635c19a95c146101c95780636fcfff45146101de57610121565b806306fdde0314610126578063095ea7b31461014457806318160ddd1461016457806320606b7014610179575b600080fd5b61012e6102c1565b60405161013b9190611475565b60405180910390f35b610157610152366004611294565b61034f565b60405161013b91906113fb565b61016c61040e565b60405161013b9190611406565b61016c61041d565b61015761018f366004611254565b610441565b61019c610588565b60405161013b91906116c7565b6101bc6101b7366004611205565b61058d565b60405161013b91906113e7565b6101dc6101d7366004611205565b6105a8565b005b6101f16101ec366004611205565b6105b5565b60405161013b9190611697565b61016c61020c366004611205565b6105cd565b61022461021f366004611294565b6105f1565b60405161013b91906116d5565b61016c61023f366004611205565b610808565b61012e61081a565b61015761025a366004611294565b610874565b61022461026d366004611205565b6108b0565b6101dc6102803660046112be565b610921565b61016c610293366004611220565b610afd565b61016c610b31565b6102b36102ae36600461131d565b610b55565b60405161013b9291906116a8565b6000805460408051602060026001851615610100026000190190941693909304601f810184900484028201840190925281815292918301828280156103475780601f1061031c57610100808354040283529160200191610347565b820191906000526020600020905b81548152906001019060200180831161032a57829003601f168201915b505050505081565b600080600019831415610365575060001961038a565b6103878360405180606001604052806025815260200161174f60259139610b8a565b90505b3360008181526002602090815260408083206001600160a01b03891680855292529182902080546001600160601b0319166001600160601b03861617905590519091907f8c5be1e5ebec7d5bd14f71427d1e84f3dd0314c0f7b2291e5b200ac8c7c3b925906103fa9085906116d5565b60405180910390a360019150505b92915050565b6a084595161401484a00000081565b7f8cad95687ba82c2ce50e74f7b754645e5117c3a5bec8151c0726d5857980a86681565b6001600160a01b03831660009081526002602090815260408083203380855290835281842054825160608101909352602580845291936001600160601b03909116928592610499928892919061174f90830139610b8a565b9050866001600160a01b0316836001600160a01b0316141580156104c657506001600160601b0382811614155b156105705760006104f083836040518060600160405280603d8152602001611826603d9139610bb9565b6001600160a01b038981166000818152600260209081526040808320948a16808452949091529081902080546001600160601b0319166001600160601b0386161790555192935090917f8c5be1e5ebec7d5bd14f71427d1e84f3dd0314c0f7b2291e5b200ac8c7c3b925906105669085906116d5565b60405180910390a3505b61057b878783610bf8565b5060019695505050505050565b601281565b6004602052600090815260409020546001600160a01b031681565b6105b23382610da3565b50565b60066020526000908152604090205463ffffffff1681565b6001600160a01b03166000908152600360205260409020546001600160601b031690565b600043821061061b5760405162461bcd60e51b815260040161061290611554565b60405180910390fd5b6001600160a01b03831660009081526006602052604090205463ffffffff1680610649576000915050610408565b6001600160a01b038416600090815260056020908152604080832063ffffffff6000198601811685529252909120541683106106c5576001600160a01b03841660009081526005602090815260408083206000199490940163ffffffff1683529290522054600160201b90046001600160601b03169050610408565b6001600160a01b038416600090815260056020908152604080832083805290915290205463ffffffff16831015610700576000915050610408565b600060001982015b8163ffffffff168163ffffffff1611156107c357600282820363ffffffff160481036107326111d7565b506001600160a01b038716600090815260056020908152604080832063ffffffff858116855290835292819020815180830190925254928316808252600160201b9093046001600160601b0316918101919091529087141561079e576020015194506104089350505050565b805163ffffffff168711156107b5578193506107bc565b6001820392505b5050610708565b506001600160a01b038516600090815260056020908152604080832063ffffffff909416835292905220546001600160601b03600160201b9091041691505092915050565b60076020526000908152604090205481565b60018054604080516020600284861615610100026000190190941693909304601f810184900484028201840190925281815292918301828280156103475780601f1061031c57610100808354040283529160200191610347565b6000806108998360405180606001604052806026815260200161177460269139610b8a565b90506108a6338583610bf8565b5060019392505050565b6001600160a01b03811660009081526006602052604081205463ffffffff16806108db57600061091a565b6001600160a01b0383166000908152600560209081526040808320600019850163ffffffff168452909152902054600160201b90046001600160601b03165b9392505050565b60007f8cad95687ba82c2ce50e74f7b754645e5117c3a5bec8151c0726d5857980a8666000604051610953919061135c565b6040518091039020610963610e2d565b306040516020016109779493929190611433565b60405160208183030381529060405280519060200120905060007fe48329057bfd03d55e49b547132e39cffd9c1820ad7b9d4c5307691425d15adf8888886040516020016109c8949392919061140f565b604051602081830303815290604052805190602001209050600082826040516020016109f59291906113cc565b604051602081830303815290604052805190602001209050600060018288888860405160008152602001604052604051610a329493929190611457565b6020604051602081039080840390855afa158015610a54573d6000803e3d6000fd5b5050604051601f1901519150506001600160a01b038116610a875760405162461bcd60e51b8152600401610612906114c8565b6001600160a01b03811660009081526007602052604090208054600181019091558914610ac65760405162461bcd60e51b81526004016106129061159b565b87421115610ae65760405162461bcd60e51b81526004016106129061150e565b610af0818b610da3565b505050505b505050505050565b6001600160a01b0391821660009081526002602090815260408083209390941682529190915220546001600160601b031690565b7fe48329057bfd03d55e49b547132e39cffd9c1820ad7b9d4c5307691425d15adf81565b600560209081526000928352604080842090915290825290205463ffffffff811690600160201b90046001600160601b031682565b600081600160601b8410610bb15760405162461bcd60e51b81526004016106129190611475565b509192915050565b6000836001600160601b0316836001600160601b031611158290610bf05760405162461bcd60e51b81526004016106129190611475565b505050900390565b6001600160a01b038316610c1e5760405162461bcd60e51b81526004016106129061163a565b6001600160a01b038216610c445760405162461bcd60e51b8152600401610612906115dd565b6001600160a01b038316600090815260036020908152604091829020548251606081019093526036808452610c8f936001600160601b03909216928592919061171990830139610bb9565b6001600160a01b03848116600090815260036020908152604080832080546001600160601b0319166001600160601b03968716179055928616825290829020548251606081019093526030808452610cf794919091169285929091906117f690830139610e31565b6001600160a01b038381166000818152600360205260409081902080546001600160601b0319166001600160601b0395909516949094179093559151908516907fddf252ad1be2c89b69c2b068fc378daa952ba7f163c4a11628f55a4df523b3ef90610d649085906116d5565b60405180910390a36001600160a01b03808416600090815260046020526040808220548584168352912054610d9e92918216911683610e6d565b505050565b6001600160a01b03808316600081815260046020818152604080842080546003845282862054949093528787166001600160a01b031984168117909155905191909516946001600160601b039092169391928592917f3134e8a2e6d97e929a7e54011ea5485d7d196dd5f0ba4d4ef95803e8e3fc257f9190a4610e27828483610e6d565b50505050565b4690565b6000838301826001600160601b038087169083161015610e645760405162461bcd60e51b81526004016106129190611475565b50949350505050565b816001600160a01b0316836001600160a01b031614158015610e9857506000816001600160601b0316115b15610d9e576001600160a01b03831615610f50576001600160a01b03831660009081526006602052604081205463ffffffff169081610ed8576000610f17565b6001600160a01b0385166000908152600560209081526040808320600019860163ffffffff168452909152902054600160201b90046001600160601b03165b90506000610f3e82856040518060600160405280602881526020016117ce60289139610bb9565b9050610f4c86848484610ffb565b5050505b6001600160a01b03821615610d9e576001600160a01b03821660009081526006602052604081205463ffffffff169081610f8b576000610fca565b6001600160a01b0384166000908152600560209081526040808320600019860163ffffffff168452909152902054600160201b90046001600160601b03165b90506000610ff1828560405180606001604052806027815260200161186360279139610e31565b9050610af5858484845b600061101f4360405180606001604052806034815260200161179a603491396111b0565b905060008463ffffffff1611801561106857506001600160a01b038516600090815260056020908152604080832063ffffffff6000198901811685529252909120548282169116145b156110c7576001600160a01b0385166000908152600560209081526040808320600019880163ffffffff168452909152902080546fffffffffffffffffffffffff000000001916600160201b6001600160601b03851602179055611166565b60408051808201825263ffffffff80841682526001600160601b0380861660208085019182526001600160a01b038b166000818152600583528781208c871682528352878120965187549451909516600160201b026fffffffffffffffffffffffff000000001995871663ffffffff19958616179590951694909417909555938252600690935292909220805460018801909316929091169190911790555b846001600160a01b03167fdec2bacdd2f05b59de34da9b523dff8be42e5e38e818c82fdb0bae774387a72484846040516111a19291906116e9565b60405180910390a25050505050565b600081600160201b8410610bb15760405162461bcd60e51b81526004016106129190611475565b604080518082019091526000808252602082015290565b80356001600160a01b038116811461040857600080fd5b600060208284031215611216578081fd5b61091a83836111ee565b60008060408385031215611232578081fd5b61123c84846111ee565b915061124b84602085016111ee565b90509250929050565b600080600060608486031215611268578081fd5b833561127381611703565b9250602084013561128381611703565b929592945050506040919091013590565b600080604083850312156112a6578182fd5b6112b084846111ee565b946020939093013593505050565b60008060008060008060c087890312156112d6578182fd5b6112e088886111ee565b95506020870135945060408701359350606087013560ff81168114611303578283fd5b9598949750929560808101359460a0909101359350915050565b6000806040838503121561132f578182fd5b61133984846111ee565b9150602083013563ffffffff81168114611351578182fd5b809150509250929050565b600080835460018082166000811461137b5760018114611392576113c1565b60ff198316865260028304607f16860193506113c1565b600283048786526020808720875b838110156113b95781548a8201529085019082016113a0565b505050860193505b509195945050505050565b61190160f01b81526002810192909252602282015260420190565b6001600160a01b0391909116815260200190565b901515815260200190565b90815260200190565b9384526001600160a01b039290921660208401526040830152606082015260800190565b938452602084019290925260408301526001600160a01b0316606082015260800190565b93845260ff9290921660208401526040830152606082015260800190565b6000602080835283518082850152825b818110156114a157858101830151858201604001528201611485565b818111156114b25783604083870101525b50601f01601f1916929092016040019392505050565b60208082526026908201527f436f6d703a3a64656c656761746542795369673a20696e76616c6964207369676040820152656e617475726560d01b606082015260800190565b60208082526026908201527f436f6d703a3a64656c656761746542795369673a207369676e617475726520656040820152651e1c1a5c995960d21b606082015260800190565b60208082526027908201527f436f6d703a3a6765745072696f72566f7465733a206e6f742079657420646574604082015266195c9b5a5b995960ca1b606082015260800190565b60208082526022908201527f436f6d703a3a64656c656761746542795369673a20696e76616c6964206e6f6e604082015261636560f01b606082015260800190565b6020808252603a908201527f436f6d703a3a5f7472616e73666572546f6b656e733a2063616e6e6f7420747260408201527f616e7366657220746f20746865207a65726f2061646472657373000000000000606082015260800190565b6020808252603c908201527f436f6d703a3a5f7472616e73666572546f6b656e733a2063616e6e6f7420747260408201527f616e736665722066726f6d20746865207a65726f206164647265737300000000606082015260800190565b63ffffffff91909116815260200190565b63ffffffff9290921682526001600160601b0316602082015260400190565b60ff91909116815260200190565b6001600160601b0391909116815260200190565b6001600160601b0392831681529116602082015260400190565b6001600160a01b03811681146105b257600080fdfe436f6d703a3a5f7472616e73666572546f6b656e733a207472616e7366657220616d6f756e7420657863656564732062616c616e6365436f6d703a3a617070726f76653a20616d6f756e7420657863656564732039362062697473436f6d703a3a7472616e736665723a20616d6f756e7420657863656564732039362062697473436f6d703a3a5f7772697465436865636b706f696e743a20626c6f636b206e756d62657220657863656564732033322062697473436f6d703a3a5f6d6f7665566f7465733a20766f746520616d6f756e7420756e646572666c6f7773436f6d703a3a5f7472616e73666572546f6b656e733a207472616e7366657220616d6f756e74206f766572666c6f7773436f6d703a3a7472616e7366657246726f6d3a207472616e7366657220616d6f756e742065786365656473207370656e64657220616c6c6f77616e6365436f6d703a3a5f6d6f7665566f7465733a20766f746520616d6f756e74206f766572666c6f7773a26469706673582212202bba4bb0f1ad9c702690c12598c48802fd3cbe4da7b60b83198a5d1943f619fd64736f6c634300060c0033",
  "linkReferences": {},
  "deployedLinkReferences": {}
}