{
  "_format": "hh-sol-artifact-1",
  "contractName": "DelegatedController",
  "sourceName": "contracts/yearn/controllers/DelegatedController.sol",
  "abi": [
    {
      "inputs": [
        {
          "internalType": "address",
          "name": "_rewards",
          "type": "address"
        }
      ],
      "stateMutability": "nonpayable",
      "type": "constructor"
    },
    {
      "inputs": [
        {
          "internalType": "address",
          "name": "_vault",
          "type": "address"
        }
      ],
      "name": "balanceOf",
      "outputs": [
        {
          "internalType": "uint256",
          "name": "",
          "type": "uint256"
        }
      ],
      "stateMutability": "view",
      "type": "function"
    },
    {
      "inputs": [
        {
          "internalType": "address",
          "name": "_vault",
          "type": "address"
        }
      ],
      "name": "claimInsurance",
      "outputs": [],
      "stateMutability": "nonpayable",
      "type": "function"
    },
    {
      "inputs": [
        {
          "internalType": "address",
          "name": "",
          "type": "address"
        },
        {
          "internalType": "address",
          "name": "",
          "type": "address"
        }
      ],
      "name": "converters",
      "outputs": [
        {
          "internalType": "address",
          "name": "",
          "type": "address"
        }
      ],
      "stateMutability": "view",
      "type": "function"
    },
    {
      "inputs": [
        {
          "internalType": "address",
          "name": "_strategy",
          "type": "address"
        },
        {
          "internalType": "uint256",
          "name": "parts",
          "type": "uint256"
        }
      ],
      "name": "delegatedHarvest",
      "outputs": [],
      "stateMutability": "nonpayable",
      "type": "function"
    },
    {
      "inputs": [
        {
          "internalType": "address",
          "name": "_vault",
          "type": "address"
        },
        {
          "internalType": "uint256",
          "name": "_amount",
          "type": "uint256"
        }
      ],
      "name": "earn",
      "outputs": [],
      "stateMutability": "nonpayable",
      "type": "function"
    },
    {
      "inputs": [
        {
          "internalType": "address",
          "name": "_strategy",
          "type": "address"
        },
        {
          "internalType": "address",
          "name": "_token",
          "type": "address"
        },
        {
          "internalType": "uint256",
          "name": "parts",
          "type": "uint256"
        }
      ],
      "name": "getExpectedReturn",
      "outputs": [
        {
          "internalType": "uint256",
          "name": "expected",
          "type": "uint256"
        }
      ],
      "stateMutability": "view",
      "type": "function"
    },
    {
      "inputs": [],
      "name": "governance",
      "outputs": [
        {
          "internalType": "address",
          "name": "",
          "type": "address"
        }
      ],
      "stateMutability": "view",
      "type": "function"
    },
    {
      "inputs": [
        {
          "internalType": "address",
          "name": "_strategy",
          "type": "address"
        },
        {
          "internalType": "address",
          "name": "_token",
          "type": "address"
        },
        {
          "internalType": "uint256",
          "name": "parts",
          "type": "uint256"
        }
      ],
      "name": "harvest",
      "outputs": [],
      "stateMutability": "nonpayable",
      "type": "function"
    },
    {
      "inputs": [
        {
          "internalType": "address",
          "name": "_strategy",
          "type": "address"
        },
        {
          "internalType": "address",
          "name": "_token",
          "type": "address"
        }
      ],
      "name": "inCaseStrategyGetStruck",
      "outputs": [],
      "stateMutability": "nonpayable",
      "type": "function"
    },
    {
      "inputs": [
        {
          "internalType": "address",
          "name": "_token",
          "type": "address"
        },
        {
          "internalType": "uint256",
          "name": "_amount",
          "type": "uint256"
        }
      ],
      "name": "inCaseTokensGetStuck",
      "outputs": [],
      "stateMutability": "nonpayable",
      "type": "function"
    },
    {
      "inputs": [
        {
          "internalType": "address",
          "name": "",
          "type": "address"
        }
      ],
      "name": "isStrategy",
      "outputs": [
        {
          "internalType": "bool",
          "name": "",
          "type": "bool"
        }
      ],
      "stateMutability": "view",
      "type": "function"
    },
    {
      "inputs": [
        {
          "internalType": "address",
          "name": "",
          "type": "address"
        }
      ],
      "name": "isVault",
      "outputs": [
        {
          "internalType": "bool",
          "name": "",
          "type": "bool"
        }
      ],
      "stateMutability": "view",
      "type": "function"
    },
    {
      "inputs": [],
      "name": "max",
      "outputs": [
        {
          "internalType": "uint256",
          "name": "",
          "type": "uint256"
        }
      ],
      "stateMutability": "view",
      "type": "function"
    },
    {
      "inputs": [],
      "name": "onesplit",
      "outputs": [
        {
          "internalType": "address",
          "name": "",
          "type": "address"
        }
      ],
      "stateMutability": "view",
      "type": "function"
    },
    {
      "inputs": [],
      "name": "rewards",
      "outputs": [
        {
          "internalType": "address",
          "name": "",
          "type": "address"
        }
      ],
      "stateMutability": "view",
      "type": "function"
    },
    {
      "inputs": [
        {
          "internalType": "address",
          "name": "_input",
          "type": "address"
        },
        {
          "internalType": "address",
          "name": "_output",
          "type": "address"
        },
        {
          "internalType": "address",
          "name": "_converter",
          "type": "address"
        }
      ],
      "name": "setConverter",
      "outputs": [],
      "stateMutability": "nonpayable",
      "type": "function"
    },
    {
      "inputs": [
        {
          "internalType": "address",
          "name": "_governance",
          "type": "address"
        }
      ],
      "name": "setGovernance",
      "outputs": [],
      "stateMutability": "nonpayable",
      "type": "function"
    },
    {
      "inputs": [
        {
          "internalType": "address",
          "name": "_onesplit",
          "type": "address"
        }
      ],
      "name": "setOneSplit",
      "outputs": [],
      "stateMutability": "nonpayable",
      "type": "function"
    },
    {
      "inputs": [
        {
          "internalType": "uint256",
          "name": "_split",
          "type": "uint256"
        }
      ],
      "name": "setSplit",
      "outputs": [],
      "stateMutability": "nonpayable",
      "type": "function"
    },
    {
      "inputs": [
        {
          "internalType": "address",
          "name": "_vault",
          "type": "address"
        },
        {
          "internalType": "address",
          "name": "_strategy",
          "type": "address"
        }
      ],
      "name": "setStrategy",
      "outputs": [],
      "stateMutability": "nonpayable",
      "type": "function"
    },
    {
      "inputs": [],
      "name": "split",
      "outputs": [
        {
          "internalType": "uint256",
          "name": "",
          "type": "uint256"
        }
      ],
      "stateMutability": "view",
      "type": "function"
    },
    {
      "inputs": [
        {
          "internalType": "address",
          "name": "",
          "type": "address"
        }
      ],
      "name": "strategies",
      "outputs": [
        {
          "internalType": "address",
          "name": "",
          "type": "address"
        }
      ],
      "stateMutability": "view",
      "type": "function"
    },
    {
      "inputs": [
        {
          "internalType": "address",
          "name": "",
          "type": "address"
        }
      ],
      "name": "vaults",
      "outputs": [
        {
          "internalType": "address",
          "name": "",
          "type": "address"
        }
      ],
      "stateMutability": "view",
      "type": "function"
    },
    {
      "inputs": [
        {
          "internalType": "address",
          "name": "_vault",
          "type": "address"
        }
      ],
      "name": "want",
      "outputs": [
        {
          "internalType": "address",
          "name": "",
          "type": "address"
        }
      ],
      "stateMutability": "view",
      "type": "function"
    },
    {
      "inputs": [
        {
          "internalType": "address",
          "name": "_vault",
          "type": "address"
        },
        {
          "internalType": "uint256",
          "name": "_amount",
          "type": "uint256"
        }
      ],
      "name": "withdraw",
      "outputs": [],
      "stateMutability": "nonpayable",
      "type": "function"
    },
    {
      "inputs": [
        {
          "internalType": "address",
          "name": "_strategy",
          "type": "address"
        }
      ],
      "name": "withdrawAll",
      "outputs": [],
      "stateMutability": "nonpayable",
      "type": "function"
    }
  ],
  "bytecode": "0x60806040526101f460085534801561001657600080fd5b506040516124243803806124248339818101604052602081101561003957600080fd5b5051600080546001600160a01b031990811633179091556001805482167350fda034c0ce7a8f7efdaebda7aa7ca21cc1267e179055600280546001600160a01b039093169290911691909117905561238e806100966000396000f3fe608060405234801561001057600080fd5b506004361061018e5760003560e01c8063a622ee7c116100de578063ccd0631811610097578063f3fef3a311610071578063f3fef3a314610514578063f712adbb14610540578063f765417614610548578063fa09e630146105505761018e565b8063ccd0631814610482578063d0004c05146104ba578063e4f2494d146104e65761018e565b8063a622ee7c1461037a578063ab033ea9146103a0578063b02bf4b9146103c6578063b2a60456146103f2578063c2ceb95f14610420578063c6d758cb146104565761018e565b80636ac5db191161014b57806372cb5d971161012557806372cb5d97146102f857806375724589146103265780638da1df4d1461034c5780639ec5a894146103725761018e565b80636ac5db19146102825780636dcd64e51461029c57806370a08231146102d25761018e565b80631239c271146101935780632e8ebaae146101bb57806339ebf823146101f55780635aa6e67514610237578063652b9b411461023f578063674e694f14610265575b600080fd5b6101b9600480360360208110156101a957600080fd5b50356001600160a01b0316610576565b005b6101e1600480360360208110156101d157600080fd5b50356001600160a01b0316610619565b604080519115158252519081900360200190f35b61021b6004803603602081101561020b57600080fd5b50356001600160a01b031661062e565b604080516001600160a01b039092168252519081900360200190f35b61021b610649565b6101e16004803603602081101561025557600080fd5b50356001600160a01b0316610658565b6101b96004803603602081101561027b57600080fd5b503561066d565b61028a6106bf565b60408051918252519081900360200190f35b61028a600480360360608110156102b257600080fd5b506001600160a01b038135811691602081013590911690604001356106c5565b61028a600480360360208110156102e857600080fd5b50356001600160a01b03166108fc565b6101b96004803603604081101561030e57600080fd5b506001600160a01b038135811691602001351661097c565b61021b6004803603602081101561033c57600080fd5b50356001600160a01b0316610ac6565b6101b96004803603602081101561036257600080fd5b50356001600160a01b0316610b14565b61021b610b83565b61021b6004803603602081101561039057600080fd5b50356001600160a01b0316610b92565b6101b9600480360360208110156103b657600080fd5b50356001600160a01b0316610bad565b6101b9600480360360408110156103dc57600080fd5b506001600160a01b038135169060200135610c1c565b6101b96004803603604081101561040857600080fd5b506001600160a01b0381358116916020013516610d09565b6101b96004803603606081101561043657600080fd5b506001600160a01b03813581169160208101359091169060400135610e51565b6101b96004803603604081101561046c57600080fd5b506001600160a01b038135169060200135611407565b6101b96004803603606081101561049857600080fd5b506001600160a01b03813581169160208101358216916040909101351661146e565b6101b9600480360360408110156104d057600080fd5b506001600160a01b0381351690602001356114f8565b61021b600480360360408110156104fc57600080fd5b506001600160a01b0381358116916020013516611b1d565b6101b96004803603604081101561052a57600080fd5b506001600160a01b038135169060200135611b43565b61021b611c09565b61028a611c18565b6101b96004803603602081101561056657600080fd5b50356001600160a01b0316611c1e565b6000546001600160a01b031633146105c3576040805162461bcd60e51b815260206004820152600b60248201526a21676f7665726e616e636560a81b604482015290519081900360640190fd5b806001600160a01b031663a75ac6086040518163ffffffff1660e01b8152600401600060405180830381600087803b1580156105fe57600080fd5b505af1158015610612573d6000803e3d6000fd5b5050505050565b60076020526000908152604090205460ff1681565b6004602052600090815260409020546001600160a01b031681565b6000546001600160a01b031681565b60066020526000908152604090205460ff1681565b6000546001600160a01b031633146106ba576040805162461bcd60e51b815260206004820152600b60248201526a21676f7665726e616e636560a81b604482015290519081900360640190fd5b600855565b61271081565b600080836001600160a01b03166370a08231866040518263ffffffff1660e01b815260040180826001600160a01b0316815260200191505060206040518083038186803b15801561071557600080fd5b505afa158015610729573d6000803e3d6000fd5b505050506040513d602081101561073f57600080fd5b505160408051631f1fcd5160e01b815290519192506000916001600160a01b03881691631f1fcd51916004808301926020929190829003018186803b15801561078757600080fd5b505afa15801561079b573d6000803e3d6000fd5b505050506040513d60208110156107b157600080fd5b50516001546040805163085e2c5b60e01b81526001600160a01b0389811660048301528085166024830152604482018790526064820189905260006084830181905292519495509092169263085e2c5b9260a4808201939291829003018186803b15801561081e57600080fd5b505afa158015610832573d6000803e3d6000fd5b505050506040513d6000823e601f3d908101601f19168201604090815281101561085b57600080fd5b81516020830180516040519294929383019291908464010000000082111561088257600080fd5b90830190602082018581111561089757600080fd5b82518660208202830111640100000000821117156108b457600080fd5b82525081516020918201928201910280838360005b838110156108e15781810151838201526020016108c9565b50505050905001604052505050508093505050509392505050565b6001600160a01b03808216600090815260046020818152604080842054815163722713f760e01b815291519495169363722713f7938281019392829003018186803b15801561094a57600080fd5b505afa15801561095e573d6000803e3d6000fd5b505050506040513d602081101561097457600080fd5b505192915050565b6000546001600160a01b031633146109c9576040805162461bcd60e51b815260206004820152600b60248201526a21676f7665726e616e636560a81b604482015290519081900360640190fd5b6001600160a01b03808316600090815260046020526040902054168015610a5257806001600160a01b031663853828b66040518163ffffffff1660e01b8152600401602060405180830381600087803b158015610a2557600080fd5b505af1158015610a39573d6000803e3d6000fd5b505050506040513d6020811015610a4f57600080fd5b50505b506001600160a01b0391821660008181526004602090815260408083208054969095166001600160a01b0319968716811790955593825260078152838220805460ff199081166001908117909255600383528584208054909716851790965592825260069052919091208054909216179055565b6001600160a01b038082166000908152600460208181526040808420548151631f1fcd5160e01b8152915194951693631f1fcd51938281019392829003018186803b15801561094a57600080fd5b6000546001600160a01b03163314610b61576040805162461bcd60e51b815260206004820152600b60248201526a21676f7665726e616e636560a81b604482015290519081900360640190fd5b600180546001600160a01b0319166001600160a01b0392909216919091179055565b6002546001600160a01b031681565b6003602052600090815260409020546001600160a01b031681565b6000546001600160a01b03163314610bfa576040805162461bcd60e51b815260206004820152600b60248201526a21676f7665726e616e636560a81b604482015290519081900360640190fd5b600080546001600160a01b0319166001600160a01b0392909216919091179055565b6001600160a01b038083166000908152600460208181526040808420548151631f1fcd5160e01b815291519516948593631f1fcd51938382019390929190829003018186803b158015610c6e57600080fd5b505afa158015610c82573d6000803e3d6000fd5b505050506040513d6020811015610c9857600080fd5b50519050610cb06001600160a01b0382168385611cd5565b816001600160a01b031663d0e30db06040518163ffffffff1660e01b8152600401600060405180830381600087803b158015610ceb57600080fd5b505af1158015610cff573d6000803e3d6000fd5b5050505050505050565b6000546001600160a01b03163314610d56576040805162461bcd60e51b815260206004820152600b60248201526a21676f7665726e616e636560a81b604482015290519081900360640190fd5b816001600160a01b03166351cff8d9826040518263ffffffff1660e01b815260040180826001600160a01b03168152602001915050600060405180830381600087803b158015610da557600080fd5b505af1158015610db9573d6000803e3d6000fd5b5050600054604080516370a0823160e01b81523060048201529051610e4d94506001600160a01b039283169350918516916370a0823191602480820192602092909190829003018186803b158015610e1057600080fd5b505afa158015610e24573d6000803e3d6000fd5b505050506040513d6020811015610e3a57600080fd5b50516001600160a01b0384169190611cd5565b5050565b6000826001600160a01b03166370a08231306040518263ffffffff1660e01b815260040180826001600160a01b0316815260200191505060206040518083038186803b158015610ea057600080fd5b505afa158015610eb4573d6000803e3d6000fd5b505050506040513d6020811015610eca57600080fd5b5051604080516351cff8d960e01b81526001600160a01b0386811660048301529151929350908616916351cff8d99160248082019260009290919082900301818387803b158015610f1a57600080fd5b505af1158015610f2e573d6000803e3d6000fd5b505050506000836001600160a01b03166370a08231306040518263ffffffff1660e01b815260040180826001600160a01b0316815260200191505060206040518083038186803b158015610f8157600080fd5b505afa158015610f95573d6000803e3d6000fd5b505050506040513d6020811015610fab57600080fd5b5051905081811115610612576000610fc38284611d27565b90506000866001600160a01b0316631f1fcd516040518163ffffffff1660e01b815260040160206040518083038186803b15801561100057600080fd5b505afa158015611014573d6000803e3d6000fd5b505050506040513d602081101561102a57600080fd5b5051604080516370a0823160e01b815230600482015290519192506060916000916001600160a01b038516916370a0823191602480820192602092909190829003018186803b15801561107c57600080fd5b505afa158015611090573d6000803e3d6000fd5b505050506040513d60208110156110a657600080fd5b50516001549096506110c6906001600160a01b038a811691166000611d72565b6001546110e0906001600160a01b038a8116911686611d72565b6001546040805163085e2c5b60e01b81526001600160a01b038b81166004830152868116602483015260448201889052606482018b9052600060848301819052925193169263085e2c5b9260a480840193919291829003018186803b15801561114857600080fd5b505afa15801561115c573d6000803e3d6000fd5b505050506040513d6000823e601f3d908101601f19168201604090815281101561118557600080fd5b8151602083018051604051929492938301929190846401000000008211156111ac57600080fd5b9083019060208201858111156111c157600080fd5b82518660208202830111640100000000821117156111de57600080fd5b82525081516020918201928201910280838360005b8381101561120b5781810151838201526020016111f3565b505050509050016040525050508093508192505050600160009054906101000a90046001600160a01b03166001600160a01b031663e2a7515e898587858760006040518763ffffffff1660e01b815260040180876001600160a01b03168152602001866001600160a01b0316815260200185815260200184815260200180602001838152602001828103825284818151815260200191508051906020019060200280838360005b838110156112ca5781810151838201526020016112b2565b50505050905001975050505050505050602060405180830381600087803b1580156112f457600080fd5b505af1158015611308573d6000803e3d6000fd5b505050506040513d602081101561131e57600080fd5b5050604080516370a0823160e01b815230600482015290516001600160a01b038516916370a08231916024808301926020929190829003018186803b15801561136657600080fd5b505afa15801561137a573d6000803e3d6000fd5b505050506040513d602081101561139057600080fd5b50519450858511156113fc576113a68587611d27565b935060006113cb6127106113c560085488611e8590919063ffffffff16565b90611ede565b90506113e0846113db8784611d27565b610c1c565b6002546113fa906001600160a01b03868116911683611cd5565b505b505050505050505050565b6000546001600160a01b03163314611454576040805162461bcd60e51b815260206004820152600b60248201526a21676f7665726e616e636560a81b604482015290519081900360640190fd5b600054610e4d906001600160a01b03848116911683611cd5565b6000546001600160a01b031633146114bb576040805162461bcd60e51b815260206004820152600b60248201526a21676f7665726e616e636560a81b604482015290519081900360640190fd5b6001600160a01b03928316600090815260056020908152604080832094861683529390529190912080546001600160a01b03191691909216179055565b6000826001600160a01b0316631f1fcd516040518163ffffffff1660e01b815260040160206040518083038186803b15801561153357600080fd5b505afa158015611547573d6000803e3d6000fd5b505050506040513d602081101561155d57600080fd5b5051604080516370a0823160e01b815230600482015290519192506000916001600160a01b038416916370a08231916024808301926020929190829003018186803b1580156115ab57600080fd5b505afa1580156115bf573d6000803e3d6000fd5b505050506040513d60208110156115d557600080fd5b505160408051630774672d60e21b815290519192506001600160a01b03861691631dd19cb49160048082019260009290919082900301818387803b15801561161c57600080fd5b505af1158015611630573d6000803e3d6000fd5b505050506000826001600160a01b03166370a08231306040518263ffffffff1660e01b815260040180826001600160a01b0316815260200191505060206040518083038186803b15801561168357600080fd5b505afa158015611697573d6000803e3d6000fd5b505050506040513d60208110156116ad57600080fd5b50519050818111156106125760006116c58284611d27565b6001600160a01b038088166000908152600360209081526040808320548151637e062a3560e11b815291519596509294929093169263fc0c546a9260048083019392829003018186803b15801561171b57600080fd5b505afa15801561172f573d6000803e3d6000fd5b505050506040513d602081101561174557600080fd5b5051604080516370a0823160e01b815230600482015290519192506060916000916001600160a01b038516916370a0823191602480820192602092909190829003018186803b15801561179757600080fd5b505afa1580156117ab573d6000803e3d6000fd5b505050506040513d60208110156117c157600080fd5b50516001549096506117e1906001600160a01b0389811691166000611d72565b6001546117fb906001600160a01b03898116911686611d72565b6001546040805163085e2c5b60e01b81526001600160a01b038a81166004830152868116602483015260448201889052606482018c9052600060848301819052925193169263085e2c5b9260a480840193919291829003018186803b15801561186357600080fd5b505afa158015611877573d6000803e3d6000fd5b505050506040513d6000823e601f3d908101601f1916820160409081528110156118a057600080fd5b8151602083018051604051929492938301929190846401000000008211156118c757600080fd5b9083019060208201858111156118dc57600080fd5b82518660208202830111640100000000821117156118f957600080fd5b82525081516020918201928201910280838360005b8381101561192657818101518382015260200161190e565b505050509050016040525050508093508192505050600160009054906101000a90046001600160a01b03166001600160a01b031663e2a7515e888587858760006040518763ffffffff1660e01b815260040180876001600160a01b03168152602001866001600160a01b0316815260200185815260200184815260200180602001838152602001828103825284818151815260200191508051906020019060200280838360005b838110156119e55781810151838201526020016119cd565b50505050905001975050505050505050602060405180830381600087803b158015611a0f57600080fd5b505af1158015611a23573d6000803e3d6000fd5b505050506040513d6020811015611a3957600080fd5b5050604080516370a0823160e01b815230600482015290516001600160a01b038516916370a08231916024808301926020929190829003018186803b158015611a8157600080fd5b505afa158015611a95573d6000803e3d6000fd5b505050506040513d6020811015611aab57600080fd5b50519450858511156113fc57611ac18587611d27565b93506000611ae06127106113c560085488611e8590919063ffffffff16565b6001600160a01b03808c166000908152600360205260409020549192506113e09116611b0c8784611d27565b6001600160a01b0387169190611cd5565b60056020908152600092835260408084209091529082529020546001600160a01b031681565b3360009081526006602052604090205460ff161515600114611b95576040805162461bcd60e51b8152602060048201526006602482015265085d985d5b1d60d21b604482015290519081900360640190fd5b6001600160a01b038083166000908152600460208190526040808320548151632e1a7d4d60e01b81529283018690529051931692632e1a7d4d9260248084019391929182900301818387803b158015611bed57600080fd5b505af1158015611c01573d6000803e3d6000fd5b505050505050565b6001546001600160a01b031681565b60085481565b6000546001600160a01b03163314611c6b576040805162461bcd60e51b815260206004820152600b60248201526a21676f7665726e616e636560a81b604482015290519081900360640190fd5b806001600160a01b031663853828b66040518163ffffffff1660e01b8152600401602060405180830381600087803b158015611ca657600080fd5b505af1158015611cba573d6000803e3d6000fd5b505050506040513d6020811015611cd057600080fd5b505050565b604080516001600160a01b038416602482015260448082018490528251808303909101815260649091019091526020810180516001600160e01b031663a9059cbb60e01b179052611cd0908490611f20565b6000611d6983836040518060400160405280601e81526020017f536166654d6174683a207375627472616374696f6e206f766572666c6f770000815250611fd1565b90505b92915050565b801580611df8575060408051636eb1769f60e11b81523060048201526001600160a01b03848116602483015291519185169163dd62ed3e91604480820192602092909190829003018186803b158015611dca57600080fd5b505afa158015611dde573d6000803e3d6000fd5b505050506040513d6020811015611df457600080fd5b5051155b611e335760405162461bcd60e51b81526004018080602001828103825260368152602001806123236036913960400191505060405180910390fd5b604080516001600160a01b038416602482015260448082018490528251808303909101815260649091019091526020810180516001600160e01b031663095ea7b360e01b179052611cd0908490611f20565b600082611e9457506000611d6c565b82820282848281611ea157fe5b0414611d695760405162461bcd60e51b81526004018080602001828103825260218152602001806122d86021913960400191505060405180910390fd5b6000611d6983836040518060400160405280601a81526020017f536166654d6174683a206469766973696f6e206279207a65726f00000000000081525061206d565b6060611f75826040518060400160405280602081526020017f5361666545524332303a206c6f772d6c6576656c2063616c6c206661696c6564815250856001600160a01b03166120d29092919063ffffffff16565b805190915015611cd057808060200190516020811015611f9457600080fd5b5051611cd05760405162461bcd60e51b815260040180806020018281038252602a8152602001806122f9602a913960400191505060405180910390fd5b600081848411156120605760405162461bcd60e51b81526004018080602001828103825283818151815260200191508051906020019080838360005b8381101561202557818101518382015260200161200d565b50505050905090810190601f1680156120525780820380516001836020036101000a031916815260200191505b509250505060405180910390fd5b50508183035b9392505050565b600081836120bc5760405162461bcd60e51b815260206004820181815283516024840152835190928392604490910191908501908083836000831561202557818101518382015260200161200d565b5060008385816120c857fe5b0495945050505050565b60606120e184846000856120e9565b949350505050565b60608247101561212a5760405162461bcd60e51b81526004018080602001828103825260268152602001806122b26026913960400191505060405180910390fd5b61213385612245565b612184576040805162461bcd60e51b815260206004820152601d60248201527f416464726573733a2063616c6c20746f206e6f6e2d636f6e7472616374000000604482015290519081900360640190fd5b60006060866001600160a01b031685876040518082805190602001908083835b602083106121c35780518252601f1990920191602091820191016121a4565b6001836020036101000a03801982511681845116808217855250505050505090500191505060006040518083038185875af1925050503d8060008114612225576040519150601f19603f3d011682016040523d82523d6000602084013e61222a565b606091505b509150915061223a82828661224b565b979650505050505050565b3b151590565b6060831561225a575081612066565b82511561226a5782518084602001fd5b60405162461bcd60e51b815260206004820181815284516024840152845185939192839260440191908501908083836000831561202557818101518382015260200161200d56fe416464726573733a20696e73756666696369656e742062616c616e636520666f722063616c6c536166654d6174683a206d756c7469706c69636174696f6e206f766572666c6f775361666545524332303a204552433230206f7065726174696f6e20646964206e6f7420737563636565645361666545524332303a20617070726f76652066726f6d206e6f6e2d7a65726f20746f206e6f6e2d7a65726f20616c6c6f77616e6365a2646970667358221220577df8f9a5b7873a6b23f52bf1d9d0e2d273f9d339be24e175b998ed31bcf16764736f6c634300060c0033",
  "linkReferences": {},
  "deployedLinkReferences": {}
}