{
  "address": "0x9A9f2CCfdE556A7E9Ff0848998Aa4a0CFD8863AE",
  "abi": [
    {
      "inputs": [
        {
          "internalType": "address",
          "name": "_controller",
          "type": "address"
        }
      ],
      "stateMutability": "nonpayable",
      "type": "constructor"
    },
    {
      "inputs": [],
      "name": "blockTimeout",
      "outputs": [
        {
          "internalType": "uint256",
          "name": "",
          "type": "uint256"
        }
      ],
      "stateMutability": "view",
      "type": "function"
    },
    {
      "inputs": [
        {
          "internalType": "uint256",
          "name": "_in",
          "type": "uint256"
        }
      ],
      "name": "computeReserveRequirement",
      "outputs": [
        {
          "internalType": "uint256",
          "name": "",
          "type": "uint256"
        }
      ],
      "stateMutability": "view",
      "type": "function"
    },
    {
      "inputs": [],
      "name": "controller",
      "outputs": [
        {
          "internalType": "address",
          "name": "",
          "type": "address"
        }
      ],
      "stateMutability": "view",
      "type": "function"
    },
    {
      "inputs": [
        {
          "internalType": "uint256",
          "name": "_nonce",
          "type": "uint256"
        }
      ],
      "name": "defaultLoan",
      "outputs": [],
      "stateMutability": "nonpayable",
      "type": "function"
    },
    {
      "inputs": [],
      "name": "governance",
      "outputs": [
        {
          "internalType": "address",
          "name": "",
          "type": "address"
        }
      ],
      "stateMutability": "view",
      "type": "function"
    },
    {
      "inputs": [
        {
          "internalType": "uint256",
          "name": "",
          "type": "uint256"
        }
      ],
      "name": "outstanding",
      "outputs": [
        {
          "internalType": "uint256",
          "name": "when",
          "type": "uint256"
        },
        {
          "internalType": "uint256",
          "name": "qty",
          "type": "uint256"
        },
        {
          "internalType": "uint256",
          "name": "qtyETH",
          "type": "uint256"
        }
      ],
      "stateMutability": "view",
      "type": "function"
    },
    {
      "inputs": [
        {
          "internalType": "address",
          "name": "_to",
          "type": "address"
        },
        {
          "internalType": "address",
          "name": "_asset",
          "type": "address"
        },
        {
          "internalType": "uint256",
          "name": "_actual",
          "type": "uint256"
        },
        {
          "internalType": "uint256",
          "name": "_nonce",
          "type": "uint256"
        },
        {
          "internalType": "bytes",
          "name": "_data",
          "type": "bytes"
        }
      ],
      "name": "receiveLoan",
      "outputs": [],
      "stateMutability": "nonpayable",
      "type": "function"
    },
    {
      "inputs": [],
      "name": "renCrvArbitrum",
      "outputs": [
        {
          "internalType": "address",
          "name": "",
          "type": "address"
        }
      ],
      "stateMutability": "view",
      "type": "function"
    },
    {
      "inputs": [
        {
          "internalType": "address",
          "name": "_to",
          "type": "address"
        },
        {
          "internalType": "address",
          "name": "_asset",
          "type": "address"
        },
        {
          "internalType": "uint256",
          "name": "_actualAmount",
          "type": "uint256"
        },
        {
          "internalType": "uint256",
          "name": "_nonce",
          "type": "uint256"
        },
        {
          "internalType": "bytes",
          "name": "_data",
          "type": "bytes"
        }
      ],
      "name": "repayLoan",
      "outputs": [],
      "stateMutability": "nonpayable",
      "type": "function"
    },
    {
      "inputs": [
        {
          "internalType": "uint256",
          "name": "_ct",
          "type": "uint256"
        }
      ],
      "name": "setBlockTimeout",
      "outputs": [],
      "stateMutability": "nonpayable",
      "type": "function"
    },
    {
      "inputs": [],
      "name": "tricryptoArbitrum",
      "outputs": [
        {
          "internalType": "address",
          "name": "",
          "type": "address"
        }
      ],
      "stateMutability": "view",
      "type": "function"
    },
    {
      "inputs": [],
      "name": "want",
      "outputs": [
        {
          "internalType": "address",
          "name": "",
          "type": "address"
        }
      ],
      "stateMutability": "view",
      "type": "function"
    },
    {
      "inputs": [],
      "name": "wbtc",
      "outputs": [
        {
          "internalType": "address",
          "name": "",
          "type": "address"
        }
      ],
      "stateMutability": "view",
      "type": "function"
    },
    {
      "inputs": [],
      "name": "weth",
      "outputs": [
        {
          "internalType": "address",
          "name": "",
          "type": "address"
        }
      ],
      "stateMutability": "view",
      "type": "function"
    },
    {
      "stateMutability": "payable",
      "type": "receive"
    }
  ],
  "transactionHash": "0x20facf6a7409d761ffa151642f038c767f0cbd6907e0e575a79ed9416095ba4f",
  "args": [
    "0x8A791620dd6260079BF849Dc5567aDC3F2FdC318"
  ],
  "numDeployments": 1,
  "solcInputHash": "51d3199d65c4334977e3788d36546f47",
  "bytecode": "0x60c06040523480156200001157600080fd5b5060405162001b3338038062001b33833981810160405260208110156200003757600080fd5b50516001600160601b0319606082901b1660805260408051635aa6e67560e01b815290516001600160a01b03831691635aa6e675916004808301926020929190829003018186803b1580156200008c57600080fd5b505afa158015620000a1573d6000803e3d6000fd5b505050506040513d6020811015620000b857600080fd5b505160601b6001600160601b03191660a0526200011273dbf31df14b66535af65aac99c32e9ea844e14501733e01dd8a5e1fb3481f0f589056b428fc308af0fb6001600160fe1b0362000161602090811b6200090317901c565b6200015a732f2a2543b76a4166549f7aab2e75bef0aefc5b0f73960ea3e3c7fb317332d990873d354e18d76455906001600160fe1b0362000161602090811b6200090317901c565b5062000573565b801580620001eb575060408051636eb1769f60e11b81523060048201526001600160a01b03848116602483015291519185169163dd62ed3e91604480820192602092909190829003018186803b158015620001bb57600080fd5b505afa158015620001d0573d6000803e3d6000fd5b505050506040513d6020811015620001e757600080fd5b5051155b620002285760405162461bcd60e51b815260040180806020018281038252603681526020018062001afd6036913960400191505060405180910390fd5b604080516001600160a01b038416602482015260448082018490528251808303909101815260649091019091526020810180516001600160e01b0390811663095ea7b360e01b17909152620002809185916200028516565b505050565b6000620002e1826040518060400160405280602081526020017f5361666545524332303a206c6f772d6c6576656c2063616c6c206661696c6564815250856001600160a01b03166200034160201b62000a1b179092919060201c565b80519091501562000280578080602001905160208110156200030257600080fd5b5051620002805760405162461bcd60e51b815260040180806020018281038252602a81526020018062001ad3602a913960400191505060405180910390fd5b60606200035284846000856200035c565b90505b9392505050565b6060824710156200039f5760405162461bcd60e51b815260040180806020018281038252602681526020018062001aad6026913960400191505060405180910390fd5b620003aa85620004c3565b620003fc576040805162461bcd60e51b815260206004820152601d60248201527f416464726573733a2063616c6c20746f206e6f6e2d636f6e7472616374000000604482015290519081900360640190fd5b600080866001600160a01b031685876040518082805190602001908083835b602083106200043c5780518252601f1990920191602091820191016200041b565b6001836020036101000a03801982511681845116808217855250505050505090500191505060006040518083038185875af1925050503d8060008114620004a0576040519150601f19603f3d011682016040523d82523d6000602084013e620004a5565b606091505b509092509050620004b8828286620004c9565b979650505050505050565b3b151590565b60608315620004da57508162000355565b825115620004eb5782518084602001fd5b8160405162461bcd60e51b81526004018080602001828103825283818151815260200191508051906020019080838360005b83811015620005375781810151838201526020016200051d565b50505050905090810190601f168015620005655780820380516001836020036101000a031916815260200191505b509250505060405180910390fd5b60805160601c60a05160601c6114fc620005b16000398061044652806105d45250806104b652806106b75280610768528061079552506114fc6000f3fe6080604052600436106100e15760003560e01c806367bf61c41161007f578063874a0e7311610059578063874a0e73146102f1578063a7f6ad1414610339578063f77c47911461034e578063fd8e915414610363576100e8565b806367bf61c41461027657806373883a2b146102a057806380e71655146102dc576100e8565b80633cdc5389116100bb5780633cdc5389146102225780633fc8cef3146102375780635aa6e6751461024c5780635b496f7514610261576100e8565b8063086d3c7a146100ed5780631639743b146101195780631f1fcd51146101f1576100e8565b366100e857005b600080fd5b3480156100f957600080fd5b506101176004803603602081101561011057600080fd5b503561043b565b005b34801561012557600080fd5b50610117600480360360a081101561013c57600080fd5b6001600160a01b03823581169260208101359091169160408201359160608101359181019060a08101608082013564010000000081111561017c57600080fd5b82018360208201111561018e57600080fd5b803590602001918460018302840111640100000000831117156101b057600080fd5b91908080601f0160208091040260200160405190810160405280939291908181526020018383808284376000920191909152509295506104ab945050505050565b3480156101fd57600080fd5b5061020661058a565b604080516001600160a01b039092168252519081900360200190f35b34801561022e57600080fd5b506102066105a2565b34801561024357600080fd5b506102066105ba565b34801561025857600080fd5b506102066105d2565b34801561026d57600080fd5b506102066105f6565b34801561028257600080fd5b506101176004803603602081101561029957600080fd5b503561060e565b3480156102ac57600080fd5b506102ca600480360360208110156102c357600080fd5b50356106fb565b60408051918252519081900360200190f35b3480156102e857600080fd5b506102ca610727565b3480156102fd57600080fd5b5061031b6004803603602081101561031457600080fd5b503561072d565b60408051938452602084019290925282820152519081900360600190f35b34801561034557600080fd5b5061020661074e565b34801561035a57600080fd5b50610206610766565b34801561036f57600080fd5b50610117600480360360a081101561038657600080fd5b6001600160a01b03823581169260208101359091169160408201359160608101359181019060a0810160808201356401000000008111156103c657600080fd5b8201836020820111156103d857600080fd5b803590602001918460018302840111640100000000831117156103fa57600080fd5b91908080601f01602080910402602001604051908101604052809392919081815260200183838082843760009201919091525092955061078a945050505050565b336001600160a01b037f000000000000000000000000000000000000000000000000000000000000000016146104a6576040805162461bcd60e51b815260206004820152600b60248201526a21676f7665726e616e636560a81b604482015290519081900360640190fd5b600155565b336001600160a01b037f00000000000000000000000000000000000000000000000000000000000000001614610516576040805162461bcd60e51b815260206004820152600b60248201526a10b1b7b73a3937b63632b960a91b604482015290519081900360640190fd5b600081806020019051602081101561052d57600080fd5b5051905060008061053e8684610a34565b6040805160608101825267ffffffffffffffff4216815260208082019384528183019485526000998a528990529720965187555160018701555160029095019490945550505050505050565b73dbf31df14b66535af65aac99c32e9ea844e1450181565b732f2a2543b76a4166549f7aab2e75bef0aefc5b0f81565b7382af49447d8a07e3bd95bd0d56f35241523fbab181565b7f000000000000000000000000000000000000000000000000000000000000000081565b73960ea3e3c7fb317332d990873d354e18d764559081565b6001546000828152602081905260409020540143101561062d57600080fd5b600081815260208190526040902061064490610c77565b610684576040805162461bcd60e51b815260206004820152600c60248201526b216f75747374616e64696e6760a01b604482015290519081900360640190fd5b600081815260208190526040812061069b90610c92565b90506106dc73dbf31df14b66535af65aac99c32e9ea844e145017f000000000000000000000000000000000000000000000000000000000000000083610fa0565b5060009081526020819052604081208181556001810182905560020155565b6000610721670de0b6b3a764000061071b8467016345785d8a0000610ff2565b9061104b565b92915050565b60015481565b60006020819052908152604090208054600182015460029092015490919083565b733e01dd8a5e1fb3481f0f589056b428fc308af0fb81565b7f000000000000000000000000000000000000000000000000000000000000000081565b336001600160a01b037f000000000000000000000000000000000000000000000000000000000000000016146107f5576040805162461bcd60e51b815260206004820152600b60248201526a10b1b7b73a3937b63632b960a91b604482015290519081900360640190fd5b600082815260208190526040902060010154151580610824575060008281526020819052604090206002015415155b610864576040805162461bcd60e51b815260206004820152600c60248201526b216f75747374616e64696e6760a01b604482015290519081900360640190fd5b6000828152602081905260409020600101546108979073dbf31df14b66535af65aac99c32e9ea844e14501908790610fa0565b60008281526020819052604080822060020154905187926001600160a01b0384169280156108fc02929091818181858888f193505050501580156108df573d6000803e3d6000fd5b50505060009081526020819052604081208181556001810182905560020155505050565b801580610989575060408051636eb1769f60e11b81523060048201526001600160a01b03848116602483015291519185169163dd62ed3e91604480820192602092909190829003018186803b15801561095b57600080fd5b505afa15801561096f573d6000803e3d6000fd5b505050506040513d602081101561098557600080fd5b5051155b6109c45760405162461bcd60e51b81526004018080602001828103825260368152602001806114916036913960400191505060405180910390fd5b604080516001600160a01b038416602482015260448082018490528251808303909101815260649091019091526020810180516001600160e01b031663095ea7b360e01b179052610a169084906110b2565b505050565b6060610a2a8484600085611163565b90505b9392505050565b60008080610a4e670de0b6b3a764000061071b8688610ff2565b9050600081610a5e576000610afe565b6040805163ddc1f59d60e01b81526001600482015260006024820181905260448201859052606482018190523060848301529151733e01dd8a5e1fb3481f0f589056b428fc308af0fb9263ddc1f59d9260a480820193602093909283900390910190829087803b158015610ad157600080fd5b505af1158015610ae5573d6000803e3d6000fd5b505050506040513d6020811015610afb57600080fd5b50515b90508015610c6a5760408051600160248201819052600260448301526064820184905260006084830181905260a4808401929092528351808403909201825260c490920183526020810180516001600160e01b031663394747c560e01b17815292518151479473960ea3e3c7fb317332d990873d354e18d76455909392918291908083835b60208310610ba25780518252601f199092019160209182019101610b83565b6001836020036101000a0380198251168184511680821785525050505050509050019150506000604051808303816000865af19150503d8060008114610c04576040519150601f19603f3d011682016040523d82523d6000602084013e610c09565b606091505b5050905080610c4b576040805162461bcd60e51b81526020600482015260096024820152682165786368616e676560b81b604482015290519081900360640190fd5b610c5547836112be565b9550610c6188856112be565b94505050610c6e565b8592505b50509250929050565b60008160010154600014158061072157505060020154151590565b604080516370a0823160e01b815230600482015290516000918291732f2a2543b76a4166549f7aab2e75bef0aefc5b0f916370a08231916024808301926020929190829003018186803b158015610ce857600080fd5b505afa158015610cfc573d6000803e3d6000fd5b505050506040513d6020811015610d1257600080fd5b50516002808501546040805160248101939093526001604484018190526064840183905260006084850181905260a4808601929092528251808603909201825260c490940182526020810180516001600160e01b031663394747c560e01b17815291518151959650939473960ea3e3c7fb317332d990873d354e18d764559094919282918083835b60208310610db95780518252601f199092019160209182019101610d9a565b6001836020036101000a03801982511681845116808217855250505050505090500191505060006040518083038185875af1925050503d8060008114610e1b576040519150601f19603f3d011682016040523d82523d6000602084013e610e20565b606091505b5050905080610e62576040805162461bcd60e51b81526020600482015260096024820152682165786368616e676560b81b604482015290519081900360640190fd5b604080516370a0823160e01b81523060048201529051600091732f2a2543b76a4166549f7aab2e75bef0aefc5b0f916370a0823191602480820192602092909190829003018186803b158015610eb757600080fd5b505afa158015610ecb573d6000803e3d6000fd5b505050506040513d6020811015610ee157600080fd5b50516001808701546040805163ddc1f59d60e01b8152600060048201819052602482019490945260448101859052606481018490523060848201529051939450610f97939192733e01dd8a5e1fb3481f0f589056b428fc308af0fb9263ddc1f59d9260a4808201936020939283900390910190829087803b158015610f6557600080fd5b505af1158015610f79573d6000803e3d6000fd5b505050506040513d6020811015610f8f57600080fd5b50519061131b565b95945050505050565b604080516001600160a01b038416602482015260448082018490528251808303909101815260649091019091526020810180516001600160e01b031663a9059cbb60e01b179052610a169084906110b2565b60008261100157506000610721565b8282028284828161100e57fe5b0414610a2d5760405162461bcd60e51b81526004018080602001828103825260218152602001806114466021913960400191505060405180910390fd5b60008082116110a1576040805162461bcd60e51b815260206004820152601a60248201527f536166654d6174683a206469766973696f6e206279207a65726f000000000000604482015290519081900360640190fd5b8183816110aa57fe5b049392505050565b6000611107826040518060400160405280602081526020017f5361666545524332303a206c6f772d6c6576656c2063616c6c206661696c6564815250856001600160a01b0316610a1b9092919063ffffffff16565b805190915015610a165780806020019051602081101561112657600080fd5b5051610a165760405162461bcd60e51b815260040180806020018281038252602a815260200180611467602a913960400191505060405180910390fd5b6060824710156111a45760405162461bcd60e51b81526004018080602001828103825260268152602001806114206026913960400191505060405180910390fd5b6111ad85611375565b6111fe576040805162461bcd60e51b815260206004820152601d60248201527f416464726573733a2063616c6c20746f206e6f6e2d636f6e7472616374000000604482015290519081900360640190fd5b600080866001600160a01b031685876040518082805190602001908083835b6020831061123c5780518252601f19909201916020918201910161121d565b6001836020036101000a03801982511681845116808217855250505050505090500191505060006040518083038185875af1925050503d806000811461129e576040519150601f19603f3d011682016040523d82523d6000602084013e6112a3565b606091505b50915091506112b382828661137b565b979650505050505050565b600082821115611315576040805162461bcd60e51b815260206004820152601e60248201527f536166654d6174683a207375627472616374696f6e206f766572666c6f770000604482015290519081900360640190fd5b50900390565b600082820183811015610a2d576040805162461bcd60e51b815260206004820152601b60248201527f536166654d6174683a206164646974696f6e206f766572666c6f770000000000604482015290519081900360640190fd5b3b151590565b6060831561138a575081610a2d565b82511561139a5782518084602001fd5b8160405162461bcd60e51b81526004018080602001828103825283818151815260200191508051906020019080838360005b838110156113e45781810151838201526020016113cc565b50505050905090810190601f1680156114115780820380516001836020036101000a031916815260200191505b509250505060405180910390fdfe416464726573733a20696e73756666696369656e742062616c616e636520666f722063616c6c536166654d6174683a206d756c7469706c69636174696f6e206f766572666c6f775361666545524332303a204552433230206f7065726174696f6e20646964206e6f7420737563636565645361666545524332303a20617070726f76652066726f6d206e6f6e2d7a65726f20746f206e6f6e2d7a65726f20616c6c6f77616e6365a26469706673582212203f57863be5c02c31fd0bc6f62b61b730207645359a708ee4b5a4cf42f3f2273864736f6c63430007060033416464726573733a20696e73756666696369656e742062616c616e636520666f722063616c6c5361666545524332303a204552433230206f7065726174696f6e20646964206e6f7420737563636565645361666545524332303a20617070726f76652066726f6d206e6f6e2d7a65726f20746f206e6f6e2d7a65726f20616c6c6f77616e6365",
  "devdoc": {
    "kind": "dev",
    "methods": {},
    "version": 1
  },
  "userdoc": {
    "kind": "user",
    "methods": {},
    "version": 1
  },
  "storageLayout": {
    "storage": [
      {
        "astId": 11583,
        "contract": "contracts/modules/ArbitrumConvert.sol:ArbitrumConvert",
        "label": "outstanding",
        "offset": 0,
        "slot": "0",
        "type": "t_mapping(t_uint256,t_struct(ConvertRecord)12085_storage)"
      },
      {
        "astId": 11589,
        "contract": "contracts/modules/ArbitrumConvert.sol:ArbitrumConvert",
        "label": "blockTimeout",
        "offset": 0,
        "slot": "1",
        "type": "t_uint256"
      }
    ],
    "types": {
      "t_mapping(t_uint256,t_struct(ConvertRecord)12085_storage)": {
        "encoding": "mapping",
        "key": "t_uint256",
        "label": "mapping(uint256 => struct ArbitrumConvertLib.ConvertRecord)",
        "numberOfBytes": "32",
        "value": "t_struct(ConvertRecord)12085_storage"
      },
      "t_struct(ConvertRecord)12085_storage": {
        "encoding": "inplace",
        "label": "struct ArbitrumConvertLib.ConvertRecord",
        "members": [
          {
            "astId": 12080,
            "contract": "contracts/modules/ArbitrumConvert.sol:ArbitrumConvert",
            "label": "when",
            "offset": 0,
            "slot": "0",
            "type": "t_uint256"
          },
          {
            "astId": 12082,
            "contract": "contracts/modules/ArbitrumConvert.sol:ArbitrumConvert",
            "label": "qty",
            "offset": 0,
            "slot": "1",
            "type": "t_uint256"
          },
          {
            "astId": 12084,
            "contract": "contracts/modules/ArbitrumConvert.sol:ArbitrumConvert",
            "label": "qtyETH",
            "offset": 0,
            "slot": "2",
            "type": "t_uint256"
          }
        ],
        "numberOfBytes": "96"
      },
      "t_uint256": {
        "encoding": "inplace",
        "label": "uint256",
        "numberOfBytes": "32"
      }
    }
  }
}