{
  "address": "0x0E801D84Fa97b50751Dbf25036d067dCf18858bF",
  "abi": [
    {
      "inputs": [
        {
          "internalType": "address",
          "name": "_controller",
          "type": "address"
        },
        {
          "internalType": "uint256",
          "name": "_capacity",
          "type": "uint256"
        },
        {
          "internalType": "uint256",
          "name": "_blockTimeout",
          "type": "uint256"
        }
      ],
      "stateMutability": "nonpayable",
      "type": "constructor"
    },
    {
      "inputs": [],
      "name": "blockTimeout",
      "outputs": [
        {
          "internalType": "uint256",
          "name": "",
          "type": "uint256"
        }
      ],
      "stateMutability": "view",
      "type": "function"
    },
    {
      "inputs": [],
      "name": "capacity",
      "outputs": [
        {
          "internalType": "uint256",
          "name": "",
          "type": "uint256"
        }
      ],
      "stateMutability": "view",
      "type": "function"
    },
    {
      "inputs": [
        {
          "internalType": "uint256",
          "name": "_in",
          "type": "uint256"
        }
      ],
      "name": "computeReserveRequirement",
      "outputs": [
        {
          "internalType": "uint256",
          "name": "",
          "type": "uint256"
        }
      ],
      "stateMutability": "view",
      "type": "function"
    },
    {
      "inputs": [],
      "name": "controller",
      "outputs": [
        {
          "internalType": "address",
          "name": "",
          "type": "address"
        }
      ],
      "stateMutability": "view",
      "type": "function"
    },
    {
      "inputs": [],
      "name": "governance",
      "outputs": [
        {
          "internalType": "address",
          "name": "",
          "type": "address"
        }
      ],
      "stateMutability": "view",
      "type": "function"
    },
    {
      "inputs": [
        {
          "internalType": "uint256",
          "name": "",
          "type": "uint256"
        }
      ],
      "name": "outstanding",
      "outputs": [
        {
          "internalType": "uint64",
          "name": "when",
          "type": "uint64"
        },
        {
          "internalType": "uint256",
          "name": "qtyETH",
          "type": "uint256"
        },
        {
          "internalType": "uint256",
          "name": "qty",
          "type": "uint256"
        }
      ],
      "stateMutability": "view",
      "type": "function"
    },
    {
      "inputs": [
        {
          "internalType": "address",
          "name": "from",
          "type": "address"
        },
        {
          "internalType": "address",
          "name": "asset",
          "type": "address"
        },
        {
          "internalType": "uint256",
          "name": "nonce",
          "type": "uint256"
        },
        {
          "internalType": "bytes",
          "name": "data",
          "type": "bytes"
        }
      ],
      "name": "receiveMeta",
      "outputs": [],
      "stateMutability": "nonpayable",
      "type": "function"
    },
    {
      "inputs": [
        {
          "internalType": "uint256",
          "name": "",
          "type": "uint256"
        }
      ],
      "name": "records",
      "outputs": [
        {
          "internalType": "uint128",
          "name": "volume",
          "type": "uint128"
        },
        {
          "internalType": "uint128",
          "name": "when",
          "type": "uint128"
        }
      ],
      "stateMutability": "view",
      "type": "function"
    },
    {
      "inputs": [],
      "name": "renCrvArbitrum",
      "outputs": [
        {
          "internalType": "address",
          "name": "",
          "type": "address"
        }
      ],
      "stateMutability": "view",
      "type": "function"
    },
    {
      "inputs": [
        {
          "internalType": "uint256",
          "name": "value",
          "type": "uint256"
        }
      ],
      "name": "repayMeta",
      "outputs": [],
      "stateMutability": "nonpayable",
      "type": "function"
    },
    {
      "inputs": [
        {
          "internalType": "uint256",
          "name": "_amount",
          "type": "uint256"
        }
      ],
      "name": "setBlockTimeout",
      "outputs": [],
      "stateMutability": "nonpayable",
      "type": "function"
    },
    {
      "inputs": [],
      "name": "tricryptoArbitrum",
      "outputs": [
        {
          "internalType": "address",
          "name": "",
          "type": "address"
        }
      ],
      "stateMutability": "view",
      "type": "function"
    },
    {
      "inputs": [],
      "name": "want",
      "outputs": [
        {
          "internalType": "address",
          "name": "",
          "type": "address"
        }
      ],
      "stateMutability": "view",
      "type": "function"
    },
    {
      "inputs": [],
      "name": "wbtc",
      "outputs": [
        {
          "internalType": "address",
          "name": "",
          "type": "address"
        }
      ],
      "stateMutability": "view",
      "type": "function"
    },
    {
      "inputs": [],
      "name": "weth",
      "outputs": [
        {
          "internalType": "address",
          "name": "",
          "type": "address"
        }
      ],
      "stateMutability": "view",
      "type": "function"
    },
    {
      "stateMutability": "payable",
      "type": "receive"
    }
  ],
  "transactionHash": "0xf97fad5f697422e0f3e67fc181e9b6068fd4e60675400a49e1a2fa5397bbc613",
  "args": [
    "0x53f38bEA30fE6919e0475Fe57C2629f3D3754d1E",
    "1500000000",
    "100000"
  ],
  "numDeployments": 2,
  "solcInputHash": "a107231292f6da35c02f811adc5a79b2",
  "bytecode": "0x60a06040523480156200001157600080fd5b506040516200140d3803806200140d833981810160405260608110156200003757600080fd5b5080516020808301516040909301516001600160601b0319606084901b166080526002849055600181905591929190620000af9073dbf31df14b66535af65aac99c32e9ea844e1450190733e01dd8a5e1fb3481f0f589056b428fc308af0fb906001600160fe1b0390620007b762000100821b17901c565b620000f7732f2a2543b76a4166549f7aab2e75bef0aefc5b0f73960ea3e3c7fb317332d990873d354e18d76455906001600160fe1b0362000100602090811b620007b717901c565b50505062000512565b8015806200018a575060408051636eb1769f60e11b81523060048201526001600160a01b03848116602483015291519185169163dd62ed3e91604480820192602092909190829003018186803b1580156200015a57600080fd5b505afa1580156200016f573d6000803e3d6000fd5b505050506040513d60208110156200018657600080fd5b5051155b620001c75760405162461bcd60e51b8152600401808060200182810382526036815260200180620013d76036913960400191505060405180910390fd5b604080516001600160a01b038416602482015260448082018490528251808303909101815260649091019091526020810180516001600160e01b0390811663095ea7b360e01b179091526200021f9185916200022416565b505050565b600062000280826040518060400160405280602081526020017f5361666545524332303a206c6f772d6c6576656c2063616c6c206661696c6564815250856001600160a01b0316620002e060201b620008cf179092919060201c565b8051909150156200021f57808060200190516020811015620002a157600080fd5b50516200021f5760405162461bcd60e51b815260040180806020018281038252602a815260200180620013ad602a913960400191505060405180910390fd5b6060620002f18484600085620002fb565b90505b9392505050565b6060824710156200033e5760405162461bcd60e51b8152600401808060200182810382526026815260200180620013876026913960400191505060405180910390fd5b620003498562000462565b6200039b576040805162461bcd60e51b815260206004820152601d60248201527f416464726573733a2063616c6c20746f206e6f6e2d636f6e7472616374000000604482015290519081900360640190fd5b600080866001600160a01b031685876040518082805190602001908083835b60208310620003db5780518252601f199092019160209182019101620003ba565b6001836020036101000a03801982511681845116808217855250505050505090500191505060006040518083038185875af1925050503d80600081146200043f576040519150601f19603f3d011682016040523d82523d6000602084013e62000444565b606091505b5090925090506200045782828662000468565b979650505050505050565b3b151590565b6060831562000479575081620002f4565b8251156200048a5782518084602001fd5b8160405162461bcd60e51b81526004018080602001828103825283818151815260200191508051906020019080838360005b83811015620004d6578181015183820152602001620004bc565b50505050905090810190601f168015620005045780820380516001836020036101000a031916815260200191505b509250505060405180910390fd5b60805160601c610e43620005446000398061048b5280610525528061064c528061074d52806107955250610e436000f3fe6080604052600436106100ec5760003560e01c80635b496f751161008a578063874a0e7311610059578063874a0e731461033b578063a7f6ad141461038e578063d3469fad146103a3578063f77c4791146103cd576100f3565b80635b496f75146102c05780635cfc1a51146102d557806373883a2b146102fc57806380e7165514610326576100f3565b806337e55e20116100c657806337e55e20146101ae5780633cdc5389146102815780633fc8cef3146102965780635aa6e675146102ab576100f3565b8063086d3c7a146100f85780631f1fcd51146101245780633446106714610155576100f3565b366100f357005b600080fd5b34801561010457600080fd5b506101226004803603602081101561011b57600080fd5b50356103e2565b005b34801561013057600080fd5b50610139610442565b604080516001600160a01b039092168252519081900360200190f35b34801561016157600080fd5b5061017f6004803603602081101561017857600080fd5b503561045a565b60405180836001600160801b03168152602001826001600160801b031681526020019250505060405180910390f35b3480156101ba57600080fd5b50610122600480360360808110156101d157600080fd5b6001600160a01b0382358116926020810135909116916040820135919081019060808101606082013564010000000081111561020c57600080fd5b82018360208201111561021e57600080fd5b8035906020019184600183028401116401000000008311171561024057600080fd5b91908080601f016020809104026020016040519081016040528093929190818152602001838380828437600092019190915250929550610480945050505050565b34801561028d57600080fd5b506101396104f1565b3480156102a257600080fd5b50610139610509565b3480156102b757600080fd5b50610139610521565b3480156102cc57600080fd5b506101396105ad565b3480156102e157600080fd5b506102ea6105c5565b60408051918252519081900360200190f35b34801561030857600080fd5b506102ea6004803603602081101561031f57600080fd5b50356105cb565b34801561033257600080fd5b506102ea6105f7565b34801561034757600080fd5b506103656004803603602081101561035e57600080fd5b50356105fd565b6040805167ffffffffffffffff9094168452602084019290925282820152519081900360600190f35b34801561039a57600080fd5b50610139610629565b3480156103af57600080fd5b50610122600480360360208110156103c657600080fd5b5035610641565b3480156103d957600080fd5b50610139610793565b6103ea610521565b6001600160a01b0316336001600160a01b03161461043d576040805162461bcd60e51b815260206004820152600b60248201526a21676f7665726e616e636560a81b604482015290519081900360640190fd5b600155565b73dbf31df14b66535af65aac99c32e9ea844e1450181565b6003602052600090815260409020546001600160801b0380821691600160801b90041682565b336001600160a01b037f000000000000000000000000000000000000000000000000000000000000000016146104eb576040805162461bcd60e51b815260206004820152600b60248201526a10b1b7b73a3937b63632b960a91b604482015290519081900360640190fd5b50505050565b732f2a2543b76a4166549f7aab2e75bef0aefc5b0f81565b7382af49447d8a07e3bd95bd0d56f35241523fbab181565b60007f00000000000000000000000000000000000000000000000000000000000000006001600160a01b0316635aa6e6756040518163ffffffff1660e01b815260040160206040518083038186803b15801561057c57600080fd5b505afa158015610590573d6000803e3d6000fd5b505050506040513d60208110156105a657600080fd5b5051905090565b73960ea3e3c7fb317332d990873d354e18d764559081565b60025481565b60006105f1670de0b6b3a76400006105eb846710a741a4627800006108e8565b90610941565b92915050565b60015481565b60006020819052908152604090208054600182015460029092015467ffffffffffffffff909116919083565b733e01dd8a5e1fb3481f0f589056b428fc308af0fb81565b336001600160a01b037f000000000000000000000000000000000000000000000000000000000000000016146106ac576040805162461bcd60e51b815260206004820152600b60248201526a10b1b7b73a3937b63632b960a91b604482015290519081900360640190fd5b604080516370a0823160e01b815230600482015290516107339173dbf31df14b66535af65aac99c32e9ea844e14501916370a0823191602480820192602092909190829003018186803b15801561070257600080fd5b505afa158015610716573d6000803e3d6000fd5b505050506040513d602081101561072c57600080fd5b50516109a8565b61077273dbf31df14b66535af65aac99c32e9ea844e145017f0000000000000000000000000000000000000000000000000000000000000000836109e9565b61079073dbf31df14b66535af65aac99c32e9ea844e1450182610a3b565b50565b7f000000000000000000000000000000000000000000000000000000000000000081565b80158061083d575060408051636eb1769f60e11b81523060048201526001600160a01b03848116602483015291519185169163dd62ed3e91604480820192602092909190829003018186803b15801561080f57600080fd5b505afa158015610823573d6000803e3d6000fd5b505050506040513d602081101561083957600080fd5b5051155b6108785760405162461bcd60e51b8152600401808060200182810382526036815260200180610dd86036913960400191505060405180910390fd5b604080516001600160a01b038416602482015260448082018490528251808303909101815260649091019091526020810180516001600160e01b031663095ea7b360e01b1790526108ca908490610a8f565b505050565b60606108de8484600085610b40565b90505b9392505050565b6000826108f7575060006105f1565b8282028284828161090457fe5b04146108e15760405162461bcd60e51b8152600401808060200182810382526021815260200180610d8d6021913960400191505060405180910390fd5b6000808211610997576040805162461bcd60e51b815260206004820152601a60248201527f536166654d6174683a206469766973696f6e206279207a65726f000000000000604482015290519081900360640190fd5b8183816109a057fe5b049392505050565b6040805160248082018490528251808303909101815260449091019091526020810180516001600160e01b031663f5b1bba960e01b17905261079090610c9b565b604080516001600160a01b038416602482015260448082018490528251808303909101815260649091019091526020810180516001600160e01b031663a9059cbb60e01b1790526108ca908490610a8f565b604080516001600160a01b038416602482015260448082018490528251808303909101815260649091019091526020810180516001600160e01b0316632243cfa360e01b179052610a8b90610c9b565b5050565b6000610ae4826040518060400160405280602081526020017f5361666545524332303a206c6f772d6c6576656c2063616c6c206661696c6564815250856001600160a01b03166108cf9092919063ffffffff16565b8051909150156108ca57808060200190516020811015610b0357600080fd5b50516108ca5760405162461bcd60e51b815260040180806020018281038252602a815260200180610dae602a913960400191505060405180910390fd5b606082471015610b815760405162461bcd60e51b8152600401808060200182810382526026815260200180610d676026913960400191505060405180910390fd5b610b8a85610cbc565b610bdb576040805162461bcd60e51b815260206004820152601d60248201527f416464726573733a2063616c6c20746f206e6f6e2d636f6e7472616374000000604482015290519081900360640190fd5b600080866001600160a01b031685876040518082805190602001908083835b60208310610c195780518252601f199092019160209182019101610bfa565b6001836020036101000a03801982511681845116808217855250505050505090500191505060006040518083038185875af1925050503d8060008114610c7b576040519150601f19603f3d011682016040523d82523d6000602084013e610c80565b606091505b5091509150610c90828286610cc2565b979650505050505050565b80516a636f6e736f6c652e6c6f67602083016000808483855afa5050505050565b3b151590565b60608315610cd15750816108e1565b825115610ce15782518084602001fd5b8160405162461bcd60e51b81526004018080602001828103825283818151815260200191508051906020019080838360005b83811015610d2b578181015183820152602001610d13565b50505050905090810190601f168015610d585780820380516001836020036101000a031916815260200191505b509250505060405180910390fdfe416464726573733a20696e73756666696369656e742062616c616e636520666f722063616c6c536166654d6174683a206d756c7469706c69636174696f6e206f766572666c6f775361666545524332303a204552433230206f7065726174696f6e20646964206e6f7420737563636565645361666545524332303a20617070726f76652066726f6d206e6f6e2d7a65726f20746f206e6f6e2d7a65726f20616c6c6f77616e6365a2646970667358221220f65396012068ba9ac3a136a40da12df6e4812c29c7e7f895fadc0e66a25f647a64736f6c63430007060033416464726573733a20696e73756666696369656e742062616c616e636520666f722063616c6c5361666545524332303a204552433230206f7065726174696f6e20646964206e6f7420737563636565645361666545524332303a20617070726f76652066726f6d206e6f6e2d7a65726f20746f206e6f6e2d7a65726f20616c6c6f77616e6365",
  "libraries": {},
  "devdoc": {
    "kind": "dev",
    "methods": {},
    "version": 1
  },
  "userdoc": {
    "kind": "user",
    "methods": {},
    "version": 1
  },
  "storageLayout": {
    "storage": [
      {
        "astId": 11550,
        "contract": "contracts/modules/MetaExecutor.sol:MetaExecutor",
        "label": "outstanding",
        "offset": 0,
        "slot": "0",
        "type": "t_mapping(t_uint256,t_struct(ConvertRecord)10566_storage)"
      },
      {
        "astId": 11554,
        "contract": "contracts/modules/MetaExecutor.sol:MetaExecutor",
        "label": "blockTimeout",
        "offset": 0,
        "slot": "1",
        "type": "t_uint256"
      },
      {
        "astId": 11571,
        "contract": "contracts/modules/MetaExecutor.sol:MetaExecutor",
        "label": "capacity",
        "offset": 0,
        "slot": "2",
        "type": "t_uint256"
      },
      {
        "astId": 11580,
        "contract": "contracts/modules/MetaExecutor.sol:MetaExecutor",
        "label": "records",
        "offset": 0,
        "slot": "3",
        "type": "t_mapping(t_uint256,t_struct(ConvertRecord)11576_storage)"
      }
    ],
    "types": {
      "t_mapping(t_uint256,t_struct(ConvertRecord)10566_storage)": {
        "encoding": "mapping",
        "key": "t_uint256",
        "label": "mapping(uint256 => struct ArbitrumConvertLib.ConvertRecord)",
        "numberOfBytes": "32",
        "value": "t_struct(ConvertRecord)10566_storage"
      },
      "t_mapping(t_uint256,t_struct(ConvertRecord)11576_storage)": {
        "encoding": "mapping",
        "key": "t_uint256",
        "label": "mapping(uint256 => struct MetaExecutor.ConvertRecord)",
        "numberOfBytes": "32",
        "value": "t_struct(ConvertRecord)11576_storage"
      },
      "t_struct(ConvertRecord)10566_storage": {
        "encoding": "inplace",
        "label": "struct ArbitrumConvertLib.ConvertRecord",
        "members": [
          {
            "astId": 10561,
            "contract": "contracts/modules/MetaExecutor.sol:MetaExecutor",
            "label": "when",
            "offset": 0,
            "slot": "0",
            "type": "t_uint64"
          },
          {
            "astId": 10563,
            "contract": "contracts/modules/MetaExecutor.sol:MetaExecutor",
            "label": "qtyETH",
            "offset": 0,
            "slot": "1",
            "type": "t_uint256"
          },
          {
            "astId": 10565,
            "contract": "contracts/modules/MetaExecutor.sol:MetaExecutor",
            "label": "qty",
            "offset": 0,
            "slot": "2",
            "type": "t_uint256"
          }
        ],
        "numberOfBytes": "96"
      },
      "t_struct(ConvertRecord)11576_storage": {
        "encoding": "inplace",
        "label": "struct MetaExecutor.ConvertRecord",
        "members": [
          {
            "astId": 11573,
            "contract": "contracts/modules/MetaExecutor.sol:MetaExecutor",
            "label": "volume",
            "offset": 0,
            "slot": "0",
            "type": "t_uint128"
          },
          {
            "astId": 11575,
            "contract": "contracts/modules/MetaExecutor.sol:MetaExecutor",
            "label": "when",
            "offset": 16,
            "slot": "0",
            "type": "t_uint128"
          }
        ],
        "numberOfBytes": "32"
      },
      "t_uint128": {
        "encoding": "inplace",
        "label": "uint128",
        "numberOfBytes": "16"
      },
      "t_uint256": {
        "encoding": "inplace",
        "label": "uint256",
        "numberOfBytes": "32"
      },
      "t_uint64": {
        "encoding": "inplace",
        "label": "uint64",
        "numberOfBytes": "8"
      }
    }
  }
}