{
  "address": "0x36C02dA8a0983159322a80FFE9F24b1acfF8B570",
  "abi": [
    {
      "inputs": [
        {
          "internalType": "address",
          "name": "_controller",
          "type": "address"
        }
      ],
      "stateMutability": "nonpayable",
      "type": "constructor"
    },
    {
      "inputs": [],
      "name": "balanceOf",
      "outputs": [
        {
          "internalType": "uint256",
          "name": "",
          "type": "uint256"
        }
      ],
      "stateMutability": "view",
      "type": "function"
    },
    {
      "inputs": [],
      "name": "controller",
      "outputs": [
        {
          "internalType": "address",
          "name": "",
          "type": "address"
        }
      ],
      "stateMutability": "view",
      "type": "function"
    },
    {
      "inputs": [],
      "name": "deposit",
      "outputs": [],
      "stateMutability": "nonpayable",
      "type": "function"
    },
    {
      "inputs": [],
      "name": "governance",
      "outputs": [
        {
          "internalType": "address",
          "name": "",
          "type": "address"
        }
      ],
      "stateMutability": "view",
      "type": "function"
    },
    {
      "inputs": [],
      "name": "isActive",
      "outputs": [
        {
          "internalType": "bool",
          "name": "",
          "type": "bool"
        }
      ],
      "stateMutability": "view",
      "type": "function"
    },
    {
      "inputs": [],
      "name": "name",
      "outputs": [
        {
          "internalType": "string",
          "name": "",
          "type": "string"
        }
      ],
      "stateMutability": "view",
      "type": "function"
    },
    {
      "inputs": [
        {
          "internalType": "address",
          "name": "_module",
          "type": "address"
        },
        {
          "internalType": "uint256",
          "name": "_amount",
          "type": "uint256"
        }
      ],
      "name": "permissionedSend",
      "outputs": [],
      "stateMutability": "nonpayable",
      "type": "function"
    },
    {
      "inputs": [
        {
          "internalType": "uint256",
          "name": "",
          "type": "uint256"
        }
      ],
      "name": "renBTCPath",
      "outputs": [
        {
          "internalType": "address",
          "name": "",
          "type": "address"
        }
      ],
      "stateMutability": "view",
      "type": "function"
    },
    {
      "inputs": [],
      "name": "reserveETH",
      "outputs": [
        {
          "internalType": "uint256",
          "name": "",
          "type": "uint256"
        }
      ],
      "stateMutability": "view",
      "type": "function"
    },
    {
      "inputs": [],
      "name": "reserveRenBTC",
      "outputs": [
        {
          "internalType": "uint256",
          "name": "",
          "type": "uint256"
        }
      ],
      "stateMutability": "view",
      "type": "function"
    },
    {
      "inputs": [],
      "name": "router",
      "outputs": [
        {
          "internalType": "address",
          "name": "",
          "type": "address"
        }
      ],
      "stateMutability": "view",
      "type": "function"
    },
    {
      "inputs": [],
      "name": "strategist",
      "outputs": [
        {
          "internalType": "address",
          "name": "",
          "type": "address"
        }
      ],
      "stateMutability": "view",
      "type": "function"
    },
    {
      "inputs": [],
      "name": "usdc",
      "outputs": [
        {
          "internalType": "address",
          "name": "",
          "type": "address"
        }
      ],
      "stateMutability": "view",
      "type": "function"
    },
    {
      "inputs": [],
      "name": "vault",
      "outputs": [
        {
          "internalType": "address",
          "name": "",
          "type": "address"
        }
      ],
      "stateMutability": "view",
      "type": "function"
    },
    {
      "inputs": [],
      "name": "vaultWant",
      "outputs": [
        {
          "internalType": "address",
          "name": "",
          "type": "address"
        }
      ],
      "stateMutability": "view",
      "type": "function"
    },
    {
      "inputs": [
        {
          "internalType": "uint256",
          "name": "",
          "type": "uint256"
        }
      ],
      "name": "wETHPath",
      "outputs": [
        {
          "internalType": "address",
          "name": "",
          "type": "address"
        }
      ],
      "stateMutability": "view",
      "type": "function"
    },
    {
      "inputs": [
        {
          "internalType": "uint256",
          "name": "",
          "type": "uint256"
        }
      ],
      "name": "wETHtoRenBTCPath",
      "outputs": [
        {
          "internalType": "address",
          "name": "",
          "type": "address"
        }
      ],
      "stateMutability": "view",
      "type": "function"
    },
    {
      "inputs": [],
      "name": "want",
      "outputs": [
        {
          "internalType": "address",
          "name": "",
          "type": "address"
        }
      ],
      "stateMutability": "view",
      "type": "function"
    },
    {
      "inputs": [
        {
          "internalType": "uint256",
          "name": "",
          "type": "uint256"
        }
      ],
      "name": "wantToVaultWantPath",
      "outputs": [
        {
          "internalType": "address",
          "name": "",
          "type": "address"
        }
      ],
      "stateMutability": "view",
      "type": "function"
    },
    {
      "inputs": [],
      "name": "weth",
      "outputs": [
        {
          "internalType": "address",
          "name": "",
          "type": "address"
        }
      ],
      "stateMutability": "view",
      "type": "function"
    },
    {
      "inputs": [
        {
          "internalType": "uint256",
          "name": "_amount",
          "type": "uint256"
        }
      ],
      "name": "withdraw",
      "outputs": [],
      "stateMutability": "nonpayable",
      "type": "function"
    },
    {
      "inputs": [],
      "name": "withdrawAll",
      "outputs": [],
      "stateMutability": "nonpayable",
      "type": "function"
    }
  ],
  "transactionHash": "0xdbd6e5334dbe685290ab6a6409d1585ee91c40381a4b0dcbcb960ec46f785032",
  "args": [
    "0x0E801D84Fa97b50751Dbf25036d067dCf18858bF"
  ],
  "solcInputHash": "898581a12a265dc523d5b9e070d7bbef",
  "bytecode": "0x60a06040523480156200001157600080fd5b5060405162001a7438038062001a74833981810160405260208110156200003757600080fd5b505160068054336001600160a01b03199182168117909255600780549091169091179055606081811b6001600160601b03191660805260408051918201815273eb4c2781e4eba804ce9a9803c67d0893436bb27d825273c02aaa39b223fe8d0a0e5c4f27ead9083c756cc2602083015273a0b86991c6218b36c1d19d4a2e9eb0ce3606eb4890820152620000cf6002826003620001d8565b506040805180820190915273c02aaa39b223fe8d0a0e5c4f27ead9083c756cc2815273a0b86991c6218b36c1d19d4a2e9eb0ce3606eb4860208201526200011a6003826002620001d8565b506040805180820190915273c02aaa39b223fe8d0a0e5c4f27ead9083c756cc2815273eb4c2781e4eba804ce9a9803c67d0893436bb27d6020820152620001656004826002620001d8565b506040805160608101825273eb4c2781e4eba804ce9a9803c67d0893436bb27d815273c02aaa39b223fe8d0a0e5c4f27ead9083c756cc26020820152732260fac5e5542a773aa44fbcfedf7c193bc2c59991810191909152620001cc6005826003620001d8565b50505050505062000259565b82805482825590600052602060002090810192821562000230579160200282015b828111156200023057825182546001600160a01b0319166001600160a01b03909116178255602090920191600190910190620001f9565b506200023e92915062000242565b5090565b5b808211156200023e576000815560010162000243565b60805160601c6117df62000295600039806103ed52806104e3528061066552806107e252806109ac5280610abc528061117152506117df6000f3fe608060405234801561001057600080fd5b50600436106101425760003560e01c80635aa6e675116100b8578063a96ff3541161007c578063a96ff3541461030d578063d0e30db014610315578063d3a71c4e1461031d578063f77c479114610325578063f887ea401461032d578063fbfa77cf1461033557610142565b80635aa6e675146102ac578063722713f7146102b4578063853828b6146102bc57806394976bf2146102c4578063a60bbc80146102e157610142565b806322f3e2d41161010a57806322f3e2d414610227578063265d94c5146102435780632e1a7d4d146102605780633e413bee1461027f5780633fc8cef31461028757806351bf4b621461028f57610142565b806306fdde0314610147578063100af203146101c457806312002188146101de5780631f1fcd51146102175780631fe4a6861461021f575b600080fd5b61014f61033d565b6040805160208082528351818301528351919283929083019185019080838360005b83811015610189578181015183820152602001610171565b50505050905090810190601f1680156101b65780820380516001836020036101000a031916815260200191505b509250505060405180910390f35b6101cc610376565b60408051918252519081900360200190f35b6101fb600480360360208110156101f457600080fd5b503561037c565b604080516001600160a01b039092168252519081900360200190f35b6101fb6103a6565b6101fb6103be565b61022f6103cd565b604080519115158252519081900360200190f35b6101fb6004803603602081101561025957600080fd5b50356103d2565b61027d6004803603602081101561027657600080fd5b50356103e2565b005b6101fb610585565b6101fb61059d565b6101fb600480360360208110156102a557600080fd5b50356105b5565b6101fb6105c5565b6101cc6105d4565b61027d61065a565b6101fb600480360360208110156102da57600080fd5b5035610aa1565b61027d600480360360408110156102f757600080fd5b506001600160a01b038135169060200135610ab1565b6101cc610c65565b61027d610c6b565b6101fb611157565b6101fb61116f565b6101fb611193565b6101fb6111ab565b6040518060400160405280601c81526020017f30636f6e6669726d6174696f6e2052656e564d2053747261746567790000000081525081565b60015481565b6002818154811061038c57600080fd5b6000918252602090912001546001600160a01b0316905081565b73eb4c2781e4eba804ce9a9803c67d0893436bb27d81565b6007546001600160a01b031681565b600181565b6005818154811061038c57600080fd5b336001600160a01b037f0000000000000000000000000000000000000000000000000000000000000000161461044d576040805162461bcd60e51b815260206004820152600b60248201526a10b1b7b73a3937b63632b960a91b604482015290519081900360640190fd5b73a696a63cc78dffa1a63e9e50587c197387ff6c7e6001600160a01b0316632e1a7d4d826040518263ffffffff1660e01b815260040180828152602001915050602060405180830381600087803b1580156104a757600080fd5b505af11580156104bb573d6000803e3d6000fd5b505050506040513d60208110156104d157600080fd5b50506040805163a9059cbb60e01b81527f00000000000000000000000000000000000000000000000000000000000000006001600160a01b0316600482015260248101839052905173eb4c2781e4eba804ce9a9803c67d0893436bb27d9163a9059cbb9160448083019260209291908290030181600087803b15801561055657600080fd5b505af115801561056a573d6000803e3d6000fd5b505050506040513d602081101561058057600080fd5b505050565b73a0b86991c6218b36c1d19d4a2e9eb0ce3606eb4881565b73c02aaa39b223fe8d0a0e5c4f27ead9083c756cc281565b6003818154811061038c57600080fd5b6006546001600160a01b031681565b604080516370a0823160e01b8152306004820152905160009173a696a63cc78dffa1a63e9e50587c197387ff6c7e916370a0823191602480820192602092909190829003018186803b15801561062957600080fd5b505afa15801561063d573d6000803e3d6000fd5b505050506040513d602081101561065357600080fd5b5051905090565b336001600160a01b037f000000000000000000000000000000000000000000000000000000000000000016146106c5576040805162461bcd60e51b815260206004820152600b60248201526a10b1b7b73a3937b63632b960a91b604482015290519081900360640190fd5b604080516370a0823160e01b8152306004820152905160009173a696a63cc78dffa1a63e9e50587c197387ff6c7e916370a0823191602480820192602092909190829003018186803b15801561071a57600080fd5b505afa15801561072e573d6000803e3d6000fd5b505050506040513d602081101561074457600080fd5b505160408051632e1a7d4d60e01b815260048101839052905191925073a696a63cc78dffa1a63e9e50587c197387ff6c7e91632e1a7d4d916024808201926020929091908290030181600087803b15801561079e57600080fd5b505af11580156107b2573d6000803e3d6000fd5b505050506040513d60208110156107c857600080fd5b5050604051637ff36ab560e01b81524760048281018281527f00000000000000000000000000000000000000000000000000000000000000006001600160a01b038116604486015242606486018190526080602487019081528454608488018190529596737a250d5630b4cf539739df2c5dacb4c659f2488d96637ff36ab5968996909594939092909160a4909101908690801561088f57602002820191906000526020600020905b81546001600160a01b03168152600190910190602001808311610871575b505095505050505050600060405180830381600087803b1580156108b257600080fd5b505af11580156108c6573d6000803e3d6000fd5b505050506040513d6000823e601f3d908101601f1916820160405260208110156108ef57600080fd5b810190808051604051939291908464010000000082111561090f57600080fd5b90830190602082018581111561092457600080fd5b825186602082028301116401000000008211171561094157600080fd5b82525081516020918201928201910280838360005b8381101561096e578181015183820152602001610956565b505050509190910160408181526370a0823160e01b82523060048301525173eb4c2781e4eba804ce9a9803c67d0893436bb27d965063a9059cbb95507f000000000000000000000000000000000000000000000000000000000000000094508693506370a0823192506024808301926020929190829003018186803b1580156109f657600080fd5b505afa158015610a0a573d6000803e3d6000fd5b505050506040513d6020811015610a2057600080fd5b5051604080516001600160e01b031960e086901b1681526001600160a01b03909316600484015260248301919091525160448083019260209291908290030181600087803b158015610a7157600080fd5b505af1158015610a85573d6000803e3d6000fd5b505050506040513d6020811015610a9b57600080fd5b50505050565b6004818154811061038c57600080fd5b336001600160a01b037f00000000000000000000000000000000000000000000000000000000000000001614610b1c576040805162461bcd60e51b815260206004820152600b60248201526a10b1b7b73a3937b63632b960a91b604482015290519081900360640190fd5b73a696a63cc78dffa1a63e9e50587c197387ff6c7e6001600160a01b0316632e1a7d4d826040518263ffffffff1660e01b815260040180828152602001915050602060405180830381600087803b158015610b7657600080fd5b505af1158015610b8a573d6000803e3d6000fd5b505050506040513d6020811015610ba057600080fd5b5050604080518082018252600781526642616c616e636560c81b60208281019190915282516370a0823160e01b81523060048201529251610c429373eb4c2781e4eba804ce9a9803c67d0893436bb27d926370a0823192602480840193829003018186803b158015610c1157600080fd5b505afa158015610c25573d6000803e3d6000fd5b505050506040513d6020811015610c3b57600080fd5b50516111c3565b610c6173eb4c2781e4eba804ce9a9803c67d0893436bb27d8383611271565b5050565b60005481565b604080516370a0823160e01b8152306004820152905160009173eb4c2781e4eba804ce9a9803c67d0893436bb27d916370a0823191602480820192602092909190829003018186803b158015610cc057600080fd5b505afa158015610cd4573d6000803e3d6000fd5b505050506040513d6020811015610cea57600080fd5b505190506064811115611154576000610d048260646112c3565b90506000737a250d5630b4cf539739df2c5dacb4c659f2488d6001600160a01b031663d06ca61f8360056040518363ffffffff1660e01b815260040180838152602001806020018281038252838181548152602001915080548015610d9257602002820191906000526020600020905b81546001600160a01b03168152600190910190602001808311610d74575b5050935050505060006040518083038186803b158015610db157600080fd5b505afa158015610dc5573d6000803e3d6000fd5b505050506040513d6000823e601f3d908101601f191682016040526020811015610dee57600080fd5b8101908080516040519392919084640100000000821115610e0e57600080fd5b908301906020820185811115610e2357600080fd5b8251866020820283011164010000000082111715610e4057600080fd5b82525081516020918201928201910280838360005b83811015610e6d578181015183820152602001610e55565b50505050919091016040525050600554610e8b9250905060016112c3565b81518110610e9557fe5b60209081029190910101519050610ed573eb4c2781e4eba804ce9a9803c67d0893436bb27d737a250d5630b4cf539739df2c5dacb4c659f2488d84611320565b6000737a250d5630b4cf539739df2c5dacb4c659f2488d6001600160a01b03166338ed17398484600530426001016040518663ffffffff1660e01b81526004018086815260200185815260200180602001846001600160a01b031681526020018381526020018281038252858181548152602001915080548015610f8257602002820191906000526020600020905b81546001600160a01b03168152600190910190602001808311610f64575b50509650505050505050600060405180830381600087803b158015610fa657600080fd5b505af1158015610fba573d6000803e3d6000fd5b505050506040513d6000823e601f3d908101601f191682016040526020811015610fe357600080fd5b810190808051604051939291908464010000000082111561100357600080fd5b90830190602082018581111561101857600080fd5b825186602082028301116401000000008211171561103557600080fd5b82525081516020918201928201910280838360005b8381101561106257818101518382015260200161104a565b505050509190910160405250506005546110809250905060016112c3565b8151811061108a57fe5b602090810291909101015190506110ca732260fac5e5542a773aa44fbcfedf7c193bc2c59973a696a63cc78dffa1a63e9e50587c197387ff6c7e83611320565b73a696a63cc78dffa1a63e9e50587c197387ff6c7e6001600160a01b031663b6b55f25826040518263ffffffff1660e01b815260040180828152602001915050602060405180830381600087803b15801561112457600080fd5b505af1158015611138573d6000803e3d6000fd5b505050506040513d602081101561114e57600080fd5b50505050505b50565b732260fac5e5542a773aa44fbcfedf7c193bc2c59981565b7f000000000000000000000000000000000000000000000000000000000000000081565b737a250d5630b4cf539739df2c5dacb4c659f2488d81565b73a696a63cc78dffa1a63e9e50587c197387ff6c7e81565b610c6182826040516024018080602001838152602001828103825284818151815260200191508051906020019080838360005b8381101561120e5781810151838201526020016111f6565b50505050905090810190601f16801561123b5780820380516001836020036101000a031916815260200191505b5060408051601f198184030181529190526020810180516001600160e01b03166309710a9d60e41b179052935061143392505050565b604080516001600160a01b038416602482015260448082018490528251808303909101815260649091019091526020810180516001600160e01b031663a9059cbb60e01b179052610580908490611454565b60008282111561131a576040805162461bcd60e51b815260206004820152601e60248201527f536166654d6174683a207375627472616374696f6e206f766572666c6f770000604482015290519081900360640190fd5b50900390565b8015806113a6575060408051636eb1769f60e11b81523060048201526001600160a01b03848116602483015291519185169163dd62ed3e91604480820192602092909190829003018186803b15801561137857600080fd5b505afa15801561138c573d6000803e3d6000fd5b505050506040513d60208110156113a257600080fd5b5051155b6113e15760405162461bcd60e51b81526004018080602001828103825260368152602001806117746036913960400191505060405180910390fd5b604080516001600160a01b038416602482015260448082018490528251808303909101815260649091019091526020810180516001600160e01b031663095ea7b360e01b179052610580908490611454565b80516a636f6e736f6c652e6c6f67602083016000808483855afa5050505050565b60006114a9826040518060400160405280602081526020017f5361666545524332303a206c6f772d6c6576656c2063616c6c206661696c6564815250856001600160a01b03166115059092919063ffffffff16565b805190915015610580578080602001905160208110156114c857600080fd5b50516105805760405162461bcd60e51b815260040180806020018281038252602a81526020018061174a602a913960400191505060405180910390fd5b6060611514848460008561151e565b90505b9392505050565b60608247101561155f5760405162461bcd60e51b81526004018080602001828103825260268152602001806117246026913960400191505060405180910390fd5b61156885611679565b6115b9576040805162461bcd60e51b815260206004820152601d60248201527f416464726573733a2063616c6c20746f206e6f6e2d636f6e7472616374000000604482015290519081900360640190fd5b600080866001600160a01b031685876040518082805190602001908083835b602083106115f75780518252601f1990920191602091820191016115d8565b6001836020036101000a03801982511681845116808217855250505050505090500191505060006040518083038185875af1925050503d8060008114611659576040519150601f19603f3d011682016040523d82523d6000602084013e61165e565b606091505b509150915061166e82828661167f565b979650505050505050565b3b151590565b6060831561168e575081611517565b82511561169e5782518084602001fd5b8160405162461bcd60e51b81526004018080602001828103825283818151815260200191508051906020019080838360005b838110156116e85781810151838201526020016116d0565b50505050905090810190601f1680156117155780820380516001836020036101000a031916815260200191505b509250505060405180910390fdfe416464726573733a20696e73756666696369656e742062616c616e636520666f722063616c6c5361666545524332303a204552433230206f7065726174696f6e20646964206e6f7420737563636565645361666545524332303a20617070726f76652066726f6d206e6f6e2d7a65726f20746f206e6f6e2d7a65726f20616c6c6f77616e6365a264697066735822122065965700722786cde9ef1e68d0de3c7f4616c6bd45e8d927c6ff15d01177812b64736f6c63430007060033",
  "devdoc": {
    "kind": "dev",
    "methods": {},
    "version": 1
  },
  "userdoc": {
    "kind": "user",
    "methods": {},
    "version": 1
  },
  "storageLayout": {
    "storage": [
      {
        "astId": 6166,
        "contract": "contracts/strategies/StrategyRenVM.sol:StrategyRenVM",
        "label": "reserveRenBTC",
        "offset": 0,
        "slot": "0",
        "type": "t_uint256"
      },
      {
        "astId": 6168,
        "contract": "contracts/strategies/StrategyRenVM.sol:StrategyRenVM",
        "label": "reserveETH",
        "offset": 0,
        "slot": "1",
        "type": "t_uint256"
      },
      {
        "astId": 6173,
        "contract": "contracts/strategies/StrategyRenVM.sol:StrategyRenVM",
        "label": "renBTCPath",
        "offset": 0,
        "slot": "2",
        "type": "t_array(t_address)dyn_storage"
      },
      {
        "astId": 6176,
        "contract": "contracts/strategies/StrategyRenVM.sol:StrategyRenVM",
        "label": "wETHPath",
        "offset": 0,
        "slot": "3",
        "type": "t_array(t_address)dyn_storage"
      },
      {
        "astId": 6179,
        "contract": "contracts/strategies/StrategyRenVM.sol:StrategyRenVM",
        "label": "wETHtoRenBTCPath",
        "offset": 0,
        "slot": "4",
        "type": "t_array(t_address)dyn_storage"
      },
      {
        "astId": 6182,
        "contract": "contracts/strategies/StrategyRenVM.sol:StrategyRenVM",
        "label": "wantToVaultWantPath",
        "offset": 0,
        "slot": "5",
        "type": "t_array(t_address)dyn_storage"
      },
      {
        "astId": 6184,
        "contract": "contracts/strategies/StrategyRenVM.sol:StrategyRenVM",
        "label": "governance",
        "offset": 0,
        "slot": "6",
        "type": "t_address"
      },
      {
        "astId": 6186,
        "contract": "contracts/strategies/StrategyRenVM.sol:StrategyRenVM",
        "label": "strategist",
        "offset": 0,
        "slot": "7",
        "type": "t_address"
      }
    ],
    "types": {
      "t_address": {
        "encoding": "inplace",
        "label": "address",
        "numberOfBytes": "20"
      },
      "t_array(t_address)dyn_storage": {
        "base": "t_address",
        "encoding": "dynamic_array",
        "label": "address[]",
        "numberOfBytes": "32"
      },
      "t_uint256": {
        "encoding": "inplace",
        "label": "uint256",
        "numberOfBytes": "32"
      }
    }
  }
}