{
  "address": "0xcbEAF3BDe82155F56486Fb5a1072cb8baAf547cc",
  "abi": [
    {
      "inputs": [
        {
          "internalType": "address",
          "name": "_controller",
          "type": "address"
        }
      ],
      "stateMutability": "nonpayable",
      "type": "constructor"
    },
    {
      "inputs": [],
      "name": "balanceOf",
      "outputs": [
        {
          "internalType": "uint256",
          "name": "",
          "type": "uint256"
        }
      ],
      "stateMutability": "view",
      "type": "function"
    },
    {
      "inputs": [],
      "name": "controller",
      "outputs": [
        {
          "internalType": "address",
          "name": "",
          "type": "address"
        }
      ],
      "stateMutability": "view",
      "type": "function"
    },
    {
      "inputs": [],
      "name": "curveBTCPool",
      "outputs": [
        {
          "internalType": "address",
          "name": "",
          "type": "address"
        }
      ],
      "stateMutability": "view",
      "type": "function"
    },
    {
      "inputs": [],
      "name": "curveTriPool",
      "outputs": [
        {
          "internalType": "address",
          "name": "",
          "type": "address"
        }
      ],
      "stateMutability": "view",
      "type": "function"
    },
    {
      "inputs": [],
      "name": "deposit",
      "outputs": [],
      "stateMutability": "nonpayable",
      "type": "function"
    },
    {
      "inputs": [],
      "name": "gasReserve",
      "outputs": [
        {
          "internalType": "uint256",
          "name": "",
          "type": "uint256"
        }
      ],
      "stateMutability": "view",
      "type": "function"
    },
    {
      "inputs": [],
      "name": "governance",
      "outputs": [
        {
          "internalType": "address",
          "name": "",
          "type": "address"
        }
      ],
      "stateMutability": "view",
      "type": "function"
    },
    {
      "inputs": [],
      "name": "isActive",
      "outputs": [
        {
          "internalType": "bool",
          "name": "",
          "type": "bool"
        }
      ],
      "stateMutability": "view",
      "type": "function"
    },
    {
      "inputs": [],
      "name": "name",
      "outputs": [
        {
          "internalType": "string",
          "name": "",
          "type": "string"
        }
      ],
      "stateMutability": "view",
      "type": "function"
    },
    {
      "inputs": [],
      "name": "nativeWrapper",
      "outputs": [
        {
          "internalType": "address",
          "name": "",
          "type": "address"
        }
      ],
      "stateMutability": "view",
      "type": "function"
    },
    {
      "inputs": [
        {
          "internalType": "address payable",
          "name": "_target",
          "type": "address"
        },
        {
          "internalType": "uint256",
          "name": "_amount",
          "type": "uint256"
        }
      ],
      "name": "permissionedEther",
      "outputs": [],
      "stateMutability": "nonpayable",
      "type": "function"
    },
    {
      "inputs": [
        {
          "internalType": "address",
          "name": "_module",
          "type": "address"
        },
        {
          "internalType": "uint256",
          "name": "_amount",
          "type": "uint256"
        }
      ],
      "name": "permissionedSend",
      "outputs": [
        {
          "internalType": "uint256",
          "name": "",
          "type": "uint256"
        }
      ],
      "stateMutability": "nonpayable",
      "type": "function"
    },
    {
      "inputs": [],
      "name": "strategist",
      "outputs": [
        {
          "internalType": "address",
          "name": "",
          "type": "address"
        }
      ],
      "stateMutability": "view",
      "type": "function"
    },
    {
      "inputs": [],
      "name": "vault",
      "outputs": [
        {
          "internalType": "address",
          "name": "",
          "type": "address"
        }
      ],
      "stateMutability": "view",
      "type": "function"
    },
    {
      "inputs": [],
      "name": "vaultWant",
      "outputs": [
        {
          "internalType": "address",
          "name": "",
          "type": "address"
        }
      ],
      "stateMutability": "view",
      "type": "function"
    },
    {
      "inputs": [],
      "name": "vaultWantIndex",
      "outputs": [
        {
          "internalType": "int128",
          "name": "",
          "type": "int128"
        }
      ],
      "stateMutability": "view",
      "type": "function"
    },
    {
      "inputs": [],
      "name": "want",
      "outputs": [
        {
          "internalType": "address",
          "name": "",
          "type": "address"
        }
      ],
      "stateMutability": "view",
      "type": "function"
    },
    {
      "inputs": [],
      "name": "wantIndex",
      "outputs": [
        {
          "internalType": "int128",
          "name": "",
          "type": "int128"
        }
      ],
      "stateMutability": "view",
      "type": "function"
    },
    {
      "inputs": [],
      "name": "wantReserve",
      "outputs": [
        {
          "internalType": "uint256",
          "name": "",
          "type": "uint256"
        }
      ],
      "stateMutability": "view",
      "type": "function"
    },
    {
      "inputs": [
        {
          "internalType": "uint256",
          "name": "_amount",
          "type": "uint256"
        }
      ],
      "name": "withdraw",
      "outputs": [],
      "stateMutability": "nonpayable",
      "type": "function"
    },
    {
      "inputs": [],
      "name": "withdrawAll",
      "outputs": [],
      "stateMutability": "nonpayable",
      "type": "function"
    },
    {
      "stateMutability": "payable",
      "type": "receive"
    }
  ],
  "transactionHash": "0x0193f64c2226077c06537a1d0f67bdfb6084fa79aadfcba6e422e151b29df9a3",
  "args": [
    "0x7969c5eD335650692Bc04293B07F5BF2e7A673C0"
  ],
  "solcInputHash": "b5ce4dc0409a98ab611efd37dcb0909f",
  "bytecode": "0x60a06040523480156200001157600080fd5b5060405162002a3738038062002a37833981810160405260208110156200003757600080fd5b505160008054336001600160a01b03199182168117909255600180549091169091179055606081901b6001600160601b031916608052620000b0732260fac5e5542a773aa44fbcfedf7c193bc2c59973a696a63cc78dffa1a63e9e50587c197387ff6c7e600019620000b7602090811b6200193917901c565b50620004c9565b80158062000141575060408051636eb1769f60e11b81523060048201526001600160a01b03848116602483015291519185169163dd62ed3e91604480820192602092909190829003018186803b1580156200011157600080fd5b505afa15801562000126573d6000803e3d6000fd5b505050506040513d60208110156200013d57600080fd5b5051155b6200017e5760405162461bcd60e51b815260040180806020018281038252603681526020018062002a016036913960400191505060405180910390fd5b604080516001600160a01b038416602482015260448082018490528251808303909101815260649091019091526020810180516001600160e01b0390811663095ea7b360e01b17909152620001d6918591620001db16565b505050565b600062000237826040518060400160405280602081526020017f5361666545524332303a206c6f772d6c6576656c2063616c6c206661696c6564815250856001600160a01b03166200029760201b62001a4c179092919060201c565b805190915015620001d6578080602001905160208110156200025857600080fd5b5051620001d65760405162461bcd60e51b815260040180806020018281038252602a815260200180620029d7602a913960400191505060405180910390fd5b6060620002a88484600085620002b2565b90505b9392505050565b606082471015620002f55760405162461bcd60e51b8152600401808060200182810382526026815260200180620029b16026913960400191505060405180910390fd5b620003008562000419565b62000352576040805162461bcd60e51b815260206004820152601d60248201527f416464726573733a2063616c6c20746f206e6f6e2d636f6e7472616374000000604482015290519081900360640190fd5b600080866001600160a01b031685876040518082805190602001908083835b60208310620003925780518252601f19909201916020918201910162000371565b6001836020036101000a03801982511681845116808217855250505050505090500191505060006040518083038185875af1925050503d8060008114620003f6576040519150601f19603f3d011682016040523d82523d6000602084013e620003fb565b606091505b5090925090506200040e8282866200041f565b979650505050505050565b3b151590565b6060831562000430575081620002ab565b825115620004415782518084602001fd5b8160405162461bcd60e51b81526004018080602001828103825283818151815260200191508051906020019080838360005b838110156200048d57818101518382015260200162000473565b50505050905090810190601f168015620004bb5780820380516001836020036101000a031916815260200191505b509250505060405180910390fd5b60805160601c6124846200052d600039806104a9528061050e5280610616528061067b528061074b52806108475280610a195280610acd5280610db952806110335280611308528061159a528061175552806118ff5280611b3a52506124846000f3fe60806040526004361061012d5760003560e01c8063853828b6116100ab578063d0e30db01161006f578063d0e30db0146103a1578063d3a71c4e146103b6578063eea7570e146103cb578063f4f2a509146103e0578063f77c4791146103f5578063fbfa77cf1461040a57610134565b8063853828b6146102d95780638802bdad146102ee5780639068871f14610327578063919d10f514610353578063a60bbc801461036857610134565b806322f3e2d4116100f257806322f3e2d4146102455780632e1a7d4d1461026e578063572cbd411461029a5780635aa6e675146102af578063722713f7146102c457610134565b806262ba931461013957806306fdde03146101605780630b48a8b8146101ea5780631f1fcd511461021b5780631fe4a6861461023057610134565b3661013457005b600080fd5b34801561014557600080fd5b5061014e61041f565b60408051918252519081900360200190f35b34801561016c57600080fd5b50610175610427565b6040805160208082528351818301528351919283929083019185019080838360005b838110156101af578181015183820152602001610197565b50505050905090810190601f1680156101dc5780820380516001836020036101000a031916815260200191505b509250505060405180910390f35b3480156101f657600080fd5b506101ff610460565b604080516001600160a01b039092168252519081900360200190f35b34801561022757600080fd5b506101ff610478565b34801561023c57600080fd5b506101ff61048a565b34801561025157600080fd5b5061025a610499565b604080519115158252519081900360200190f35b34801561027a57600080fd5b506102986004803603602081101561029157600080fd5b503561049e565b005b3480156102a657600080fd5b506101ff61055e565b3480156102bb57600080fd5b506101ff610576565b3480156102d057600080fd5b5061014e610585565b3480156102e557600080fd5b5061029861060b565b3480156102fa57600080fd5b506102986004803603604081101561031157600080fd5b506001600160a01b038135169060200135610740565b34801561033357600080fd5b5061033c610d8f565b60408051600f9290920b8252519081900360200190f35b34801561035f57600080fd5b506101ff610d94565b34801561037457600080fd5b5061014e6004803603604081101561038b57600080fd5b506001600160a01b038135169060200135610dac565b3480156103ad57600080fd5b50610298610f5f565b3480156103c257600080fd5b506101ff6118d9565b3480156103d757600080fd5b5061014e6118f1565b3480156103ec57600080fd5b5061033c610499565b34801561040157600080fd5b506101ff6118fd565b34801561041657600080fd5b506101ff611921565b630bebc20081565b6040518060400160405280601c81526020017f30636f6e6669726d6174696f6e2052656e564d2053747261746567790000000081525081565b73c02aaa39b223fe8d0a0e5c4f27ead9083c756cc281565b6000805160206123ae83398151915281565b6001546001600160a01b031681565b600181565b336001600160a01b037f00000000000000000000000000000000000000000000000000000000000000001614610509576040805162461bcd60e51b815260206004820152600b60248201526a10b1b7b73a3937b63632b960a91b604482015290519081900360640190fd5b61055b7f0000000000000000000000000000000000000000000000000000000000000000610545836000805160206123ae833981519152611a65565b6000805160206123ae8339815191529190611e09565b50565b7380466c64868e1ab14a1ddf27a676c3fcbe638fe581565b6000546001600160a01b031681565b604080516370a0823160e01b8152306004820152905160009173a696a63cc78dffa1a63e9e50587c197387ff6c7e916370a0823191602480820192602092909190829003018186803b1580156105da57600080fd5b505afa1580156105ee573d6000803e3d6000fd5b505050506040513d602081101561060457600080fd5b5051905090565b336001600160a01b037f00000000000000000000000000000000000000000000000000000000000000001614610676576040805162461bcd60e51b815260206004820152600b60248201526a10b1b7b73a3937b63632b960a91b604482015290519081900360640190fd5b61073e7f000000000000000000000000000000000000000000000000000000000000000061054573a696a63cc78dffa1a63e9e50587c197387ff6c7e6001600160a01b03166370a08231306040518263ffffffff1660e01b815260040180826001600160a01b0316815260200191505060206040518083038186803b1580156106fe57600080fd5b505afa158015610712573d6000803e3d6000fd5b505050506040513d602081101561072857600080fd5b50516000805160206123ae833981519152611a65565b565b336001600160a01b037f000000000000000000000000000000000000000000000000000000000000000016146107ab576040805162461bcd60e51b815260206004820152600b60248201526a10b1b7b73a3937b63632b960a91b604482015290519081900360640190fd5b6107e96040518060400160405280601b81526020017f456e746572696e67207065726d697373696f6e65642065746865720000000000815250611e5b565b674563918244f40000811115610d54576040805163e4f2494d60e01b815273c02aaa39b223fe8d0a0e5c4f27ead9083c756cc26004820152732260fac5e5542a773aa44fbcfedf7c193bc2c599602482015290516001600160a01b037f0000000000000000000000000000000000000000000000000000000000000000169163e4f2494d916044808301926020929190829003018186803b15801561088d57600080fd5b505afa1580156108a1573d6000803e3d6000fd5b505050506040513d60208110156108b757600080fd5b50516040805163138f252760e31b81526004810184905290516001600160a01b0390921691639c79293891602480820192602092909190829003018186803b15801561090257600080fd5b505afa158015610916573d6000803e3d6000fd5b505050506040513d602081101561092c57600080fd5b50519050600061093b82611f01565b9050600073a696a63cc78dffa1a63e9e50587c197387ff6c7e6001600160a01b0316632e1a7d4d836040518263ffffffff1660e01b815260040180828152602001915050602060405180830381600087803b15801561099957600080fd5b505af11580156109ad573d6000803e3d6000fd5b505050506040513d60208110156109c357600080fd5b50516040805163e4f2494d60e01b8152732260fac5e5542a773aa44fbcfedf7c193bc2c599600482015273c02aaa39b223fe8d0a0e5c4f27ead9083c756cc2602482015290519192506000916001600160a01b037f0000000000000000000000000000000000000000000000000000000000000000169163e4f2494d916044808301926020929190829003018186803b158015610a5f57600080fd5b505afa158015610a73573d6000803e3d6000fd5b505050506040513d6020811015610a8957600080fd5b50516040805163e4f2494d60e01b815273c02aaa39b223fe8d0a0e5c4f27ead9083c756cc26004820152600060248201819052915192935090916001600160a01b037f0000000000000000000000000000000000000000000000000000000000000000169163e4f2494d916044808301926020929190829003018186803b158015610b1357600080fd5b505afa158015610b27573d6000803e3d6000fd5b505050506040513d6020811015610b3d57600080fd5b50516040805163a9059cbb60e01b81526001600160a01b0385166004820152602481018690529051919250732260fac5e5542a773aa44fbcfedf7c193bc2c5999163a9059cbb916044808201926020929091908290030181600087803b158015610ba657600080fd5b505af1158015610bba573d6000803e3d6000fd5b505050506040513d6020811015610bd057600080fd5b50506040805163def2489b60e01b815230600482015290516001600160a01b0384169163def2489b9160248083019260209291908290030181600087803b158015610c1a57600080fd5b505af1158015610c2e573d6000803e3d6000fd5b505050506040513d6020811015610c4457600080fd5b50516040805163a9059cbb60e01b81526001600160a01b038416600482015260248101839052905191965073c02aaa39b223fe8d0a0e5c4f27ead9083c756cc29163a9059cbb916044808201926020929091908290030181600087803b158015610cad57600080fd5b505af1158015610cc1573d6000803e3d6000fd5b505050506040513d6020811015610cd757600080fd5b50506040805163def2489b60e01b815230600482015290516001600160a01b0383169163def2489b9160248083019260209291908290030181600087803b158015610d2157600080fd5b505af1158015610d35573d6000803e3d6000fd5b505050506040513d6020811015610d4b57600080fd5b50519450505050505b6040516001600160a01b0383169082156108fc029083906000818181858888f19350505050158015610d8a573d6000803e3d6000fd5b505050565b600081565b737fc77b5c7614e1533320ea6ddc2eb61fa00a971481565b6000336001600160a01b037f00000000000000000000000000000000000000000000000000000000000000001614610e19576040805162461bcd60e51b815260206004820152600b60248201526a10b1b7b73a3937b63632b960a91b604482015290519081900360640190fd5b604080516370a0823160e01b815230600482015290516000916000805160206123ae833981519152916370a0823191602480820192602092909190829003018186803b158015610e6857600080fd5b505afa158015610e7c573d6000803e3d6000fd5b505050506040513d6020811015610e9257600080fd5b505160408051631f1fcd5160e01b815290519192506000916001600160a01b03871691631f1fcd51916004808301926020929190829003018186803b158015610eda57600080fd5b505afa158015610eee573d6000803e3d6000fd5b505050506040513d6020811015610f0457600080fd5b5051905081841180610f2d57506001600160a01b0381166000805160206123ae83398151915214155b15610f3f57610f3c8482611a65565b93505b610f536001600160a01b0382168686611e09565b83925050505b92915050565b604080516370a0823160e01b815230600482015290516000916000805160206123ae833981519152916370a0823191602480820192602092909190829003018186803b158015610fae57600080fd5b505afa158015610fc2573d6000803e3d6000fd5b505050506040513d6020811015610fd857600080fd5b50519050630bebc200811115611291576040805163e4f2494d60e01b81526000805160206123ae8339815191526004820152732260fac5e5542a773aa44fbcfedf7c193bc2c599602482015290516000916001600160a01b037f0000000000000000000000000000000000000000000000000000000000000000169163e4f2494d91604480820192602092909190829003018186803b15801561107a57600080fd5b505afa15801561108e573d6000803e3d6000fd5b505050506040513d60208110156110a457600080fd5b505190506001600160a01b0381166110f0576040805162461bcd60e51b815260206004820152600a60248201526910b1b7b73b32b93a32b960b11b604482015290519081900360640190fd5b600061110083630bebc200611f93565b90506000805160206123ae8339815191526001600160a01b031663a9059cbb83836040518363ffffffff1660e01b815260040180836001600160a01b0316815260200182815260200192505050602060405180830381600087803b15801561116757600080fd5b505af115801561117b573d6000803e3d6000fd5b505050506040513d602081101561119157600080fd5b50506040805163def2489b60e01b815260006004820181905291516001600160a01b0385169163def2489b91602480830192602092919082900301818787803b1580156111dd57600080fd5b505af11580156111f1573d6000803e3d6000fd5b505050506040513d602081101561120757600080fd5b50516040805163b6b55f2560e01b815260048101839052905191925073a696a63cc78dffa1a63e9e50587c197387ff6c7e9163b6b55f25916024808201926020929091908290030181600087803b15801561126157600080fd5b505af1158015611275573d6000803e3d6000fd5b505050506040513d602081101561128b57600080fd5b50505050505b47674563918244f400008110156118d5576112b4674563918244f4000082611f93565b6040805163e4f2494d60e01b815273c02aaa39b223fe8d0a0e5c4f27ead9083c756cc26004820152732260fac5e5542a773aa44fbcfedf7c193bc2c599602482015290519192506000916001600160a01b037f0000000000000000000000000000000000000000000000000000000000000000169163e4f2494d916044808301926020929190829003018186803b15801561134e57600080fd5b505afa158015611362573d6000803e3d6000fd5b505050506040513d602081101561137857600080fd5b50516040805163138f252760e31b81526004810185905290519192506000916001600160a01b03841691639c792938916024808301926020929190829003018186803b1580156113c757600080fd5b505afa1580156113db573d6000803e3d6000fd5b505050506040513d60208110156113f157600080fd5b50519050600061140082611f01565b604080516370a0823160e01b81523060048201529051919250829173a696a63cc78dffa1a63e9e50587c197387ff6c7e916370a08231916024808301926020929190829003018186803b15801561145657600080fd5b505afa15801561146a573d6000803e3d6000fd5b505050506040513d602081101561148057600080fd5b5051116114be576040805162461bcd60e51b8152602060048201526007602482015266042cadcdeeaced60cb1b604482015290519081900360640190fd5b600073a696a63cc78dffa1a63e9e50587c197387ff6c7e6001600160a01b0316632e1a7d4d836040518263ffffffff1660e01b815260040180828152602001915050602060405180830381600087803b15801561151a57600080fd5b505af115801561152e573d6000803e3d6000fd5b505050506040513d602081101561154457600080fd5b50516040805163e4f2494d60e01b8152732260fac5e5542a773aa44fbcfedf7c193bc2c599600482015273c02aaa39b223fe8d0a0e5c4f27ead9083c756cc2602482015290519192506000916001600160a01b037f0000000000000000000000000000000000000000000000000000000000000000169163e4f2494d916044808301926020929190829003018186803b1580156115e057600080fd5b505afa1580156115f4573d6000803e3d6000fd5b505050506040513d602081101561160a57600080fd5b50516040805163a9059cbb60e01b81526001600160a01b0383166004820152602481018590529051919250732260fac5e5542a773aa44fbcfedf7c193bc2c5999163a9059cbb916044808201926020929091908290030181600087803b15801561167357600080fd5b505af1158015611687573d6000803e3d6000fd5b505050506040513d602081101561169d57600080fd5b50506040805163def2489b60e01b815230600482015290516001600160a01b0383169163def2489b9160248083019260209291908290030181600087803b1580156116e757600080fd5b505af11580156116fb573d6000803e3d6000fd5b505050506040513d602081101561171157600080fd5b50516040805163e4f2494d60e01b815273c02aaa39b223fe8d0a0e5c4f27ead9083c756cc26004820152600060248201819052915192945090916001600160a01b037f0000000000000000000000000000000000000000000000000000000000000000169163e4f2494d916044808301926020929190829003018186803b15801561179b57600080fd5b505afa1580156117af573d6000803e3d6000fd5b505050506040513d60208110156117c557600080fd5b50516040805163a9059cbb60e01b81526001600160a01b038316600482015260248101869052905191925073c02aaa39b223fe8d0a0e5c4f27ead9083c756cc29163a9059cbb916044808201926020929091908290030181600087803b15801561182e57600080fd5b505af1158015611842573d6000803e3d6000fd5b505050506040513d602081101561185857600080fd5b50506040805163def2489b60e01b815230600482015290516001600160a01b0383169163def2489b9160248083019260209291908290030181600087803b1580156118a257600080fd5b505af11580156118b6573d6000803e3d6000fd5b505050506040513d60208110156118cc57600080fd5b50505050505050505b5050565b732260fac5e5542a773aa44fbcfedf7c193bc2c59981565b674563918244f4000081565b7f000000000000000000000000000000000000000000000000000000000000000081565b73a696a63cc78dffa1a63e9e50587c197387ff6c7e81565b8015806119bf575060408051636eb1769f60e11b81523060048201526001600160a01b03848116602483015291519185169163dd62ed3e91604480820192602092909190829003018186803b15801561199157600080fd5b505afa1580156119a5573d6000803e3d6000fd5b505050506040513d60208110156119bb57600080fd5b5051155b6119fa5760405162461bcd60e51b81526004018080602001828103825260368152602001806124196036913960400191505060405180910390fd5b604080516001600160a01b038416602482015260448082018490528251808303909101815260649091019091526020810180516001600160e01b031663095ea7b360e01b179052610d8a908490611ff0565b6060611a5b84846000856120a1565b90505b9392505050565b60006001600160a01b0382166000805160206123ae8339815191521480611aa857506001600160a01b038216732260fac5e5542a773aa44fbcfedf7c193bc2c599145b611aef576040805162461bcd60e51b8152602060048201526013602482015272185cdcd95d081b9bdd081cdd5c1c1bdc9d1959606a1b604482015290519081900360640190fd5b6040805163e4f2494d60e01b81526000805160206123ae8339815191526004820152732260fac5e5542a773aa44fbcfedf7c193bc2c599602482015290516000916001600160a01b037f0000000000000000000000000000000000000000000000000000000000000000169163e4f2494d91604480820192602092909190829003018186803b158015611b8157600080fd5b505afa158015611b95573d6000803e3d6000fd5b505050506040513d6020811015611bab57600080fd5b505190506001600160a01b0383166000805160206123ae8339815191521415611c4157806001600160a01b0316639c792938856040518263ffffffff1660e01b81526004018082815260200191505060206040518083038186803b158015611c1257600080fd5b505afa158015611c26573d6000803e3d6000fd5b505050506040513d6020811015611c3c57600080fd5b505193505b6000611c4c85611f01565b905073a696a63cc78dffa1a63e9e50587c197387ff6c7e6001600160a01b0316632e1a7d4d826040518263ffffffff1660e01b815260040180828152602001915050602060405180830381600087803b158015611ca857600080fd5b505af1158015611cbc573d6000803e3d6000fd5b505050506040513d6020811015611cd257600080fd5b505194506001600160a01b0384166000805160206123ae8339815191521415611e00576040805163a9059cbb60e01b81526001600160a01b0384166004820152602481018790529051732260fac5e5542a773aa44fbcfedf7c193bc2c5999163a9059cbb9160448083019260209291908290030181600087803b158015611d5857600080fd5b505af1158015611d6c573d6000803e3d6000fd5b505050506040513d6020811015611d8257600080fd5b50506040805163def2489b60e01b815260006004820181905291516001600160a01b0385169263def2489b92602480820193602093909283900390910190829087803b158015611dd157600080fd5b505af1158015611de5573d6000803e3d6000fd5b505050506040513d6020811015611dfb57600080fd5b505194505b50929392505050565b604080516001600160a01b038416602482015260448082018490528251808303909101815260649091019091526020810180516001600160e01b031663a9059cbb60e01b179052610d8a908490611ff0565b61055b816040516024018080602001828103825283818151815260200191508051906020019080838360005b83811015611e9f578181015183820152602001611e87565b50505050905090810190601f168015611ecc5780820380516001836020036101000a031916815260200191505b5060408051601f198184030181529190526020810180516001600160e01b031663104c13eb60e21b17905292506121fc915050565b6000610f5973a696a63cc78dffa1a63e9e50587c197387ff6c7e6001600160a01b03166399530b066040518163ffffffff1660e01b815260040160206040518083038186803b158015611f5357600080fd5b505afa158015611f67573d6000803e3d6000fd5b505050506040513d6020811015611f7d57600080fd5b5051611f8d846305f5e10061221d565b90612276565b600082821115611fea576040805162461bcd60e51b815260206004820152601e60248201527f536166654d6174683a207375627472616374696f6e206f766572666c6f770000604482015290519081900360640190fd5b50900390565b6000612045826040518060400160405280602081526020017f5361666545524332303a206c6f772d6c6576656c2063616c6c206661696c6564815250856001600160a01b0316611a4c9092919063ffffffff16565b805190915015610d8a5780806020019051602081101561206457600080fd5b5051610d8a5760405162461bcd60e51b815260040180806020018281038252602a8152602001806123ef602a913960400191505060405180910390fd5b6060824710156120e25760405162461bcd60e51b81526004018080602001828103825260268152602001806123886026913960400191505060405180910390fd5b6120eb856122dd565b61213c576040805162461bcd60e51b815260206004820152601d60248201527f416464726573733a2063616c6c20746f206e6f6e2d636f6e7472616374000000604482015290519081900360640190fd5b600080866001600160a01b031685876040518082805190602001908083835b6020831061217a5780518252601f19909201916020918201910161215b565b6001836020036101000a03801982511681845116808217855250505050505090500191505060006040518083038185875af1925050503d80600081146121dc576040519150601f19603f3d011682016040523d82523d6000602084013e6121e1565b606091505b50915091506121f18282866122e3565b979650505050505050565b80516a636f6e736f6c652e6c6f67602083016000808483855afa5050505050565b60008261222c57506000610f59565b8282028284828161223957fe5b0414611a5e5760405162461bcd60e51b81526004018080602001828103825260218152602001806123ce6021913960400191505060405180910390fd5b60008082116122cc576040805162461bcd60e51b815260206004820152601a60248201527f536166654d6174683a206469766973696f6e206279207a65726f000000000000604482015290519081900360640190fd5b8183816122d557fe5b049392505050565b3b151590565b606083156122f2575081611a5e565b8251156123025782518084602001fd5b8160405162461bcd60e51b81526004018080602001828103825283818151815260200191508051906020019080838360005b8381101561234c578181015183820152602001612334565b50505050905090810190601f1680156123795780820380516001836020036101000a031916815260200191505b509250505060405180910390fdfe416464726573733a20696e73756666696369656e742062616c616e636520666f722063616c6c000000000000000000000000eb4c2781e4eba804ce9a9803c67d0893436bb27d536166654d6174683a206d756c7469706c69636174696f6e206f766572666c6f775361666545524332303a204552433230206f7065726174696f6e20646964206e6f7420737563636565645361666545524332303a20617070726f76652066726f6d206e6f6e2d7a65726f20746f206e6f6e2d7a65726f20616c6c6f77616e6365a264697066735822122017f9c57bd920d3584c4e04e01fd2518da89c9a6a07b7ed9886c9979e605905fb64736f6c63430007060033416464726573733a20696e73756666696369656e742062616c616e636520666f722063616c6c5361666545524332303a204552433230206f7065726174696f6e20646964206e6f7420737563636565645361666545524332303a20617070726f76652066726f6d206e6f6e2d7a65726f20746f206e6f6e2d7a65726f20616c6c6f77616e6365",
  "devdoc": {
    "kind": "dev",
    "methods": {},
    "version": 1
  },
  "userdoc": {
    "kind": "user",
    "methods": {},
    "version": 1
  },
  "storageLayout": {
    "storage": [
      {
        "astId": 7529,
        "contract": "contracts/strategies/StrategyRenVM.sol:StrategyRenVM",
        "label": "governance",
        "offset": 0,
        "slot": "0",
        "type": "t_address"
      },
      {
        "astId": 7531,
        "contract": "contracts/strategies/StrategyRenVM.sol:StrategyRenVM",
        "label": "strategist",
        "offset": 0,
        "slot": "1",
        "type": "t_address"
      }
    ],
    "types": {
      "t_address": {
        "encoding": "inplace",
        "label": "address",
        "numberOfBytes": "20"
      }
    }
  }
}