{
  "address": "0xCD8a1C3ba11CF5ECfa6267617243239504a98d90",
  "abi": [
    {
      "inputs": [
        {
          "internalType": "address",
          "name": "_controller",
          "type": "address"
        }
      ],
      "stateMutability": "nonpayable",
      "type": "constructor"
    },
    {
      "inputs": [],
      "name": "balanceOf",
      "outputs": [
        {
          "internalType": "uint256",
          "name": "",
          "type": "uint256"
        }
      ],
      "stateMutability": "view",
      "type": "function"
    },
    {
      "inputs": [],
      "name": "controller",
      "outputs": [
        {
          "internalType": "address",
          "name": "",
          "type": "address"
        }
      ],
      "stateMutability": "view",
      "type": "function"
    },
    {
      "inputs": [],
      "name": "curveBTCPool",
      "outputs": [
        {
          "internalType": "address",
          "name": "",
          "type": "address"
        }
      ],
      "stateMutability": "view",
      "type": "function"
    },
    {
      "inputs": [],
      "name": "curveTriPool",
      "outputs": [
        {
          "internalType": "address",
          "name": "",
          "type": "address"
        }
      ],
      "stateMutability": "view",
      "type": "function"
    },
    {
      "inputs": [],
      "name": "deposit",
      "outputs": [],
      "stateMutability": "nonpayable",
      "type": "function"
    },
    {
      "inputs": [],
      "name": "gasReserve",
      "outputs": [
        {
          "internalType": "uint256",
          "name": "",
          "type": "uint256"
        }
      ],
      "stateMutability": "view",
      "type": "function"
    },
    {
      "inputs": [],
      "name": "governance",
      "outputs": [
        {
          "internalType": "address",
          "name": "",
          "type": "address"
        }
      ],
      "stateMutability": "view",
      "type": "function"
    },
    {
      "inputs": [],
      "name": "isActive",
      "outputs": [
        {
          "internalType": "bool",
          "name": "",
          "type": "bool"
        }
      ],
      "stateMutability": "view",
      "type": "function"
    },
    {
      "inputs": [],
      "name": "name",
      "outputs": [
        {
          "internalType": "string",
          "name": "",
          "type": "string"
        }
      ],
      "stateMutability": "view",
      "type": "function"
    },
    {
      "inputs": [],
      "name": "nativeWrapper",
      "outputs": [
        {
          "internalType": "address",
          "name": "",
          "type": "address"
        }
      ],
      "stateMutability": "view",
      "type": "function"
    },
    {
      "inputs": [
        {
          "internalType": "address",
          "name": "_module",
          "type": "address"
        },
        {
          "internalType": "uint256",
          "name": "_amount",
          "type": "uint256"
        }
      ],
      "name": "permissionedSend",
      "outputs": [
        {
          "internalType": "uint256",
          "name": "",
          "type": "uint256"
        }
      ],
      "stateMutability": "nonpayable",
      "type": "function"
    },
    {
      "inputs": [
        {
          "internalType": "address payable",
          "name": "_target",
          "type": "address"
        },
        {
          "internalType": "uint256",
          "name": "_amount",
          "type": "uint256"
        }
      ],
      "name": "permissonedEther",
      "outputs": [],
      "stateMutability": "nonpayable",
      "type": "function"
    },
    {
      "inputs": [],
      "name": "strategist",
      "outputs": [
        {
          "internalType": "address",
          "name": "",
          "type": "address"
        }
      ],
      "stateMutability": "view",
      "type": "function"
    },
    {
      "inputs": [],
      "name": "vault",
      "outputs": [
        {
          "internalType": "address",
          "name": "",
          "type": "address"
        }
      ],
      "stateMutability": "view",
      "type": "function"
    },
    {
      "inputs": [],
      "name": "vaultWant",
      "outputs": [
        {
          "internalType": "address",
          "name": "",
          "type": "address"
        }
      ],
      "stateMutability": "view",
      "type": "function"
    },
    {
      "inputs": [],
      "name": "vaultWantIndex",
      "outputs": [
        {
          "internalType": "int128",
          "name": "",
          "type": "int128"
        }
      ],
      "stateMutability": "view",
      "type": "function"
    },
    {
      "inputs": [],
      "name": "want",
      "outputs": [
        {
          "internalType": "address",
          "name": "",
          "type": "address"
        }
      ],
      "stateMutability": "view",
      "type": "function"
    },
    {
      "inputs": [],
      "name": "wantIndex",
      "outputs": [
        {
          "internalType": "int128",
          "name": "",
          "type": "int128"
        }
      ],
      "stateMutability": "view",
      "type": "function"
    },
    {
      "inputs": [],
      "name": "wantReserve",
      "outputs": [
        {
          "internalType": "uint256",
          "name": "",
          "type": "uint256"
        }
      ],
      "stateMutability": "view",
      "type": "function"
    },
    {
      "inputs": [
        {
          "internalType": "uint256",
          "name": "_amount",
          "type": "uint256"
        }
      ],
      "name": "withdraw",
      "outputs": [],
      "stateMutability": "nonpayable",
      "type": "function"
    },
    {
      "inputs": [],
      "name": "withdrawAll",
      "outputs": [],
      "stateMutability": "nonpayable",
      "type": "function"
    },
    {
      "stateMutability": "payable",
      "type": "receive"
    }
  ],
  "transactionHash": "0xc73c6f254849a38d43ed3c8d4c70d1bb8b7d50236bdfda2a8ce7e52842b1ca84",
  "args": [
    "0x4c5859f0F772848b2D91F1D83E2Fe57935348029"
  ],
  "solcInputHash": "02d0edae430b5d136a2f50fdc8d9f8d2",
  "bytecode": "0x60a060405234801561001057600080fd5b50604051611f3e380380611f3e8339818101604052602081101561003357600080fd5b505160008054336001600160a01b03199182168117835560018054909216179055606082901b6001600160601b0319166080526001600160a01b0390911690611e97906100a79039806104af52806105145280610628528061068d52806107825280610e2c5280610f8a5250611e976000f3fe60806040526004361061012d5760003560e01c8063853828b6116100ab578063d3a71c4e1161006f578063d3a71c4e1461037d578063e23c5a4d14610392578063eea7570e146103cb578063f4f2a509146103e0578063f77c4791146103f5578063fbfa77cf1461040a57610134565b8063853828b6146102d95780639068871f146102ee578063919d10f51461031a578063a60bbc801461032f578063d0e30db01461036857610134565b806322f3e2d4116100f257806322f3e2d4146102455780632e1a7d4d1461026e578063572cbd411461029a5780635aa6e675146102af578063722713f7146102c457610134565b806262ba931461013957806306fdde03146101605780630b48a8b8146101ea5780631f1fcd511461021b5780631fe4a6861461023057610134565b3661013457005b600080fd5b34801561014557600080fd5b5061014e61041f565b60408051918252519081900360200190f35b34801561016c57600080fd5b50610175610427565b6040805160208082528351818301528351919283929083019185019080838360005b838110156101af578181015183820152602001610197565b50505050905090810190601f1680156101dc5780820380516001836020036101000a031916815260200191505b509250505060405180910390f35b3480156101f657600080fd5b506101ff610460565b604080516001600160a01b039092168252519081900360200190f35b34801561022757600080fd5b506101ff610478565b34801561023c57600080fd5b506101ff610490565b34801561025157600080fd5b5061025a61049f565b604080519115158252519081900360200190f35b34801561027a57600080fd5b506102986004803603602081101561029157600080fd5b50356104a4565b005b3480156102a657600080fd5b506101ff610570565b3480156102bb57600080fd5b506101ff610588565b3480156102d057600080fd5b5061014e610597565b3480156102e557600080fd5b5061029861061d565b3480156102fa57600080fd5b50610303610758565b60408051600f9290920b8252519081900360200190f35b34801561032657600080fd5b506101ff61075d565b34801561033b57600080fd5b5061014e6004803603604081101561035257600080fd5b506001600160a01b038135169060200135610775565b34801561037457600080fd5b50610298610934565b34801561038957600080fd5b506101ff610e09565b34801561039e57600080fd5b50610298600480360360408110156103b557600080fd5b506001600160a01b038135169060200135610e21565b3480156103d757600080fd5b5061014e610f7c565b3480156103ec57600080fd5b5061030361049f565b34801561040157600080fd5b506101ff610f88565b34801561041657600080fd5b506101ff610fac565b630bebc20081565b6040518060400160405280601c81526020017f30636f6e6669726d6174696f6e2052656e564d2053747261746567790000000081525081565b73c02aaa39b223fe8d0a0e5c4f27ead9083c756cc281565b73eb4c2781e4eba804ce9a9803c67d0893436bb27d81565b6001546001600160a01b031681565b600181565b336001600160a01b037f0000000000000000000000000000000000000000000000000000000000000000161461050f576040805162461bcd60e51b815260206004820152600b60248201526a10b1b7b73a3937b63632b960a91b604482015290519081900360640190fd5b61056d7f00000000000000000000000000000000000000000000000000000000000000006105518373eb4c2781e4eba804ce9a9803c67d0893436bb27d610fc4565b73eb4c2781e4eba804ce9a9803c67d0893436bb27d91906111fd565b50565b7380466c64868e1ab14a1ddf27a676c3fcbe638fe581565b6000546001600160a01b031681565b604080516370a0823160e01b8152306004820152905160009173a696a63cc78dffa1a63e9e50587c197387ff6c7e916370a0823191602480820192602092909190829003018186803b1580156105ec57600080fd5b505afa158015610600573d6000803e3d6000fd5b505050506040513d602081101561061657600080fd5b5051905090565b336001600160a01b037f00000000000000000000000000000000000000000000000000000000000000001614610688576040805162461bcd60e51b815260206004820152600b60248201526a10b1b7b73a3937b63632b960a91b604482015290519081900360640190fd5b6107567f000000000000000000000000000000000000000000000000000000000000000061055173a696a63cc78dffa1a63e9e50587c197387ff6c7e6001600160a01b03166370a08231306040518263ffffffff1660e01b815260040180826001600160a01b0316815260200191505060206040518083038186803b15801561071057600080fd5b505afa158015610724573d6000803e3d6000fd5b505050506040513d602081101561073a57600080fd5b505173eb4c2781e4eba804ce9a9803c67d0893436bb27d610fc4565b565b600081565b737fc77b5c7614e1533320ea6ddc2eb61fa00a971481565b6000336001600160a01b037f000000000000000000000000000000000000000000000000000000000000000016146107e2576040805162461bcd60e51b815260206004820152600b60248201526a10b1b7b73a3937b63632b960a91b604482015290519081900360640190fd5b604080516370a0823160e01b8152306004820152905160009173eb4c2781e4eba804ce9a9803c67d0893436bb27d916370a0823191602480820192602092909190829003018186803b15801561083757600080fd5b505afa15801561084b573d6000803e3d6000fd5b505050506040513d602081101561086157600080fd5b505160408051631f1fcd5160e01b815290519192506000916001600160a01b03871691631f1fcd51916004808301926020929190829003018186803b1580156108a957600080fd5b505afa1580156108bd573d6000803e3d6000fd5b505050506040513d60208110156108d357600080fd5b505190508184118061090257506001600160a01b03811673eb4c2781e4eba804ce9a9803c67d0893436bb27d14155b15610914576109118482610fc4565b93505b6109286001600160a01b03821686866111fd565b83925050505b92915050565b6109666040518060400160405280601181526020017021b0b63634b733903232b837b9b4ba171760791b81525061124f565b604080516370a0823160e01b8152306004820152905160009173eb4c2781e4eba804ce9a9803c67d0893436bb27d916370a0823191602480820192602092909190829003018186803b1580156109bb57600080fd5b505afa1580156109cf573d6000803e3d6000fd5b505050506040513d60208110156109e557600080fd5b50519050630bebc200811115610ae3576000610a2673eb4c2781e4eba804ce9a9803c67d0893436bb27d610a1d84630bebc2006112f5565b60006001611352565b9050610a5b732260fac5e5542a773aa44fbcfedf7c193bc2c59973a696a63cc78dffa1a63e9e50587c197387ff6c7e83611498565b73a696a63cc78dffa1a63e9e50587c197387ff6c7e6001600160a01b031663b6b55f25826040518263ffffffff1660e01b815260040180828152602001915050602060405180830381600087803b158015610ab557600080fd5b505af1158015610ac9573d6000803e3d6000fd5b505050506040513d6020811015610adf57600080fd5b5050505b47674563918244f40000811015610dd657610b06674563918244f40000826112f5565b9050610b3d604051806040016040528060148152602001730c8cae0dee6d2e840d0c2dcc8d8d2dcce40cae8d60631b81525061124f565b6000610b6c6001610b667380466c64868e1ab14a1ddf27a676c3fcbe638fe560026001876115ab565b906112f5565b9050610ba46040518060400160405280601581526020017418dd5c9d99481c1bdbdb0818d85b18dd5b185d1959605a1b81525061124f565b6000610baf826116d3565b9050610bde6040518060400160405280600b81526020016a77616e742073686172657360a81b81525082611765565b604080518082018252600b81526a686176652073686172657360a81b60208083019190915282516370a0823160e01b81523060048201529251610c829373a696a63cc78dffa1a63e9e50587c197387ff6c7e926370a0823192602480840193829003018186803b158015610c5157600080fd5b505afa158015610c65573d6000803e3d6000fd5b505050506040513d6020811015610c7b57600080fd5b5051611765565b604080516370a0823160e01b81523060048201529051829173a696a63cc78dffa1a63e9e50587c197387ff6c7e916370a0823191602480820192602092909190829003018186803b158015610cd657600080fd5b505afa158015610cea573d6000803e3d6000fd5b505050506040513d6020811015610d0057600080fd5b505111610d3e576040805162461bcd60e51b8152602060048201526007602482015266042cadcdeeaced60cb1b604482015290519081900360640190fd5b600073a696a63cc78dffa1a63e9e50587c197387ff6c7e6001600160a01b0316632e1a7d4d836040518263ffffffff1660e01b815260040180828152602001915050602060405180830381600087803b158015610d9a57600080fd5b505af1158015610dae573d6000803e3d6000fd5b505050506040513d6020811015610dc457600080fd5b50519050610dd181611813565b505050505b610e056040518060400160405280600e81526020016d11195c1bdcda5d0818d85b1b195960921b81525061124f565b5050565b732260fac5e5542a773aa44fbcfedf7c193bc2c59981565b336001600160a01b037f00000000000000000000000000000000000000000000000000000000000000001614610e8c576040805162461bcd60e51b815260206004820152600b60248201526a10b1b7b73a3937b63632b960a91b604482015290519081900360640190fd5b674563918244f40000811115610f41576000610ea7826116d3565b9050600073a696a63cc78dffa1a63e9e50587c197387ff6c7e6001600160a01b0316632e1a7d4d836040518263ffffffff1660e01b815260040180828152602001915050602060405180830381600087803b158015610f0557600080fd5b505af1158015610f19573d6000803e3d6000fd5b505050506040513d6020811015610f2f57600080fd5b50519050610f3c81611813565b925050505b6040516001600160a01b0383169082156108fc029083906000818181858888f19350505050158015610f77573d6000803e3d6000fd5b505050565b674563918244f4000081565b7f000000000000000000000000000000000000000000000000000000000000000081565b73a696a63cc78dffa1a63e9e50587c197387ff6c7e81565b60006001600160a01b03821673eb4c2781e4eba804ce9a9803c67d0893436bb27d148061100d57506001600160a01b038216732260fac5e5542a773aa44fbcfedf7c193bc2c599145b611054576040805162461bcd60e51b8152602060048201526013602482015272185cdcd95d081b9bdd081cdd5c1c1bdc9d1959606a1b604482015290519081900360640190fd5b6001600160a01b03821673eb4c2781e4eba804ce9a9803c67d0893436bb27d14156111165760408051635e0d443f60e01b8152600160048201819052600060248301526044820186905291516111139291737fc77b5c7614e1533320ea6ddc2eb61fa00a971491635e0d443f91606480820192602092909190829003018186803b1580156110e157600080fd5b505afa1580156110f5573d6000803e3d6000fd5b505050506040513d602081101561110b57600080fd5b5051906112f5565b92505b6000611121846116d3565b905073a696a63cc78dffa1a63e9e50587c197387ff6c7e6001600160a01b0316632e1a7d4d826040518263ffffffff1660e01b815260040180828152602001915050602060405180830381600087803b15801561117d57600080fd5b505af1158015611191573d6000803e3d6000fd5b505050506040513d60208110156111a757600080fd5b505193506001600160a01b03831673eb4c2781e4eba804ce9a9803c67d0893436bb27d14156111f5576111f2732260fac5e5542a773aa44fbcfedf7c193bc2c5998560016000611352565b93505b509192915050565b604080516001600160a01b038416602482015260448082018490528251808303909101815260649091019091526020810180516001600160e01b031663a9059cbb60e01b179052610f779084906119c4565b61056d816040516024018080602001828103825283818151815260200191508051906020019080838360005b8381101561129357818101518382015260200161127b565b50505050905090810190601f1680156112c05780820380516001836020036101000a031916815260200191505b5060408051601f198184030181529190526020810180516001600160e01b031663104c13eb60e21b1790529250611a75915050565b60008282111561134c576040805162461bcd60e51b815260206004820152601e60248201527f536166654d6174683a207375627472616374696f6e206f766572666c6f770000604482015290519081900360640190fd5b50900390565b600061137c6001600160a01b038616737fc77b5c7614e1533320ea6ddc2eb61fa00a971486611498565b60006113f16001737fc77b5c7614e1533320ea6ddc2eb61fa00a97146001600160a01b0316635e0d443f87878a6040518463ffffffff1660e01b81526004018084600f0b815260200183600f0b8152602001828152602001935050505060206040518083038186803b1580156110e157600080fd5b60408051630f7c084960e21b8152600f87810b600483015286900b602482015260448101889052606481018390529051919250737fc77b5c7614e1533320ea6ddc2eb61fa00a971491633df02124916084808201926020929091908290030181600087803b15801561146257600080fd5b505af1158015611476573d6000803e3d6000fd5b505050506040513d602081101561148c57600080fd5b50909695505050505050565b80158061151e575060408051636eb1769f60e11b81523060048201526001600160a01b03848116602483015291519185169163dd62ed3e91604480820192602092909190829003018186803b1580156114f057600080fd5b505afa158015611504573d6000803e3d6000fd5b505050506040513d602081101561151a57600080fd5b5051155b6115595760405162461bcd60e51b8152600401808060200182810382526036815260200180611e2c6036913960400191505060405180910390fd5b604080516001600160a01b038416602482015260448082018490528251808303909101815260649091019091526020810180516001600160e01b031663095ea7b360e01b179052610f779084906119c4565b604080516024810185905260448101849052606480820184905282518083039091018152608490910182526020810180516001600160e01b0316630f7c084960e21b17815291518151600093849384936001600160a01b038b1693919290918291908083835b602083106116305780518252601f199092019160209182019101611611565b6001836020036101000a038019825116818451168082178552505050505050905001915050600060405180830381855afa9150503d8060008114611690576040519150601f19603f3d011682016040523d82523d6000602084013e611695565b606091505b50915091506116a48151611a96565b816116b157806020018151fd5b8080602001905160208110156116c657600080fd5b5051979650505050505050565b600061092e73a696a63cc78dffa1a63e9e50587c197387ff6c7e6001600160a01b03166399530b066040518163ffffffff1660e01b815260040160206040518083038186803b15801561172557600080fd5b505afa158015611739573d6000803e3d6000fd5b505050506040513d602081101561174f57600080fd5b505161175f846305f5e100611ad7565b90611b37565b610e0582826040516024018080602001838152602001828103825284818151815260200191508051906020019080838360005b838110156117b0578181015183820152602001611798565b50505050905090810190601f1680156117dd5780820380516001836020036101000a031916815260200191505b5060408051601f198184030181529190526020810180516001600160e01b03166309710a9d60e41b1790529350611a7592505050565b600061184873eb4c2781e4eba804ce9a9803c67d0893436bb27d7380466c64868e1ab14a1ddf27a676c3fcbe638fe584611498565b60006118b960017380466c64868e1ab14a1ddf27a676c3fcbe638fe56001600160a01b0316635e0d443f60016002886040518463ffffffff1660e01b815260040180848152602001838152602001828152602001935050505060206040518083038186803b1580156110e157600080fd5b60408051630f7c084960e21b81526001600482015260026024820152604481018690526064810183905290519192507380466c64868e1ab14a1ddf27a676c3fcbe638fe591633df02124916084808201926020929091908290030181600087803b15801561192657600080fd5b505af115801561193a573d6000803e3d6000fd5b505050506040513d602081101561195057600080fd5b505060408051632e1a7d4d60e01b815260048101839052905173c02aaa39b223fe8d0a0e5c4f27ead9083c756cc291632e1a7d4d91602480830192600092919082900301818387803b1580156119a557600080fd5b505af11580156119b9573d6000803e3d6000fd5b509295945050505050565b6000611a19826040518060400160405280602081526020017f5361666545524332303a206c6f772d6c6576656c2063616c6c206661696c6564815250856001600160a01b0316611b9e9092919063ffffffff16565b805190915015610f7757808060200190516020811015611a3857600080fd5b5051610f775760405162461bcd60e51b815260040180806020018281038252602a815260200180611e02602a913960400191505060405180910390fd5b80516a636f6e736f6c652e6c6f67602083016000808483855afa5050505050565b6040805160248082018490528251808303909101815260449091019091526020810180516001600160e01b031663f5b1bba960e01b17905261056d90611a75565b600082611ae65750600061092e565b82820282848281611af357fe5b0414611b305760405162461bcd60e51b8152600401808060200182810382526021815260200180611de16021913960400191505060405180910390fd5b9392505050565b6000808211611b8d576040805162461bcd60e51b815260206004820152601a60248201527f536166654d6174683a206469766973696f6e206279207a65726f000000000000604482015290519081900360640190fd5b818381611b9657fe5b049392505050565b6060611bad8484600085611bb5565b949350505050565b606082471015611bf65760405162461bcd60e51b8152600401808060200182810382526026815260200180611dbb6026913960400191505060405180910390fd5b611bff85611d10565b611c50576040805162461bcd60e51b815260206004820152601d60248201527f416464726573733a2063616c6c20746f206e6f6e2d636f6e7472616374000000604482015290519081900360640190fd5b600080866001600160a01b031685876040518082805190602001908083835b60208310611c8e5780518252601f199092019160209182019101611c6f565b6001836020036101000a03801982511681845116808217855250505050505090500191505060006040518083038185875af1925050503d8060008114611cf0576040519150601f19603f3d011682016040523d82523d6000602084013e611cf5565b606091505b5091509150611d05828286611d16565b979650505050505050565b3b151590565b60608315611d25575081611b30565b825115611d355782518084602001fd5b8160405162461bcd60e51b81526004018080602001828103825283818151815260200191508051906020019080838360005b83811015611d7f578181015183820152602001611d67565b50505050905090810190601f168015611dac5780820380516001836020036101000a031916815260200191505b509250505060405180910390fdfe416464726573733a20696e73756666696369656e742062616c616e636520666f722063616c6c536166654d6174683a206d756c7469706c69636174696f6e206f766572666c6f775361666545524332303a204552433230206f7065726174696f6e20646964206e6f7420737563636565645361666545524332303a20617070726f76652066726f6d206e6f6e2d7a65726f20746f206e6f6e2d7a65726f20616c6c6f77616e6365a2646970667358221220e86376117795e7b67fe36b71f1c164b23b1192069dd48bcde1f51db5702a5bac64736f6c63430007060033",
  "devdoc": {
    "kind": "dev",
    "methods": {},
    "version": 1
  },
  "userdoc": {
    "kind": "user",
    "methods": {},
    "version": 1
  },
  "storageLayout": {
    "storage": [
      {
        "astId": 7104,
        "contract": "contracts/strategies/StrategyRenVM.sol:StrategyRenVM",
        "label": "governance",
        "offset": 0,
        "slot": "0",
        "type": "t_address"
      },
      {
        "astId": 7106,
        "contract": "contracts/strategies/StrategyRenVM.sol:StrategyRenVM",
        "label": "strategist",
        "offset": 0,
        "slot": "1",
        "type": "t_address"
      }
    ],
    "types": {
      "t_address": {
        "encoding": "inplace",
        "label": "address",
        "numberOfBytes": "20"
      }
    }
  }
}