{
  "address": "0x84eA74d481Ee0A5332c457a4d796187F6Ba67fEB",
  "abi": [
    {
      "inputs": [
        {
          "internalType": "address",
          "name": "_controller",
          "type": "address"
        }
      ],
      "stateMutability": "nonpayable",
      "type": "constructor"
    },
    {
      "inputs": [],
      "name": "RENBTC",
      "outputs": [
        {
          "internalType": "address",
          "name": "",
          "type": "address"
        }
      ],
      "stateMutability": "view",
      "type": "function"
    },
    {
      "inputs": [],
      "name": "ROUTER",
      "outputs": [
        {
          "internalType": "address",
          "name": "",
          "type": "address"
        }
      ],
      "stateMutability": "view",
      "type": "function"
    },
    {
      "inputs": [],
      "name": "USDC",
      "outputs": [
        {
          "internalType": "address",
          "name": "",
          "type": "address"
        }
      ],
      "stateMutability": "view",
      "type": "function"
    },
    {
      "inputs": [],
      "name": "WETH",
      "outputs": [
        {
          "internalType": "address",
          "name": "",
          "type": "address"
        }
      ],
      "stateMutability": "view",
      "type": "function"
    },
    {
      "inputs": [],
      "name": "blockTimeout",
      "outputs": [
        {
          "internalType": "uint256",
          "name": "",
          "type": "uint256"
        }
      ],
      "stateMutability": "view",
      "type": "function"
    },
    {
      "inputs": [],
      "name": "controller",
      "outputs": [
        {
          "internalType": "address",
          "name": "",
          "type": "address"
        }
      ],
      "stateMutability": "view",
      "type": "function"
    },
    {
      "inputs": [
        {
          "internalType": "uint256",
          "name": "nonce",
          "type": "uint256"
        }
      ],
      "name": "defaultLoan",
      "outputs": [],
      "stateMutability": "nonpayable",
      "type": "function"
    },
    {
      "inputs": [],
      "name": "governance",
      "outputs": [
        {
          "internalType": "address",
          "name": "",
          "type": "address"
        }
      ],
      "stateMutability": "view",
      "type": "function"
    },
    {
      "inputs": [
        {
          "internalType": "uint256",
          "name": "",
          "type": "uint256"
        }
      ],
      "name": "outstanding",
      "outputs": [
        {
          "internalType": "address",
          "name": "token",
          "type": "address"
        },
        {
          "internalType": "uint64",
          "name": "when",
          "type": "uint64"
        },
        {
          "internalType": "uint256",
          "name": "qty",
          "type": "uint256"
        }
      ],
      "stateMutability": "view",
      "type": "function"
    },
    {
      "inputs": [
        {
          "internalType": "address",
          "name": "to",
          "type": "address"
        },
        {
          "internalType": "address",
          "name": "asset",
          "type": "address"
        },
        {
          "internalType": "uint256",
          "name": "actual",
          "type": "uint256"
        },
        {
          "internalType": "uint256",
          "name": "nonce",
          "type": "uint256"
        },
        {
          "internalType": "bytes",
          "name": "data",
          "type": "bytes"
        }
      ],
      "name": "receiveLoan",
      "outputs": [],
      "stateMutability": "nonpayable",
      "type": "function"
    },
    {
      "inputs": [
        {
          "internalType": "address",
          "name": "to",
          "type": "address"
        },
        {
          "internalType": "address",
          "name": "asset",
          "type": "address"
        },
        {
          "internalType": "uint256",
          "name": "actualAmount",
          "type": "uint256"
        },
        {
          "internalType": "uint256",
          "name": "nonce",
          "type": "uint256"
        },
        {
          "internalType": "bytes",
          "name": "data",
          "type": "bytes"
        }
      ],
      "name": "repayLoan",
      "outputs": [],
      "stateMutability": "nonpayable",
      "type": "function"
    },
    {
      "inputs": [
        {
          "internalType": "uint256",
          "name": "ct",
          "type": "uint256"
        }
      ],
      "name": "setBlockTimeout",
      "outputs": [],
      "stateMutability": "nonpayable",
      "type": "function"
    }
  ],
  "transactionHash": "0xd799db98c8c648051a76496b8f769a411ef398411ad14a749ef4928d34bad86e",
  "args": [
    "0xE958B2907f45eb72CD734bb87DF80a11958870EF"
  ],
  "solcInputHash": "b3a560bf8ab4e96e1c7a5897deb310b9",
  "bytecode": "0x60c06040523480156200001157600080fd5b50604051620014dc380380620014dc833981810160405260208110156200003757600080fd5b50516001600160601b0319606082901b1660805260408051635aa6e67560e01b815290516001600160a01b03831691635aa6e675916004808301926020929190829003018186803b1580156200008c57600080fd5b505afa158015620000a1573d6000803e3d6000fd5b505050506040513d6020811015620000b857600080fd5b505160601b6001600160601b03191660a0526200010d73eb4c2781e4eba804ce9a9803c67d0893436bb27d737a250d5630b4cf539739df2c5dacb4c659f2488d60001962000157602090811b6200075d17901c565b6200015073a0b86991c6218b36c1d19d4a2e9eb0ce3606eb48737a250d5630b4cf539739df2c5dacb4c659f2488d60001962000157602090811b6200075d17901c565b5062000569565b801580620001e1575060408051636eb1769f60e11b81523060048201526001600160a01b03848116602483015291519185169163dd62ed3e91604480820192602092909190829003018186803b158015620001b157600080fd5b505afa158015620001c6573d6000803e3d6000fd5b505050506040513d6020811015620001dd57600080fd5b5051155b6200021e5760405162461bcd60e51b8152600401808060200182810382526036815260200180620014a66036913960400191505060405180910390fd5b604080516001600160a01b038416602482015260448082018490528251808303909101815260649091019091526020810180516001600160e01b0390811663095ea7b360e01b17909152620002769185916200027b16565b505050565b6000620002d7826040518060400160405280602081526020017f5361666545524332303a206c6f772d6c6576656c2063616c6c206661696c6564815250856001600160a01b03166200033760201b62000875179092919060201c565b8051909150156200027657808060200190516020811015620002f857600080fd5b5051620002765760405162461bcd60e51b815260040180806020018281038252602a8152602001806200147c602a913960400191505060405180910390fd5b606062000348848460008562000352565b90505b9392505050565b606082471015620003955760405162461bcd60e51b8152600401808060200182810382526026815260200180620014566026913960400191505060405180910390fd5b620003a085620004b9565b620003f2576040805162461bcd60e51b815260206004820152601d60248201527f416464726573733a2063616c6c20746f206e6f6e2d636f6e7472616374000000604482015290519081900360640190fd5b600080866001600160a01b031685876040518082805190602001908083835b60208310620004325780518252601f19909201916020918201910162000411565b6001836020036101000a03801982511681845116808217855250505050505090500191505060006040518083038185875af1925050503d806000811462000496576040519150601f19603f3d011682016040523d82523d6000602084013e6200049b565b606091505b509092509050620004ae828286620004bf565b979650505050505050565b3b151590565b60608315620004d05750816200034b565b825115620004e15782518084602001fd5b8160405162461bcd60e51b81526004018080602001828103825283818151815260200191508051906020019080838360005b838110156200052d57818101518382015260200162000513565b50505050905090810190601f1680156200055b5780820380516001836020036101000a031916815260200191505b509250505060405180910390fd5b60805160601c60a05160601c610ebe620005986000398061034a52806104f052508061069c5250610ebe6000f3fe608060405234801561001057600080fd5b50600436106100b45760003560e01c8063874a0e7311610071578063874a0e731461020657806389a3027114610254578063ad5c46481461025c578063d7f269fe14610264578063f77c47911461026c578063fd8e915414610274576100b4565b8063086d3c7a146100b95780631639743b146100d857806332fe7b26146101a35780635aa6e675146101c757806367bf61c4146101cf57806380e71655146101ec575b600080fd5b6100d6600480360360208110156100cf57600080fd5b503561033f565b005b6100d6600480360360a08110156100ee57600080fd5b6001600160a01b03823581169260208101359091169160408201359160608101359181019060a08101608082013564010000000081111561012e57600080fd5b82018360208201111561014057600080fd5b8035906020019184600183028401116401000000008311171561016257600080fd5b91908080601f0160208091040260200160405190810160405280939291908181526020018383808284376000920191909152509295506103af945050505050565b6101ab6104d6565b604080516001600160a01b039092168252519081900360200190f35b6101ab6104ee565b6100d6600480360360208110156101e557600080fd5b5035610512565b6101f4610616565b60408051918252519081900360200190f35b6102236004803603602081101561021c57600080fd5b503561061c565b604080516001600160a01b03909416845267ffffffffffffffff909216602084015282820152519081900360600190f35b6101ab610652565b6101ab61066a565b6101ab610682565b6101ab61069a565b6100d6600480360360a081101561028a57600080fd5b6001600160a01b03823581169260208101359091169160408201359160608101359181019060a0810160808201356401000000008111156102ca57600080fd5b8201836020820111156102dc57600080fd5b803590602001918460018302840111640100000000831117156102fe57600080fd5b91908080601f0160208091040260200160405190810160405280939291908181526020018383808284376000920191909152509295506106be945050505050565b336001600160a01b037f000000000000000000000000000000000000000000000000000000000000000016146103aa576040805162461bcd60e51b815260206004820152600b60248201526a21676f7665726e616e636560a81b604482015290519081900360640190fd5b600155565b6001600160a01b03841673eb4c2781e4eba804ce9a9803c67d0893436bb27d1461040a576040805162461bcd60e51b81526020600482015260076024820152662172656e62746360c81b604482015290519081900360640190fd5b600061043f73eb4c2781e4eba804ce9a9803c67d0893436bb27d73a0b86991c6218b36c1d19d4a2e9eb0ce3606eb488661088e565b6040805160608101825273eb4c2781e4eba804ce9a9803c67d0893436bb27d815267ffffffffffffffff4281166020808401918252838501958652600098895288905292909620905181549251909616600160a01b0267ffffffffffffffff60a01b196001600160a01b03979097166001600160a01b03199093169290921795909516178455516001909301929092555050505050565b737a250d5630b4cf539739df2c5dacb4c659f2488d81565b7f000000000000000000000000000000000000000000000000000000000000000081565b806001541015610559576040805162461bcd60e51b815260206004820152600d60248201526c08589b1bd8dad51a5b595bdd5d609a1b604482015290519081900360640190fd5b6000818152602081905260409020600101546105ab576040805162461bcd60e51b815260206004820152600c60248201526b216f75747374616e64696e6760a01b604482015290519081900360640190fd5b6000818152602081905260408120600101546105f29073a0b86991c6218b36c1d19d4a2e9eb0ce3606eb489073eb4c2781e4eba804ce9a9803c67d0893436bb27d9061088e565b5050600090815260208190526040812080546001600160e01b031916815560010155565b60015481565b600060208190529081526040902080546001909101546001600160a01b03821691600160a01b900467ffffffffffffffff169083565b73a0b86991c6218b36c1d19d4a2e9eb0ce3606eb4881565b73c02aaa39b223fe8d0a0e5c4f27ead9083c756cc281565b73eb4c2781e4eba804ce9a9803c67d0893436bb27d81565b7f000000000000000000000000000000000000000000000000000000000000000081565b600082815260208190526040902060010154610710576040805162461bcd60e51b815260206004820152600c60248201526b216f75747374616e64696e6760a01b604482015290519081900360640190fd5b6000828152602081905260409020600101546107366001600160a01b0386168783610afe565b5050600090815260208190526040812080546001600160e01b031916815560010155505050565b8015806107e3575060408051636eb1769f60e11b81523060048201526001600160a01b03848116602483015291519185169163dd62ed3e91604480820192602092909190829003018186803b1580156107b557600080fd5b505afa1580156107c9573d6000803e3d6000fd5b505050506040513d60208110156107df57600080fd5b5051155b61081e5760405162461bcd60e51b8152600401808060200182810382526036815260200180610e536036913960400191505060405180910390fd5b604080516001600160a01b038416602482015260448082018490528251808303909101815260649091019091526020810180516001600160e01b031663095ea7b360e01b179052610870908490610b4c565b505050565b60606108848484600085610bfd565b90505b9392505050565b604080516003808252608082019092526000918291906020820160608036833701905050905084816000815181106108c257fe5b60200260200101906001600160a01b031690816001600160a01b03168152505073c02aaa39b223fe8d0a0e5c4f27ead9083c756cc28160018151811061090457fe5b60200260200101906001600160a01b031690816001600160a01b031681525050838160028151811061093257fe5b60200260200101906001600160a01b031690816001600160a01b031681525050737a250d5630b4cf539739df2c5dacb4c659f2488d6001600160a01b03166338ed17398460018430426040518663ffffffff1660e01b81526004018086815260200185815260200180602001846001600160a01b03168152602001838152602001828103825285818151815260200191508051906020019060200280838360005b838110156109eb5781810151838201526020016109d3565b505050509050019650505050505050600060405180830381600087803b158015610a1457600080fd5b505af1158015610a28573d6000803e3d6000fd5b505050506040513d6000823e601f3d908101601f191682016040526020811015610a5157600080fd5b8101908080516040519392919084640100000000821115610a7157600080fd5b908301906020820185811115610a8657600080fd5b8251866020820283011164010000000082111715610aa357600080fd5b82525081516020918201928201910280838360005b83811015610ad0578181015183820152602001610ab8565b50505050905001604052505050600182510381518110610aec57fe5b60200260200101519150509392505050565b604080516001600160a01b038416602482015260448082018490528251808303909101815260649091019091526020810180516001600160e01b031663a9059cbb60e01b1790526108709084905b6000610ba1826040518060400160405280602081526020017f5361666545524332303a206c6f772d6c6576656c2063616c6c206661696c6564815250856001600160a01b03166108759092919063ffffffff16565b80519091501561087057808060200190516020811015610bc057600080fd5b50516108705760405162461bcd60e51b815260040180806020018281038252602a815260200180610e29602a913960400191505060405180910390fd5b606082471015610c3e5760405162461bcd60e51b8152600401808060200182810382526026815260200180610e036026913960400191505060405180910390fd5b610c4785610d58565b610c98576040805162461bcd60e51b815260206004820152601d60248201527f416464726573733a2063616c6c20746f206e6f6e2d636f6e7472616374000000604482015290519081900360640190fd5b600080866001600160a01b031685876040518082805190602001908083835b60208310610cd65780518252601f199092019160209182019101610cb7565b6001836020036101000a03801982511681845116808217855250505050505090500191505060006040518083038185875af1925050503d8060008114610d38576040519150601f19603f3d011682016040523d82523d6000602084013e610d3d565b606091505b5091509150610d4d828286610d5e565b979650505050505050565b3b151590565b60608315610d6d575081610887565b825115610d7d5782518084602001fd5b8160405162461bcd60e51b81526004018080602001828103825283818151815260200191508051906020019080838360005b83811015610dc7578181015183820152602001610daf565b50505050905090810190601f168015610df45780820380516001836020036101000a031916815260200191505b509250505060405180910390fdfe416464726573733a20696e73756666696369656e742062616c616e636520666f722063616c6c5361666545524332303a204552433230206f7065726174696f6e20646964206e6f7420737563636565645361666545524332303a20617070726f76652066726f6d206e6f6e2d7a65726f20746f206e6f6e2d7a65726f20616c6c6f77616e6365a26469706673582212201951cd6349dfccc700ca195f1884e504b6c96bc0279345d76eb01f366334773264736f6c63430007060033416464726573733a20696e73756666696369656e742062616c616e636520666f722063616c6c5361666545524332303a204552433230206f7065726174696f6e20646964206e6f7420737563636565645361666545524332303a20617070726f76652066726f6d206e6f6e2d7a65726f20746f206e6f6e2d7a65726f20616c6c6f77616e6365",
  "devdoc": {
    "kind": "dev",
    "methods": {},
    "version": 1
  },
  "userdoc": {
    "kind": "user",
    "methods": {},
    "version": 1
  },
  "storageLayout": {
    "storage": [
      {
        "astId": 5546,
        "contract": "contracts/modules/Swap.sol:Swap",
        "label": "outstanding",
        "offset": 0,
        "slot": "0",
        "type": "t_mapping(t_uint256,t_struct(SwapRecord)5823_storage)"
      },
      {
        "astId": 5552,
        "contract": "contracts/modules/Swap.sol:Swap",
        "label": "blockTimeout",
        "offset": 0,
        "slot": "1",
        "type": "t_uint256"
      }
    ],
    "types": {
      "t_address": {
        "encoding": "inplace",
        "label": "address",
        "numberOfBytes": "20"
      },
      "t_mapping(t_uint256,t_struct(SwapRecord)5823_storage)": {
        "encoding": "mapping",
        "key": "t_uint256",
        "label": "mapping(uint256 => struct SwapLib.SwapRecord)",
        "numberOfBytes": "32",
        "value": "t_struct(SwapRecord)5823_storage"
      },
      "t_struct(SwapRecord)5823_storage": {
        "encoding": "inplace",
        "label": "struct SwapLib.SwapRecord",
        "members": [
          {
            "astId": 5818,
            "contract": "contracts/modules/Swap.sol:Swap",
            "label": "token",
            "offset": 0,
            "slot": "0",
            "type": "t_address"
          },
          {
            "astId": 5820,
            "contract": "contracts/modules/Swap.sol:Swap",
            "label": "when",
            "offset": 20,
            "slot": "0",
            "type": "t_uint64"
          },
          {
            "astId": 5822,
            "contract": "contracts/modules/Swap.sol:Swap",
            "label": "qty",
            "offset": 0,
            "slot": "1",
            "type": "t_uint256"
          }
        ],
        "numberOfBytes": "64"
      },
      "t_uint256": {
        "encoding": "inplace",
        "label": "uint256",
        "numberOfBytes": "32"
      },
      "t_uint64": {
        "encoding": "inplace",
        "label": "uint64",
        "numberOfBytes": "8"
      }
    }
  }
}