{
  "address": "0xDC0a0B1Cd093d321bD1044B5e0Acb71b525ABb6b",
  "abi": [
    {
      "inputs": [
        {
          "internalType": "address payable",
          "name": "_controller",
          "type": "address"
        }
      ],
      "stateMutability": "nonpayable",
      "type": "constructor"
    },
    {
      "anonymous": false,
      "inputs": [
        {
          "indexed": true,
          "internalType": "address",
          "name": "previousOwner",
          "type": "address"
        },
        {
          "indexed": true,
          "internalType": "address",
          "name": "newOwner",
          "type": "address"
        }
      ],
      "name": "OwnershipTransferred",
      "type": "event"
    },
    {
      "stateMutability": "payable",
      "type": "fallback"
    },
    {
      "inputs": [],
      "name": "controller",
      "outputs": [
        {
          "internalType": "address payable",
          "name": "",
          "type": "address"
        }
      ],
      "stateMutability": "view",
      "type": "function"
    },
    {
      "inputs": [],
      "name": "owner",
      "outputs": [
        {
          "internalType": "address",
          "name": "",
          "type": "address"
        }
      ],
      "stateMutability": "view",
      "type": "function"
    },
    {
      "inputs": [
        {
          "internalType": "address payable",
          "name": "target",
          "type": "address"
        },
        {
          "internalType": "bytes",
          "name": "data",
          "type": "bytes"
        }
      ],
      "name": "proxy",
      "outputs": [],
      "stateMutability": "payable",
      "type": "function"
    },
    {
      "inputs": [],
      "name": "renounceOwnership",
      "outputs": [],
      "stateMutability": "nonpayable",
      "type": "function"
    },
    {
      "inputs": [
        {
          "internalType": "address",
          "name": "newOwner",
          "type": "address"
        }
      ],
      "name": "transferOwnership",
      "outputs": [],
      "stateMutability": "nonpayable",
      "type": "function"
    }
  ],
  "transactionHash": "0x522f6b6a22d67c1696a43685f88780a4fa951e99c9032de2c97b0b55d24efd63",
  "args": [
    "0xf0F5e9b00b92f3999021fD8B88aC75c351D93fc7"
  ],
  "solcInputHash": "e22901f5605e649147f74d09fe55b21e",
  "bytecode": "0x60a060405234801561001057600080fd5b506040516107023803806107028339818101604052602081101561003357600080fd5b5051600061003f61009e565b600080546001600160a01b0319166001600160a01b0383169081178255604051929350917f8be0079c531659141344cd1fd0a4f28419497f9722a3daafe3b4186f6b6457e0908290a35060601b6001600160601b0319166080526100a2565b3390565b60805160601c61063f6100c36000398060bc52806105bd525061063f6000f3fe60806040526004361061004a5760003560e01c8063715018a6146101515780638da5cb5b14610168578063be6d055a14610199578063f2fde38b1461024f578063f77c479114610282575b610052610297565b6001600160a01b0316336001600160a01b0316146100b7576040805162461bcd60e51b815260206004820152601760248201527f6d7573742062652063616c6c6564206279206f776e6572000000000000000000604482015290519081900360640190fd5b6000807f00000000000000000000000000000000000000000000000000000000000000006001600160a01b031634600036604051808383808284376040519201945060009350909150508083038185875af1925050503d8060008114610139576040519150601f19603f3d011682016040523d82523d6000602084013e61013e565b606091505b509150915061014d82826102a6565b5050005b34801561015d57600080fd5b506101666102bb565b005b34801561017457600080fd5b5061017d610297565b604080516001600160a01b039092168252519081900360200190f35b610166600480360360408110156101af57600080fd5b6001600160a01b0382351691908101906040810160208201356401000000008111156101da57600080fd5b8201836020820111156101ec57600080fd5b8035906020019184600183028401116401000000008311171561020e57600080fd5b91908080601f016020809104026020016040519081016040528093929190818152602001838380828437600092019190915250929550610379945050505050565b34801561025b57600080fd5b506101666004803603602081101561027257600080fd5b50356001600160a01b03166104a7565b34801561028e57600080fd5b5061017d6105bb565b6000546001600160a01b031690565b816102b357805181602001fd5b805181602001f35b6102c36105df565b6001600160a01b03166102d4610297565b6001600160a01b03161461032f576040805162461bcd60e51b815260206004820181905260248201527f4f776e61626c653a2063616c6c6572206973206e6f7420746865206f776e6572604482015290519081900360640190fd5b600080546040516001600160a01b03909116907f8be0079c531659141344cd1fd0a4f28419497f9722a3daafe3b4186f6b6457e0908390a3600080546001600160a01b0319169055565b6103816105df565b6001600160a01b0316610392610297565b6001600160a01b0316146103ed576040805162461bcd60e51b815260206004820181905260248201527f4f776e61626c653a2063616c6c6572206973206e6f7420746865206f776e6572604482015290519081900360640190fd5b600080836001600160a01b031634846040518082805190602001908083835b6020831061042b5780518252601f19909201916020918201910161040c565b6001836020036101000a03801982511681845116808217855250505050505090500191505060006040518083038185875af1925050503d806000811461048d576040519150601f19603f3d011682016040523d82523d6000602084013e610492565b606091505b50915091506104a182826102a6565b50505050565b6104af6105df565b6001600160a01b03166104c0610297565b6001600160a01b03161461051b576040805162461bcd60e51b815260206004820181905260248201527f4f776e61626c653a2063616c6c6572206973206e6f7420746865206f776e6572604482015290519081900360640190fd5b6001600160a01b0381166105605760405162461bcd60e51b81526004018080602001828103825260268152602001806105e46026913960400191505060405180910390fd5b600080546040516001600160a01b03808516939216917f8be0079c531659141344cd1fd0a4f28419497f9722a3daafe3b4186f6b6457e091a3600080546001600160a01b0319166001600160a01b0392909216919091179055565b7f000000000000000000000000000000000000000000000000000000000000000081565b339056fe4f776e61626c653a206e6577206f776e657220697320746865207a65726f2061646472657373a2646970667358221220f88ccf91cbe03a350c7ad8645d0e7c68dd81b008d37cc86ceb795606eefe9b7a64736f6c63430007060033",
  "devdoc": {
    "author": "raymondpulver",
    "kind": "dev",
    "methods": {
      "owner()": {
        "details": "Returns the address of the current owner."
      },
      "proxy(address,bytes)": {
        "params": {
          "data": "the calldata for the transaction",
          "target": "the to address of the transaction"
        }
      },
      "renounceOwnership()": {
        "details": "Leaves the contract without owner. It will not be possible to call `onlyOwner` functions anymore. Can only be called by the current owner. NOTE: Renouncing ownership will leave the contract without an owner, thereby removing any functionality that is only available to the owner."
      },
      "transferOwnership(address)": {
        "details": "Transfers ownership of the contract to a new account (`newOwner`). Can only be called by the current owner."
      }
    },
    "title": "contract that is the simplest underwriter, just a proxy with an owner tag",
    "version": 1
  },
  "userdoc": {
    "kind": "user",
    "methods": {
      "proxy(address,bytes)": {
        "notice": "proxy a regular call to an arbitrary contract"
      }
    },
    "version": 1
  },
  "storageLayout": {
    "storage": [
      {
        "astId": 19448,
        "contract": "contracts/underwriter/TrivialUnderwriter.sol:TrivialUnderwriter",
        "label": "_owner",
        "offset": 0,
        "slot": "0",
        "type": "t_address"
      }
    ],
    "types": {
      "t_address": {
        "encoding": "inplace",
        "label": "address",
        "numberOfBytes": "20"
      }
    }
  }
}