{
  "address": "0xD185B4846E5fd5419fD4D077dc636084BEfC51C0",
  "abi": [
    {
      "inputs": [
        {
          "internalType": "address",
          "name": "_wrapper",
          "type": "address"
        }
      ],
      "stateMutability": "nonpayable",
      "type": "constructor"
    },
    {
      "inputs": [
        {
          "internalType": "address",
          "name": "_module",
          "type": "address"
        }
      ],
      "name": "convert",
      "outputs": [
        {
          "internalType": "uint256",
          "name": "",
          "type": "uint256"
        }
      ],
      "stateMutability": "payable",
      "type": "function"
    },
    {
      "inputs": [
        {
          "internalType": "uint256",
          "name": "_amount",
          "type": "uint256"
        }
      ],
      "name": "estimate",
      "outputs": [
        {
          "internalType": "uint256",
          "name": "",
          "type": "uint256"
        }
      ],
      "stateMutability": "view",
      "type": "function"
    },
    {
      "inputs": [],
      "name": "wrapper",
      "outputs": [
        {
          "internalType": "address",
          "name": "",
          "type": "address"
        }
      ],
      "stateMutability": "view",
      "type": "function"
    },
    {
      "stateMutability": "payable",
      "type": "receive"
    }
  ],
  "transactionHash": "0x6aa475c90db1348571174b4b9db6bc0fdaed16ac684279c3fa4994b0dafbb6dd",
  "args": [
    "0x0d500B1d8E8eF31E21C99d1Db9A6444d3ADf1270"
  ],
  "solcInputHash": "e22901f5605e649147f74d09fe55b21e",
  "bytecode": "0x60a060405234801561001057600080fd5b506040516103693803806103698339818101604052602081101561003357600080fd5b5051606081901b6001600160601b0319166080526001600160a01b03166102f46100756000398060dc5280610102528061017652806101a652506102f46000f3fe6080604052600436106100385760003560e01c80639c79293814610044578063ac210cc714610080578063def2489b146100b15761003f565b3661003f57005b600080fd5b34801561005057600080fd5b5061006e6004803603602081101561006757600080fd5b50356100d7565b60408051918252519081900360200190f35b34801561008c57600080fd5b506100956100da565b604080516001600160a01b039092168252519081900360200190f35b61006e600480360360208110156100c757600080fd5b50356001600160a01b03166100fe565b90565b7f000000000000000000000000000000000000000000000000000000000000000081565b60007f00000000000000000000000000000000000000000000000000000000000000006001600160a01b031663d0e30db0476040518263ffffffff1660e01b81526004016000604051808303818588803b15801561015b57600080fd5b505af115801561016f573d6000803e3d6000fd5b50505050507f00000000000000000000000000000000000000000000000000000000000000006001600160a01b031663a9059cbb337f00000000000000000000000000000000000000000000000000000000000000006001600160a01b03166370a08231306040518263ffffffff1660e01b815260040180826001600160a01b0316815260200191505060206040518083038186803b15801561021157600080fd5b505afa158015610225573d6000803e3d6000fd5b505050506040513d602081101561023b57600080fd5b5051604080516001600160e01b031960e086901b1681526001600160a01b03909316600484015260248301919091525160448083019260209291908290030181600087803b15801561028c57600080fd5b505af11580156102a0573d6000803e3d6000fd5b505050506040513d60208110156102b657600080fd5b50909291505056fea264697066735822122060c427798dc3e0c2cb1fa0f7ba0b0aa16226e3b2d469c55e5713b8e92190443864736f6c63430007060033",
  "devdoc": {
    "kind": "dev",
    "methods": {},
    "version": 1
  },
  "userdoc": {
    "kind": "user",
    "methods": {},
    "version": 1
  },
  "storageLayout": {
    "storage": [],
    "types": null
  }
}