{
  "address": "0xFD6F7A6a5c21A3f503EBaE7a473639974379c351",
  "abi": [
    {
      "inputs": [
        {
          "internalType": "address",
          "name": "token_",
          "type": "address"
        },
        {
          "internalType": "address",
          "name": "treasury_",
          "type": "address"
        },
        {
          "internalType": "bytes32",
          "name": "merkleRoot_",
          "type": "bytes32"
        }
      ],
      "stateMutability": "nonpayable",
      "type": "constructor"
    },
    {
      "anonymous": false,
      "inputs": [
        {
          "indexed": false,
          "internalType": "uint256",
          "name": "index",
          "type": "uint256"
        },
        {
          "indexed": false,
          "internalType": "address",
          "name": "account",
          "type": "address"
        },
        {
          "indexed": false,
          "internalType": "uint256",
          "name": "amount",
          "type": "uint256"
        }
      ],
      "name": "Claimed",
      "type": "event"
    },
    {
      "inputs": [
        {
          "internalType": "uint256",
          "name": "index",
          "type": "uint256"
        },
        {
          "internalType": "address",
          "name": "account",
          "type": "address"
        },
        {
          "internalType": "uint256",
          "name": "amount",
          "type": "uint256"
        },
        {
          "internalType": "bytes32[]",
          "name": "merkleProof",
          "type": "bytes32[]"
        }
      ],
      "name": "claim",
      "outputs": [],
      "stateMutability": "nonpayable",
      "type": "function"
    },
    {
      "inputs": [
        {
          "internalType": "uint256",
          "name": "index",
          "type": "uint256"
        }
      ],
      "name": "isClaimed",
      "outputs": [
        {
          "internalType": "bool",
          "name": "",
          "type": "bool"
        }
      ],
      "stateMutability": "view",
      "type": "function"
    },
    {
      "inputs": [],
      "name": "merkleRoot",
      "outputs": [
        {
          "internalType": "bytes32",
          "name": "",
          "type": "bytes32"
        }
      ],
      "stateMutability": "view",
      "type": "function"
    },
    {
      "inputs": [],
      "name": "token",
      "outputs": [
        {
          "internalType": "address",
          "name": "",
          "type": "address"
        }
      ],
      "stateMutability": "view",
      "type": "function"
    },
    {
      "inputs": [],
      "name": "treasury",
      "outputs": [
        {
          "internalType": "address",
          "name": "",
          "type": "address"
        }
      ],
      "stateMutability": "view",
      "type": "function"
    }
  ],
  "transactionHash": "0x9ae81b278d37095527814f23b2c24fe0c3a0204c5a9af8a2c1458856d366dbde",
  "args": [
    "0xf39Fd6e51aad88F6F4ce6aB8827279cffFb92266",
    "0x6C2d83262fF84cBaDb3e416D527403135D757892",
    "0xe52564f93ddc09e2d60c8150e4a11c5be656f147bf1f8c64a492b6a34c11dc6a"
  ],
  "numDeployments": 1,
  "solcInputHash": "d074e47058e75658c3a7a7998b70bddc",
  "bytecode": "0x60e060405234801561001057600080fd5b506040516106963803806106968339818101604052606081101561003357600080fd5b50805160208201516040909201516001600160601b0319606092831b811660a05260c09190915291901b1660805260805160601c60a05160601c60c0516105f46100a26000398061022252806103f252508061029352806104605250806102c2528061041652506105f46000f3fe608060405234801561001057600080fd5b50600436106100575760003560e01c80632e7ba6ef1461005c5780632eb4a7ab146100ea57806361d027b3146101045780639e34070f14610128578063fc0c546a14610159575b600080fd5b6100e86004803603608081101561007257600080fd5b8135916001600160a01b0360208201351691604082013591908101906080810160608201356401000000008111156100a957600080fd5b8201836020820111156100bb57600080fd5b803590602001918460208302840111640100000000831117156100dd57600080fd5b509092509050610161565b005b6100f26103f0565b60408051918252519081900360200190f35b61010c610414565b604080516001600160a01b039092168252519081900360200190f35b6101456004803603602081101561013e57600080fd5b5035610438565b604080519115158252519081900360200190f35b61010c61045e565b61016a85610438565b156101a65760405162461bcd60e51b81526004018080602001828103825260288152602001806105536028913960400191505060405180910390fd5b600085858560405160200180848152602001836001600160a01b031660601b8152601401828152602001935050505060405160208183030381529060405280519060200120905061024d8383808060200260200160405190810160405280939291908181526020018383602002808284376000920191909152507f000000000000000000000000000000000000000000000000000000000000000092508591506104829050565b6102885760405162461bcd60e51b815260040180806020018281038252602181526020018061057b6021913960400191505060405180910390fd5b6102918661052b565b7f00000000000000000000000000000000000000000000000000000000000000006001600160a01b03166323b872dd7f000000000000000000000000000000000000000000000000000000000000000087876040518463ffffffff1660e01b815260040180846001600160a01b03168152602001836001600160a01b031681526020018281526020019350505050602060405180830381600087803b15801561033957600080fd5b505af115801561034d573d6000803e3d6000fd5b505050506040513d602081101561036357600080fd5b50516103a05760405162461bcd60e51b815260040180806020018281038252602381526020018061059c6023913960400191505060405180910390fd5b604080518781526001600160a01b038716602082015280820186905290517f4ec90e965519d92681267467f775ada5bd214aa92c0dc93d90a5e880ce9ed0269181900360600190a1505050505050565b7f000000000000000000000000000000000000000000000000000000000000000081565b7f000000000000000000000000000000000000000000000000000000000000000081565b6101008104600090815260208190526040902054600160ff9092169190911b9081161490565b7f000000000000000000000000000000000000000000000000000000000000000081565b600081815b855181101561052057600086828151811061049e57fe5b602002602001015190508083116104e55782816040516020018083815260200182815260200192505050604051602081830303815290604052805190602001209250610517565b808360405160200180838152602001828152602001925050506040516020818303038152906040528051906020012092505b50600101610487565b509092149392505050565b610100810460009081526020819052604090208054600160ff9093169290921b909117905556fe4d65726b6c654469737472696275746f723a2044726f7020616c726561647920636c61696d65642e4d65726b6c654469737472696275746f723a20496e76616c69642070726f6f662e4d65726b6c654469737472696275746f723a205472616e73666572206661696c65642ea26469706673582212208bc27d0b15c7aa3a57f255bd4e42e45c90a4aa49076f193a869a3f69a27d48ae64736f6c63430007060033",
  "devdoc": {
    "kind": "dev",
    "methods": {},
    "version": 1
  },
  "userdoc": {
    "kind": "user",
    "methods": {},
    "version": 1
  },
  "storageLayout": {
    "storage": [
      {
        "astId": 12635,
        "contract": "contracts/token/ZeroDistributor.sol:ZeroDistributor",
        "label": "claimedBitMap",
        "offset": 0,
        "slot": "0",
        "type": "t_mapping(t_uint256,t_uint256)"
      }
    ],
    "types": {
      "t_mapping(t_uint256,t_uint256)": {
        "encoding": "mapping",
        "key": "t_uint256",
        "label": "mapping(uint256 => uint256)",
        "numberOfBytes": "32",
        "value": "t_uint256"
      },
      "t_uint256": {
        "encoding": "inplace",
        "label": "uint256",
        "numberOfBytes": "32"
      }
    }
  }
}