{
  "address": "0x162A433068F51e18b7d13932F27e66a3f99E6890",
  "abi": [
    {
      "anonymous": false,
      "inputs": [
        {
          "indexed": false,
          "internalType": "address",
          "name": "_wrapper",
          "type": "address"
        }
      ],
      "name": "CreateWrapper",
      "type": "event"
    },
    {
      "inputs": [
        {
          "internalType": "int128",
          "name": "_tokenInIndex",
          "type": "int128"
        },
        {
          "internalType": "int128",
          "name": "_tokenOutIndex",
          "type": "int128"
        },
        {
          "internalType": "address",
          "name": "_pool",
          "type": "address"
        }
      ],
      "name": "createWrapper",
      "outputs": [
        {
          "internalType": "address",
          "name": "",
          "type": "address"
        }
      ],
      "stateMutability": "nonpayable",
      "type": "function"
    }
  ],
  "transactionHash": "0x18025d45db858f4719f578af2cdebfaafb12a0e80c109fd23088990905b8d32f",
  "args": [],
  "solcInputHash": "b5ce4dc0409a98ab611efd37dcb0909f",
  "bytecode": "0x608060405234801561001057600080fd5b506124cf806100206000396000f3fe608060405234801561001057600080fd5b506004361061002b5760003560e01c8063838661b314610030575b600080fd5b61006a6004803603606081101561004657600080fd5b508035600f90810b91602081013590910b90604001356001600160a01b0316610086565b604080516001600160a01b039092168252519081900360200190f35b6000838383604051610097906101b5565b8084600f0b815260200183600f0b8152602001826001600160a01b031681526020019350505050604051809103906000f080156100d15760015b61016f57600084600f0b84600f0b846040516100ec906101c2565b92835260208301919091526001600160a01b03166040808301919091525190819003606001906000f080158015610127573d6000803e3d6000fd5b50604080516001600160a01b038316815290519192507f729bbe2c9703a1bd3cf2ce66444473a305404e4080924c1e3068becdc1a3e0b1919081900360200190a190506101ae565b604080516001600160a01b038316815290517f729bbe2c9703a1bd3cf2ce66444473a305404e4080924c1e3068becdc1a3e0b19181900360200190a190505b9392505050565b611183806101d083390190565b611147806113538339019056fe6101206040523480156200001257600080fd5b506040516200118338038062001183833981810160405260608110156200003857600080fd5b508051602080830151604093840151600f84810b80820b608090811b815284830b90920b90911b60a052855163046e8dd760e31b8152600481019190915294519394919390926000926001600160a01b038516926323746eb892602480840193919291829003018186803b158015620000b057600080fd5b505afa158015620000c5573d6000803e3d6000fd5b505050506040513d6020811015620000dc57600080fd5b50516001600160601b0319606082901b1660c0526040805163046e8dd760e31b8152600f86900b600482015290519192506001600160a01b038416916323746eb891602480820192602092909190829003018186803b1580156200013f57600080fd5b505afa15801562000154573d6000803e3d6000fd5b505050506040513d60208110156200016b57600080fd5b5051606090811b6001600160601b031990811660e0529083901b1661010052620001ae6001600160a01b03821683600019620001b8602090811b620005c117901c565b50505050620005ca565b80158062000242575060408051636eb1769f60e11b81523060048201526001600160a01b03848116602483015291519185169163dd62ed3e91604480820192602092909190829003018186803b1580156200021257600080fd5b505afa15801562000227573d6000803e3d6000fd5b505050506040513d60208110156200023e57600080fd5b5051155b6200027f5760405162461bcd60e51b81526004018080602001828103825260368152602001806200114d6036913960400191505060405180910390fd5b604080516001600160a01b038416602482015260448082018490528251808303909101815260649091019091526020810180516001600160e01b0390811663095ea7b360e01b17909152620002d7918591620002dc16565b505050565b600062000338826040518060400160405280602081526020017f5361666545524332303a206c6f772d6c6576656c2063616c6c206661696c6564815250856001600160a01b03166200039860201b620006d9179092919060201c565b805190915015620002d7578080602001905160208110156200035957600080fd5b5051620002d75760405162461bcd60e51b815260040180806020018281038252602a81526020018062001123602a913960400191505060405180910390fd5b6060620003a98484600085620003b3565b90505b9392505050565b606082471015620003f65760405162461bcd60e51b8152600401808060200182810382526026815260200180620010fd6026913960400191505060405180910390fd5b62000401856200051a565b62000453576040805162461bcd60e51b815260206004820152601d60248201527f416464726573733a2063616c6c20746f206e6f6e2d636f6e7472616374000000604482015290519081900360640190fd5b600080866001600160a01b031685876040518082805190602001908083835b60208310620004935780518252601f19909201916020918201910162000472565b6001836020036101000a03801982511681845116808217855250505050505090500191505060006040518083038185875af1925050503d8060008114620004f7576040519150601f19603f3d011682016040523d82523d6000602084013e620004fc565b606091505b5090925090506200050f82828662000520565b979650505050505050565b3b151590565b6060831562000531575081620003ac565b825115620005425782518084602001fd5b8160405162461bcd60e51b81526004018080602001828103825283818151815260200191508051906020019080838360005b838110156200058e57818101518382015260200162000574565b50505050905090810190601f168015620005bc5780820380516001836020036101000a031916815260200191505b509250505060405180910390fd5b60805160801c60a05160801c60c05160601c60e05160601c6101005160601c610ab26200064b6000398061017c52806101a25280610462525080610134528061037252806104c7528061056e52508061015852806102b55250806101f2528061028e528061041f5250806101d152806103f4528061059f5250610ab26000f3fe608060405234801561001057600080fd5b506004361061007d5760003560e01c80639c7929381161005b5780639c792938146100b6578063be8a97b7146100e5578063def2489b14610104578063f11cba461461012a5761007d565b8063083ab1b8146100825780630bc66fdf146100a657806316f0115b146100ae575b600080fd5b61008a610132565b604080516001600160a01b039092168252519081900360200190f35b61008a610156565b61008a61017a565b6100d3600480360360208110156100cc57600080fd5b503561019e565b60408051918252519081900360200190f35b6100ed61028c565b60408051600f9290920b8252519081900360200190f35b6100d36004803603602081101561011a57600080fd5b50356001600160a01b03166102b0565b6100ed61059d565b7f000000000000000000000000000000000000000000000000000000000000000081565b7f000000000000000000000000000000000000000000000000000000000000000081565b7f000000000000000000000000000000000000000000000000000000000000000081565b60007f00000000000000000000000000000000000000000000000000000000000000006001600160a01b0316635e0d443f7f00000000000000000000000000000000000000000000000000000000000000007f0000000000000000000000000000000000000000000000000000000000000000856040518463ffffffff1660e01b81526004018084600f0b815260200183600f0b8152602001828152602001935050505060206040518083038186803b15801561025a57600080fd5b505afa15801561026e573d6000803e3d6000fd5b505050506040513d602081101561028457600080fd5b505192915050565b7f000000000000000000000000000000000000000000000000000000000000000081565b6000807f00000000000000000000000000000000000000000000000000000000000000006001600160a01b03166370a08231306040518263ffffffff1660e01b815260040180826001600160a01b0316815260200191505060206040518083038186803b15801561032057600080fd5b505afa158015610334573d6000803e3d6000fd5b505050506040513d602081101561034a57600080fd5b5051604080516370a0823160e01b815230600482015290519192506000916001600160a01b037f000000000000000000000000000000000000000000000000000000000000000016916370a08231916024808301926020929190829003018186803b1580156103b857600080fd5b505afa1580156103cc573d6000803e3d6000fd5b505050506040513d60208110156103e257600080fd5b505160408051630f7c084960e21b81527f0000000000000000000000000000000000000000000000000000000000000000600f90810b60048301527f0000000000000000000000000000000000000000000000000000000000000000900b6024820152604481018590526001606482015290519192506001600160a01b037f00000000000000000000000000000000000000000000000000000000000000001691633df021249160848082019260009290919082900301818387803b1580156104aa57600080fd5b505af11580156104be573d6000803e3d6000fd5b505050506000817f00000000000000000000000000000000000000000000000000000000000000006001600160a01b03166370a08231306040518263ffffffff1660e01b815260040180826001600160a01b0316815260200191505060206040518083038186803b15801561053257600080fd5b505afa158015610546573d6000803e3d6000fd5b505050506040513d602081101561055c57600080fd5b50510390506105956001600160a01b037f00000000000000000000000000000000000000000000000000000000000000001633836106f2565b949350505050565b7f000000000000000000000000000000000000000000000000000000000000000081565b801580610647575060408051636eb1769f60e11b81523060048201526001600160a01b03848116602483015291519185169163dd62ed3e91604480820192602092909190829003018186803b15801561061957600080fd5b505afa15801561062d573d6000803e3d6000fd5b505050506040513d602081101561064357600080fd5b5051155b6106825760405162461bcd60e51b8152600401808060200182810382526036815260200180610a476036913960400191505060405180910390fd5b604080516001600160a01b038416602482015260448082018490528251808303909101815260649091019091526020810180516001600160e01b031663095ea7b360e01b1790526106d4908490610740565b505050565b60606106e884846000856107f1565b90505b9392505050565b604080516001600160a01b038416602482015260448082018490528251808303909101815260649091019091526020810180516001600160e01b031663a9059cbb60e01b1790526106d49084905b6000610795826040518060400160405280602081526020017f5361666545524332303a206c6f772d6c6576656c2063616c6c206661696c6564815250856001600160a01b03166106d99092919063ffffffff16565b8051909150156106d4578080602001905160208110156107b457600080fd5b50516106d45760405162461bcd60e51b815260040180806020018281038252602a815260200180610a1d602a913960400191505060405180910390fd5b6060824710156108325760405162461bcd60e51b81526004018080602001828103825260268152602001806109f76026913960400191505060405180910390fd5b61083b8561094c565b61088c576040805162461bcd60e51b815260206004820152601d60248201527f416464726573733a2063616c6c20746f206e6f6e2d636f6e7472616374000000604482015290519081900360640190fd5b600080866001600160a01b031685876040518082805190602001908083835b602083106108ca5780518252601f1990920191602091820191016108ab565b6001836020036101000a03801982511681845116808217855250505050505090500191505060006040518083038185875af1925050503d806000811461092c576040519150601f19603f3d011682016040523d82523d6000602084013e610931565b606091505b5091509150610941828286610952565b979650505050505050565b3b151590565b606083156109615750816106eb565b8251156109715782518084602001fd5b8160405162461bcd60e51b81526004018080602001828103825283818151815260200191508051906020019080838360005b838110156109bb5781810151838201526020016109a3565b50505050905090810190601f1680156109e85780820380516001836020036101000a031916815260200191505b509250505060405180910390fdfe416464726573733a20696e73756666696369656e742062616c616e636520666f722063616c6c5361666545524332303a204552433230206f7065726174696f6e20646964206e6f7420737563636565645361666545524332303a20617070726f76652066726f6d206e6f6e2d7a65726f20746f206e6f6e2d7a65726f20616c6c6f77616e6365a264697066735822122097b953a89e081692e19b2af0d9b17ad1fef2af3dc98b9835a4fac9478dba391164736f6c63430007060033416464726573733a20696e73756666696369656e742062616c616e636520666f722063616c6c5361666545524332303a204552433230206f7065726174696f6e20646964206e6f7420737563636565645361666545524332303a20617070726f76652066726f6d206e6f6e2d7a65726f20746f206e6f6e2d7a65726f20616c6c6f77616e63656101206040523480156200001257600080fd5b506040516200114738038062001147833981810160405260608110156200003857600080fd5b508051602080830151604093840151608084905260a0829052845163c661065760e01b81526004810185905294519394919390926000926001600160a01b0385169263c661065792602480840193919291829003018186803b1580156200009e57600080fd5b505afa158015620000b3573d6000803e3d6000fd5b505050506040513d6020811015620000ca57600080fd5b50516001600160601b0319606082901b1660c0526040805163c661065760e01b81526004810186905290516001600160a01b0392831693509184169163c661065791602480820192602092909190829003018186803b1580156200012d57600080fd5b505afa15801562000142573d6000803e3d6000fd5b505050506040513d60208110156200015957600080fd5b5051606090811b6001600160601b031990811660e0529083901b16610100526200019c6001600160a01b03821683600019620001a6602090811b6200059d17901c565b50505050620005b8565b80158062000230575060408051636eb1769f60e11b81523060048201526001600160a01b03848116602483015291519185169163dd62ed3e91604480820192602092909190829003018186803b1580156200020057600080fd5b505afa15801562000215573d6000803e3d6000fd5b505050506040513d60208110156200022c57600080fd5b5051155b6200026d5760405162461bcd60e51b8152600401808060200182810382526036815260200180620011116036913960400191505060405180910390fd5b604080516001600160a01b038416602482015260448082018490528251808303909101815260649091019091526020810180516001600160e01b0390811663095ea7b360e01b17909152620002c5918591620002ca16565b505050565b600062000326826040518060400160405280602081526020017f5361666545524332303a206c6f772d6c6576656c2063616c6c206661696c6564815250856001600160a01b03166200038660201b620006b5179092919060201c565b805190915015620002c5578080602001905160208110156200034757600080fd5b5051620002c55760405162461bcd60e51b815260040180806020018281038252602a815260200180620010e7602a913960400191505060405180910390fd5b6060620003978484600085620003a1565b90505b9392505050565b606082471015620003e45760405162461bcd60e51b8152600401808060200182810382526026815260200180620010c16026913960400191505060405180910390fd5b620003ef8562000508565b62000441576040805162461bcd60e51b815260206004820152601d60248201527f416464726573733a2063616c6c20746f206e6f6e2d636f6e7472616374000000604482015290519081900360640190fd5b600080866001600160a01b031685876040518082805190602001908083835b60208310620004815780518252601f19909201916020918201910162000460565b6001836020036101000a03801982511681845116808217855250505050505090500191505060006040518083038185875af1925050503d8060008114620004e5576040519150601f19603f3d011682016040523d82523d6000602084013e620004ea565b606091505b509092509050620004fd8282866200050e565b979650505050505050565b3b151590565b606083156200051f5750816200039a565b825115620005305782518084602001fd5b8160405162461bcd60e51b81526004018080602001828103825283818151815260200191508051906020019080838360005b838110156200057c57818101518382015260200162000562565b50505050905090810190601f168015620005aa5780820380516001836020036101000a031916815260200191505b509250505060405180910390fd5b60805160a05160c05160601c60e05160601c6101005160601c610a8e6200063360003980610165528061018b528061043e52508061011d528061035552806104a3528061054a52508061014152806102985250806101db528061027152806103fd5250806101ba52806103d7528061057b5250610a8e6000f3fe608060405234801561001057600080fd5b506004361061007d5760003560e01c80639c7929381161005b5780639c792938146100b6578063be8a97b7146100e5578063def2489b146100ed578063f11cba46146101135761007d565b8063083ab1b8146100825780630bc66fdf146100a657806316f0115b146100ae575b600080fd5b61008a61011b565b604080516001600160a01b039092168252519081900360200190f35b61008a61013f565b61008a610163565b6100d3600480360360208110156100cc57600080fd5b5035610187565b60408051918252519081900360200190f35b6100d361026f565b6100d36004803603602081101561010357600080fd5b50356001600160a01b0316610293565b6100d3610579565b7f000000000000000000000000000000000000000000000000000000000000000081565b7f000000000000000000000000000000000000000000000000000000000000000081565b7f000000000000000000000000000000000000000000000000000000000000000081565b60007f00000000000000000000000000000000000000000000000000000000000000006001600160a01b031663556d6e9f7f00000000000000000000000000000000000000000000000000000000000000007f0000000000000000000000000000000000000000000000000000000000000000856040518463ffffffff1660e01b815260040180848152602001838152602001828152602001935050505060206040518083038186803b15801561023d57600080fd5b505afa158015610251573d6000803e3d6000fd5b505050506040513d602081101561026757600080fd5b505192915050565b7f000000000000000000000000000000000000000000000000000000000000000081565b6000807f00000000000000000000000000000000000000000000000000000000000000006001600160a01b03166370a08231306040518263ffffffff1660e01b815260040180826001600160a01b0316815260200191505060206040518083038186803b15801561030357600080fd5b505afa158015610317573d6000803e3d6000fd5b505050506040513d602081101561032d57600080fd5b5051604080516370a0823160e01b815230600482015290519192506000916001600160a01b037f000000000000000000000000000000000000000000000000000000000000000016916370a08231916024808301926020929190829003018186803b15801561039b57600080fd5b505afa1580156103af573d6000803e3d6000fd5b505050506040513d60208110156103c557600080fd5b505160408051630b68372160e31b81527f000000000000000000000000000000000000000000000000000000000000000060048201527f00000000000000000000000000000000000000000000000000000000000000006024820152604481018590526001606482015290519192506001600160a01b037f00000000000000000000000000000000000000000000000000000000000000001691635b41b9089160848082019260009290919082900301818387803b15801561048657600080fd5b505af115801561049a573d6000803e3d6000fd5b505050506000817f00000000000000000000000000000000000000000000000000000000000000006001600160a01b03166370a08231306040518263ffffffff1660e01b815260040180826001600160a01b0316815260200191505060206040518083038186803b15801561050e57600080fd5b505afa158015610522573d6000803e3d6000fd5b505050506040513d602081101561053857600080fd5b50510390506105716001600160a01b037f00000000000000000000000000000000000000000000000000000000000000001633836106ce565b949350505050565b7f000000000000000000000000000000000000000000000000000000000000000081565b801580610623575060408051636eb1769f60e11b81523060048201526001600160a01b03848116602483015291519185169163dd62ed3e91604480820192602092909190829003018186803b1580156105f557600080fd5b505afa158015610609573d6000803e3d6000fd5b505050506040513d602081101561061f57600080fd5b5051155b61065e5760405162461bcd60e51b8152600401808060200182810382526036815260200180610a236036913960400191505060405180910390fd5b604080516001600160a01b038416602482015260448082018490528251808303909101815260649091019091526020810180516001600160e01b031663095ea7b360e01b1790526106b090849061071c565b505050565b60606106c484846000856107cd565b90505b9392505050565b604080516001600160a01b038416602482015260448082018490528251808303909101815260649091019091526020810180516001600160e01b031663a9059cbb60e01b1790526106b09084905b6000610771826040518060400160405280602081526020017f5361666545524332303a206c6f772d6c6576656c2063616c6c206661696c6564815250856001600160a01b03166106b59092919063ffffffff16565b8051909150156106b05780806020019051602081101561079057600080fd5b50516106b05760405162461bcd60e51b815260040180806020018281038252602a8152602001806109f9602a913960400191505060405180910390fd5b60608247101561080e5760405162461bcd60e51b81526004018080602001828103825260268152602001806109d36026913960400191505060405180910390fd5b61081785610928565b610868576040805162461bcd60e51b815260206004820152601d60248201527f416464726573733a2063616c6c20746f206e6f6e2d636f6e7472616374000000604482015290519081900360640190fd5b600080866001600160a01b031685876040518082805190602001908083835b602083106108a65780518252601f199092019160209182019101610887565b6001836020036101000a03801982511681845116808217855250505050505090500191505060006040518083038185875af1925050503d8060008114610908576040519150601f19603f3d011682016040523d82523d6000602084013e61090d565b606091505b509150915061091d82828661092e565b979650505050505050565b3b151590565b6060831561093d5750816106c7565b82511561094d5782518084602001fd5b8160405162461bcd60e51b81526004018080602001828103825283818151815260200191508051906020019080838360005b8381101561099757818101518382015260200161097f565b50505050905090810190601f1680156109c45780820380516001836020036101000a031916815260200191505b509250505060405180910390fdfe416464726573733a20696e73756666696369656e742062616c616e636520666f722063616c6c5361666545524332303a204552433230206f7065726174696f6e20646964206e6f7420737563636565645361666545524332303a20617070726f76652066726f6d206e6f6e2d7a65726f20746f206e6f6e2d7a65726f20616c6c6f77616e6365a2646970667358221220b1a749c0408534e903f31aa3e34316d86b82df895e768b98b94c6c5eff9eb29564736f6c63430007060033416464726573733a20696e73756666696369656e742062616c616e636520666f722063616c6c5361666545524332303a204552433230206f7065726174696f6e20646964206e6f7420737563636565645361666545524332303a20617070726f76652066726f6d206e6f6e2d7a65726f20746f206e6f6e2d7a65726f20616c6c6f77616e6365a26469706673582212209760b494fc1c1d44abddb4a5fc8b816f2d3e9ae07e64de3fc9054b4273eb450964736f6c63430007060033",
  "devdoc": {
    "kind": "dev",
    "methods": {},
    "version": 1
  },
  "userdoc": {
    "kind": "user",
    "methods": {},
    "version": 1
  },
  "storageLayout": {
    "storage": [],
    "types": null
  }
}