{
  "address": "0x7a2088a1bFc9d81c55368AE168C2C02570cB814F",
  "abi": [
    {
      "anonymous": false,
      "inputs": [
        {
          "indexed": false,
          "internalType": "address",
          "name": "_wrapper",
          "type": "address"
        }
      ],
      "name": "CreateWrapper",
      "type": "event"
    },
    {
      "stateMutability": "payable",
      "type": "fallback"
    },
    {
      "inputs": [
        {
          "internalType": "bool",
          "name": "_underlying",
          "type": "bool"
        },
        {
          "internalType": "uint256",
          "name": "_tokenInIndex",
          "type": "uint256"
        },
        {
          "internalType": "uint256",
          "name": "_tokenOutIndex",
          "type": "uint256"
        },
        {
          "internalType": "address",
          "name": "_pool",
          "type": "address"
        }
      ],
      "name": "createWrapper",
      "outputs": [],
      "stateMutability": "payable",
      "type": "function"
    }
  ],
  "transactionHash": "0xb732395a954e94995e0f79bab8bc47d49862bc27fd51e6de1167ac2a2f9494ab",
  "args": [],
  "numDeployments": 1,
  "solcInputHash": "43c43e09c5f334045f2fcc0a2b1ce79d",
  "bytecode": "0x608060405234801561001057600080fd5b50612afe806100206000396000f3fe60806040526004361061001e5760003560e01c80637d8b525314610020575b005b61001e6004803603608081101561003657600080fd5b508035151590602081013590604081013590606001356001600160a01b03167f729bbe2c9703a1bd3cf2ce66444473a305404e4080924c1e3068becdc1a3e0b183838387604051610086906100eb565b93845260208401929092526001600160a01b031660408084019190915290151560608301525190819003608001906000f0801580156100c9573d6000803e3d6000fd5b50604080516001600160a01b039092168252519081900360200190a150505050565b6129d0806100f98339019056fe6101c06040523480156200001257600080fd5b50604051620029d0380380620029d0833981810160405260808110156200003857600080fd5b508051602080830151604084015160609485015180151560f81b60805260a085905260c08390529481901b6001600160601b03191661012052929390929160009062000091908490849062000170811b6200066417901c565b60a08101516001600160e01b0319908116610140526040820151811661016052606082015181166101a0526080820151166101805290506000620000e282876200043a602090811b6200090f17901c565b6001600160a01b031660e0816001600160a01b031660601b815250905060006200011b86846200043a60201b6200090f1790919060201c565b6001600160601b0319606082901b16610100526001600160a01b031690506200016385600260001904846001600160a01b03166200059060201b62000a5f179092919060201c565b5050505050505062000dd2565b6200017a62000d9d565b6001600160a01b03831681528115156020820181905262000217576040805160808101825263046e8dd760e31b8152632a77a7b760e11b6020820152630331952960e51b9181019190915263c661065760e01b606082015262000211908490620001e490620006b4565b6000604051602001808281526020019150506040516020818303038152906040526200072b60201b60201c565b62000266565b60408051608081018252635b9cca9f60e11b815263b62f2cd360e01b6020820152631654775560e21b91810191909152630b9947eb60e41b606082015262000266908490620001e490620006b4565b6001600160e01b031916604082015260208101516200032c576040805160a081018252630b68372160e31b8152630f7c084960e21b6020820152631fc5330960e11b918101919091526374aee29160e11b606082015263394747c560e01b608082015262000326908490620002db90620008b0565b60408051600060208201819052818301819052633b9aca0060608301526001600160fc1b03608083015260a0808301919091528251808303909101815260c090910190915262000921565b6200037b565b604080516080810182526365b2489b60e01b8152635320bf6b60e11b6020820152634c9d2b6760e01b918101919091526309ac9b6d60e31b60608201526200037b908490620002db90620006b4565b6001600160e01b031916606082018190526200039f57630b68372160e31b60608201525b60408051608081018252635e0d443f60e01b815263024a81eb60e41b60208201526357d42f1b60e01b9181019190915263556d6e9f60e01b606082015262000425908490620003ee90620006b4565b6040805160006020820152600181830152633b9aca006060808301919091528251808303909101815260809091019091526200072b565b6001600160e01b031916608082015292915050565b600080600084600001516001600160a01b031685604001518560405160240180828152602001915050604051602081830303815290604052906001600160e01b0319166020820180516001600160e01b0383818316178352505050506040518082805190602001908083835b60208310620004c75780518252601f199092019160209182019101620004a6565b6001836020036101000a038019825116818451168082178552505050505050905001915050600060405180830381855afa9150503d806000811462000529576040519150601f19603f3d011682016040523d82523d6000602084013e6200052e565b606091505b5091509150816200056f576040805162461bcd60e51b815260206004820152600660248201526521636f696e7360d01b604482015290519081900360640190fd5b8080602001905160208110156200058557600080fd5b505195945050505050565b8015806200061a575060408051636eb1769f60e11b81523060048201526001600160a01b03848116602483015291519185169163dd62ed3e91604480820192602092909190829003018186803b158015620005ea57600080fd5b505afa158015620005ff573d6000803e3d6000fd5b505050506040513d60208110156200061657600080fd5b5051155b620006575760405162461bcd60e51b81526004018080602001828103825260368152602001806200299a6036913960400191505060405180910390fd5b604080516001600160a01b038416602482015260448082018490528251808303909101815260649091019091526020810180516001600160e01b0390811663095ea7b360e01b17909152620006af91859162000ab116565b505050565b60408051600480825260a082019092526060916020820160808036833701905050905060005b60048110156200072557828160048110620006f157fe5b60200201518282815181106200070357fe5b6001600160e01b031990921660209283029190910190910152600101620006da565b50919050565b6000805b8351811015620008a3576000856001600160a01b03168583815181106200075257fe5b60200260200101518560405160200180836001600160e01b031916815260040182805190602001908083835b602083106200079f5780518252601f1990920191602091820191016200077e565b6001836020036101000a038019825116818451168082178552505050505050905001925050506040516020818303038152906040526040518082805190602001908083835b60208310620008055780518252601f199092019160209182019101620007e4565b6001836020036101000a038019825116818451168082178552505050505050905001915050600060405180830381855afa9150503d806000811462000867576040519150601f19603f3d011682016040523d82523d6000602084013e6200086c565b606091505b50915050805160001462000899578482815181106200088757fe5b602002602001015192505050620008a9565b506001016200072f565b50600090505b9392505050565b60408051600580825260c082019092526060916020820160a08036833701905050905060005b60058110156200072557828160058110620008ed57fe5b6020020151828281518110620008ff57fe5b6001600160e01b031990921660209283029190910190910152600101620008d6565b6000805b8351811015620008a35760005a90506000866001600160a01b031662030d408785815181106200095157fe5b60200260200101518760405160200180836001600160e01b031916815260040182805190602001908083835b602083106200099e5780518252601f1990920191602091820191016200097d565b6001836020036101000a038019825116818451168082178552505050505050905001925050506040516020818303038152906040526040518082805190602001908083835b6020831062000a045780518252601f199092019160209182019101620009e3565b6001836020036101000a03801982511681845116808217855250505050505090500191505060006040518083038160008787f1925050503d806000811462000a69576040519150601f19603f3d011682016040523d82523d6000602084013e62000a6e565b606091505b5050905060005a8303905061271081111562000aa55786848151811062000a9157fe5b6020026020010151945050505050620008a9565b50505060010162000925565b600062000b0d826040518060400160405280602081526020017f5361666545524332303a206c6f772d6c6576656c2063616c6c206661696c6564815250856001600160a01b031662000b6d60201b62000b77179092919060201c565b805190915015620006af5780806020019051602081101562000b2e57600080fd5b5051620006af5760405162461bcd60e51b815260040180806020018281038252602a81526020018062002970602a913960400191505060405180910390fd5b606062000b7e848460008562000b86565b949350505050565b60608247101562000bc95760405162461bcd60e51b81526004018080602001828103825260268152602001806200294a6026913960400191505060405180910390fd5b62000bd48562000ced565b62000c26576040805162461bcd60e51b815260206004820152601d60248201527f416464726573733a2063616c6c20746f206e6f6e2d636f6e7472616374000000604482015290519081900360640190fd5b600080866001600160a01b031685876040518082805190602001908083835b6020831062000c665780518252601f19909201916020918201910162000c45565b6001836020036101000a03801982511681845116808217855250505050505090500191505060006040518083038185875af1925050503d806000811462000cca576040519150601f19603f3d011682016040523d82523d6000602084013e62000ccf565b606091505b50909250905062000ce282828662000cf3565b979650505050505050565b3b151590565b6060831562000d04575081620008a9565b82511562000d155782518084602001fd5b8160405162461bcd60e51b81526004018080602001828103825283818151815260200191508051906020019080838360005b8381101562000d6157818101518382015260200162000d47565b50505050905090810190601f16801562000d8f5780820380516001836020036101000a031916815260200191505b509250505060405180910390fd5b6040805160c081018252600080825260208201819052918101829052606081018290526080810182905260a081019190915290565b60805160f81c60a05160c05160e05160601c6101005160601c6101205160601c6101405160e01c60e01b6101605160e01c60e01b6101805160e01c60e01b6101a05160e01c60e01b611a9c62000eae6000398061030f5280610c215250806103b55280610c425250806102c75280610bdf5250806102eb5280610c0052508061027f5280610b9d5250806102375280610499528061056b528061061252508061025b52806103dc52508061035952806103915280610533525080610338528061051252806106425250806102a35280610bbe5250611a9c6000f3fe6080604052600436106100ab5760003560e01c806396b0c4191161006457806396b0c4191461017f5780639c79293814610194578063be8a97b7146101d0578063cc1a28b9146101e5578063def2489b146101fa578063f11cba4614610220576100b2565b8063083ab1b8146100b45780630bc66fdf146100e557806316f0115b146100fa5780636f307dc31461010f578063802b3b161461013857806382277ad61461016a576100b2565b366100b257005b005b3480156100c057600080fd5b506100c9610235565b604080516001600160a01b039092168252519081900360200190f35b3480156100f157600080fd5b506100c9610259565b34801561010657600080fd5b506100c961027d565b34801561011b57600080fd5b506101246102a1565b604080519115158252519081900360200190f35b34801561014457600080fd5b5061014d6102c5565b604080516001600160e01b03199092168252519081900360200190f35b34801561017657600080fd5b5061014d6102e9565b34801561018b57600080fd5b5061014d61030d565b3480156101a057600080fd5b506101be600480360360208110156101b757600080fd5b5035610331565b60408051918252519081900360200190f35b3480156101dc57600080fd5b506101be61038f565b3480156101f157600080fd5b5061014d6103b3565b6101be6004803603602081101561021057600080fd5b50356001600160a01b03166103d7565b34801561022c57600080fd5b506101be610640565b7f000000000000000000000000000000000000000000000000000000000000000081565b7f000000000000000000000000000000000000000000000000000000000000000081565b7f000000000000000000000000000000000000000000000000000000000000000081565b7f000000000000000000000000000000000000000000000000000000000000000081565b7f000000000000000000000000000000000000000000000000000000000000000081565b7f000000000000000000000000000000000000000000000000000000000000000081565b7f000000000000000000000000000000000000000000000000000000000000000081565b60006103897f00000000000000000000000000000000000000000000000000000000000000007f000000000000000000000000000000000000000000000000000000000000000084610381610b90565b929190610c6b565b92915050565b7f000000000000000000000000000000000000000000000000000000000000000081565b7f000000000000000000000000000000000000000000000000000000000000000081565b6000807f00000000000000000000000000000000000000000000000000000000000000006001600160a01b03166370a08231306040518263ffffffff1660e01b815260040180826001600160a01b0316815260200191505060206040518083038186803b15801561044757600080fd5b505afa15801561045b573d6000803e3d6000fd5b505050506040513d602081101561047157600080fd5b5051604080516370a0823160e01b815230600482015290519192506000916001600160a01b037f000000000000000000000000000000000000000000000000000000000000000016916370a08231916024808301926020929190829003018186803b1580156104df57600080fd5b505afa1580156104f3573d6000803e3d6000fd5b505050506040513d602081101561050957600080fd5b505190506105687f00000000000000000000000000000000000000000000000000000000000000007f0000000000000000000000000000000000000000000000000000000000000000846010810461055f610b90565b93929190610dc5565b807f00000000000000000000000000000000000000000000000000000000000000006001600160a01b03166370a08231306040518263ffffffff1660e01b815260040180826001600160a01b0316815260200191505060206040518083038186803b1580156105d657600080fd5b505afa1580156105ea573d6000803e3d6000fd5b505050506040513d602081101561060057600080fd5b50510392506106396001600160a01b037f0000000000000000000000000000000000000000000000000000000000000000163385610f65565b5050919050565b7f000000000000000000000000000000000000000000000000000000000000000081565b61066c611895565b6001600160a01b0383168152811515602082018190526106fd576040805160808101825263046e8dd760e31b8152632a77a7b760e11b6020820152630331952960e51b9181019190915263c661065760e01b60608201526106f89084906106d290610fb7565b60006040516020018082815260200191505060405160208183030381529060405261102a565b610749565b60408051608081018252635b9cca9f60e11b815263b62f2cd360e01b6020820152631654775560e21b91810191909152630b9947eb60e41b60608201526107499084906106d290610fb7565b6001600160e01b03191660408201526020810151610809576040805160a081018252630b68372160e31b8152630f7c084960e21b6020820152631fc5330960e11b918101919091526374aee29160e11b606082015263394747c560e01b60808201526108049084906107ba906111a1565b60408051600060208201819052818301819052633b9aca0060608301526001600160fc1b03608083015260a0808301919091528251808303909101815260c090910190915261120e565b610855565b604080516080810182526365b2489b60e01b8152635320bf6b60e11b6020820152634c9d2b6760e01b918101919091526309ac9b6d60e31b60608201526108559084906107ba90610fb7565b6001600160e01b0319166060820181905261087857630b68372160e31b60608201525b60408051608081018252635e0d443f60e01b815263024a81eb60e41b60208201526357d42f1b60e01b9181019190915263556d6e9f60e01b60608201526108fa9084906108c490610fb7565b6040805160006020820152600181830152633b9aca0060608083019190915282518083039091018152608090910190915261102a565b6001600160e01b031916608082015292915050565b600080600084600001516001600160a01b031685604001518560405160240180828152602001915050604051602081830303815290604052906001600160e01b0319166020820180516001600160e01b0383818316178352505050506040518082805190602001908083835b6020831061099a5780518252601f19909201916020918201910161097b565b6001836020036101000a038019825116818451168082178552505050505050905001915050600060405180830381855afa9150503d80600081146109fa576040519150601f19603f3d011682016040523d82523d6000602084013e6109ff565b606091505b509150915081610a3f576040805162461bcd60e51b815260206004820152600660248201526521636f696e7360d01b604482015290519081900360640190fd5b808060200190516020811015610a5457600080fd5b505195945050505050565b801580610ae5575060408051636eb1769f60e11b81523060048201526001600160a01b03848116602483015291519185169163dd62ed3e91604480820192602092909190829003018186803b158015610ab757600080fd5b505afa158015610acb573d6000803e3d6000fd5b505050506040513d6020811015610ae157600080fd5b5051155b610b205760405162461bcd60e51b8152600401808060200182810382526036815260200180611a316036913960400191505060405180910390fd5b604080516001600160a01b038416602482015260448082018490528251808303909101815260649091019091526020810180516001600160e01b031663095ea7b360e01b179052610b72908490611392565b505050565b6060610b868484600085611443565b90505b9392505050565b610b98611895565b610c667f00000000000000000000000000000000000000000000000000000000000000007f00000000000000000000000000000000000000000000000000000000000000007f00000000000000000000000000000000000000000000000000000000000000007f00000000000000000000000000000000000000000000000000000000000000007f00000000000000000000000000000000000000000000000000000000000000007f000000000000000000000000000000000000000000000000000000000000000061159e565b905090565b83516080850151604080516024810187905260448101869052606480820186905282518083039091018152608490910182526020810180516001600160e01b03166001600160e01b031990941693909317835290518151600094859485946001600160a01b039092169391928291908083835b60208310610cfd5780518252601f199092019160209182019101610cde565b6001836020036101000a038019825116818451168082178552505050505050905001915050600060405180830381855afa9150503d8060008114610d5d576040519150601f19603f3d011682016040523d82523d6000602084013e610d62565b606091505b509150915081610da3576040805162461bcd60e51b8152602060048201526007602482015266216765745f647960c81b604482015290519081900360640190fd5b808060200190516020811015610db857600080fd5b5051979650505050505050565b60008086600001516001600160a01b03165a606089015160408051602481018b9052604481018a90526064810189905260848082018990528251808303909101815260a490910182526020810180516001600160e01b03166001600160e01b031990941693909317835290518151919290918291908083835b60208310610e5d5780518252601f199092019160209182019101610e3e565b6001836020036101000a03801982511681845116808217855250505050505090500191505060006040518083038160008787f1925050503d8060008114610ec0576040519150601f19603f3d011682016040523d82523d6000602084013e610ec5565b606091505b509150915081610f5c57610ed8816115dd565b60405162461bcd60e51b81526004018080602001828103825283818151815260200191508051906020019080838360005b83811015610f21578181015183820152602001610f09565b50505050905090810190601f168015610f4e5780820380516001836020036101000a031916815260200191505b509250505060405180910390fd5b50505050505050565b604080516001600160a01b038416602482015260448082018490528251808303909101815260649091019091526020810180516001600160e01b031663a9059cbb60e01b179052610b72908490611392565b60408051600480825260a082019092526060916020820160808036833701905050905060005b600481101561102457828160048110610ff257fe5b602002015182828151811061100357fe5b6001600160e01b031990921660209283029190910190910152600101610fdd565b50919050565b6000805b8351811015611196576000856001600160a01b031685838151811061104f57fe5b60200260200101518560405160200180836001600160e01b031916815260040182805190602001908083835b6020831061109a5780518252601f19909201916020918201910161107b565b6001836020036101000a038019825116818451168082178552505050505050905001925050506040516020818303038152906040526040518082805190602001908083835b602083106110fe5780518252601f1990920191602091820191016110df565b6001836020036101000a038019825116818451168082178552505050505050905001915050600060405180830381855afa9150503d806000811461115e576040519150601f19603f3d011682016040523d82523d6000602084013e611163565b606091505b50915050805160001461118d5784828151811061117c57fe5b602002602001015192505050610b89565b5060010161102e565b506000949350505050565b60408051600580825260c082019092526060916020820160a08036833701905050905060005b6005811015611024578281600581106111dc57fe5b60200201518282815181106111ed57fe5b6001600160e01b0319909216602092830291909101909101526001016111c7565b6000805b83518110156111965760005a90506000866001600160a01b031662030d4087858151811061123c57fe5b60200260200101518760405160200180836001600160e01b031916815260040182805190602001908083835b602083106112875780518252601f199092019160209182019101611268565b6001836020036101000a038019825116818451168082178552505050505050905001925050506040516020818303038152906040526040518082805190602001908083835b602083106112eb5780518252601f1990920191602091820191016112cc565b6001836020036101000a03801982511681845116808217855250505050505090500191505060006040518083038160008787f1925050503d806000811461134e576040519150601f19603f3d011682016040523d82523d6000602084013e611353565b606091505b5050905060005a830390506127108111156113875786848151811061137457fe5b6020026020010151945050505050610b89565b505050600101611212565b60006113e7826040518060400160405280602081526020017f5361666545524332303a206c6f772d6c6576656c2063616c6c206661696c6564815250856001600160a01b0316610b779092919063ffffffff16565b805190915015610b725780806020019051602081101561140657600080fd5b5051610b725760405162461bcd60e51b815260040180806020018281038252602a815260200180611a07602a913960400191505060405180910390fd5b6060824710156114845760405162461bcd60e51b81526004018080602001828103825260268152602001806119e16026913960400191505060405180910390fd5b61148d856116d9565b6114de576040805162461bcd60e51b815260206004820152601d60248201527f416464726573733a2063616c6c20746f206e6f6e2d636f6e7472616374000000604482015290519081900360640190fd5b600080866001600160a01b031685876040518082805190602001908083835b6020831061151c5780518252601f1990920191602091820191016114fd565b6001836020036101000a03801982511681845116808217855250505050505090500191505060006040518083038185875af1925050503d806000811461157e576040519150601f19603f3d011682016040523d82523d6000602084013e611583565b606091505b50915091506115938282866116df565b979650505050505050565b6115a6611895565b6001600160a01b0390961686526001600160e01b0319938416604087015291831660a0860152821660608501521660808301525090565b6060815160001415611623575060408051808201909152601c81527f636170747572656420656d70747920726576657274206275666665720000000060208201526116d4565b6308c379a061163d6116388460006004611745565b61176e565b63ffffffff1614611668576040518060600160405280603f81526020016119a2603f913990506116d4565b600061167d611678846004611783565b6117a7565b90508051600014156116c457505060408051808201909152601d81527f636170747572656420656d70747920726576657274206d65737361676500000060208201526116d4565b60006116cf82611817565b925050505b919050565b3b151590565b606083156116ee575081610b89565b8251156116fe5782518084602001fd5b60405162461bcd60e51b8152602060048201818152845160248401528451859391928392604401919085019080838360008315610f21578181015183820152602001610f09565b61174d6118ca565b611757848461182d565b815260208101919091526040810191909152919050565b80516020820151600091906116cf8282611834565b61178b6118ca565b818351101561179957825191505b610b89838384865103611745565b60208101516060908067ffffffffffffffff811180156117c657600080fd5b506040519080825280601f01601f1916602001820160405280156117f1576020820181803683370190505b508351909250600061180284611851565b905061180f818385611857565b505050919050565b60608180602001905181019061038991906118eb565b0160200190565b6000600180600884021b0380836020038503511691505092915050565b60200190565b5b60208110611877578151835260209283019290910190601f1901611858565b600180600883602003021b0380845116811984511617845250505050565b6040805160c081018252600080825260208201819052918101829052606081018290526080810182905260a081019190915290565b60405180606001604052806000815260200160008152602001600081525090565b600060208083850312156118fd578182fd5b825167ffffffffffffffff80821115611914578384fd5b818501915085601f830112611927578384fd5b81518181111561193357fe5b604051601f8201601f191681018501838111828210171561195057fe5b6040528181528382018501881015611966578586fd5b8592505b81831015611987578383018501518184018601529184019161196a565b81831115611593578585838301015297965050505050505056fe6361707475726564206120726576657274206572726f722c2062757420697420646f65736e277420636f6e666f726d20746f20746865207374616e64617264416464726573733a20696e73756666696369656e742062616c616e636520666f722063616c6c5361666545524332303a204552433230206f7065726174696f6e20646964206e6f7420737563636565645361666545524332303a20617070726f76652066726f6d206e6f6e2d7a65726f20746f206e6f6e2d7a65726f20616c6c6f77616e6365a26469706673582212208155782733324bf8f6da4c82d8ff518244c3e00d63c5e8b21d3c1452a41e5d6864736f6c63430007060033416464726573733a20696e73756666696369656e742062616c616e636520666f722063616c6c5361666545524332303a204552433230206f7065726174696f6e20646964206e6f7420737563636565645361666545524332303a20617070726f76652066726f6d206e6f6e2d7a65726f20746f206e6f6e2d7a65726f20616c6c6f77616e6365a264697066735822122092ff9c2b674efdc50f8963f88967e9a4f849cb5bbc7d3b3c106b791e5a0dcb3264736f6c63430007060033",
  "devdoc": {
    "kind": "dev",
    "methods": {},
    "version": 1
  },
  "userdoc": {
    "kind": "user",
    "methods": {},
    "version": 1
  },
  "storageLayout": {
    "storage": [],
    "types": null
  }
}