{
  "address": "0x0165878A594ca255338adfa4d48449f69242Eb8F",
  "abi": [
    {
      "anonymous": false,
      "inputs": [
        {
          "indexed": true,
          "internalType": "address",
          "name": "previousOwner",
          "type": "address"
        },
        {
          "indexed": true,
          "internalType": "address",
          "name": "newOwner",
          "type": "address"
        }
      ],
      "name": "OwnershipTransferred",
      "type": "event"
    },
    {
      "inputs": [
        {
          "internalType": "address",
          "name": "module",
          "type": "address"
        },
        {
          "internalType": "bool",
          "name": "isApproved",
          "type": "bool"
        }
      ],
      "name": "approveModule",
      "outputs": [],
      "stateMutability": "nonpayable",
      "type": "function"
    },
    {
      "inputs": [
        {
          "internalType": "address",
          "name": "_token",
          "type": "address"
        },
        {
          "internalType": "address",
          "name": "_strategy",
          "type": "address"
        }
      ],
      "name": "approveStrategy",
      "outputs": [],
      "stateMutability": "nonpayable",
      "type": "function"
    },
    {
      "inputs": [
        {
          "internalType": "address",
          "name": "",
          "type": "address"
        }
      ],
      "name": "approvedModules",
      "outputs": [
        {
          "internalType": "bool",
          "name": "",
          "type": "bool"
        }
      ],
      "stateMutability": "view",
      "type": "function"
    },
    {
      "inputs": [
        {
          "internalType": "address",
          "name": "",
          "type": "address"
        },
        {
          "internalType": "address",
          "name": "",
          "type": "address"
        }
      ],
      "name": "approvedStrategies",
      "outputs": [
        {
          "internalType": "bool",
          "name": "",
          "type": "bool"
        }
      ],
      "stateMutability": "view",
      "type": "function"
    },
    {
      "inputs": [
        {
          "internalType": "address",
          "name": "_owner",
          "type": "address"
        }
      ],
      "name": "balanceOf",
      "outputs": [
        {
          "internalType": "uint256",
          "name": "result",
          "type": "uint256"
        }
      ],
      "stateMutability": "view",
      "type": "function"
    },
    {
      "inputs": [
        {
          "internalType": "address",
          "name": "",
          "type": "address"
        }
      ],
      "name": "baseFeeByAsset",
      "outputs": [
        {
          "internalType": "uint256",
          "name": "",
          "type": "uint256"
        }
      ],
      "stateMutability": "view",
      "type": "function"
    },
    {
      "inputs": [
        {
          "internalType": "address",
          "name": "to",
          "type": "address"
        },
        {
          "internalType": "address",
          "name": "asset",
          "type": "address"
        },
        {
          "internalType": "uint256",
          "name": "amount",
          "type": "uint256"
        },
        {
          "internalType": "uint256",
          "name": "deadline",
          "type": "uint256"
        },
        {
          "internalType": "bytes",
          "name": "destination",
          "type": "bytes"
        },
        {
          "internalType": "bytes",
          "name": "signature",
          "type": "bytes"
        }
      ],
      "name": "burn",
      "outputs": [],
      "stateMutability": "nonpayable",
      "type": "function"
    },
    {
      "inputs": [
        {
          "internalType": "address",
          "name": "asset",
          "type": "address"
        },
        {
          "internalType": "uint256",
          "name": "amount",
          "type": "uint256"
        },
        {
          "internalType": "uint256",
          "name": "deadline",
          "type": "uint256"
        },
        {
          "internalType": "uint256",
          "name": "nonce",
          "type": "uint256"
        },
        {
          "internalType": "bytes",
          "name": "destination",
          "type": "bytes"
        }
      ],
      "name": "computeBurnNonce",
      "outputs": [
        {
          "internalType": "uint256",
          "name": "result",
          "type": "uint256"
        }
      ],
      "stateMutability": "view",
      "type": "function"
    },
    {
      "inputs": [
        {
          "internalType": "address",
          "name": "",
          "type": "address"
        },
        {
          "internalType": "address",
          "name": "",
          "type": "address"
        }
      ],
      "name": "converters",
      "outputs": [
        {
          "internalType": "address",
          "name": "",
          "type": "address"
        }
      ],
      "stateMutability": "view",
      "type": "function"
    },
    {
      "inputs": [
        {
          "internalType": "address",
          "name": "_token",
          "type": "address"
        },
        {
          "internalType": "uint256",
          "name": "_amount",
          "type": "uint256"
        }
      ],
      "name": "earn",
      "outputs": [],
      "stateMutability": "nonpayable",
      "type": "function"
    },
    {
      "inputs": [
        {
          "internalType": "address",
          "name": "underwriter",
          "type": "address"
        },
        {
          "internalType": "address",
          "name": "to",
          "type": "address"
        },
        {
          "internalType": "address",
          "name": "asset",
          "type": "address"
        },
        {
          "internalType": "uint256",
          "name": "amount",
          "type": "uint256"
        },
        {
          "internalType": "uint256",
          "name": "actualAmount",
          "type": "uint256"
        },
        {
          "internalType": "uint256",
          "name": "nonce",
          "type": "uint256"
        },
        {
          "internalType": "address",
          "name": "module",
          "type": "address"
        },
        {
          "internalType": "bytes32",
          "name": "nHash",
          "type": "bytes32"
        },
        {
          "internalType": "bytes",
          "name": "data",
          "type": "bytes"
        },
        {
          "internalType": "bytes",
          "name": "signature",
          "type": "bytes"
        }
      ],
      "name": "fallbackMint",
      "outputs": [],
      "stateMutability": "nonpayable",
      "type": "function"
    },
    {
      "inputs": [],
      "name": "fee",
      "outputs": [
        {
          "internalType": "uint256",
          "name": "",
          "type": "uint256"
        }
      ],
      "stateMutability": "view",
      "type": "function"
    },
    {
      "inputs": [],
      "name": "gatewayRegistry",
      "outputs": [
        {
          "internalType": "address",
          "name": "",
          "type": "address"
        }
      ],
      "stateMutability": "view",
      "type": "function"
    },
    {
      "inputs": [
        {
          "internalType": "address",
          "name": "_strategy",
          "type": "address"
        },
        {
          "internalType": "address",
          "name": "_token",
          "type": "address"
        },
        {
          "internalType": "uint256",
          "name": "parts",
          "type": "uint256"
        }
      ],
      "name": "getExpectedReturn",
      "outputs": [
        {
          "internalType": "uint256",
          "name": "expected",
          "type": "uint256"
        }
      ],
      "stateMutability": "view",
      "type": "function"
    },
    {
      "inputs": [],
      "name": "governance",
      "outputs": [
        {
          "internalType": "address",
          "name": "",
          "type": "address"
        }
      ],
      "stateMutability": "view",
      "type": "function"
    },
    {
      "inputs": [
        {
          "internalType": "address",
          "name": "_strategy",
          "type": "address"
        },
        {
          "internalType": "address",
          "name": "_token",
          "type": "address"
        }
      ],
      "name": "inCaseStrategyTokenGetStuck",
      "outputs": [],
      "stateMutability": "nonpayable",
      "type": "function"
    },
    {
      "inputs": [
        {
          "internalType": "address",
          "name": "_token",
          "type": "address"
        },
        {
          "internalType": "uint256",
          "name": "_amount",
          "type": "uint256"
        }
      ],
      "name": "inCaseTokensGetStuck",
      "outputs": [],
      "stateMutability": "nonpayable",
      "type": "function"
    },
    {
      "inputs": [
        {
          "internalType": "address",
          "name": "_rewards",
          "type": "address"
        },
        {
          "internalType": "address",
          "name": "_gatewayRegistry",
          "type": "address"
        }
      ],
      "name": "initialize",
      "outputs": [],
      "stateMutability": "nonpayable",
      "type": "function"
    },
    {
      "inputs": [
        {
          "internalType": "address",
          "name": "to",
          "type": "address"
        },
        {
          "internalType": "address",
          "name": "asset",
          "type": "address"
        },
        {
          "internalType": "uint256",
          "name": "amount",
          "type": "uint256"
        },
        {
          "internalType": "uint256",
          "name": "nonce",
          "type": "uint256"
        },
        {
          "internalType": "address",
          "name": "module",
          "type": "address"
        },
        {
          "internalType": "bytes",
          "name": "data",
          "type": "bytes"
        },
        {
          "internalType": "bytes",
          "name": "userSignature",
          "type": "bytes"
        }
      ],
      "name": "loan",
      "outputs": [],
      "stateMutability": "nonpayable",
      "type": "function"
    },
    {
      "inputs": [
        {
          "internalType": "bytes32",
          "name": "",
          "type": "bytes32"
        }
      ],
      "name": "loanStatus",
      "outputs": [
        {
          "internalType": "address",
          "name": "underwriter",
          "type": "address"
        },
        {
          "internalType": "enum ZeroLib.LoanStatusCode",
          "name": "status",
          "type": "uint8"
        }
      ],
      "stateMutability": "view",
      "type": "function"
    },
    {
      "inputs": [
        {
          "internalType": "address",
          "name": "underwriter",
          "type": "address"
        }
      ],
      "name": "lockFor",
      "outputs": [
        {
          "internalType": "contract ZeroUnderwriterLock",
          "name": "result",
          "type": "address"
        }
      ],
      "stateMutability": "view",
      "type": "function"
    },
    {
      "inputs": [],
      "name": "max",
      "outputs": [
        {
          "internalType": "uint256",
          "name": "",
          "type": "uint256"
        }
      ],
      "stateMutability": "view",
      "type": "function"
    },
    {
      "inputs": [
        {
          "internalType": "address",
          "name": "from",
          "type": "address"
        },
        {
          "internalType": "address",
          "name": "asset",
          "type": "address"
        },
        {
          "internalType": "address",
          "name": "module",
          "type": "address"
        },
        {
          "internalType": "uint256",
          "name": "nonce",
          "type": "uint256"
        },
        {
          "internalType": "bytes",
          "name": "data",
          "type": "bytes"
        },
        {
          "internalType": "bytes",
          "name": "signature",
          "type": "bytes"
        }
      ],
      "name": "meta",
      "outputs": [
        {
          "internalType": "uint256",
          "name": "gasValueAndFee",
          "type": "uint256"
        }
      ],
      "stateMutability": "nonpayable",
      "type": "function"
    },
    {
      "inputs": [
        {
          "internalType": "address",
          "name": "underwriter",
          "type": "address"
        },
        {
          "internalType": "address",
          "name": "vault",
          "type": "address"
        }
      ],
      "name": "mint",
      "outputs": [],
      "stateMutability": "nonpayable",
      "type": "function"
    },
    {
      "inputs": [],
      "name": "onesplit",
      "outputs": [
        {
          "internalType": "address",
          "name": "",
          "type": "address"
        }
      ],
      "stateMutability": "view",
      "type": "function"
    },
    {
      "inputs": [],
      "name": "owner",
      "outputs": [
        {
          "internalType": "address",
          "name": "",
          "type": "address"
        }
      ],
      "stateMutability": "view",
      "type": "function"
    },
    {
      "inputs": [
        {
          "internalType": "uint256",
          "name": "",
          "type": "uint256"
        }
      ],
      "name": "ownerOf",
      "outputs": [
        {
          "internalType": "address",
          "name": "",
          "type": "address"
        }
      ],
      "stateMutability": "view",
      "type": "function"
    },
    {
      "inputs": [],
      "name": "renounceOwnership",
      "outputs": [],
      "stateMutability": "nonpayable",
      "type": "function"
    },
    {
      "inputs": [
        {
          "internalType": "address",
          "name": "underwriter",
          "type": "address"
        },
        {
          "internalType": "address",
          "name": "to",
          "type": "address"
        },
        {
          "internalType": "address",
          "name": "asset",
          "type": "address"
        },
        {
          "internalType": "uint256",
          "name": "amount",
          "type": "uint256"
        },
        {
          "internalType": "uint256",
          "name": "actualAmount",
          "type": "uint256"
        },
        {
          "internalType": "uint256",
          "name": "nonce",
          "type": "uint256"
        },
        {
          "internalType": "address",
          "name": "module",
          "type": "address"
        },
        {
          "internalType": "bytes32",
          "name": "nHash",
          "type": "bytes32"
        },
        {
          "internalType": "bytes",
          "name": "data",
          "type": "bytes"
        },
        {
          "internalType": "bytes",
          "name": "signature",
          "type": "bytes"
        }
      ],
      "name": "repay",
      "outputs": [],
      "stateMutability": "nonpayable",
      "type": "function"
    },
    {
      "inputs": [
        {
          "internalType": "address",
          "name": "_token",
          "type": "address"
        },
        {
          "internalType": "address",
          "name": "_strategy",
          "type": "address"
        }
      ],
      "name": "revokeStrategy",
      "outputs": [],
      "stateMutability": "nonpayable",
      "type": "function"
    },
    {
      "inputs": [],
      "name": "rewards",
      "outputs": [
        {
          "internalType": "address",
          "name": "",
          "type": "address"
        }
      ],
      "stateMutability": "view",
      "type": "function"
    },
    {
      "inputs": [
        {
          "internalType": "address",
          "name": "_asset",
          "type": "address"
        },
        {
          "internalType": "uint256",
          "name": "_fee",
          "type": "uint256"
        }
      ],
      "name": "setBaseFeeByAsset",
      "outputs": [],
      "stateMutability": "nonpayable",
      "type": "function"
    },
    {
      "inputs": [
        {
          "internalType": "address",
          "name": "_input",
          "type": "address"
        },
        {
          "internalType": "address",
          "name": "_output",
          "type": "address"
        },
        {
          "internalType": "address",
          "name": "_converter",
          "type": "address"
        }
      ],
      "name": "setConverter",
      "outputs": [],
      "stateMutability": "nonpayable",
      "type": "function"
    },
    {
      "inputs": [
        {
          "internalType": "uint256",
          "name": "_fee",
          "type": "uint256"
        }
      ],
      "name": "setFee",
      "outputs": [],
      "stateMutability": "nonpayable",
      "type": "function"
    },
    {
      "inputs": [
        {
          "internalType": "uint256",
          "name": "_maxGasPrice",
          "type": "uint256"
        },
        {
          "internalType": "uint256",
          "name": "_maxGasRepay",
          "type": "uint256"
        },
        {
          "internalType": "uint256",
          "name": "_maxGasLoan",
          "type": "uint256"
        },
        {
          "internalType": "uint256",
          "name": "_maxGasBurn",
          "type": "uint256"
        }
      ],
      "name": "setGasParameters",
      "outputs": [],
      "stateMutability": "nonpayable",
      "type": "function"
    },
    {
      "inputs": [
        {
          "internalType": "address",
          "name": "_governance",
          "type": "address"
        }
      ],
      "name": "setGovernance",
      "outputs": [],
      "stateMutability": "nonpayable",
      "type": "function"
    },
    {
      "inputs": [
        {
          "internalType": "address",
          "name": "_onesplit",
          "type": "address"
        }
      ],
      "name": "setOneSplit",
      "outputs": [],
      "stateMutability": "nonpayable",
      "type": "function"
    },
    {
      "inputs": [
        {
          "internalType": "address",
          "name": "_rewards",
          "type": "address"
        }
      ],
      "name": "setRewards",
      "outputs": [],
      "stateMutability": "nonpayable",
      "type": "function"
    },
    {
      "inputs": [
        {
          "internalType": "uint256",
          "name": "_split",
          "type": "uint256"
        }
      ],
      "name": "setSplit",
      "outputs": [],
      "stateMutability": "nonpayable",
      "type": "function"
    },
    {
      "inputs": [
        {
          "internalType": "address",
          "name": "_strategist",
          "type": "address"
        }
      ],
      "name": "setStrategist",
      "outputs": [],
      "stateMutability": "nonpayable",
      "type": "function"
    },
    {
      "inputs": [
        {
          "internalType": "address",
          "name": "_token",
          "type": "address"
        },
        {
          "internalType": "address",
          "name": "_strategy",
          "type": "address"
        },
        {
          "internalType": "bool",
          "name": "_abandon",
          "type": "bool"
        }
      ],
      "name": "setStrategy",
      "outputs": [],
      "stateMutability": "nonpayable",
      "type": "function"
    },
    {
      "inputs": [
        {
          "internalType": "address",
          "name": "_token",
          "type": "address"
        },
        {
          "internalType": "address",
          "name": "_vault",
          "type": "address"
        }
      ],
      "name": "setVault",
      "outputs": [],
      "stateMutability": "nonpayable",
      "type": "function"
    },
    {
      "inputs": [],
      "name": "split",
      "outputs": [
        {
          "internalType": "uint256",
          "name": "",
          "type": "uint256"
        }
      ],
      "stateMutability": "view",
      "type": "function"
    },
    {
      "inputs": [
        {
          "internalType": "address",
          "name": "",
          "type": "address"
        }
      ],
      "name": "strategies",
      "outputs": [
        {
          "internalType": "address",
          "name": "",
          "type": "address"
        }
      ],
      "stateMutability": "view",
      "type": "function"
    },
    {
      "inputs": [],
      "name": "strategist",
      "outputs": [
        {
          "internalType": "address",
          "name": "",
          "type": "address"
        }
      ],
      "stateMutability": "view",
      "type": "function"
    },
    {
      "inputs": [
        {
          "internalType": "address",
          "name": "newOwner",
          "type": "address"
        }
      ],
      "name": "transferOwnership",
      "outputs": [],
      "stateMutability": "nonpayable",
      "type": "function"
    },
    {
      "inputs": [
        {
          "internalType": "address",
          "name": "",
          "type": "address"
        }
      ],
      "name": "vaults",
      "outputs": [
        {
          "internalType": "address",
          "name": "",
          "type": "address"
        }
      ],
      "stateMutability": "view",
      "type": "function"
    },
    {
      "inputs": [
        {
          "internalType": "address",
          "name": "_token",
          "type": "address"
        },
        {
          "internalType": "uint256",
          "name": "_amount",
          "type": "uint256"
        }
      ],
      "name": "withdraw",
      "outputs": [],
      "stateMutability": "nonpayable",
      "type": "function"
    },
    {
      "inputs": [
        {
          "internalType": "address",
          "name": "_token",
          "type": "address"
        }
      ],
      "name": "withdrawAll",
      "outputs": [],
      "stateMutability": "nonpayable",
      "type": "function"
    },
    {
      "inputs": [
        {
          "internalType": "address",
          "name": "_strategy",
          "type": "address"
        },
        {
          "internalType": "address",
          "name": "_token",
          "type": "address"
        },
        {
          "internalType": "uint256",
          "name": "parts",
          "type": "uint256"
        }
      ],
      "name": "yearn",
      "outputs": [],
      "stateMutability": "nonpayable",
      "type": "function"
    }
  ],
  "transactionHash": "0x4ab89288c8efe116a9965775e0970d88498d3232803dc6115fc5a64b3df005c9",
  "args": [],
  "numDeployments": 1,
  "solcInputHash": "a107231292f6da35c02f811adc5a79b2",
  "bytecode": "0x60806040526101f460085564174876e80060a2556203d09060a3556207a12060a4556207a12060ad5534801561003457600080fd5b50615cbb80620000456000396000f3fe608060405234801561001057600080fd5b50600436106102d65760003560e01c8063aa4fbf4a11610182578063ddca3f43116100e9578063ee1fe2ad116100a2578063f3fef3a31161007c578063f3fef3a314611063578063f712adbb1461108f578063f765417614611097578063fa09e6301461109f576102d6565b8063ee1fe2ad14610ec1578063f241877514610eef578063f2fde38b1461103d576102d6565b8063ddca3f4314610ca6578063e14f78c614610cae578063e4759b2f14610cdc578063e4f2494d14610e47578063e6b512d414610e75578063ec38a86214610e9b576102d6565b8063c7b9d5301161013b578063c7b9d53014610b20578063cb1d870d14610b46578063cc444f4414610c0b578063ccd0631814610c37578063ce032b3314610c6f578063d693452e14610c9e576102d6565b8063aa4fbf4a14610a16578063ab033ea914610a4e578063b02bf4b914610a74578063c494448e14610aa0578063c6d758cb14610ace578063c792b5aa14610afa576102d6565b80636c285cc611610241578063731de453116101fa5780638da5cb5b116101d45780638da5cb5b1461099e5780639ec5a894146109a6578063a1578b6a146109ae578063a622ee7c146109f0576102d6565b8063731de453146109045780638c509eae1461092a5780638da1df4d14610978576102d6565b80636c285cc6146105cb5780636dcd64e5146107215780636eac82791461075757806370a08231146108a8578063714ccf7b146108ce578063715018a6146108fc576102d6565b8063590bbb6011610293578063590bbb60146105245780635aa6e675146105525780636352211e1461055a578063674e694f1461057757806369fe0e2d146105945780636ac5db19146105b1576102d6565b806304209f48146102db578063197baa6d146103135780631fe4a6861461034157806339ebf823146103655780633b36c7f81461038b578063485cc955146104f6575b600080fd5b610311600480360360608110156102f157600080fd5b506001600160a01b038135811691602081013590911690604001356110c5565b005b6103116004803603604081101561032957600080fd5b506001600160a01b03813581169160200135166116dc565b6103496117a9565b604080516001600160a01b039092168252519081900360200190f35b6103496004803603602081101561037b57600080fd5b50356001600160a01b03166117b8565b61031160048036036101408110156103a257600080fd5b6001600160a01b0382358116926020810135821692604082013583169260608301359260808101359260a08201359260c0830135169160e0810135918101906101208101610100820135600160201b8111156103fd57600080fd5b82018360208201111561040f57600080fd5b803590602001918460018302840111600160201b8311171561043057600080fd5b91908080601f0160208091040260200160405190810160405280939291908181526020018383808284376000920191909152509295949360208101935035915050600160201b81111561048257600080fd5b82018360208201111561049457600080fd5b803590602001918460018302840111600160201b831117156104b557600080fd5b91908080601f0160208091040260200160405190810160405280939291908181526020018383808284376000920191909152509295506117d3945050505050565b6103116004803603604081101561050c57600080fd5b506001600160a01b0381358116916020013516611d26565b6103116004803603604081101561053a57600080fd5b506001600160a01b0381358116916020013516611f2e565b610349611fac565b6103496004803603602081101561057057600080fd5b5035611fbb565b6103116004803603602081101561058d57600080fd5b5035611fd6565b610311600480360360208110156105aa57600080fd5b5035612028565b6105b961207a565b60408051918252519081900360200190f35b610311600480360360e08110156105e157600080fd5b6001600160a01b038235811692602081013582169260408201359260608301359260808101359091169181019060c0810160a0820135600160201b81111561062857600080fd5b82018360208201111561063a57600080fd5b803590602001918460018302840111600160201b8311171561065b57600080fd5b91908080601f0160208091040260200160405190810160405280939291908181526020018383808284376000920191909152509295949360208101935035915050600160201b8111156106ad57600080fd5b8201836020820111156106bf57600080fd5b803590602001918460018302840111600160201b831117156106e057600080fd5b91908080601f016020809104026020016040519081016040528093929190818152602001838380828437600092019190915250929550612080945050505050565b6105b96004803603606081101561073757600080fd5b506001600160a01b03813581169160208101359091169060400135612661565b6105b9600480360360c081101561076d57600080fd5b6001600160a01b03823581169260208101358216926040820135909216916060820135919081019060a081016080820135600160201b8111156107af57600080fd5b8201836020820111156107c157600080fd5b803590602001918460018302840111600160201b831117156107e257600080fd5b91908080601f0160208091040260200160405190810160405280939291908181526020018383808284376000920191909152509295949360208101935035915050600160201b81111561083457600080fd5b82018360208201111561084657600080fd5b803590602001918460018302840111600160201b8311171561086757600080fd5b91908080601f016020809104026020016040519081016040528093929190818152602001838380828437600092019190915250929550612896945050505050565b6105b9600480360360208110156108be57600080fd5b50356001600160a01b031661301f565b610311600480360360408110156108e457600080fd5b506001600160a01b0381358116916020013516613030565b610311613115565b6105b96004803603602081101561091a57600080fd5b50356001600160a01b03166131d3565b6109476004803603602081101561094057600080fd5b50356131e5565b60405180836001600160a01b0316815260200182600281111561096657fe5b81526020019250505060405180910390f35b6103116004803603602081101561098e57600080fd5b50356001600160a01b031661320c565b61034961327b565b61034961328a565b6109dc600480360360408110156109c457600080fd5b506001600160a01b0381358116916020013516613299565b604080519115158252519081900360200190f35b61034960048036036020811015610a0657600080fd5b50356001600160a01b03166132b9565b61031160048036036060811015610a2c57600080fd5b506001600160a01b0381358116916020810135909116906040013515156132d4565b61031160048036036020811015610a6457600080fd5b50356001600160a01b0316613450565b61031160048036036040811015610a8a57600080fd5b506001600160a01b0381351690602001356134bf565b61031160048036036040811015610ab657600080fd5b506001600160a01b038135811691602001351661368b565b61031160048036036040811015610ae457600080fd5b506001600160a01b03813516906020013561370c565b6109dc60048036036020811015610b1057600080fd5b50356001600160a01b0316613786565b61031160048036036020811015610b3657600080fd5b50356001600160a01b031661379b565b6105b9600480360360a0811015610b5c57600080fd5b6001600160a01b038235169160208101359160408201359160608101359181019060a081016080820135600160201b811115610b9757600080fd5b820183602082011115610ba957600080fd5b803590602001918460018302840111600160201b83111715610bca57600080fd5b91908080601f01602080910402602001604051908101604052809392919081815260200183838082843760009201919091525092955061380a945050505050565b61031160048036036040811015610c2157600080fd5b506001600160a01b0381351690602001356138e3565b61031160048036036060811015610c4d57600080fd5b506001600160a01b03813581169160208101358216916040909101351661394c565b61031160048036036080811015610c8557600080fd5b50803590602081013590604081013590606001356139eb565b610349613a4c565b6105b9613a5b565b61031160048036036040811015610cc457600080fd5b506001600160a01b0381351690602001351515613a61565b6103116004803603610140811015610cf357600080fd5b6001600160a01b0382358116926020810135821692604082013583169260608301359260808101359260a08201359260c0830135169160e0810135918101906101208101610100820135600160201b811115610d4e57600080fd5b820183602082011115610d6057600080fd5b803590602001918460018302840111600160201b83111715610d8157600080fd5b91908080601f0160208091040260200160405190810160405280939291908181526020018383808284376000920191909152509295949360208101935035915050600160201b811115610dd357600080fd5b820183602082011115610de557600080fd5b803590602001918460018302840111600160201b83111715610e0657600080fd5b91908080601f016020809104026020016040519081016040528093929190818152602001838380828437600092019190915250929550613ad9945050505050565b61034960048036036040811015610e5d57600080fd5b506001600160a01b0381358116916020013516613e1a565b61034960048036036020811015610e8b57600080fd5b50356001600160a01b0316613e40565b61031160048036036020811015610eb157600080fd5b50356001600160a01b0316613e5b565b61031160048036036040811015610ed757600080fd5b506001600160a01b0381358116916020013516613eca565b610311600480360360c0811015610f0557600080fd5b6001600160a01b03823581169260208101359091169160408201359160608101359181019060a081016080820135600160201b811115610f4457600080fd5b820183602082011115610f5657600080fd5b803590602001918460018302840111600160201b83111715610f7757600080fd5b91908080601f0160208091040260200160405190810160405280939291908181526020018383808284376000920191909152509295949360208101935035915050600160201b811115610fc957600080fd5b820183602082011115610fdb57600080fd5b803590602001918460018302840111600160201b83111715610ffc57600080fd5b91908080601f016020809104026020016040519081016040528093929190818152602001838380828437600092019190915250929550613f7d945050505050565b6103116004803603602081101561105357600080fd5b50356001600160a01b03166144dc565b6103116004803603604081101561107957600080fd5b506001600160a01b0381351690602001356145f1565b610349614652565b6105b9614661565b610311600480360360208110156110b557600080fd5b50356001600160a01b0316614667565b6001546001600160a01b03163314806110e857506000546001600160a01b031633145b611127576040805162461bcd60e51b815260206004820152600b60248201526a21676f7665726e616e636560a81b604482015290519081900360640190fd5b6000826001600160a01b03166370a08231306040518263ffffffff1660e01b815260040180826001600160a01b0316815260200191505060206040518083038186803b15801561117657600080fd5b505afa15801561118a573d6000803e3d6000fd5b505050506040513d60208110156111a057600080fd5b5051604080516351cff8d960e01b81526001600160a01b0386811660048301529151929350908616916351cff8d99160248082019260009290919082900301818387803b1580156111f057600080fd5b505af1158015611204573d6000803e3d6000fd5b505050506000836001600160a01b03166370a08231306040518263ffffffff1660e01b815260040180826001600160a01b0316815260200191505060206040518083038186803b15801561125757600080fd5b505afa15801561126b573d6000803e3d6000fd5b505050506040513d602081101561128157600080fd5b50519050818111156116d5576000611299828461472d565b90506000866001600160a01b0316631f1fcd516040518163ffffffff1660e01b815260040160206040518083038186803b1580156112d657600080fd5b505afa1580156112ea573d6000803e3d6000fd5b505050506040513d602081101561130057600080fd5b5051604080516370a0823160e01b815230600482015290519192506060916000916001600160a01b038516916370a0823191602480820192602092909190829003018186803b15801561135257600080fd5b505afa158015611366573d6000803e3d6000fd5b505050506040513d602081101561137c57600080fd5b505160025490965061139c906001600160a01b038a81169116600061478a565b6002546113b6906001600160a01b038a811691168661478a565b6002546040805163085e2c5b60e01b81526001600160a01b038b81166004830152868116602483015260448201889052606482018b9052600060848301819052925193169263085e2c5b9260a480840193919291829003018186803b15801561141e57600080fd5b505afa158015611432573d6000803e3d6000fd5b505050506040513d6000823e601f3d908101601f19168201604090815281101561145b57600080fd5b815160208301805160405192949293830192919084600160201b82111561148157600080fd5b90830190602082018581111561149657600080fd5b82518660208202830111600160201b821117156114b257600080fd5b82525081516020918201928201910280838360005b838110156114df5781810151838201526020016114c7565b505050509050016040525050508093508192505050600260009054906101000a90046001600160a01b03166001600160a01b031663e2a7515e898587858760006040518763ffffffff1660e01b815260040180876001600160a01b03168152602001866001600160a01b0316815260200185815260200184815260200180602001838152602001828103825284818151815260200191508051906020019060200280838360005b8381101561159e578181015183820152602001611586565b50505050905001975050505050505050602060405180830381600087803b1580156115c857600080fd5b505af11580156115dc573d6000803e3d6000fd5b505050506040513d60208110156115f257600080fd5b5050604080516370a0823160e01b815230600482015290516001600160a01b038516916370a08231916024808301926020929190829003018186803b15801561163a57600080fd5b505afa15801561164e573d6000803e3d6000fd5b505050506040513d602081101561166457600080fd5b50519450858511156116d05761167a858761472d565b9350600061169f612710611699600854886148a290919063ffffffff16565b90614902565b90506116b4846116af878461472d565b6134bf565b6003546116ce906001600160a01b03868116911683614969565b505b505050505b5050505050565b6001546001600160a01b03163314806116ff57506000546001600160a01b031633145b61173e576040805162461bcd60e51b815260206004820152600b60248201526a21676f7665726e616e636560a81b604482015290519081900360640190fd5b816001600160a01b03166351cff8d9826040518263ffffffff1660e01b815260040180826001600160a01b03168152602001915050600060405180830381600087803b15801561178d57600080fd5b505af11580156117a1573d6000803e3d6000fd5b505050505050565b6001546001600160a01b031681565b6005602052600090815260409020546001600160a01b031681565b60005a905060006040518060c001604052808c6001600160a01b031681526020018b6001600160a01b031681526020018a8152602001888152602001876001600160a01b031681526020018581525090506000611830828e6149bb565b90506001600082815260a66020526040902054600160a01b900460ff16600281111561185857fe5b146118aa576040805162461bcd60e51b815260206004820152601f60248201527f6c6f616e206973206e6f7420696e2074686520554e5041494420737461746500604482015290519081900360640190fd5b60006118b533613e40565b9050806001600160a01b0316635583376e8b6040518263ffffffff1660e01b815260040180828152602001915050600060405180830381600087803b1580156118fd57600080fd5b505af1158015611911573d6000803e3d6000fd5b50505050600060aa60009054906101000a90046001600160a01b03166001600160a01b0316631b95e3058e6040518263ffffffff1660e01b815260040180826001600160a01b0316815260200191505060206040518083038186803b15801561197957600080fd5b505afa15801561198d573d6000803e3d6000fd5b505050506040513d60208110156119a357600080fd5b81019080805190602001909291905050506001600160a01b031663159ab14d8560000151866060015187608001518860a0015160405160200180856001600160a01b03168152602001848152602001836001600160a01b0316815260200180602001828103825283818151815260200191508051906020019080838360005b83811015611a3a578181015183820152602001611a22565b50505050905090810190601f168015611a675780820380516001836020036101000a031916815260200191505b5095505050505050604051602081830303815290604052805190602001208d8b8a6040518563ffffffff1660e01b81526004018085815260200184815260200183815260200180602001828103825283818151815260200191508051906020019080838360005b83811015611ae6578181015183820152602001611ace565b50505050905090810190601f168015611b135780820380516001836020036101000a031916815260200191505b5095505050505050602060405180830381600087803b158015611b3557600080fd5b505af1158015611b49573d6000803e3d6000fd5b505050506040513d6020811015611b5f57600080fd5b81019080805190602001909291905050509050886001600160a01b031663fd8e915485600001518f848e8c6040518663ffffffff1660e01b815260040180866001600160a01b03168152602001856001600160a01b0316815260200184815260200183815260200180602001828103825283818151815260200191508051906020019080838360005b83811015611c00578181015183820152602001611be8565b50505050905090810190601f168015611c2d5780820380516001836020036101000a031916815260200191505b509650505050505050600060405180830381600087803b158015611c5057600080fd5b505af1158015611c64573d6000803e3d6000fd5b50505050611c718d614a7b565b6000611c9560a254611c8f611c875a8a9061472d565b60a454614b20565b906148a2565b6020808701516001600160a01b03908116600090815260059092526040808320548151638802bdad60e01b815232600482015260248101869052915194955090911692638802bdad9260448084019391929182900301818387803b158015611cfc57600080fd5b505af1158015611d10573d6000803e3d6000fd5b5050505050505050505050505050505050505050565b611d2e614b36565b611d3782614c30565b611d806040518060400160405280600e81526020016d2d32b937a1b7b73a3937b63632b960911b815250604051806040016040528060018152602001603160f81b815250614c8c565b8060aa60006101000a8154816001600160a01b0302191690836001600160a01b03160217905550611ef373fFd2EF3D44a2ea1B5E88780C1c85bcf6B2Aa4Bb5636d4ce63c6040518163ffffffff1660e01b815260040160006040518083038186803b158015611dee57600080fd5b505af4158015611e02573d6000803e3d6000fd5b505050506040513d6000823e601f3d908101601f191682016040526020811015611e2b57600080fd5b8101908080516040519392919084600160201b821115611e4a57600080fd5b908301906020820185811115611e5f57600080fd5b8251600160201b811182820188101715611e7857600080fd5b82525081516020918201929091019080838360005b83811015611ea5578181015183820152602001611e8d565b50505050905090810190601f168015611ed25780820380516001836020036101000a031916815260200191505b506060810160405260248082529093509150615c0290506020830139614d4c565b60a580546001600160a01b0319166001600160a01b0392909216919091179055505064174876e80060a2556203d09060a3556207a12060a455565b6000546001600160a01b03163314611f7b576040805162461bcd60e51b815260206004820152600b60248201526a21676f7665726e616e636560a81b604482015290519081900360640190fd5b6001600160a01b0391821660009081526007602090815260408083209390941682529190915220805460ff19169055565b6000546001600160a01b031681565b60a8602052600090815260409020546001600160a01b031681565b6000546001600160a01b03163314612023576040805162461bcd60e51b815260206004820152600b60248201526a21676f7665726e616e636560a81b604482015290519081900360640190fd5b600855565b6000546001600160a01b03163314612075576040805162461bcd60e51b815260206004820152600b60248201526a21676f7665726e616e636560a81b604482015290519081900360640190fd5b60a955565b61271081565b600060a88161208e33613e40565b6001600160a01b0390811682526020820192909252604001600020541614156120fe576040805162461bcd60e51b815260206004820152601d60248201527f6d7573742062652063616c6c656420627920756e646572777269746572000000604482015290519081900360640190fd5b6001600160a01b038316600090815260ac602052604090205460ff16612157576040805162461bcd60e51b815260206004820152600960248201526808585c1c1c9bdd995960ba1b604482015290519081900360640190fd5b60005a905060006040518060c001604052808a6001600160a01b03168152602001896001600160a01b03168152602001888152602001878152602001866001600160a01b0316815260200185815250905060006121b482336149bb565b82519091506001600160a01b03166121cc8286614dd1565b6001600160a01b03161461221b576040805162461bcd60e51b8152602060048201526011602482015270696e76616c6964207369676e617475726560781b604482015290519081900360640190fd5b60008082815260a66020526040902054600160a01b900460ff16600281111561224057fe5b14612292576040805162461bcd60e51b815260206004820152601760248201527f616c7265616479207370656e742074686973206c6f616e000000000000000000604482015290519081900360640190fd5b604080518082019091523381526020810160019052600082815260a660209081526040909120825181546001600160a01b0319166001600160a01b0390911617808255918301519091829060ff60a01b1916600160a01b8360028111156122f557fe5b0217905550905050600061233761232c670de0b6b3a76400006116996658d15e1762800087604001516148a290919063ffffffff16565b60408501519061472d565b905061234233613e40565b6001600160a01b03166346b9edf48460800151836040518363ffffffff1660e01b815260040180836001600160a01b0316815260200182815260200192505050600060405180830381600087803b15801561239c57600080fd5b505af11580156123b0573d6000803e3d6000fd5b5050505060006123d96123d060a45460a354614e5190919063ffffffff16565b60a254906148a2565b90506123e9818560200151614eab565b602080860180516001600160a01b0390811660009081526005909352604080842054908901519251949550929392169163a60bbc80918c916124379187916124319190615165565b9061472d565b6040518363ffffffff1660e01b815260040180836001600160a01b0316815260200182815260200192505050602060405180830381600087803b15801561247d57600080fd5b505af1158015612491573d6000803e3d6000fd5b505050506040513d60208110156124a757600080fd5b81019080805190602001909291905050509050886001600160a01b0316631639743b866000015187602001518489606001518a60a001516040518663ffffffff1660e01b815260040180866001600160a01b03168152602001856001600160a01b0316815260200184815260200183815260200180602001828103825283818151815260200191508051906020019080838360005b8381101561255457818101518382015260200161253c565b50505050905090810190601f1680156125815780820380516001836020036101000a031916815260200191505b509650505050505050600060405180830381600087803b1580156125a457600080fd5b505af11580156125b8573d6000803e3d6000fd5b5050505060006125d260a254611c8f611c875a8b9061472d565b6020808801516001600160a01b03908116600090815260059092526040808320548151638802bdad60e01b815232600482015260248101869052915194955090911692638802bdad9260448084019391929182900301818387803b15801561263957600080fd5b505af115801561264d573d6000803e3d6000fd5b505050505050505050505050505050505050565b600080836001600160a01b03166370a08231866040518263ffffffff1660e01b815260040180826001600160a01b0316815260200191505060206040518083038186803b1580156126b157600080fd5b505afa1580156126c5573d6000803e3d6000fd5b505050506040513d60208110156126db57600080fd5b505160408051631f1fcd5160e01b815290519192506000916001600160a01b03881691631f1fcd51916004808301926020929190829003018186803b15801561272357600080fd5b505afa158015612737573d6000803e3d6000fd5b505050506040513d602081101561274d57600080fd5b50516002546040805163085e2c5b60e01b81526001600160a01b0389811660048301528085166024830152604482018790526064820189905260006084830181905292519495509092169263085e2c5b9260a4808201939291829003018186803b1580156127ba57600080fd5b505afa1580156127ce573d6000803e3d6000fd5b505050506040513d6000823e601f3d908101601f1916820160409081528110156127f757600080fd5b815160208301805160405192949293830192919084600160201b82111561281d57600080fd5b90830190602082018581111561283257600080fd5b82518660208202830111600160201b8211171561284e57600080fd5b82525081516020918201928201910280838360005b8381101561287b578181015183820152602001612863565b50505050905001604052505050508093505050509392505050565b60008060a8816128a533613e40565b6001600160a01b039081168252602082019290925260400160002054161415612915576040805162461bcd60e51b815260206004820152601d60248201527f6d7573742062652063616c6c656420627920756e646572777269746572000000604482015290519081900360640190fd5b6001600160a01b038516600090815260ac602052604090205460ff1661296e576040805162461bcd60e51b815260206004820152600960248201526808585c1c1c9bdd995960ba1b604482015290519081900360640190fd5b612976615ada565b5a81608001818152505060006040518060a001604052808a6001600160a01b03168152602001878152602001868152602001886001600160a01b03168152602001896001600160a01b0316815250905060006129d133613e40565b90506129dd82336151aa565b604084018190526000906129f19087614dd1565b905082600001516001600160a01b0316816001600160a01b031614612a51576040805162461bcd60e51b8152602060048201526011602482015270696e76616c6964207369676e617475726560781b604482015290519081900360640190fd5b886001600160a01b03166337e55e208c8c8b8b6040518563ffffffff1660e01b815260040180856001600160a01b03168152602001846001600160a01b0316815260200183815260200180602001828103825283818151815260200191508051906020019080838360005b83811015612ad4578181015183820152602001612abc565b50505050905090810190601f168015612b015780820380516001836020036101000a031916815260200191505b5095505050505050600060405180830381600087803b158015612b2357600080fd5b505af1158015612b37573d6000803e3d6000fd5b50505060808401516001600160a01b039081166000908152600560209081526040808320548151630169151760e31b815291519395506006948694911692630b48a8b89260048082019391829003018186803b158015612b9657600080fd5b505afa158015612baa573d6000803e3d6000fd5b505050506040513d6020811015612bc057600080fd5b50516001600160a01b03908116825260208281019390935260409182016000908120608089015183168252600585528382205484516369d38e2760e11b815294519195929493169263d3a71c4e926004808301939192829003018186803b158015612c2a57600080fd5b505afa158015612c3e573d6000803e3d6000fd5b505050506040513d6020811015612c5457600080fd5b50516001600160a01b039081168252602082019290925260400160002054169050612c87611c875a60808801519061472d565b80865260a254612c9791906148a2565b60a086018190526080850151612cad9190614eab565b602086018190526080850151612cc39190615255565b9550612cce8b615299565b60808401516001600160a01b039081166000908152600560205260408082205460a08901518251638802bdad60e01b815232600482015260248101919091529151931692638802bdad9260448084019391929182900301818387803b158015612d3657600080fd5b505af1158015612d4a573d6000803e3d6000fd5b5050505083608001516001600160a01b03166370a08231306040518263ffffffff1660e01b815260040180826001600160a01b0316815260200191505060206040518083038186803b158015612d9f57600080fd5b505afa158015612db3573d6000803e3d6000fd5b505050506040513d6020811015612dc957600080fd5b505160c08601819052612ddb906152e5565b826001600160a01b0316635583376e876040518263ffffffff1660e01b815260040180828152602001915050600060405180830381600087803b158015612e2157600080fd5b505af1158015612e35573d6000803e3d6000fd5b50505050896001600160a01b031663d3469fad876040518263ffffffff1660e01b815260040180828152602001915050600060405180830381600087803b158015612e7f57600080fd5b505af1158015612e93573d6000803e3d6000fd5b50505050612f228560c0015185608001516001600160a01b03166370a08231306040518263ffffffff1660e01b815260040180826001600160a01b0316815260200191505060206040518083038186803b158015612ef057600080fd5b505afa158015612f04573d6000803e3d6000fd5b505050506040513d6020811015612f1a57600080fd5b50519061472d565b60e08601526080840151604080516370a0823160e01b81523060048201529051612fa6926001600160a01b0316916370a08231916024808301926020929190829003018186803b158015612f7557600080fd5b505afa158015612f89573d6000803e3d6000fd5b505050506040513d6020811015612f9f57600080fd5b50516152e5565b84602001518560e001511015613003576040805162461bcd60e51b815260206004820152601b60248201527f6e6f7420656e6f7567682070726f766964656420666f72206761730000000000604482015290519081900360640190fd5b6130108460800151614a7b565b50505050509695505050505050565b600061302a82615326565b92915050565b6001546001600160a01b031633148061305357506000546001600160a01b031633145b613092576040805162461bcd60e51b815260206004820152600b60248201526a085cdd1c985d1959da5cdd60aa1b604482015290519081900360640190fd5b6001600160a01b0382811660009081526004602052604090205416156130e7576040805162461bcd60e51b81526020600482015260056024820152641d985d5b1d60da1b604482015290519081900360640190fd5b6001600160a01b03918216600090815260046020526040902080546001600160a01b03191691909216179055565b61311d6153aa565b6001600160a01b031661312e61327b565b6001600160a01b031614613189576040805162461bcd60e51b815260206004820181905260248201527f4f776e61626c653a2063616c6c6572206973206e6f7420746865206f776e6572604482015290519081900360640190fd5b603c546040516000916001600160a01b0316907f8be0079c531659141344cd1fd0a4f28419497f9722a3daafe3b4186f6b6457e0908390a3603c80546001600160a01b0319169055565b60ab6020526000908152604090205481565b60a6602052600090815260409020546001600160a01b03811690600160a01b900460ff1682565b6000546001600160a01b03163314613259576040805162461bcd60e51b815260206004820152600b60248201526a21676f7665726e616e636560a81b604482015290519081900360640190fd5b600280546001600160a01b0319166001600160a01b0392909216919091179055565b603c546001600160a01b031690565b6003546001600160a01b031681565b600760209081526000928352604080842090915290825290205460ff1681565b6004602052600090815260409020546001600160a01b031681565b6001546001600160a01b03163314806132f757506000546001600160a01b031633145b613336576040805162461bcd60e51b815260206004820152600b60248201526a085cdd1c985d1959da5cdd60aa1b604482015290519081900360640190fd5b6001600160a01b0380841660009081526007602090815260408083209386168352929052205460ff1615156001146133a1576040805162461bcd60e51b815260206004820152600960248201526808585c1c1c9bdd995960ba1b604482015290519081900360640190fd5b6001600160a01b0380841660009081526005602052604090205416801515806133c75750815b1561342057806001600160a01b031663853828b66040518163ffffffff1660e01b8152600401600060405180830381600087803b15801561340757600080fd5b505af115801561341b573d6000803e3d6000fd5b505050505b50506001600160a01b03918216600090815260056020526040902080546001600160a01b03191691909216179055565b6000546001600160a01b0316331461349d576040805162461bcd60e51b815260206004820152600b60248201526a21676f7665726e616e636560a81b604482015290519081900360640190fd5b600080546001600160a01b0319166001600160a01b0392909216919091179055565b6001600160a01b038083166000908152600560209081526040808320548151631f1fcd5160e01b815291519416938492631f1fcd519260048082019391829003018186803b15801561351057600080fd5b505afa158015613524573d6000803e3d6000fd5b505050506040513d602081101561353a57600080fd5b505190506001600160a01b038082169085161461361e576001600160a01b038085166000818152600660209081526040808320868616845290915290205490911690613587908286614969565b806001600160a01b031663def2489b846040518263ffffffff1660e01b815260040180826001600160a01b03168152602001915050602060405180830381600087803b1580156135d657600080fd5b505af11580156135ea573d6000803e3d6000fd5b505050506040513d602081101561360057600080fd5b505193506136186001600160a01b0383168486614969565b50613632565b6136326001600160a01b0385168385614969565b816001600160a01b031663d0e30db06040518163ffffffff1660e01b8152600401600060405180830381600087803b15801561366d57600080fd5b505af1158015613681573d6000803e3d6000fd5b5050505050505050565b6000546001600160a01b031633146136d8576040805162461bcd60e51b815260206004820152600b60248201526a21676f7665726e616e636560a81b604482015290519081900360640190fd5b6001600160a01b0391821660009081526007602090815260408083209390941682529190915220805460ff19166001179055565b6001546001600160a01b031633148061372f57506000546001600160a01b031633145b61376e576040805162461bcd60e51b815260206004820152600b60248201526a21676f7665726e616e636560a81b604482015290519081900360640190fd5b6137826001600160a01b0383163383614969565b5050565b60ac6020526000908152604090205460ff1681565b6000546001600160a01b031633146137e8576040805162461bcd60e51b815260206004820152600b60248201526a21676f7665726e616e636560a81b604482015290519081900360640190fd5b600180546001600160a01b0319166001600160a01b0392909216919091179055565b6000858585858560405160200180866001600160a01b031660601b815260140185815260200184815260200183815260200182805190602001908083835b602083106138675780518252601f199092019160209182019101613848565b6001836020036101000a038019825116818451168082178552505050505050905001955050505050506040516020818303038152906040528051906020012060001c90505b428110156138da576040805160208082019390935281518082038401815290820190915280519101206138ac565b95945050505050565b6000546001600160a01b03163314613930576040805162461bcd60e51b815260206004820152600b60248201526a21676f7665726e616e636560a81b604482015290519081900360640190fd5b6001600160a01b03909116600090815260ab6020526040902055565b6001546001600160a01b031633148061396f57506000546001600160a01b031633145b6139ae576040805162461bcd60e51b815260206004820152600b60248201526a085cdd1c985d1959da5cdd60aa1b604482015290519081900360640190fd5b6001600160a01b03928316600090815260066020908152604080832094861683529390529190912080546001600160a01b03191691909216179055565b6000546001600160a01b03163314613a38576040805162461bcd60e51b815260206004820152600b60248201526a21676f7665726e616e636560a81b604482015290519081900360640190fd5b60a29390935560a39190915560a45560ad55565b60aa546001600160a01b031681565b60a95481565b6000546001600160a01b03163314613aae576040805162461bcd60e51b815260206004820152600b60248201526a21676f7665726e616e636560a81b604482015290519081900360640190fd5b6001600160a01b0391909116600090815260ac60205260409020805460ff1916911515919091179055565b60006040518060c001604052808b6001600160a01b031681526020018a6001600160a01b03168152602001898152602001878152602001866001600160a01b031681526020018481525090506000613b31828d6149bb565b905060008082815260a66020526040902054600160a01b900460ff166002811115613b5857fe5b14613ba0576040805162461bcd60e51b81526020600482015260136024820152726c6f616e20616c72656164792065786973747360681b604482015290519081900360640190fd5b60aa5460408051631b95e30560e01b81526001600160a01b038d8116600483015291516000939290921691631b95e30591602480820192602092909190829003018186803b158015613bf157600080fd5b505afa158015613c05573d6000803e3d6000fd5b505050506040513d6020811015613c1b57600080fd5b81019080805190602001909291905050506001600160a01b031663159ab14d8460000151856060015186608001518760a0015160405160200180856001600160a01b03168152602001848152602001836001600160a01b0316815260200180602001828103825283818151815260200191508051906020019080838360005b83811015613cb2578181015183820152602001613c9a565b50505050905090810190601f168015613cdf5780820380516001836020036101000a031916815260200191505b5095505050505050604051602081830303815290604052805190602001208b89886040518563ffffffff1660e01b81526004018085815260200184815260200183815260200180602001828103825283818151815260200191508051906020019080838360005b83811015613d5e578181015183820152602001613d46565b50505050905090810190601f168015613d8b5780820380516001836020036101000a031916815260200191505b5095505050505050602060405180830381600087803b158015613dad57600080fd5b505af1158015613dc1573d6000803e3d6000fd5b505050506040513d6020811015613dd757600080fd5b5051600083815260a66020526040902080546001600160a81b03191690559050613e0b6001600160a01b038c168d83614969565b50505050505050505050505050565b60066020908152600092835260408084209091529082529020546001600160a01b031681565b60a55460009061302a9030906001600160a01b0316846153ae565b6000546001600160a01b03163314613ea8576040805162461bcd60e51b815260206004820152600b60248201526a21676f7665726e616e636560a81b604482015290519081900360640190fd5b600380546001600160a01b0319166001600160a01b0392909216919091179055565b60a554600090613ee7906001600160a01b039081169085166153c4565b9050806001600160a01b031663c4d66de8836040518263ffffffff1660e01b815260040180826001600160a01b03168152602001915050600060405180830381600087803b158015613f3857600080fd5b505af1158015613f4c573d6000803e3d6000fd5b5050506001600160a01b03909116600090815260a86020526040902080546001600160a01b03191633179055505050565b600060a881613f8b33613e40565b6001600160a01b039081168252602082019290925260400160002054161415613ffb576040805162461bcd60e51b815260206004820152601d60248201527f6d7573742062652063616c6c656420627920756e646572777269746572000000604482015290519081900360640190fd5b82421061403b576040805162461bcd60e51b815260206004820152600960248201526821646561646c696e6560b81b604482015290519081900360640190fd5b6000806000614049846153e4565b9250925092506000886001600160a01b0316637ecebe008b6040518263ffffffff1660e01b815260040180826001600160a01b0316815260200191505060206040518083038186803b15801561409e57600080fd5b505afa1580156140b2573d6000803e3d6000fd5b505050506040513d60208110156140c857600080fd5b505190506001600160a01b038916638fcbaf0c8b30846140eb8e8e8e848f61380a565b604080516001600160e01b031960e088901b1681526001600160a01b039586166004820152939094166024840152604483019190915260648201526001608482015260ff881660a482015260c4810187905260e48101869052905161010480830192600092919082900301818387803b15801561416757600080fd5b505af115801561417b573d6000803e3d6000fd5b5050604080516323b872dd60e01b81526001600160a01b038e81166004830152306024830152604482018d90529151918d1697506323b872dd9650606480820196506020955091935083900301905081600087803b1580156141dc57600080fd5b505af11580156141f0573d6000803e3d6000fd5b505050506040513d602081101561420657600080fd5b505060ad5460a35460009161421e916123d091614e51565b6001600160a01b03808816600090815260056020526040808220548151638802bdad60e01b815232600482015260248101869052915194955090921692638802bdad92604480820193929182900301818387803b15801561427e57600080fd5b505af1158015614292573d6000803e3d6000fd5b5050505060006142a28288614eab565b905060006142b96142b3888461472d565b89615165565b60aa5460408051631b95e30560e01b81526001600160a01b038c8116600483015291519394506000939190921691631b95e305916024808301926020929190829003018186803b15801561430c57600080fd5b505afa158015614320573d6000803e3d6000fd5b505050506040513d602081101561433657600080fd5b50516040805163095ea7b360e01b81526001600160a01b038084166004830152602482018690529151929350908b169163095ea7b3916044808201926020929091908290030181600087803b15801561438e57600080fd5b505af11580156143a2573d6000803e3d6000fd5b505050506040513d60208110156143b857600080fd5b50516143f6576040805162461bcd60e51b815260206004820152600860248201526721617070726f766560c01b604482015290519081900360640190fd5b806001600160a01b03166338463cff87846040518363ffffffff1660e01b81526004018080602001838152602001828103825284818151815260200191508051906020019080838360005b83811015614459578181015183820152602001614441565b50505050905090810190601f1680156144865780820380516001836020036101000a031916815260200191505b509350505050602060405180830381600087803b1580156144a657600080fd5b505af11580156144ba573d6000803e3d6000fd5b505050506040513d60208110156144d057600080fd5b506116ce905089614a7b565b6144e46153aa565b6001600160a01b03166144f561327b565b6001600160a01b031614614550576040805162461bcd60e51b815260206004820181905260248201527f4f776e61626c653a2063616c6c6572206973206e6f7420746865206f776e6572604482015290519081900360640190fd5b6001600160a01b0381166145955760405162461bcd60e51b8152600401808060200182810382526026815260200180615b236026913960400191505060405180910390fd5b603c546040516001600160a01b038084169216907f8be0079c531659141344cd1fd0a4f28419497f9722a3daafe3b4186f6b6457e090600090a3603c80546001600160a01b0319166001600160a01b0392909216919091179055565b6001600160a01b03828116600090815260046020526040902054163314614648576040805162461bcd60e51b8152602060048201526006602482015265085d985d5b1d60d21b604482015290519081900360640190fd5b6137828282615441565b6002546001600160a01b031681565b60085481565b6001546001600160a01b031633148061468a57506000546001600160a01b031633145b6146c9576040805162461bcd60e51b815260206004820152600b60248201526a085cdd1c985d1959da5cdd60aa1b604482015290519081900360640190fd5b6001600160a01b0380821660009081526005602052604080822054815163429c145b60e11b8152915193169263853828b69260048084019391929182900301818387803b15801561471957600080fd5b505af11580156116d5573d6000803e3d6000fd5b600082821115614784576040805162461bcd60e51b815260206004820152601e60248201527f536166654d6174683a207375627472616374696f6e206f766572666c6f770000604482015290519081900360640190fd5b50900390565b801580614810575060408051636eb1769f60e11b81523060048201526001600160a01b03848116602483015291519185169163dd62ed3e91604480820192602092909190829003018186803b1580156147e257600080fd5b505afa1580156147f6573d6000803e3d6000fd5b505050506040513d602081101561480c57600080fd5b5051155b61484b5760405162461bcd60e51b8152600401808060200182810382526036815260200180615c506036913960400191505060405180910390fd5b604080516001600160a01b038416602482015260448082018490528251808303909101815260649091019091526020810180516001600160e01b031663095ea7b360e01b17905261489d908490615498565b505050565b6000826148b15750600061302a565b828202828482816148be57fe5b04146148fb5760405162461bcd60e51b8152600401808060200182810382526021815260200180615be16021913960400191505060405180910390fd5b9392505050565b6000808211614958576040805162461bcd60e51b815260206004820152601a60248201527f536166654d6174683a206469766973696f6e206279207a65726f000000000000604482015290519081900360640190fd5b81838161496157fe5b049392505050565b604080516001600160a01b038416602482015260448082018490528251808303909101815260649091019091526020810180516001600160e01b031663a9059cbb60e01b17905261489d908490615498565b600080614a737fdb76b3b6f252d5a7418b86aea25c87126f450d18491ccb7b8427fe0e9697a31c8560200151866040015186886080015189606001518a60a001518051906020012060405160200180888152602001876001600160a01b03168152602001868152602001856001600160a01b03168152602001846001600160a01b0316815260200183815260200182815260200197505050505050505060405160208183030381529060405280519060200120615549565b949350505050565b6000816001600160a01b03166370a08231306040518263ffffffff1660e01b815260040180826001600160a01b0316815260200191505060206040518083038186803b158015614aca57600080fd5b505afa158015614ade573d6000803e3d6000fd5b505050506040513d6020811015614af457600080fd5b50516001600160a01b038084166000818152600560205260409020549293506137829290911683614969565b6000818310614b2f57816148fb565b5090919050565b600954610100900460ff1680614b4f5750614b4f615595565b80614b5d575060095460ff16155b614b985760405162461bcd60e51b815260040180806020018281038252602e815260200180615b91602e913960400191505060405180910390fd5b600954610100900460ff16158015614bc3576009805460ff1961ff0019909116610100171660011790555b6000614bcd6153aa565b603c80546001600160a01b0319166001600160a01b038316908117909155604051919250906000907f8be0079c531659141344cd1fd0a4f28419497f9722a3daafe3b4186f6b6457e0908290a3508015614c2d576009805461ff00191690555b50565b60008054336001600160a01b03199182168117909255600180548216909217909155600280547350fda034c0ce7a8f7efdaebda7aa7ca21cc1267e908316179055600380549091166001600160a01b0392909216919091179055565b600954610100900460ff1680614ca55750614ca5615595565b80614cb3575060095460ff16155b614cee5760405162461bcd60e51b815260040180806020018281038252602e815260200180615b91602e913960400191505060405180910390fd5b600954610100900460ff16158015614d19576009805460ff1961ff0019909116610100171660011790555b8251602080850191909120835191840191909120606e91909155606f55801561489d576009805461ff0019169055505050565b600080826040516020018082805190602001908083835b60208310614d825780518252601f199092019160209182019101614d63565b6001836020036101000a038019825116818451168082178552505050505050905001915050604051602081830303815290604052805190602001209050808451856020016000f5949350505050565b60008151604114614e29576040805162461bcd60e51b815260206004820152601f60248201527f45434453413a20696e76616c6964207369676e6174757265206c656e67746800604482015290519081900360640190fd5b60208201516040830151606084015160001a614e47868285856155a6565b9695505050505050565b6000828201838110156148fb576040805162461bcd60e51b815260206004820152601b60248201527f536166654d6174683a206164646974696f6e206f766572666c6f770000000000604482015290519081900360640190fd5b6001600160a01b038082166000908152600560209081526040808320548151630169151760e31b815291519394859460069486949390921692630b48a8b8926004808301939192829003018186803b158015614f0657600080fd5b505afa158015614f1a573d6000803e3d6000fd5b505050506040513d6020811015614f3057600080fd5b50516001600160a01b039081168252602082810193909352604091820160009081208783168252600585528382205484516369d38e2760e11b815294519195929493169263d3a71c4e926004808301939192829003018186803b158015614f9657600080fd5b505afa158015614faa573d6000803e3d6000fd5b505050506040513d6020811015614fc057600080fd5b50516001600160a01b039081168252602082810193909352604091820160002054825163138f252760e31b8152600481018990529251911693508392639c7929389260248082019391829003018186803b15801561501d57600080fd5b505afa158015615031573d6000803e3d6000fd5b505050506040513d602081101561504757600080fd5b50516001600160a01b0380851660009081526005602090815260408083205481516369d38e2760e11b815291519597506006959394169263d3a71c4e92600480840193919291829003018186803b1580156150a157600080fd5b505afa1580156150b5573d6000803e3d6000fd5b505050506040513d60208110156150cb57600080fd5b50516001600160a01b039081168252602082810193909352604091820160009081208783168252845282902054825163138f252760e31b8152600481018790529251911692639c7929389260248082019391829003018186803b15801561513157600080fd5b505afa158015615145573d6000803e3d6000fd5b505050506040513d602081101561515b57600080fd5b5051949350505050565b6001600160a01b038116600090815260ab602052604081205460a9546148fb919061243190670de0b6b3a764000090611699906151a390839061472d565b88906148a2565b60006148fb7facca73c15b476818f48739adc92f84de507f609afc17aeef89e2bebadd929d188460800151848660600151876020015188604001518051906020012060405160200180878152602001866001600160a01b03168152602001856001600160a01b03168152602001846001600160a01b03168152602001838152602001828152602001965050505050505060405160208183030381529060405280519060200120615549565b6001600160a01b038116600090815260ab602052604081205460a9546148fb919061529390670de0b6b3a764000090611699906151a3908390614e51565b90614e51565b604080516001600160a01b0383166024808301919091528251808303909101815260449091019091526020810180516001600160e01b031663161765e160e11b179052614c2d9061571b565b6040805160248082018490528251808303909101815260449091019091526020810180516001600160e01b031663f5b1bba960e01b179052614c2d9061571b565b6001600160a01b03808216600090815260056020908152604080832054815163722713f760e01b815291519394169263722713f792600480840193919291829003018186803b15801561537857600080fd5b505afa15801561538c573d6000803e3d6000fd5b505050506040513d60208110156153a257600080fd5b505192915050565b3390565b6000614a7384846001600160a01b03851661573c565b6000806153d084615758565b9050826037826020016000f5949350505050565b600080600083516041141561540f5750505060208101516040820151606083015160001a919061543a565b83516040141561543a575050506020810151604082015160ff81901c601b0191906001600160ff1b03165b9193909250565b6001600160a01b03808316600090815260056020526040808220548151632e1a7d4d60e01b8152600481018690529151931692632e1a7d4d9260248084019391929182900301818387803b15801561178d57600080fd5b60006154ed826040518060400160405280602081526020017f5361666545524332303a206c6f772d6c6576656c2063616c6c206661696c6564815250856001600160a01b03166157b99092919063ffffffff16565b80519091501561489d5780806020019051602081101561550c57600080fd5b505161489d5760405162461bcd60e51b815260040180806020018281038252602a815260200180615c26602a913960400191505060405180910390fd5b60006155536157c8565b82604051602001808061190160f01b81525060020183815260200182815260200192505050604051602081830303815290604052805190602001209050919050565b60006155a030615808565b15905090565b60007f7fffffffffffffffffffffffffffffff5d576e7357a4501ddfe92f46681b20a08211156156075760405162461bcd60e51b8152600401808060200182810382526022815260200180615b496022913960400191505060405180910390fd5b8360ff16601b148061561c57508360ff16601c145b6156575760405162461bcd60e51b8152600401808060200182810382526022815260200180615bbf6022913960400191505060405180910390fd5b600060018686868660405160008152602001604052604051808581526020018460ff1681526020018381526020018281526020019450505050506020604051602081039080840390855afa1580156156b3573d6000803e3d6000fd5b5050604051601f1901519150506001600160a01b0381166138da576040805162461bcd60e51b815260206004820152601860248201527f45434453413a20696e76616c6964207369676e61747572650000000000000000604482015290519081900360640190fd5b80516a636f6e736f6c652e6c6f67602083016000808483855afa5050505050565b6000614a738261574b85615758565b805190602001208661580e565b60408051603780825260608281019093526020820181803683375050733d602d80600a3d3981f3363d3d373d3d3d363d7360601b60208301525060609290921b6034830152506e5af43d82803e903d91602b57fd5bf360881b604882015290565b6060614a738484600085615869565b60006158037f8b73c3c69bb8fe3d512ecc4cf759cc79239f7b179b0ffacaa9a75d522b39400f6157f66159c4565b6157fe6159ca565b6159d0565b905090565b3b151590565b604080516001600160f81b031960208083019190915260609390931b6bffffffffffffffffffffffff191660218201526035810194909452605580850193909352805180850390930183526075909301909252805191012090565b6060824710156158aa5760405162461bcd60e51b8152600401808060200182810382526026815260200180615b6b6026913960400191505060405180910390fd5b6158b385615808565b615904576040805162461bcd60e51b815260206004820152601d60248201527f416464726573733a2063616c6c20746f206e6f6e2d636f6e7472616374000000604482015290519081900360640190fd5b600080866001600160a01b031685876040518082805190602001908083835b602083106159425780518252601f199092019160209182019101615923565b6001836020036101000a03801982511681845116808217855250505050505090500191505060006040518083038185875af1925050503d80600081146159a4576040519150601f19603f3d011682016040523d82523d6000602084013e6159a9565b606091505b50915091506159b9828286615a32565b979650505050505050565b606e5490565b606f5490565b60008383836159dd615ad6565b3060405160200180868152602001858152602001848152602001838152602001826001600160a01b03168152602001955050505050506040516020818303038152906040528051906020012090509392505050565b60608315615a415750816148fb565b825115615a515782518084602001fd5b8160405162461bcd60e51b81526004018080602001828103825283818151815260200191508051906020019080838360005b83811015615a9b578181015183820152602001615a83565b50505050905090810190601f168015615ac85780820380516001836020036101000a031916815260200191505b509250505060405180910390fd5b4690565b6040518061010001604052806000815260200160008152602001600080191681526020016000815260200160008152602001600081526020016000815260200160008152509056fe4f776e61626c653a206e6577206f776e657220697320746865207a65726f206164647265737345434453413a20696e76616c6964207369676e6174757265202773272076616c7565416464726573733a20696e73756666696369656e742062616c616e636520666f722063616c6c496e697469616c697a61626c653a20636f6e747261637420697320616c726561647920696e697469616c697a656445434453413a20696e76616c6964207369676e6174757265202776272076616c7565536166654d6174683a206d756c7469706c69636174696f6e206f766572666c6f777a65726f2e756e6465727772697465722e6c6f636b2d696d706c656d656e746174696f6e5361666545524332303a204552433230206f7065726174696f6e20646964206e6f7420737563636565645361666545524332303a20617070726f76652066726f6d206e6f6e2d7a65726f20746f206e6f6e2d7a65726f20616c6c6f77616e6365a26469706673582212209245cdd5e7423d85f16e85ec10ff3aa2c8dec758afe754982847bc79bab09dd264736f6c63430007060033",
  "deployedBytecode": "0x608060405234801561001057600080fd5b50600436106102d65760003560e01c8063aa4fbf4a11610182578063ddca3f43116100e9578063ee1fe2ad116100a2578063f3fef3a31161007c578063f3fef3a314611063578063f712adbb1461108f578063f765417614611097578063fa09e6301461109f576102d6565b8063ee1fe2ad14610ec1578063f241877514610eef578063f2fde38b1461103d576102d6565b8063ddca3f4314610ca6578063e14f78c614610cae578063e4759b2f14610cdc578063e4f2494d14610e47578063e6b512d414610e75578063ec38a86214610e9b576102d6565b8063c7b9d5301161013b578063c7b9d53014610b20578063cb1d870d14610b46578063cc444f4414610c0b578063ccd0631814610c37578063ce032b3314610c6f578063d693452e14610c9e576102d6565b8063aa4fbf4a14610a16578063ab033ea914610a4e578063b02bf4b914610a74578063c494448e14610aa0578063c6d758cb14610ace578063c792b5aa14610afa576102d6565b80636c285cc611610241578063731de453116101fa5780638da5cb5b116101d45780638da5cb5b1461099e5780639ec5a894146109a6578063a1578b6a146109ae578063a622ee7c146109f0576102d6565b8063731de453146109045780638c509eae1461092a5780638da1df4d14610978576102d6565b80636c285cc6146105cb5780636dcd64e5146107215780636eac82791461075757806370a08231146108a8578063714ccf7b146108ce578063715018a6146108fc576102d6565b8063590bbb6011610293578063590bbb60146105245780635aa6e675146105525780636352211e1461055a578063674e694f1461057757806369fe0e2d146105945780636ac5db19146105b1576102d6565b806304209f48146102db578063197baa6d146103135780631fe4a6861461034157806339ebf823146103655780633b36c7f81461038b578063485cc955146104f6575b600080fd5b610311600480360360608110156102f157600080fd5b506001600160a01b038135811691602081013590911690604001356110c5565b005b6103116004803603604081101561032957600080fd5b506001600160a01b03813581169160200135166116dc565b6103496117a9565b604080516001600160a01b039092168252519081900360200190f35b6103496004803603602081101561037b57600080fd5b50356001600160a01b03166117b8565b61031160048036036101408110156103a257600080fd5b6001600160a01b0382358116926020810135821692604082013583169260608301359260808101359260a08201359260c0830135169160e0810135918101906101208101610100820135600160201b8111156103fd57600080fd5b82018360208201111561040f57600080fd5b803590602001918460018302840111600160201b8311171561043057600080fd5b91908080601f0160208091040260200160405190810160405280939291908181526020018383808284376000920191909152509295949360208101935035915050600160201b81111561048257600080fd5b82018360208201111561049457600080fd5b803590602001918460018302840111600160201b831117156104b557600080fd5b91908080601f0160208091040260200160405190810160405280939291908181526020018383808284376000920191909152509295506117d3945050505050565b6103116004803603604081101561050c57600080fd5b506001600160a01b0381358116916020013516611d26565b6103116004803603604081101561053a57600080fd5b506001600160a01b0381358116916020013516611f2e565b610349611fac565b6103496004803603602081101561057057600080fd5b5035611fbb565b6103116004803603602081101561058d57600080fd5b5035611fd6565b610311600480360360208110156105aa57600080fd5b5035612028565b6105b961207a565b60408051918252519081900360200190f35b610311600480360360e08110156105e157600080fd5b6001600160a01b038235811692602081013582169260408201359260608301359260808101359091169181019060c0810160a0820135600160201b81111561062857600080fd5b82018360208201111561063a57600080fd5b803590602001918460018302840111600160201b8311171561065b57600080fd5b91908080601f0160208091040260200160405190810160405280939291908181526020018383808284376000920191909152509295949360208101935035915050600160201b8111156106ad57600080fd5b8201836020820111156106bf57600080fd5b803590602001918460018302840111600160201b831117156106e057600080fd5b91908080601f016020809104026020016040519081016040528093929190818152602001838380828437600092019190915250929550612080945050505050565b6105b96004803603606081101561073757600080fd5b506001600160a01b03813581169160208101359091169060400135612661565b6105b9600480360360c081101561076d57600080fd5b6001600160a01b03823581169260208101358216926040820135909216916060820135919081019060a081016080820135600160201b8111156107af57600080fd5b8201836020820111156107c157600080fd5b803590602001918460018302840111600160201b831117156107e257600080fd5b91908080601f0160208091040260200160405190810160405280939291908181526020018383808284376000920191909152509295949360208101935035915050600160201b81111561083457600080fd5b82018360208201111561084657600080fd5b803590602001918460018302840111600160201b8311171561086757600080fd5b91908080601f016020809104026020016040519081016040528093929190818152602001838380828437600092019190915250929550612896945050505050565b6105b9600480360360208110156108be57600080fd5b50356001600160a01b031661301f565b610311600480360360408110156108e457600080fd5b506001600160a01b0381358116916020013516613030565b610311613115565b6105b96004803603602081101561091a57600080fd5b50356001600160a01b03166131d3565b6109476004803603602081101561094057600080fd5b50356131e5565b60405180836001600160a01b0316815260200182600281111561096657fe5b81526020019250505060405180910390f35b6103116004803603602081101561098e57600080fd5b50356001600160a01b031661320c565b61034961327b565b61034961328a565b6109dc600480360360408110156109c457600080fd5b506001600160a01b0381358116916020013516613299565b604080519115158252519081900360200190f35b61034960048036036020811015610a0657600080fd5b50356001600160a01b03166132b9565b61031160048036036060811015610a2c57600080fd5b506001600160a01b0381358116916020810135909116906040013515156132d4565b61031160048036036020811015610a6457600080fd5b50356001600160a01b0316613450565b61031160048036036040811015610a8a57600080fd5b506001600160a01b0381351690602001356134bf565b61031160048036036040811015610ab657600080fd5b506001600160a01b038135811691602001351661368b565b61031160048036036040811015610ae457600080fd5b506001600160a01b03813516906020013561370c565b6109dc60048036036020811015610b1057600080fd5b50356001600160a01b0316613786565b61031160048036036020811015610b3657600080fd5b50356001600160a01b031661379b565b6105b9600480360360a0811015610b5c57600080fd5b6001600160a01b038235169160208101359160408201359160608101359181019060a081016080820135600160201b811115610b9757600080fd5b820183602082011115610ba957600080fd5b803590602001918460018302840111600160201b83111715610bca57600080fd5b91908080601f01602080910402602001604051908101604052809392919081815260200183838082843760009201919091525092955061380a945050505050565b61031160048036036040811015610c2157600080fd5b506001600160a01b0381351690602001356138e3565b61031160048036036060811015610c4d57600080fd5b506001600160a01b03813581169160208101358216916040909101351661394c565b61031160048036036080811015610c8557600080fd5b50803590602081013590604081013590606001356139eb565b610349613a4c565b6105b9613a5b565b61031160048036036040811015610cc457600080fd5b506001600160a01b0381351690602001351515613a61565b6103116004803603610140811015610cf357600080fd5b6001600160a01b0382358116926020810135821692604082013583169260608301359260808101359260a08201359260c0830135169160e0810135918101906101208101610100820135600160201b811115610d4e57600080fd5b820183602082011115610d6057600080fd5b803590602001918460018302840111600160201b83111715610d8157600080fd5b91908080601f0160208091040260200160405190810160405280939291908181526020018383808284376000920191909152509295949360208101935035915050600160201b811115610dd357600080fd5b820183602082011115610de557600080fd5b803590602001918460018302840111600160201b83111715610e0657600080fd5b91908080601f016020809104026020016040519081016040528093929190818152602001838380828437600092019190915250929550613ad9945050505050565b61034960048036036040811015610e5d57600080fd5b506001600160a01b0381358116916020013516613e1a565b61034960048036036020811015610e8b57600080fd5b50356001600160a01b0316613e40565b61031160048036036020811015610eb157600080fd5b50356001600160a01b0316613e5b565b61031160048036036040811015610ed757600080fd5b506001600160a01b0381358116916020013516613eca565b610311600480360360c0811015610f0557600080fd5b6001600160a01b03823581169260208101359091169160408201359160608101359181019060a081016080820135600160201b811115610f4457600080fd5b820183602082011115610f5657600080fd5b803590602001918460018302840111600160201b83111715610f7757600080fd5b91908080601f0160208091040260200160405190810160405280939291908181526020018383808284376000920191909152509295949360208101935035915050600160201b811115610fc957600080fd5b820183602082011115610fdb57600080fd5b803590602001918460018302840111600160201b83111715610ffc57600080fd5b91908080601f016020809104026020016040519081016040528093929190818152602001838380828437600092019190915250929550613f7d945050505050565b6103116004803603602081101561105357600080fd5b50356001600160a01b03166144dc565b6103116004803603604081101561107957600080fd5b506001600160a01b0381351690602001356145f1565b610349614652565b6105b9614661565b610311600480360360208110156110b557600080fd5b50356001600160a01b0316614667565b6001546001600160a01b03163314806110e857506000546001600160a01b031633145b611127576040805162461bcd60e51b815260206004820152600b60248201526a21676f7665726e616e636560a81b604482015290519081900360640190fd5b6000826001600160a01b03166370a08231306040518263ffffffff1660e01b815260040180826001600160a01b0316815260200191505060206040518083038186803b15801561117657600080fd5b505afa15801561118a573d6000803e3d6000fd5b505050506040513d60208110156111a057600080fd5b5051604080516351cff8d960e01b81526001600160a01b0386811660048301529151929350908616916351cff8d99160248082019260009290919082900301818387803b1580156111f057600080fd5b505af1158015611204573d6000803e3d6000fd5b505050506000836001600160a01b03166370a08231306040518263ffffffff1660e01b815260040180826001600160a01b0316815260200191505060206040518083038186803b15801561125757600080fd5b505afa15801561126b573d6000803e3d6000fd5b505050506040513d602081101561128157600080fd5b50519050818111156116d5576000611299828461472d565b90506000866001600160a01b0316631f1fcd516040518163ffffffff1660e01b815260040160206040518083038186803b1580156112d657600080fd5b505afa1580156112ea573d6000803e3d6000fd5b505050506040513d602081101561130057600080fd5b5051604080516370a0823160e01b815230600482015290519192506060916000916001600160a01b038516916370a0823191602480820192602092909190829003018186803b15801561135257600080fd5b505afa158015611366573d6000803e3d6000fd5b505050506040513d602081101561137c57600080fd5b505160025490965061139c906001600160a01b038a81169116600061478a565b6002546113b6906001600160a01b038a811691168661478a565b6002546040805163085e2c5b60e01b81526001600160a01b038b81166004830152868116602483015260448201889052606482018b9052600060848301819052925193169263085e2c5b9260a480840193919291829003018186803b15801561141e57600080fd5b505afa158015611432573d6000803e3d6000fd5b505050506040513d6000823e601f3d908101601f19168201604090815281101561145b57600080fd5b815160208301805160405192949293830192919084600160201b82111561148157600080fd5b90830190602082018581111561149657600080fd5b82518660208202830111600160201b821117156114b257600080fd5b82525081516020918201928201910280838360005b838110156114df5781810151838201526020016114c7565b505050509050016040525050508093508192505050600260009054906101000a90046001600160a01b03166001600160a01b031663e2a7515e898587858760006040518763ffffffff1660e01b815260040180876001600160a01b03168152602001866001600160a01b0316815260200185815260200184815260200180602001838152602001828103825284818151815260200191508051906020019060200280838360005b8381101561159e578181015183820152602001611586565b50505050905001975050505050505050602060405180830381600087803b1580156115c857600080fd5b505af11580156115dc573d6000803e3d6000fd5b505050506040513d60208110156115f257600080fd5b5050604080516370a0823160e01b815230600482015290516001600160a01b038516916370a08231916024808301926020929190829003018186803b15801561163a57600080fd5b505afa15801561164e573d6000803e3d6000fd5b505050506040513d602081101561166457600080fd5b50519450858511156116d05761167a858761472d565b9350600061169f612710611699600854886148a290919063ffffffff16565b90614902565b90506116b4846116af878461472d565b6134bf565b6003546116ce906001600160a01b03868116911683614969565b505b505050505b5050505050565b6001546001600160a01b03163314806116ff57506000546001600160a01b031633145b61173e576040805162461bcd60e51b815260206004820152600b60248201526a21676f7665726e616e636560a81b604482015290519081900360640190fd5b816001600160a01b03166351cff8d9826040518263ffffffff1660e01b815260040180826001600160a01b03168152602001915050600060405180830381600087803b15801561178d57600080fd5b505af11580156117a1573d6000803e3d6000fd5b505050505050565b6001546001600160a01b031681565b6005602052600090815260409020546001600160a01b031681565b60005a905060006040518060c001604052808c6001600160a01b031681526020018b6001600160a01b031681526020018a8152602001888152602001876001600160a01b031681526020018581525090506000611830828e6149bb565b90506001600082815260a66020526040902054600160a01b900460ff16600281111561185857fe5b146118aa576040805162461bcd60e51b815260206004820152601f60248201527f6c6f616e206973206e6f7420696e2074686520554e5041494420737461746500604482015290519081900360640190fd5b60006118b533613e40565b9050806001600160a01b0316635583376e8b6040518263ffffffff1660e01b815260040180828152602001915050600060405180830381600087803b1580156118fd57600080fd5b505af1158015611911573d6000803e3d6000fd5b50505050600060aa60009054906101000a90046001600160a01b03166001600160a01b0316631b95e3058e6040518263ffffffff1660e01b815260040180826001600160a01b0316815260200191505060206040518083038186803b15801561197957600080fd5b505afa15801561198d573d6000803e3d6000fd5b505050506040513d60208110156119a357600080fd5b81019080805190602001909291905050506001600160a01b031663159ab14d8560000151866060015187608001518860a0015160405160200180856001600160a01b03168152602001848152602001836001600160a01b0316815260200180602001828103825283818151815260200191508051906020019080838360005b83811015611a3a578181015183820152602001611a22565b50505050905090810190601f168015611a675780820380516001836020036101000a031916815260200191505b5095505050505050604051602081830303815290604052805190602001208d8b8a6040518563ffffffff1660e01b81526004018085815260200184815260200183815260200180602001828103825283818151815260200191508051906020019080838360005b83811015611ae6578181015183820152602001611ace565b50505050905090810190601f168015611b135780820380516001836020036101000a031916815260200191505b5095505050505050602060405180830381600087803b158015611b3557600080fd5b505af1158015611b49573d6000803e3d6000fd5b505050506040513d6020811015611b5f57600080fd5b81019080805190602001909291905050509050886001600160a01b031663fd8e915485600001518f848e8c6040518663ffffffff1660e01b815260040180866001600160a01b03168152602001856001600160a01b0316815260200184815260200183815260200180602001828103825283818151815260200191508051906020019080838360005b83811015611c00578181015183820152602001611be8565b50505050905090810190601f168015611c2d5780820380516001836020036101000a031916815260200191505b509650505050505050600060405180830381600087803b158015611c5057600080fd5b505af1158015611c64573d6000803e3d6000fd5b50505050611c718d614a7b565b6000611c9560a254611c8f611c875a8a9061472d565b60a454614b20565b906148a2565b6020808701516001600160a01b03908116600090815260059092526040808320548151638802bdad60e01b815232600482015260248101869052915194955090911692638802bdad9260448084019391929182900301818387803b158015611cfc57600080fd5b505af1158015611d10573d6000803e3d6000fd5b5050505050505050505050505050505050505050565b611d2e614b36565b611d3782614c30565b611d806040518060400160405280600e81526020016d2d32b937a1b7b73a3937b63632b960911b815250604051806040016040528060018152602001603160f81b815250614c8c565b8060aa60006101000a8154816001600160a01b0302191690836001600160a01b03160217905550611ef373__$ec2a3eaceaa7013178bbf2660e1d8c4363$__636d4ce63c6040518163ffffffff1660e01b815260040160006040518083038186803b158015611dee57600080fd5b505af4158015611e02573d6000803e3d6000fd5b505050506040513d6000823e601f3d908101601f191682016040526020811015611e2b57600080fd5b8101908080516040519392919084600160201b821115611e4a57600080fd5b908301906020820185811115611e5f57600080fd5b8251600160201b811182820188101715611e7857600080fd5b82525081516020918201929091019080838360005b83811015611ea5578181015183820152602001611e8d565b50505050905090810190601f168015611ed25780820380516001836020036101000a031916815260200191505b506060810160405260248082529093509150615c0290506020830139614d4c565b60a580546001600160a01b0319166001600160a01b0392909216919091179055505064174876e80060a2556203d09060a3556207a12060a455565b6000546001600160a01b03163314611f7b576040805162461bcd60e51b815260206004820152600b60248201526a21676f7665726e616e636560a81b604482015290519081900360640190fd5b6001600160a01b0391821660009081526007602090815260408083209390941682529190915220805460ff19169055565b6000546001600160a01b031681565b60a8602052600090815260409020546001600160a01b031681565b6000546001600160a01b03163314612023576040805162461bcd60e51b815260206004820152600b60248201526a21676f7665726e616e636560a81b604482015290519081900360640190fd5b600855565b6000546001600160a01b03163314612075576040805162461bcd60e51b815260206004820152600b60248201526a21676f7665726e616e636560a81b604482015290519081900360640190fd5b60a955565b61271081565b600060a88161208e33613e40565b6001600160a01b0390811682526020820192909252604001600020541614156120fe576040805162461bcd60e51b815260206004820152601d60248201527f6d7573742062652063616c6c656420627920756e646572777269746572000000604482015290519081900360640190fd5b6001600160a01b038316600090815260ac602052604090205460ff16612157576040805162461bcd60e51b815260206004820152600960248201526808585c1c1c9bdd995960ba1b604482015290519081900360640190fd5b60005a905060006040518060c001604052808a6001600160a01b03168152602001896001600160a01b03168152602001888152602001878152602001866001600160a01b0316815260200185815250905060006121b482336149bb565b82519091506001600160a01b03166121cc8286614dd1565b6001600160a01b03161461221b576040805162461bcd60e51b8152602060048201526011602482015270696e76616c6964207369676e617475726560781b604482015290519081900360640190fd5b60008082815260a66020526040902054600160a01b900460ff16600281111561224057fe5b14612292576040805162461bcd60e51b815260206004820152601760248201527f616c7265616479207370656e742074686973206c6f616e000000000000000000604482015290519081900360640190fd5b604080518082019091523381526020810160019052600082815260a660209081526040909120825181546001600160a01b0319166001600160a01b0390911617808255918301519091829060ff60a01b1916600160a01b8360028111156122f557fe5b0217905550905050600061233761232c670de0b6b3a76400006116996658d15e1762800087604001516148a290919063ffffffff16565b60408501519061472d565b905061234233613e40565b6001600160a01b03166346b9edf48460800151836040518363ffffffff1660e01b815260040180836001600160a01b0316815260200182815260200192505050600060405180830381600087803b15801561239c57600080fd5b505af11580156123b0573d6000803e3d6000fd5b5050505060006123d96123d060a45460a354614e5190919063ffffffff16565b60a254906148a2565b90506123e9818560200151614eab565b602080860180516001600160a01b0390811660009081526005909352604080842054908901519251949550929392169163a60bbc80918c916124379187916124319190615165565b9061472d565b6040518363ffffffff1660e01b815260040180836001600160a01b0316815260200182815260200192505050602060405180830381600087803b15801561247d57600080fd5b505af1158015612491573d6000803e3d6000fd5b505050506040513d60208110156124a757600080fd5b81019080805190602001909291905050509050886001600160a01b0316631639743b866000015187602001518489606001518a60a001516040518663ffffffff1660e01b815260040180866001600160a01b03168152602001856001600160a01b0316815260200184815260200183815260200180602001828103825283818151815260200191508051906020019080838360005b8381101561255457818101518382015260200161253c565b50505050905090810190601f1680156125815780820380516001836020036101000a031916815260200191505b509650505050505050600060405180830381600087803b1580156125a457600080fd5b505af11580156125b8573d6000803e3d6000fd5b5050505060006125d260a254611c8f611c875a8b9061472d565b6020808801516001600160a01b03908116600090815260059092526040808320548151638802bdad60e01b815232600482015260248101869052915194955090911692638802bdad9260448084019391929182900301818387803b15801561263957600080fd5b505af115801561264d573d6000803e3d6000fd5b505050505050505050505050505050505050565b600080836001600160a01b03166370a08231866040518263ffffffff1660e01b815260040180826001600160a01b0316815260200191505060206040518083038186803b1580156126b157600080fd5b505afa1580156126c5573d6000803e3d6000fd5b505050506040513d60208110156126db57600080fd5b505160408051631f1fcd5160e01b815290519192506000916001600160a01b03881691631f1fcd51916004808301926020929190829003018186803b15801561272357600080fd5b505afa158015612737573d6000803e3d6000fd5b505050506040513d602081101561274d57600080fd5b50516002546040805163085e2c5b60e01b81526001600160a01b0389811660048301528085166024830152604482018790526064820189905260006084830181905292519495509092169263085e2c5b9260a4808201939291829003018186803b1580156127ba57600080fd5b505afa1580156127ce573d6000803e3d6000fd5b505050506040513d6000823e601f3d908101601f1916820160409081528110156127f757600080fd5b815160208301805160405192949293830192919084600160201b82111561281d57600080fd5b90830190602082018581111561283257600080fd5b82518660208202830111600160201b8211171561284e57600080fd5b82525081516020918201928201910280838360005b8381101561287b578181015183820152602001612863565b50505050905001604052505050508093505050509392505050565b60008060a8816128a533613e40565b6001600160a01b039081168252602082019290925260400160002054161415612915576040805162461bcd60e51b815260206004820152601d60248201527f6d7573742062652063616c6c656420627920756e646572777269746572000000604482015290519081900360640190fd5b6001600160a01b038516600090815260ac602052604090205460ff1661296e576040805162461bcd60e51b815260206004820152600960248201526808585c1c1c9bdd995960ba1b604482015290519081900360640190fd5b612976615ada565b5a81608001818152505060006040518060a001604052808a6001600160a01b03168152602001878152602001868152602001886001600160a01b03168152602001896001600160a01b0316815250905060006129d133613e40565b90506129dd82336151aa565b604084018190526000906129f19087614dd1565b905082600001516001600160a01b0316816001600160a01b031614612a51576040805162461bcd60e51b8152602060048201526011602482015270696e76616c6964207369676e617475726560781b604482015290519081900360640190fd5b886001600160a01b03166337e55e208c8c8b8b6040518563ffffffff1660e01b815260040180856001600160a01b03168152602001846001600160a01b0316815260200183815260200180602001828103825283818151815260200191508051906020019080838360005b83811015612ad4578181015183820152602001612abc565b50505050905090810190601f168015612b015780820380516001836020036101000a031916815260200191505b5095505050505050600060405180830381600087803b158015612b2357600080fd5b505af1158015612b37573d6000803e3d6000fd5b50505060808401516001600160a01b039081166000908152600560209081526040808320548151630169151760e31b815291519395506006948694911692630b48a8b89260048082019391829003018186803b158015612b9657600080fd5b505afa158015612baa573d6000803e3d6000fd5b505050506040513d6020811015612bc057600080fd5b50516001600160a01b03908116825260208281019390935260409182016000908120608089015183168252600585528382205484516369d38e2760e11b815294519195929493169263d3a71c4e926004808301939192829003018186803b158015612c2a57600080fd5b505afa158015612c3e573d6000803e3d6000fd5b505050506040513d6020811015612c5457600080fd5b50516001600160a01b039081168252602082019290925260400160002054169050612c87611c875a60808801519061472d565b80865260a254612c9791906148a2565b60a086018190526080850151612cad9190614eab565b602086018190526080850151612cc39190615255565b9550612cce8b615299565b60808401516001600160a01b039081166000908152600560205260408082205460a08901518251638802bdad60e01b815232600482015260248101919091529151931692638802bdad9260448084019391929182900301818387803b158015612d3657600080fd5b505af1158015612d4a573d6000803e3d6000fd5b5050505083608001516001600160a01b03166370a08231306040518263ffffffff1660e01b815260040180826001600160a01b0316815260200191505060206040518083038186803b158015612d9f57600080fd5b505afa158015612db3573d6000803e3d6000fd5b505050506040513d6020811015612dc957600080fd5b505160c08601819052612ddb906152e5565b826001600160a01b0316635583376e876040518263ffffffff1660e01b815260040180828152602001915050600060405180830381600087803b158015612e2157600080fd5b505af1158015612e35573d6000803e3d6000fd5b50505050896001600160a01b031663d3469fad876040518263ffffffff1660e01b815260040180828152602001915050600060405180830381600087803b158015612e7f57600080fd5b505af1158015612e93573d6000803e3d6000fd5b50505050612f228560c0015185608001516001600160a01b03166370a08231306040518263ffffffff1660e01b815260040180826001600160a01b0316815260200191505060206040518083038186803b158015612ef057600080fd5b505afa158015612f04573d6000803e3d6000fd5b505050506040513d6020811015612f1a57600080fd5b50519061472d565b60e08601526080840151604080516370a0823160e01b81523060048201529051612fa6926001600160a01b0316916370a08231916024808301926020929190829003018186803b158015612f7557600080fd5b505afa158015612f89573d6000803e3d6000fd5b505050506040513d6020811015612f9f57600080fd5b50516152e5565b84602001518560e001511015613003576040805162461bcd60e51b815260206004820152601b60248201527f6e6f7420656e6f7567682070726f766964656420666f72206761730000000000604482015290519081900360640190fd5b6130108460800151614a7b565b50505050509695505050505050565b600061302a82615326565b92915050565b6001546001600160a01b031633148061305357506000546001600160a01b031633145b613092576040805162461bcd60e51b815260206004820152600b60248201526a085cdd1c985d1959da5cdd60aa1b604482015290519081900360640190fd5b6001600160a01b0382811660009081526004602052604090205416156130e7576040805162461bcd60e51b81526020600482015260056024820152641d985d5b1d60da1b604482015290519081900360640190fd5b6001600160a01b03918216600090815260046020526040902080546001600160a01b03191691909216179055565b61311d6153aa565b6001600160a01b031661312e61327b565b6001600160a01b031614613189576040805162461bcd60e51b815260206004820181905260248201527f4f776e61626c653a2063616c6c6572206973206e6f7420746865206f776e6572604482015290519081900360640190fd5b603c546040516000916001600160a01b0316907f8be0079c531659141344cd1fd0a4f28419497f9722a3daafe3b4186f6b6457e0908390a3603c80546001600160a01b0319169055565b60ab6020526000908152604090205481565b60a6602052600090815260409020546001600160a01b03811690600160a01b900460ff1682565b6000546001600160a01b03163314613259576040805162461bcd60e51b815260206004820152600b60248201526a21676f7665726e616e636560a81b604482015290519081900360640190fd5b600280546001600160a01b0319166001600160a01b0392909216919091179055565b603c546001600160a01b031690565b6003546001600160a01b031681565b600760209081526000928352604080842090915290825290205460ff1681565b6004602052600090815260409020546001600160a01b031681565b6001546001600160a01b03163314806132f757506000546001600160a01b031633145b613336576040805162461bcd60e51b815260206004820152600b60248201526a085cdd1c985d1959da5cdd60aa1b604482015290519081900360640190fd5b6001600160a01b0380841660009081526007602090815260408083209386168352929052205460ff1615156001146133a1576040805162461bcd60e51b815260206004820152600960248201526808585c1c1c9bdd995960ba1b604482015290519081900360640190fd5b6001600160a01b0380841660009081526005602052604090205416801515806133c75750815b1561342057806001600160a01b031663853828b66040518163ffffffff1660e01b8152600401600060405180830381600087803b15801561340757600080fd5b505af115801561341b573d6000803e3d6000fd5b505050505b50506001600160a01b03918216600090815260056020526040902080546001600160a01b03191691909216179055565b6000546001600160a01b0316331461349d576040805162461bcd60e51b815260206004820152600b60248201526a21676f7665726e616e636560a81b604482015290519081900360640190fd5b600080546001600160a01b0319166001600160a01b0392909216919091179055565b6001600160a01b038083166000908152600560209081526040808320548151631f1fcd5160e01b815291519416938492631f1fcd519260048082019391829003018186803b15801561351057600080fd5b505afa158015613524573d6000803e3d6000fd5b505050506040513d602081101561353a57600080fd5b505190506001600160a01b038082169085161461361e576001600160a01b038085166000818152600660209081526040808320868616845290915290205490911690613587908286614969565b806001600160a01b031663def2489b846040518263ffffffff1660e01b815260040180826001600160a01b03168152602001915050602060405180830381600087803b1580156135d657600080fd5b505af11580156135ea573d6000803e3d6000fd5b505050506040513d602081101561360057600080fd5b505193506136186001600160a01b0383168486614969565b50613632565b6136326001600160a01b0385168385614969565b816001600160a01b031663d0e30db06040518163ffffffff1660e01b8152600401600060405180830381600087803b15801561366d57600080fd5b505af1158015613681573d6000803e3d6000fd5b5050505050505050565b6000546001600160a01b031633146136d8576040805162461bcd60e51b815260206004820152600b60248201526a21676f7665726e616e636560a81b604482015290519081900360640190fd5b6001600160a01b0391821660009081526007602090815260408083209390941682529190915220805460ff19166001179055565b6001546001600160a01b031633148061372f57506000546001600160a01b031633145b61376e576040805162461bcd60e51b815260206004820152600b60248201526a21676f7665726e616e636560a81b604482015290519081900360640190fd5b6137826001600160a01b0383163383614969565b5050565b60ac6020526000908152604090205460ff1681565b6000546001600160a01b031633146137e8576040805162461bcd60e51b815260206004820152600b60248201526a21676f7665726e616e636560a81b604482015290519081900360640190fd5b600180546001600160a01b0319166001600160a01b0392909216919091179055565b6000858585858560405160200180866001600160a01b031660601b815260140185815260200184815260200183815260200182805190602001908083835b602083106138675780518252601f199092019160209182019101613848565b6001836020036101000a038019825116818451168082178552505050505050905001955050505050506040516020818303038152906040528051906020012060001c90505b428110156138da576040805160208082019390935281518082038401815290820190915280519101206138ac565b95945050505050565b6000546001600160a01b03163314613930576040805162461bcd60e51b815260206004820152600b60248201526a21676f7665726e616e636560a81b604482015290519081900360640190fd5b6001600160a01b03909116600090815260ab6020526040902055565b6001546001600160a01b031633148061396f57506000546001600160a01b031633145b6139ae576040805162461bcd60e51b815260206004820152600b60248201526a085cdd1c985d1959da5cdd60aa1b604482015290519081900360640190fd5b6001600160a01b03928316600090815260066020908152604080832094861683529390529190912080546001600160a01b03191691909216179055565b6000546001600160a01b03163314613a38576040805162461bcd60e51b815260206004820152600b60248201526a21676f7665726e616e636560a81b604482015290519081900360640190fd5b60a29390935560a39190915560a45560ad55565b60aa546001600160a01b031681565b60a95481565b6000546001600160a01b03163314613aae576040805162461bcd60e51b815260206004820152600b60248201526a21676f7665726e616e636560a81b604482015290519081900360640190fd5b6001600160a01b0391909116600090815260ac60205260409020805460ff1916911515919091179055565b60006040518060c001604052808b6001600160a01b031681526020018a6001600160a01b03168152602001898152602001878152602001866001600160a01b031681526020018481525090506000613b31828d6149bb565b905060008082815260a66020526040902054600160a01b900460ff166002811115613b5857fe5b14613ba0576040805162461bcd60e51b81526020600482015260136024820152726c6f616e20616c72656164792065786973747360681b604482015290519081900360640190fd5b60aa5460408051631b95e30560e01b81526001600160a01b038d8116600483015291516000939290921691631b95e30591602480820192602092909190829003018186803b158015613bf157600080fd5b505afa158015613c05573d6000803e3d6000fd5b505050506040513d6020811015613c1b57600080fd5b81019080805190602001909291905050506001600160a01b031663159ab14d8460000151856060015186608001518760a0015160405160200180856001600160a01b03168152602001848152602001836001600160a01b0316815260200180602001828103825283818151815260200191508051906020019080838360005b83811015613cb2578181015183820152602001613c9a565b50505050905090810190601f168015613cdf5780820380516001836020036101000a031916815260200191505b5095505050505050604051602081830303815290604052805190602001208b89886040518563ffffffff1660e01b81526004018085815260200184815260200183815260200180602001828103825283818151815260200191508051906020019080838360005b83811015613d5e578181015183820152602001613d46565b50505050905090810190601f168015613d8b5780820380516001836020036101000a031916815260200191505b5095505050505050602060405180830381600087803b158015613dad57600080fd5b505af1158015613dc1573d6000803e3d6000fd5b505050506040513d6020811015613dd757600080fd5b5051600083815260a66020526040902080546001600160a81b03191690559050613e0b6001600160a01b038c168d83614969565b50505050505050505050505050565b60066020908152600092835260408084209091529082529020546001600160a01b031681565b60a55460009061302a9030906001600160a01b0316846153ae565b6000546001600160a01b03163314613ea8576040805162461bcd60e51b815260206004820152600b60248201526a21676f7665726e616e636560a81b604482015290519081900360640190fd5b600380546001600160a01b0319166001600160a01b0392909216919091179055565b60a554600090613ee7906001600160a01b039081169085166153c4565b9050806001600160a01b031663c4d66de8836040518263ffffffff1660e01b815260040180826001600160a01b03168152602001915050600060405180830381600087803b158015613f3857600080fd5b505af1158015613f4c573d6000803e3d6000fd5b5050506001600160a01b03909116600090815260a86020526040902080546001600160a01b03191633179055505050565b600060a881613f8b33613e40565b6001600160a01b039081168252602082019290925260400160002054161415613ffb576040805162461bcd60e51b815260206004820152601d60248201527f6d7573742062652063616c6c656420627920756e646572777269746572000000604482015290519081900360640190fd5b82421061403b576040805162461bcd60e51b815260206004820152600960248201526821646561646c696e6560b81b604482015290519081900360640190fd5b6000806000614049846153e4565b9250925092506000886001600160a01b0316637ecebe008b6040518263ffffffff1660e01b815260040180826001600160a01b0316815260200191505060206040518083038186803b15801561409e57600080fd5b505afa1580156140b2573d6000803e3d6000fd5b505050506040513d60208110156140c857600080fd5b505190506001600160a01b038916638fcbaf0c8b30846140eb8e8e8e848f61380a565b604080516001600160e01b031960e088901b1681526001600160a01b039586166004820152939094166024840152604483019190915260648201526001608482015260ff881660a482015260c4810187905260e48101869052905161010480830192600092919082900301818387803b15801561416757600080fd5b505af115801561417b573d6000803e3d6000fd5b5050604080516323b872dd60e01b81526001600160a01b038e81166004830152306024830152604482018d90529151918d1697506323b872dd9650606480820196506020955091935083900301905081600087803b1580156141dc57600080fd5b505af11580156141f0573d6000803e3d6000fd5b505050506040513d602081101561420657600080fd5b505060ad5460a35460009161421e916123d091614e51565b6001600160a01b03808816600090815260056020526040808220548151638802bdad60e01b815232600482015260248101869052915194955090921692638802bdad92604480820193929182900301818387803b15801561427e57600080fd5b505af1158015614292573d6000803e3d6000fd5b5050505060006142a28288614eab565b905060006142b96142b3888461472d565b89615165565b60aa5460408051631b95e30560e01b81526001600160a01b038c8116600483015291519394506000939190921691631b95e305916024808301926020929190829003018186803b15801561430c57600080fd5b505afa158015614320573d6000803e3d6000fd5b505050506040513d602081101561433657600080fd5b50516040805163095ea7b360e01b81526001600160a01b038084166004830152602482018690529151929350908b169163095ea7b3916044808201926020929091908290030181600087803b15801561438e57600080fd5b505af11580156143a2573d6000803e3d6000fd5b505050506040513d60208110156143b857600080fd5b50516143f6576040805162461bcd60e51b815260206004820152600860248201526721617070726f766560c01b604482015290519081900360640190fd5b806001600160a01b03166338463cff87846040518363ffffffff1660e01b81526004018080602001838152602001828103825284818151815260200191508051906020019080838360005b83811015614459578181015183820152602001614441565b50505050905090810190601f1680156144865780820380516001836020036101000a031916815260200191505b509350505050602060405180830381600087803b1580156144a657600080fd5b505af11580156144ba573d6000803e3d6000fd5b505050506040513d60208110156144d057600080fd5b506116ce905089614a7b565b6144e46153aa565b6001600160a01b03166144f561327b565b6001600160a01b031614614550576040805162461bcd60e51b815260206004820181905260248201527f4f776e61626c653a2063616c6c6572206973206e6f7420746865206f776e6572604482015290519081900360640190fd5b6001600160a01b0381166145955760405162461bcd60e51b8152600401808060200182810382526026815260200180615b236026913960400191505060405180910390fd5b603c546040516001600160a01b038084169216907f8be0079c531659141344cd1fd0a4f28419497f9722a3daafe3b4186f6b6457e090600090a3603c80546001600160a01b0319166001600160a01b0392909216919091179055565b6001600160a01b03828116600090815260046020526040902054163314614648576040805162461bcd60e51b8152602060048201526006602482015265085d985d5b1d60d21b604482015290519081900360640190fd5b6137828282615441565b6002546001600160a01b031681565b60085481565b6001546001600160a01b031633148061468a57506000546001600160a01b031633145b6146c9576040805162461bcd60e51b815260206004820152600b60248201526a085cdd1c985d1959da5cdd60aa1b604482015290519081900360640190fd5b6001600160a01b0380821660009081526005602052604080822054815163429c145b60e11b8152915193169263853828b69260048084019391929182900301818387803b15801561471957600080fd5b505af11580156116d5573d6000803e3d6000fd5b600082821115614784576040805162461bcd60e51b815260206004820152601e60248201527f536166654d6174683a207375627472616374696f6e206f766572666c6f770000604482015290519081900360640190fd5b50900390565b801580614810575060408051636eb1769f60e11b81523060048201526001600160a01b03848116602483015291519185169163dd62ed3e91604480820192602092909190829003018186803b1580156147e257600080fd5b505afa1580156147f6573d6000803e3d6000fd5b505050506040513d602081101561480c57600080fd5b5051155b61484b5760405162461bcd60e51b8152600401808060200182810382526036815260200180615c506036913960400191505060405180910390fd5b604080516001600160a01b038416602482015260448082018490528251808303909101815260649091019091526020810180516001600160e01b031663095ea7b360e01b17905261489d908490615498565b505050565b6000826148b15750600061302a565b828202828482816148be57fe5b04146148fb5760405162461bcd60e51b8152600401808060200182810382526021815260200180615be16021913960400191505060405180910390fd5b9392505050565b6000808211614958576040805162461bcd60e51b815260206004820152601a60248201527f536166654d6174683a206469766973696f6e206279207a65726f000000000000604482015290519081900360640190fd5b81838161496157fe5b049392505050565b604080516001600160a01b038416602482015260448082018490528251808303909101815260649091019091526020810180516001600160e01b031663a9059cbb60e01b17905261489d908490615498565b600080614a737fdb76b3b6f252d5a7418b86aea25c87126f450d18491ccb7b8427fe0e9697a31c8560200151866040015186886080015189606001518a60a001518051906020012060405160200180888152602001876001600160a01b03168152602001868152602001856001600160a01b03168152602001846001600160a01b0316815260200183815260200182815260200197505050505050505060405160208183030381529060405280519060200120615549565b949350505050565b6000816001600160a01b03166370a08231306040518263ffffffff1660e01b815260040180826001600160a01b0316815260200191505060206040518083038186803b158015614aca57600080fd5b505afa158015614ade573d6000803e3d6000fd5b505050506040513d6020811015614af457600080fd5b50516001600160a01b038084166000818152600560205260409020549293506137829290911683614969565b6000818310614b2f57816148fb565b5090919050565b600954610100900460ff1680614b4f5750614b4f615595565b80614b5d575060095460ff16155b614b985760405162461bcd60e51b815260040180806020018281038252602e815260200180615b91602e913960400191505060405180910390fd5b600954610100900460ff16158015614bc3576009805460ff1961ff0019909116610100171660011790555b6000614bcd6153aa565b603c80546001600160a01b0319166001600160a01b038316908117909155604051919250906000907f8be0079c531659141344cd1fd0a4f28419497f9722a3daafe3b4186f6b6457e0908290a3508015614c2d576009805461ff00191690555b50565b60008054336001600160a01b03199182168117909255600180548216909217909155600280547350fda034c0ce7a8f7efdaebda7aa7ca21cc1267e908316179055600380549091166001600160a01b0392909216919091179055565b600954610100900460ff1680614ca55750614ca5615595565b80614cb3575060095460ff16155b614cee5760405162461bcd60e51b815260040180806020018281038252602e815260200180615b91602e913960400191505060405180910390fd5b600954610100900460ff16158015614d19576009805460ff1961ff0019909116610100171660011790555b8251602080850191909120835191840191909120606e91909155606f55801561489d576009805461ff0019169055505050565b600080826040516020018082805190602001908083835b60208310614d825780518252601f199092019160209182019101614d63565b6001836020036101000a038019825116818451168082178552505050505050905001915050604051602081830303815290604052805190602001209050808451856020016000f5949350505050565b60008151604114614e29576040805162461bcd60e51b815260206004820152601f60248201527f45434453413a20696e76616c6964207369676e6174757265206c656e67746800604482015290519081900360640190fd5b60208201516040830151606084015160001a614e47868285856155a6565b9695505050505050565b6000828201838110156148fb576040805162461bcd60e51b815260206004820152601b60248201527f536166654d6174683a206164646974696f6e206f766572666c6f770000000000604482015290519081900360640190fd5b6001600160a01b038082166000908152600560209081526040808320548151630169151760e31b815291519394859460069486949390921692630b48a8b8926004808301939192829003018186803b158015614f0657600080fd5b505afa158015614f1a573d6000803e3d6000fd5b505050506040513d6020811015614f3057600080fd5b50516001600160a01b039081168252602082810193909352604091820160009081208783168252600585528382205484516369d38e2760e11b815294519195929493169263d3a71c4e926004808301939192829003018186803b158015614f9657600080fd5b505afa158015614faa573d6000803e3d6000fd5b505050506040513d6020811015614fc057600080fd5b50516001600160a01b039081168252602082810193909352604091820160002054825163138f252760e31b8152600481018990529251911693508392639c7929389260248082019391829003018186803b15801561501d57600080fd5b505afa158015615031573d6000803e3d6000fd5b505050506040513d602081101561504757600080fd5b50516001600160a01b0380851660009081526005602090815260408083205481516369d38e2760e11b815291519597506006959394169263d3a71c4e92600480840193919291829003018186803b1580156150a157600080fd5b505afa1580156150b5573d6000803e3d6000fd5b505050506040513d60208110156150cb57600080fd5b50516001600160a01b039081168252602082810193909352604091820160009081208783168252845282902054825163138f252760e31b8152600481018790529251911692639c7929389260248082019391829003018186803b15801561513157600080fd5b505afa158015615145573d6000803e3d6000fd5b505050506040513d602081101561515b57600080fd5b5051949350505050565b6001600160a01b038116600090815260ab602052604081205460a9546148fb919061243190670de0b6b3a764000090611699906151a390839061472d565b88906148a2565b60006148fb7facca73c15b476818f48739adc92f84de507f609afc17aeef89e2bebadd929d188460800151848660600151876020015188604001518051906020012060405160200180878152602001866001600160a01b03168152602001856001600160a01b03168152602001846001600160a01b03168152602001838152602001828152602001965050505050505060405160208183030381529060405280519060200120615549565b6001600160a01b038116600090815260ab602052604081205460a9546148fb919061529390670de0b6b3a764000090611699906151a3908390614e51565b90614e51565b604080516001600160a01b0383166024808301919091528251808303909101815260449091019091526020810180516001600160e01b031663161765e160e11b179052614c2d9061571b565b6040805160248082018490528251808303909101815260449091019091526020810180516001600160e01b031663f5b1bba960e01b179052614c2d9061571b565b6001600160a01b03808216600090815260056020908152604080832054815163722713f760e01b815291519394169263722713f792600480840193919291829003018186803b15801561537857600080fd5b505afa15801561538c573d6000803e3d6000fd5b505050506040513d60208110156153a257600080fd5b505192915050565b3390565b6000614a7384846001600160a01b03851661573c565b6000806153d084615758565b9050826037826020016000f5949350505050565b600080600083516041141561540f5750505060208101516040820151606083015160001a919061543a565b83516040141561543a575050506020810151604082015160ff81901c601b0191906001600160ff1b03165b9193909250565b6001600160a01b03808316600090815260056020526040808220548151632e1a7d4d60e01b8152600481018690529151931692632e1a7d4d9260248084019391929182900301818387803b15801561178d57600080fd5b60006154ed826040518060400160405280602081526020017f5361666545524332303a206c6f772d6c6576656c2063616c6c206661696c6564815250856001600160a01b03166157b99092919063ffffffff16565b80519091501561489d5780806020019051602081101561550c57600080fd5b505161489d5760405162461bcd60e51b815260040180806020018281038252602a815260200180615c26602a913960400191505060405180910390fd5b60006155536157c8565b82604051602001808061190160f01b81525060020183815260200182815260200192505050604051602081830303815290604052805190602001209050919050565b60006155a030615808565b15905090565b60007f7fffffffffffffffffffffffffffffff5d576e7357a4501ddfe92f46681b20a08211156156075760405162461bcd60e51b8152600401808060200182810382526022815260200180615b496022913960400191505060405180910390fd5b8360ff16601b148061561c57508360ff16601c145b6156575760405162461bcd60e51b8152600401808060200182810382526022815260200180615bbf6022913960400191505060405180910390fd5b600060018686868660405160008152602001604052604051808581526020018460ff1681526020018381526020018281526020019450505050506020604051602081039080840390855afa1580156156b3573d6000803e3d6000fd5b5050604051601f1901519150506001600160a01b0381166138da576040805162461bcd60e51b815260206004820152601860248201527f45434453413a20696e76616c6964207369676e61747572650000000000000000604482015290519081900360640190fd5b80516a636f6e736f6c652e6c6f67602083016000808483855afa5050505050565b6000614a738261574b85615758565b805190602001208661580e565b60408051603780825260608281019093526020820181803683375050733d602d80600a3d3981f3363d3d373d3d3d363d7360601b60208301525060609290921b6034830152506e5af43d82803e903d91602b57fd5bf360881b604882015290565b6060614a738484600085615869565b60006158037f8b73c3c69bb8fe3d512ecc4cf759cc79239f7b179b0ffacaa9a75d522b39400f6157f66159c4565b6157fe6159ca565b6159d0565b905090565b3b151590565b604080516001600160f81b031960208083019190915260609390931b6bffffffffffffffffffffffff191660218201526035810194909452605580850193909352805180850390930183526075909301909252805191012090565b6060824710156158aa5760405162461bcd60e51b8152600401808060200182810382526026815260200180615b6b6026913960400191505060405180910390fd5b6158b385615808565b615904576040805162461bcd60e51b815260206004820152601d60248201527f416464726573733a2063616c6c20746f206e6f6e2d636f6e7472616374000000604482015290519081900360640190fd5b600080866001600160a01b031685876040518082805190602001908083835b602083106159425780518252601f199092019160209182019101615923565b6001836020036101000a03801982511681845116808217855250505050505090500191505060006040518083038185875af1925050503d80600081146159a4576040519150601f19603f3d011682016040523d82523d6000602084013e6159a9565b606091505b50915091506159b9828286615a32565b979650505050505050565b606e5490565b606f5490565b60008383836159dd615ad6565b3060405160200180868152602001858152602001848152602001838152602001826001600160a01b03168152602001955050505050506040516020818303038152906040528051906020012090509392505050565b60608315615a415750816148fb565b825115615a515782518084602001fd5b8160405162461bcd60e51b81526004018080602001828103825283818151815260200191508051906020019080838360005b83811015615a9b578181015183820152602001615a83565b50505050905090810190601f168015615ac85780820380516001836020036101000a031916815260200191505b509250505060405180910390fd5b4690565b6040518061010001604052806000815260200160008152602001600080191681526020016000815260200160008152602001600081526020016000815260200160008152509056fe4f776e61626c653a206e6577206f776e657220697320746865207a65726f206164647265737345434453413a20696e76616c6964207369676e6174757265202773272076616c7565416464726573733a20696e73756666696369656e742062616c616e636520666f722063616c6c496e697469616c697a61626c653a20636f6e747261637420697320616c726561647920696e697469616c697a656445434453413a20696e76616c6964207369676e6174757265202776272076616c7565536166654d6174683a206d756c7469706c69636174696f6e206f766572666c6f777a65726f2e756e6465727772697465722e6c6f636b2d696d706c656d656e746174696f6e5361666545524332303a204552433230206f7065726174696f6e20646964206e6f7420737563636565645361666545524332303a20617070726f76652066726f6d206e6f6e2d7a65726f20746f206e6f6e2d7a65726f20616c6c6f77616e6365a26469706673582212209245cdd5e7423d85f16e85ec10ff3aa2c8dec758afe754982847bc79bab09dd264736f6c63430007060033",
  "libraries": {
    "ZeroUnderwriterLockBytecodeLib": "0xfFd2EF3D44a2ea1B5E88780C1c85bcf6B2Aa4Bb5"
  },
  "devdoc": {
    "author": "raymondpulver",
    "kind": "dev",
    "methods": {
      "owner()": {
        "details": "Returns the address of the current owner."
      },
      "renounceOwnership()": {
        "details": "Leaves the contract without owner. It will not be possible to call `onlyOwner` functions anymore. Can only be called by the current owner. NOTE: Renouncing ownership will leave the contract without an owner, thereby removing any functionality that is only available to the owner."
      },
      "transferOwnership(address)": {
        "details": "Transfers ownership of the contract to a new account (`newOwner`). Can only be called by the current owner."
      }
    },
    "title": "upgradeable contract which determines the authority of a given address to sign off on loans",
    "version": 1
  },
  "userdoc": {
    "kind": "user",
    "methods": {},
    "version": 1
  },
  "storageLayout": {
    "storage": [
      {
        "astId": 4259,
        "contract": "contracts/controllers/ZeroController.sol:ZeroController",
        "label": "governance",
        "offset": 0,
        "slot": "0",
        "type": "t_address"
      },
      {
        "astId": 4261,
        "contract": "contracts/controllers/ZeroController.sol:ZeroController",
        "label": "strategist",
        "offset": 0,
        "slot": "1",
        "type": "t_address"
      },
      {
        "astId": 4263,
        "contract": "contracts/controllers/ZeroController.sol:ZeroController",
        "label": "onesplit",
        "offset": 0,
        "slot": "2",
        "type": "t_address"
      },
      {
        "astId": 4265,
        "contract": "contracts/controllers/ZeroController.sol:ZeroController",
        "label": "rewards",
        "offset": 0,
        "slot": "3",
        "type": "t_address"
      },
      {
        "astId": 4269,
        "contract": "contracts/controllers/ZeroController.sol:ZeroController",
        "label": "vaults",
        "offset": 0,
        "slot": "4",
        "type": "t_mapping(t_address,t_address)"
      },
      {
        "astId": 4273,
        "contract": "contracts/controllers/ZeroController.sol:ZeroController",
        "label": "strategies",
        "offset": 0,
        "slot": "5",
        "type": "t_mapping(t_address,t_address)"
      },
      {
        "astId": 4279,
        "contract": "contracts/controllers/ZeroController.sol:ZeroController",
        "label": "converters",
        "offset": 0,
        "slot": "6",
        "type": "t_mapping(t_address,t_mapping(t_address,t_address))"
      },
      {
        "astId": 4285,
        "contract": "contracts/controllers/ZeroController.sol:ZeroController",
        "label": "approvedStrategies",
        "offset": 0,
        "slot": "7",
        "type": "t_mapping(t_address,t_mapping(t_address,t_bool))"
      },
      {
        "astId": 4288,
        "contract": "contracts/controllers/ZeroController.sol:ZeroController",
        "label": "split",
        "offset": 0,
        "slot": "8",
        "type": "t_uint256"
      },
      {
        "astId": 652,
        "contract": "contracts/controllers/ZeroController.sol:ZeroController",
        "label": "_initialized",
        "offset": 0,
        "slot": "9",
        "type": "t_bool"
      },
      {
        "astId": 655,
        "contract": "contracts/controllers/ZeroController.sol:ZeroController",
        "label": "_initializing",
        "offset": 1,
        "slot": "9",
        "type": "t_bool"
      },
      {
        "astId": 1607,
        "contract": "contracts/controllers/ZeroController.sol:ZeroController",
        "label": "__gap",
        "offset": 0,
        "slot": "10",
        "type": "t_array(t_uint256)50_storage"
      },
      {
        "astId": 10,
        "contract": "contracts/controllers/ZeroController.sol:ZeroController",
        "label": "_owner",
        "offset": 0,
        "slot": "60",
        "type": "t_address"
      },
      {
        "astId": 129,
        "contract": "contracts/controllers/ZeroController.sol:ZeroController",
        "label": "__gap",
        "offset": 0,
        "slot": "61",
        "type": "t_array(t_uint256)49_storage"
      },
      {
        "astId": 138,
        "contract": "contracts/controllers/ZeroController.sol:ZeroController",
        "label": "_HASHED_NAME",
        "offset": 0,
        "slot": "110",
        "type": "t_bytes32"
      },
      {
        "astId": 140,
        "contract": "contracts/controllers/ZeroController.sol:ZeroController",
        "label": "_HASHED_VERSION",
        "offset": 0,
        "slot": "111",
        "type": "t_bytes32"
      },
      {
        "astId": 289,
        "contract": "contracts/controllers/ZeroController.sol:ZeroController",
        "label": "__gap",
        "offset": 0,
        "slot": "112",
        "type": "t_array(t_uint256)50_storage"
      },
      {
        "astId": 6610,
        "contract": "contracts/controllers/ZeroController.sol:ZeroController",
        "label": "maxGasPrice",
        "offset": 0,
        "slot": "162",
        "type": "t_uint256"
      },
      {
        "astId": 6613,
        "contract": "contracts/controllers/ZeroController.sol:ZeroController",
        "label": "maxGasRepay",
        "offset": 0,
        "slot": "163",
        "type": "t_uint256"
      },
      {
        "astId": 6616,
        "contract": "contracts/controllers/ZeroController.sol:ZeroController",
        "label": "maxGasLoan",
        "offset": 0,
        "slot": "164",
        "type": "t_uint256"
      },
      {
        "astId": 6621,
        "contract": "contracts/controllers/ZeroController.sol:ZeroController",
        "label": "underwriterLockImpl",
        "offset": 0,
        "slot": "165",
        "type": "t_address"
      },
      {
        "astId": 6625,
        "contract": "contracts/controllers/ZeroController.sol:ZeroController",
        "label": "loanStatus",
        "offset": 0,
        "slot": "166",
        "type": "t_mapping(t_bytes32,t_struct(LoanStatus)9762_storage)"
      },
      {
        "astId": 6650,
        "contract": "contracts/controllers/ZeroController.sol:ZeroController",
        "label": "ZERO_DOMAIN_SEPARATOR",
        "offset": 0,
        "slot": "167",
        "type": "t_bytes32"
      },
      {
        "astId": 6657,
        "contract": "contracts/controllers/ZeroController.sol:ZeroController",
        "label": "ownerOf",
        "offset": 0,
        "slot": "168",
        "type": "t_mapping(t_uint256,t_address)"
      },
      {
        "astId": 6659,
        "contract": "contracts/controllers/ZeroController.sol:ZeroController",
        "label": "fee",
        "offset": 0,
        "slot": "169",
        "type": "t_uint256"
      },
      {
        "astId": 6661,
        "contract": "contracts/controllers/ZeroController.sol:ZeroController",
        "label": "gatewayRegistry",
        "offset": 0,
        "slot": "170",
        "type": "t_address"
      },
      {
        "astId": 6665,
        "contract": "contracts/controllers/ZeroController.sol:ZeroController",
        "label": "baseFeeByAsset",
        "offset": 0,
        "slot": "171",
        "type": "t_mapping(t_address,t_uint256)"
      },
      {
        "astId": 6669,
        "contract": "contracts/controllers/ZeroController.sol:ZeroController",
        "label": "approvedModules",
        "offset": 0,
        "slot": "172",
        "type": "t_mapping(t_address,t_bool)"
      },
      {
        "astId": 6672,
        "contract": "contracts/controllers/ZeroController.sol:ZeroController",
        "label": "maxGasBurn",
        "offset": 0,
        "slot": "173",
        "type": "t_uint256"
      }
    ],
    "types": {
      "t_address": {
        "encoding": "inplace",
        "label": "address",
        "numberOfBytes": "20"
      },
      "t_array(t_uint256)49_storage": {
        "base": "t_uint256",
        "encoding": "inplace",
        "label": "uint256[49]",
        "numberOfBytes": "1568"
      },
      "t_array(t_uint256)50_storage": {
        "base": "t_uint256",
        "encoding": "inplace",
        "label": "uint256[50]",
        "numberOfBytes": "1600"
      },
      "t_bool": {
        "encoding": "inplace",
        "label": "bool",
        "numberOfBytes": "1"
      },
      "t_bytes32": {
        "encoding": "inplace",
        "label": "bytes32",
        "numberOfBytes": "32"
      },
      "t_enum(LoanStatusCode)9733": {
        "encoding": "inplace",
        "label": "enum ZeroLib.LoanStatusCode",
        "numberOfBytes": "1"
      },
      "t_mapping(t_address,t_address)": {
        "encoding": "mapping",
        "key": "t_address",
        "label": "mapping(address => address)",
        "numberOfBytes": "32",
        "value": "t_address"
      },
      "t_mapping(t_address,t_bool)": {
        "encoding": "mapping",
        "key": "t_address",
        "label": "mapping(address => bool)",
        "numberOfBytes": "32",
        "value": "t_bool"
      },
      "t_mapping(t_address,t_mapping(t_address,t_address))": {
        "encoding": "mapping",
        "key": "t_address",
        "label": "mapping(address => mapping(address => address))",
        "numberOfBytes": "32",
        "value": "t_mapping(t_address,t_address)"
      },
      "t_mapping(t_address,t_mapping(t_address,t_bool))": {
        "encoding": "mapping",
        "key": "t_address",
        "label": "mapping(address => mapping(address => bool))",
        "numberOfBytes": "32",
        "value": "t_mapping(t_address,t_bool)"
      },
      "t_mapping(t_address,t_uint256)": {
        "encoding": "mapping",
        "key": "t_address",
        "label": "mapping(address => uint256)",
        "numberOfBytes": "32",
        "value": "t_uint256"
      },
      "t_mapping(t_bytes32,t_struct(LoanStatus)9762_storage)": {
        "encoding": "mapping",
        "key": "t_bytes32",
        "label": "mapping(bytes32 => struct ZeroLib.LoanStatus)",
        "numberOfBytes": "32",
        "value": "t_struct(LoanStatus)9762_storage"
      },
      "t_mapping(t_uint256,t_address)": {
        "encoding": "mapping",
        "key": "t_uint256",
        "label": "mapping(uint256 => address)",
        "numberOfBytes": "32",
        "value": "t_address"
      },
      "t_struct(LoanStatus)9762_storage": {
        "encoding": "inplace",
        "label": "struct ZeroLib.LoanStatus",
        "members": [
          {
            "astId": 9759,
            "contract": "contracts/controllers/ZeroController.sol:ZeroController",
            "label": "underwriter",
            "offset": 0,
            "slot": "0",
            "type": "t_address"
          },
          {
            "astId": 9761,
            "contract": "contracts/controllers/ZeroController.sol:ZeroController",
            "label": "status",
            "offset": 20,
            "slot": "0",
            "type": "t_enum(LoanStatusCode)9733"
          }
        ],
        "numberOfBytes": "32"
      },
      "t_uint256": {
        "encoding": "inplace",
        "label": "uint256",
        "numberOfBytes": "32"
      }
    }
  }
}