{
  "_format": "hh-sol-artifact-1",
  "contractName": "ETHOSMedianizer",
  "sourceName": "contracts/yearn/utils/ETHOSMedianizer.sol",
  "abi": [
    {
      "inputs": [],
      "stateMutability": "nonpayable",
      "type": "constructor"
    },
    {
      "inputs": [],
      "name": "MEDIANIZER",
      "outputs": [
        {
          "internalType": "contract Medianizer",
          "name": "",
          "type": "address"
        }
      ],
      "stateMutability": "view",
      "type": "function"
    },
    {
      "inputs": [],
      "name": "OSM",
      "outputs": [
        {
          "internalType": "contract OracleSecurityModule",
          "name": "",
          "type": "address"
        }
      ],
      "stateMutability": "view",
      "type": "function"
    },
    {
      "inputs": [
        {
          "internalType": "address",
          "name": "",
          "type": "address"
        }
      ],
      "name": "authorized",
      "outputs": [
        {
          "internalType": "bool",
          "name": "",
          "type": "bool"
        }
      ],
      "stateMutability": "view",
      "type": "function"
    },
    {
      "inputs": [],
      "name": "foresight",
      "outputs": [
        {
          "internalType": "uint256",
          "name": "price",
          "type": "uint256"
        },
        {
          "internalType": "bool",
          "name": "osm",
          "type": "bool"
        }
      ],
      "stateMutability": "view",
      "type": "function"
    },
    {
      "inputs": [],
      "name": "governance",
      "outputs": [
        {
          "internalType": "address",
          "name": "",
          "type": "address"
        }
      ],
      "stateMutability": "view",
      "type": "function"
    },
    {
      "inputs": [],
      "name": "read",
      "outputs": [
        {
          "internalType": "uint256",
          "name": "price",
          "type": "uint256"
        },
        {
          "internalType": "bool",
          "name": "osm",
          "type": "bool"
        }
      ],
      "stateMutability": "view",
      "type": "function"
    },
    {
      "inputs": [
        {
          "internalType": "address",
          "name": "_authorized",
          "type": "address"
        }
      ],
      "name": "revokeAuthorized",
      "outputs": [],
      "stateMutability": "nonpayable",
      "type": "function"
    },
    {
      "inputs": [
        {
          "internalType": "address",
          "name": "_authorized",
          "type": "address"
        }
      ],
      "name": "setAuthorized",
      "outputs": [],
      "stateMutability": "nonpayable",
      "type": "function"
    },
    {
      "inputs": [
        {
          "internalType": "address",
          "name": "_governance",
          "type": "address"
        }
      ],
      "name": "setGovernance",
      "outputs": [],
      "stateMutability": "nonpayable",
      "type": "function"
    }
  ],
  "bytecode": "0x608060405234801561001057600080fd5b50600180546001600160a01b03191633179055610612806100326000396000f3fe608060405234801561001057600080fd5b50600436106100935760003560e01c806394c5eddb1161006657806394c5eddb1461012b578063ab033ea914610133578063b918161114610159578063b9f0849814610193578063cfad9c8c1461019b57610093565b806314fc2812146100985780633f48be2d146100c057806357de26a4146100e65780635aa6e67514610107575b600080fd5b6100be600480360360208110156100ae57600080fd5b50356001600160a01b03166101a3565b005b6100be600480360360208110156100d657600080fd5b50356001600160a01b0316610214565b6100ee610282565b6040805192835290151560208301528051918290030190f35b61010f61042c565b604080516001600160a01b039092168252519081900360200190f35b61010f61043b565b6100be6004803603602081101561014957600080fd5b50356001600160a01b0316610453565b61017f6004803603602081101561016f57600080fd5b50356001600160a01b03166104c2565b604080519115158252519081900360200190f35b61010f6104d7565b6100ee6104ef565b6001546001600160a01b031633146101f0576040805162461bcd60e51b815260206004820152600b60248201526a21676f7665726e616e636560a81b604482015290519081900360640190fd5b6001600160a01b03166000908152602081905260409020805460ff19166001179055565b6001546001600160a01b03163314610261576040805162461bcd60e51b815260206004820152600b60248201526a21676f7665726e616e636560a81b604482015290519081900360640190fd5b6001600160a01b03166000908152602081905260409020805460ff19169055565b33600090815260208190526040812054819060ff16156103a857604080516327e73d1560e11b815230600482015290517381fe72b5a8d1a857d176c3e7d5bd2679a9b8576391634fce7a2a916024808301926020929190829003018186803b1580156102ed57600080fd5b505afa158015610301573d6000803e3d6000fd5b505050506040513d602081101561031757600080fd5b5051600114156103a85760007381fe72b5a8d1a857d176c3e7d5bd2679a9b857636001600160a01b03166359e02dd76040518163ffffffff1660e01b8152600401604080518083038186803b15801561036f57600080fd5b505afa158015610383573d6000803e3d6000fd5b505050506040513d604081101561039957600080fd5b50519250600191506104289050565b73729d19f657bd0614b4985cf1d82531c67569197b6001600160a01b03166357de26a46040518163ffffffff1660e01b815260040160206040518083038186803b1580156103f557600080fd5b505afa158015610409573d6000803e3d6000fd5b505050506040513d602081101561041f57600080fd5b50519150600090505b9091565b6001546001600160a01b031681565b73729d19f657bd0614b4985cf1d82531c67569197b81565b6001546001600160a01b031633146104a0576040805162461bcd60e51b815260206004820152600b60248201526a21676f7665726e616e636560a81b604482015290519081900360640190fd5b600180546001600160a01b0319166001600160a01b0392909216919091179055565b60006020819052908152604090205460ff1681565b7381fe72b5a8d1a857d176c3e7d5bd2679a9b8576381565b33600090815260208190526040812054819060ff16156103a857604080516327e73d1560e11b815230600482015290517381fe72b5a8d1a857d176c3e7d5bd2679a9b8576391634fce7a2a916024808301926020929190829003018186803b15801561055a57600080fd5b505afa15801561056e573d6000803e3d6000fd5b505050506040513d602081101561058457600080fd5b5051600114156103a85760007381fe72b5a8d1a857d176c3e7d5bd2679a9b857636001600160a01b0316630e5a6c706040518163ffffffff1660e01b8152600401604080518083038186803b15801561036f57600080fdfea2646970667358221220344123a6331ebc4616f5fc2cb330d2ddd3049ef133f927db1d386cab033cd95064736f6c634300060c0033",
  "linkReferences": {},
  "deployedLinkReferences": {}
}