{
  "_format": "hh-sol-artifact-1",
  "contractName": "ZeroToken",
  "sourceName": "contracts/governance/ZeroToken.sol",
  "abi": [
    {
      "inputs": [
        {
          "internalType": "address",
          "name": "account",
          "type": "address"
        }
      ],
      "stateMutability": "nonpayable",
      "type": "constructor"
    },
    {
      "anonymous": false,
      "inputs": [
        {
          "indexed": true,
          "internalType": "address",
          "name": "owner",
          "type": "address"
        },
        {
          "indexed": true,
          "internalType": "address",
          "name": "spender",
          "type": "address"
        },
        {
          "indexed": false,
          "internalType": "uint256",
          "name": "amount",
          "type": "uint256"
        }
      ],
      "name": "Approval",
      "type": "event"
    },
    {
      "anonymous": false,
      "inputs": [
        {
          "indexed": true,
          "internalType": "address",
          "name": "delegator",
          "type": "address"
        },
        {
          "indexed": true,
          "internalType": "address",
          "name": "fromDelegate",
          "type": "address"
        },
        {
          "indexed": true,
          "internalType": "address",
          "name": "toDelegate",
          "type": "address"
        }
      ],
      "name": "DelegateChanged",
      "type": "event"
    },
    {
      "anonymous": false,
      "inputs": [
        {
          "indexed": true,
          "internalType": "address",
          "name": "delegate",
          "type": "address"
        },
        {
          "indexed": false,
          "internalType": "uint256",
          "name": "previousBalance",
          "type": "uint256"
        },
        {
          "indexed": false,
          "internalType": "uint256",
          "name": "newBalance",
          "type": "uint256"
        }
      ],
      "name": "DelegateVotesChanged",
      "type": "event"
    },
    {
      "anonymous": false,
      "inputs": [
        {
          "indexed": true,
          "internalType": "address",
          "name": "from",
          "type": "address"
        },
        {
          "indexed": true,
          "internalType": "address",
          "name": "to",
          "type": "address"
        },
        {
          "indexed": false,
          "internalType": "uint256",
          "name": "amount",
          "type": "uint256"
        }
      ],
      "name": "Transfer",
      "type": "event"
    },
    {
      "inputs": [],
      "name": "DELEGATION_TYPEHASH",
      "outputs": [
        {
          "internalType": "bytes32",
          "name": "",
          "type": "bytes32"
        }
      ],
      "stateMutability": "view",
      "type": "function"
    },
    {
      "inputs": [],
      "name": "DOMAIN_TYPEHASH",
      "outputs": [
        {
          "internalType": "bytes32",
          "name": "",
          "type": "bytes32"
        }
      ],
      "stateMutability": "view",
      "type": "function"
    },
    {
      "inputs": [
        {
          "internalType": "address",
          "name": "account",
          "type": "address"
        },
        {
          "internalType": "address",
          "name": "spender",
          "type": "address"
        }
      ],
      "name": "allowance",
      "outputs": [
        {
          "internalType": "uint256",
          "name": "",
          "type": "uint256"
        }
      ],
      "stateMutability": "view",
      "type": "function"
    },
    {
      "inputs": [
        {
          "internalType": "address",
          "name": "spender",
          "type": "address"
        },
        {
          "internalType": "uint256",
          "name": "rawAmount",
          "type": "uint256"
        }
      ],
      "name": "approve",
      "outputs": [
        {
          "internalType": "bool",
          "name": "",
          "type": "bool"
        }
      ],
      "stateMutability": "nonpayable",
      "type": "function"
    },
    {
      "inputs": [
        {
          "internalType": "address",
          "name": "account",
          "type": "address"
        }
      ],
      "name": "balanceOf",
      "outputs": [
        {
          "internalType": "uint256",
          "name": "",
          "type": "uint256"
        }
      ],
      "stateMutability": "view",
      "type": "function"
    },
    {
      "inputs": [
        {
          "internalType": "address",
          "name": "",
          "type": "address"
        },
        {
          "internalType": "uint32",
          "name": "",
          "type": "uint32"
        }
      ],
      "name": "checkpoints",
      "outputs": [
        {
          "internalType": "uint32",
          "name": "fromBlock",
          "type": "uint32"
        },
        {
          "internalType": "uint96",
          "name": "votes",
          "type": "uint96"
        }
      ],
      "stateMutability": "view",
      "type": "function"
    },
    {
      "inputs": [],
      "name": "decimals",
      "outputs": [
        {
          "internalType": "uint8",
          "name": "",
          "type": "uint8"
        }
      ],
      "stateMutability": "view",
      "type": "function"
    },
    {
      "inputs": [
        {
          "internalType": "address",
          "name": "delegatee",
          "type": "address"
        }
      ],
      "name": "delegate",
      "outputs": [],
      "stateMutability": "nonpayable",
      "type": "function"
    },
    {
      "inputs": [
        {
          "internalType": "address",
          "name": "delegatee",
          "type": "address"
        },
        {
          "internalType": "uint256",
          "name": "nonce",
          "type": "uint256"
        },
        {
          "internalType": "uint256",
          "name": "expiry",
          "type": "uint256"
        },
        {
          "internalType": "uint8",
          "name": "v",
          "type": "uint8"
        },
        {
          "internalType": "bytes32",
          "name": "r",
          "type": "bytes32"
        },
        {
          "internalType": "bytes32",
          "name": "s",
          "type": "bytes32"
        }
      ],
      "name": "delegateBySig",
      "outputs": [],
      "stateMutability": "nonpayable",
      "type": "function"
    },
    {
      "inputs": [
        {
          "internalType": "address",
          "name": "",
          "type": "address"
        }
      ],
      "name": "delegates",
      "outputs": [
        {
          "internalType": "address",
          "name": "",
          "type": "address"
        }
      ],
      "stateMutability": "view",
      "type": "function"
    },
    {
      "inputs": [
        {
          "internalType": "address",
          "name": "account",
          "type": "address"
        }
      ],
      "name": "getCurrentVotes",
      "outputs": [
        {
          "internalType": "uint96",
          "name": "",
          "type": "uint96"
        }
      ],
      "stateMutability": "view",
      "type": "function"
    },
    {
      "inputs": [
        {
          "internalType": "address",
          "name": "account",
          "type": "address"
        },
        {
          "internalType": "uint256",
          "name": "blockNumber",
          "type": "uint256"
        }
      ],
      "name": "getPriorVotes",
      "outputs": [
        {
          "internalType": "uint96",
          "name": "",
          "type": "uint96"
        }
      ],
      "stateMutability": "view",
      "type": "function"
    },
    {
      "inputs": [],
      "name": "name",
      "outputs": [
        {
          "internalType": "string",
          "name": "",
          "type": "string"
        }
      ],
      "stateMutability": "view",
      "type": "function"
    },
    {
      "inputs": [
        {
          "internalType": "address",
          "name": "",
          "type": "address"
        }
      ],
      "name": "nonces",
      "outputs": [
        {
          "internalType": "uint256",
          "name": "",
          "type": "uint256"
        }
      ],
      "stateMutability": "view",
      "type": "function"
    },
    {
      "inputs": [
        {
          "internalType": "address",
          "name": "",
          "type": "address"
        }
      ],
      "name": "numCheckpoints",
      "outputs": [
        {
          "internalType": "uint32",
          "name": "",
          "type": "uint32"
        }
      ],
      "stateMutability": "view",
      "type": "function"
    },
    {
      "inputs": [],
      "name": "symbol",
      "outputs": [
        {
          "internalType": "string",
          "name": "",
          "type": "string"
        }
      ],
      "stateMutability": "view",
      "type": "function"
    },
    {
      "inputs": [],
      "name": "totalSupply",
      "outputs": [
        {
          "internalType": "uint256",
          "name": "",
          "type": "uint256"
        }
      ],
      "stateMutability": "view",
      "type": "function"
    },
    {
      "inputs": [
        {
          "internalType": "address",
          "name": "dst",
          "type": "address"
        },
        {
          "internalType": "uint256",
          "name": "rawAmount",
          "type": "uint256"
        }
      ],
      "name": "transfer",
      "outputs": [
        {
          "internalType": "bool",
          "name": "",
          "type": "bool"
        }
      ],
      "stateMutability": "nonpayable",
      "type": "function"
    },
    {
      "inputs": [
        {
          "internalType": "address",
          "name": "src",
          "type": "address"
        },
        {
          "internalType": "address",
          "name": "dst",
          "type": "address"
        },
        {
          "internalType": "uint256",
          "name": "rawAmount",
          "type": "uint256"
        }
      ],
      "name": "transferFrom",
      "outputs": [
        {
          "internalType": "bool",
          "name": "",
          "type": "bool"
        }
      ],
      "stateMutability": "nonpayable",
      "type": "function"
    }
  ],
  "bytecode": "0x60c0604052600860808190526710dbdb5c1bdd5b9960c21b60a09081526200002b916000919062000162565b50604080518082019091526004808252630434f4d560e41b6020909201918252620000599160019162000162565b503480156200006757600080fd5b5060405162001af238038062001af2833981810160405260208110156200008d57600080fd5b50516001600160a01b038116600081815260036020908152604080832080546001600160601b0319166a084595161401484a00000090811790915581519081529051859493927fddf252ad1be2c89b69c2b068fc378daa952ba7f163c4a11628f55a4df523b3ef928290030190a350604080518082019091526007808252665a65726f44414f60c81b60209092019182526200012c9160009162000162565b50604080518082019091526004808252635a45524f60e01b60209092019182526200015a9160019162000162565b5050620001fe565b828054600181600116156101000203166002900490600052602060002090601f016020900481019282601f10620001a557805160ff1916838001178555620001d5565b82800160010185558215620001d5579182015b82811115620001d5578251825591602001919060010190620001b8565b50620001e3929150620001e7565b5090565b5b80821115620001e35760008155600101620001e8565b6118e4806200020e6000396000f3fe608060405234801561001057600080fd5b50600436106101215760003560e01c806370a08231116100ad578063b4b5ea5711610071578063b4b5ea57146103ca578063c3cda520146103f0578063dd62ed3e14610437578063e7a324dc14610465578063f1127ed81461046d57610121565b806370a0823114610302578063782d6fe1146103285780637ecebe001461037057806395d89b4114610396578063a9059cbb1461039e57610121565b806323b872dd116100f457806323b872dd14610205578063313ce5671461023b578063587cde1e146102595780635c19a95c1461029b5780636fcfff45146102c357610121565b806306fdde0314610126578063095ea7b3146101a357806318160ddd146101e357806320606b70146101fd575b600080fd5b61012e6104c7565b6040805160208082528351818301528351919283929083019185019080838360005b83811015610168578181015183820152602001610150565b50505050905090810190601f1680156101955780820380516001836020036101000a031916815260200191505b509250505060405180910390f35b6101cf600480360360408110156101b957600080fd5b506001600160a01b038135169060200135610555565b604080519115158252519081900360200190f35b6101eb610613565b60408051918252519081900360200190f35b6101eb610622565b6101cf6004803603606081101561021b57600080fd5b506001600160a01b03813581169160208101359091169060400135610646565b61024361078b565b6040805160ff9092168252519081900360200190f35b61027f6004803603602081101561026f57600080fd5b50356001600160a01b0316610790565b604080516001600160a01b039092168252519081900360200190f35b6102c1600480360360208110156102b157600080fd5b50356001600160a01b03166107ab565b005b6102e9600480360360208110156102d957600080fd5b50356001600160a01b03166107b8565b6040805163ffffffff9092168252519081900360200190f35b6101eb6004803603602081101561031857600080fd5b50356001600160a01b03166107d0565b6103546004803603604081101561033e57600080fd5b506001600160a01b0381351690602001356107f4565b604080516001600160601b039092168252519081900360200190f35b6101eb6004803603602081101561038657600080fd5b50356001600160a01b0316610a21565b61012e610a33565b6101cf600480360360408110156103b457600080fd5b506001600160a01b038135169060200135610a8d565b610354600480360360208110156103e057600080fd5b50356001600160a01b0316610ac9565b6102c1600480360360c081101561040657600080fd5b506001600160a01b038135169060208101359060408101359060ff6060820135169060808101359060a00135610b3a565b6101eb6004803603604081101561044d57600080fd5b506001600160a01b0381358116916020013516610e08565b6101eb610e3c565b61049f6004803603604081101561048357600080fd5b5080356001600160a01b0316906020013563ffffffff16610e60565b6040805163ffffffff90931683526001600160601b0390911660208301528051918290030190f35b6000805460408051602060026001851615610100026000190190941693909304601f8101849004840282018401909252818152929183018282801561054d5780601f106105225761010080835404028352916020019161054d565b820191906000526020600020905b81548152906001019060200180831161053057829003601f168201915b505050505081565b60008060001983141561056b5750600019610590565b61058d836040518060600160405280602581526020016116b560259139610e95565b90505b3360008181526002602090815260408083206001600160a01b0389168085529083529281902080546001600160601b0319166001600160601b038716908117909155815190815290519293927f8c5be1e5ebec7d5bd14f71427d1e84f3dd0314c0f7b2291e5b200ac8c7c3b925929181900390910190a360019150505b92915050565b6a084595161401484a00000081565b7f8cad95687ba82c2ce50e74f7b754645e5117c3a5bec8151c0726d5857980a86681565b6001600160a01b03831660009081526002602090815260408083203380855290835281842054825160608101909352602580845291936001600160601b0390911692859261069e92889291906116b590830139610e95565b9050866001600160a01b0316836001600160a01b0316141580156106cb57506001600160601b0382811614155b156107735760006106f583836040518060600160405280603d815260200161184b603d9139610f2f565b6001600160a01b038981166000818152600260209081526040808320948a168084529482529182902080546001600160601b0319166001600160601b03871690811790915582519081529151949550929391927f8c5be1e5ebec7d5bd14f71427d1e84f3dd0314c0f7b2291e5b200ac8c7c3b92592918290030190a3505b61077e878783610f9c565b5060019695505050505050565b601281565b6004602052600090815260409020546001600160a01b031681565b6107b53382611181565b50565b60066020526000908152604090205463ffffffff1681565b6001600160a01b03166000908152600360205260409020546001600160601b031690565b60004382106108345760405162461bcd60e51b81526004018080602001828103825260278152602001806116da6027913960400191505060405180910390fd5b6001600160a01b03831660009081526006602052604090205463ffffffff168061086257600091505061060d565b6001600160a01b038416600090815260056020908152604080832063ffffffff6000198601811685529252909120541683106108de576001600160a01b03841660009081526005602090815260408083206000199490940163ffffffff1683529290522054600160201b90046001600160601b0316905061060d565b6001600160a01b038416600090815260056020908152604080832083805290915290205463ffffffff1683101561091957600091505061060d565b600060001982015b8163ffffffff168163ffffffff1611156109dc57600282820363ffffffff1604810361094b61161b565b506001600160a01b038716600090815260056020908152604080832063ffffffff858116855290835292819020815180830190925254928316808252600160201b9093046001600160601b031691810191909152908714156109b75760200151945061060d9350505050565b805163ffffffff168711156109ce578193506109d5565b6001820392505b5050610921565b506001600160a01b038516600090815260056020908152604080832063ffffffff909416835292905220546001600160601b03600160201b9091041691505092915050565b60076020526000908152604090205481565b60018054604080516020600284861615610100026000190190941693909304601f8101849004840282018401909252818152929183018282801561054d5780601f106105225761010080835404028352916020019161054d565b600080610ab28360405180606001604052806026815260200161170160269139610e95565b9050610abf338583610f9c565b5060019392505050565b6001600160a01b03811660009081526006602052604081205463ffffffff1680610af4576000610b33565b6001600160a01b0383166000908152600560209081526040808320600019850163ffffffff168452909152902054600160201b90046001600160601b03165b9392505050565b60007f8cad95687ba82c2ce50e74f7b754645e5117c3a5bec8151c0726d5857980a86660006040518082805460018160011615610100020316600290048015610bba5780601f10610b98576101008083540402835291820191610bba565b820191906000526020600020905b815481529060010190602001808311610ba6575b50509150506040518091039020610bcf61120b565b60408051602080820195909552808201939093526060830191909152306080808401919091528151808403909101815260a0830182528051908401207fe48329057bfd03d55e49b547132e39cffd9c1820ad7b9d4c5307691425d15adf60c08401526001600160a01b038b1660e084015261010083018a90526101208084018a9052825180850390910181526101408401835280519085012061190160f01b6101608501526101628401829052610182808501829052835180860390910181526101a285018085528151918701919091206000918290526101c2860180865281905260ff8b166101e287015261020286018a90526102228601899052935192965090949293909260019261024280840193601f198301929081900390910190855afa158015610d02573d6000803e3d6000fd5b5050604051601f1901519150506001600160a01b038116610d545760405162461bcd60e51b81526004018080602001828103825260268152602001806116696026913960400191505060405180910390fd5b6001600160a01b03811660009081526007602052604090208054600181019091558914610db25760405162461bcd60e51b815260040180806020018281038252602281526020018061175b6022913960400191505060405180910390fd5b87421115610df15760405162461bcd60e51b815260040180806020018281038252602681526020018061168f6026913960400191505060405180910390fd5b610dfb818b611181565b505050505b505050505050565b6001600160a01b0391821660009081526002602090815260408083209390941682529190915220546001600160601b031690565b7fe48329057bfd03d55e49b547132e39cffd9c1820ad7b9d4c5307691425d15adf81565b600560209081526000928352604080842090915290825290205463ffffffff811690600160201b90046001600160601b031682565b600081600160601b8410610f275760405162461bcd60e51b81526004018080602001828103825283818151815260200191508051906020019080838360005b83811015610eec578181015183820152602001610ed4565b50505050905090810190601f168015610f195780820380516001836020036101000a031916815260200191505b509250505060405180910390fd5b509192915050565b6000836001600160601b0316836001600160601b031611158290610f945760405162461bcd60e51b8152602060048201818152835160248401528351909283926044909101919085019080838360008315610eec578181015183820152602001610ed4565b505050900390565b6001600160a01b038316610fe15760405162461bcd60e51b815260040180806020018281038252603c81526020018061180f603c913960400191505060405180910390fd5b6001600160a01b0382166110265760405162461bcd60e51b815260040180806020018281038252603a81526020018061177d603a913960400191505060405180910390fd5b6001600160a01b038316600090815260036020908152604091829020548251606081019093526036808452611071936001600160601b03909216928592919061163390830139610f2f565b6001600160a01b03848116600090815260036020908152604080832080546001600160601b0319166001600160601b039687161790559286168252908290205482516060810190935260308084526110d994919091169285929091906117df9083013961120f565b6001600160a01b0383811660008181526003602090815260409182902080546001600160601b0319166001600160601b039687161790558151948616855290519193928716927fddf252ad1be2c89b69c2b068fc378daa952ba7f163c4a11628f55a4df523b3ef929081900390910190a36001600160a01b0380841660009081526004602052604080822054858416835291205461117c92918216911683611279565b505050565b6001600160a01b03808316600081815260046020818152604080842080546003845282862054949093528787166001600160a01b031984168117909155905191909516946001600160601b039092169391928592917f3134e8a2e6d97e929a7e54011ea5485d7d196dd5f0ba4d4ef95803e8e3fc257f9190a4611205828483611279565b50505050565b4690565b6000838301826001600160601b0380871690831610156112705760405162461bcd60e51b8152602060048201818152835160248401528351909283926044909101919085019080838360008315610eec578181015183820152602001610ed4565b50949350505050565b816001600160a01b0316836001600160a01b0316141580156112a457506000816001600160601b0316115b1561117c576001600160a01b0383161561135c576001600160a01b03831660009081526006602052604081205463ffffffff1690816112e4576000611323565b6001600160a01b0385166000908152600560209081526040808320600019860163ffffffff168452909152902054600160201b90046001600160601b03165b9050600061134a82856040518060600160405280602881526020016117b760289139610f2f565b905061135886848484611407565b5050505b6001600160a01b0382161561117c576001600160a01b03821660009081526006602052604081205463ffffffff1690816113975760006113d6565b6001600160a01b0384166000908152600560209081526040808320600019860163ffffffff168452909152902054600160201b90046001600160601b03165b905060006113fd82856040518060600160405280602781526020016118886027913961120f565b9050610e00858484845b600061142b43604051806060016040528060348152602001611727603491396115c6565b905060008463ffffffff1611801561147457506001600160a01b038516600090815260056020908152604080832063ffffffff6000198901811685529252909120548282169116145b156114d3576001600160a01b0385166000908152600560209081526040808320600019880163ffffffff168452909152902080546fffffffffffffffffffffffff000000001916600160201b6001600160601b03851602179055611572565b60408051808201825263ffffffff80841682526001600160601b0380861660208085019182526001600160a01b038b166000818152600583528781208c871682528352878120965187549451909516600160201b026fffffffffffffffffffffffff000000001995871663ffffffff19958616179590951694909417909555938252600690935292909220805460018801909316929091169190911790555b604080516001600160601b0380861682528416602082015281516001600160a01b038816927fdec2bacdd2f05b59de34da9b523dff8be42e5e38e818c82fdb0bae774387a724928290030190a25050505050565b600081600160201b8410610f275760405162461bcd60e51b8152602060048201818152835160248401528351909283926044909101919085019080838360008315610eec578181015183820152602001610ed4565b60408051808201909152600080825260208201529056fe436f6d703a3a5f7472616e73666572546f6b656e733a207472616e7366657220616d6f756e7420657863656564732062616c616e6365436f6d703a3a64656c656761746542795369673a20696e76616c6964207369676e6174757265436f6d703a3a64656c656761746542795369673a207369676e61747572652065787069726564436f6d703a3a617070726f76653a20616d6f756e7420657863656564732039362062697473436f6d703a3a6765745072696f72566f7465733a206e6f74207965742064657465726d696e6564436f6d703a3a7472616e736665723a20616d6f756e7420657863656564732039362062697473436f6d703a3a5f7772697465436865636b706f696e743a20626c6f636b206e756d62657220657863656564732033322062697473436f6d703a3a64656c656761746542795369673a20696e76616c6964206e6f6e6365436f6d703a3a5f7472616e73666572546f6b656e733a2063616e6e6f74207472616e7366657220746f20746865207a65726f2061646472657373436f6d703a3a5f6d6f7665566f7465733a20766f746520616d6f756e7420756e646572666c6f7773436f6d703a3a5f7472616e73666572546f6b656e733a207472616e7366657220616d6f756e74206f766572666c6f7773436f6d703a3a5f7472616e73666572546f6b656e733a2063616e6e6f74207472616e736665722066726f6d20746865207a65726f2061646472657373436f6d703a3a7472616e7366657246726f6d3a207472616e7366657220616d6f756e742065786365656473207370656e64657220616c6c6f77616e6365436f6d703a3a5f6d6f7665566f7465733a20766f746520616d6f756e74206f766572666c6f7773a26469706673582212208f209c9174803d9ba28d40b5c4d7c0bd49220d0f6ea6b8600e383b75f487a00e64736f6c634300060c0033",
  "linkReferences": {},
  "deployedLinkReferences": {}
}