{
  "_format": "hh-sol-artifact-1",
  "contractName": "yVault",
  "sourceName": "contracts/vendor/yearn/vaults/yVault.sol",
  "abi": [
    {
      "inputs": [
        {
          "internalType": "address",
          "name": "_token",
          "type": "address"
        },
        {
          "internalType": "address",
          "name": "_controller",
          "type": "address"
        },
        {
          "internalType": "string",
          "name": "_name",
          "type": "string"
        },
        {
          "internalType": "string",
          "name": "_symbol",
          "type": "string"
        }
      ],
      "stateMutability": "nonpayable",
      "type": "constructor"
    },
    {
      "anonymous": false,
      "inputs": [
        {
          "indexed": true,
          "internalType": "address",
          "name": "owner",
          "type": "address"
        },
        {
          "indexed": true,
          "internalType": "address",
          "name": "spender",
          "type": "address"
        },
        {
          "indexed": false,
          "internalType": "uint256",
          "name": "value",
          "type": "uint256"
        }
      ],
      "name": "Approval",
      "type": "event"
    },
    {
      "anonymous": false,
      "inputs": [
        {
          "indexed": true,
          "internalType": "address",
          "name": "from",
          "type": "address"
        },
        {
          "indexed": true,
          "internalType": "address",
          "name": "to",
          "type": "address"
        },
        {
          "indexed": false,
          "internalType": "uint256",
          "name": "value",
          "type": "uint256"
        }
      ],
      "name": "Transfer",
      "type": "event"
    },
    {
      "inputs": [
        {
          "internalType": "address",
          "name": "owner",
          "type": "address"
        },
        {
          "internalType": "address",
          "name": "spender",
          "type": "address"
        }
      ],
      "name": "allowance",
      "outputs": [
        {
          "internalType": "uint256",
          "name": "",
          "type": "uint256"
        }
      ],
      "stateMutability": "view",
      "type": "function"
    },
    {
      "inputs": [
        {
          "internalType": "address",
          "name": "spender",
          "type": "address"
        },
        {
          "internalType": "uint256",
          "name": "amount",
          "type": "uint256"
        }
      ],
      "name": "approve",
      "outputs": [
        {
          "internalType": "bool",
          "name": "",
          "type": "bool"
        }
      ],
      "stateMutability": "nonpayable",
      "type": "function"
    },
    {
      "inputs": [],
      "name": "available",
      "outputs": [
        {
          "internalType": "uint256",
          "name": "",
          "type": "uint256"
        }
      ],
      "stateMutability": "view",
      "type": "function"
    },
    {
      "inputs": [],
      "name": "balance",
      "outputs": [
        {
          "internalType": "uint256",
          "name": "",
          "type": "uint256"
        }
      ],
      "stateMutability": "view",
      "type": "function"
    },
    {
      "inputs": [
        {
          "internalType": "address",
          "name": "account",
          "type": "address"
        }
      ],
      "name": "balanceOf",
      "outputs": [
        {
          "internalType": "uint256",
          "name": "",
          "type": "uint256"
        }
      ],
      "stateMutability": "view",
      "type": "function"
    },
    {
      "inputs": [],
      "name": "controller",
      "outputs": [
        {
          "internalType": "address",
          "name": "",
          "type": "address"
        }
      ],
      "stateMutability": "view",
      "type": "function"
    },
    {
      "inputs": [],
      "name": "decimals",
      "outputs": [
        {
          "internalType": "uint8",
          "name": "",
          "type": "uint8"
        }
      ],
      "stateMutability": "view",
      "type": "function"
    },
    {
      "inputs": [
        {
          "internalType": "address",
          "name": "spender",
          "type": "address"
        },
        {
          "internalType": "uint256",
          "name": "subtractedValue",
          "type": "uint256"
        }
      ],
      "name": "decreaseAllowance",
      "outputs": [
        {
          "internalType": "bool",
          "name": "",
          "type": "bool"
        }
      ],
      "stateMutability": "nonpayable",
      "type": "function"
    },
    {
      "inputs": [
        {
          "internalType": "uint256",
          "name": "_amount",
          "type": "uint256"
        }
      ],
      "name": "deposit",
      "outputs": [],
      "stateMutability": "nonpayable",
      "type": "function"
    },
    {
      "inputs": [],
      "name": "depositAll",
      "outputs": [],
      "stateMutability": "nonpayable",
      "type": "function"
    },
    {
      "inputs": [],
      "name": "earn",
      "outputs": [],
      "stateMutability": "nonpayable",
      "type": "function"
    },
    {
      "inputs": [],
      "name": "getPricePerFullShare",
      "outputs": [
        {
          "internalType": "uint256",
          "name": "",
          "type": "uint256"
        }
      ],
      "stateMutability": "view",
      "type": "function"
    },
    {
      "inputs": [],
      "name": "governance",
      "outputs": [
        {
          "internalType": "address",
          "name": "",
          "type": "address"
        }
      ],
      "stateMutability": "view",
      "type": "function"
    },
    {
      "inputs": [
        {
          "internalType": "address",
          "name": "reserve",
          "type": "address"
        },
        {
          "internalType": "uint256",
          "name": "amount",
          "type": "uint256"
        }
      ],
      "name": "harvest",
      "outputs": [],
      "stateMutability": "nonpayable",
      "type": "function"
    },
    {
      "inputs": [
        {
          "internalType": "address",
          "name": "spender",
          "type": "address"
        },
        {
          "internalType": "uint256",
          "name": "addedValue",
          "type": "uint256"
        }
      ],
      "name": "increaseAllowance",
      "outputs": [
        {
          "internalType": "bool",
          "name": "",
          "type": "bool"
        }
      ],
      "stateMutability": "nonpayable",
      "type": "function"
    },
    {
      "inputs": [],
      "name": "max",
      "outputs": [
        {
          "internalType": "uint256",
          "name": "",
          "type": "uint256"
        }
      ],
      "stateMutability": "view",
      "type": "function"
    },
    {
      "inputs": [],
      "name": "min",
      "outputs": [
        {
          "internalType": "uint256",
          "name": "",
          "type": "uint256"
        }
      ],
      "stateMutability": "view",
      "type": "function"
    },
    {
      "inputs": [],
      "name": "name",
      "outputs": [
        {
          "internalType": "string",
          "name": "",
          "type": "string"
        }
      ],
      "stateMutability": "view",
      "type": "function"
    },
    {
      "inputs": [
        {
          "internalType": "address",
          "name": "_controller",
          "type": "address"
        }
      ],
      "name": "setController",
      "outputs": [],
      "stateMutability": "nonpayable",
      "type": "function"
    },
    {
      "inputs": [
        {
          "internalType": "address",
          "name": "_governance",
          "type": "address"
        }
      ],
      "name": "setGovernance",
      "outputs": [],
      "stateMutability": "nonpayable",
      "type": "function"
    },
    {
      "inputs": [
        {
          "internalType": "uint256",
          "name": "_min",
          "type": "uint256"
        }
      ],
      "name": "setMin",
      "outputs": [],
      "stateMutability": "nonpayable",
      "type": "function"
    },
    {
      "inputs": [],
      "name": "symbol",
      "outputs": [
        {
          "internalType": "string",
          "name": "",
          "type": "string"
        }
      ],
      "stateMutability": "view",
      "type": "function"
    },
    {
      "inputs": [],
      "name": "token",
      "outputs": [
        {
          "internalType": "contract IERC20",
          "name": "",
          "type": "address"
        }
      ],
      "stateMutability": "view",
      "type": "function"
    },
    {
      "inputs": [],
      "name": "totalSupply",
      "outputs": [
        {
          "internalType": "uint256",
          "name": "",
          "type": "uint256"
        }
      ],
      "stateMutability": "view",
      "type": "function"
    },
    {
      "inputs": [
        {
          "internalType": "address",
          "name": "recipient",
          "type": "address"
        },
        {
          "internalType": "uint256",
          "name": "amount",
          "type": "uint256"
        }
      ],
      "name": "transfer",
      "outputs": [
        {
          "internalType": "bool",
          "name": "",
          "type": "bool"
        }
      ],
      "stateMutability": "nonpayable",
      "type": "function"
    },
    {
      "inputs": [
        {
          "internalType": "address",
          "name": "sender",
          "type": "address"
        },
        {
          "internalType": "address",
          "name": "recipient",
          "type": "address"
        },
        {
          "internalType": "uint256",
          "name": "amount",
          "type": "uint256"
        }
      ],
      "name": "transferFrom",
      "outputs": [
        {
          "internalType": "bool",
          "name": "",
          "type": "bool"
        }
      ],
      "stateMutability": "nonpayable",
      "type": "function"
    },
    {
      "inputs": [
        {
          "internalType": "uint256",
          "name": "_shares",
          "type": "uint256"
        }
      ],
      "name": "withdraw",
      "outputs": [],
      "stateMutability": "nonpayable",
      "type": "function"
    },
    {
      "inputs": [],
      "name": "withdrawAll",
      "outputs": [],
      "stateMutability": "nonpayable",
      "type": "function"
    }
  ],
  "bytecode": "0x608060405261251c6006553480156200001757600080fd5b5060405162001f8538038062001f85833981810160405260808110156200003d57600080fd5b815160208301516040808501805191519395929483019291846401000000008211156200006957600080fd5b9083019060208201858111156200007f57600080fd5b82516401000000008111828201881017156200009a57600080fd5b82525081516020918201929091019080838360005b83811015620000c9578181015183820152602001620000af565b50505050905090810190601f168015620000f75780820380516001836020036101000a031916815260200191505b50604052602001805160405193929190846401000000008211156200011b57600080fd5b9083019060208201858111156200013157600080fd5b82516401000000008111828201881017156200014c57600080fd5b82525081516020918201929091019080838360005b838110156200017b57818101518382015260200162000161565b50505050905090810190601f168015620001a95780820380516001836020036101000a031916815260200191505b50604052505082518391508290620001c9906003906020850190620002ca565b508051620001df906004906020840190620002ca565b50506005805460ff19166012179055506040805163313ce56760e01b815290516001600160a01b0386169163313ce567916004808301926020929190829003018186803b1580156200023057600080fd5b505afa15801562000245573d6000803e3d6000fd5b505050506040513d60208110156200025c57600080fd5b505160088054600580546001600160a01b0398891661010002610100600160a81b0319909116179055600780546001600160a01b031990811633179091559590961660ff909216600160a01b0260ff60a01b1990961695909517939093169290921790925550620003769050565b828054600181600116156101000203166002900490600052602060002090601f0160209004810192826200030257600085556200034d565b82601f106200031d57805160ff19168380011785556200034d565b828001600101855582156200034d579182015b828111156200034d57825182559160200191906001019062000330565b506200035b9291506200035f565b5090565b5b808211156200035b576000815560010162000360565b611bff80620003866000396000f3fe608060405234801561001057600080fd5b50600436106101c45760003560e01c8063853828b6116100f9578063b6b55f2511610097578063de5f626811610071578063de5f6268146104f9578063f77c479114610501578063f889794514610509578063fc0c546a14610511576101c4565b8063b6b55f25146104a6578063d389800f146104c3578063dd62ed3e146104cb576101c4565b8063a457c2d7116100d3578063a457c2d714610420578063a9059cbb1461044c578063ab033ea914610478578063b69ef8a81461049e576101c4565b8063853828b6146103ea57806392eefe9b146103f257806395d89b4114610418576101c4565b806339509351116101665780635aa6e675116101405780635aa6e675146103905780636ac5db19146103b457806370a08231146103bc57806377c7b8fc146103e2576101c4565b8063395093511461033f57806345dc3dd81461036b57806348a0d75414610388576101c4565b806318160ddd116101a257806318160ddd146102b457806323b872dd146102ce5780632e1a7d4d14610304578063313ce56714610321576101c4565b8063018ee9b7146101c957806306fdde03146101f7578063095ea7b314610274575b600080fd5b6101f5600480360360408110156101df57600080fd5b506001600160a01b038135169060200135610519565b005b6101ff6105d4565b6040805160208082528351818301528351919283929083019185019080838360005b83811015610239578181015183820152602001610221565b50505050905090810190601f1680156102665780820380516001836020036101000a031916815260200191505b509250505060405180910390f35b6102a06004803603604081101561028a57600080fd5b506001600160a01b03813516906020013561066a565b604080519115158252519081900360200190f35b6102bc610688565b60408051918252519081900360200190f35b6102a0600480360360608110156102e457600080fd5b506001600160a01b0381358116916020810135909116906040013561068e565b6101f56004803603602081101561031a57600080fd5b5035610716565b610329610917565b6040805160ff9092168252519081900360200190f35b6102a06004803603604081101561035557600080fd5b506001600160a01b038135169060200135610927565b6101f56004803603602081101561038157600080fd5b5035610975565b6102bc6109c7565b610398610a6e565b604080516001600160a01b039092168252519081900360200190f35b6102bc610a7d565b6102bc600480360360208110156103d257600080fd5b50356001600160a01b0316610a83565b6102bc610a9e565b6101f5610abf565b6101f56004803603602081101561040857600080fd5b50356001600160a01b0316610ad2565b6101ff610b41565b6102a06004803603604081101561043657600080fd5b506001600160a01b038135169060200135610ba2565b6102a06004803603604081101561046257600080fd5b506001600160a01b038135169060200135610c0a565b6101f56004803603602081101561048e57600080fd5b50356001600160a01b0316610c1e565b6102bc610c8d565b6101f5600480360360208110156104bc57600080fd5b5035610d93565b6101f5610f18565b6102bc600480360360408110156104e157600080fd5b506001600160a01b0381358116916020013516610fb8565b6101f5610fe3565b610398611065565b6102bc611074565b61039861107a565b6008546001600160a01b03163314610566576040805162461bcd60e51b815260206004820152600b60248201526a10b1b7b73a3937b63632b960a91b604482015290519081900360640190fd5b6005546001600160a01b038381166101009092041614156105b6576040805162461bcd60e51b81526020600482015260056024820152643a37b5b2b760d91b604482015290519081900360640190fd5b6008546105d0906001600160a01b0384811691168361108e565b5050565b60038054604080516020601f60026000196101006001881615020190951694909404938401819004810282018101909252828152606093909290918301828280156106605780601f1061063557610100808354040283529160200191610660565b820191906000526020600020905b81548152906001019060200180831161064357829003601f168201915b5050505050905090565b600061067e6106776110e0565b84846110e4565b5060015b92915050565b60025490565b600061069b8484846111d0565b61070b846106a76110e0565b61070685604051806060016040528060288152602001611ae9602891396001600160a01b038a166000908152600160205260408120906106e56110e0565b6001600160a01b03168152602081019190915260400160002054919061132b565b6110e4565b5060015b9392505050565b600061073b610723610688565b6107358461072f610c8d565b906113c2565b9061141b565b90506107473383611482565b600554604080516370a0823160e01b8152306004820152905160009261010090046001600160a01b0316916370a08231916024808301926020929190829003018186803b15801561079757600080fd5b505afa1580156107ab573d6000803e3d6000fd5b505050506040513d60208110156107c157600080fd5b50519050818110156108f65760006107d9838361157e565b6008546005546040805163f3fef3a360e01b81526001600160a01b036101009093048316600482015260248101859052905193945091169163f3fef3a39160448082019260009290919082900301818387803b15801561083857600080fd5b505af115801561084c573d6000803e3d6000fd5b5050600554604080516370a0823160e01b81523060048201529051600094506101009092046001600160a01b031692506370a08231916024808301926020929190829003018186803b1580156108a157600080fd5b505afa1580156108b5573d6000803e3d6000fd5b505050506040513d60208110156108cb57600080fd5b5051905060006108db828561157e565b9050828110156108f2576108ef84826115db565b94505b5050505b6005546109129061010090046001600160a01b0316338461108e565b505050565b600854600160a01b900460ff1690565b600061067e6109346110e0565b8461070685600160006109456110e0565b6001600160a01b03908116825260208083019390935260409182016000908120918c1681529252902054906115db565b6007546001600160a01b031633146109c2576040805162461bcd60e51b815260206004820152600b60248201526a21676f7665726e616e636560a81b604482015290519081900360640190fd5b600655565b6000610a69612710610735600654600560019054906101000a90046001600160a01b03166001600160a01b03166370a08231306040518263ffffffff1660e01b815260040180826001600160a01b0316815260200191505060206040518083038186803b158015610a3757600080fd5b505afa158015610a4b573d6000803e3d6000fd5b505050506040513d6020811015610a6157600080fd5b5051906113c2565b905090565b6007546001600160a01b031681565b61271081565b6001600160a01b031660009081526020819052604090205490565b6000610a69610aab610688565b610735670de0b6b3a764000061072f610c8d565b610ad0610acb33610a83565b610716565b565b6007546001600160a01b03163314610b1f576040805162461bcd60e51b815260206004820152600b60248201526a21676f7665726e616e636560a81b604482015290519081900360640190fd5b600880546001600160a01b0319166001600160a01b0392909216919091179055565b60048054604080516020601f60026000196101006001881615020190951694909404938401819004810282018101909252828152606093909290918301828280156106605780601f1061063557610100808354040283529160200191610660565b600061067e610baf6110e0565b8461070685604051806060016040528060258152602001611ba56025913960016000610bd96110e0565b6001600160a01b03908116825260208083019390935260409182016000908120918d1681529252902054919061132b565b600061067e610c176110e0565b84846111d0565b6007546001600160a01b03163314610c6b576040805162461bcd60e51b815260206004820152600b60248201526a21676f7665726e616e636560a81b604482015290519081900360640190fd5b600780546001600160a01b0319166001600160a01b0392909216919091179055565b600854600554604080516370a0823160e01b81526001600160a01b03610100909304831660048201529051600093610a699316916370a08231916024808301926020929190829003018186803b158015610ce657600080fd5b505afa158015610cfa573d6000803e3d6000fd5b505050506040513d6020811015610d1057600080fd5b5051600554604080516370a0823160e01b815230600482015290516101009092046001600160a01b0316916370a0823191602480820192602092909190829003018186803b158015610d6157600080fd5b505afa158015610d75573d6000803e3d6000fd5b505050506040513d6020811015610d8b57600080fd5b5051906115db565b6000610d9d610c8d565b90506000600560019054906101000a90046001600160a01b03166001600160a01b03166370a08231306040518263ffffffff1660e01b815260040180826001600160a01b0316815260200191505060206040518083038186803b158015610e0357600080fd5b505afa158015610e17573d6000803e3d6000fd5b505050506040513d6020811015610e2d57600080fd5b5051600554909150610e4f9061010090046001600160a01b0316333086611635565b600554604080516370a0823160e01b8152306004820152905160009261010090046001600160a01b0316916370a08231916024808301926020929190829003018186803b158015610e9f57600080fd5b505afa158015610eb3573d6000803e3d6000fd5b505050506040513d6020811015610ec957600080fd5b50519050610ed7818361157e565b93506000610ee3610688565b610eee575083610f07565b610f0484610735610efd610688565b88906113c2565b90505b610f113382611695565b5050505050565b6000610f226109c7565b600854600554919250610f479161010090046001600160a01b0390811691168361108e565b6008546005546040805163b02bf4b960e01b81526101009092046001600160a01b03908116600484015260248301859052905192169163b02bf4b99160448082019260009290919082900301818387803b158015610fa457600080fd5b505af1158015610f11573d6000803e3d6000fd5b6001600160a01b03918216600090815260016020908152604080832093909416825291909152205490565b600554604080516370a0823160e01b81523360048201529051610ad09261010090046001600160a01b0316916370a08231916024808301926020929190829003018186803b15801561103457600080fd5b505afa158015611048573d6000803e3d6000fd5b505050506040513d602081101561105e57600080fd5b5051610d93565b6008546001600160a01b031681565b60065481565b60055461010090046001600160a01b031681565b604080516001600160a01b038416602482015260448082018490528251808303909101815260649091019091526020810180516001600160e01b031663a9059cbb60e01b179052610912908490611785565b3390565b6001600160a01b0383166111295760405162461bcd60e51b8152600401808060200182810382526024815260200180611b576024913960400191505060405180910390fd5b6001600160a01b03821661116e5760405162461bcd60e51b8152600401808060200182810382526022815260200180611a5a6022913960400191505060405180910390fd5b6001600160a01b03808416600081815260016020908152604080832094871680845294825291829020859055815185815291517f8c5be1e5ebec7d5bd14f71427d1e84f3dd0314c0f7b2291e5b200ac8c7c3b9259281900390910190a3505050565b6001600160a01b0383166112155760405162461bcd60e51b8152600401808060200182810382526025815260200180611b326025913960400191505060405180910390fd5b6001600160a01b03821661125a5760405162461bcd60e51b8152600401808060200182810382526023815260200180611a156023913960400191505060405180910390fd5b611265838383610912565b6112a281604051806060016040528060268152602001611a7c602691396001600160a01b038616600090815260208190526040902054919061132b565b6001600160a01b0380851660009081526020819052604080822093909355908416815220546112d190826115db565b6001600160a01b038084166000818152602081815260409182902094909455805185815290519193928716927fddf252ad1be2c89b69c2b068fc378daa952ba7f163c4a11628f55a4df523b3ef92918290030190a3505050565b600081848411156113ba5760405162461bcd60e51b81526004018080602001828103825283818151815260200191508051906020019080838360005b8381101561137f578181015183820152602001611367565b50505050905090810190601f1680156113ac5780820380516001836020036101000a031916815260200191505b509250505060405180910390fd5b505050900390565b6000826113d157506000610682565b828202828482816113de57fe5b041461070f5760405162461bcd60e51b8152600401808060200182810382526021815260200180611ac86021913960400191505060405180910390fd5b6000808211611471576040805162461bcd60e51b815260206004820152601a60248201527f536166654d6174683a206469766973696f6e206279207a65726f000000000000604482015290519081900360640190fd5b81838161147a57fe5b049392505050565b6001600160a01b0382166114c75760405162461bcd60e51b8152600401808060200182810382526021815260200180611b116021913960400191505060405180910390fd5b6114d382600083610912565b61151081604051806060016040528060228152602001611a38602291396001600160a01b038516600090815260208190526040902054919061132b565b6001600160a01b038316600090815260208190526040902055600254611536908261157e565b6002556040805182815290516000916001600160a01b038516917fddf252ad1be2c89b69c2b068fc378daa952ba7f163c4a11628f55a4df523b3ef9181900360200190a35050565b6000828211156115d5576040805162461bcd60e51b815260206004820152601e60248201527f536166654d6174683a207375627472616374696f6e206f766572666c6f770000604482015290519081900360640190fd5b50900390565b60008282018381101561070f576040805162461bcd60e51b815260206004820152601b60248201527f536166654d6174683a206164646974696f6e206f766572666c6f770000000000604482015290519081900360640190fd5b604080516001600160a01b0380861660248301528416604482015260648082018490528251808303909101815260849091019091526020810180516001600160e01b03166323b872dd60e01b17905261168f908590611785565b50505050565b6001600160a01b0382166116f0576040805162461bcd60e51b815260206004820152601f60248201527f45524332303a206d696e7420746f20746865207a65726f206164647265737300604482015290519081900360640190fd5b6116fc60008383610912565b60025461170990826115db565b6002556001600160a01b03821660009081526020819052604090205461172f90826115db565b6001600160a01b0383166000818152602081815260408083209490945583518581529351929391927fddf252ad1be2c89b69c2b068fc378daa952ba7f163c4a11628f55a4df523b3ef9281900390910190a35050565b60006117da826040518060400160405280602081526020017f5361666545524332303a206c6f772d6c6576656c2063616c6c206661696c6564815250856001600160a01b03166118369092919063ffffffff16565b805190915015610912578080602001905160208110156117f957600080fd5b50516109125760405162461bcd60e51b815260040180806020018281038252602a815260200180611b7b602a913960400191505060405180910390fd5b6060611845848460008561184d565b949350505050565b60608247101561188e5760405162461bcd60e51b8152600401808060200182810382526026815260200180611aa26026913960400191505060405180910390fd5b611897856119a8565b6118e8576040805162461bcd60e51b815260206004820152601d60248201527f416464726573733a2063616c6c20746f206e6f6e2d636f6e7472616374000000604482015290519081900360640190fd5b600080866001600160a01b031685876040518082805190602001908083835b602083106119265780518252601f199092019160209182019101611907565b6001836020036101000a03801982511681845116808217855250505050505090500191505060006040518083038185875af1925050503d8060008114611988576040519150601f19603f3d011682016040523d82523d6000602084013e61198d565b606091505b509150915061199d8282866119ae565b979650505050505050565b3b151590565b606083156119bd57508161070f565b8251156119cd5782518084602001fd5b60405162461bcd60e51b815260206004820181815284516024840152845185939192839260440191908501908083836000831561137f57818101518382015260200161136756fe45524332303a207472616e7366657220746f20746865207a65726f206164647265737345524332303a206275726e20616d6f756e7420657863656564732062616c616e636545524332303a20617070726f766520746f20746865207a65726f206164647265737345524332303a207472616e7366657220616d6f756e7420657863656564732062616c616e6365416464726573733a20696e73756666696369656e742062616c616e636520666f722063616c6c536166654d6174683a206d756c7469706c69636174696f6e206f766572666c6f7745524332303a207472616e7366657220616d6f756e74206578636565647320616c6c6f77616e636545524332303a206275726e2066726f6d20746865207a65726f206164647265737345524332303a207472616e736665722066726f6d20746865207a65726f206164647265737345524332303a20617070726f76652066726f6d20746865207a65726f20616464726573735361666545524332303a204552433230206f7065726174696f6e20646964206e6f74207375636365656445524332303a2064656372656173656420616c6c6f77616e63652062656c6f77207a65726fa264697066735822122073db564ba10a7d36b7ee44ef6586a03663ab1893d048be94d6be3d391ad6bd4b64736f6c63430007060033",
  "linkReferences": {},
  "deployedLinkReferences": {}
}