{
  "_format": "hh-sol-artifact-1",
  "contractName": "YRegistry",
  "sourceName": "contracts/yearn/registries/YRegistry.sol",
  "abi": [
    {
      "inputs": [
        {
          "internalType": "address",
          "name": "_governance",
          "type": "address"
        }
      ],
      "stateMutability": "nonpayable",
      "type": "constructor"
    },
    {
      "inputs": [],
      "name": "acceptGovernance",
      "outputs": [],
      "stateMutability": "nonpayable",
      "type": "function"
    },
    {
      "inputs": [
        {
          "internalType": "address",
          "name": "_vault",
          "type": "address"
        }
      ],
      "name": "addDelegatedVault",
      "outputs": [],
      "stateMutability": "nonpayable",
      "type": "function"
    },
    {
      "inputs": [
        {
          "internalType": "address",
          "name": "_vault",
          "type": "address"
        }
      ],
      "name": "addVault",
      "outputs": [],
      "stateMutability": "nonpayable",
      "type": "function"
    },
    {
      "inputs": [
        {
          "internalType": "address",
          "name": "_vault",
          "type": "address"
        }
      ],
      "name": "addWrappedVault",
      "outputs": [],
      "stateMutability": "nonpayable",
      "type": "function"
    },
    {
      "inputs": [],
      "name": "getName",
      "outputs": [
        {
          "internalType": "string",
          "name": "",
          "type": "string"
        }
      ],
      "stateMutability": "pure",
      "type": "function"
    },
    {
      "inputs": [
        {
          "internalType": "uint256",
          "name": "index",
          "type": "uint256"
        }
      ],
      "name": "getVault",
      "outputs": [
        {
          "internalType": "address",
          "name": "vault",
          "type": "address"
        }
      ],
      "stateMutability": "view",
      "type": "function"
    },
    {
      "inputs": [
        {
          "internalType": "address",
          "name": "_vault",
          "type": "address"
        }
      ],
      "name": "getVaultInfo",
      "outputs": [
        {
          "internalType": "address",
          "name": "controller",
          "type": "address"
        },
        {
          "internalType": "address",
          "name": "token",
          "type": "address"
        },
        {
          "internalType": "address",
          "name": "strategy",
          "type": "address"
        },
        {
          "internalType": "bool",
          "name": "isWrapped",
          "type": "bool"
        },
        {
          "internalType": "bool",
          "name": "isDelegated",
          "type": "bool"
        }
      ],
      "stateMutability": "view",
      "type": "function"
    },
    {
      "inputs": [],
      "name": "getVaults",
      "outputs": [
        {
          "internalType": "address[]",
          "name": "",
          "type": "address[]"
        }
      ],
      "stateMutability": "view",
      "type": "function"
    },
    {
      "inputs": [],
      "name": "getVaultsInfo",
      "outputs": [
        {
          "internalType": "address[]",
          "name": "vaultsAddresses",
          "type": "address[]"
        },
        {
          "internalType": "address[]",
          "name": "controllerArray",
          "type": "address[]"
        },
        {
          "internalType": "address[]",
          "name": "tokenArray",
          "type": "address[]"
        },
        {
          "internalType": "address[]",
          "name": "strategyArray",
          "type": "address[]"
        },
        {
          "internalType": "bool[]",
          "name": "isWrappedArray",
          "type": "bool[]"
        },
        {
          "internalType": "bool[]",
          "name": "isDelegatedArray",
          "type": "bool[]"
        }
      ],
      "stateMutability": "view",
      "type": "function"
    },
    {
      "inputs": [],
      "name": "getVaultsLength",
      "outputs": [
        {
          "internalType": "uint256",
          "name": "",
          "type": "uint256"
        }
      ],
      "stateMutability": "view",
      "type": "function"
    },
    {
      "inputs": [],
      "name": "governance",
      "outputs": [
        {
          "internalType": "address",
          "name": "",
          "type": "address"
        }
      ],
      "stateMutability": "view",
      "type": "function"
    },
    {
      "inputs": [
        {
          "internalType": "address",
          "name": "",
          "type": "address"
        }
      ],
      "name": "isDelegatedVault",
      "outputs": [
        {
          "internalType": "bool",
          "name": "",
          "type": "bool"
        }
      ],
      "stateMutability": "view",
      "type": "function"
    },
    {
      "inputs": [],
      "name": "pendingGovernance",
      "outputs": [
        {
          "internalType": "address",
          "name": "",
          "type": "address"
        }
      ],
      "stateMutability": "view",
      "type": "function"
    },
    {
      "inputs": [
        {
          "internalType": "address",
          "name": "_vault",
          "type": "address"
        }
      ],
      "name": "removeVault",
      "outputs": [],
      "stateMutability": "nonpayable",
      "type": "function"
    },
    {
      "inputs": [
        {
          "internalType": "address",
          "name": "_pendingGovernance",
          "type": "address"
        }
      ],
      "name": "setPendingGovernance",
      "outputs": [],
      "stateMutability": "nonpayable",
      "type": "function"
    }
  ],
  "bytecode": "0x608060405234801561001057600080fd5b506040516117cf3803806117cf8339818101604052602081101561003357600080fd5b50516001600160a01b038116610085576040805162461bcd60e51b81526020600482015260126024820152714d697373696e6720476f7665726e616e636560701b604482015290519081900360640190fd5b600080546001600160a01b039092166001600160a01b031990921691909117905561171a806100b56000396000f3fe608060405234801561001057600080fd5b50600436106100f55760003560e01c806344d00f821161009757806390229af71161006657806390229af71461049e5780639403b63414610500578063ceb68c231461051d578063f39c38a014610543576100f5565b806344d00f82146102475780635aa6e6751461029f57806361de8389146102c35780636b708788146102e9576100f5565b8063238efcbc116100d3578063238efcbc146101c5578063256b5a02146101cd57806344064be7146101f357806344b19dfc1461022d576100f5565b80630abb6035146100fa57806317d7de7c146101225780632019c75a1461019f575b600080fd5b6101206004803603602081101561011057600080fd5b50356001600160a01b031661054b565b005b61012a6105b6565b6040805160208082528351818301528351919283929083019185019080838360005b8381101561016457818101518382015260200161014c565b50505050905090810190601f1680156101915780820380516001836020036101000a031916815260200191505b509250505060405180910390f35b610120600480360360208110156101b557600080fd5b50356001600160a01b03166105d9565b610120610652565b610120600480360360208110156101e357600080fd5b50356001600160a01b03166106af565b6102196004803603602081101561020957600080fd5b50356001600160a01b0316610701565b604080519115158252519081900360200190f35b610235610716565b60408051918252519081900360200190f35b61024f610727565b60408051602080825283518183015283519192839290830191858101910280838360005b8381101561028b578181015183820152602001610273565b505050509050019250505060405180910390f35b6102a76107c8565b604080516001600160a01b039092168252519081900360200190f35b610120600480360360208110156102d957600080fd5b50356001600160a01b03166107d7565b6102f16108bb565b6040518080602001806020018060200180602001806020018060200187810387528d818151815260200191508051906020019060200280838360005b8381101561034557818101518382015260200161032d565b5050505090500187810386528c818151815260200191508051906020019060200280838360005b8381101561038457818101518382015260200161036c565b5050505090500187810385528b818151815260200191508051906020019060200280838360005b838110156103c35781810151838201526020016103ab565b5050505090500187810384528a818151815260200191508051906020019060200280838360005b838110156104025781810151838201526020016103ea565b50505050905001878103835289818151815260200191508051906020019060200280838360005b83811015610441578181015183820152602001610429565b50505050905001878103825288818151815260200191508051906020019060200280838360005b83811015610480578181015183820152602001610468565b505050509050019c5050505050505050505050505060405180910390f35b6104c4600480360360208110156104b457600080fd5b50356001600160a01b0316610bd5565b604080516001600160a01b0396871681529486166020860152929094168383015215156060830152911515608082015290519081900360a00190f35b6102a76004803603602081101561051657600080fd5b5035610bf8565b6101206004803603602081101561053357600080fd5b50356001600160a01b0316610c0b565b6102a7610c5f565b6000546001600160a01b031633146105945760405162461bcd60e51b81526004018080602001828103825260278152602001806116be6027913960400191505060405180910390fd5b600180546001600160a01b0319166001600160a01b0392909216919091179055565b60408051808201909152600981526859526567697374727960b81b602082015290565b6000546001600160a01b031633146106225760405162461bcd60e51b81526004018080602001828103825260278152602001806116be6027913960400191505060405180910390fd5b61062b81610c6e565b61063481610d30565b600061063f82610d54565b50505050905061064e81611357565b5050565b6001546001600160a01b0316331461069b5760405162461bcd60e51b815260040180806020018281038252602e815260200180611669602e913960400191505060405180910390fd5b600080546001600160a01b03191633179055565b6000546001600160a01b031633146106f85760405162461bcd60e51b81526004018080602001828103825260278152602001806116be6027913960400191505060405180910390fd5b61063481610c6e565b60076020526000908152604090205460ff1681565b60006107226002611374565b905090565b6060806107346002611374565b67ffffffffffffffff8111801561074a57600080fd5b50604051908082528060200260200182016040528015610774578160200160208202803683370190505b50905060005b6107846002611374565b8110156107c25761079660028261137f565b8282815181106107a257fe5b6001600160a01b039092166020928302919091019091015260010161077a565b50905090565b6000546001600160a01b031681565b6000546001600160a01b031633146108205760405162461bcd60e51b81526004018080602001828103825260278152602001806116be6027913960400191505060405180910390fd5b61082981610c6e565b6000816001600160a01b031663fbfa77cf6040518163ffffffff1660e01b815260040160206040518083038186803b15801561086457600080fd5b505afa158015610878573d6000803e3d6000fd5b505050506040513d602081101561088e57600080fd5b5051905061089c8282611392565b60006108a783610d54565b5050505090506108b681611357565b505050565b6060806060806060806108ce6002611374565b67ffffffffffffffff811180156108e457600080fd5b5060405190808252806020026020018201604052801561090e578160200160208202803683370190505b50955061091b6002611374565b67ffffffffffffffff8111801561093157600080fd5b5060405190808252806020026020018201604052801561095b578160200160208202803683370190505b5094506109686002611374565b67ffffffffffffffff8111801561097e57600080fd5b506040519080825280602002602001820160405280156109a8578160200160208202803683370190505b5093506109b56002611374565b67ffffffffffffffff811180156109cb57600080fd5b506040519080825280602002602001820160405280156109f5578160200160208202803683370190505b509250610a026002611374565b67ffffffffffffffff81118015610a1857600080fd5b50604051908082528060200260200182016040528015610a42578160200160208202803683370190505b509150610a4f6002611374565b67ffffffffffffffff81118015610a6557600080fd5b50604051908082528060200260200182016040528015610a8f578160200160208202803683370190505b50905060005b610a9f6002611374565b811015610bcc57610ab160028261137f565b878281518110610abd57fe5b6001600160a01b0390921660209283029190910190910152600080808080610aee610ae960028861137f565b610d54565b94509450945094509450848b8781518110610b0557fe5b60200260200101906001600160a01b031690816001600160a01b031681525050838a8781518110610b3257fe5b60200260200101906001600160a01b031690816001600160a01b03168152505082898781518110610b5f57fe5b60200260200101906001600160a01b031690816001600160a01b03168152505081888781518110610b8c57fe5b60200260200101901515908115158152505080878781518110610bab57fe5b91151560209283029190910190910152505060019093019250610a95915050565b50909192939495565b6000806000806000610be686610d54565b939a9299509097509550909350915050565b6000610c0560028361137f565b92915050565b6000546001600160a01b03163314610c545760405162461bcd60e51b81526004018080602001828103825260278152602001806116be6027913960400191505060405180910390fd5b61064e600282611423565b6001546001600160a01b031681565b610c80816001600160a01b0316611438565b610cd1576040805162461bcd60e51b815260206004820152601760248201527f5661756c74206973206e6f74206120636f6e7472616374000000000000000000604482015290519081900360640190fd5b610cdc60028261143e565b15610d25576040805162461bcd60e51b81526020600482015260146024820152735661756c7420616c72656164792065786973747360601b604482015290519081900360640190fd5b61064e600282611453565b6001600160a01b03166000908152600760205260409020805460ff19166001179055565b6001600160a01b03808216600090815260066020526040812054909182918291161580159082908690610d9e57506001600160a01b03808716600090815260066020526040902054165b6001600160a01b03811660008181526007602090815260409182902054825163f77c479160e01b8152925160ff909116955063f77c4791926004808201939291829003018186803b158015610df257600080fd5b505afa158015610e06573d6000803e3d6000fd5b505050506040513d6020811015610e1c57600080fd5b50519550828015610ea4575060006001600160a01b0316816001600160a01b0316636f307dc36040518163ffffffff1660e01b815260040160206040518083038186803b158015610e6c57600080fd5b505afa158015610e80573d6000803e3d6000fd5b505050506040513d6020811015610e9657600080fd5b50516001600160a01b031614155b15610f1557866001600160a01b031663fc0c546a6040518163ffffffff1660e01b815260040160206040518083038186803b158015610ee257600080fd5b505afa158015610ef6573d6000803e3d6000fd5b505050506040513d6020811015610f0c57600080fd5b50519450610f7d565b806001600160a01b031663fc0c546a6040518163ffffffff1660e01b815260040160206040518083038186803b158015610f4e57600080fd5b505afa158015610f62573d6000803e3d6000fd5b505050506040513d6020811015610f7857600080fd5b505194505b811561100357856001600160a01b03166339ebf823826040518263ffffffff1660e01b815260040180826001600160a01b0316815260200191505060206040518083038186803b158015610fd057600080fd5b505afa158015610fe4573d6000803e3d6000fd5b505050506040513d6020811015610ffa57600080fd5b5051935061107f565b856001600160a01b03166339ebf823866040518263ffffffff1660e01b815260040180826001600160a01b0316815260200191505060206040518083038186803b15801561105057600080fd5b505afa158015611064573d6000803e3d6000fd5b505050506040513d602081101561107a57600080fd5b505193505b6000821561110757866001600160a01b031663a622ee7c866040518263ffffffff1660e01b815260040180826001600160a01b0316815260200191505060206040518083038186803b1580156110d457600080fd5b505afa1580156110e8573d6000803e3d6000fd5b505050506040513d60208110156110fe57600080fd5b50519050611183565b866001600160a01b031663a622ee7c876040518263ffffffff1660e01b815260040180826001600160a01b0316815260200191505060206040518083038186803b15801561115457600080fd5b505afa158015611168573d6000803e3d6000fd5b505050506040513d602081101561117e57600080fd5b505190505b816001600160a01b0316816001600160a01b0316146111d35760405162461bcd60e51b81526004018080602001828103825260278152602001806116976027913960400191505060405180910390fd5b8315611292576000826001600160a01b0316636f307dc36040518163ffffffff1660e01b815260040160206040518083038186803b15801561121457600080fd5b505afa158015611228573d6000803e3d6000fd5b505050506040513d602081101561123e57600080fd5b505190506001600160a01b038082169088161461128c5760405162461bcd60e51b81526004018080602001828103825260298152602001806116406029913960400191505060405180910390fd5b5061134c565b8261134c576000856001600160a01b0316631f1fcd516040518163ffffffff1660e01b815260040160206040518083038186803b1580156112d257600080fd5b505afa1580156112e6573d6000803e3d6000fd5b505050506040513d60208110156112fc57600080fd5b505190506001600160a01b038781169082161461134a5760405162461bcd60e51b815260040180806020018281038252602581526020018061161b6025913960400191505060405180910390fd5b505b505091939590929450565b61136260048261143e565b6113715761064e600482611453565b50565b6000610c0582611468565b600061138b838361146c565b9392505050565b6113a4816001600160a01b0316611438565b6113f5576040805162461bcd60e51b815260206004820152601e60248201527f577261707065645661756c74206973206e6f74206120636f6e74726163740000604482015290519081900360640190fd5b6001600160a01b03918216600090815260066020526040902080546001600160a01b03191691909216179055565b600061138b836001600160a01b0384166114d0565b3b151590565b600061138b836001600160a01b038416611596565b600061138b836001600160a01b0384166115ae565b5490565b815460009082106114ae5760405162461bcd60e51b81526004018080602001828103825260228152602001806115f96022913960400191505060405180910390fd5b8260000182815481106114bd57fe5b9060005260206000200154905092915050565b6000818152600183016020526040812054801561158c578354600019808301919081019060009087908390811061150357fe5b906000526020600020015490508087600001848154811061152057fe5b60009182526020808320909101929092558281526001898101909252604090209084019055865487908061155057fe5b60019003818190600052602060002001600090559055866001016000878152602001908152602001600020600090556001945050505050610c05565b6000915050610c05565b60009081526001919091016020526040902054151590565b60006115ba8383611596565b6115f057508154600181810184556000848152602080822090930184905584548482528286019093526040902091909155610c05565b506000610c0556fe456e756d657261626c655365743a20696e646578206f7574206f6620626f756e6473537472617465677920746f6b656e206164647265737320646f6573206e6f74206d61746368577261707065645661756c7420746f6b656e206164647265737320646f6573206e6f74206d617463684f6e6c792070656e64696e67476f7665726e616e63652063616e2063616c6c20746869732066756e6374696f6e2e436f6e74726f6c6c6572207661756c74206164647265737320646f6573206e6f74206d617463684f6e6c7920676f7665726e616e63652063616e2063616c6c20746869732066756e6374696f6e2ea2646970667358221220c834197574595adc10ead7f4b238795f958e6a55a0da6d2ed53da689a3c7c56f64736f6c634300060c0033",
  "linkReferences": {},
  "deployedLinkReferences": {}
}