{
  "_format": "hh-sol-artifact-1",
  "contractName": "yWETH",
  "sourceName": "contracts/yearn/vaults/yWETH.sol",
  "abi": [
    {
      "inputs": [
        {
          "internalType": "address",
          "name": "_token",
          "type": "address"
        },
        {
          "internalType": "address",
          "name": "_controller",
          "type": "address"
        }
      ],
      "stateMutability": "nonpayable",
      "type": "constructor"
    },
    {
      "anonymous": false,
      "inputs": [
        {
          "indexed": true,
          "internalType": "address",
          "name": "owner",
          "type": "address"
        },
        {
          "indexed": true,
          "internalType": "address",
          "name": "spender",
          "type": "address"
        },
        {
          "indexed": false,
          "internalType": "uint256",
          "name": "value",
          "type": "uint256"
        }
      ],
      "name": "Approval",
      "type": "event"
    },
    {
      "anonymous": false,
      "inputs": [
        {
          "indexed": true,
          "internalType": "address",
          "name": "from",
          "type": "address"
        },
        {
          "indexed": true,
          "internalType": "address",
          "name": "to",
          "type": "address"
        },
        {
          "indexed": false,
          "internalType": "uint256",
          "name": "value",
          "type": "uint256"
        }
      ],
      "name": "Transfer",
      "type": "event"
    },
    {
      "stateMutability": "payable",
      "type": "fallback"
    },
    {
      "inputs": [
        {
          "internalType": "address",
          "name": "owner",
          "type": "address"
        },
        {
          "internalType": "address",
          "name": "spender",
          "type": "address"
        }
      ],
      "name": "allowance",
      "outputs": [
        {
          "internalType": "uint256",
          "name": "",
          "type": "uint256"
        }
      ],
      "stateMutability": "view",
      "type": "function"
    },
    {
      "inputs": [
        {
          "internalType": "address",
          "name": "spender",
          "type": "address"
        },
        {
          "internalType": "uint256",
          "name": "amount",
          "type": "uint256"
        }
      ],
      "name": "approve",
      "outputs": [
        {
          "internalType": "bool",
          "name": "",
          "type": "bool"
        }
      ],
      "stateMutability": "nonpayable",
      "type": "function"
    },
    {
      "inputs": [],
      "name": "available",
      "outputs": [
        {
          "internalType": "uint256",
          "name": "",
          "type": "uint256"
        }
      ],
      "stateMutability": "view",
      "type": "function"
    },
    {
      "inputs": [],
      "name": "balance",
      "outputs": [
        {
          "internalType": "uint256",
          "name": "",
          "type": "uint256"
        }
      ],
      "stateMutability": "view",
      "type": "function"
    },
    {
      "inputs": [
        {
          "internalType": "address",
          "name": "account",
          "type": "address"
        }
      ],
      "name": "balanceOf",
      "outputs": [
        {
          "internalType": "uint256",
          "name": "",
          "type": "uint256"
        }
      ],
      "stateMutability": "view",
      "type": "function"
    },
    {
      "inputs": [],
      "name": "controller",
      "outputs": [
        {
          "internalType": "address",
          "name": "",
          "type": "address"
        }
      ],
      "stateMutability": "view",
      "type": "function"
    },
    {
      "inputs": [],
      "name": "decimals",
      "outputs": [
        {
          "internalType": "uint8",
          "name": "",
          "type": "uint8"
        }
      ],
      "stateMutability": "view",
      "type": "function"
    },
    {
      "inputs": [
        {
          "internalType": "address",
          "name": "spender",
          "type": "address"
        },
        {
          "internalType": "uint256",
          "name": "subtractedValue",
          "type": "uint256"
        }
      ],
      "name": "decreaseAllowance",
      "outputs": [
        {
          "internalType": "bool",
          "name": "",
          "type": "bool"
        }
      ],
      "stateMutability": "nonpayable",
      "type": "function"
    },
    {
      "inputs": [
        {
          "internalType": "uint256",
          "name": "_amount",
          "type": "uint256"
        }
      ],
      "name": "deposit",
      "outputs": [],
      "stateMutability": "nonpayable",
      "type": "function"
    },
    {
      "inputs": [],
      "name": "depositAll",
      "outputs": [],
      "stateMutability": "nonpayable",
      "type": "function"
    },
    {
      "inputs": [],
      "name": "depositETH",
      "outputs": [],
      "stateMutability": "payable",
      "type": "function"
    },
    {
      "inputs": [],
      "name": "earn",
      "outputs": [],
      "stateMutability": "nonpayable",
      "type": "function"
    },
    {
      "inputs": [],
      "name": "getPricePerFullShare",
      "outputs": [
        {
          "internalType": "uint256",
          "name": "",
          "type": "uint256"
        }
      ],
      "stateMutability": "view",
      "type": "function"
    },
    {
      "inputs": [],
      "name": "governance",
      "outputs": [
        {
          "internalType": "address",
          "name": "",
          "type": "address"
        }
      ],
      "stateMutability": "view",
      "type": "function"
    },
    {
      "inputs": [
        {
          "internalType": "address",
          "name": "reserve",
          "type": "address"
        },
        {
          "internalType": "uint256",
          "name": "amount",
          "type": "uint256"
        }
      ],
      "name": "harvest",
      "outputs": [],
      "stateMutability": "nonpayable",
      "type": "function"
    },
    {
      "inputs": [
        {
          "internalType": "address",
          "name": "spender",
          "type": "address"
        },
        {
          "internalType": "uint256",
          "name": "addedValue",
          "type": "uint256"
        }
      ],
      "name": "increaseAllowance",
      "outputs": [
        {
          "internalType": "bool",
          "name": "",
          "type": "bool"
        }
      ],
      "stateMutability": "nonpayable",
      "type": "function"
    },
    {
      "inputs": [],
      "name": "max",
      "outputs": [
        {
          "internalType": "uint256",
          "name": "",
          "type": "uint256"
        }
      ],
      "stateMutability": "view",
      "type": "function"
    },
    {
      "inputs": [],
      "name": "min",
      "outputs": [
        {
          "internalType": "uint256",
          "name": "",
          "type": "uint256"
        }
      ],
      "stateMutability": "view",
      "type": "function"
    },
    {
      "inputs": [],
      "name": "name",
      "outputs": [
        {
          "internalType": "string",
          "name": "",
          "type": "string"
        }
      ],
      "stateMutability": "view",
      "type": "function"
    },
    {
      "inputs": [
        {
          "internalType": "address",
          "name": "_controller",
          "type": "address"
        }
      ],
      "name": "setController",
      "outputs": [],
      "stateMutability": "nonpayable",
      "type": "function"
    },
    {
      "inputs": [
        {
          "internalType": "address",
          "name": "_governance",
          "type": "address"
        }
      ],
      "name": "setGovernance",
      "outputs": [],
      "stateMutability": "nonpayable",
      "type": "function"
    },
    {
      "inputs": [
        {
          "internalType": "uint256",
          "name": "_min",
          "type": "uint256"
        }
      ],
      "name": "setMin",
      "outputs": [],
      "stateMutability": "nonpayable",
      "type": "function"
    },
    {
      "inputs": [],
      "name": "symbol",
      "outputs": [
        {
          "internalType": "string",
          "name": "",
          "type": "string"
        }
      ],
      "stateMutability": "view",
      "type": "function"
    },
    {
      "inputs": [],
      "name": "token",
      "outputs": [
        {
          "internalType": "contract IERC20",
          "name": "",
          "type": "address"
        }
      ],
      "stateMutability": "view",
      "type": "function"
    },
    {
      "inputs": [],
      "name": "totalSupply",
      "outputs": [
        {
          "internalType": "uint256",
          "name": "",
          "type": "uint256"
        }
      ],
      "stateMutability": "view",
      "type": "function"
    },
    {
      "inputs": [
        {
          "internalType": "address",
          "name": "recipient",
          "type": "address"
        },
        {
          "internalType": "uint256",
          "name": "amount",
          "type": "uint256"
        }
      ],
      "name": "transfer",
      "outputs": [
        {
          "internalType": "bool",
          "name": "",
          "type": "bool"
        }
      ],
      "stateMutability": "nonpayable",
      "type": "function"
    },
    {
      "inputs": [
        {
          "internalType": "address",
          "name": "sender",
          "type": "address"
        },
        {
          "internalType": "address",
          "name": "recipient",
          "type": "address"
        },
        {
          "internalType": "uint256",
          "name": "amount",
          "type": "uint256"
        }
      ],
      "name": "transferFrom",
      "outputs": [
        {
          "internalType": "bool",
          "name": "",
          "type": "bool"
        }
      ],
      "stateMutability": "nonpayable",
      "type": "function"
    },
    {
      "inputs": [
        {
          "internalType": "uint256",
          "name": "_shares",
          "type": "uint256"
        }
      ],
      "name": "withdraw",
      "outputs": [],
      "stateMutability": "nonpayable",
      "type": "function"
    },
    {
      "inputs": [],
      "name": "withdrawAll",
      "outputs": [],
      "stateMutability": "nonpayable",
      "type": "function"
    },
    {
      "inputs": [],
      "name": "withdrawAllETH",
      "outputs": [],
      "stateMutability": "nonpayable",
      "type": "function"
    },
    {
      "inputs": [
        {
          "internalType": "uint256",
          "name": "_shares",
          "type": "uint256"
        }
      ],
      "name": "withdrawETH",
      "outputs": [],
      "stateMutability": "nonpayable",
      "type": "function"
    },
    {
      "stateMutability": "payable",
      "type": "receive"
    }
  ],
  "bytecode": "0x60806040526127066006553480156200001757600080fd5b506040516200279c3803806200279c833981810160405260408110156200003d57600080fd5b508051602090910151604080516306fdde0360e01b815290516001600160a01b038416916306fdde03916004808301926000929190829003018186803b1580156200008757600080fd5b505afa1580156200009c573d6000803e3d6000fd5b505050506040513d6000823e601f3d908101601f191682016040526020811015620000c657600080fd5b8101908080516040519392919084640100000000821115620000e757600080fd5b908301906020820185811115620000fd57600080fd5b82516401000000008111828201881017156200011857600080fd5b82525081516020918201929091019080838360005b83811015620001475781810151838201526020016200012d565b50505050905090810190601f168015620001755780820380516001836020036101000a031916815260200191505b5060405250505060405160200180806503cb2b0b937160d51b81525060060182805190602001908083835b60208310620001c15780518252601f199092019160209182019101620001a0565b6001836020036101000a038019825116818451168082178552505050505050905001915050604051602081830303815290604052826001600160a01b03166395d89b416040518163ffffffff1660e01b815260040160006040518083038186803b1580156200022f57600080fd5b505afa15801562000244573d6000803e3d6000fd5b505050506040513d6000823e601f3d908101601f1916820160405260208110156200026e57600080fd5b81019080805160405193929190846401000000008211156200028f57600080fd5b908301906020820185811115620002a557600080fd5b8251640100000000811182820188101715620002c057600080fd5b82525081516020918201929091019080838360005b83811015620002ef578181015183820152602001620002d5565b50505050905090810190601f1680156200031d5780820380516001836020036101000a031916815260200191505b506040525050506040516020018080607960f81b81525060010182805190602001908083835b60208310620003645780518252601f19909201916020918201910162000343565b6001836020036101000a0380198251168184511680821785525050505050509050019150506040516020818303038152906040528160039080519060200190620003b0929190620004b1565b508051620003c6906004906020840190620004b1565b50506005805460ff19166012179055506040805163313ce56760e01b8152905162000451916001600160a01b0385169163313ce56791600480820192602092909190829003018186803b1580156200041d57600080fd5b505afa15801562000432573d6000803e3d6000fd5b505050506040513d60208110156200044957600080fd5b50516200049b565b60058054610100600160a81b0319166101006001600160a01b039485160217905560078054336001600160a01b03199182161790915560088054909116919092161790556200054d565b6005805460ff191660ff92909216919091179055565b828054600181600116156101000203166002900490600052602060002090601f016020900481019282601f10620004f457805160ff191683800117855562000524565b8280016001018555821562000524579182015b828111156200052457825182559160200191906001019062000507565b506200053292915062000536565b5090565b5b8082111562000532576000815560010162000537565b61223f806200055d6000396000f3fe6080604052600436106101dc5760003560e01c806390386bbf11610102578063d389800f11610095578063f6326fb311610064578063f6326fb3146106be578063f77c4791146106c6578063f8897945146106db578063fc0c546a146106f0576101e3565b8063d389800f1461062f578063dd62ed3e14610644578063de5f62681461067f578063f14210a614610694576101e3565b8063a9059cbb116100d1578063a9059cbb14610584578063ab033ea9146105bd578063b69ef8a8146105f0578063b6b55f2514610605576101e3565b806390386bbf146104ee57806392eefe9b1461050357806395d89b4114610536578063a457c2d71461054b576101e3565b8063395093511161017a5780636ac5db19116101495780636ac5db191461047c57806370a082311461049157806377c7b8fc146104c4578063853828b6146104d9576101e3565b806339509351146103d357806345dc3dd81461040c57806348a0d754146104365780635aa6e6751461044b576101e3565b806318160ddd116101b657806318160ddd1461031457806323b872dd1461033b5780632e1a7d4d1461037e578063313ce567146103a8576101e3565b8063018ee9b71461020457806306fdde031461023d578063095ea7b3146102c7576101e3565b366101e357005b60055461010090046001600160a01b0316331461020257610202610705565b005b34801561021057600080fd5b506102026004803603604081101561022757600080fd5b506001600160a01b0381351690602001356108db565b34801561024957600080fd5b50610252610996565b6040805160208082528351818301528351919283929083019185019080838360005b8381101561028c578181015183820152602001610274565b50505050905090810190601f1680156102b95780820380516001836020036101000a031916815260200191505b509250505060405180910390f35b3480156102d357600080fd5b50610300600480360360408110156102ea57600080fd5b506001600160a01b038135169060200135610a2c565b604080519115158252519081900360200190f35b34801561032057600080fd5b50610329610a4a565b60408051918252519081900360200190f35b34801561034757600080fd5b506103006004803603606081101561035e57600080fd5b506001600160a01b03813581169160208101359091169060400135610a50565b34801561038a57600080fd5b50610202600480360360208110156103a157600080fd5b5035610ad8565b3480156103b457600080fd5b506103bd610cd3565b6040805160ff9092168252519081900360200190f35b3480156103df57600080fd5b50610300600480360360408110156103f657600080fd5b506001600160a01b038135169060200135610cdc565b34801561041857600080fd5b506102026004803603602081101561042f57600080fd5b5035610d2a565b34801561044257600080fd5b50610329610d7c565b34801561045757600080fd5b50610460610e23565b604080516001600160a01b039092168252519081900360200190f35b34801561048857600080fd5b50610329610e32565b34801561049d57600080fd5b50610329600480360360208110156104b457600080fd5b50356001600160a01b0316610e38565b3480156104d057600080fd5b50610329610e53565b3480156104e557600080fd5b50610202610e74565b3480156104fa57600080fd5b50610202610e87565b34801561050f57600080fd5b506102026004803603602081101561052657600080fd5b50356001600160a01b0316610e98565b34801561054257600080fd5b50610252610f07565b34801561055757600080fd5b506103006004803603604081101561056e57600080fd5b506001600160a01b038135169060200135610f68565b34801561059057600080fd5b50610300600480360360408110156105a757600080fd5b506001600160a01b038135169060200135610fd0565b3480156105c957600080fd5b50610202600480360360208110156105e057600080fd5b50356001600160a01b0316610fe4565b3480156105fc57600080fd5b50610329611053565b34801561061157600080fd5b506102026004803603602081101561062857600080fd5b5035611159565b34801561063b57600080fd5b506102026112ca565b34801561065057600080fd5b506103296004803603604081101561066757600080fd5b506001600160a01b038135811691602001351661136a565b34801561068b57600080fd5b50610202611395565b3480156106a057600080fd5b50610202600480360360208110156106b757600080fd5b5035611417565b610202610705565b3480156106d257600080fd5b50610460611685565b3480156106e757600080fd5b50610329611694565b3480156106fc57600080fd5b5061046061169a565b600061070f611053565b90506000600560019054906101000a90046001600160a01b03166001600160a01b03166370a08231306040518263ffffffff1660e01b815260040180826001600160a01b0316815260200191505060206040518083038186803b15801561077557600080fd5b505afa158015610789573d6000803e3d6000fd5b505050506040513d602081101561079f57600080fd5b505160055460408051630d0e30db60e41b8152905192935034926101009092046001600160a01b03169163d0e30db0918491600480830192600092919082900301818588803b1580156107f157600080fd5b505af1158015610805573d6000803e3d6000fd5b5050600554604080516370a0823160e01b81523060048201529051600095506101009092046001600160a01b031693506370a082319250602480820192602092909190829003018186803b15801561085c57600080fd5b505afa158015610870573d6000803e3d6000fd5b505050506040513d602081101561088657600080fd5b5051905061089481846116ae565b915060006108a0610a4a565b6108ab5750816108ca565b6108c7856108c16108ba610a4a565b86906116f0565b90611749565b90505b6108d4338261178b565b5050505050565b6008546001600160a01b03163314610928576040805162461bcd60e51b815260206004820152600b60248201526a10b1b7b73a3937b63632b960a91b604482015290519081900360640190fd5b6005546001600160a01b03838116610100909204161415610978576040805162461bcd60e51b81526020600482015260056024820152643a37b5b2b760d91b604482015290519081900360640190fd5b600854610992906001600160a01b0384811691168361187b565b5050565b60038054604080516020601f6002600019610100600188161502019095169490940493840181900481028201810190925282815260609390929091830182828015610a225780601f106109f757610100808354040283529160200191610a22565b820191906000526020600020905b815481529060010190602001808311610a0557829003601f168201915b5050505050905090565b6000610a40610a396118cd565b84846118d1565b5060015b92915050565b60025490565b6000610a5d8484846119bd565b610acd84610a696118cd565b610ac885604051806060016040528060288152602001612129602891396001600160a01b038a16600090815260016020526040812090610aa76118cd565b6001600160a01b031681526020810191909152604001600020549190611b18565b6118d1565b5060015b9392505050565b6000610af7610ae5610a4a565b6108c184610af1611053565b906116f0565b9050610b033383611baf565b600554604080516370a0823160e01b8152306004820152905160009261010090046001600160a01b0316916370a08231916024808301926020929190829003018186803b158015610b5357600080fd5b505afa158015610b67573d6000803e3d6000fd5b505050506040513d6020811015610b7d57600080fd5b5051905081811015610cb2576000610b9583836116ae565b6008546005546040805163f3fef3a360e01b81526001600160a01b036101009093048316600482015260248101859052905193945091169163f3fef3a39160448082019260009290919082900301818387803b158015610bf457600080fd5b505af1158015610c08573d6000803e3d6000fd5b5050600554604080516370a0823160e01b81523060048201529051600094506101009092046001600160a01b031692506370a08231916024808301926020929190829003018186803b158015610c5d57600080fd5b505afa158015610c71573d6000803e3d6000fd5b505050506040513d6020811015610c8757600080fd5b505190506000610c9782856116ae565b905082811015610cae57610cab8482611cab565b94505b5050505b600554610cce9061010090046001600160a01b0316338461187b565b505050565b60055460ff1690565b6000610a40610ce96118cd565b84610ac88560016000610cfa6118cd565b6001600160a01b03908116825260208083019390935260409182016000908120918c168152925290205490611cab565b6007546001600160a01b03163314610d77576040805162461bcd60e51b815260206004820152600b60248201526a21676f7665726e616e636560a81b604482015290519081900360640190fd5b600655565b6000610e1e6127106108c1600654600560019054906101000a90046001600160a01b03166001600160a01b03166370a08231306040518263ffffffff1660e01b815260040180826001600160a01b0316815260200191505060206040518083038186803b158015610dec57600080fd5b505afa158015610e00573d6000803e3d6000fd5b505050506040513d6020811015610e1657600080fd5b5051906116f0565b905090565b6007546001600160a01b031681565b61271081565b6001600160a01b031660009081526020819052604090205490565b6000610e1e610e60610a4a565b6108c1670de0b6b3a7640000610af1611053565b610e85610e8033610e38565b610ad8565b565b610e85610e9333610e38565b611417565b6007546001600160a01b03163314610ee5576040805162461bcd60e51b815260206004820152600b60248201526a21676f7665726e616e636560a81b604482015290519081900360640190fd5b600880546001600160a01b0319166001600160a01b0392909216919091179055565b60048054604080516020601f6002600019610100600188161502019095169490940493840181900481028201810190925282815260609390929091830182828015610a225780601f106109f757610100808354040283529160200191610a22565b6000610a40610f756118cd565b84610ac8856040518060600160405280602581526020016121e56025913960016000610f9f6118cd565b6001600160a01b03908116825260208083019390935260409182016000908120918d16815292529020549190611b18565b6000610a40610fdd6118cd565b84846119bd565b6007546001600160a01b03163314611031576040805162461bcd60e51b815260206004820152600b60248201526a21676f7665726e616e636560a81b604482015290519081900360640190fd5b600780546001600160a01b0319166001600160a01b0392909216919091179055565b600854600554604080516370a0823160e01b81526001600160a01b03610100909304831660048201529051600093610e1e9316916370a08231916024808301926020929190829003018186803b1580156110ac57600080fd5b505afa1580156110c0573d6000803e3d6000fd5b505050506040513d60208110156110d657600080fd5b5051600554604080516370a0823160e01b815230600482015290516101009092046001600160a01b0316916370a0823191602480820192602092909190829003018186803b15801561112757600080fd5b505afa15801561113b573d6000803e3d6000fd5b505050506040513d602081101561115157600080fd5b505190611cab565b6000611163611053565b90506000600560019054906101000a90046001600160a01b03166001600160a01b03166370a08231306040518263ffffffff1660e01b815260040180826001600160a01b0316815260200191505060206040518083038186803b1580156111c957600080fd5b505afa1580156111dd573d6000803e3d6000fd5b505050506040513d60208110156111f357600080fd5b50516005549091506112159061010090046001600160a01b0316333086611d05565b600554604080516370a0823160e01b8152306004820152905160009261010090046001600160a01b0316916370a08231916024808301926020929190829003018186803b15801561126557600080fd5b505afa158015611279573d6000803e3d6000fd5b505050506040513d602081101561128f57600080fd5b5051905061129d81836116ae565b935060006112a9610a4a565b6112b45750836108ca565b6108c7846108c16112c3610a4a565b88906116f0565b60006112d4610d7c565b6008546005549192506112f99161010090046001600160a01b0390811691168361187b565b6008546005546040805163b02bf4b960e01b81526101009092046001600160a01b03908116600484015260248301859052905192169163b02bf4b99160448082019260009290919082900301818387803b15801561135657600080fd5b505af11580156108d4573d6000803e3d6000fd5b6001600160a01b03918216600090815260016020908152604080832093909416825291909152205490565b600554604080516370a0823160e01b81523360048201529051610e859261010090046001600160a01b0316916370a08231916024808301926020929190829003018186803b1580156113e657600080fd5b505afa1580156113fa573d6000803e3d6000fd5b505050506040513d602081101561141057600080fd5b5051611159565b6000611424610ae5610a4a565b90506114303383611baf565b600554604080516370a0823160e01b8152306004820152905160009261010090046001600160a01b0316916370a08231916024808301926020929190829003018186803b15801561148057600080fd5b505afa158015611494573d6000803e3d6000fd5b505050506040513d60208110156114aa57600080fd5b50519050818110156115df5760006114c283836116ae565b6008546005546040805163f3fef3a360e01b81526001600160a01b036101009093048316600482015260248101859052905193945091169163f3fef3a39160448082019260009290919082900301818387803b15801561152157600080fd5b505af1158015611535573d6000803e3d6000fd5b5050600554604080516370a0823160e01b81523060048201529051600094506101009092046001600160a01b031692506370a08231916024808301926020929190829003018186803b15801561158a57600080fd5b505afa15801561159e573d6000803e3d6000fd5b505050506040513d60208110156115b457600080fd5b5051905060006115c482856116ae565b9050828110156115db576115d88482611cab565b94505b5050505b600560019054906101000a90046001600160a01b03166001600160a01b0316632e1a7d4d836040518263ffffffff1660e01b815260040180828152602001915050600060405180830381600087803b15801561163a57600080fd5b505af115801561164e573d6000803e3d6000fd5b505060405133925084156108fc02915084906000818181858888f1935050505015801561167f573d6000803e3d6000fd5b50505050565b6008546001600160a01b031681565b60065481565b60055461010090046001600160a01b031681565b6000610ad183836040518060400160405280601e81526020017f536166654d6174683a207375627472616374696f6e206f766572666c6f770000815250611b18565b6000826116ff57506000610a44565b8282028284828161170c57fe5b0414610ad15760405162461bcd60e51b81526004018080602001828103825260218152602001806121086021913960400191505060405180910390fd5b6000610ad183836040518060400160405280601a81526020017f536166654d6174683a206469766973696f6e206279207a65726f000000000000815250611d5f565b6001600160a01b0382166117e6576040805162461bcd60e51b815260206004820152601f60248201527f45524332303a206d696e7420746f20746865207a65726f206164647265737300604482015290519081900360640190fd5b6117f260008383610cce565b6002546117ff9082611cab565b6002556001600160a01b0382166000908152602081905260409020546118259082611cab565b6001600160a01b0383166000818152602081815260408083209490945583518581529351929391927fddf252ad1be2c89b69c2b068fc378daa952ba7f163c4a11628f55a4df523b3ef9281900390910190a35050565b604080516001600160a01b038416602482015260448082018490528251808303909101815260649091019091526020810180516001600160e01b031663a9059cbb60e01b179052610cce908490611dc4565b3390565b6001600160a01b0383166119165760405162461bcd60e51b81526004018080602001828103825260248152602001806121976024913960400191505060405180910390fd5b6001600160a01b03821661195b5760405162461bcd60e51b815260040180806020018281038252602281526020018061209a6022913960400191505060405180910390fd5b6001600160a01b03808416600081815260016020908152604080832094871680845294825291829020859055815185815291517f8c5be1e5ebec7d5bd14f71427d1e84f3dd0314c0f7b2291e5b200ac8c7c3b9259281900390910190a3505050565b6001600160a01b038316611a025760405162461bcd60e51b81526004018080602001828103825260258152602001806121726025913960400191505060405180910390fd5b6001600160a01b038216611a475760405162461bcd60e51b81526004018080602001828103825260238152602001806120556023913960400191505060405180910390fd5b611a52838383610cce565b611a8f816040518060600160405280602681526020016120bc602691396001600160a01b0386166000908152602081905260409020549190611b18565b6001600160a01b038085166000908152602081905260408082209390935590841681522054611abe9082611cab565b6001600160a01b038084166000818152602081815260409182902094909455805185815290519193928716927fddf252ad1be2c89b69c2b068fc378daa952ba7f163c4a11628f55a4df523b3ef92918290030190a3505050565b60008184841115611ba75760405162461bcd60e51b81526004018080602001828103825283818151815260200191508051906020019080838360005b83811015611b6c578181015183820152602001611b54565b50505050905090810190601f168015611b995780820380516001836020036101000a031916815260200191505b509250505060405180910390fd5b505050900390565b6001600160a01b038216611bf45760405162461bcd60e51b81526004018080602001828103825260218152602001806121516021913960400191505060405180910390fd5b611c0082600083610cce565b611c3d81604051806060016040528060228152602001612078602291396001600160a01b0385166000908152602081905260409020549190611b18565b6001600160a01b038316600090815260208190526040902055600254611c6390826116ae565b6002556040805182815290516000916001600160a01b038516917fddf252ad1be2c89b69c2b068fc378daa952ba7f163c4a11628f55a4df523b3ef9181900360200190a35050565b600082820183811015610ad1576040805162461bcd60e51b815260206004820152601b60248201527f536166654d6174683a206164646974696f6e206f766572666c6f770000000000604482015290519081900360640190fd5b604080516001600160a01b0380861660248301528416604482015260648082018490528251808303909101815260849091019091526020810180516001600160e01b03166323b872dd60e01b17905261167f908590611dc4565b60008183611dae5760405162461bcd60e51b8152602060048201818152835160248401528351909283926044909101919085019080838360008315611b6c578181015183820152602001611b54565b506000838581611dba57fe5b0495945050505050565b6060611e19826040518060400160405280602081526020017f5361666545524332303a206c6f772d6c6576656c2063616c6c206661696c6564815250856001600160a01b0316611e759092919063ffffffff16565b805190915015610cce57808060200190516020811015611e3857600080fd5b5051610cce5760405162461bcd60e51b815260040180806020018281038252602a8152602001806121bb602a913960400191505060405180910390fd5b6060611e848484600085611e8c565b949350505050565b606082471015611ecd5760405162461bcd60e51b81526004018080602001828103825260268152602001806120e26026913960400191505060405180910390fd5b611ed685611fe8565b611f27576040805162461bcd60e51b815260206004820152601d60248201527f416464726573733a2063616c6c20746f206e6f6e2d636f6e7472616374000000604482015290519081900360640190fd5b60006060866001600160a01b031685876040518082805190602001908083835b60208310611f665780518252601f199092019160209182019101611f47565b6001836020036101000a03801982511681845116808217855250505050505090500191505060006040518083038185875af1925050503d8060008114611fc8576040519150601f19603f3d011682016040523d82523d6000602084013e611fcd565b606091505b5091509150611fdd828286611fee565b979650505050505050565b3b151590565b60608315611ffd575081610ad1565b82511561200d5782518084602001fd5b60405162461bcd60e51b8152602060048201818152845160248401528451859391928392604401919085019080838360008315611b6c578181015183820152602001611b5456fe45524332303a207472616e7366657220746f20746865207a65726f206164647265737345524332303a206275726e20616d6f756e7420657863656564732062616c616e636545524332303a20617070726f766520746f20746865207a65726f206164647265737345524332303a207472616e7366657220616d6f756e7420657863656564732062616c616e6365416464726573733a20696e73756666696369656e742062616c616e636520666f722063616c6c536166654d6174683a206d756c7469706c69636174696f6e206f766572666c6f7745524332303a207472616e7366657220616d6f756e74206578636565647320616c6c6f77616e636545524332303a206275726e2066726f6d20746865207a65726f206164647265737345524332303a207472616e736665722066726f6d20746865207a65726f206164647265737345524332303a20617070726f76652066726f6d20746865207a65726f20616464726573735361666545524332303a204552433230206f7065726174696f6e20646964206e6f74207375636365656445524332303a2064656372656173656420616c6c6f77616e63652062656c6f77207a65726fa2646970667358221220f21173b20ef8618b812a3f100226ba278de935d1fa9e16c350563a5d5f16b9d864736f6c634300060c0033",
  "linkReferences": {},
  "deployedLinkReferences": {}
}