{
  "_format": "hh-sol-artifact-1",
  "contractName": "ZeroUnderwriterLock",
  "sourceName": "contracts/underwriter/ZeroUnderwriterLock.sol",
  "abi": [
    {
      "inputs": [],
      "name": "balanceSheet",
      "outputs": [
        {
          "internalType": "uint256",
          "name": "loaned",
          "type": "uint256"
        },
        {
          "internalType": "uint256",
          "name": "required",
          "type": "uint256"
        },
        {
          "internalType": "uint256",
          "name": "repaid",
          "type": "uint256"
        }
      ],
      "stateMutability": "view",
      "type": "function"
    },
    {
      "inputs": [
        {
          "internalType": "address",
          "name": "receiver",
          "type": "address"
        }
      ],
      "name": "burn",
      "outputs": [],
      "stateMutability": "nonpayable",
      "type": "function"
    },
    {
      "inputs": [],
      "name": "controller",
      "outputs": [
        {
          "internalType": "contract ZeroController",
          "name": "",
          "type": "address"
        }
      ],
      "stateMutability": "view",
      "type": "function"
    },
    {
      "inputs": [
        {
          "internalType": "address",
          "name": "_vault",
          "type": "address"
        }
      ],
      "name": "initialize",
      "outputs": [],
      "stateMutability": "nonpayable",
      "type": "function"
    },
    {
      "inputs": [],
      "name": "owed",
      "outputs": [
        {
          "internalType": "uint256",
          "name": "result",
          "type": "uint256"
        }
      ],
      "stateMutability": "view",
      "type": "function"
    },
    {
      "inputs": [],
      "name": "owner",
      "outputs": [
        {
          "internalType": "address",
          "name": "result",
          "type": "address"
        }
      ],
      "stateMutability": "view",
      "type": "function"
    },
    {
      "inputs": [],
      "name": "reserve",
      "outputs": [
        {
          "internalType": "uint256",
          "name": "result",
          "type": "uint256"
        }
      ],
      "stateMutability": "view",
      "type": "function"
    },
    {
      "inputs": [
        {
          "internalType": "address",
          "name": "_token",
          "type": "address"
        }
      ],
      "name": "skim",
      "outputs": [],
      "stateMutability": "nonpayable",
      "type": "function"
    },
    {
      "inputs": [
        {
          "internalType": "uint256",
          "name": "amount",
          "type": "uint256"
        }
      ],
      "name": "trackIn",
      "outputs": [],
      "stateMutability": "nonpayable",
      "type": "function"
    },
    {
      "inputs": [
        {
          "internalType": "address",
          "name": "module",
          "type": "address"
        },
        {
          "internalType": "uint256",
          "name": "amount",
          "type": "uint256"
        }
      ],
      "name": "trackOut",
      "outputs": [],
      "stateMutability": "nonpayable",
      "type": "function"
    },
    {
      "inputs": [],
      "name": "vault",
      "outputs": [
        {
          "internalType": "address",
          "name": "",
          "type": "address"
        }
      ],
      "stateMutability": "view",
      "type": "function"
    }
  ],
  "bytecode": "0x608060405234801561001057600080fd5b5061111c806100206000396000f3fe608060405234801561001057600080fd5b50600436106100a95760003560e01c8063bc25cf7711610071578063bc25cf7714610169578063c4d66de81461018f578063c87d6779146101b5578063cd3293de146101cf578063f77c4791146101d7578063fbfa77cf146101df576100a9565b806322285cf6146100ae57806346b9edf4146100d45780635583376e1461010257806389afcb441461011f5780638da5cb5b14610145575b600080fd5b6100b66101e7565b60408051938452602084019290925282820152519081900360600190f35b610100600480360360408110156100ea57600080fd5b506001600160a01b038135169060200135610205565b005b6101006004803603602081101561011857600080fd5b5035610383565b6101006004803603602081101561013557600080fd5b50356001600160a01b031661051c565b61014d6106c2565b604080516001600160a01b039092168252519081900360200190f35b6101006004803603602081101561017f57600080fd5b50356001600160a01b0316610744565b610100600480360360208110156101a557600080fd5b50356001600160a01b0316610838565b6101bd610873565b60408051918252519081900360200190f35b6101bd610894565b61014d61096a565b61014d61097f565b6002546003546001600160801b0380831693600160801b9093041691565b6000546201000090046001600160a01b03163314610258576040805162461bcd60e51b815260206004820152600b60248201526a10b1b7b73a3937b63632b960a91b604482015290519081900360640190fd5b600254600090610271906001600160801b03168361098e565b9050600061027d610873565b905081610349610318610290848761098e565b610312670de0b6b3a7640000896001600160a01b03166373883a2b8a6040518263ffffffff1660e01b81526004018082815260200191505060206040518083038186803b1580156102e057600080fd5b505afa1580156102f4573d6000803e3d6000fd5b505050506040513d602081101561030a57600080fd5b5051906109f1565b90610a4a565b60025461034390670de0b6b3a76400009061031290600160801b90046001600160801b0316876109f1565b9061098e565b600280546001600160801b03938416928416600160801b029316929092176fffffffffffffffffffffffffffffffff191617905550505050565b6000546201000090046001600160a01b031633146103d6576040805162461bcd60e51b815260206004820152600b60248201526a10b1b7b73a3937b63632b960a91b604482015290519081900360640190fd5b60006103e0610873565b905061040b604051806040016040528060078152602001664f77656420697360c81b81525082610ab1565b61044060405180604001604052806013815260200172417474656d7074696e6720746f20726570617960681b81525083610ab1565b610448610b63565b8181106104a25761049d61045c8284610c01565b60025461031290670de0b6b3a7640000906104979087906104919084908690600160801b90046001600160801b03168a6109f1565b90610c01565b906109f1565b6104a5565b60005b600280546001600160801b03928316600160801b0292169190911790556104ca610b63565b6105086040518060400160405280601a81526020017f536574205f62616c616e63655368656574207265717569726564000000000000815250610c5e565b600354610515908361098e565b6003555050565b6105246106c2565b6001600160a01b0316336001600160a01b031614610589576040805162461bcd60e51b815260206004820152601760248201527f6d7573742062652063616c6c6564206279206f776e6572000000000000000000604482015290519081900360640190fd5b600154604080516370a0823160e01b815230600482015290516001600160a01b039092169163a9059cbb91849184916370a08231916024808301926020929190829003018186803b1580156105dd57600080fd5b505afa1580156105f1573d6000803e3d6000fd5b505050506040513d602081101561060757600080fd5b5051604080516001600160e01b031960e086901b1681526001600160a01b03909316600484015260248301919091525160448083019260209291908290030181600087803b15801561065857600080fd5b505af115801561066c573d6000803e3d6000fd5b505050506040513d602081101561068257600080fd5b50516106bf5760405162461bcd60e51b815260040180806020018281038252602a815260200180611093602a913960400191505060405180910390fd5b33ff5b60008054604080516331a9108f60e11b81523060048201529051620100009092046001600160a01b031691636352211e91602480820192602092909190829003018186803b15801561071357600080fd5b505afa158015610727573d6000803e3d6000fd5b505050506040513d602081101561073d57600080fd5b5051919050565b6001546001600160a01b03828116911614156107a7576040805162461bcd60e51b815260206004820152601760248201527f63616e6e6f7420736b696d207661756c7420746f6b656e000000000000000000604482015290519081900360640190fd5b61083533826001600160a01b03166370a08231306040518263ffffffff1660e01b815260040180826001600160a01b0316815260200191505060206040518083038186803b1580156107f857600080fd5b505afa15801561080c573d6000803e3d6000fd5b505050506040513d602081101561082257600080fd5b50516001600160a01b0384169190610d04565b50565b6000805462010000600160b01b031916336201000002179055600180546001600160a01b0319166001600160a01b0392909216919091179055565b60035460025460009161088f916001600160801b031690610c01565b905090565b600061088f670de0b6b3a7640000610312600160009054906101000a90046001600160a01b03166001600160a01b03166377c7b8fc6040518163ffffffff1660e01b815260040160206040518083038186803b1580156108f357600080fd5b505afa158015610907573d6000803e3d6000fd5b505050506040513d602081101561091d57600080fd5b5051600154604080516370a0823160e01b815230600482015290516001600160a01b03909216916370a0823191602480820192602092909190829003018186803b1580156102e057600080fd5b6000546201000090046001600160a01b031681565b6001546001600160a01b031681565b6000828201838110156109e8576040805162461bcd60e51b815260206004820152601b60248201527f536166654d6174683a206164646974696f6e206f766572666c6f770000000000604482015290519081900360640190fd5b90505b92915050565b600082610a00575060006109eb565b82820282848281610a0d57fe5b04146109e85760405162461bcd60e51b81526004018080602001828103825260218152602001806110726021913960400191505060405180910390fd5b6000808211610aa0576040805162461bcd60e51b815260206004820152601a60248201527f536166654d6174683a206469766973696f6e206279207a65726f000000000000604482015290519081900360640190fd5b818381610aa957fe5b049392505050565b610b5f82826040516024018080602001838152602001828103825284818151815260200191508051906020019080838360005b83811015610afc578181015183820152602001610ae4565b50505050905090810190601f168015610b295780820380516001836020036101000a031916815260200191505b5060408051601f198184030181529190526020810180516001600160e01b03166309710a9d60e41b1790529350610d5b92505050565b5050565b6040805180820190915260088152671c995c5d5a5c995960c21b6020820152600254610b9f9190600160801b90046001600160801b0316610ab1565b6040805180820190915260068152651b1bd85b995960d21b6020820152600254610bd291906001600160801b0316610ab1565b610bff604051806040016040528060068152602001651c995c185a5960d21b815250600260010154610ab1565b565b600082821115610c58576040805162461bcd60e51b815260206004820152601e60248201527f536166654d6174683a207375627472616374696f6e206f766572666c6f770000604482015290519081900360640190fd5b50900390565b610835816040516024018080602001828103825283818151815260200191508051906020019080838360005b83811015610ca2578181015183820152602001610c8a565b50505050905090810190601f168015610ccf5780820380516001836020036101000a031916815260200191505b5060408051601f198184030181529190526020810180516001600160e01b031663104c13eb60e21b1790529250610d5b915050565b604080516001600160a01b038416602482015260448082018490528251808303909101815260649091019091526020810180516001600160e01b031663a9059cbb60e01b179052610d56908490610d7c565b505050565b80516a636f6e736f6c652e6c6f67602083016000808483855afa5050505050565b6000610dd1826040518060400160405280602081526020017f5361666545524332303a206c6f772d6c6576656c2063616c6c206661696c6564815250856001600160a01b0316610e2d9092919063ffffffff16565b805190915015610d5657808060200190516020811015610df057600080fd5b5051610d565760405162461bcd60e51b815260040180806020018281038252602a8152602001806110bd602a913960400191505060405180910390fd5b6060610e3c8484600085610e46565b90505b9392505050565b606082471015610e875760405162461bcd60e51b815260040180806020018281038252602681526020018061104c6026913960400191505060405180910390fd5b610e9085610fa1565b610ee1576040805162461bcd60e51b815260206004820152601d60248201527f416464726573733a2063616c6c20746f206e6f6e2d636f6e7472616374000000604482015290519081900360640190fd5b600080866001600160a01b031685876040518082805190602001908083835b60208310610f1f5780518252601f199092019160209182019101610f00565b6001836020036101000a03801982511681845116808217855250505050505090500191505060006040518083038185875af1925050503d8060008114610f81576040519150601f19603f3d011682016040523d82523d6000602084013e610f86565b606091505b5091509150610f96828286610fa7565b979650505050505050565b3b151590565b60608315610fb6575081610e3f565b825115610fc65782518084602001fd5b8160405162461bcd60e51b81526004018080602001828103825283818151815260200191508051906020019080838360005b83811015611010578181015183820152602001610ff8565b50505050905090810190601f16801561103d5780820380516001836020036101000a031916815260200191505b509250505060405180910390fdfe416464726573733a20696e73756666696369656e742062616c616e636520666f722063616c6c536166654d6174683a206d756c7469706c69636174696f6e206f766572666c6f776661696c656420746f207472616e73666572207661756c7420746f6b656e20746f2072656365697665725361666545524332303a204552433230206f7065726174696f6e20646964206e6f742073756363656564a2646970667358221220ef5559eaf555eb650011f15cc32666017691c2a4d2bfbe49166588c12db9fb9e64736f6c63430007060033",
  "linkReferences": {},
  "deployedLinkReferences": {}
}