{
  "_format": "hh-sol-artifact-1",
  "contractName": "ZeroUnderwriterLock",
  "sourceName": "contracts/underwriter/ZeroUnderwriterLock.sol",
  "abi": [
    {
      "anonymous": false,
      "inputs": [
        {
          "indexed": true,
          "internalType": "address",
          "name": "previousOwner",
          "type": "address"
        },
        {
          "indexed": true,
          "internalType": "address",
          "name": "newOwner",
          "type": "address"
        }
      ],
      "name": "OwnershipTransferred",
      "type": "event"
    },
    {
      "inputs": [],
      "name": "balanceSheet",
      "outputs": [
        {
          "internalType": "uint256",
          "name": "loaned",
          "type": "uint256"
        },
        {
          "internalType": "uint256",
          "name": "required",
          "type": "uint256"
        },
        {
          "internalType": "uint256",
          "name": "repaid",
          "type": "uint256"
        }
      ],
      "stateMutability": "view",
      "type": "function"
    },
    {
      "inputs": [
        {
          "internalType": "address",
          "name": "receiver",
          "type": "address"
        }
      ],
      "name": "burn",
      "outputs": [],
      "stateMutability": "nonpayable",
      "type": "function"
    },
    {
      "inputs": [],
      "name": "controller",
      "outputs": [
        {
          "internalType": "contract ZeroController",
          "name": "",
          "type": "address"
        }
      ],
      "stateMutability": "view",
      "type": "function"
    },
    {
      "inputs": [
        {
          "internalType": "contract yVault",
          "name": "_vault",
          "type": "address"
        }
      ],
      "name": "initialize",
      "outputs": [],
      "stateMutability": "nonpayable",
      "type": "function"
    },
    {
      "inputs": [],
      "name": "owed",
      "outputs": [
        {
          "internalType": "uint256",
          "name": "result",
          "type": "uint256"
        }
      ],
      "stateMutability": "view",
      "type": "function"
    },
    {
      "inputs": [],
      "name": "owner",
      "outputs": [
        {
          "internalType": "address",
          "name": "result",
          "type": "address"
        }
      ],
      "stateMutability": "view",
      "type": "function"
    },
    {
      "inputs": [],
      "name": "renounceOwnership",
      "outputs": [],
      "stateMutability": "nonpayable",
      "type": "function"
    },
    {
      "inputs": [],
      "name": "reserve",
      "outputs": [
        {
          "internalType": "uint256",
          "name": "result",
          "type": "uint256"
        }
      ],
      "stateMutability": "view",
      "type": "function"
    },
    {
      "inputs": [
        {
          "internalType": "address",
          "name": "_token",
          "type": "address"
        }
      ],
      "name": "skim",
      "outputs": [],
      "stateMutability": "nonpayable",
      "type": "function"
    },
    {
      "inputs": [
        {
          "internalType": "uint256",
          "name": "amount",
          "type": "uint256"
        }
      ],
      "name": "trackIn",
      "outputs": [],
      "stateMutability": "nonpayable",
      "type": "function"
    },
    {
      "inputs": [
        {
          "internalType": "address",
          "name": "module",
          "type": "address"
        },
        {
          "internalType": "uint256",
          "name": "amount",
          "type": "uint256"
        }
      ],
      "name": "trackOut",
      "outputs": [],
      "stateMutability": "nonpayable",
      "type": "function"
    },
    {
      "inputs": [
        {
          "internalType": "address",
          "name": "newOwner",
          "type": "address"
        }
      ],
      "name": "transferOwnership",
      "outputs": [],
      "stateMutability": "nonpayable",
      "type": "function"
    },
    {
      "inputs": [],
      "name": "vault",
      "outputs": [
        {
          "internalType": "contract yVault",
          "name": "",
          "type": "address"
        }
      ],
      "stateMutability": "view",
      "type": "function"
    }
  ],
  "bytecode": "0x608060405234801561001057600080fd5b50600061001b61006a565b600080546001600160a01b0319166001600160a01b0383169081178255604051929350917f8be0079c531659141344cd1fd0a4f28419497f9722a3daafe3b4186f6b6457e0908290a35061006e565b3390565b6111718061007d6000396000f3fe608060405234801561001057600080fd5b50600436106100cf5760003560e01c8063bc25cf771161008c578063cd3293de11610066578063cd3293de146101fd578063f2fde38b14610205578063f77c47911461022b578063fbfa77cf14610233576100cf565b8063bc25cf7714610197578063c4d66de8146101bd578063c87d6779146101e3576100cf565b806322285cf6146100d457806346b9edf4146100fa5780635583376e14610128578063715018a61461014557806389afcb441461014d5780638da5cb5b14610173575b600080fd5b6100dc61023b565b60408051938452602084019290925282820152519081900360600190f35b6101266004803603604081101561011057600080fd5b506001600160a01b038135169060200135610259565b005b6101266004803603602081101561013e57600080fd5b50356103d1565b6101266104a9565b6101266004803603602081101561016357600080fd5b50356001600160a01b0316610567565b61017b610714565b604080516001600160a01b039092168252519081900360200190f35b610126600480360360208110156101ad57600080fd5b50356001600160a01b0316610790565b610126600480360360208110156101d357600080fd5b50356001600160a01b0316610884565b6101eb610967565b60408051918252519081900360200190f35b6101eb610988565b6101266004803603602081101561021b57600080fd5b50356001600160a01b0316610a5e565b61017b610b72565b61017b610b81565b6003546004546001600160801b0380831693600160801b9093041691565b6001546001600160a01b031633146102a6576040805162461bcd60e51b815260206004820152600b60248201526a10b1b7b73a3937b63632b960a91b604482015290519081900360640190fd5b6003546000906102bf906001600160801b031683610b90565b905060006102cb610967565b9050816103976103666102de8487610b90565b610360670de0b6b3a7640000896001600160a01b03166373883a2b8a6040518263ffffffff1660e01b81526004018082815260200191505060206040518083038186803b15801561032e57600080fd5b505afa158015610342573d6000803e3d6000fd5b505050506040513d602081101561035857600080fd5b505190610bf3565b90610c4c565b60035461039190670de0b6b3a76400009061036090600160801b90046001600160801b031687610bf3565b90610b90565b600380546001600160801b03938416928416600160801b029316929092176fffffffffffffffffffffffffffffffff191617905550505050565b6001546001600160a01b0316331461041e576040805162461bcd60e51b815260206004820152600b60248201526a10b1b7b73a3937b63632b960a91b604482015290519081900360640190fd5b6000610428610967565b90506104786104378284610cb3565b60035461036090670de0b6b3a76400009061047290879061046c9084908690600160801b90046001600160801b03168a610bf3565b90610cb3565b90610bf3565b600380546001600160801b03928316600160801b0292169190911790556004546104a29083610b90565b6004555050565b6104b1610d10565b6001600160a01b03166104c2610714565b6001600160a01b03161461051d576040805162461bcd60e51b815260206004820181905260248201527f4f776e61626c653a2063616c6c6572206973206e6f7420746865206f776e6572604482015290519081900360640190fd5b600080546040516001600160a01b03909116907f8be0079c531659141344cd1fd0a4f28419497f9722a3daafe3b4186f6b6457e0908390a3600080546001600160a01b0319169055565b61056f610d10565b6001600160a01b0316610580610714565b6001600160a01b0316146105db576040805162461bcd60e51b815260206004820181905260248201527f4f776e61626c653a2063616c6c6572206973206e6f7420746865206f776e6572604482015290519081900360640190fd5b600254604080516370a0823160e01b815230600482015290516001600160a01b039092169163a9059cbb91849184916370a08231916024808301926020929190829003018186803b15801561062f57600080fd5b505afa158015610643573d6000803e3d6000fd5b505050506040513d602081101561065957600080fd5b5051604080516001600160e01b031960e086901b1681526001600160a01b03909316600484015260248301919091525160448083019260209291908290030181600087803b1580156106aa57600080fd5b505af11580156106be573d6000803e3d6000fd5b505050506040513d60208110156106d457600080fd5b50516107115760405162461bcd60e51b815260040180806020018281038252602a8152602001806110e8602a913960400191505060405180910390fd5b33ff5b600154604080516331a9108f60e11b815230600482015290516000926001600160a01b031691636352211e916024808301926020929190829003018186803b15801561075f57600080fd5b505afa158015610773573d6000803e3d6000fd5b505050506040513d602081101561078957600080fd5b5051919050565b6002546001600160a01b03828116911614156107f3576040805162461bcd60e51b815260206004820152601760248201527f63616e6e6f7420736b696d207661756c7420746f6b656e000000000000000000604482015290519081900360640190fd5b61088133826001600160a01b03166370a08231306040518263ffffffff1660e01b815260040180826001600160a01b0316815260200191505060206040518083038186803b15801561084457600080fd5b505afa158015610858573d6000803e3d6000fd5b505050506040513d602081101561086e57600080fd5b50516001600160a01b0384169190610d14565b50565b600054600160a81b900460ff168061089f575061089f610d6b565b806108b45750600054600160a01b900460ff16155b6108ef5760405162461bcd60e51b815260040180806020018281038252602e815260200180611099602e913960400191505060405180910390fd5b600054600160a81b900460ff16158015610926576000805460ff60a01b1960ff60a81b19909116600160a81b1716600160a01b1790555b60018054336001600160a01b031991821617909155600280549091166001600160a01b0384161790558015610963576000805460ff60a81b191690555b5050565b60035460045460009161098391906001600160801b0316610cb3565b905090565b6000610983670de0b6b3a7640000610360600260009054906101000a90046001600160a01b03166001600160a01b03166377c7b8fc6040518163ffffffff1660e01b815260040160206040518083038186803b1580156109e757600080fd5b505afa1580156109fb573d6000803e3d6000fd5b505050506040513d6020811015610a1157600080fd5b5051600254604080516370a0823160e01b815230600482015290516001600160a01b03909216916370a0823191602480820192602092909190829003018186803b15801561032e57600080fd5b610a66610d10565b6001600160a01b0316610a77610714565b6001600160a01b031614610ad2576040805162461bcd60e51b815260206004820181905260248201527f4f776e61626c653a2063616c6c6572206973206e6f7420746865206f776e6572604482015290519081900360640190fd5b6001600160a01b038116610b175760405162461bcd60e51b815260040180806020018281038252602681526020018061104d6026913960400191505060405180910390fd5b600080546040516001600160a01b03808516939216917f8be0079c531659141344cd1fd0a4f28419497f9722a3daafe3b4186f6b6457e091a3600080546001600160a01b0319166001600160a01b0392909216919091179055565b6001546001600160a01b031681565b6002546001600160a01b031681565b600082820183811015610bea576040805162461bcd60e51b815260206004820152601b60248201527f536166654d6174683a206164646974696f6e206f766572666c6f770000000000604482015290519081900360640190fd5b90505b92915050565b600082610c0257506000610bed565b82820282848281610c0f57fe5b0414610bea5760405162461bcd60e51b81526004018080602001828103825260218152602001806110c76021913960400191505060405180910390fd5b6000808211610ca2576040805162461bcd60e51b815260206004820152601a60248201527f536166654d6174683a206469766973696f6e206279207a65726f000000000000604482015290519081900360640190fd5b818381610cab57fe5b049392505050565b600082821115610d0a576040805162461bcd60e51b815260206004820152601e60248201527f536166654d6174683a207375627472616374696f6e206f766572666c6f770000604482015290519081900360640190fd5b50900390565b3390565b604080516001600160a01b038416602482015260448082018490528251808303909101815260649091019091526020810180516001600160e01b031663a9059cbb60e01b179052610d66908490610d7c565b505050565b6000610d7630610e2d565b15905090565b6060610dd1826040518060400160405280602081526020017f5361666545524332303a206c6f772d6c6576656c2063616c6c206661696c6564815250856001600160a01b0316610e339092919063ffffffff16565b805190915015610d6657808060200190516020811015610df057600080fd5b5051610d665760405162461bcd60e51b815260040180806020018281038252602a815260200180611112602a913960400191505060405180910390fd5b3b151590565b6060610e428484600085610e4c565b90505b9392505050565b606082471015610e8d5760405162461bcd60e51b81526004018080602001828103825260268152602001806110736026913960400191505060405180910390fd5b610e9685610e2d565b610ee7576040805162461bcd60e51b815260206004820152601d60248201527f416464726573733a2063616c6c20746f206e6f6e2d636f6e7472616374000000604482015290519081900360640190fd5b60006060866001600160a01b031685876040518082805190602001908083835b60208310610f265780518252601f199092019160209182019101610f07565b6001836020036101000a03801982511681845116808217855250505050505090500191505060006040518083038185875af1925050503d8060008114610f88576040519150601f19603f3d011682016040523d82523d6000602084013e610f8d565b606091505b5091509150610f9d828286610fa8565b979650505050505050565b60608315610fb7575081610e45565b825115610fc75782518084602001fd5b8160405162461bcd60e51b81526004018080602001828103825283818151815260200191508051906020019080838360005b83811015611011578181015183820152602001610ff9565b50505050905090810190601f16801561103e5780820380516001836020036101000a031916815260200191505b509250505060405180910390fdfe4f776e61626c653a206e6577206f776e657220697320746865207a65726f2061646472657373416464726573733a20696e73756666696369656e742062616c616e636520666f722063616c6c496e697469616c697a61626c653a20636f6e747261637420697320616c726561647920696e697469616c697a6564536166654d6174683a206d756c7469706c69636174696f6e206f766572666c6f776661696c656420746f207472616e73666572207661756c7420746f6b656e20746f2072656365697665725361666545524332303a204552433230206f7065726174696f6e20646964206e6f742073756363656564a26469706673582212203147f6fda5aa557c66a6b3832519f3f8ca87f1e6e8347afe0f369f75df38ebef64736f6c63430007000033",
  "linkReferences": {},
  "deployedLinkReferences": {}
}