{
  "_format": "hh-sol-artifact-1",
  "contractName": "Swap",
  "sourceName": "contracts/modules/Swap.sol",
  "abi": [
    {
      "inputs": [
        {
          "internalType": "address",
          "name": "_controller",
          "type": "address"
        }
      ],
      "stateMutability": "nonpayable",
      "type": "constructor"
    },
    {
      "inputs": [],
      "name": "RENBTC",
      "outputs": [
        {
          "internalType": "address",
          "name": "",
          "type": "address"
        }
      ],
      "stateMutability": "view",
      "type": "function"
    },
    {
      "inputs": [],
      "name": "ROUTER",
      "outputs": [
        {
          "internalType": "address",
          "name": "",
          "type": "address"
        }
      ],
      "stateMutability": "view",
      "type": "function"
    },
    {
      "inputs": [],
      "name": "USDC",
      "outputs": [
        {
          "internalType": "address",
          "name": "",
          "type": "address"
        }
      ],
      "stateMutability": "view",
      "type": "function"
    },
    {
      "inputs": [],
      "name": "WETH",
      "outputs": [
        {
          "internalType": "address",
          "name": "",
          "type": "address"
        }
      ],
      "stateMutability": "view",
      "type": "function"
    },
    {
      "inputs": [],
      "name": "blockTimeout",
      "outputs": [
        {
          "internalType": "uint256",
          "name": "",
          "type": "uint256"
        }
      ],
      "stateMutability": "view",
      "type": "function"
    },
    {
      "inputs": [
        {
          "internalType": "uint256",
          "name": "_in",
          "type": "uint256"
        }
      ],
      "name": "computeReserveRequirement",
      "outputs": [
        {
          "internalType": "uint256",
          "name": "",
          "type": "uint256"
        }
      ],
      "stateMutability": "view",
      "type": "function"
    },
    {
      "inputs": [],
      "name": "controller",
      "outputs": [
        {
          "internalType": "address",
          "name": "",
          "type": "address"
        }
      ],
      "stateMutability": "view",
      "type": "function"
    },
    {
      "inputs": [
        {
          "internalType": "uint256",
          "name": "nonce",
          "type": "uint256"
        }
      ],
      "name": "defaultLoan",
      "outputs": [],
      "stateMutability": "nonpayable",
      "type": "function"
    },
    {
      "inputs": [],
      "name": "governance",
      "outputs": [
        {
          "internalType": "address",
          "name": "",
          "type": "address"
        }
      ],
      "stateMutability": "view",
      "type": "function"
    },
    {
      "inputs": [
        {
          "internalType": "uint256",
          "name": "",
          "type": "uint256"
        }
      ],
      "name": "outstanding",
      "outputs": [
        {
          "internalType": "address",
          "name": "token",
          "type": "address"
        },
        {
          "internalType": "uint64",
          "name": "when",
          "type": "uint64"
        },
        {
          "internalType": "uint256",
          "name": "qty",
          "type": "uint256"
        }
      ],
      "stateMutability": "view",
      "type": "function"
    },
    {
      "inputs": [
        {
          "internalType": "address",
          "name": "to",
          "type": "address"
        },
        {
          "internalType": "address",
          "name": "asset",
          "type": "address"
        },
        {
          "internalType": "uint256",
          "name": "actual",
          "type": "uint256"
        },
        {
          "internalType": "uint256",
          "name": "nonce",
          "type": "uint256"
        },
        {
          "internalType": "bytes",
          "name": "data",
          "type": "bytes"
        }
      ],
      "name": "receiveLoan",
      "outputs": [],
      "stateMutability": "nonpayable",
      "type": "function"
    },
    {
      "inputs": [
        {
          "internalType": "address",
          "name": "to",
          "type": "address"
        },
        {
          "internalType": "address",
          "name": "asset",
          "type": "address"
        },
        {
          "internalType": "uint256",
          "name": "actualAmount",
          "type": "uint256"
        },
        {
          "internalType": "uint256",
          "name": "nonce",
          "type": "uint256"
        },
        {
          "internalType": "bytes",
          "name": "data",
          "type": "bytes"
        }
      ],
      "name": "repayLoan",
      "outputs": [],
      "stateMutability": "nonpayable",
      "type": "function"
    },
    {
      "inputs": [
        {
          "internalType": "uint256",
          "name": "ct",
          "type": "uint256"
        }
      ],
      "name": "setBlockTimeout",
      "outputs": [],
      "stateMutability": "nonpayable",
      "type": "function"
    }
  ],
  "bytecode": "0x60c06040523480156200001157600080fd5b506040516200162138038062001621833981810160405260208110156200003757600080fd5b50516001600160601b0319606082901b1660805260408051635aa6e67560e01b815290516001600160a01b03831691635aa6e675916004808301926020929190829003018186803b1580156200008c57600080fd5b505afa158015620000a1573d6000803e3d6000fd5b505050506040513d6020811015620000b857600080fd5b505160601b6001600160601b03191660a0526200010d73eb4c2781e4eba804ce9a9803c67d0893436bb27d737a250d5630b4cf539739df2c5dacb4c659f2488d60001962000157602090811b620007c117901c565b6200015073a0b86991c6218b36c1d19d4a2e9eb0ce3606eb48737a250d5630b4cf539739df2c5dacb4c659f2488d60001962000157602090811b620007c117901c565b5062000569565b801580620001e1575060408051636eb1769f60e11b81523060048201526001600160a01b03848116602483015291519185169163dd62ed3e91604480820192602092909190829003018186803b158015620001b157600080fd5b505afa158015620001c6573d6000803e3d6000fd5b505050506040513d6020811015620001dd57600080fd5b5051155b6200021e5760405162461bcd60e51b8152600401808060200182810382526036815260200180620015eb6036913960400191505060405180910390fd5b604080516001600160a01b038416602482015260448082018490528251808303909101815260649091019091526020810180516001600160e01b0390811663095ea7b360e01b17909152620002769185916200027b16565b505050565b6000620002d7826040518060400160405280602081526020017f5361666545524332303a206c6f772d6c6576656c2063616c6c206661696c6564815250856001600160a01b03166200033760201b620008d9179092919060201c565b8051909150156200027657808060200190516020811015620002f857600080fd5b5051620002765760405162461bcd60e51b815260040180806020018281038252602a815260200180620015c1602a913960400191505060405180910390fd5b606062000348848460008562000352565b90505b9392505050565b606082471015620003955760405162461bcd60e51b81526004018080602001828103825260268152602001806200159b6026913960400191505060405180910390fd5b620003a085620004b9565b620003f2576040805162461bcd60e51b815260206004820152601d60248201527f416464726573733a2063616c6c20746f206e6f6e2d636f6e7472616374000000604482015290519081900360640190fd5b600080866001600160a01b031685876040518082805190602001908083835b60208310620004325780518252601f19909201916020918201910162000411565b6001836020036101000a03801982511681845116808217855250505050505090500191505060006040518083038185875af1925050503d806000811462000496576040519150601f19603f3d011682016040523d82523d6000602084013e6200049b565b606091505b509092509050620004ae828286620004bf565b979650505050505050565b3b151590565b60608315620004d05750816200034b565b825115620004e15782518084602001fd5b8160405162461bcd60e51b81526004018080602001828103825283818151815260200191508051906020019080838360005b838110156200052d57818101518382015260200162000513565b50505050905090810190601f1680156200055b5780820380516001836020036101000a031916815260200191505b509250505060405180910390fd5b60805160601c60a05160601c6110036200059860003980610382528061052852508061070052506110036000f3fe608060405234801561001057600080fd5b50600436106100cf5760003560e01c806380e716551161008c578063ad5c464811610066578063ad5c464814610294578063d7f269fe1461029c578063f77c4791146102a4578063fd8e9154146102ac576100cf565b806380e7165514610236578063874a0e731461023e57806389a302711461028c576100cf565b8063086d3c7a146100d45780631639743b146100f357806332fe7b26146101be5780635aa6e675146101e257806367bf61c4146101ea57806373883a2b14610207575b600080fd5b6100f1600480360360208110156100ea57600080fd5b5035610377565b005b6100f1600480360360a081101561010957600080fd5b6001600160a01b03823581169260208101359091169160408201359160608101359181019060a08101608082013564010000000081111561014957600080fd5b82018360208201111561015b57600080fd5b8035906020019184600183028401116401000000008311171561017d57600080fd5b91908080601f0160208091040260200160405190810160405280939291908181526020018383808284376000920191909152509295506103e7945050505050565b6101c661050e565b604080516001600160a01b039092168252519081900360200190f35b6101c6610526565b6100f16004803603602081101561020057600080fd5b503561054a565b6102246004803603602081101561021d57600080fd5b503561064e565b60408051918252519081900360200190f35b61022461067a565b61025b6004803603602081101561025457600080fd5b5035610680565b604080516001600160a01b03909416845267ffffffffffffffff909216602084015282820152519081900360600190f35b6101c66106b6565b6101c66106ce565b6101c66106e6565b6101c66106fe565b6100f1600480360360a08110156102c257600080fd5b6001600160a01b03823581169260208101359091169160408201359160608101359181019060a08101608082013564010000000081111561030257600080fd5b82018360208201111561031457600080fd5b8035906020019184600183028401116401000000008311171561033657600080fd5b91908080601f016020809104026020016040519081016040528093929190818152602001838380828437600092019190915250929550610722945050505050565b336001600160a01b037f000000000000000000000000000000000000000000000000000000000000000016146103e2576040805162461bcd60e51b815260206004820152600b60248201526a21676f7665726e616e636560a81b604482015290519081900360640190fd5b600155565b6001600160a01b03841673eb4c2781e4eba804ce9a9803c67d0893436bb27d14610442576040805162461bcd60e51b81526020600482015260076024820152662172656e62746360c81b604482015290519081900360640190fd5b600061047773eb4c2781e4eba804ce9a9803c67d0893436bb27d73a0b86991c6218b36c1d19d4a2e9eb0ce3606eb48866108f2565b6040805160608101825273eb4c2781e4eba804ce9a9803c67d0893436bb27d815267ffffffffffffffff4281166020808401918252838501958652600098895288905292909620905181549251909616600160a01b0267ffffffffffffffff60a01b196001600160a01b03979097166001600160a01b03199093169290921795909516178455516001909301929092555050505050565b737a250d5630b4cf539739df2c5dacb4c659f2488d81565b7f000000000000000000000000000000000000000000000000000000000000000081565b806001541015610591576040805162461bcd60e51b815260206004820152600d60248201526c08589b1bd8dad51a5b595bdd5d609a1b604482015290519081900360640190fd5b6000818152602081905260409020600101546105e3576040805162461bcd60e51b815260206004820152600c60248201526b216f75747374616e64696e6760a01b604482015290519081900360640190fd5b60008181526020819052604081206001015461062a9073a0b86991c6218b36c1d19d4a2e9eb0ce3606eb489073eb4c2781e4eba804ce9a9803c67d0893436bb27d906108f2565b5050600090815260208190526040812080546001600160e01b031916815560010155565b6000610674670de0b6b3a764000061066e8467016345785d8a0000610b62565b90610bbb565b92915050565b60015481565b600060208190529081526040902080546001909101546001600160a01b03821691600160a01b900467ffffffffffffffff169083565b73a0b86991c6218b36c1d19d4a2e9eb0ce3606eb4881565b73c02aaa39b223fe8d0a0e5c4f27ead9083c756cc281565b73eb4c2781e4eba804ce9a9803c67d0893436bb27d81565b7f000000000000000000000000000000000000000000000000000000000000000081565b600082815260208190526040902060010154610774576040805162461bcd60e51b815260206004820152600c60248201526b216f75747374616e64696e6760a01b604482015290519081900360640190fd5b60008281526020819052604090206001015461079a6001600160a01b0386168783610c22565b5050600090815260208190526040812080546001600160e01b031916815560010155505050565b801580610847575060408051636eb1769f60e11b81523060048201526001600160a01b03848116602483015291519185169163dd62ed3e91604480820192602092909190829003018186803b15801561081957600080fd5b505afa15801561082d573d6000803e3d6000fd5b505050506040513d602081101561084357600080fd5b5051155b6108825760405162461bcd60e51b8152600401808060200182810382526036815260200180610f986036913960400191505060405180910390fd5b604080516001600160a01b038416602482015260448082018490528251808303909101815260649091019091526020810180516001600160e01b031663095ea7b360e01b1790526108d4908490610c70565b505050565b60606108e88484600085610d21565b90505b9392505050565b6040805160038082526080820190925260009182919060208201606080368337019050509050848160008151811061092657fe5b60200260200101906001600160a01b031690816001600160a01b03168152505073c02aaa39b223fe8d0a0e5c4f27ead9083c756cc28160018151811061096857fe5b60200260200101906001600160a01b031690816001600160a01b031681525050838160028151811061099657fe5b60200260200101906001600160a01b031690816001600160a01b031681525050737a250d5630b4cf539739df2c5dacb4c659f2488d6001600160a01b03166338ed17398460018430426040518663ffffffff1660e01b81526004018086815260200185815260200180602001846001600160a01b03168152602001838152602001828103825285818151815260200191508051906020019060200280838360005b83811015610a4f578181015183820152602001610a37565b505050509050019650505050505050600060405180830381600087803b158015610a7857600080fd5b505af1158015610a8c573d6000803e3d6000fd5b505050506040513d6000823e601f3d908101601f191682016040526020811015610ab557600080fd5b8101908080516040519392919084640100000000821115610ad557600080fd5b908301906020820185811115610aea57600080fd5b8251866020820283011164010000000082111715610b0757600080fd5b82525081516020918201928201910280838360005b83811015610b34578181015183820152602001610b1c565b50505050905001604052505050600182510381518110610b5057fe5b60200260200101519150509392505050565b600082610b7157506000610674565b82820282848281610b7e57fe5b04146108eb5760405162461bcd60e51b8152600401808060200182810382526021815260200180610f4d6021913960400191505060405180910390fd5b6000808211610c11576040805162461bcd60e51b815260206004820152601a60248201527f536166654d6174683a206469766973696f6e206279207a65726f000000000000604482015290519081900360640190fd5b818381610c1a57fe5b049392505050565b604080516001600160a01b038416602482015260448082018490528251808303909101815260649091019091526020810180516001600160e01b031663a9059cbb60e01b1790526108d49084905b6000610cc5826040518060400160405280602081526020017f5361666545524332303a206c6f772d6c6576656c2063616c6c206661696c6564815250856001600160a01b03166108d99092919063ffffffff16565b8051909150156108d457808060200190516020811015610ce457600080fd5b50516108d45760405162461bcd60e51b815260040180806020018281038252602a815260200180610f6e602a913960400191505060405180910390fd5b606082471015610d625760405162461bcd60e51b8152600401808060200182810382526026815260200180610f276026913960400191505060405180910390fd5b610d6b85610e7c565b610dbc576040805162461bcd60e51b815260206004820152601d60248201527f416464726573733a2063616c6c20746f206e6f6e2d636f6e7472616374000000604482015290519081900360640190fd5b600080866001600160a01b031685876040518082805190602001908083835b60208310610dfa5780518252601f199092019160209182019101610ddb565b6001836020036101000a03801982511681845116808217855250505050505090500191505060006040518083038185875af1925050503d8060008114610e5c576040519150601f19603f3d011682016040523d82523d6000602084013e610e61565b606091505b5091509150610e71828286610e82565b979650505050505050565b3b151590565b60608315610e915750816108eb565b825115610ea15782518084602001fd5b8160405162461bcd60e51b81526004018080602001828103825283818151815260200191508051906020019080838360005b83811015610eeb578181015183820152602001610ed3565b50505050905090810190601f168015610f185780820380516001836020036101000a031916815260200191505b509250505060405180910390fdfe416464726573733a20696e73756666696369656e742062616c616e636520666f722063616c6c536166654d6174683a206d756c7469706c69636174696f6e206f766572666c6f775361666545524332303a204552433230206f7065726174696f6e20646964206e6f7420737563636565645361666545524332303a20617070726f76652066726f6d206e6f6e2d7a65726f20746f206e6f6e2d7a65726f20616c6c6f77616e6365a2646970667358221220f1976a0ba00b96075165f2fed5c5f80dcb12deb52a3efec6b32f2835168bea4364736f6c63430007060033416464726573733a20696e73756666696369656e742062616c616e636520666f722063616c6c5361666545524332303a204552433230206f7065726174696f6e20646964206e6f7420737563636565645361666545524332303a20617070726f76652066726f6d206e6f6e2d7a65726f20746f206e6f6e2d7a65726f20616c6c6f77616e6365",
  "linkReferences": {},
  "deployedLinkReferences": {}
}