{
  "_format": "hh-sol-artifact-1",
  "contractName": "Swap",
  "sourceName": "contracts/modules/Swap.sol",
  "abi": [
    {
      "inputs": [
        {
          "internalType": "address",
          "name": "_controller",
          "type": "address"
        }
      ],
      "stateMutability": "nonpayable",
      "type": "constructor"
    },
    {
      "inputs": [],
      "name": "RENBTC",
      "outputs": [
        {
          "internalType": "address",
          "name": "",
          "type": "address"
        }
      ],
      "stateMutability": "view",
      "type": "function"
    },
    {
      "inputs": [],
      "name": "ROUTER",
      "outputs": [
        {
          "internalType": "address",
          "name": "",
          "type": "address"
        }
      ],
      "stateMutability": "view",
      "type": "function"
    },
    {
      "inputs": [],
      "name": "USDC",
      "outputs": [
        {
          "internalType": "address",
          "name": "",
          "type": "address"
        }
      ],
      "stateMutability": "view",
      "type": "function"
    },
    {
      "inputs": [],
      "name": "WETH",
      "outputs": [
        {
          "internalType": "address",
          "name": "",
          "type": "address"
        }
      ],
      "stateMutability": "view",
      "type": "function"
    },
    {
      "inputs": [],
      "name": "blockTimeout",
      "outputs": [
        {
          "internalType": "uint256",
          "name": "",
          "type": "uint256"
        }
      ],
      "stateMutability": "view",
      "type": "function"
    },
    {
      "inputs": [],
      "name": "controller",
      "outputs": [
        {
          "internalType": "address",
          "name": "",
          "type": "address"
        }
      ],
      "stateMutability": "view",
      "type": "function"
    },
    {
      "inputs": [
        {
          "internalType": "uint256",
          "name": "nonce",
          "type": "uint256"
        }
      ],
      "name": "defaultLoan",
      "outputs": [],
      "stateMutability": "nonpayable",
      "type": "function"
    },
    {
      "inputs": [],
      "name": "governance",
      "outputs": [
        {
          "internalType": "address",
          "name": "",
          "type": "address"
        }
      ],
      "stateMutability": "view",
      "type": "function"
    },
    {
      "inputs": [
        {
          "internalType": "uint256",
          "name": "",
          "type": "uint256"
        }
      ],
      "name": "outstanding",
      "outputs": [
        {
          "internalType": "address",
          "name": "token",
          "type": "address"
        },
        {
          "internalType": "uint64",
          "name": "when",
          "type": "uint64"
        },
        {
          "internalType": "uint256",
          "name": "qty",
          "type": "uint256"
        }
      ],
      "stateMutability": "view",
      "type": "function"
    },
    {
      "inputs": [
        {
          "internalType": "address",
          "name": "to",
          "type": "address"
        },
        {
          "internalType": "address",
          "name": "asset",
          "type": "address"
        },
        {
          "internalType": "uint256",
          "name": "actual",
          "type": "uint256"
        },
        {
          "internalType": "uint256",
          "name": "nonce",
          "type": "uint256"
        },
        {
          "internalType": "bytes",
          "name": "data",
          "type": "bytes"
        }
      ],
      "name": "receiveLoan",
      "outputs": [],
      "stateMutability": "nonpayable",
      "type": "function"
    },
    {
      "inputs": [
        {
          "internalType": "address",
          "name": "to",
          "type": "address"
        },
        {
          "internalType": "address",
          "name": "asset",
          "type": "address"
        },
        {
          "internalType": "uint256",
          "name": "actualAmount",
          "type": "uint256"
        },
        {
          "internalType": "uint256",
          "name": "nonce",
          "type": "uint256"
        },
        {
          "internalType": "bytes",
          "name": "data",
          "type": "bytes"
        }
      ],
      "name": "repayLoan",
      "outputs": [],
      "stateMutability": "nonpayable",
      "type": "function"
    },
    {
      "inputs": [
        {
          "internalType": "uint256",
          "name": "ct",
          "type": "uint256"
        }
      ],
      "name": "setBlockTimeout",
      "outputs": [],
      "stateMutability": "nonpayable",
      "type": "function"
    }
  ],
  "bytecode": "0x60c06040523480156200001157600080fd5b50604051620014c9380380620014c9833981016040819052620000349162000530565b806001600160a01b03166080816001600160a01b031660601b81525050806001600160a01b0316635aa6e6756040518163ffffffff1660e01b815260040160206040518083038186803b1580156200008b57600080fd5b505afa158015620000a0573d6000803e3d6000fd5b505050506040513d601f19601f82011682018060405250810190620000c6919062000530565b60601b6001600160601b03191660a0526200011973eb4c2781e4eba804ce9a9803c67d0893436bb27d737a250d5630b4cf539739df2c5dacb4c659f2488d60001962000163602090811b6200057c17901c565b6200015c73a0b86991c6218b36c1d19d4a2e9eb0ce3606eb48737a250d5630b4cf539739df2c5dacb4c659f2488d60001962000163602090811b6200057c17901c565b506200061f565b801580620001f15750604051636eb1769f60e11b81523060048201526001600160a01b03838116602483015284169063dd62ed3e9060440160206040518083038186803b158015620001b457600080fd5b505afa158015620001c9573d6000803e3d6000fd5b505050506040513d601f19601f82011682018060405250810190620001ef91906200057f565b155b620002695760405162461bcd60e51b815260206004820152603660248201527f5361666545524332303a20617070726f76652066726f6d206e6f6e2d7a65726f60448201527f20746f206e6f6e2d7a65726f20616c6c6f77616e63650000000000000000000060648201526084015b60405180910390fd5b604080516001600160a01b038416602482015260448082018490528251808303909101815260649091019091526020810180516001600160e01b0390811663095ea7b360e01b17909152620002c1918591620002c616565b505050565b600062000322826040518060400160405280602081526020017f5361666545524332303a206c6f772d6c6576656c2063616c6c206661696c6564815250856001600160a01b0316620003a460201b620006d8179092919060201c565b805190915015620002c157808060200190518101906200034391906200055b565b620002c15760405162461bcd60e51b815260206004820152602a60248201527f5361666545524332303a204552433230206f7065726174696f6e20646964206e6044820152691bdd081cdd58d8d9595960b21b606482015260840162000260565b6060620003b58484600085620003bf565b90505b9392505050565b606082471015620004225760405162461bcd60e51b815260206004820152602660248201527f416464726573733a20696e73756666696369656e742062616c616e636520666f6044820152651c8818d85b1b60d21b606482015260840162000260565b843b620004725760405162461bcd60e51b815260206004820152601d60248201527f416464726573733a2063616c6c20746f206e6f6e2d636f6e7472616374000000604482015260640162000260565b600080866001600160a01b0316858760405162000490919062000599565b60006040518083038185875af1925050503d8060008114620004cf576040519150601f19603f3d011682016040523d82523d6000602084013e620004d4565b606091505b509092509050620004e7828286620004f2565b979650505050505050565b6060831562000503575081620003b8565b825115620005145782518084602001fd5b8160405162461bcd60e51b8152600401620002609190620005b7565b6000602082840312156200054357600080fd5b81516001600160a01b0381168114620003b857600080fd5b6000602082840312156200056e57600080fd5b81518015158114620003b857600080fd5b6000602082840312156200059257600080fd5b5051919050565b60008251620005ad818460208701620005ec565b9190910192915050565b6020815260008251806020840152620005d8816040850160208701620005ec565b601f01601f19169190910160400192915050565b60005b8381101562000609578181015183820152602001620005ef565b8381111562000619576000848401525b50505050565b60805160601c60a05160601c610e77620006526000396000818161011e0152610272015260006102320152610e776000f3fe608060405234801561001057600080fd5b50600436106100b45760003560e01c8063874a0e7311610071578063874a0e731461016a57806389a30271146101dc578063ad5c4648146101f7578063d7f269fe14610212578063f77c47911461022d578063fd8e91541461025457600080fd5b8063086d3c7a146100b95780631639743b146100ce57806332fe7b26146100e15780635aa6e6751461011957806367bf61c41461014057806380e7165514610153575b600080fd5b6100cc6100c7366004610c9d565b610267565b005b6100cc6100dc366004610b04565b6102d7565b6100fc737a250d5630b4cf539739df2c5dacb4c659f2488d81565b6040516001600160a01b0390911681526020015b60405180910390f35b6100fc7f000000000000000000000000000000000000000000000000000000000000000081565b6100cc61014e366004610c9d565b6103e8565b61015c60015481565b604051908152602001610110565b6101ae610178366004610c9d565b600060208190529081526040902080546001909101546001600160a01b03821691600160a01b900467ffffffffffffffff169083565b604080516001600160a01b03909416845267ffffffffffffffff909216602084015290820152606001610110565b6100fc73a0b86991c6218b36c1d19d4a2e9eb0ce3606eb4881565b6100fc73c02aaa39b223fe8d0a0e5c4f27ead9083c756cc281565b6100fc73eb4c2781e4eba804ce9a9803c67d0893436bb27d81565b6100fc7f000000000000000000000000000000000000000000000000000000000000000081565b6100cc610262366004610b04565b6104e2565b336001600160a01b037f000000000000000000000000000000000000000000000000000000000000000016146102d25760405162461bcd60e51b815260206004820152600b60248201526a21676f7665726e616e636560a81b60448201526064015b60405180910390fd5b600155565b6001600160a01b03841673eb4c2781e4eba804ce9a9803c67d0893436bb27d1461032d5760405162461bcd60e51b81526020600482015260076024820152662172656e62746360c81b60448201526064016102c9565b600061036273eb4c2781e4eba804ce9a9803c67d0893436bb27d73a0b86991c6218b36c1d19d4a2e9eb0ce3606eb48866106f1565b6040805160608101825273eb4c2781e4eba804ce9a9803c67d0893436bb27d815267ffffffffffffffff4281166020808401918252838501958652600098895288905292909620905181549251909616600160a01b026001600160e01b03199092166001600160a01b039690961695909517178455516001909301929092555050505050565b80600154101561042a5760405162461bcd60e51b815260206004820152600d60248201526c08589b1bd8dad51a5b595bdd5d609a1b60448201526064016102c9565b6000818152602081905260409020600101546104775760405162461bcd60e51b815260206004820152600c60248201526b216f75747374616e64696e6760a01b60448201526064016102c9565b6000818152602081905260408120600101546104be9073a0b86991c6218b36c1d19d4a2e9eb0ce3606eb489073eb4c2781e4eba804ce9a9803c67d0893436bb27d906106f1565b5050600090815260208190526040812080546001600160e01b031916815560010155565b60008281526020819052604090206001015461052f5760405162461bcd60e51b815260206004820152600c60248201526b216f75747374616e64696e6760a01b60448201526064016102c9565b6000828152602081905260409020600101546105556001600160a01b0386168783610885565b5050600090815260208190526040812080546001600160e01b031916815560010155505050565b8015806106055750604051636eb1769f60e11b81523060048201526001600160a01b03838116602483015284169063dd62ed3e9060440160206040518083038186803b1580156105cb57600080fd5b505afa1580156105df573d6000803e3d6000fd5b505050506040513d601f19601f820116820180604052508101906106039190610cb6565b155b6106705760405162461bcd60e51b815260206004820152603660248201527f5361666545524332303a20617070726f76652066726f6d206e6f6e2d7a65726f60448201527520746f206e6f6e2d7a65726f20616c6c6f77616e636560501b60648201526084016102c9565b6040516001600160a01b0383166024820152604481018290526106d390849063095ea7b360e01b906064015b60408051601f198184030181529190526020810180516001600160e01b03166001600160e01b0319909316929092179091526108b5565b505050565b60606106e78484600085610987565b90505b9392505050565b6040805160038082526080820190925260009182919060208201606080368337019050509050848160008151811061072b5761072b610e15565b60200260200101906001600160a01b031690816001600160a01b03168152505073c02aaa39b223fe8d0a0e5c4f27ead9083c756cc28160018151811061077357610773610e15565b60200260200101906001600160a01b031690816001600160a01b03168152505083816002815181106107a7576107a7610e15565b6001600160a01b03909216602092830291909101909101526040516338ed173960e01b8152737a250d5630b4cf539739df2c5dacb4c659f2488d906338ed1739906107ff908690600190869030904290600401610d1e565b600060405180830381600087803b15801561081957600080fd5b505af115801561082d573d6000803e3d6000fd5b505050506040513d6000823e601f3d908101601f191682016040526108559190810190610bce565b600182516108639190610dc0565b8151811061087357610873610e15565b60200260200101519150509392505050565b6040516001600160a01b0383166024820152604481018290526106d390849063a9059cbb60e01b9060640161069c565b600061090a826040518060400160405280602081526020017f5361666545524332303a206c6f772d6c6576656c2063616c6c206661696c6564815250856001600160a01b03166106d89092919063ffffffff16565b8051909150156106d357808060200190518101906109289190610c7b565b6106d35760405162461bcd60e51b815260206004820152602a60248201527f5361666545524332303a204552433230206f7065726174696f6e20646964206e6044820152691bdd081cdd58d8d9595960b21b60648201526084016102c9565b6060824710156109e85760405162461bcd60e51b815260206004820152602660248201527f416464726573733a20696e73756666696369656e742062616c616e636520666f6044820152651c8818d85b1b60d21b60648201526084016102c9565b843b610a365760405162461bcd60e51b815260206004820152601d60248201527f416464726573733a2063616c6c20746f206e6f6e2d636f6e747261637400000060448201526064016102c9565b600080866001600160a01b03168587604051610a529190610ccf565b60006040518083038185875af1925050503d8060008114610a8f576040519150601f19603f3d011682016040523d82523d6000602084013e610a94565b606091505b5091509150610aa4828286610aaf565b979650505050505050565b60608315610abe5750816106ea565b825115610ace5782518084602001fd5b8160405162461bcd60e51b81526004016102c99190610ceb565b80356001600160a01b0381168114610aff57600080fd5b919050565b600080600080600060a08688031215610b1c57600080fd5b610b2586610ae8565b94506020610b34818801610ae8565b94506040870135935060608701359250608087013567ffffffffffffffff80821115610b5f57600080fd5b818901915089601f830112610b7357600080fd5b813581811115610b8557610b85610e2b565b610b97601f8201601f19168501610d8f565b91508082528a84828501011115610bad57600080fd5b80848401858401376000848284010152508093505050509295509295909350565b60006020808385031215610be157600080fd5b825167ffffffffffffffff80821115610bf957600080fd5b818501915085601f830112610c0d57600080fd5b815181811115610c1f57610c1f610e2b565b8060051b9150610c30848301610d8f565b8181528481019084860184860187018a1015610c4b57600080fd5b600095505b83861015610c6e578051835260019590950194918601918601610c50565b5098975050505050505050565b600060208284031215610c8d57600080fd5b815180151581146106ea57600080fd5b600060208284031215610caf57600080fd5b5035919050565b600060208284031215610cc857600080fd5b5051919050565b60008251610ce1818460208701610de5565b9190910192915050565b6020815260008251806020840152610d0a816040850160208701610de5565b601f01601f19169190910160400192915050565b600060a082018783526020878185015260a0604085015281875180845260c086019150828901935060005b81811015610d6e5784516001600160a01b031683529383019391830191600101610d49565b50506001600160a01b03969096166060850152505050608001529392505050565b604051601f8201601f1916810167ffffffffffffffff81118282101715610db857610db8610e2b565b604052919050565b600082821015610de057634e487b7160e01b600052601160045260246000fd5b500390565b60005b83811015610e00578181015183820152602001610de8565b83811115610e0f576000848401525b50505050565b634e487b7160e01b600052603260045260246000fd5b634e487b7160e01b600052604160045260246000fdfea264697066735822122079bc0220a5cef6163be2c5577e76f5dbae587996f9ac29455f4f623d5670105064736f6c63430008050033",
  "linkReferences": {},
  "deployedLinkReferences": {}
}