{
  "_format": "hh-sol-artifact-1",
  "contractName": "Swap",
  "sourceName": "contracts/modules/Swap.sol",
  "abi": [
    {
      "inputs": [
        {
          "internalType": "address",
          "name": "_controller",
          "type": "address"
        }
      ],
      "stateMutability": "nonpayable",
      "type": "constructor"
    },
    {
      "inputs": [],
      "name": "blockTimeout",
      "outputs": [
        {
          "internalType": "uint256",
          "name": "",
          "type": "uint256"
        }
      ],
      "stateMutability": "view",
      "type": "function"
    },
    {
      "inputs": [],
      "name": "controller",
      "outputs": [
        {
          "internalType": "address",
          "name": "",
          "type": "address"
        }
      ],
      "stateMutability": "view",
      "type": "function"
    },
    {
      "inputs": [
        {
          "internalType": "uint256",
          "name": "nonce",
          "type": "uint256"
        }
      ],
      "name": "defaultLoan",
      "outputs": [],
      "stateMutability": "nonpayable",
      "type": "function"
    },
    {
      "inputs": [],
      "name": "governance",
      "outputs": [
        {
          "internalType": "address",
          "name": "",
          "type": "address"
        }
      ],
      "stateMutability": "view",
      "type": "function"
    },
    {
      "inputs": [
        {
          "internalType": "uint256",
          "name": "",
          "type": "uint256"
        }
      ],
      "name": "outstanding",
      "outputs": [
        {
          "internalType": "address",
          "name": "token",
          "type": "address"
        },
        {
          "internalType": "uint64",
          "name": "when",
          "type": "uint64"
        },
        {
          "internalType": "uint256",
          "name": "qty",
          "type": "uint256"
        }
      ],
      "stateMutability": "view",
      "type": "function"
    },
    {
      "inputs": [
        {
          "internalType": "address",
          "name": "to",
          "type": "address"
        },
        {
          "internalType": "address",
          "name": "asset",
          "type": "address"
        },
        {
          "internalType": "uint256",
          "name": "actual",
          "type": "uint256"
        },
        {
          "internalType": "uint256",
          "name": "nonce",
          "type": "uint256"
        },
        {
          "internalType": "bytes",
          "name": "data",
          "type": "bytes"
        }
      ],
      "name": "receiveLoan",
      "outputs": [],
      "stateMutability": "nonpayable",
      "type": "function"
    },
    {
      "inputs": [
        {
          "internalType": "address",
          "name": "to",
          "type": "address"
        },
        {
          "internalType": "address",
          "name": "asset",
          "type": "address"
        },
        {
          "internalType": "uint256",
          "name": "actualAmount",
          "type": "uint256"
        },
        {
          "internalType": "uint256",
          "name": "nonce",
          "type": "uint256"
        },
        {
          "internalType": "bytes",
          "name": "data",
          "type": "bytes"
        }
      ],
      "name": "repayLoan",
      "outputs": [],
      "stateMutability": "nonpayable",
      "type": "function"
    },
    {
      "inputs": [
        {
          "internalType": "uint256",
          "name": "ct",
          "type": "uint256"
        }
      ],
      "name": "setBlockTimeout",
      "outputs": [],
      "stateMutability": "nonpayable",
      "type": "function"
    }
  ],
  "bytecode": "0x60c060405234801561001057600080fd5b50604051610f00380380610f008339818101604052602081101561003357600080fd5b50516001600160601b0319606082901b1660805260408051635aa6e67560e01b815290516001600160a01b03831691635aa6e675916004808301926020929190829003018186803b15801561008757600080fd5b505afa15801561009b573d6000803e3d6000fd5b505050506040513d60208110156100b157600080fd5b5051606081811b6001600160601b03191660a052608051901c91506001600160a01b0316610e096100f7600039806102fa52806109075250806109ed5250610e096000f3fe608060405234801561001057600080fd5b50600436106100885760003560e01c806380e716551161005b57806380e71655146101b6578063874a0e73146101d0578063f77c47911461021e578063fd8e91541461022657610088565b8063086d3c7a1461008d5780631639743b146100ac5780635aa6e6751461017557806367bf61c414610199575b600080fd5b6100aa600480360360208110156100a357600080fd5b50356102ef565b005b6100aa600480360360a08110156100c257600080fd5b6001600160a01b03823581169260208101359091169160408201359160608101359181019060a081016080820135600160201b81111561010157600080fd5b82018360208201111561011357600080fd5b803590602001918460018302840111600160201b8311171561013457600080fd5b91908080601f01602080910402602001604051908101604052809392919081815260200183838082843760009201919091525092955061035f945050505050565b61017d610905565b604080516001600160a01b039092168252519081900360200190f35b6100aa600480360360208110156101af57600080fd5b5035610929565b6101be6109af565b60408051918252519081900360200190f35b6101ed600480360360208110156101e657600080fd5b50356109b5565b604080516001600160a01b03909416845267ffffffffffffffff909216602084015282820152519081900360600190f35b61017d6109eb565b6100aa600480360360a081101561023c57600080fd5b6001600160a01b03823581169260208101359091169160408201359160608101359181019060a081016080820135600160201b81111561027b57600080fd5b82018360208201111561028d57600080fd5b803590602001918460018302840111600160201b831117156102ae57600080fd5b91908080601f016020809104026020016040519081016040528093929190818152602001838380828437600092019190915250929550610a0f945050505050565b336001600160a01b037f0000000000000000000000000000000000000000000000000000000000000000161461035a576040805162461bcd60e51b815260206004820152600b60248201526a21676f7665726e616e636560a81b604482015290519081900360640190fd5b600155565b6001600160a01b03841673eb4c2781e4eba804ce9a9803c67d0893436bb27d146103ba576040805162461bcd60e51b81526020600482015260076024820152662172656e62746360c81b604482015290519081900360640190fd5b6040805160038082526080820190925260609160208201838036833701905050905073eb4c2781e4eba804ce9a9803c67d0893436bb27d816000815181106103fe57fe5b60200260200101906001600160a01b031690816001600160a01b03168152505073c02aaa39b223fe8d0a0e5c4f27ead9083c756cc28160018151811061044057fe5b60200260200101906001600160a01b031690816001600160a01b03168152505073a0b86991c6218b36c1d19d4a2e9eb0ce3606eb488160028151811061048257fe5b6001600160a01b039092166020928302919091018201526040805163095ea7b360e01b8152737a250d5630b4cf539739df2c5dacb4c659f2488d60048201819052602482018890529151919273eb4c2781e4eba804ce9a9803c67d0893436bb27d9263095ea7b39260448082019392918290030181600087803b15801561050857600080fd5b505af115801561051c573d6000803e3d6000fd5b505050506040513d602081101561053257600080fd5b5051610576576040805162461bcd60e51b815260206004820152600e60248201526d185c1c1c9bdd994819985a5b195960921b604482015290519081900360640190fd5b6040805163d06ca61f60e01b815260048101878152602482019283528451604483015284516000936001600160a01b0386169363d06ca61f938b938993919260640190602080860191028083838c5b838110156105dd5781810151838201526020016105c5565b50505050905001935050505060006040518083038186803b15801561060157600080fd5b505afa158015610615573d6000803e3d6000fd5b505050506040513d6000823e601f3d908101601f19168201604052602081101561063e57600080fd5b8101908080516040519392919084600160201b82111561065d57600080fd5b90830190602082018581111561067257600080fd5b82518660208202830111600160201b8211171561068e57600080fd5b82525081516020918201928201910280838360005b838110156106bb5781810151838201526020016106a3565b505050509050016040525050506002815181106106d457fe5b602002602001015190506000826001600160a01b03166338ed173988848730426040518663ffffffff1660e01b81526004018086815260200185815260200180602001846001600160a01b03168152602001838152602001828103825285818151815260200191508051906020019060200280838360005b8381101561076457818101518382015260200161074c565b505050509050019650505050505050600060405180830381600087803b15801561078d57600080fd5b505af11580156107a1573d6000803e3d6000fd5b505050506040513d6000823e601f3d908101601f1916820160405260208110156107ca57600080fd5b8101908080516040519392919084600160201b8211156107e957600080fd5b9083019060208201858111156107fe57600080fd5b82518660208202830111600160201b8211171561081a57600080fd5b82525081516020918201928201910280838360005b8381101561084757818101518382015260200161082f565b5050505090500160405250505060028151811061086057fe5b6020908102919091018101516040805160608101825273eb4c2781e4eba804ce9a9803c67d0893436bb27d815267ffffffffffffffff42811682860190815282840194855260009b8c52948b905291909920985189549351909116600160a01b0267ffffffffffffffff60a01b196001600160a01b03929092166001600160a01b03199094169390931716919091178755516001909601959095555050505050505050565b7f000000000000000000000000000000000000000000000000000000000000000081565b806001541015610970576040805162461bcd60e51b815260206004820152600d60248201526c08589b1bd8dad51a5b595bdd5d609a1b604482015290519081900360640190fd5b6040805162461bcd60e51b815260206004820152600f60248201526e139bdd08125b5c1b195b595b9d1959608a1b604482015290519081900360640190fd5b60015481565b600060208190529081526040902080546001909101546001600160a01b03821691600160a01b900467ffffffffffffffff169083565b7f000000000000000000000000000000000000000000000000000000000000000081565b600082815260208190526040902060010154610a356001600160a01b0386168783610a5c565b5050600090815260208190526040812080546001600160e01b031916815560010155505050565b604080516001600160a01b038416602482015260448082018490528251808303909101815260649091019091526020810180516001600160e01b031663a9059cbb60e01b179052610aae908490610ab3565b505050565b6060610b08826040518060400160405280602081526020017f5361666545524332303a206c6f772d6c6576656c2063616c6c206661696c6564815250856001600160a01b0316610b649092919063ffffffff16565b805190915015610aae57808060200190516020811015610b2757600080fd5b5051610aae5760405162461bcd60e51b815260040180806020018281038252602a815260200180610daa602a913960400191505060405180910390fd5b6060610b738484600085610b7d565b90505b9392505050565b606082471015610bbe5760405162461bcd60e51b8152600401808060200182810382526026815260200180610d846026913960400191505060405180910390fd5b610bc785610cd9565b610c18576040805162461bcd60e51b815260206004820152601d60248201527f416464726573733a2063616c6c20746f206e6f6e2d636f6e7472616374000000604482015290519081900360640190fd5b60006060866001600160a01b031685876040518082805190602001908083835b60208310610c575780518252601f199092019160209182019101610c38565b6001836020036101000a03801982511681845116808217855250505050505090500191505060006040518083038185875af1925050503d8060008114610cb9576040519150601f19603f3d011682016040523d82523d6000602084013e610cbe565b606091505b5091509150610cce828286610cdf565b979650505050505050565b3b151590565b60608315610cee575081610b76565b825115610cfe5782518084602001fd5b8160405162461bcd60e51b81526004018080602001828103825283818151815260200191508051906020019080838360005b83811015610d48578181015183820152602001610d30565b50505050905090810190601f168015610d755780820380516001836020036101000a031916815260200191505b509250505060405180910390fdfe416464726573733a20696e73756666696369656e742062616c616e636520666f722063616c6c5361666545524332303a204552433230206f7065726174696f6e20646964206e6f742073756363656564a2646970667358221220ef8764d0bfa4695575573bbfbedfbaa8de076041387d77cef98c1c2c7bd551e064736f6c63430007000033",
  "linkReferences": {},
  "deployedLinkReferences": {}
}