{
  "_format": "hh-sol-artifact-1",
  "contractName": "StrategyRenVMAsset",
  "sourceName": "contracts/strategies/StrategyRenVMAsset.sol",
  "abi": [
    {
      "inputs": [
        {
          "internalType": "address",
          "name": "_controller",
          "type": "address"
        },
        {
          "internalType": "address",
          "name": "_want",
          "type": "address"
        },
        {
          "internalType": "string",
          "name": "_name",
          "type": "string"
        }
      ],
      "stateMutability": "nonpayable",
      "type": "constructor"
    },
    {
      "inputs": [],
      "name": "balanceOf",
      "outputs": [
        {
          "internalType": "uint256",
          "name": "result",
          "type": "uint256"
        }
      ],
      "stateMutability": "view",
      "type": "function"
    },
    {
      "inputs": [],
      "name": "balanceOfWant",
      "outputs": [
        {
          "internalType": "uint256",
          "name": "result",
          "type": "uint256"
        }
      ],
      "stateMutability": "view",
      "type": "function"
    },
    {
      "inputs": [],
      "name": "controller",
      "outputs": [
        {
          "internalType": "address",
          "name": "",
          "type": "address"
        }
      ],
      "stateMutability": "view",
      "type": "function"
    },
    {
      "inputs": [],
      "name": "deposit",
      "outputs": [],
      "stateMutability": "nonpayable",
      "type": "function"
    },
    {
      "inputs": [],
      "name": "getName",
      "outputs": [
        {
          "internalType": "string",
          "name": "",
          "type": "string"
        }
      ],
      "stateMutability": "view",
      "type": "function"
    },
    {
      "inputs": [],
      "name": "governance",
      "outputs": [
        {
          "internalType": "address",
          "name": "",
          "type": "address"
        }
      ],
      "stateMutability": "view",
      "type": "function"
    },
    {
      "inputs": [],
      "name": "harvest",
      "outputs": [],
      "stateMutability": "nonpayable",
      "type": "function"
    },
    {
      "inputs": [],
      "name": "performanceFee",
      "outputs": [
        {
          "internalType": "uint256",
          "name": "",
          "type": "uint256"
        }
      ],
      "stateMutability": "view",
      "type": "function"
    },
    {
      "inputs": [],
      "name": "performanceMax",
      "outputs": [
        {
          "internalType": "uint256",
          "name": "",
          "type": "uint256"
        }
      ],
      "stateMutability": "view",
      "type": "function"
    },
    {
      "inputs": [
        {
          "internalType": "address",
          "name": "_target",
          "type": "address"
        },
        {
          "internalType": "uint256",
          "name": "_amount",
          "type": "uint256"
        }
      ],
      "name": "permissionedSend",
      "outputs": [],
      "stateMutability": "nonpayable",
      "type": "function"
    },
    {
      "inputs": [
        {
          "internalType": "address",
          "name": "_controller",
          "type": "address"
        }
      ],
      "name": "setController",
      "outputs": [],
      "stateMutability": "nonpayable",
      "type": "function"
    },
    {
      "inputs": [
        {
          "internalType": "address",
          "name": "_governance",
          "type": "address"
        }
      ],
      "name": "setGovernance",
      "outputs": [],
      "stateMutability": "nonpayable",
      "type": "function"
    },
    {
      "inputs": [
        {
          "internalType": "uint256",
          "name": "_performanceFee",
          "type": "uint256"
        }
      ],
      "name": "setPerformanceFee",
      "outputs": [],
      "stateMutability": "nonpayable",
      "type": "function"
    },
    {
      "inputs": [
        {
          "internalType": "address",
          "name": "_strategist",
          "type": "address"
        }
      ],
      "name": "setStrategist",
      "outputs": [],
      "stateMutability": "nonpayable",
      "type": "function"
    },
    {
      "inputs": [
        {
          "internalType": "uint256",
          "name": "_withdrawalFee",
          "type": "uint256"
        }
      ],
      "name": "setWithdrawalFee",
      "outputs": [],
      "stateMutability": "nonpayable",
      "type": "function"
    },
    {
      "inputs": [],
      "name": "strategist",
      "outputs": [
        {
          "internalType": "address",
          "name": "",
          "type": "address"
        }
      ],
      "stateMutability": "view",
      "type": "function"
    },
    {
      "inputs": [],
      "name": "want",
      "outputs": [
        {
          "internalType": "address",
          "name": "",
          "type": "address"
        }
      ],
      "stateMutability": "view",
      "type": "function"
    },
    {
      "inputs": [],
      "name": "weth",
      "outputs": [
        {
          "internalType": "address",
          "name": "",
          "type": "address"
        }
      ],
      "stateMutability": "view",
      "type": "function"
    },
    {
      "inputs": [
        {
          "internalType": "uint256",
          "name": "_amount",
          "type": "uint256"
        }
      ],
      "name": "withdraw",
      "outputs": [],
      "stateMutability": "nonpayable",
      "type": "function"
    },
    {
      "inputs": [
        {
          "internalType": "contract IERC20",
          "name": "_asset",
          "type": "address"
        }
      ],
      "name": "withdraw",
      "outputs": [
        {
          "internalType": "uint256",
          "name": "balance",
          "type": "uint256"
        }
      ],
      "stateMutability": "nonpayable",
      "type": "function"
    },
    {
      "inputs": [],
      "name": "withdrawAll",
      "outputs": [
        {
          "internalType": "uint256",
          "name": "balance",
          "type": "uint256"
        }
      ],
      "stateMutability": "nonpayable",
      "type": "function"
    },
    {
      "inputs": [],
      "name": "withdrawalFee",
      "outputs": [
        {
          "internalType": "uint256",
          "name": "",
          "type": "uint256"
        }
      ],
      "stateMutability": "view",
      "type": "function"
    },
    {
      "inputs": [],
      "name": "withdrawalMax",
      "outputs": [
        {
          "internalType": "uint256",
          "name": "",
          "type": "uint256"
        }
      ],
      "stateMutability": "view",
      "type": "function"
    }
  ],
  "bytecode": "0x60a06040523480156200001157600080fd5b50604051620017433803806200174383398101604081905262000034916200015e565b60058054336001600160a01b03199182168117909255600780548216909217909155600680549091166001600160a01b038516179055606082901b6001600160601b0319166080528051620000919060089060208401906200009b565b50505050620002b5565b828054620000a99062000262565b90600052602060002090601f016020900481019282620000cd576000855562000118565b82601f10620000e857805160ff191683800117855562000118565b8280016001018555821562000118579182015b8281111562000118578251825591602001919060010190620000fb565b50620001269291506200012a565b5090565b5b808211156200012657600081556001016200012b565b80516001600160a01b03811681146200015957600080fd5b919050565b6000806000606084860312156200017457600080fd5b6200017f8462000141565b925060206200019081860162000141565b60408601519093506001600160401b0380821115620001ae57600080fd5b818701915087601f830112620001c357600080fd5b815181811115620001d857620001d86200029f565b604051601f8201601f19908116603f011681019083821181831017156200020357620002036200029f565b816040528281528a868487010111156200021c57600080fd5b600093505b8284101562000240578484018601518185018701529285019262000221565b82841115620002525760008684830101525b8096505050505050509250925092565b600181811c908216806200027757607f821691505b602082108114156200029957634e487b7160e01b600052602260045260246000fd5b50919050565b634e487b7160e01b600052604160045260246000fd5b60805160601c61140d6200033660003960008181610175015281816103c70152818161052c0152818161056d0152818161064a0152818161070f015281816108800152818161091c015281816109f301528181610aa101528181610b5f01528181610c4a01528181610cdb01528181610d3b0152610dd8015261140d6000f3fe608060405234801561001057600080fd5b506004361061014d5760003560e01c8063853828b6116100c3578063ac1e50251161007c578063ac1e50251461029c578063c1a3d44c146102af578063c7b9d530146102b7578063d0e30db0146102ca578063d5c1ff73146102d2578063f77c4791146102db57600080fd5b8063853828b61461024957806387788782146102515780638bc7e8c41461025a57806392eefe9b14610263578063a60bbc8014610276578063ab033ea91461028957600080fd5b80634641257d116101155780634641257d146101ea57806351cff8d9146101f25780635aa6e6751461021357806370897b2314610226578063722713f7146102395780637cc791131461024057600080fd5b806317d7de7c146101525780631f1fcd51146101705780631fe4a686146101af5780632e1a7d4d146101c25780633fc8cef3146101d7575b600080fd5b61015a6102ee565b6040516101679190611258565b60405180910390f35b6101977f000000000000000000000000000000000000000000000000000000000000000081565b6040516001600160a01b039091168152602001610167565b600754610197906001600160a01b031681565b6101d56101d036600461120a565b61037c565b005b600054610197906001600160a01b031681565b6101d5610677565b610205610200366004611182565b6106d6565b604051908152602001610167565b600554610197906001600160a01b031681565b6101d561023436600461120a565b610807565b6000610205565b61020560025481565b610205610836565b61020560015481565b61020560035481565b6101d5610271366004611182565b610a1e565b6101d56102843660046111bc565b610a6a565b6101d5610297366004611182565b610acc565b6101d56102aa36600461120a565b610b18565b610205610b47565b6101d56102c5366004611182565b610be6565b6101d5610c32565b61020560045481565b600654610197906001600160a01b031681565b600880546102fb90611371565b80601f016020809104026020016040519081016040528092919081815260200182805461032790611371565b80156103745780601f1061034957610100808354040283529160200191610374565b820191906000526020600020905b81548152906001019060200180831161035757829003601f168201915b505050505081565b6006546001600160a01b031633146103af5760405162461bcd60e51b81526004016103a6906112b0565b60405180910390fd5b6040516370a0823160e01b81523060048201526000907f00000000000000000000000000000000000000000000000000000000000000006001600160a01b0316906370a082319060240160206040518083038186803b15801561041157600080fd5b505afa158015610425573d6000803e3d6000fd5b505050506040513d601f19601f820116820180604052508101906104499190611223565b905081811015610474576104656104608383610d06565b610d19565b91506104718282610e69565b91505b600061049760045461049160035486610e7590919063ffffffff16565b90610e81565b9050610553600660009054906101000a90046001600160a01b03166001600160a01b0316639ec5a8946040518163ffffffff1660e01b815260040160206040518083038186803b1580156104ea57600080fd5b505afa1580156104fe573d6000803e3d6000fd5b505050506040513d601f19601f82011682018060405250810190610522919061119f565b6001600160a01b037f0000000000000000000000000000000000000000000000000000000000000000169083610e8d565b600654604051632988bb9f60e21b81526001600160a01b037f000000000000000000000000000000000000000000000000000000000000000081166004830152600092169063a622ee7c9060240160206040518083038186803b1580156105b957600080fd5b505afa1580156105cd573d6000803e3d6000fd5b505050506040513d601f19601f820116820180604052508101906105f1919061119f565b90506001600160a01b0381166106325760405162461bcd60e51b8152602060048201526006602482015265085d985d5b1d60d21b60448201526064016103a6565b610671816106408685610d06565b6001600160a01b037f0000000000000000000000000000000000000000000000000000000000000000169190610e8d565b50505050565b6007546001600160a01b031633148061069a57506005546001600160a01b031633145b6106d45760405162461bcd60e51b815260206004820152600b60248201526a08585d5d1a1bdc9a5e995960aa1b60448201526064016103a6565b565b6006546000906001600160a01b031633146107035760405162461bcd60e51b81526004016103a6906112b0565b816001600160a01b03167f00000000000000000000000000000000000000000000000000000000000000006001600160a01b0316141561076e5760405162461bcd60e51b81526004016103a6906020808252600490820152631dd85b9d60e21b604082015260600190565b6040516370a0823160e01b81523060048201526001600160a01b038316906370a082319060240160206040518083038186803b1580156107ad57600080fd5b505afa1580156107c1573d6000803e3d6000fd5b505050506040513d601f19601f820116820180604052508101906107e59190611223565b600654909150610802906001600160a01b03848116911683610e8d565b919050565b6005546001600160a01b031633146108315760405162461bcd60e51b81526004016103a69061128b565b600155565b6006546000906001600160a01b031633146108635760405162461bcd60e51b81526004016103a6906112b0565b61086b610ef5565b6040516370a0823160e01b81523060048201527f00000000000000000000000000000000000000000000000000000000000000006001600160a01b0316906370a082319060240160206040518083038186803b1580156108ca57600080fd5b505afa1580156108de573d6000803e3d6000fd5b505050506040513d601f19601f820116820180604052508101906109029190611223565b600654604051632988bb9f60e21b81526001600160a01b037f0000000000000000000000000000000000000000000000000000000000000000811660048301529293506000929091169063a622ee7c9060240160206040518083038186803b15801561096d57600080fd5b505afa158015610981573d6000803e3d6000fd5b505050506040513d601f19601f820116820180604052508101906109a5919061119f565b90506001600160a01b0381166109e65760405162461bcd60e51b8152602060048201526006602482015265085d985d5b1d60d21b60448201526064016103a6565b610a1a6001600160a01b037f0000000000000000000000000000000000000000000000000000000000000000168284610e8d565b5090565b6005546001600160a01b03163314610a485760405162461bcd60e51b81526004016103a69061128b565b600680546001600160a01b0319166001600160a01b0392909216919091179055565b6006546001600160a01b03163314610a945760405162461bcd60e51b81526004016103a6906112b0565b610ac86001600160a01b037f0000000000000000000000000000000000000000000000000000000000000000168383610e8d565b5050565b6005546001600160a01b03163314610af65760405162461bcd60e51b81526004016103a69061128b565b600580546001600160a01b0319166001600160a01b0392909216919091179055565b6005546001600160a01b03163314610b425760405162461bcd60e51b81526004016103a69061128b565b600355565b6040516370a0823160e01b81523060048201526000907f00000000000000000000000000000000000000000000000000000000000000006001600160a01b0316906370a082319060240160206040518083038186803b158015610ba957600080fd5b505afa158015610bbd573d6000803e3d6000fd5b505050506040513d601f19601f82011682018060405250810190610be19190611223565b905090565b6005546001600160a01b03163314610c105760405162461bcd60e51b81526004016103a69061128b565b600780546001600160a01b0319166001600160a01b0392909216919091179055565b6040516370a0823160e01b81523360048201526000907f00000000000000000000000000000000000000000000000000000000000000006001600160a01b0316906370a082319060240160206040518083038186803b158015610c9457600080fd5b505afa158015610ca8573d6000803e3d6000fd5b505050506040513d601f19601f82011682018060405250810190610ccc9190611223565b9050610d036001600160a01b037f000000000000000000000000000000000000000000000000000000000000000016333084610f00565b50565b6000610d12828461132e565b9392505050565b6040516370a0823160e01b815230600482015260009081906001600160a01b037f000000000000000000000000000000000000000000000000000000000000000016906370a082319060240160206040518083038186803b158015610d7d57600080fd5b505afa158015610d91573d6000803e3d6000fd5b505050506040513d601f19601f82011682018060405250810190610db59190611223565b6040516370a0823160e01b81523060048201529091506000906001600160a01b037f000000000000000000000000000000000000000000000000000000000000000016906370a082319060240160206040518083038186803b158015610e1a57600080fd5b505afa158015610e2e573d6000803e3d6000fd5b505050506040513d601f19601f82011682018060405250810190610e529190611223565b90506000610e608284610d06565b95945050505050565b6000610d1282846112d5565b6000610d12828461130f565b6000610d1282846112ed565b6040516001600160a01b038316602482015260448101829052610ef090849063a9059cbb60e01b906064015b60408051601f198184030181529190526020810180516001600160e01b03166001600160e01b031990931692909217909152610f38565b505050565b610d03610460610b47565b6040516001600160a01b03808516602483015283166044820152606481018290526106719085906323b872dd60e01b90608401610eb9565b6000610f8d826040518060400160405280602081526020017f5361666545524332303a206c6f772d6c6576656c2063616c6c206661696c6564815250856001600160a01b031661100a9092919063ffffffff16565b805190915015610ef05780806020019051810190610fab91906111e8565b610ef05760405162461bcd60e51b815260206004820152602a60248201527f5361666545524332303a204552433230206f7065726174696f6e20646964206e6044820152691bdd081cdd58d8d9595960b21b60648201526084016103a6565b60606110198484600085611021565b949350505050565b6060824710156110825760405162461bcd60e51b815260206004820152602660248201527f416464726573733a20696e73756666696369656e742062616c616e636520666f6044820152651c8818d85b1b60d21b60648201526084016103a6565b843b6110d05760405162461bcd60e51b815260206004820152601d60248201527f416464726573733a2063616c6c20746f206e6f6e2d636f6e747261637400000060448201526064016103a6565b600080866001600160a01b031685876040516110ec919061123c565b60006040518083038185875af1925050503d8060008114611129576040519150601f19603f3d011682016040523d82523d6000602084013e61112e565b606091505b509150915061113e828286611149565b979650505050505050565b60608315611158575081610d12565b8251156111685782518084602001fd5b8160405162461bcd60e51b81526004016103a69190611258565b60006020828403121561119457600080fd5b8135610d12816113c2565b6000602082840312156111b157600080fd5b8151610d12816113c2565b600080604083850312156111cf57600080fd5b82356111da816113c2565b946020939093013593505050565b6000602082840312156111fa57600080fd5b81518015158114610d1257600080fd5b60006020828403121561121c57600080fd5b5035919050565b60006020828403121561123557600080fd5b5051919050565b6000825161124e818460208701611345565b9190910192915050565b6020815260008251806020840152611277816040850160208701611345565b601f01601f19169190910160400192915050565b6020808252600b908201526a21676f7665726e616e636560a81b604082015260600190565b6020808252600b908201526a10b1b7b73a3937b63632b960a91b604082015260600190565b600082198211156112e8576112e86113ac565b500190565b60008261130a57634e487b7160e01b600052601260045260246000fd5b500490565b6000816000190483118215151615611329576113296113ac565b500290565b600082821015611340576113406113ac565b500390565b60005b83811015611360578181015183820152602001611348565b838111156106715750506000910152565b600181811c9082168061138557607f821691505b602082108114156113a657634e487b7160e01b600052602260045260246000fd5b50919050565b634e487b7160e01b600052601160045260246000fd5b6001600160a01b0381168114610d0357600080fdfea2646970667358221220a9fc0be1b1e65b65e7f3aca5fe1a0a2144e331abbb0acd19aaab000b9f503a6d64736f6c63430008050033",
  "linkReferences": {},
  "deployedLinkReferences": {}
}