{
  "_format": "hh-sol-artifact-1",
  "contractName": "BTCOSMedianizer",
  "sourceName": "contracts/vendor/yearn/utils/BTCOSMedianizer.sol",
  "abi": [
    {
      "inputs": [],
      "stateMutability": "nonpayable",
      "type": "constructor"
    },
    {
      "inputs": [],
      "name": "MEDIANIZER",
      "outputs": [
        {
          "internalType": "contract UniswapAnchoredView",
          "name": "",
          "type": "address"
        }
      ],
      "stateMutability": "view",
      "type": "function"
    },
    {
      "inputs": [],
      "name": "OSM",
      "outputs": [
        {
          "internalType": "contract OracleSecurityModule",
          "name": "",
          "type": "address"
        }
      ],
      "stateMutability": "view",
      "type": "function"
    },
    {
      "inputs": [
        {
          "internalType": "address",
          "name": "",
          "type": "address"
        }
      ],
      "name": "authorized",
      "outputs": [
        {
          "internalType": "bool",
          "name": "",
          "type": "bool"
        }
      ],
      "stateMutability": "view",
      "type": "function"
    },
    {
      "inputs": [],
      "name": "foresight",
      "outputs": [
        {
          "internalType": "uint256",
          "name": "price",
          "type": "uint256"
        },
        {
          "internalType": "bool",
          "name": "osm",
          "type": "bool"
        }
      ],
      "stateMutability": "view",
      "type": "function"
    },
    {
      "inputs": [],
      "name": "governance",
      "outputs": [
        {
          "internalType": "address",
          "name": "",
          "type": "address"
        }
      ],
      "stateMutability": "view",
      "type": "function"
    },
    {
      "inputs": [],
      "name": "read",
      "outputs": [
        {
          "internalType": "uint256",
          "name": "price",
          "type": "uint256"
        },
        {
          "internalType": "bool",
          "name": "osm",
          "type": "bool"
        }
      ],
      "stateMutability": "view",
      "type": "function"
    },
    {
      "inputs": [
        {
          "internalType": "address",
          "name": "_authorized",
          "type": "address"
        }
      ],
      "name": "revokeAuthorized",
      "outputs": [],
      "stateMutability": "nonpayable",
      "type": "function"
    },
    {
      "inputs": [
        {
          "internalType": "address",
          "name": "_authorized",
          "type": "address"
        }
      ],
      "name": "setAuthorized",
      "outputs": [],
      "stateMutability": "nonpayable",
      "type": "function"
    },
    {
      "inputs": [
        {
          "internalType": "address",
          "name": "_governance",
          "type": "address"
        }
      ],
      "name": "setGovernance",
      "outputs": [],
      "stateMutability": "nonpayable",
      "type": "function"
    },
    {
      "inputs": [],
      "name": "symbol",
      "outputs": [
        {
          "internalType": "string",
          "name": "",
          "type": "string"
        }
      ],
      "stateMutability": "view",
      "type": "function"
    }
  ],
  "bytecode": "0x60c0604052600360808190526242544360e81b60a09081526100249160029190610049565b5034801561003157600080fd5b50600180546001600160a01b031916331790556100dc565b828054600181600116156101000203166002900490600052602060002090601f016020900481019282601f1061008a57805160ff19168380011785556100b7565b828001600101855582156100b7579182015b828111156100b757825182559160200191906001019061009c565b506100c39291506100c7565b5090565b5b808211156100c357600081556001016100c8565b61084d806100eb6000396000f3fe608060405234801561001057600080fd5b506004361061009e5760003560e01c806395d89b411161006657806395d89b411461013e578063ab033ea9146101bb578063b9181611146101e1578063b9f084981461021b578063cfad9c8c146102235761009e565b806314fc2812146100a35780633f48be2d146100cb57806357de26a4146100f15780635aa6e6751461011257806394c5eddb14610136575b600080fd5b6100c9600480360360208110156100b957600080fd5b50356001600160a01b031661022b565b005b6100c9600480360360208110156100e157600080fd5b50356001600160a01b031661029c565b6100f961030a565b6040805192835290151560208301528051918290030190f35b61011a610555565b604080516001600160a01b039092168252519081900360200190f35b61011a610564565b61014661057c565b6040805160208082528351818301528351919283929083019185019080838360005b83811015610180578181015183820152602001610168565b50505050905090810190601f1680156101ad5780820380516001836020036101000a031916815260200191505b509250505060405180910390f35b6100c9600480360360208110156101d157600080fd5b50356001600160a01b0316610607565b610207600480360360208110156101f757600080fd5b50356001600160a01b0316610676565b604080519115158252519081900360200190f35b61011a61068b565b6100f96106a3565b6001546001600160a01b03163314610278576040805162461bcd60e51b815260206004820152600b60248201526a21676f7665726e616e636560a81b604482015290519081900360640190fd5b6001600160a01b03166000908152602081905260409020805460ff19166001179055565b6001546001600160a01b031633146102e9576040805162461bcd60e51b815260206004820152600b60248201526a21676f7665726e616e636560a81b604482015290519081900360640190fd5b6001600160a01b03166000908152602081905260409020805460ff19169055565b33600090815260208190526040812054819060ff1680156103a75750604080516327e73d1560e11b8152306004820152905173f185d0682d50819263941e5f4eacc763cc5c6c4291634fce7a2a916024808301926020929190829003018186803b15801561037757600080fd5b505afa15801561038b573d6000803e3d6000fd5b505050506040513d60208110156103a157600080fd5b50516001145b156104485760008073f185d0682d50819263941e5f4eacc763cc5c6c426001600160a01b03166359e02dd76040518163ffffffff1660e01b8152600401604080518083038186803b1580156103fb57600080fd5b505afa15801561040f573d6000803e3d6000fd5b505050506040513d604081101561042557600080fd5b508051602090910151909250905080156104455750915060019050610551565b50505b604051631fc58c3360e31b81526020600482019081526002805460001961010060018316150201168190046024840181905261054a9364e8d4a5100093739b8eb8b3d6e2e0db36f41455185fef7049a35cae9363fe2c61989390928291604490910190849080156104fa5780601f106104cf576101008083540402835291602001916104fa565b820191906000526020600020905b8154815290600101906020018083116104dd57829003601f168201915b50509250505060206040518083038186803b15801561051857600080fd5b505afa15801561052c573d6000803e3d6000fd5b505050506040513d602081101561054257600080fd5b505190610794565b6000915091505b9091565b6001546001600160a01b031681565b739b8eb8b3d6e2e0db36f41455185fef7049a35cae81565b6002805460408051602060018416156101000260001901909316849004601f810184900484028201840190925281815292918301828280156105ff5780601f106105d4576101008083540402835291602001916105ff565b820191906000526020600020905b8154815290600101906020018083116105e257829003601f168201915b505050505081565b6001546001600160a01b03163314610654576040805162461bcd60e51b815260206004820152600b60248201526a21676f7665726e616e636560a81b604482015290519081900360640190fd5b600180546001600160a01b0319166001600160a01b0392909216919091179055565b60006020819052908152604090205460ff1681565b73f185d0682d50819263941e5f4eacc763cc5c6c4281565b33600090815260208190526040812054819060ff1680156107405750604080516327e73d1560e11b8152306004820152905173f185d0682d50819263941e5f4eacc763cc5c6c4291634fce7a2a916024808301926020929190829003018186803b15801561071057600080fd5b505afa158015610724573d6000803e3d6000fd5b505050506040513d602081101561073a57600080fd5b50516001145b156104485760008073f185d0682d50819263941e5f4eacc763cc5c6c426001600160a01b0316630e5a6c706040518163ffffffff1660e01b8152600401604080518083038186803b1580156103fb57600080fd5b6000826107a3575060006107f0565b828202828482816107b057fe5b04146107ed5760405162461bcd60e51b81526004018080602001828103825260218152602001806107f76021913960400191505060405180910390fd5b90505b9291505056fe536166654d6174683a206d756c7469706c69636174696f6e206f766572666c6f77a2646970667358221220b9c552a00a3fd72f95497ce4c82fd5a1eb03753c79916800518edbe395ddbd4764736f6c634300060c0033",
  "linkReferences": {},
  "deployedLinkReferences": {}
}