{
  "address": "0x401875129028A231DD23255ec3e9a16C93411753",
  "abi": [
    {
      "inputs": [],
      "name": "BURN_GAS_DIFF",
      "outputs": [
        {
          "internalType": "uint256",
          "name": "",
          "type": "uint256"
        }
      ],
      "stateMutability": "view",
      "type": "function"
    },
    {
      "inputs": [],
      "name": "REPAY_GAS_DIFF",
      "outputs": [
        {
          "internalType": "uint256",
          "name": "",
          "type": "uint256"
        }
      ],
      "stateMutability": "view",
      "type": "function"
    },
    {
      "inputs": [
        {
          "internalType": "address",
          "name": "to",
          "type": "address"
        },
        {
          "internalType": "address",
          "name": "asset",
          "type": "address"
        },
        {
          "internalType": "uint256",
          "name": "amount",
          "type": "uint256"
        },
        {
          "internalType": "uint256",
          "name": "deadline",
          "type": "uint256"
        },
        {
          "internalType": "bytes",
          "name": "destination",
          "type": "bytes"
        },
        {
          "internalType": "bytes",
          "name": "signature",
          "type": "bytes"
        }
      ],
      "name": "burn",
      "outputs": [
        {
          "internalType": "uint256",
          "name": "amountToBurn",
          "type": "uint256"
        }
      ],
      "stateMutability": "nonpayable",
      "type": "function"
    },
    {
      "inputs": [],
      "name": "earn",
      "outputs": [],
      "stateMutability": "nonpayable",
      "type": "function"
    },
    {
      "inputs": [
        {
          "internalType": "address",
          "name": "underwriter",
          "type": "address"
        },
        {
          "internalType": "address",
          "name": "to",
          "type": "address"
        },
        {
          "internalType": "address",
          "name": "asset",
          "type": "address"
        },
        {
          "internalType": "uint256",
          "name": "amount",
          "type": "uint256"
        },
        {
          "internalType": "uint256",
          "name": "actualAmount",
          "type": "uint256"
        },
        {
          "internalType": "uint256",
          "name": "nonce",
          "type": "uint256"
        },
        {
          "internalType": "address",
          "name": "module",
          "type": "address"
        },
        {
          "internalType": "bytes32",
          "name": "nHash",
          "type": "bytes32"
        },
        {
          "internalType": "bytes",
          "name": "data",
          "type": "bytes"
        },
        {
          "internalType": "bytes",
          "name": "signature",
          "type": "bytes"
        }
      ],
      "name": "fallbackMint",
      "outputs": [],
      "stateMutability": "nonpayable",
      "type": "function"
    },
    {
      "inputs": [],
      "name": "fee",
      "outputs": [
        {
          "internalType": "uint256",
          "name": "",
          "type": "uint256"
        }
      ],
      "stateMutability": "view",
      "type": "function"
    },
    {
      "inputs": [],
      "name": "governance",
      "outputs": [
        {
          "internalType": "address",
          "name": "",
          "type": "address"
        }
      ],
      "stateMutability": "view",
      "type": "function"
    },
    {
      "inputs": [],
      "name": "governanceFee",
      "outputs": [
        {
          "internalType": "uint256",
          "name": "",
          "type": "uint256"
        }
      ],
      "stateMutability": "view",
      "type": "function"
    },
    {
      "inputs": [
        {
          "internalType": "address",
          "name": "_governance",
          "type": "address"
        },
        {
          "internalType": "address",
          "name": "_strategist",
          "type": "address"
        }
      ],
      "name": "initialize",
      "outputs": [],
      "stateMutability": "nonpayable",
      "type": "function"
    },
    {
      "inputs": [],
      "name": "keeperReward",
      "outputs": [
        {
          "internalType": "uint256",
          "name": "",
          "type": "uint256"
        }
      ],
      "stateMutability": "view",
      "type": "function"
    },
    {
      "inputs": [
        {
          "internalType": "address",
          "name": "",
          "type": "address"
        }
      ],
      "name": "nonces",
      "outputs": [
        {
          "internalType": "uint256",
          "name": "",
          "type": "uint256"
        }
      ],
      "stateMutability": "view",
      "type": "function"
    },
    {
      "inputs": [
        {
          "internalType": "address",
          "name": "underwriter",
          "type": "address"
        },
        {
          "internalType": "address",
          "name": "to",
          "type": "address"
        },
        {
          "internalType": "address",
          "name": "asset",
          "type": "address"
        },
        {
          "internalType": "uint256",
          "name": "amount",
          "type": "uint256"
        },
        {
          "internalType": "uint256",
          "name": "actualAmount",
          "type": "uint256"
        },
        {
          "internalType": "uint256",
          "name": "nonce",
          "type": "uint256"
        },
        {
          "internalType": "address",
          "name": "module",
          "type": "address"
        },
        {
          "internalType": "bytes32",
          "name": "nHash",
          "type": "bytes32"
        },
        {
          "internalType": "bytes",
          "name": "data",
          "type": "bytes"
        },
        {
          "internalType": "bytes",
          "name": "signature",
          "type": "bytes"
        }
      ],
      "name": "repay",
      "outputs": [
        {
          "internalType": "uint256",
          "name": "amountOut",
          "type": "uint256"
        }
      ],
      "stateMutability": "nonpayable",
      "type": "function"
    },
    {
      "inputs": [
        {
          "internalType": "address",
          "name": "_governance",
          "type": "address"
        }
      ],
      "name": "setGovernance",
      "outputs": [],
      "stateMutability": "nonpayable",
      "type": "function"
    },
    {
      "inputs": [
        {
          "internalType": "uint256",
          "name": "_governanceFee",
          "type": "uint256"
        },
        {
          "internalType": "uint256",
          "name": "_fee",
          "type": "uint256"
        },
        {
          "internalType": "uint256",
          "name": "_burnFee",
          "type": "uint256"
        },
        {
          "internalType": "uint256",
          "name": "_keeperReward",
          "type": "uint256"
        }
      ],
      "name": "setParameters",
      "outputs": [],
      "stateMutability": "nonpayable",
      "type": "function"
    },
    {
      "inputs": [
        {
          "internalType": "address",
          "name": "_strategist",
          "type": "address"
        }
      ],
      "name": "setStrategist",
      "outputs": [],
      "stateMutability": "nonpayable",
      "type": "function"
    },
    {
      "inputs": [],
      "name": "strategist",
      "outputs": [
        {
          "internalType": "address",
          "name": "",
          "type": "address"
        }
      ],
      "stateMutability": "view",
      "type": "function"
    },
    {
      "stateMutability": "payable",
      "type": "receive"
    }
  ],
  "transactionHash": "0x72c7f74e1ae79246b4f973ad7c3986ea7aaccbf8b1b87b620e169f74211cb786",
  "args": [],
  "numDeployments": 2,
  "solcInputHash": "5bcacadeee5d5b61790fc3028bf11ec4",
  "bytecode": "0x608060405234801561001057600080fd5b50614671806100206000396000f3fe6080604052600436106100c75760003560e01c8063056f4e18146100d35780630ea90a12146100fa5780631fe4a6861461010f5780633b36c7f814610140578063485cc955146102b85780635aa6e675146102f55780637ecebe001461030a578063a9ec75f61461033d578063ab033ea914610352578063b0a82ee814610385578063c7b9d5301461039a578063d389800f146103cd578063ddca3f43146103e2578063e4759b2f146103f7578063f24187751461056f578063fcd9da44146106ca576100ce565b366100ce57005b600080fd5b3480156100df57600080fd5b506100e8610706565b60408051918252519081900360200190f35b34801561010657600080fd5b506100e861070c565b34801561011b57600080fd5b50610124610712565b604080516001600160a01b039092168252519081900360200190f35b34801561014c57600080fd5b506100e8600480360361014081101561016457600080fd5b6001600160a01b0382358116926020810135821692604082013583169260608301359260808101359260a08201359260c0830135169160e0810135918101906101208101610100820135600160201b8111156101bf57600080fd5b8201836020820111156101d157600080fd5b803590602001918460018302840111600160201b831117156101f257600080fd5b91908080601f0160208091040260200160405190810160405280939291908181526020018383808284376000920191909152509295949360208101935035915050600160201b81111561024457600080fd5b82018360208201111561025657600080fd5b803590602001918460018302840111600160201b8311171561027757600080fd5b91908080601f016020809104026020016040519081016040528093929190818152602001838380828437600092019190915250929550610721945050505050565b3480156102c457600080fd5b506102f3600480360360408110156102db57600080fd5b506001600160a01b0381358116916020013516610c03565b005b34801561030157600080fd5b50610124610ff4565b34801561031657600080fd5b506100e86004803603602081101561032d57600080fd5b50356001600160a01b0316611003565b34801561034957600080fd5b506100e8611015565b34801561035e57600080fd5b506102f36004803603602081101561037557600080fd5b50356001600160a01b031661101b565b34801561039157600080fd5b506100e861108a565b3480156103a657600080fd5b506102f3600480360360208110156103bd57600080fd5b50356001600160a01b0316611090565b3480156103d957600080fd5b506102f36110ff565b3480156103ee57600080fd5b506100e8611249565b34801561040357600080fd5b506102f3600480360361014081101561041b57600080fd5b6001600160a01b0382358116926020810135821692604082013583169260608301359260808101359260a08201359260c0830135169160e0810135918101906101208101610100820135600160201b81111561047657600080fd5b82018360208201111561048857600080fd5b803590602001918460018302840111600160201b831117156104a957600080fd5b91908080601f0160208091040260200160405190810160405280939291908181526020018383808284376000920191909152509295949360208101935035915050600160201b8111156104fb57600080fd5b82018360208201111561050d57600080fd5b803590602001918460018302840111600160201b8311171561052e57600080fd5b91908080601f01602080910402602001604051908101604052809392919081815260200183838082843760009201919091525092955061124f945050505050565b34801561057b57600080fd5b506100e8600480360360c081101561059257600080fd5b6001600160a01b03823581169260208101359091169160408201359160608101359181019060a081016080820135600160201b8111156105d157600080fd5b8201836020820111156105e357600080fd5b803590602001918460018302840111600160201b8311171561060457600080fd5b91908080601f0160208091040260200160405190810160405280939291908181526020018383808284376000920191909152509295949360208101935035915050600160201b81111561065657600080fd5b82018360208201111561066857600080fd5b803590602001918460018302840111600160201b8311171561068957600080fd5b91908080601f0160208091040260200160405190810160405280939291908181526020018383808284376000920191909152509295506114af945050505050565b3480156106d657600080fd5b506102f3600480360360808110156106ed57600080fd5b5080359060208101359060408101359060600135611e55565b61a22681565b60385481565b6037546001600160a01b031681565b6000805a905061072f614382565b6001600160a01b038716600080516020614577833981519152148061076a57506001600160a01b038716600080516020614557833981519152145b8061079157506001600160a01b03871673c4e15973e6ff2a35cc804c2cf9d2a1b817a8b40f145b806107b257506001600160a01b03871660008051602061449e833981519152145b806107c457506001600160a01b038716155b610808576040805162461bcd60e51b815260206004820152601060248201526f21617070726f7665642d6d6f64756c6560801b604482015290519081900360640190fd5b6040518061012001604052808d6001600160a01b031681526020018c6001600160a01b031681526020018981526020018b8152602001886001600160a01b031681526020018e6001600160a01b0316815260200186815260200160008152602001610871611eb6565b90529050600061088082611f10565b905073e4b679400f0f267212d5d812b95f58c83243ee716001600160a01b031663159ab14d8360000151846040015185608001518660c0015160405160200180856001600160a01b03168152602001848152602001836001600160a01b0316815260200180602001828103825283818151815260200191508051906020019080838360005b8381101561091d578181015183820152602001610905565b50505050905090810190601f16801561094a5780820380516001836020036101000a031916815260200191505b5095505050505050604051602081830303815290604052805190602001208c8a896040518563ffffffff1660e01b81526004018085815260200184815260200183815260200180602001828103825283818151815260200191508051906020019080838360005b838110156109c95781810151838201526020016109b1565b50505050905090810190601f1680156109f65780820380516001836020036101000a031916815260200191505b5095505050505050602060405180830381600087803b158015610a1857600080fd5b505af1158015610a2c573d6000803e3d6000fd5b505050506040513d6020811015610a4257600080fd5b505160e08301526001600160a01b03881660008051602061457783398151915214610b22576001600160a01b03881615610b05576001600160a01b03881660008051602061455783398151915214610ae8576001600160a01b03881673c4e15973e6ff2a35cc804c2cf9d2a1b817a8b40f14610acc57610ac78260e001516001611fd5565b610ae3565b610ae3610ade8360e001516003611ff5565b612007565b610b00565b610b00610afa8360e001516001611fd5565b8e6123c9565b610b1d565b610b1d610b178360e001516001611fd5565b8e612658565b610b39565b610b39610b348360e001516001611fd5565b612898565b93506001600160a01b03881660008051602061455783398151915214801590610b6a57506001600160a01b03881615155b15610b8357610b836001600160a01b0389168e86612aa3565b326001600160a01b03166108fc610bc9610bc3603b54610bb73a610bbd896101000151610bb761a226610bb75a8f90612af5565b90612b57565b90612baf565b47612c08565b6040518115909202916000818181858888f19350505050158015610bf1573d6000803e3d6000fd5b505050509a9950505050505050505050565b600054610100900460ff1680610c1c5750610c1c612c1e565b80610c2a575060005460ff16155b610c655760405162461bcd60e51b815260040180806020018281038252602e8152602001806144be602e913960400191505060405180910390fd5b600054610100900460ff16158015610c90576000805460ff1961ff0019909116610100171660011790555b6608e1bc9bf04000603555660e35fa931a0000603a556706f05b59d3b20000603855603680546001600160a01b038086166001600160a01b0319928316179092556037805492851692909116919091179055610cf6670de0b6b3a76400006103e8612c2f565b603b55610d2d60008051602061449e83398151915273e4b679400f0f267212d5d812b95f58c83243ee716001600160fe1b03612c93565b610d6160008051602061449e8339815191527393054188d876f558f4a66b2ef1d97d16edf0895b6001600160fe1b03612c93565b610d956000805160206145778339815191527393054188d876f558f4a66b2ef1d97d16edf0895b6001600160fe1b03612c93565b610dc96000805160206145778339815191527380466c64868e1ab14a1ddf27a676c3fcbe638fe56001600160fe1b03612c93565b610e037349849c98ae39fff122806c06791fa73784fb3675736def55d2e18486b9ddfaa075bc4e4ee0b28c15456001600160fe1b03612c93565b610e3d736def55d2e18486b9ddfaa075bc4e4ee0b28c15457341671ba1abcba387b9b2b752c205e22e916be6e36001600160fe1b03612c93565b610e7160008051602061449e833981519152737a250d5630b4cf539739df2c5dacb4c659f2488d6001600160fe1b03612c93565b610ea5600080516020614557833981519152737a250d5630b4cf539739df2c5dacb4c659f2488d6001600160fe1b03612c93565b6000805160206145e68339815191527f98da2c5e4c6b1db946694570273b859a6e4083ccc8faa155edfc4c54eb3cfd73600080516020614411833981519152610eec612da6565b60408051602080820196909652808201949094526060840192909252608083015260008051602061457783398151915260a0808401919091528151808403909101815260c090920190528051910120603d556000805160206145e68339815191527f2ebd54194914126698f04c81e3945e63f9a04cb5b45eb55794ad7b23ebf8a0f7600080516020614411833981519152610f85612da6565b60408051602080820196909652808201949094526060840192909252608083015273c4e15973e6ff2a35cc804c2cf9d2a1b817a8b40f60a0808401919091528151808403909101815260c090920190528051910120603e558015610fef576000805461ff00191690555b505050565b6036546001600160a01b031681565b603c6020526000908152604090205481565b603b5481565b6036546001600160a01b03163314611068576040805162461bcd60e51b815260206004820152600b60248201526a21676f7665726e616e636560a81b604482015290519081900360640190fd5b603680546001600160a01b0319166001600160a01b0392909216919091179055565b61a09e81565b6036546001600160a01b031633146110dd576040805162461bcd60e51b815260206004820152600b60248201526a21676f7665726e616e636560a81b604482015290519081900360640190fd5b603780546001600160a01b0319166001600160a01b0392909216919091179055565b611107612daa565b604080516370a0823160e01b815230600482015290516111889160008051602061449e833981519152916370a0823191602480820192602092909190829003018186803b15801561115757600080fd5b505afa15801561116b573d6000803e3d6000fd5b505050506040513d602081101561118157600080fd5b5051612898565b50611191612e0c565b5047674563918244f40000811115611246576000674563918244f400008203905060006111c082603854612fa6565b6036546040519192506001600160a01b031690819083156108fc029084906000818181858888f193505050501580156111fd573d6000803e3d6000fd5b506037546001600160a01b0316806108fc6112188686612af5565b6040518115909202916000818181858888f19350505050158015611240573d6000803e3d6000fd5b50505050505b50565b60355481565b60006040518061012001604052808b6001600160a01b031681526020018a6001600160a01b03168152602001878152602001898152602001866001600160a01b031681526020018c6001600160a01b03168152602001848152602001600081526020016000815250905060006112c482611f10565b9050600073e4b679400f0f267212d5d812b95f58c83243ee716001600160a01b031663159ab14d8460000151856040015186608001518760c0015160405160200180856001600160a01b03168152602001848152602001836001600160a01b0316815260200180602001828103825283818151815260200191508051906020019080838360005b8381101561136357818101518382015260200161134b565b50505050905090810190601f1680156113905780820380516001836020036101000a031916815260200191505b5095505050505050604051602081830303815290604052805190602001208b89886040518563ffffffff1660e01b81526004018085815260200184815260200183815260200180602001828103825283818151815260200191508051906020019080838360005b8381101561140f5781810151838201526020016113f7565b50505050905090810190601f16801561143c5780820380516001836020036101000a031916815260200191505b5095505050505050602060405180830381600087803b15801561145e57600080fd5b505af1158015611472573d6000803e3d6000fd5b505050506040513d602081101561148857600080fd5b505190506114a06001600160a01b038c168d83612aa3565b50505050505050505050505050565b600080604051806101a00160405280896001600160a01b03168152602001886001600160a01b0316815260200187815260200186815260200160008152602001600081526020015a81526000602082018190526040820181905260608201819052608082015260a0810186905260c001849052905061152c611eb6565b60e082015260608101514210611575576040805162461bcd60e51b815260206004820152600960248201526821646561646c696e6560b81b604482015290519081900360640190fd5b60208101516001600160a01b031660008051602061457783398151915214156116ea576001600160a01b038089166000908152603c6020818152604080842054608087015285519094168352522080546001019055603d546115e6906115db9083612fc4565b82610180015161308d565b6001600160a01b031681600001516001600160a01b03161461163c576040805162461bcd60e51b815260206004820152600a602482015269217369676e617475726560b01b604482015290519081900360640190fd5b602080820151825160408085015181516323b872dd60e01b81526001600160a01b0393841660048201523060248201526044810191909152905191909216926323b872dd92606480820193918290030181600087803b15801561169e57600080fd5b505af11580156116b2573d6000803e3d6000fd5b505050506040513d60208110156116c857600080fd5b505060408101516116e3906116de90600161310d565b61311f565b9150611d03565b6001600160a01b03871673c4e15973e6ff2a35cc804c2cf9d2a1b817a8b40f141561184c576001600160a01b0388166000818152603c602081815260408320805460808701819052949093525260019091019055603e5461174f906115db9083612fc4565b6001600160a01b031681600001516001600160a01b0316146117a5576040805162461bcd60e51b815260206004820152600a602482015269217369676e617475726560b01b604482015290519081900360640190fd5b602080820151825160408085015181516323b872dd60e01b81526001600160a01b0393841660048201523060248201526044810191909152905191909216926323b872dd92606480820193918290030181600087803b15801561180757600080fd5b505af115801561181b573d6000803e3d6000fd5b505050506040513d602081101561183157600080fd5b505060408101516116e390611845906132f0565b60036136e9565b60208101516001600160a01b031660008051602061449e8339815191521415611a885780602001516001600160a01b0316637ecebe0082600001516040518263ffffffff1660e01b815260040180826001600160a01b0316815260200191505060206040518083038186803b1580156118c457600080fd5b505afa1580156118d8573d6000803e3d6000fd5b505050506040513d60208110156118ee57600080fd5b505160808201526118fe816136fb565b60a0820152610180810151611912906137e0565b6101408401819052610120840182905260ff909216610100840181905260208401518451608086015160a0870151604080516323f2ebc360e21b81526001600160a01b039485166004820152306024820152604481019390935260648301919091526001608483015260a482019490945260c481019490945260e48401949094529051921691638fcbaf0c916101048082019260009290919082900301818387803b1580156119c057600080fd5b505af11580156119d4573d6000803e3d6000fd5b5050505080602001516001600160a01b03166323b872dd82600001513084604001516040518463ffffffff1660e01b815260040180846001600160a01b03168152602001836001600160a01b031681526020018281526020019350505050602060405180830381600087803b158015611a4c57600080fd5b505af1158015611a60573d6000803e3d6000fd5b505050506040513d6020811015611a7657600080fd5b505060408101516116e390600161310d565b60208101516001600160a01b03166000805160206145578339815191521415611cc35780602001516001600160a01b0316637ecebe0082600001516040518263ffffffff1660e01b815260040180826001600160a01b0316815260200191505060206040518083038186803b158015611b0057600080fd5b505afa158015611b14573d6000803e3d6000fd5b505050506040513d6020811015611b2a57600080fd5b50516080820152611b3a816136fb565b60a0820152610180810151611b4e906137e0565b6101408401819052610120840182905260ff90921661010084018190526020840151845160408087015160a0880151825163d505accf60e01b81526001600160a01b03948516600482015230602482015260448101929092526064820152608481019490945260a484019490945260c48301949094529151929091169163d505accf9160e48082019260009290919082900301818387803b158015611bf257600080fd5b505af1158015611c06573d6000803e3d6000fd5b5050505080602001516001600160a01b03166323b872dd82600001513084604001516040518463ffffffff1660e01b815260040180846001600160a01b03168152602001836001600160a01b031681526020018281526020019350505050602060405180830381600087803b158015611c7e57600080fd5b505af1158015611c92573d6000803e3d6000fd5b505050506040513d6020811015611ca857600080fd5b505060408101516116e390611cbc9061383d565b600161310d565b6040805162461bcd60e51b815260206004820152601060248201526f085cdd5c1c1bdc9d19590b585cdcd95d60821b604482015290519081900360640190fd5b610160810151604080516338463cff60e01b8152602481018590526004810191825282516044820152825173e4b679400f0f267212d5d812b95f58c83243ee71936338463cff9390928792829160640190602086019080838360005b83811015611d77578181015183820152602001611d5f565b50505050905090810190601f168015611da45780820380516001836020036101000a031916815260200191505b509350505050602060405180830381600087803b158015611dc457600080fd5b505af1158015611dd8573d6000803e3d6000fd5b505050506040513d6020811015611dee57600080fd5b5050603b5460e082015132916108fc91611e2191610bc391610bb7903a90610bbd908361a09e815a60c08e015190612af5565b6040518115909202916000818181858888f19350505050158015611e49573d6000803e3d6000fd5b50509695505050505050565b6036546001600160a01b03163314611ea2576040805162461bcd60e51b815260206004820152600b60248201526a21676f7665726e616e636560a81b604482015290519081900360640190fd5b603893909355603591909155603a55603b55565b6000611f0d565b82811015611f0957803560005b61010081108015611ee05750600019811b821615155b15611eff5760ff82821c1615611ef7576040860395505b600801611eca565b5050602001611ebd565b5050505b90565b600080611fcc7fdb76b3b6f252d5a7418b86aea25c87126f450d18491ccb7b8427fe0e9697a31c846020015185606001518660a00151876080015188604001518960c001518051906020012060405160200180888152602001876001600160a01b03168152602001868152602001856001600160a01b03168152602001846001600160a01b0316815260200183815260200182815260200197505050505050505060405160208183030381529060405280519060200120613acb565b9150505b919050565b6000611fee611fe78460355485613b17565b8490612af5565b9392505050565b6000611fee611fe78460355485613b51565b60006120116143f2565b828152604080516000917393054188d876f558f4a66b2ef1d97d16edf0895b91630b4c7e4d60e01b918591859160249091019081908490808383875b8381101561206557818101518382015260200161204d565b505050509190910192835250506040805180830381526020928301825291820180516001600160e01b03166001600160e01b0319909516949094178452518151919390925082918083835b602083106120cf5780518252601f1990920191602091820191016120b0565b6001836020036101000a0380198251168184511680821785525050505050509050019150506000604051808303816000865af19150503d8060008114612131576040519150601f19603f3d011682016040523d82523d6000602084013e612136565b606091505b5050905080612175576040805162461bcd60e51b815260206004820152600660248201526521637572766560d01b604482015290519081900360640190fd5b604080516370a0823160e01b81523060048201529051736def55d2e18486b9ddfaa075bc4e4ee0b28c15459163b6b55f25917349849c98ae39fff122806c06791fa73784fb3675916370a08231916024808301926020929190829003018186803b1580156121e257600080fd5b505afa1580156121f6573d6000803e3d6000fd5b505050506040513d602081101561220c57600080fd5b5051604080516001600160e01b031960e085901b168152600481019290925251602480830192600092919082900301818387803b15801561224c57600080fd5b505af1158015612260573d6000803e3d6000fd5b5050604080516370a0823160e01b815230600482015290517341671ba1abcba387b9b2b752c205e22e916be6e3935063e6d37b889250600091736def55d2e18486b9ddfaa075bc4e4ee0b28c1545916370a0823191602480820192602092909190829003018186803b1580156122d557600080fd5b505afa1580156122e9573d6000803e3d6000fd5b505050506040513d60208110156122ff57600080fd5b50516040805160008082526020820190925290506040518463ffffffff1660e01b81526004018084815260200183815260200180602001828103825283818151815260200191508051906020019060200280838360005b8381101561236e578181015183820152602001612356565b50505050905001945050505050602060405180830381600087803b15801561239557600080fd5b505af11580156123a9573d6000803e3d6000fd5b505050506040513d60208110156123bf57600080fd5b5051949350505050565b604080516003808252608082019092526000918291906020820160608036833701905050905060008051602061449e8339815191528160008151811061240b57fe5b60200260200101906001600160a01b031690816001600160a01b03168152505073c02aaa39b223fe8d0a0e5c4f27ead9083c756cc28160018151811061244d57fe5b60200260200101906001600160a01b031690816001600160a01b0316815250506000805160206145578339815191528160028151811061248957fe5b60200260200101906001600160a01b031690816001600160a01b0316815250506000737a250d5630b4cf539739df2c5dacb4c659f2488d6001600160a01b03166338ed17398660018588426001016040518663ffffffff1660e01b81526004018086815260200185815260200180602001846001600160a01b03168152602001838152602001828103825285818151815260200191508051906020019060200280838360005b8381101561254757818101518382015260200161252f565b505050509050019650505050505050600060405180830381600087803b15801561257057600080fd5b505af1158015612584573d6000803e3d6000fd5b505050506040513d6000823e601f3d908101601f1916820160405260208110156125ad57600080fd5b8101908080516040519392919084600160201b8211156125cc57600080fd5b9083019060208201858111156125e157600080fd5b82518660208202830111600160201b821117156125fd57600080fd5b82525081516020918201928201910280838360005b8381101561262a578181015183820152602001612612565b5050505090500160405250505090508060028151811061264657fe5b60200260200101519250505092915050565b6040805160028082526060820183526000928392919060208301908036833701905050905060008051602061449e8339815191528160008151811061269957fe5b60200260200101906001600160a01b031690816001600160a01b03168152505073c02aaa39b223fe8d0a0e5c4f27ead9083c756cc2816001815181106126db57fe5b60200260200101906001600160a01b031690816001600160a01b0316815250506000737a250d5630b4cf539739df2c5dacb4c659f2488d6001600160a01b03166318cbafe58660018588426001016040518663ffffffff1660e01b81526004018086815260200185815260200180602001846001600160a01b03168152602001838152602001828103825285818151815260200191508051906020019060200280838360005b83811015612799578181015183820152602001612781565b505050509050019650505050505050600060405180830381600087803b1580156127c257600080fd5b505af11580156127d6573d6000803e3d6000fd5b505050506040513d6000823e601f3d908101601f1916820160405260208110156127ff57600080fd5b8101908080516040519392919084600160201b82111561281e57600080fd5b90830190602082018581111561283357600080fd5b82518660208202830111600160201b8211171561284f57600080fd5b82525081516020918201928201910280838360005b8381101561287c578181015183820152602001612864565b5050505090500160405250505090508060018151811061264657fe5b604080516370a0823160e01b815230600482015290516000918291600080516020614577833981519152916370a08231916024808301926020929190829003018186803b1580156128e857600080fd5b505afa1580156128fc573d6000803e3d6000fd5b505050506040513d602081101561291257600080fd5b50516040805160006024820181905260016044830152606480830188905283518084039091018152608490920183526020820180516001600160e01b0316630f7c084960e21b1781529251825194955090937393054188d876f558f4a66b2ef1d97d16edf0895b9382918083835b6020831061299f5780518252601f199092019160209182019101612980565b6001836020036101000a0380198251168184511680821785525050505050509050019150506000604051808303816000865af19150503d8060008114612a01576040519150601f19603f3d011682016040523d82523d6000602084013e612a06565b606091505b50509050612a9b826000805160206145778339815191526001600160a01b03166370a08231306040518263ffffffff1660e01b815260040180826001600160a01b0316815260200191505060206040518083038186803b158015612a6957600080fd5b505afa158015612a7d573d6000803e3d6000fd5b505050506040513d6020811015612a9357600080fd5b505190612af5565b949350505050565b604080516001600160a01b038416602482015260448082018490528251808303909101815260649091019091526020810180516001600160e01b031663a9059cbb60e01b179052610fef908490613b85565b600082821115612b4c576040805162461bcd60e51b815260206004820152601e60248201527f536166654d6174683a207375627472616374696f6e206f766572666c6f770000604482015290519081900360640190fd5b508082035b92915050565b600082820183811015611fee576040805162461bcd60e51b815260206004820152601b60248201527a536166654d6174683a206164646974696f6e206f766572666c6f7760281b604482015290519081900360640190fd5b600082612bbe57506000612b51565b82820282848281612bcb57fe5b0414611fee5760405162461bcd60e51b81526004018080602001828103825260218152602001806145366021913960400191505060405180910390fd5b6000818310612c175781611fee565b5090919050565b6000612c2930613c36565b15905090565b6000808211612c82576040805162461bcd60e51b815260206004820152601a602482015279536166654d6174683a206469766973696f6e206279207a65726f60301b604482015290519081900360640190fd5b818381612c8b57fe5b049392505050565b801580612d19575060408051636eb1769f60e11b81523060048201526001600160a01b03848116602483015291519185169163dd62ed3e91604480820192602092909190829003018186803b158015612ceb57600080fd5b505afa158015612cff573d6000803e3d6000fd5b505050506040513d6020811015612d1557600080fd5b5051155b612d545760405162461bcd60e51b81526004018080602001828103825260368152602001806146066036913960400191505060405180910390fd5b604080516001600160a01b038416602482015260448082018490528251808303909101815260649091019091526020810180516001600160e01b031663095ea7b360e01b179052610fef908490613b85565b4690565b600080612dee735c69bee701ef814a2b6a3edd4b1652cb9cc5aa6f73c02aaa39b223fe8d0a0e5c4f27ead9083c756cc260008051602061449e833981519152613c3c565b91509150612e05670de0b6b3a76400008383613d03565b6039555050565b604080516370a0823160e01b815230600482015290516000918291600080516020614577833981519152916370a08231916024808301926020929190829003018186803b158015612e5c57600080fd5b505afa158015612e70573d6000803e3d6000fd5b505050506040513d6020811015612e8657600080fd5b505160408051600160248201819052600260448301526064820184905260006084830181905260a4808401929092528351808403909201825260c490920183526020810180516001600160e01b031663394747c560e01b17815292518151949550479492937380466c64868e1ab14a1ddf27a676c3fcbe638fe5938291908083835b60208310612f275780518252601f199092019160209182019101612f08565b6001836020036101000a0380198251168184511680821785525050505050509050019150506000604051808303816000865af19150503d8060008114612f89576040519150601f19603f3d011682016040523d82523d6000602084013e612f8e565b606091505b50909150612f9e90504783612af5565b935050505090565b6000611fee670de0b6b3a7640000612fbe8585612baf565b90612c2f565b6000827fea2aa0a1be11a07ed86d755c93467f4f82362b452371d1ba94d1715123511acb60001b8360000151308560800151612fff876136fb565b604080516020808201979097526001600160a01b0395861681830152939094166060840152608083019190915260a0820152600160c0808301919091528251808303909101815260e08201835280519084012061190160f01b610100830152610102820194909452610122808201949094528151808203909401845261014201905281519101209392505050565b600081516041146130e5576040805162461bcd60e51b815260206004820152601f60248201527f45434453413a20696e76616c6964207369676e6174757265206c656e67746800604482015290519081900360640190fd5b60208201516040830151606084015160001a61310386828585613da9565b9695505050505050565b6000611fee611fe784603a5485613b17565b604080516370a0823160e01b81523060048201529051600091829160008051602061449e833981519152916370a08231916024808301926020929190829003018186803b15801561316f57600080fd5b505afa158015613183573d6000803e3d6000fd5b505050506040513d602081101561319957600080fd5b50516040805160016024820152600060448201819052606480830188905283518084039091018152608490920183526020820180516001600160e01b0316630f7c084960e21b1781529251825194955090937393054188d876f558f4a66b2ef1d97d16edf0895b9382918083835b602083106132265780518252601f199092019160209182019101613207565b6001836020036101000a0380198251168184511680821785525050505050509050019150506000604051808303816000865af19150503d8060008114613288576040519150601f19603f3d011682016040523d82523d6000602084013e61328d565b606091505b50509050612a9b8260008051602061449e8339815191526001600160a01b03166370a08231306040518263ffffffff1660e01b815260040180826001600160a01b0316815260200191505060206040518083038186803b158015612a6957600080fd5b604080516370a0823160e01b81523060048201529051600091829160008051602061449e833981519152916370a08231916024808301926020929190829003018186803b15801561334057600080fd5b505afa158015613354573d6000803e3d6000fd5b505050506040513d602081101561336a57600080fd5b505160408051637cbc237360e01b81526000600482018190526024820187905291519293507341671ba1abcba387b9b2b752c205e22e916be6e392637cbc237392604480840193602093929083900390910190829087803b1580156133ce57600080fd5b505af11580156133e2573d6000803e3d6000fd5b505050506040513d60208110156133f857600080fd5b5050604080516370a0823160e01b81523060048201529051736def55d2e18486b9ddfaa075bc4e4ee0b28c154591632e1a7d4d9183916370a08231916024808301926020929190829003018186803b15801561345357600080fd5b505afa158015613467573d6000803e3d6000fd5b505050506040513d602081101561347d57600080fd5b5051604080516001600160e01b031960e085901b168152600481019290925251602480830192600092919082900301818387803b1580156134bd57600080fd5b505af11580156134d1573d6000803e3d6000fd5b5050604080516370a0823160e01b81523060048201529051600093507393054188d876f558f4a66b2ef1d97d16edf0895b9250630d2680e960e11b917349849c98ae39fff122806c06791fa73784fb3675916370a0823191602480820192602092909190829003018186803b15801561354957600080fd5b505afa15801561355d573d6000803e3d6000fd5b505050506040513d602081101561357357600080fd5b505160408051602481019290925260006044830181905260648084019190915281518084039091018152608490920181526020820180516001600160e01b03166001600160e01b0319909416939093178352518151919290918291908083835b602083106135f25780518252601f1990920191602091820191016135d3565b6001836020036101000a0380198251168184511680821785525050505050509050019150506000604051808303816000865af19150503d8060008114613654576040519150601f19603f3d011682016040523d82523d6000602084013e613659565b606091505b5050905080613698576040805162461bcd60e51b815260206004820152600660248201526521637572766560d01b604482015290519081900360640190fd5b604080516370a0823160e01b81523060048201529051612a9b91849160008051602061449e833981519152916370a08231916024808301926020929190829003018186803b158015612a6957600080fd5b6000611fee611fe784603a5485613b51565b6000816020015182604001518360600151846080015185610160015160405160200180866001600160a01b031660601b815260140185815260200184815260200183815260200182805190602001908083835b6020831061376d5780518252601f19909201916020918201910161374e565b6001836020036101000a038019825116818451168082178552505050505050905001955050505050506040516020818303038152906040528051906020012060001c90505b42811015611fd0576040805160208082019390935281518082038401815290820190915280519101206137b2565b600080600083516041141561380b5750505060208101516040820151606083015160001a9190613836565b835160401415613836575050506020810151604082015160ff81901c601b0191906001600160ff1b03165b9193909250565b60408051600380825260808201909252600091829190602082016060803683370190505090506000805160206145578339815191528160008151811061387f57fe5b60200260200101906001600160a01b031690816001600160a01b03168152505073c02aaa39b223fe8d0a0e5c4f27ead9083c756cc2816001815181106138c157fe5b60200260200101906001600160a01b031690816001600160a01b03168152505060008051602061449e833981519152816002815181106138fd57fe5b60200260200101906001600160a01b031690816001600160a01b0316815250506000737a250d5630b4cf539739df2c5dacb4c659f2488d6001600160a01b03166338ed17398560018530426001016040518663ffffffff1660e01b81526004018086815260200185815260200180602001846001600160a01b03168152602001838152602001828103825285818151815260200191508051906020019060200280838360005b838110156139bb5781810151838201526020016139a3565b505050509050019650505050505050600060405180830381600087803b1580156139e457600080fd5b505af11580156139f8573d6000803e3d6000fd5b505050506040513d6000823e601f3d908101601f191682016040526020811015613a2157600080fd5b8101908080516040519392919084600160201b821115613a4057600080fd5b908301906020820185811115613a5557600080fd5b82518660208202830111600160201b82111715613a7157600080fd5b82525081516020918201928201910280838360005b83811015613a9e578181015183820152602001613a86565b50505050905001604052505050905080600281518110613aba57fe5b602002602001015192505050919050565b6000613ad5613f18565b82604051602001808061190160f01b81525060020183815260200182815260200192505050604051602081830303815290604052805190602001209050919050565b6000612a9b613b268585612fa6565b610bb7613b4b613b413a603b54612c2f90919063ffffffff16565b6205a55090612b57565b3a613f46565b6000612a9b613b608585612fa6565b610bb7613b4b613b7b3a603b54612c2f90919063ffffffff16565b620aae6090612b57565b6000613bda826040518060400160405280602081526020017f5361666545524332303a206c6f772d6c6576656c2063616c6c206661696c6564815250856001600160a01b0316613f6d9092919063ffffffff16565b805190915015610fef57808060200190516020811015613bf957600080fd5b5051610fef5760405162461bcd60e51b815260040180806020018281038252602a8152602001806145bc602a913960400191505060405180910390fd5b3b151590565b6000806000613c4b8585613f7c565b509050600080613c5c88888861405a565b6001600160a01b0316630902f1ac6040518163ffffffff1660e01b815260040160606040518083038186803b158015613c9457600080fd5b505afa158015613ca8573d6000803e3d6000fd5b505050506040513d6060811015613cbe57600080fd5b5080516020909101516001600160701b0391821693501690506001600160a01b0387811690841614613cf1578082613cf4565b81815b90999098509650505050505050565b6000808411613d435760405162461bcd60e51b81526004018080602001828103825260258152602001806145976025913960400191505060405180910390fd5b600083118015613d535750600082115b613d8e5760405162461bcd60e51b81526004018080602001828103825260288152602001806144ec6028913960400191505060405180910390fd5b82613d998584612baf565b81613da057fe5b04949350505050565b60006fa2a8918ca85bafe22016d0b997e4df60600160ff1b03821115613e005760405162461bcd60e51b81526004018080602001828103825260228152602001806144566022913960400191505060405180910390fd5b8360ff16601b1480613e1557508360ff16601c145b613e505760405162461bcd60e51b81526004018080602001828103825260228152602001806145146022913960400191505060405180910390fd5b600060018686868660405160008152602001604052604051808581526020018460ff1681526020018381526020018281526020019450505050506020604051602081039080840390855afa158015613eac573d6000803e3d6000fd5b5050604051601f1901519150506001600160a01b038116613f0f576040805162461bcd60e51b815260206004820152601860248201527745434453413a20696e76616c6964207369676e617475726560401b604482015290519081900360640190fd5b95945050505050565b6000613f416000805160206145e6833981519152613f34614115565b613f3c61411b565b614121565b905090565b6000611fee670de0b6b3a7640000612fbe603954610bbd3a88612baf90919063ffffffff16565b6060612a9b8484600085614183565b600080826001600160a01b0316846001600160a01b03161415613fd05760405162461bcd60e51b81526004018080602001828103825260258152602001806144316025913960400191505060405180910390fd5b826001600160a01b0316846001600160a01b031610613ff0578284613ff3565b83835b90925090506001600160a01b038216614053576040805162461bcd60e51b815260206004820152601e60248201527f556e697377617056324c6962726172793a205a45524f5f414444524553530000604482015290519081900360640190fd5b9250929050565b60008060006140698585613f7c565b604080516001600160601b0319606094851b811660208084019190915293851b81166034830152825160288184030181526048830184528051908501206001600160f81b031960688401529a90941b9093166069840152607d8301989098527f96e8ac4277198ff8b6f785478aa9a39f403cb768dd02cbee326c3e7da348845f609d808401919091528851808403909101815260bd909201909752805196019590952095945050505050565b60015490565b60025490565b600083838361412e612da6565b3060405160200180868152602001858152602001848152602001838152602001826001600160a01b03168152602001955050505050506040516020818303038152906040528051906020012090509392505050565b6060824710156141c45760405162461bcd60e51b81526004018080602001828103825260268152602001806144786026913960400191505060405180910390fd5b6141cd85613c36565b61421e576040805162461bcd60e51b815260206004820152601d60248201527f416464726573733a2063616c6c20746f206e6f6e2d636f6e7472616374000000604482015290519081900360640190fd5b600080866001600160a01b031685876040518082805190602001908083835b6020831061425c5780518252601f19909201916020918201910161423d565b6001836020036101000a03801982511681845116808217855250505050505090500191505060006040518083038185875af1925050503d80600081146142be576040519150601f19603f3d011682016040523d82523d6000602084013e6142c3565b606091505b50915091506142d38282866142de565b979650505050505050565b606083156142ed575081611fee565b8251156142fd5782518084602001fd5b8160405162461bcd60e51b81526004018080602001828103825283818151815260200191508051906020019080838360005b8381101561434757818101518382015260200161432f565b50505050905090810190601f1680156143745780820380516001836020036101000a031916815260200191505b509250505060405180910390fd5b60405180610120016040528060006001600160a01b0316815260200160006001600160a01b03168152602001600081526020016000815260200160006001600160a01b0316815260200160006001600160a01b031681526020016060815260200160008152602001600081525090565b6040518060400160405280600290602082028036833750919291505056fec89efdaa54c0f20c7adf612882df0950f5a951637e0307cdcb4c672f298b8bc6556e697377617056324c6962726172793a204944454e544943414c5f41444452455353455345434453413a20696e76616c6964207369676e6174757265202773272076616c7565416464726573733a20696e73756666696369656e742062616c616e636520666f722063616c6c000000000000000000000000eb4c2781e4eba804ce9a9803c67d0893436bb27d496e697469616c697a61626c653a20636f6e747261637420697320616c726561647920696e697469616c697a6564556e697377617056324c6962726172793a20494e53554646494349454e545f4c495155494449545945434453413a20696e76616c6964207369676e6174757265202776272076616c7565536166654d6174683a206d756c7469706c69636174696f6e206f766572666c6f77000000000000000000000000a0b86991c6218b36c1d19d4a2e9eb0ce3606eb480000000000000000000000002260fac5e5542a773aa44fbcfedf7c193bc2c599556e697377617056324c6962726172793a20494e53554646494349454e545f414d4f554e545361666545524332303a204552433230206f7065726174696f6e20646964206e6f7420737563636565648b73c3c69bb8fe3d512ecc4cf759cc79239f7b179b0ffacaa9a75d522b39400f5361666545524332303a20617070726f76652066726f6d206e6f6e2d7a65726f20746f206e6f6e2d7a65726f20616c6c6f77616e6365a26469706673582212207a518e10c01dd2133eb4a0f8284d00111f8b8eb6dde7b81d1b739a141de9c67264736f6c63430007060033",
  "libraries": {},
  "devdoc": {
    "kind": "dev",
    "methods": {},
    "version": 1
  },
  "userdoc": {
    "kind": "user",
    "methods": {},
    "version": 1
  },
  "storageLayout": {
    "storage": [
      {
        "astId": 652,
        "contract": "contracts/controllers/BadgerBridgeZeroController.sol:BadgerBridgeZeroController",
        "label": "_initialized",
        "offset": 0,
        "slot": "0",
        "type": "t_bool"
      },
      {
        "astId": 655,
        "contract": "contracts/controllers/BadgerBridgeZeroController.sol:BadgerBridgeZeroController",
        "label": "_initializing",
        "offset": 1,
        "slot": "0",
        "type": "t_bool"
      },
      {
        "astId": 138,
        "contract": "contracts/controllers/BadgerBridgeZeroController.sol:BadgerBridgeZeroController",
        "label": "_HASHED_NAME",
        "offset": 0,
        "slot": "1",
        "type": "t_bytes32"
      },
      {
        "astId": 140,
        "contract": "contracts/controllers/BadgerBridgeZeroController.sol:BadgerBridgeZeroController",
        "label": "_HASHED_VERSION",
        "offset": 0,
        "slot": "2",
        "type": "t_bytes32"
      },
      {
        "astId": 289,
        "contract": "contracts/controllers/BadgerBridgeZeroController.sol:BadgerBridgeZeroController",
        "label": "__gap",
        "offset": 0,
        "slot": "3",
        "type": "t_array(t_uint256)50_storage"
      },
      {
        "astId": 5138,
        "contract": "contracts/controllers/BadgerBridgeZeroController.sol:BadgerBridgeZeroController",
        "label": "fee",
        "offset": 0,
        "slot": "53",
        "type": "t_uint256"
      },
      {
        "astId": 5140,
        "contract": "contracts/controllers/BadgerBridgeZeroController.sol:BadgerBridgeZeroController",
        "label": "governance",
        "offset": 0,
        "slot": "54",
        "type": "t_address"
      },
      {
        "astId": 5142,
        "contract": "contracts/controllers/BadgerBridgeZeroController.sol:BadgerBridgeZeroController",
        "label": "strategist",
        "offset": 0,
        "slot": "55",
        "type": "t_address"
      },
      {
        "astId": 5183,
        "contract": "contracts/controllers/BadgerBridgeZeroController.sol:BadgerBridgeZeroController",
        "label": "governanceFee",
        "offset": 0,
        "slot": "56",
        "type": "t_uint256"
      },
      {
        "astId": 5206,
        "contract": "contracts/controllers/BadgerBridgeZeroController.sol:BadgerBridgeZeroController",
        "label": "renbtcForOneETHPrice",
        "offset": 0,
        "slot": "57",
        "type": "t_uint256"
      },
      {
        "astId": 5208,
        "contract": "contracts/controllers/BadgerBridgeZeroController.sol:BadgerBridgeZeroController",
        "label": "burnFee",
        "offset": 0,
        "slot": "58",
        "type": "t_uint256"
      },
      {
        "astId": 5210,
        "contract": "contracts/controllers/BadgerBridgeZeroController.sol:BadgerBridgeZeroController",
        "label": "keeperReward",
        "offset": 0,
        "slot": "59",
        "type": "t_uint256"
      },
      {
        "astId": 5220,
        "contract": "contracts/controllers/BadgerBridgeZeroController.sol:BadgerBridgeZeroController",
        "label": "nonces",
        "offset": 0,
        "slot": "60",
        "type": "t_mapping(t_address,t_uint256)"
      },
      {
        "astId": 5222,
        "contract": "contracts/controllers/BadgerBridgeZeroController.sol:BadgerBridgeZeroController",
        "label": "PERMIT_DOMAIN_SEPARATOR_WBTC",
        "offset": 0,
        "slot": "61",
        "type": "t_bytes32"
      },
      {
        "astId": 5224,
        "contract": "contracts/controllers/BadgerBridgeZeroController.sol:BadgerBridgeZeroController",
        "label": "PERMIT_DOMAIN_SEPARATOR_IBBTC",
        "offset": 0,
        "slot": "62",
        "type": "t_bytes32"
      }
    ],
    "types": {
      "t_address": {
        "encoding": "inplace",
        "label": "address",
        "numberOfBytes": "20"
      },
      "t_array(t_uint256)50_storage": {
        "base": "t_uint256",
        "encoding": "inplace",
        "label": "uint256[50]",
        "numberOfBytes": "1600"
      },
      "t_bool": {
        "encoding": "inplace",
        "label": "bool",
        "numberOfBytes": "1"
      },
      "t_bytes32": {
        "encoding": "inplace",
        "label": "bytes32",
        "numberOfBytes": "32"
      },
      "t_mapping(t_address,t_uint256)": {
        "encoding": "mapping",
        "key": "t_address",
        "label": "mapping(address => uint256)",
        "numberOfBytes": "32",
        "value": "t_uint256"
      },
      "t_uint256": {
        "encoding": "inplace",
        "label": "uint256",
        "numberOfBytes": "32"
      }
    }
  }
}