{
  "address": "0x8D0eF1d5356C30A3aaf613596B2fc433b890c6Fe",
  "abi": [
    {
      "inputs": [],
      "name": "BURN_GAS_DIFF",
      "outputs": [
        {
          "internalType": "uint256",
          "name": "",
          "type": "uint256"
        }
      ],
      "stateMutability": "view",
      "type": "function"
    },
    {
      "inputs": [],
      "name": "REPAY_GAS_DIFF",
      "outputs": [
        {
          "internalType": "uint256",
          "name": "",
          "type": "uint256"
        }
      ],
      "stateMutability": "view",
      "type": "function"
    },
    {
      "inputs": [
        {
          "internalType": "bool",
          "name": "lock",
          "type": "bool"
        }
      ],
      "name": "approveUpgrade",
      "outputs": [],
      "stateMutability": "nonpayable",
      "type": "function"
    },
    {
      "inputs": [
        {
          "internalType": "address",
          "name": "to",
          "type": "address"
        },
        {
          "internalType": "address",
          "name": "asset",
          "type": "address"
        },
        {
          "internalType": "uint256",
          "name": "amount",
          "type": "uint256"
        },
        {
          "internalType": "uint256",
          "name": "deadline",
          "type": "uint256"
        },
        {
          "internalType": "bytes",
          "name": "data",
          "type": "bytes"
        },
        {
          "internalType": "bytes",
          "name": "destination",
          "type": "bytes"
        },
        {
          "internalType": "bytes",
          "name": "signature",
          "type": "bytes"
        }
      ],
      "name": "burn",
      "outputs": [
        {
          "internalType": "uint256",
          "name": "amountToBurn",
          "type": "uint256"
        }
      ],
      "stateMutability": "nonpayable",
      "type": "function"
    },
    {
      "inputs": [
        {
          "internalType": "address",
          "name": "from",
          "type": "address"
        },
        {
          "internalType": "address",
          "name": "asset",
          "type": "address"
        },
        {
          "internalType": "uint256",
          "name": "amount",
          "type": "uint256"
        },
        {
          "internalType": "uint256",
          "name": "minOut",
          "type": "uint256"
        },
        {
          "internalType": "bytes",
          "name": "destination",
          "type": "bytes"
        }
      ],
      "name": "burnApproved",
      "outputs": [
        {
          "internalType": "uint256",
          "name": "amountToBurn",
          "type": "uint256"
        }
      ],
      "stateMutability": "payable",
      "type": "function"
    },
    {
      "inputs": [
        {
          "internalType": "uint256",
          "name": "minOut",
          "type": "uint256"
        },
        {
          "internalType": "bytes",
          "name": "destination",
          "type": "bytes"
        }
      ],
      "name": "burnETH",
      "outputs": [
        {
          "internalType": "uint256",
          "name": "amountToBurn",
          "type": "uint256"
        }
      ],
      "stateMutability": "payable",
      "type": "function"
    },
    {
      "inputs": [],
      "name": "earn",
      "outputs": [],
      "stateMutability": "nonpayable",
      "type": "function"
    },
    {
      "inputs": [
        {
          "internalType": "address",
          "name": "underwriter",
          "type": "address"
        },
        {
          "internalType": "address",
          "name": "to",
          "type": "address"
        },
        {
          "internalType": "address",
          "name": "asset",
          "type": "address"
        },
        {
          "internalType": "uint256",
          "name": "amount",
          "type": "uint256"
        },
        {
          "internalType": "uint256",
          "name": "actualAmount",
          "type": "uint256"
        },
        {
          "internalType": "uint256",
          "name": "nonce",
          "type": "uint256"
        },
        {
          "internalType": "address",
          "name": "module",
          "type": "address"
        },
        {
          "internalType": "bytes32",
          "name": "nHash",
          "type": "bytes32"
        },
        {
          "internalType": "bytes",
          "name": "data",
          "type": "bytes"
        },
        {
          "internalType": "bytes",
          "name": "signature",
          "type": "bytes"
        }
      ],
      "name": "fallbackMint",
      "outputs": [],
      "stateMutability": "nonpayable",
      "type": "function"
    },
    {
      "inputs": [],
      "name": "fee",
      "outputs": [
        {
          "internalType": "uint256",
          "name": "",
          "type": "uint256"
        }
      ],
      "stateMutability": "view",
      "type": "function"
    },
    {
      "inputs": [],
      "name": "getUsdtDomainSeparator",
      "outputs": [
        {
          "internalType": "bytes32",
          "name": "",
          "type": "bytes32"
        }
      ],
      "stateMutability": "view",
      "type": "function"
    },
    {
      "inputs": [],
      "name": "governance",
      "outputs": [
        {
          "internalType": "address",
          "name": "",
          "type": "address"
        }
      ],
      "stateMutability": "view",
      "type": "function"
    },
    {
      "inputs": [],
      "name": "governanceFee",
      "outputs": [
        {
          "internalType": "uint256",
          "name": "",
          "type": "uint256"
        }
      ],
      "stateMutability": "view",
      "type": "function"
    },
    {
      "inputs": [
        {
          "internalType": "address",
          "name": "_governance",
          "type": "address"
        },
        {
          "internalType": "address",
          "name": "_strategist",
          "type": "address"
        }
      ],
      "name": "initialize",
      "outputs": [],
      "stateMutability": "nonpayable",
      "type": "function"
    },
    {
      "inputs": [],
      "name": "keeperReward",
      "outputs": [
        {
          "internalType": "uint256",
          "name": "",
          "type": "uint256"
        }
      ],
      "stateMutability": "view",
      "type": "function"
    },
    {
      "inputs": [
        {
          "internalType": "address",
          "name": "",
          "type": "address"
        }
      ],
      "name": "nonces",
      "outputs": [
        {
          "internalType": "uint256",
          "name": "",
          "type": "uint256"
        }
      ],
      "stateMutability": "view",
      "type": "function"
    },
    {
      "inputs": [
        {
          "internalType": "address",
          "name": "",
          "type": "address"
        }
      ],
      "name": "noncesUsdt",
      "outputs": [
        {
          "internalType": "uint256",
          "name": "",
          "type": "uint256"
        }
      ],
      "stateMutability": "view",
      "type": "function"
    },
    {
      "inputs": [
        {
          "internalType": "address",
          "name": "underwriter",
          "type": "address"
        },
        {
          "internalType": "address",
          "name": "to",
          "type": "address"
        },
        {
          "internalType": "address",
          "name": "asset",
          "type": "address"
        },
        {
          "internalType": "uint256",
          "name": "amount",
          "type": "uint256"
        },
        {
          "internalType": "uint256",
          "name": "actualAmount",
          "type": "uint256"
        },
        {
          "internalType": "uint256",
          "name": "nonce",
          "type": "uint256"
        },
        {
          "internalType": "address",
          "name": "module",
          "type": "address"
        },
        {
          "internalType": "bytes32",
          "name": "nHash",
          "type": "bytes32"
        },
        {
          "internalType": "bytes",
          "name": "data",
          "type": "bytes"
        },
        {
          "internalType": "bytes",
          "name": "signature",
          "type": "bytes"
        }
      ],
      "name": "repay",
      "outputs": [
        {
          "internalType": "uint256",
          "name": "amountOut",
          "type": "uint256"
        }
      ],
      "stateMutability": "nonpayable",
      "type": "function"
    },
    {
      "inputs": [
        {
          "internalType": "address",
          "name": "_governance",
          "type": "address"
        }
      ],
      "name": "setGovernance",
      "outputs": [],
      "stateMutability": "nonpayable",
      "type": "function"
    },
    {
      "inputs": [
        {
          "internalType": "address",
          "name": "harvester",
          "type": "address"
        }
      ],
      "name": "setHarvester",
      "outputs": [],
      "stateMutability": "nonpayable",
      "type": "function"
    },
    {
      "inputs": [
        {
          "internalType": "uint256",
          "name": "_governanceFee",
          "type": "uint256"
        },
        {
          "internalType": "uint256",
          "name": "_fee",
          "type": "uint256"
        },
        {
          "internalType": "uint256",
          "name": "_burnFee",
          "type": "uint256"
        },
        {
          "internalType": "uint256",
          "name": "_keeperReward",
          "type": "uint256"
        }
      ],
      "name": "setParameters",
      "outputs": [],
      "stateMutability": "nonpayable",
      "type": "function"
    },
    {
      "inputs": [
        {
          "internalType": "address",
          "name": "_strategist",
          "type": "address"
        }
      ],
      "name": "setStrategist",
      "outputs": [],
      "stateMutability": "nonpayable",
      "type": "function"
    },
    {
      "inputs": [],
      "name": "strategist",
      "outputs": [
        {
          "internalType": "address",
          "name": "",
          "type": "address"
        }
      ],
      "stateMutability": "view",
      "type": "function"
    },
    {
      "stateMutability": "payable",
      "type": "receive"
    }
  ],
  "transactionHash": "0xf771308ab5ef5963967bf7a26c864546a185f52e9705d5228a991383568da86a",
  "args": [],
  "numDeployments": 6,
  "solcInputHash": "20e21353ba70d5c7c12346d7a5df09b9",
  "bytecode": "0x608060405234801561001057600080fd5b506146d0806100206000396000f3fe6080604052600436106101095760003560e01c8063056f4e18146101155780630ea90a1214610140578063106c0cd61461015557806315de1daa1461016a5780631fe4a6861461018c578063315065c7146101ae5780633816cbf3146101ce5780633b36c7f8146101e1578063485cc955146102015780635aa6e675146102215780636bc6f683146102365780637ecebe0014610249578063a9ec75f614610269578063ab033ea91461027e578063b0a82ee81461029e578063c7b9d530146102b3578063d389800f146102d3578063ddca3f43146102e8578063e20d3682146102fd578063e3d78f611461031d578063e4759b2f1461033d578063fcd9da441461035d57610110565b3661011057005b600080fd5b34801561012157600080fd5b5061012a61037d565b6040516101379190613ed0565b60405180910390f35b34801561014c57600080fd5b5061012a610383565b34801561016157600080fd5b5061012a610389565b34801561017657600080fd5b5061018a610185366004613ac0565b61039d565b005b34801561019857600080fd5b506101a16103f4565b6040516101379190613ed9565b3480156101ba57600080fd5b5061018a6101c9366004613cfe565b610403565b61012a6101dc366004613d4e565b6104b8565b3480156101ed57600080fd5b5061012a6101fc366004613b0c565b61056e565b34801561020d57600080fd5b5061018a61021c366004613ada565b61098a565b34801561022d57600080fd5b506101a1610d2b565b61012a610244366004613bd7565b610d3a565b34801561025557600080fd5b5061012a610264366004613ac0565b610fad565b34801561027557600080fd5b5061012a610fbf565b34801561028a57600080fd5b5061018a610299366004613ac0565b610fc5565b3480156102aa57600080fd5b5061012a611011565b3480156102bf57600080fd5b5061018a6102ce366004613ac0565b611017565b3480156102df57600080fd5b5061018a611063565b3480156102f457600080fd5b5061012a611273565b34801561030957600080fd5b5061012a610318366004613c46565b611279565b34801561032957600080fd5b5061012a610338366004613ac0565b611b74565b34801561034957600080fd5b5061018a610358366004613b0c565b611b86565b34801561036957600080fd5b5061018a610378366004613d92565b611cff565b61a22681565b60385481565b600080516020614555833981519152545b90565b6036546001600160a01b031633146103d05760405162461bcd60e51b81526004016103c790614147565b60405180910390fd5b6001600160a01b03166000908152603f60205260409020805460ff19166001179055565b6037546001600160a01b031681565b7f28fd09bb1ec7f3e18bf30bcf69689092fe969161a12057e7b02a490374c0160b80549060008051602061455583398151915282156104545760405162461bcd60e51b81526004016103c7906141ea565b6104826000805160206145d68339815191526000805160206144bd8339815191526001600160fe1b03611d3d565b6104b06000805160206145b68339815191526000805160206144bd8339815191526001600160fe1b03611d3d565b509190915550565b60006104d9836104d46104cd34603a54611e50565b3490611e75565b611ed7565b6040516338463cff60e01b815290915073e4b679400f0f267212d5d812b95f58c83243ee71906338463cff906105159085908590600401614093565b602060405180830381600087803b15801561052f57600080fd5b505af1158015610543573d6000803e3d6000fd5b505050506040513d601f19601f820116820180604052508101906105679190613d36565b5092915050565b60006102043611156105925760405162461bcd60e51b81526004016103c7906142e5565b60005a905061059f6139be565b6001600160a01b0387166000805160206145d683398151915214806105da57506001600160a01b038716600080516020614596833981519152145b806105fb57506001600160a01b03871660008051602061449d833981519152145b8061061c57506001600160a01b0387166000805160206145b6833981519152145b8061062e57506001600160a01b038716155b61064a5760405162461bcd60e51b81526004016103c79061423f565b6040518061014001604052808d6001600160a01b031681526020018c6001600160a01b031681526020018981526020018b8152602001886001600160a01b031681526020018e6001600160a01b0316815260200186815260200160018152602001600081526020016106ba612061565b90528551909150156106e057848060200190518101906106da9190613d36565b60e08201525b60006106eb826120ba565b905073e4b679400f0f267212d5d812b95f58c83243ee716001600160a01b031663159ab14d8360000151846040015185608001518660c001516040516020016107379493929190613f9b565b604051602081830303815290604052805190602001208c8a896040518563ffffffff1660e01b815260040161076f949392919061406e565b602060405180830381600087803b15801561078957600080fd5b505af115801561079d573d6000803e3d6000fd5b505050506040513d601f19601f820116820180604052508101906107c19190613d36565b6101008301526001600160a01b0388166000805160206145d6833981519152146108a8576001600160a01b03881615610885576001600160a01b0388166000805160206145b683398151915214610868576001600160a01b03881660008051602061459683398151915214610845576108408261010001516001612140565b610863565b6108638260e0015161085d8461010001516001612140565b8f612159565b610880565b61088061087b8361010001516001612140565b612287565b6108a3565b6108a38260e0015161089d8461010001516001612140565b8f61248d565b6108c0565b6108c06108bb8361010001516001612140565b612635565b93506001600160a01b038816600080516020614596833981519152148015906108f157506001600160a01b03881615155b1561090a5761090a6001600160a01b0389168e866127b8565b326001600160a01b03166108fc61095061094a603b5461093e3a61094489610120015161093e61a22661093e5a8f90611e75565b9061280a565b90612862565b476128bb565b6040518115909202916000818181858888f19350505050158015610978573d6000803e3d6000fd5b505050509a9950505050505050505050565b600054610100900460ff16806109a357506109a36128d1565b806109b1575060005460ff16155b6109ec5760405162461bcd60e51b815260040180806020018281038252602e8152602001806144dd602e913960400191505060405180910390fd5b600054610100900460ff16158015610a17576000805460ff1961ff0019909116610100171660011790555b6608e1bc9bf04000603555660e35fa931a0000603a556706f05b59d3b20000603855603680546001600160a01b038086166001600160a01b0319928316179092556037805492851692909116919091179055336000908152603f60205260409020805460ff19166001179055610a97670de0b6b3a76400006103e86128e2565b603b55610ace60008051602061449d83398151915273e4b679400f0f267212d5d812b95f58c83243ee716001600160fe1b03611d3d565b610b0260008051602061449d8339815191527393054188d876f558f4a66b2ef1d97d16edf0895b6001600160fe1b03611d3d565b610b366000805160206145d68339815191527393054188d876f558f4a66b2ef1d97d16edf0895b6001600160fe1b03611d3d565b610b646000805160206145d68339815191526000805160206144bd8339815191526001600160fe1b03611d3d565b610b926000805160206145b68339815191526000805160206144bd8339815191526001600160fe1b03611d3d565b610bc66000805160206145d683398151915273e592427a0aece92de3edee1f18e0157c058615646001600160fe1b03611d3d565b610bfa60008051602061459683398151915273e592427a0aece92de3edee1f18e0157c058615646001600160fe1b03611d3d565b6000805160206146458339815191527f98da2c5e4c6b1db946694570273b859a6e4083ccc8faa155edfc4c54eb3cfd73600080516020614410833981519152610c41612946565b6000805160206145d6833981519152604051602001610c64959493929190614042565b60408051601f198184030181529190528051602090910120603d5560006000805160206146458339815191527f8b1a1d9c2b109e527c9134b25b1a1833b16b6594f92daa9f6d9b7a6024bce9d0600080516020614410833981519152610cc8612946565b6000805160206145b6833981519152604051602001610ceb959493929190614042565b60408051601f19818403018152919052805160209091012060008051602061455583398151915255508015610d26576000805461ff00191690555b505050565b6036546001600160a01b031681565b60006001600160a01b0385166000805160206145d68339815191521480610d7757506001600160a01b038516600080516020614596833981519152145b80610d9857506001600160a01b03851660008051602061449d833981519152145b80610daa57506001600160a01b038516155b610dc65760405162461bcd60e51b81526004016103c79061423f565b6001600160a01b03851615610e59576040516323b872dd60e01b81526001600160a01b038616906323b872dd90610e0590339030908990600401613eed565b602060405180830381600087803b158015610e1f57600080fd5b505af1158015610e33573d6000803e3d6000fd5b505050506040513d601f19601f82011682018060405250810190610e579190613d1a565b505b6001600160a01b0385166000805160206145d683398151915214610ef6576001600160a01b03851660008051602061459683398151915214610ed2576001600160a01b03851660008051602061449d83398151915214610ecb57610ec6836104d46104cd34603a54611e50565b610ecd565b835b610ef1565b610ef183610eec610ee587603a54611e50565b8790611e75565b61294a565b610f15565b610f15610f0f610f0886603a54611e50565b8690611e75565b84612a57565b6040516338463cff60e01b815290915073e4b679400f0f267212d5d812b95f58c83243ee71906338463cff90610f519085908590600401614093565b602060405180830381600087803b158015610f6b57600080fd5b505af1158015610f7f573d6000803e3d6000fd5b505050506040513d601f19601f82011682018060405250810190610fa39190613d36565b5095945050505050565b603c6020526000908152604090205481565b603b5481565b6036546001600160a01b03163314610fef5760405162461bcd60e51b81526004016103c790614147565b603680546001600160a01b0319166001600160a01b0392909216919091179055565b61a09e81565b6036546001600160a01b031633146110415760405162461bcd60e51b81526004016103c790614147565b603780546001600160a01b0319166001600160a01b0392909216919091179055565b336000908152603f602052604090205460ff166110925760405162461bcd60e51b81526004016103c790614123565b61109a612bdc565b6040516370a0823160e01b815261111f9060008051602061449d833981519152906370a08231906110cf903090600401613ed9565b60206040518083038186803b1580156110e757600080fd5b505afa1580156110fb573d6000803e3d6000fd5b505050506040513d601f19601f820116820180604052508101906108bb9190613d36565b50611128612c3e565b5047674563918244f40000811115611270576000674563918244f4000082039050600061115782603854611e50565b6036549091506000906001600160a01b031680835a906040516111799061039a565b600060405180830381858888f193505050503d80600081146111b7576040519150601f19603f3d011682016040523d82523d6000602084013e6111bc565b606091505b505080925050816111df5760405162461bcd60e51b81526004016103c7906141b5565b6037546001600160a01b0316806111f68686611e75565b5a906040516112049061039a565b600060405180830381858888f193505050503d8060008114611242576040519150601f19603f3d011682016040523d82523d6000602084013e611247565b606091505b5050809350508261126a5760405162461bcd60e51b81526004016103c79061428d565b50505050505b50565b60355481565b600061024436111561129d5760405162461bcd60e51b81526004016103c7906142e5565b6000604051806101e001604052808a6001600160a01b03168152602001896001600160a01b031681526020018881526020018781526020016000815260200186815260200160018152602001600081526020015a81526000602082018190526040820181905260608201819052608082015260a0810186905260c0018490529050611326612061565b61012082015260a08101515115611359578060a0015180602001905181019061134f9190613d36565b60c0820152611361565b600160c08201525b806060015142106113845760405162461bcd60e51b81526004016103c7906142c2565b60208101516001600160a01b03166000805160206145d683398151915214156114db576001600160a01b03808a166000908152603c6020818152604080842054608087015285519094168352522080546001019055603d546113f5906113ea9083612d98565b826101c00151612e2f565b6001600160a01b031681600001516001600160a01b0316146114295760405162461bcd60e51b81526004016103c790614269565b80602001516001600160a01b03166323b872dd82600001513084604001516040518463ffffffff1660e01b815260040161146593929190613eed565b602060405180830381600087803b15801561147f57600080fd5b505af1158015611493573d6000803e3d6000fd5b505050506040513d601f19601f820116820180604052508101906114b79190613d1a565b506114d46114ca82604001516001612eaf565b8260c00151612a57565b9150611a75565b60208101516001600160a01b03166000805160206145b6833981519152141561166a576001600160a01b03808a166000908152603e60208181526040808420546080870152855190941683525220805460010190556115446113ea61153e610389565b83612d98565b6001600160a01b031681600001516001600160a01b0316146115785760405162461bcd60e51b81526004016103c790614269565b6020810151815160408084015190516000936001600160a01b0316926323b872dd60e01b926115ac92309190602401613eed565b60408051601f198184030181529181526020820180516001600160e01b03166001600160e01b03199094169390931790925290516115ea9190613e99565b6000604051808303816000865af19150503d8060008114611627576040519150601f19603f3d011682016040523d82523d6000602084013e61162c565b606091505b505090508061164d5760405162461bcd60e51b81526004016103c790614196565b506114d461166382604001518360c00151612ec1565b6001612eaf565b60208101516001600160a01b031660008051602061449d83398151915214156118615760208101518151604051623f675f60e91b81526001600160a01b0390921691637ecebe00916116be91600401613ed9565b60206040518083038186803b1580156116d657600080fd5b505afa1580156116ea573d6000803e3d6000fd5b505050506040513d601f19601f8201168201806040525081019061170e9190613d36565b608082015261171c8161306b565b60e08201526101c0810151611730906130f2565b6101808401819052610160840182905260ff909216610140840181905260208401518451608086015160e08701516040516323f2ebc360e21b81526001600160a01b0390941696638fcbaf0c966117939694953095600193909291600401613f11565b600060405180830381600087803b1580156117ad57600080fd5b505af11580156117c1573d6000803e3d6000fd5b5050506020820151825160408085015190516323b872dd60e01b81526001600160a01b0390931693506323b872dd926117ff92913091600401613eed565b602060405180830381600087803b15801561181957600080fd5b505af115801561182d573d6000803e3d6000fd5b505050506040513d601f19601f820116820180604052508101906118519190613d1a565b506114d481604001516001612eaf565b60208101516001600160a01b03166000805160206145968339815191521415611a5d5760208101518151604051623f675f60e91b81526001600160a01b0390921691637ecebe00916118b591600401613ed9565b60206040518083038186803b1580156118cd57600080fd5b505afa1580156118e1573d6000803e3d6000fd5b505050506040513d601f19601f820116820180604052508101906119059190613d36565b60808201526119138161306b565b60e08201526101c0810151611927906130f2565b6101808401819052610160840182905260ff90921661014084018190526020840151845160408087015160e0880151915163d505accf60e01b81526001600160a01b039094169663d505accf9661198996949530959394939290600401613f5a565b600060405180830381600087803b1580156119a357600080fd5b505af11580156119b7573d6000803e3d6000fd5b5050506020820151825160408085015190516323b872dd60e01b81526001600160a01b0390931693506323b872dd926119f592913091600401613eed565b602060405180830381600087803b158015611a0f57600080fd5b505af1158015611a23573d6000803e3d6000fd5b505050506040513d601f19601f82011682018060405250810190611a479190613d1a565b506114d46116638260c00151836040015161294a565b60405162461bcd60e51b81526004016103c79061416c565b6101a08101516040516338463cff60e01b815273e4b679400f0f267212d5d812b95f58c83243ee71916338463cff91611ab391908690600401614093565b602060405180830381600087803b158015611acd57600080fd5b505af1158015611ae1573d6000803e3d6000fd5b505050506040513d601f19601f82011682018060405250810190611b059190613d36565b50326001600160a01b03166108fc611b3f61094a603b5461093e3a61094488610120015161093e61a09e61093e5a6101008e015190611e75565b6040518115909202916000818181858888f19350505050158015611b67573d6000803e3d6000fd5b5050979650505050505050565b603e6020526000908152604090205481565b60006040518061014001604052808b6001600160a01b031681526020018a6001600160a01b03168152602001878152602001898152602001866001600160a01b031681526020018c6001600160a01b031681526020018481526020016001815260200160008152602001600081525090506000611c02826120ba565b9050600073e4b679400f0f267212d5d812b95f58c83243ee716001600160a01b031663159ab14d8460000151856040015186608001518760c00151604051602001611c509493929190613f9b565b604051602081830303815290604052805190602001208b89886040518563ffffffff1660e01b8152600401611c88949392919061406e565b602060405180830381600087803b158015611ca257600080fd5b505af1158015611cb6573d6000803e3d6000fd5b505050506040513d601f19601f82011682018060405250810190611cda9190613d36565b9050611cf06001600160a01b038c168d836127b8565b50505050505050505050505050565b6036546001600160a01b03163314611d295760405162461bcd60e51b81526004016103c790614147565b603893909355603591909155603a55603b55565b801580611dc3575060408051636eb1769f60e11b81523060048201526001600160a01b03848116602483015291519185169163dd62ed3e91604480820192602092909190829003018186803b158015611d9557600080fd5b505afa158015611da9573d6000803e3d6000fd5b505050506040513d6020811015611dbf57600080fd5b5051155b611dfe5760405162461bcd60e51b81526004018080602001828103825260368152602001806146656036913960400191505060405180910390fd5b604080516001600160a01b038416602482015260448082018490528251808303909101815260649091019091526020810180516001600160e01b031663095ea7b360e01b179052610d2690849061314f565b6000611e6e670de0b6b3a7640000611e688585612862565b906128e2565b9392505050565b600082821115611ecc576040805162461bcd60e51b815260206004820152601e60248201527f536166654d6174683a207375627472616374696f6e206f766572666c6f770000604482015290519081900360640190fd5b508082035b92915050565b6040516370a0823160e01b8152600090819060008051602061449d833981519152906370a0823190611f0d903090600401613ed9565b60206040518083038186803b158015611f2557600080fd5b505afa158015611f39573d6000803e3d6000fd5b505050506040513d601f19601f82011682018060405250810190611f5d9190613d36565b604080516101008101825273c02aaa39b223fe8d0a0e5c4f27ead9083c756cc281526000805160206145d683398151915260208201526101f48183015230606082015260014201608082015260a0810186905260c08101879052600060e0820152905163414bf38960e01b81529192509073e592427a0aece92de3edee1f18e0157c058615649063414bf389908690611ffa908590600401614368565b6020604051808303818588803b15801561201357600080fd5b505af1158015612027573d6000803e3d6000fd5b50505050506040513d601f19601f8201168201806040525081019061204c9190613d36565b92506120588386612a57565b95945050505050565b600061039a565b828110156120b457803560005b6101008110801561208b5750600019811b821615155b156120aa5760ff82821c16156120a2576040860395505b600801612075565b5050602001612068565b50505090565b6000806121377fdb76b3b6f252d5a7418b86aea25c87126f450d18491ccb7b8427fe0e9697a31c846020015185606001518660a00151876080015188604001518960c001518051906020012060405160200161211c9796959493929190614004565b60405160208183030381529060405280519060200120613200565b9150505b919050565b6000611e6e612152846035548561324c565b8490611e75565b60008061216584612635565b905060006000805160206145d68339815191526101f473c02aaa39b223fe8d0a0e5c4f27ead9083c756cc26101f46000805160206145968339815191526040516020016121b6959493929190613def565b60408051601f1981840301815260a0830182528083526001600160a01b038716602084015260014201838301526060830185905260808301899052905163c04b8d5960e01b815290925073e592427a0aece92de3edee1f18e0157c058615649063c04b8d599061222a908490600401614310565b602060405180830381600087803b15801561224457600080fd5b505af1158015612258573d6000803e3d6000fd5b505050506040513d601f19601f8201168201806040525081019061227c9190613d36565b979650505050505050565b60008061229383612635565b6040516370a0823160e01b81529091506000805160206145b6833981519152906370a08231906122c7903090600401613ed9565b60206040518083038186803b1580156122df57600080fd5b505afa1580156122f3573d6000803e3d6000fd5b505050506040513d601f19601f820116820180604052508101906123179190613d36565b915060006000805160206144bd8339815191526001600160a01b031663394747c560e01b60016000856000806040516024016123579594939291906140d3565b60408051601f198184030181529181526020820180516001600160e01b03166001600160e01b03199094169390931790925290516123959190613e99565b6000604051808303816000865af19150503d80600081146123d2576040519150601f19603f3d011682016040523d82523d6000602084013e6123d7565b606091505b50509050806123f85760405162461bcd60e51b81526004016103c79061421f565b6040516370a0823160e01b81526124859084906000805160206145b6833981519152906370a082319061242f903090600401613ed9565b60206040518083038186803b15801561244757600080fd5b505afa15801561245b573d6000803e3d6000fd5b505050506040513d601f19601f8201168201806040525081019061247f9190613d36565b90611e75565b949350505050565b60008061249984612635565b60408051610100810182526000805160206145d6833981519152815273c02aaa39b223fe8d0a0e5c4f27ead9083c756cc260208201526101f48183015230606082015260014201608082015260a0810183905260c08101889052600060e0820152905163414bf38960e01b81529192509073e592427a0aece92de3edee1f18e0157c058615649063414bf38990612534908490600401614368565b602060405180830381600087803b15801561254e57600080fd5b505af1158015612562573d6000803e3d6000fd5b505050506040513d601f19601f820116820180604052508101906125869190613d36565b604051632e1a7d4d60e01b815290935073c02aaa39b223fe8d0a0e5c4f27ead9083c756cc290632e1a7d4d906125c0908690600401613ed0565b600060405180830381600087803b1580156125da57600080fd5b505af11580156125ee573d6000803e3d6000fd5b50506040518692506001600160a01b038316915085156108fc029086906000818181858888f1935050505015801561262a573d6000803e3d6000fd5b505050509392505050565b6040516370a0823160e01b815260009081906000805160206145d6833981519152906370a082319061266b903090600401613ed9565b60206040518083038186803b15801561268357600080fd5b505afa158015612697573d6000803e3d6000fd5b505050506040513d601f19601f820116820180604052508101906126bb9190613d36565b905060007393054188d876f558f4a66b2ef1d97d16edf0895b6001600160a01b0316633df0212460e01b60006001876040516024016126fc939291906140b5565b60408051601f198184030181529181526020820180516001600160e01b03166001600160e01b031990941693909317909252905161273a9190613e99565b6000604051808303816000865af19150503d8060008114612777576040519150601f19603f3d011682016040523d82523d6000602084013e61277c565b606091505b50506040516370a0823160e01b81529091506124859083906000805160206145d6833981519152906370a082319061242f903090600401613ed9565b604080516001600160a01b038416602482015260448082018490528251808303909101815260649091019091526020810180516001600160e01b031663a9059cbb60e01b179052610d2690849061314f565b600082820183811015611e6e576040805162461bcd60e51b815260206004820152601b60248201527a536166654d6174683a206164646974696f6e206f766572666c6f7760281b604482015290519081900360640190fd5b60008261287157506000611ed1565b8282028284828161287e57fe5b0414611e6e5760405162461bcd60e51b81526004018080602001828103825260218152602001806145756021913960400191505060405180910390fd5b60008183106128ca5781611e6e565b5090919050565b60006128dc30613286565b15905090565b6000808211612935576040805162461bcd60e51b815260206004820152601a602482015279536166654d6174683a206469766973696f6e206279207a65726f60301b604482015290519081900360640190fd5b81838161293e57fe5b049392505050565b4690565b6000806000805160206145968339815191526101f473c02aaa39b223fe8d0a0e5c4f27ead9083c756cc26101f46000805160206145d683398151915260405160200161299a959493929190613def565b60408051601f1981840301815260a08301825280835230602084015260014201838301526060830186905260808301879052905163c04b8d5960e01b815290925073e592427a0aece92de3edee1f18e0157c058615649063c04b8d5990612a05908490600401614310565b602060405180830381600087803b158015612a1f57600080fd5b505af1158015612a33573d6000803e3d6000fd5b505050506040513d601f19601f8201168201806040525081019061204c9190613d36565b6040516370a0823160e01b8152600090819060008051602061449d833981519152906370a0823190612a8d903090600401613ed9565b60206040518083038186803b158015612aa557600080fd5b505afa158015612ab9573d6000803e3d6000fd5b505050506040513d601f19601f82011682018060405250810190612add9190613d36565b905060007393054188d876f558f4a66b2ef1d97d16edf0895b6001600160a01b0316633df0212460e01b600160008888604051602401612b209493929190614100565b60408051601f198184030181529181526020820180516001600160e01b03166001600160e01b0319909416939093179092529051612b5e9190613e99565b6000604051808303816000865af19150503d8060008114612b9b576040519150601f19603f3d011682016040523d82523d6000602084013e612ba0565b606091505b50506040516370a0823160e01b815290915061205890839060008051602061449d833981519152906370a082319061242f903090600401613ed9565b600080612c20735c69bee701ef814a2b6a3edd4b1652cb9cc5aa6f73c02aaa39b223fe8d0a0e5c4f27ead9083c756cc260008051602061449d83398151915261328c565b91509150612c37670de0b6b3a76400008383613353565b6039555050565b6040516370a0823160e01b815260009081906000805160206145d6833981519152906370a0823190612c74903090600401613ed9565b60206040518083038186803b158015612c8c57600080fd5b505afa158015612ca0573d6000803e3d6000fd5b505050506040513d601f19601f82011682018060405250810190612cc49190613d36565b60405190915047906000906000805160206144bd8339815191529063394747c560e01b90612d00906001906002908890879084906024016140d3565b60408051601f198184030181529181526020820180516001600160e01b03166001600160e01b0319909416939093179092529051612d3e9190613e99565b6000604051808303816000865af19150503d8060008114612d7b576040519150601f19603f3d011682016040523d82523d6000602084013e612d80565b606091505b50909150612d9090504783611e75565b935050505090565b6000827fea2aa0a1be11a07ed86d755c93467f4f82362b452371d1ba94d1715123511acb60001b8360000151308560800151612dd38761306b565b6001604051602001612dea96959493929190613fce565b60405160208183030381529060405280519060200120604051602001612e11929190613eb5565b60405160208183030381529060405280519060200120905092915050565b60008151604114612e87576040805162461bcd60e51b815260206004820152601f60248201527f45434453413a20696e76616c6964207369676e6174757265206c656e67746800604482015290519081900360640190fd5b60208201516040830151606084015160001a612ea5868285856133f9565b9695505050505050565b6000611e6e61215284603a548561324c565b6040516370a0823160e01b815260009081906000805160206145d6833981519152906370a0823190612ef7903090600401613ed9565b60206040518083038186803b158015612f0f57600080fd5b505afa158015612f23573d6000803e3d6000fd5b505050506040513d601f19601f82011682018060405250810190612f479190613d36565b905060006000805160206144bd8339815191526001600160a01b031663394747c560e01b6000600188600080604051602401612f879594939291906140d3565b60408051601f198184030181529181526020820180516001600160e01b03166001600160e01b0319909416939093179092529051612fc59190613e99565b6000604051808303816000865af19150503d8060008114613002576040519150601f19603f3d011682016040523d82523d6000602084013e613007565b606091505b50509050806130285760405162461bcd60e51b81526004016103c79061421f565b6040516370a0823160e01b815261305f9083906000805160206145d6833981519152906370a082319061242f903090600401613ed9565b91506120588285612a57565b6020808201516040808401516060850151608086015160a08701516101a0880151945160009761309d97969101613e3c565b6040516020818303038152906040528051906020012060001c90505b4281101561213b57806040516020016130d29190613ed0565b6040516020818303038152906040528051906020012060001c90506130b9565b600080600083516041141561311d5750505060208101516040820151606083015160001a9190613148565b835160401415613148575050506020810151604082015160ff81901c601b0191906001600160ff1b03165b9193909250565b60006131a4826040518060400160405280602081526020017f5361666545524332303a206c6f772d6c6576656c2063616c6c206661696c6564815250856001600160a01b031661355f9092919063ffffffff16565b805190915015610d26578080602001905160208110156131c357600080fd5b5051610d265760405162461bcd60e51b815260040180806020018281038252602a81526020018061461b602a913960400191505060405180910390fd5b600061320a61356e565b82604051602001808061190160f01b81525060020183815260200182815260200192505050604051602081830303815290604052805190602001209050919050565b600061248561325b8585611e50565b61093e6132806132763a603b546128e290919063ffffffff16565b620668a09061280a565b3a61359c565b3b151590565b600080600061329b85856135c3565b5090506000806132ac8888886136a1565b6001600160a01b0316630902f1ac6040518163ffffffff1660e01b815260040160606040518083038186803b1580156132e457600080fd5b505afa1580156132f8573d6000803e3d6000fd5b505050506040513d606081101561330e57600080fd5b5080516020909101516001600160701b0391821693501690506001600160a01b0387811690841614613341578082613344565b81815b90999098509650505050505050565b60008084116133935760405162461bcd60e51b81526004018080602001828103825260258152602001806145f66025913960400191505060405180910390fd5b6000831180156133a35750600082115b6133de5760405162461bcd60e51b815260040180806020018281038252602881526020018061450b6028913960400191505060405180910390fd5b826133e98584612862565b816133f057fe5b04949350505050565b60006fa2a8918ca85bafe22016d0b997e4df60600160ff1b038211156134505760405162461bcd60e51b81526004018080602001828103825260228152602001806144556022913960400191505060405180910390fd5b8360ff16601b148061346557508360ff16601c145b6134a05760405162461bcd60e51b81526004018080602001828103825260228152602001806145336022913960400191505060405180910390fd5b600060018686868660405160008152602001604052604051808581526020018460ff1681526020018381526020018281526020019450505050506020604051602081039080840390855afa1580156134fc573d6000803e3d6000fd5b5050604051601f1901519150506001600160a01b038116612058576040805162461bcd60e51b815260206004820152601860248201527745434453413a20696e76616c6964207369676e617475726560401b604482015290519081900360640190fd5b6060612485848460008561375c565b600061359760008051602061464583398151915261358a6138ac565b6135926138b2565b6138b8565b905090565b6000611e6e670de0b6b3a7640000611e686039546109443a8861286290919063ffffffff16565b600080826001600160a01b0316846001600160a01b031614156136175760405162461bcd60e51b81526004018080602001828103825260258152602001806144306025913960400191505060405180910390fd5b826001600160a01b0316846001600160a01b03161061363757828461363a565b83835b90925090506001600160a01b03821661369a576040805162461bcd60e51b815260206004820152601e60248201527f556e697377617056324c6962726172793a205a45524f5f414444524553530000604482015290519081900360640190fd5b9250929050565b60008060006136b085856135c3565b604080516001600160601b0319606094851b811660208084019190915293851b81166034830152825160288184030181526048830184528051908501206001600160f81b031960688401529a90941b9093166069840152607d8301989098527f96e8ac4277198ff8b6f785478aa9a39f403cb768dd02cbee326c3e7da348845f609d808401919091528851808403909101815260bd909201909752805196019590952095945050505050565b60608247101561379d5760405162461bcd60e51b81526004018080602001828103825260268152602001806144776026913960400191505060405180910390fd5b6137a685613286565b6137f7576040805162461bcd60e51b815260206004820152601d60248201527f416464726573733a2063616c6c20746f206e6f6e2d636f6e7472616374000000604482015290519081900360640190fd5b600080866001600160a01b031685876040518082805190602001908083835b602083106138355780518252601f199092019160209182019101613816565b6001836020036101000a03801982511681845116808217855250505050505090500191505060006040518083038185875af1925050503d8060008114613897576040519150601f19603f3d011682016040523d82523d6000602084013e61389c565b606091505b509150915061227c82828661391a565b60015490565b60025490565b60008383836138c5612946565b3060405160200180868152602001858152602001848152602001838152602001826001600160a01b03168152602001955050505050506040516020818303038152906040528051906020012090509392505050565b60608315613929575081611e6e565b8251156139395782518084602001fd5b8160405162461bcd60e51b81526004018080602001828103825283818151815260200191508051906020019080838360005b8381101561398357818101518382015260200161396b565b50505050905090810190601f1680156139b05780820380516001836020036101000a031916815260200191505b509250505060405180910390fd5b60405180610140016040528060006001600160a01b0316815260200160006001600160a01b03168152602001600081526020016000815260200160006001600160a01b0316815260200160006001600160a01b03168152602001606081526020016000815260200160008152602001600081525090565b80356001600160a01b038116811461213b57600080fd5b600082601f830112613a5c578081fd5b81356001600160401b0380821115613a7057fe5b604051601f8301601f191681016020018281118282101715613a8e57fe5b604052828152848301602001861015613aa5578384fd5b82602086016020830137918201602001929092529392505050565b600060208284031215613ad1578081fd5b611e6e82613a35565b60008060408385031215613aec578081fd5b613af583613a35565b9150613b0360208401613a35565b90509250929050565b6000806000806000806000806000806101408b8d031215613b2b578586fd5b613b348b613a35565b9950613b4260208c01613a35565b9850613b5060408c01613a35565b975060608b0135965060808b0135955060a08b01359450613b7360c08c01613a35565b935060e08b013592506101008b01356001600160401b0380821115613b96578384fd5b613ba28e838f01613a4c565b93506101208d0135915080821115613bb8578283fd5b50613bc58d828e01613a4c565b9150509295989b9194979a5092959850565b600080600080600060a08688031215613bee578081fd5b613bf786613a35565b9450613c0560208701613a35565b9350604086013592506060860135915060808601356001600160401b03811115613c2d578182fd5b613c3988828901613a4c565b9150509295509295909350565b600080600080600080600060e0888a031215613c60578283fd5b613c6988613a35565b9650613c7760208901613a35565b9550604088013594506060880135935060808801356001600160401b0380821115613ca0578485fd5b613cac8b838c01613a4c565b945060a08a0135915080821115613cc1578384fd5b613ccd8b838c01613a4c565b935060c08a0135915080821115613ce2578283fd5b50613cef8a828b01613a4c565b91505092959891949750929550565b600060208284031215613d0f578081fd5b8135611e6e81614401565b600060208284031215613d2b578081fd5b8151611e6e81614401565b600060208284031215613d47578081fd5b5051919050565b60008060408385031215613d60578182fd5b8235915060208301356001600160401b03811115613d7c578182fd5b613d8885828601613a4c565b9150509250929050565b60008060008060808587031215613da7578384fd5b5050823594602084013594506040840135936060013592509050565b60008151808452613ddb8160208601602086016143d1565b601f01601f19169290920160200192915050565b6001600160601b0319606096871b811682526001600160e81b031960e896871b8116601484015294871b811660178301529290941b909216602b840152921b909116602e82015260420190565b600060018060601b03198860601b1682528660148301528560348301528460548301528351613e728160748501602088016143d1565b835190830190613e898160748401602088016143d1565b0160740198975050505050505050565b60008251613eab8184602087016143d1565b9190910192915050565b61190160f01b81526002810192909252602282015260420190565b90815260200190565b6001600160a01b0391909116815260200190565b6001600160a01b039384168152919092166020820152604081019190915260600190565b6001600160a01b039889168152969097166020870152604086019490945260608501929092521515608084015260ff1660a083015260c082015260e08101919091526101000190565b6001600160a01b0397881681529590961660208601526040850193909352606084019190915260ff16608083015260a082015260c081019190915260e00190565b6001600160a01b0385811682526020820185905283166040820152608060608201819052600090612ea590830184613dc3565b9586526001600160a01b03948516602087015292909316604085015260608401526080830191909152151560a082015260c00190565b9687526001600160a01b03958616602088015260408701949094529184166060860152909216608084015260a083019190915260c082015260e00190565b9485526020850193909352604084019190915260608301526001600160a01b0316608082015260a00190565b600085825284602083015283604083015260806060830152612ea56080830184613dc3565b6000604082526140a66040830185613dc3565b90508260208301529392505050565b60ff9384168152919092166020820152604081019190915260600190565b60ff9586168152938516602085015260408401929092529092166060820152901515608082015260a00190565b60ff94851681529290931660208301526040820152606081019190915260800190565b6020808252600a908201526910b430b93b32b9ba32b960b11b604082015260600190565b6020808252600b908201526a21676f7665726e616e636560a81b604082015260600190565b60208082526010908201526f085cdd5c1c1bdc9d19590b585cdcd95d60821b604082015260600190565b602080825260059082015264085d5cd91d60da1b604082015260600190565b6020808252601b908201527a6572726f722073656e64696e6720746f20676f7665726e616e636560281b604082015260600190565b6020808252601b908201527a31b0b73737ba10393ab7103ab833b930b23290333ab731ba34b7b760291b604082015260600190565b60208082526006908201526521637572766560d01b604082015260600190565b60208082526010908201526f21617070726f7665642d6d6f64756c6560801b604082015260600190565b6020808252600a9082015269217369676e617475726560b01b604082015260600190565b6020808252601b908201527a195c9c9bdc881cd95b991a5b99c81d1bc81cdd1c985d1959da5cdd602a1b604082015260600190565b60208082526009908201526821646561646c696e6560b81b604082015260600190565b602080825260119082015270746f6f206d7563682063616c6c6461746160781b604082015260600190565b600060208252825160a0602084015261432c60c0840182613dc3565b905060018060a01b0360208501511660408401526040840151606084015260608401516080840152608084015160a08401528091505092915050565b81516001600160a01b03908116825260208084015182169083015260408084015162ffffff16908301526060808401518216908301526080808401519083015260a0838101519083015260c0808401519083015260e09283015116918101919091526101000190565b60005b838110156143ec5781810151838201526020016143d4565b838111156143fb576000848401525b50505050565b801515811461127057600080fdfec89efdaa54c0f20c7adf612882df0950f5a951637e0307cdcb4c672f298b8bc6556e697377617056324c6962726172793a204944454e544943414c5f41444452455353455345434453413a20696e76616c6964207369676e6174757265202773272076616c7565416464726573733a20696e73756666696369656e742062616c616e636520666f722063616c6c000000000000000000000000eb4c2781e4eba804ce9a9803c67d0893436bb27d000000000000000000000000d51a44d3fae010294c616388b506acda1bfaae46496e697469616c697a61626c653a20636f6e747261637420697320616c726561647920696e697469616c697a6564556e697377617056324c6962726172793a20494e53554646494349454e545f4c495155494449545945434453413a20696e76616c6964207369676e6174757265202776272076616c7565beed1800071121fef9d570fce5f76b2eaf672ce52e10caf9fb158a2819313c50536166654d6174683a206d756c7469706c69636174696f6e206f766572666c6f77000000000000000000000000a0b86991c6218b36c1d19d4a2e9eb0ce3606eb48000000000000000000000000dac17f958d2ee523a2206206994597c13d831ec70000000000000000000000002260fac5e5542a773aa44fbcfedf7c193bc2c599556e697377617056324c6962726172793a20494e53554646494349454e545f414d4f554e545361666545524332303a204552433230206f7065726174696f6e20646964206e6f7420737563636565648b73c3c69bb8fe3d512ecc4cf759cc79239f7b179b0ffacaa9a75d522b39400f5361666545524332303a20617070726f76652066726f6d206e6f6e2d7a65726f20746f206e6f6e2d7a65726f20616c6c6f77616e6365a264697066735822122098a3356d2f24ee8f4c08e1b57f03e8019bccd3d56329c6635c4de2b01cd9692c64736f6c63430007060033",
  "libraries": {},
  "devdoc": {
    "kind": "dev",
    "methods": {},
    "version": 1
  },
  "userdoc": {
    "kind": "user",
    "methods": {},
    "version": 1
  },
  "storageLayout": {
    "storage": [
      {
        "astId": 652,
        "contract": "contracts/controllers/BadgerBridgeZeroController.sol:BadgerBridgeZeroController",
        "label": "_initialized",
        "offset": 0,
        "slot": "0",
        "type": "t_bool"
      },
      {
        "astId": 655,
        "contract": "contracts/controllers/BadgerBridgeZeroController.sol:BadgerBridgeZeroController",
        "label": "_initializing",
        "offset": 1,
        "slot": "0",
        "type": "t_bool"
      },
      {
        "astId": 138,
        "contract": "contracts/controllers/BadgerBridgeZeroController.sol:BadgerBridgeZeroController",
        "label": "_HASHED_NAME",
        "offset": 0,
        "slot": "1",
        "type": "t_bytes32"
      },
      {
        "astId": 140,
        "contract": "contracts/controllers/BadgerBridgeZeroController.sol:BadgerBridgeZeroController",
        "label": "_HASHED_VERSION",
        "offset": 0,
        "slot": "2",
        "type": "t_bytes32"
      },
      {
        "astId": 289,
        "contract": "contracts/controllers/BadgerBridgeZeroController.sol:BadgerBridgeZeroController",
        "label": "__gap",
        "offset": 0,
        "slot": "3",
        "type": "t_array(t_uint256)50_storage"
      },
      {
        "astId": 5965,
        "contract": "contracts/controllers/BadgerBridgeZeroController.sol:BadgerBridgeZeroController",
        "label": "fee",
        "offset": 0,
        "slot": "53",
        "type": "t_uint256"
      },
      {
        "astId": 5967,
        "contract": "contracts/controllers/BadgerBridgeZeroController.sol:BadgerBridgeZeroController",
        "label": "governance",
        "offset": 0,
        "slot": "54",
        "type": "t_address"
      },
      {
        "astId": 5969,
        "contract": "contracts/controllers/BadgerBridgeZeroController.sol:BadgerBridgeZeroController",
        "label": "strategist",
        "offset": 0,
        "slot": "55",
        "type": "t_address"
      },
      {
        "astId": 6022,
        "contract": "contracts/controllers/BadgerBridgeZeroController.sol:BadgerBridgeZeroController",
        "label": "governanceFee",
        "offset": 0,
        "slot": "56",
        "type": "t_uint256"
      },
      {
        "astId": 6044,
        "contract": "contracts/controllers/BadgerBridgeZeroController.sol:BadgerBridgeZeroController",
        "label": "renbtcForOneETHPrice",
        "offset": 0,
        "slot": "57",
        "type": "t_uint256"
      },
      {
        "astId": 6046,
        "contract": "contracts/controllers/BadgerBridgeZeroController.sol:BadgerBridgeZeroController",
        "label": "burnFee",
        "offset": 0,
        "slot": "58",
        "type": "t_uint256"
      },
      {
        "astId": 6048,
        "contract": "contracts/controllers/BadgerBridgeZeroController.sol:BadgerBridgeZeroController",
        "label": "keeperReward",
        "offset": 0,
        "slot": "59",
        "type": "t_uint256"
      },
      {
        "astId": 6058,
        "contract": "contracts/controllers/BadgerBridgeZeroController.sol:BadgerBridgeZeroController",
        "label": "nonces",
        "offset": 0,
        "slot": "60",
        "type": "t_mapping(t_address,t_uint256)"
      },
      {
        "astId": 6060,
        "contract": "contracts/controllers/BadgerBridgeZeroController.sol:BadgerBridgeZeroController",
        "label": "PERMIT_DOMAIN_SEPARATOR_WBTC",
        "offset": 0,
        "slot": "61",
        "type": "t_bytes32"
      },
      {
        "astId": 6064,
        "contract": "contracts/controllers/BadgerBridgeZeroController.sol:BadgerBridgeZeroController",
        "label": "noncesUsdt",
        "offset": 0,
        "slot": "62",
        "type": "t_mapping(t_address,t_uint256)"
      },
      {
        "astId": 6073,
        "contract": "contracts/controllers/BadgerBridgeZeroController.sol:BadgerBridgeZeroController",
        "label": "isHarvester",
        "offset": 0,
        "slot": "63",
        "type": "t_mapping(t_address,t_bool)"
      }
    ],
    "types": {
      "t_address": {
        "encoding": "inplace",
        "label": "address",
        "numberOfBytes": "20"
      },
      "t_array(t_uint256)50_storage": {
        "base": "t_uint256",
        "encoding": "inplace",
        "label": "uint256[50]",
        "numberOfBytes": "1600"
      },
      "t_bool": {
        "encoding": "inplace",
        "label": "bool",
        "numberOfBytes": "1"
      },
      "t_bytes32": {
        "encoding": "inplace",
        "label": "bytes32",
        "numberOfBytes": "32"
      },
      "t_mapping(t_address,t_bool)": {
        "encoding": "mapping",
        "key": "t_address",
        "label": "mapping(address => bool)",
        "numberOfBytes": "32",
        "value": "t_bool"
      },
      "t_mapping(t_address,t_uint256)": {
        "encoding": "mapping",
        "key": "t_address",
        "label": "mapping(address => uint256)",
        "numberOfBytes": "32",
        "value": "t_uint256"
      },
      "t_uint256": {
        "encoding": "inplace",
        "label": "uint256",
        "numberOfBytes": "32"
      }
    }
  }
}