{
  "address": "0x60b85C3eA78A33A07C88E5b492A41EBAFe36Ad7B",
  "abi": [
    {
      "inputs": [],
      "name": "BURN_GAS_DIFF",
      "outputs": [
        {
          "internalType": "uint256",
          "name": "",
          "type": "uint256"
        }
      ],
      "stateMutability": "view",
      "type": "function"
    },
    {
      "inputs": [],
      "name": "REPAY_GAS_DIFF",
      "outputs": [
        {
          "internalType": "uint256",
          "name": "",
          "type": "uint256"
        }
      ],
      "stateMutability": "view",
      "type": "function"
    },
    {
      "inputs": [
        {
          "internalType": "bool",
          "name": "lock",
          "type": "bool"
        }
      ],
      "name": "approveUpgrade",
      "outputs": [],
      "stateMutability": "nonpayable",
      "type": "function"
    },
    {
      "inputs": [
        {
          "internalType": "address",
          "name": "to",
          "type": "address"
        },
        {
          "internalType": "address",
          "name": "asset",
          "type": "address"
        },
        {
          "internalType": "uint256",
          "name": "amount",
          "type": "uint256"
        },
        {
          "internalType": "uint256",
          "name": "deadline",
          "type": "uint256"
        },
        {
          "internalType": "bytes",
          "name": "data",
          "type": "bytes"
        },
        {
          "internalType": "bytes",
          "name": "destination",
          "type": "bytes"
        },
        {
          "internalType": "bytes",
          "name": "signature",
          "type": "bytes"
        }
      ],
      "name": "burn",
      "outputs": [
        {
          "internalType": "uint256",
          "name": "amountToBurn",
          "type": "uint256"
        }
      ],
      "stateMutability": "nonpayable",
      "type": "function"
    },
    {
      "inputs": [
        {
          "internalType": "address",
          "name": "from",
          "type": "address"
        },
        {
          "internalType": "address",
          "name": "asset",
          "type": "address"
        },
        {
          "internalType": "uint256",
          "name": "amount",
          "type": "uint256"
        },
        {
          "internalType": "uint256",
          "name": "minOut",
          "type": "uint256"
        },
        {
          "internalType": "bytes",
          "name": "destination",
          "type": "bytes"
        }
      ],
      "name": "burnApproved",
      "outputs": [
        {
          "internalType": "uint256",
          "name": "amountToBurn",
          "type": "uint256"
        }
      ],
      "stateMutability": "payable",
      "type": "function"
    },
    {
      "inputs": [
        {
          "internalType": "uint256",
          "name": "minOut",
          "type": "uint256"
        },
        {
          "internalType": "bytes",
          "name": "destination",
          "type": "bytes"
        }
      ],
      "name": "burnETH",
      "outputs": [
        {
          "internalType": "uint256",
          "name": "amountToBurn",
          "type": "uint256"
        }
      ],
      "stateMutability": "payable",
      "type": "function"
    },
    {
      "inputs": [],
      "name": "earn",
      "outputs": [],
      "stateMutability": "nonpayable",
      "type": "function"
    },
    {
      "inputs": [
        {
          "internalType": "address",
          "name": "underwriter",
          "type": "address"
        },
        {
          "internalType": "address",
          "name": "to",
          "type": "address"
        },
        {
          "internalType": "address",
          "name": "asset",
          "type": "address"
        },
        {
          "internalType": "uint256",
          "name": "amount",
          "type": "uint256"
        },
        {
          "internalType": "uint256",
          "name": "actualAmount",
          "type": "uint256"
        },
        {
          "internalType": "uint256",
          "name": "nonce",
          "type": "uint256"
        },
        {
          "internalType": "address",
          "name": "module",
          "type": "address"
        },
        {
          "internalType": "bytes32",
          "name": "nHash",
          "type": "bytes32"
        },
        {
          "internalType": "bytes",
          "name": "data",
          "type": "bytes"
        },
        {
          "internalType": "bytes",
          "name": "signature",
          "type": "bytes"
        }
      ],
      "name": "fallbackMint",
      "outputs": [],
      "stateMutability": "nonpayable",
      "type": "function"
    },
    {
      "inputs": [],
      "name": "fee",
      "outputs": [
        {
          "internalType": "uint256",
          "name": "",
          "type": "uint256"
        }
      ],
      "stateMutability": "view",
      "type": "function"
    },
    {
      "inputs": [],
      "name": "governance",
      "outputs": [
        {
          "internalType": "address",
          "name": "",
          "type": "address"
        }
      ],
      "stateMutability": "view",
      "type": "function"
    },
    {
      "inputs": [],
      "name": "governanceFee",
      "outputs": [
        {
          "internalType": "uint256",
          "name": "",
          "type": "uint256"
        }
      ],
      "stateMutability": "view",
      "type": "function"
    },
    {
      "inputs": [
        {
          "internalType": "address",
          "name": "_governance",
          "type": "address"
        },
        {
          "internalType": "address",
          "name": "_strategist",
          "type": "address"
        }
      ],
      "name": "initialize",
      "outputs": [],
      "stateMutability": "nonpayable",
      "type": "function"
    },
    {
      "inputs": [],
      "name": "keeperReward",
      "outputs": [
        {
          "internalType": "uint256",
          "name": "",
          "type": "uint256"
        }
      ],
      "stateMutability": "view",
      "type": "function"
    },
    {
      "inputs": [
        {
          "internalType": "address",
          "name": "",
          "type": "address"
        }
      ],
      "name": "nonces",
      "outputs": [
        {
          "internalType": "uint256",
          "name": "",
          "type": "uint256"
        }
      ],
      "stateMutability": "view",
      "type": "function"
    },
    {
      "inputs": [
        {
          "internalType": "address",
          "name": "underwriter",
          "type": "address"
        },
        {
          "internalType": "address",
          "name": "to",
          "type": "address"
        },
        {
          "internalType": "address",
          "name": "asset",
          "type": "address"
        },
        {
          "internalType": "uint256",
          "name": "amount",
          "type": "uint256"
        },
        {
          "internalType": "uint256",
          "name": "actualAmount",
          "type": "uint256"
        },
        {
          "internalType": "uint256",
          "name": "nonce",
          "type": "uint256"
        },
        {
          "internalType": "address",
          "name": "module",
          "type": "address"
        },
        {
          "internalType": "bytes32",
          "name": "nHash",
          "type": "bytes32"
        },
        {
          "internalType": "bytes",
          "name": "data",
          "type": "bytes"
        },
        {
          "internalType": "bytes",
          "name": "signature",
          "type": "bytes"
        }
      ],
      "name": "repay",
      "outputs": [
        {
          "internalType": "uint256",
          "name": "amountOut",
          "type": "uint256"
        }
      ],
      "stateMutability": "nonpayable",
      "type": "function"
    },
    {
      "inputs": [
        {
          "internalType": "address",
          "name": "_governance",
          "type": "address"
        }
      ],
      "name": "setGovernance",
      "outputs": [],
      "stateMutability": "nonpayable",
      "type": "function"
    },
    {
      "inputs": [
        {
          "internalType": "uint256",
          "name": "_governanceFee",
          "type": "uint256"
        },
        {
          "internalType": "uint256",
          "name": "_fee",
          "type": "uint256"
        },
        {
          "internalType": "uint256",
          "name": "_burnFee",
          "type": "uint256"
        },
        {
          "internalType": "uint256",
          "name": "_keeperReward",
          "type": "uint256"
        }
      ],
      "name": "setParameters",
      "outputs": [],
      "stateMutability": "nonpayable",
      "type": "function"
    },
    {
      "inputs": [
        {
          "internalType": "address",
          "name": "_strategist",
          "type": "address"
        }
      ],
      "name": "setStrategist",
      "outputs": [],
      "stateMutability": "nonpayable",
      "type": "function"
    },
    {
      "inputs": [],
      "name": "strategist",
      "outputs": [
        {
          "internalType": "address",
          "name": "",
          "type": "address"
        }
      ],
      "stateMutability": "view",
      "type": "function"
    },
    {
      "stateMutability": "payable",
      "type": "receive"
    }
  ],
  "transactionHash": "0x5bd5e04f1007b9d129376d8b7650b3f818842bb49ae04850371490ae71f181e8",
  "args": [],
  "numDeployments": 2,
  "solcInputHash": "400f9248c5ee8dced8070a0290d7816c",
  "bytecode": "0x608060405234801561001057600080fd5b5061454c806100206000396000f3fe6080604052600436106100e85760003560e01c8063056f4e18146100f45780630ea90a121461011f5780631fe4a68614610134578063315065c7146101565780633816cbf3146101785780633b36c7f81461018b578063485cc955146101ab5780635aa6e675146101cb5780636bc6f683146101e05780637ecebe00146101f3578063a9ec75f614610213578063ab033ea914610228578063b0a82ee814610248578063c7b9d5301461025d578063d389800f1461027d578063ddca3f4314610292578063e20d3682146102a7578063e4759b2f146102c7578063fcd9da44146102e7576100ef565b366100ef57005b600080fd5b34801561010057600080fd5b50610109610307565b6040516101169190613d7b565b60405180910390f35b34801561012b57600080fd5b5061010961030d565b34801561014057600080fd5b50610149610313565b6040516101169190613d84565b34801561016257600080fd5b50610176610171366004613b73565b610322565b005b610109610186366004613bc3565b610374565b34801561019757600080fd5b506101096101a6366004613981565b61042a565b3480156101b757600080fd5b506101766101c636600461394f565b610852565b3480156101d757600080fd5b50610149610b9b565b6101096101ee366004613a4c565b610baa565b3480156101ff57600080fd5b5061010961020e366004613935565b610e1c565b34801561021f57600080fd5b50610109610e2e565b34801561023457600080fd5b50610176610243366004613935565b610e34565b34801561025457600080fd5b50610109610e80565b34801561026957600080fd5b50610176610278366004613935565b610e86565b34801561028957600080fd5b50610176610ed2565b34801561029e57600080fd5b506101096110b3565b3480156102b357600080fd5b506101096102c2366004613abb565b6110b9565b3480156102d357600080fd5b506101766102e2366004613981565b611955565b3480156102f357600080fd5b50610176610302366004613c07565b611ace565b61a22681565b60385481565b6037546001600160a01b031681565b7f9bc33bb56687331ee69412ec52ec6bee0bc884cd30e70d995a805eb4e2c1dc5a805490811561036d5760405162461bcd60e51b8152600401610364906140ff565b60405180910390fd5b9190915550565b60006103958361039061038934603a54611b0c565b3490611b31565b611b93565b6040516338463cff60e01b81529091507305cadbf3128bcb7f2b89f3dd55e5b0a036a49e20906338463cff906103d19085908590600401613f79565b602060405180830381600087803b1580156103eb57600080fd5b505af11580156103ff573d6000803e3d6000fd5b505050506040513d601f19601f820116820180604052508101906104239190613bab565b5092915050565b600061020436111561044e5760405162461bcd60e51b8152600401610364906141fa565b60005a905061045b613815565b6001600160a01b0387166000805160206143e6833981519152148061049657506001600160a01b03871660008051602061435e833981519152145b806104bd57506001600160a01b03871673c4e15973e6ff2a35cc804c2cf9d2a1b817a8b40f145b806104de57506001600160a01b03871660008051602061433e833981519152145b806104f057506001600160a01b038716155b61050c5760405162461bcd60e51b815260040161036490614154565b6040518061014001604052808d6001600160a01b031681526020018c6001600160a01b031681526020018981526020018b8152602001886001600160a01b031681526020018e6001600160a01b03168152602001868152602001600181526020016000815260200161057c611c93565b90528551909150156105a2578480602001905181019061059c9190613bab565b60e08201525b60006105ad82611ced565b90507305cadbf3128bcb7f2b89f3dd55e5b0a036a49e206001600160a01b031663159ab14d8360000151846040015185608001518660c001516040516020016105f99493929190613e46565b604051602081830303815290604052805190602001208c8a896040518563ffffffff1660e01b81526004016106319493929190613f54565b602060405180830381600087803b15801561064b57600080fd5b505af115801561065f573d6000803e3d6000fd5b505050506040513d601f19601f820116820180604052508101906106839190613bab565b6101008301526001600160a01b0388166000805160206143e683398151915214610770576001600160a01b0388161561074d576001600160a01b03881660008051602061435e8339815191521461072a576001600160a01b03881673c4e15973e6ff2a35cc804c2cf9d2a1b817a8b40f1461070d576107088261010001516001611d73565b610725565b6107256107208361010001516003611d8c565b611d9e565b610748565b6107488260e001516107428461010001516001611d73565b8f61208f565b61076b565b61076b8260e001516107658461010001516001611d73565b8f6121bd565b610788565b6107886107838361010001516001611d73565b612365565b93506001600160a01b03881660008051602061435e833981519152148015906107b957506001600160a01b03881615155b156107d2576107d26001600160a01b0389168e86612509565b326001600160a01b03166108fc610818610812603b546108063a61080c89610120015161080661a2266108065a8f90611b31565b9061255b565b906125b3565b4761260c565b6040518115909202916000818181858888f19350505050158015610840573d6000803e3d6000fd5b505050509a9950505050505050505050565b600054610100900460ff168061086b575061086b612622565b80610879575060005460ff16155b6108b45760405162461bcd60e51b815260040180806020018281038252602e815260200180614406602e913960400191505060405180910390fd5b600054610100900460ff161580156108df576000805460ff1961ff0019909116610100171660011790555b6608e1bc9bf04000603555660e35fa931a0000603a556706f05b59d3b20000603855603680546001600160a01b038086166001600160a01b0319928316179092556037805492851692909116919091179055610945670de0b6b3a76400006103e8612633565b603b5561097660008051602061433e8339815191526000805160206144568339815191526001600160fe1b03612697565b6109a46000805160206143e68339815191526000805160206144568339815191526001600160fe1b03612697565b6109d86000805160206143e683398151915273960ea3e3c7fb317332d990873d354e18d76455906001600160fe1b03612697565b610a0c600080516020614456833981519152736def55d2e18486b9ddfaa075bc4e4ee0b28c15456001600160fe1b03612697565b610a406000805160206143e683398151915273e592427a0aece92de3edee1f18e0157c058615646001600160fe1b03612697565b610a7460008051602061435e83398151915273e592427a0aece92de3edee1f18e0157c058615646001600160fe1b03612697565b6000805160206144c18339815191527f98da2c5e4c6b1db946694570273b859a6e4083ccc8faa155edfc4c54eb3cfd7360008051602061437e833981519152610abb6127aa565b6000805160206143e6833981519152604051602001610ade959493929190613f28565b60408051601f198184030181529190528051602090910120603d556000805160206144c18339815191527f2ebd54194914126698f04c81e3945e63f9a04cb5b45eb55794ad7b23ebf8a0f760008051602061437e833981519152610b406127aa565b73c4e15973e6ff2a35cc804c2cf9d2a1b817a8b40f604051602001610b69959493929190613f28565b60408051601f198184030181529190528051602090910120603e558015610b96576000805461ff00191690555b505050565b6036546001600160a01b031681565b60006001600160a01b0385166000805160206143e68339815191521480610be757506001600160a01b03851660008051602061435e833981519152145b80610c0857506001600160a01b03851660008051602061433e833981519152145b80610c1a57506001600160a01b038516155b610c365760405162461bcd60e51b815260040161036490614154565b6001600160a01b03851615610cc9576040516323b872dd60e01b81526001600160a01b038616906323b872dd90610c7590339030908990600401613d98565b602060405180830381600087803b158015610c8f57600080fd5b505af1158015610ca3573d6000803e3d6000fd5b505050506040513d601f19601f82011682018060405250810190610cc79190613b8f565b505b6001600160a01b0385166000805160206143e683398151915214610d66576001600160a01b03851660008051602061435e83398151915214610d42576001600160a01b03851660008051602061433e83398151915214610d3b57610d368361039061038934603a54611b0c565b610d3d565b835b610d61565b610d6183610d5c610d5587603a54611b0c565b8790611b31565b6127ae565b610d84565b610d84610d7f610d7886603a54611b0c565b8690611b31565b6128cf565b6040516338463cff60e01b81529091507305cadbf3128bcb7f2b89f3dd55e5b0a036a49e20906338463cff90610dc09085908590600401613f79565b602060405180830381600087803b158015610dda57600080fd5b505af1158015610dee573d6000803e3d6000fd5b505050506040513d601f19601f82011682018060405250810190610e129190613bab565b5095945050505050565b603c6020526000908152604090205481565b603b5481565b6036546001600160a01b03163314610e5e5760405162461bcd60e51b81526004016103649061407b565b603680546001600160a01b0319166001600160a01b0392909216919091179055565b61a09e81565b6036546001600160a01b03163314610eb05760405162461bcd60e51b81526004016103649061407b565b603780546001600160a01b0319166001600160a01b0392909216919091179055565b610eda612a1d565b6040516370a0823160e01b8152610f5f9060008051602061433e833981519152906370a0823190610f0f903090600401613d84565b60206040518083038186803b158015610f2757600080fd5b505afa158015610f3b573d6000803e3d6000fd5b505050506040513d601f19601f820116820180604052508101906107839190613bab565b50610f68612b8f565b5047674563918244f400008111156110b0576000674563918244f40000820390506000610f9782603854611b0c565b6036549091506000906001600160a01b031680835a90604051610fb990611cea565b600060405180830381858888f193505050503d8060008114610ff7576040519150601f19603f3d011682016040523d82523d6000602084013e610ffc565b606091505b5050809250508161101f5760405162461bcd60e51b8152600401610364906140ca565b6037546001600160a01b0316806110368686611b31565b5a9060405161104490611cea565b600060405180830381858888f193505050503d8060008114611082576040519150601f19603f3d011682016040523d82523d6000602084013e611087565b606091505b505080935050826110aa5760405162461bcd60e51b8152600401610364906141a2565b50505050505b50565b60355481565b60006102443611156110dd5760405162461bcd60e51b8152600401610364906141fa565b6000604051806101e001604052808a6001600160a01b03168152602001896001600160a01b031681526020018881526020018781526020016000815260200186815260200160018152602001600081526020015a81526000602082018190526040820181905260608201819052608082015260a0810186905260c0018490529050611166611c93565b61012082015260a08101515115611195578060a0015180602001905181019061118f9190613bab565b60c08201525b806060015142106111b85760405162461bcd60e51b8152600401610364906141d7565b60208101516001600160a01b03166000805160206143e68339815191521415611305576001600160a01b03808a166000908152603c6020818152604080842054608087015285519094168352522080546001019055603d546112299061121e9083612cef565b826101c00151612d86565b6001600160a01b031681600001516001600160a01b03161461125d5760405162461bcd60e51b81526004016103649061417e565b80602001516001600160a01b03166323b872dd82600001513084604001516040518463ffffffff1660e01b815260040161129993929190613d98565b602060405180830381600087803b1580156112b357600080fd5b505af11580156112c7573d6000803e3d6000fd5b505050506040513d601f19601f820116820180604052508101906112eb9190613b8f565b506112fe610d7f82604001516001612e06565b9150611856565b6001600160a01b03881673c4e15973e6ff2a35cc804c2cf9d2a1b817a8b40f1415611444576001600160a01b0389166000818152603c602081815260408320805460808701819052949093525260019091019055603e5461136a9061121e9083612cef565b6001600160a01b031681600001516001600160a01b03161461139e5760405162461bcd60e51b81526004016103649061417e565b80602001516001600160a01b03166323b872dd82600001513084604001516040518463ffffffff1660e01b81526004016113da93929190613d98565b602060405180830381600087803b1580156113f457600080fd5b505af1158015611408573d6000803e3d6000fd5b505050506040513d601f19601f8201168201806040525081019061142c9190613b8f565b506112fe61143d8260400151612e18565b6003613187565b60208101516001600160a01b031660008051602061433e833981519152141561163b5760208101518151604051623f675f60e91b81526001600160a01b0390921691637ecebe009161149891600401613d84565b60206040518083038186803b1580156114b057600080fd5b505afa1580156114c4573d6000803e3d6000fd5b505050506040513d601f19601f820116820180604052508101906114e89190613bab565b60808201526114f681613199565b60e08201526101c081015161150a90613220565b6101808401819052610160840182905260ff909216610140840181905260208401518451608086015160e08701516040516323f2ebc360e21b81526001600160a01b0390941696638fcbaf0c9661156d9694953095600193909291600401613dbc565b600060405180830381600087803b15801561158757600080fd5b505af115801561159b573d6000803e3d6000fd5b5050506020820151825160408085015190516323b872dd60e01b81526001600160a01b0390931693506323b872dd926115d992913091600401613d98565b602060405180830381600087803b1580156115f357600080fd5b505af1158015611607573d6000803e3d6000fd5b505050506040513d601f19601f8201168201806040525081019061162b9190613b8f565b506112fe81604001516001612e06565b60208101516001600160a01b031660008051602061435e833981519152141561183e5760208101518151604051623f675f60e91b81526001600160a01b0390921691637ecebe009161168f91600401613d84565b60206040518083038186803b1580156116a757600080fd5b505afa1580156116bb573d6000803e3d6000fd5b505050506040513d601f19601f820116820180604052508101906116df9190613bab565b60808201526116ed81613199565b60e08201526101c081015161170190613220565b6101808401819052610160840182905260ff90921661014084018190526020840151845160408087015160e0880151915163d505accf60e01b81526001600160a01b039094169663d505accf9661176396949530959394939290600401613e05565b600060405180830381600087803b15801561177d57600080fd5b505af1158015611791573d6000803e3d6000fd5b5050506020820151825160408085015190516323b872dd60e01b81526001600160a01b0390931693506323b872dd926117cf92913091600401613d98565b602060405180830381600087803b1580156117e957600080fd5b505af11580156117fd573d6000803e3d6000fd5b505050506040513d601f19601f820116820180604052508101906118219190613b8f565b506112fe6118378260c0015183604001516127ae565b6001612e06565b60405162461bcd60e51b8152600401610364906140a0565b6101a08101516040516338463cff60e01b81527305cadbf3128bcb7f2b89f3dd55e5b0a036a49e20916338463cff9161189491908690600401613f79565b602060405180830381600087803b1580156118ae57600080fd5b505af11580156118c2573d6000803e3d6000fd5b505050506040513d601f19601f820116820180604052508101906118e69190613bab565b50326001600160a01b03166108fc611920610812603b546108063a61080c88610120015161080661a09e6108065a6101008e015190611b31565b6040518115909202916000818181858888f19350505050158015611948573d6000803e3d6000fd5b5050979650505050505050565b60006040518061014001604052808b6001600160a01b031681526020018a6001600160a01b03168152602001878152602001898152602001866001600160a01b031681526020018c6001600160a01b0316815260200184815260200160018152602001600081526020016000815250905060006119d182611ced565b905060007305cadbf3128bcb7f2b89f3dd55e5b0a036a49e206001600160a01b031663159ab14d8460000151856040015186608001518760c00151604051602001611a1f9493929190613e46565b604051602081830303815290604052805190602001208b89886040518563ffffffff1660e01b8152600401611a579493929190613f54565b602060405180830381600087803b158015611a7157600080fd5b505af1158015611a85573d6000803e3d6000fd5b505050506040513d601f19601f82011682018060405250810190611aa99190613bab565b9050611abf6001600160a01b038c168d83612509565b50505050505050505050505050565b6036546001600160a01b03163314611af85760405162461bcd60e51b81526004016103649061407b565b603893909355603591909155603a55603b55565b6000611b2a670de0b6b3a7640000611b2485856125b3565b90612633565b9392505050565b600082821115611b88576040805162461bcd60e51b815260206004820152601e60248201527f536166654d6174683a207375627472616374696f6e206f766572666c6f770000604482015290519081900360640190fd5b508082035b92915050565b60408051610100810182527382af49447d8a07e3bd95bd0d56f35241523fbab181526000805160206143e683398151915260208201526101f48183015230606082015260014201608082015260a0810183905260c08101849052600060e08201819052915163414bf38960e01b815273e592427a0aece92de3edee1f18e0157c058615649063414bf389908590611c2e90859060040161427d565b6020604051808303818588803b158015611c4757600080fd5b505af1158015611c5b573d6000803e3d6000fd5b50505050506040513d601f19601f82011682018060405250810190611c809190613bab565b9150611c8b826128cf565b949350505050565b6000611cea565b82811015611ce657803560005b61010081108015611cbd5750600019811b821615155b15611cdc5760ff82821c1615611cd4576040860395505b600801611ca7565b5050602001611c9a565b5050505b90565b600080611d6a7fdb76b3b6f252d5a7418b86aea25c87126f450d18491ccb7b8427fe0e9697a31c846020015185606001518660a00151876080015188604001518960c0015180519060200120604051602001611d4f9796959493929190613eea565b6040516020818303038152906040528051906020012061327d565b9150505b919050565b6000611b2a611d8584603554856132c9565b8490611b31565b6000611b2a611d858460355485613303565b6000611da861388c565b82815260405160009060008051602061445683398151915290630b4c7e4d60e01b90611dda9085908590602401613e79565b60408051601f198184030181529181526020820180516001600160e01b03166001600160e01b0319909416939093179092529051611e189190613d44565b6000604051808303816000865af19150503d8060008114611e55576040519150601f19603f3d011682016040523d82523d6000602084013e611e5a565b606091505b5050905080611e7b5760405162461bcd60e51b815260040161036490614134565b6040516370a0823160e01b8152736def55d2e18486b9ddfaa075bc4e4ee0b28c15459063b6b55f2590600080516020614456833981519152906370a0823190611ec8903090600401613d84565b60206040518083038186803b158015611ee057600080fd5b505afa158015611ef4573d6000803e3d6000fd5b505050506040513d601f19601f82011682018060405250810190611f189190613bab565b6040518263ffffffff1660e01b8152600401611f349190613d7b565b600060405180830381600087803b158015611f4e57600080fd5b505af1158015611f62573d6000803e3d6000fd5b50506040516370a0823160e01b81527341671ba1abcba387b9b2b752c205e22e916be6e3925063e6d37b889150600090736def55d2e18486b9ddfaa075bc4e4ee0b28c1545906370a0823190611fbc903090600401613d84565b60206040518083038186803b158015611fd457600080fd5b505afa158015611fe8573d6000803e3d6000fd5b505050506040513d601f19601f8201168201806040525081019061200c9190613bab565b604080516000815260208101918290526001600160e01b031960e086901b1690915261203d92919060248101613fdc565b602060405180830381600087803b15801561205757600080fd5b505af115801561206b573d6000803e3d6000fd5b505050506040513d601f19601f82011682018060405250810190611c8b9190613bab565b60008061209b84612365565b905060006000805160206143e68339815191526101f47382af49447d8a07e3bd95bd0d56f35241523fbab16101f460008051602061435e8339815191526040516020016120ec959493929190613c9a565b60408051601f1981840301815260a0830182528083526001600160a01b038716602084015260014201838301526060830185905260808301899052905163c04b8d5960e01b815290925073e592427a0aece92de3edee1f18e0157c058615649063c04b8d5990612160908490600401614225565b602060405180830381600087803b15801561217a57600080fd5b505af115801561218e573d6000803e3d6000fd5b505050506040513d601f19601f820116820180604052508101906121b29190613bab565b979650505050505050565b6000806121c984612365565b60408051610100810182526000805160206143e683398151915281527382af49447d8a07e3bd95bd0d56f35241523fbab160208201526101f48183015230606082015260014201608082015260a0810183905260c08101889052600060e0820152905163414bf38960e01b81529192509073e592427a0aece92de3edee1f18e0157c058615649063414bf3899061226490849060040161427d565b602060405180830381600087803b15801561227e57600080fd5b505af1158015612292573d6000803e3d6000fd5b505050506040513d601f19601f820116820180604052508101906122b69190613bab565b604051632e1a7d4d60e01b815290935084907382af49447d8a07e3bd95bd0d56f35241523fbab190632e1a7d4d906122f2908790600401613d7b565b600060405180830381600087803b15801561230c57600080fd5b505af1158015612320573d6000803e3d6000fd5b50506040516001600160a01b038416925086156108fc02915086906000818181858888f1935050505015801561235a573d6000803e3d6000fd5b505050509392505050565b6040516370a0823160e01b815260009081906000805160206143e6833981519152906370a082319061239b903090600401613d84565b60206040518083038186803b1580156123b357600080fd5b505afa1580156123c7573d6000803e3d6000fd5b505050506040513d601f19601f820116820180604052508101906123eb9190613bab565b60405163ddc1f59d60e01b81529091506000805160206144568339815191529063ddc1f59d9061242990600190600090889083903090600401613f9b565b602060405180830381600087803b15801561244357600080fd5b505af1158015612457573d6000803e3d6000fd5b505050506040513d601f19601f8201168201806040525081019061247b9190613bab565b506040516370a0823160e01b8152611b2a9082906000805160206143e6833981519152906370a08231906124b3903090600401613d84565b60206040518083038186803b1580156124cb57600080fd5b505afa1580156124df573d6000803e3d6000fd5b505050506040513d601f19601f820116820180604052508101906125039190613bab565b90611b31565b604080516001600160a01b038416602482015260448082018490528251808303909101815260649091019091526020810180516001600160e01b031663a9059cbb60e01b179052610b96908490613337565b600082820183811015611b2a576040805162461bcd60e51b815260206004820152601b60248201527a536166654d6174683a206164646974696f6e206f766572666c6f7760281b604482015290519081900360640190fd5b6000826125c257506000611b8d565b828202828482816125cf57fe5b0414611b2a5760405162461bcd60e51b81526004018080602001828103825260218152602001806144766021913960400191505060405180910390fd5b600081831061261b5781611b2a565b5090919050565b600061262d306133e8565b15905090565b6000808211612686576040805162461bcd60e51b815260206004820152601a602482015279536166654d6174683a206469766973696f6e206279207a65726f60301b604482015290519081900360640190fd5b81838161268f57fe5b049392505050565b80158061271d575060408051636eb1769f60e11b81523060048201526001600160a01b03848116602483015291519185169163dd62ed3e91604480820192602092909190829003018186803b1580156126ef57600080fd5b505afa158015612703573d6000803e3d6000fd5b505050506040513d602081101561271957600080fd5b5051155b6127585760405162461bcd60e51b81526004018080602001828103825260368152602001806144e16036913960400191505060405180910390fd5b604080516001600160a01b038416602482015260448082018490528251808303909101815260649091019091526020810180516001600160e01b031663095ea7b360e01b179052610b96908490613337565b4690565b60008060008051602061435e8339815191526101f47382af49447d8a07e3bd95bd0d56f35241523fbab16101f46000805160206143e68339815191526040516020016127fe959493929190613c9a565b60408051601f1981840301815260a08301825280835230602084015260014201838301526060830186905260808301879052905163c04b8d5960e01b815290925073e592427a0aece92de3edee1f18e0157c058615649063c04b8d5990612869908490600401614225565b602060405180830381600087803b15801561288357600080fd5b505af1158015612897573d6000803e3d6000fd5b505050506040513d601f19601f820116820180604052508101906128bb9190613bab565b92506128c6836128cf565b95945050505050565b6040516370a0823160e01b8152600090819060008051602061433e833981519152906370a0823190612905903090600401613d84565b60206040518083038186803b15801561291d57600080fd5b505afa158015612931573d6000803e3d6000fd5b505050506040513d601f19601f820116820180604052508101906129559190613bab565b60405163ddc1f59d60e01b81529091506000805160206144568339815191529063ddc1f59d9061299390600090600190889082903090600401613f9b565b602060405180830381600087803b1580156129ad57600080fd5b505af11580156129c1573d6000803e3d6000fd5b505050506040513d601f19601f820116820180604052508101906129e59190613bab565b506040516370a0823160e01b8152611b2a90829060008051602061433e833981519152906370a08231906124b3903090600401613d84565b60007382af49447d8a07e3bd95bd0d56f35241523fbab16101f46000805160206143e6833981519152604051602001612a5893929190613c64565b60408051601f198184030181529082905263cdca175360e01b8252915060009073b27308f9f90d607463bb33ea1bebb41c27ce5ab69063cdca175390612aac908590670de0b6b3a764000090600401613f79565b602060405180830381600087803b158015612ac657600080fd5b505af1158015612ada573d6000803e3d6000fd5b505050506040513d601f19601f82011682018060405250810190612afe9190613bab565b604051635e0d443f60e01b815290915060008051602061445683398151915290635e0d443f90612b38906001906000908690600401614030565b60206040518083038186803b158015612b5057600080fd5b505afa158015612b64573d6000803e3d6000fd5b505050506040513d601f19601f82011682018060405250810190612b889190613bab565b6039555050565b6040516370a0823160e01b815260009081906000805160206143e6833981519152906370a0823190612bc5903090600401613d84565b60206040518083038186803b158015612bdd57600080fd5b505afa158015612bf1573d6000803e3d6000fd5b505050506040513d601f19601f82011682018060405250810190612c159190613bab565b604051909150479060009073960ea3e3c7fb317332d990873d354e18d76455909063394747c560e01b90612c579060019060029088908790849060240161404e565b60408051601f198184030181529181526020820180516001600160e01b03166001600160e01b0319909416939093179092529051612c959190613d44565b6000604051808303816000865af19150503d8060008114612cd2576040519150601f19603f3d011682016040523d82523d6000602084013e612cd7565b606091505b50909150612ce790504783611b31565b935050505090565b6000827fea2aa0a1be11a07ed86d755c93467f4f82362b452371d1ba94d1715123511acb60001b8360000151308560800151612d2a87613199565b6001604051602001612d4196959493929190613eb4565b60405160208183030381529060405280519060200120604051602001612d68929190613d60565b60405160208183030381529060405280519060200120905092915050565b60008151604114612dde576040805162461bcd60e51b815260206004820152601f60248201527f45434453413a20696e76616c6964207369676e6174757265206c656e67746800604482015290519081900360640190fd5b60208201516040830151606084015160001a612dfc868285856133ee565b9695505050505050565b6000611b2a611d8584603a54856132c9565b6040516370a0823160e01b8152600090819060008051602061433e833981519152906370a0823190612e4e903090600401613d84565b60206040518083038186803b158015612e6657600080fd5b505afa158015612e7a573d6000803e3d6000fd5b505050506040513d601f19601f82011682018060405250810190612e9e9190613bab565b604051637cbc237360e01b81529091507341671ba1abcba387b9b2b752c205e22e916be6e390637cbc237390612edb906000908790600401613fce565b602060405180830381600087803b158015612ef557600080fd5b505af1158015612f09573d6000803e3d6000fd5b505050506040513d601f19601f82011682018060405250810190612f2d9190613bab565b506040516370a0823160e01b8152736def55d2e18486b9ddfaa075bc4e4ee0b28c154590632e1a7d4d9082906370a0823190612f6d903090600401613d84565b60206040518083038186803b158015612f8557600080fd5b505afa158015612f99573d6000803e3d6000fd5b505050506040513d601f19601f82011682018060405250810190612fbd9190613bab565b6040518263ffffffff1660e01b8152600401612fd99190613d7b565b600060405180830381600087803b158015612ff357600080fd5b505af1158015613007573d6000803e3d6000fd5b50506040516370a0823160e01b8152600092506000805160206144568339815191529150630d2680e960e11b9082906370a082319061304a903090600401613d84565b60206040518083038186803b15801561306257600080fd5b505afa158015613076573d6000803e3d6000fd5b505050506040513d601f19601f8201168201806040525081019061309a9190613bab565b6000806040516024016130af939291906142e6565b60408051601f198184030181529181526020820180516001600160e01b03166001600160e01b03199094169390931790925290516130ed9190613d44565b6000604051808303816000865af19150503d806000811461312a576040519150601f19603f3d011682016040523d82523d6000602084013e61312f565b606091505b50509050806131505760405162461bcd60e51b815260040161036490614134565b6040516370a0823160e01b8152611c8b90839060008051602061433e833981519152906370a08231906124b3903090600401613d84565b6000611b2a611d8584603a5485613303565b6020808201516040808401516060850151608086015160a08701516101a088015194516000976131cb97969101613ce7565b6040516020818303038152906040528051906020012060001c90505b42811015611d6e57806040516020016132009190613d7b565b6040516020818303038152906040528051906020012060001c90506131e7565b600080600083516041141561324b5750505060208101516040820151606083015160001a9190613276565b835160401415613276575050506020810151604082015160ff81901c601b0191906001600160ff1b03165b9193909250565b6000613287613554565b82604051602001808061190160f01b81525060020183815260200182815260200192505050604051602081830303815290604052805190602001209050919050565b6000611c8b6132d88585611b0c565b6108066132fd6132f33a603b5461263390919063ffffffff16565b620753009061255b565b3a613582565b6000611c8b6133128585611b0c565b6108066132fd61332d3a603b5461263390919063ffffffff16565b620aae609061255b565b600061338c826040518060400160405280602081526020017f5361666545524332303a206c6f772d6c6576656c2063616c6c206661696c6564815250856001600160a01b03166135a99092919063ffffffff16565b805190915015610b96578080602001905160208110156133ab57600080fd5b5051610b965760405162461bcd60e51b815260040180806020018281038252602a815260200180614497602a913960400191505060405180910390fd5b3b151590565b60006fa2a8918ca85bafe22016d0b997e4df60600160ff1b038211156134455760405162461bcd60e51b815260040180806020018281038252602281526020018061439e6022913960400191505060405180910390fd5b8360ff16601b148061345a57508360ff16601c145b6134955760405162461bcd60e51b81526004018080602001828103825260228152602001806144346022913960400191505060405180910390fd5b600060018686868660405160008152602001604052604051808581526020018460ff1681526020018381526020018281526020019450505050506020604051602081039080840390855afa1580156134f1573d6000803e3d6000fd5b5050604051601f1901519150506001600160a01b0381166128c6576040805162461bcd60e51b815260206004820152601860248201527745434453413a20696e76616c6964207369676e617475726560401b604482015290519081900360640190fd5b600061357d6000805160206144c18339815191526135706135b8565b6135786135be565b6135c4565b905090565b6000611b2a670de0b6b3a7640000611b2460395461080c3a886125b390919063ffffffff16565b6060611c8b8484600085613626565b60015490565b60025490565b60008383836135d16127aa565b3060405160200180868152602001858152602001848152602001838152602001826001600160a01b03168152602001955050505050506040516020818303038152906040528051906020012090509392505050565b6060824710156136675760405162461bcd60e51b81526004018080602001828103825260268152602001806143c06026913960400191505060405180910390fd5b613670856133e8565b6136c1576040805162461bcd60e51b815260206004820152601d60248201527f416464726573733a2063616c6c20746f206e6f6e2d636f6e7472616374000000604482015290519081900360640190fd5b600080866001600160a01b031685876040518082805190602001908083835b602083106136ff5780518252601f1990920191602091820191016136e0565b6001836020036101000a03801982511681845116808217855250505050505090500191505060006040518083038185875af1925050503d8060008114613761576040519150601f19603f3d011682016040523d82523d6000602084013e613766565b606091505b50915091506121b282828660608315613780575081611b2a565b8251156137905782518084602001fd5b8160405162461bcd60e51b81526004018080602001828103825283818151815260200191508051906020019080838360005b838110156137da5781810151838201526020016137c2565b50505050905090810190601f1680156138075780820380516001836020036101000a031916815260200191505b509250505060405180910390fd5b60405180610140016040528060006001600160a01b0316815260200160006001600160a01b03168152602001600081526020016000815260200160006001600160a01b0316815260200160006001600160a01b03168152602001606081526020016000815260200160008152602001600081525090565b60405180604001604052806002906020820280368337509192915050565b80356001600160a01b0381168114611d6e57600080fd5b600082601f8301126138d1578081fd5b81356001600160401b03808211156138e557fe5b604051601f8301601f19168101602001828111828210171561390357fe5b60405282815284830160200186101561391a578384fd5b82602086016020830137918201602001929092529392505050565b600060208284031215613946578081fd5b611b2a826138aa565b60008060408385031215613961578081fd5b61396a836138aa565b9150613978602084016138aa565b90509250929050565b6000806000806000806000806000806101408b8d0312156139a0578586fd5b6139a98b6138aa565b99506139b760208c016138aa565b98506139c560408c016138aa565b975060608b0135965060808b0135955060a08b013594506139e860c08c016138aa565b935060e08b013592506101008b01356001600160401b0380821115613a0b578384fd5b613a178e838f016138c1565b93506101208d0135915080821115613a2d578283fd5b50613a3a8d828e016138c1565b9150509295989b9194979a5092959850565b600080600080600060a08688031215613a63578081fd5b613a6c866138aa565b9450613a7a602087016138aa565b9350604086013592506060860135915060808601356001600160401b03811115613aa2578182fd5b613aae888289016138c1565b9150509295509295909350565b600080600080600080600060e0888a031215613ad5578283fd5b613ade886138aa565b9650613aec602089016138aa565b9550604088013594506060880135935060808801356001600160401b0380821115613b15578485fd5b613b218b838c016138c1565b945060a08a0135915080821115613b36578384fd5b613b428b838c016138c1565b935060c08a0135915080821115613b57578283fd5b50613b648a828b016138c1565b91505092959891949750929550565b600060208284031215613b84578081fd5b8135611b2a8161432f565b600060208284031215613ba0578081fd5b8151611b2a8161432f565b600060208284031215613bbc578081fd5b5051919050565b60008060408385031215613bd5578182fd5b8235915060208301356001600160401b03811115613bf1578182fd5b613bfd858286016138c1565b9150509250929050565b60008060008060808587031215613c1c578384fd5b5050823594602084013594506040840135936060013592509050565b60008151808452613c508160208601602086016142ff565b601f01601f19169290920160200192915050565b606093841b6001600160601b0319908116825260e89390931b6001600160e81b0319166014820152921b166017820152602b0190565b6001600160601b0319606096871b811682526001600160e81b031960e896871b8116601484015294871b811660178301529290941b909216602b840152921b909116602e82015260420190565b600060018060601b03198860601b1682528660148301528560348301528460548301528351613d1d8160748501602088016142ff565b835190830190613d348160748401602088016142ff565b0160740198975050505050505050565b60008251613d568184602087016142ff565b9190910192915050565b61190160f01b81526002810192909252602282015260420190565b90815260200190565b6001600160a01b0391909116815260200190565b6001600160a01b039384168152919092166020820152604081019190915260600190565b6001600160a01b039889168152969097166020870152604086019490945260608501929092521515608084015260ff1660a083015260c082015260e08101919091526101000190565b6001600160a01b0397881681529590961660208601526040850193909352606084019190915260ff16608083015260a082015260c081019190915260e00190565b6001600160a01b0385811682526020820185905283166040820152608060608201819052600090612dfc90830184613c38565b60608101818460005b6002811015613ea1578151835260209283019290910190600101613e82565b50505060ff831660408301529392505050565b9586526001600160a01b03948516602087015292909316604085015260608401526080830191909152151560a082015260c00190565b9687526001600160a01b03958616602088015260408701949094529184166060860152909216608084015260a083019190915260c082015260e00190565b9485526020850193909352604084019190915260608301526001600160a01b0316608082015260a00190565b600085825284602083015283604083015260806060830152612dfc6080830184613c38565b600060408252613f8c6040830185613c38565b90508260208301529392505050565b600f95860b81529390940b6020840152604083019190915260608201526001600160a01b03909116608082015260a00190565b918252602082015260400190565b60006060820185835260208581850152606060408501528185518084526080860191508287019350845b8181101561402257845183529383019391830191600101614006565b509098975050505050505050565b600f93840b81529190920b6020820152604081019190915260600190565b60ff9586168152938516602085015260408401929092529092166060820152901515608082015260a00190565b6020808252600b908201526a21676f7665726e616e636560a81b604082015260600190565b60208082526010908201526f085cdd5c1c1bdc9d19590b585cdcd95d60821b604082015260600190565b6020808252601b908201527a6572726f722073656e64696e6720746f20676f7665726e616e636560281b604082015260600190565b6020808252601b908201527a31b0b73737ba10393ab7103ab833b930b23290333ab731ba34b7b760291b604082015260600190565b60208082526006908201526521637572766560d01b604082015260600190565b60208082526010908201526f21617070726f7665642d6d6f64756c6560801b604082015260600190565b6020808252600a9082015269217369676e617475726560b01b604082015260600190565b6020808252601b908201527a195c9c9bdc881cd95b991a5b99c81d1bc81cdd1c985d1959da5cdd602a1b604082015260600190565b60208082526009908201526821646561646c696e6560b81b604082015260600190565b602080825260119082015270746f6f206d7563682063616c6c6461746160781b604082015260600190565b600060208252825160a0602084015261424160c0840182613c38565b905060018060a01b0360208501511660408401526040840151606084015260608401516080840152608084015160a08401528091505092915050565b81516001600160a01b03908116825260208084015182169083015260408084015162ffffff16908301526060808401518216908301526080808401519083015260a0838101519083015260c0808401519083015260e09283015116918101919091526101000190565b92835260ff918216602084015216604082015260600190565b60005b8381101561431a578181015183820152602001614302565b83811115614329576000848401525b50505050565b80151581146110b057600080fdfe000000000000000000000000dbf31df14b66535af65aac99c32e9ea844e14501000000000000000000000000ff970a61a04b1ca14834a43f5de4533ebddb5cc8c89efdaa54c0f20c7adf612882df0950f5a951637e0307cdcb4c672f298b8bc645434453413a20696e76616c6964207369676e6174757265202773272076616c7565416464726573733a20696e73756666696369656e742062616c616e636520666f722063616c6c0000000000000000000000002f2a2543b76a4166549f7aab2e75bef0aefc5b0f496e697469616c697a61626c653a20636f6e747261637420697320616c726561647920696e697469616c697a656445434453413a20696e76616c6964207369676e6174757265202776272076616c75650000000000000000000000003e01dd8a5e1fb3481f0f589056b428fc308af0fb536166654d6174683a206d756c7469706c69636174696f6e206f766572666c6f775361666545524332303a204552433230206f7065726174696f6e20646964206e6f7420737563636565648b73c3c69bb8fe3d512ecc4cf759cc79239f7b179b0ffacaa9a75d522b39400f5361666545524332303a20617070726f76652066726f6d206e6f6e2d7a65726f20746f206e6f6e2d7a65726f20616c6c6f77616e6365a26469706673582212202b68b52c65715e2424135aee3870ef5690a35a69916e418545f72b5dd481f7bf64736f6c63430007060033",
  "libraries": {},
  "devdoc": {
    "kind": "dev",
    "methods": {},
    "version": 1
  },
  "userdoc": {
    "kind": "user",
    "methods": {},
    "version": 1
  },
  "storageLayout": {
    "storage": [
      {
        "astId": 652,
        "contract": "contracts/controllers/BadgerBridgeZeroControllerArb.sol:BadgerBridgeZeroControllerArb",
        "label": "_initialized",
        "offset": 0,
        "slot": "0",
        "type": "t_bool"
      },
      {
        "astId": 655,
        "contract": "contracts/controllers/BadgerBridgeZeroControllerArb.sol:BadgerBridgeZeroControllerArb",
        "label": "_initializing",
        "offset": 1,
        "slot": "0",
        "type": "t_bool"
      },
      {
        "astId": 138,
        "contract": "contracts/controllers/BadgerBridgeZeroControllerArb.sol:BadgerBridgeZeroControllerArb",
        "label": "_HASHED_NAME",
        "offset": 0,
        "slot": "1",
        "type": "t_bytes32"
      },
      {
        "astId": 140,
        "contract": "contracts/controllers/BadgerBridgeZeroControllerArb.sol:BadgerBridgeZeroControllerArb",
        "label": "_HASHED_VERSION",
        "offset": 0,
        "slot": "2",
        "type": "t_bytes32"
      },
      {
        "astId": 289,
        "contract": "contracts/controllers/BadgerBridgeZeroControllerArb.sol:BadgerBridgeZeroControllerArb",
        "label": "__gap",
        "offset": 0,
        "slot": "3",
        "type": "t_array(t_uint256)50_storage"
      },
      {
        "astId": 8493,
        "contract": "contracts/controllers/BadgerBridgeZeroControllerArb.sol:BadgerBridgeZeroControllerArb",
        "label": "fee",
        "offset": 0,
        "slot": "53",
        "type": "t_uint256"
      },
      {
        "astId": 8495,
        "contract": "contracts/controllers/BadgerBridgeZeroControllerArb.sol:BadgerBridgeZeroControllerArb",
        "label": "governance",
        "offset": 0,
        "slot": "54",
        "type": "t_address"
      },
      {
        "astId": 8497,
        "contract": "contracts/controllers/BadgerBridgeZeroControllerArb.sol:BadgerBridgeZeroControllerArb",
        "label": "strategist",
        "offset": 0,
        "slot": "55",
        "type": "t_address"
      },
      {
        "astId": 8550,
        "contract": "contracts/controllers/BadgerBridgeZeroControllerArb.sol:BadgerBridgeZeroControllerArb",
        "label": "governanceFee",
        "offset": 0,
        "slot": "56",
        "type": "t_uint256"
      },
      {
        "astId": 8578,
        "contract": "contracts/controllers/BadgerBridgeZeroControllerArb.sol:BadgerBridgeZeroControllerArb",
        "label": "renbtcForOneETHPrice",
        "offset": 0,
        "slot": "57",
        "type": "t_uint256"
      },
      {
        "astId": 8580,
        "contract": "contracts/controllers/BadgerBridgeZeroControllerArb.sol:BadgerBridgeZeroControllerArb",
        "label": "burnFee",
        "offset": 0,
        "slot": "58",
        "type": "t_uint256"
      },
      {
        "astId": 8582,
        "contract": "contracts/controllers/BadgerBridgeZeroControllerArb.sol:BadgerBridgeZeroControllerArb",
        "label": "keeperReward",
        "offset": 0,
        "slot": "59",
        "type": "t_uint256"
      },
      {
        "astId": 8592,
        "contract": "contracts/controllers/BadgerBridgeZeroControllerArb.sol:BadgerBridgeZeroControllerArb",
        "label": "nonces",
        "offset": 0,
        "slot": "60",
        "type": "t_mapping(t_address,t_uint256)"
      },
      {
        "astId": 8594,
        "contract": "contracts/controllers/BadgerBridgeZeroControllerArb.sol:BadgerBridgeZeroControllerArb",
        "label": "PERMIT_DOMAIN_SEPARATOR_WBTC",
        "offset": 0,
        "slot": "61",
        "type": "t_bytes32"
      },
      {
        "astId": 8596,
        "contract": "contracts/controllers/BadgerBridgeZeroControllerArb.sol:BadgerBridgeZeroControllerArb",
        "label": "PERMIT_DOMAIN_SEPARATOR_IBBTC",
        "offset": 0,
        "slot": "62",
        "type": "t_bytes32"
      }
    ],
    "types": {
      "t_address": {
        "encoding": "inplace",
        "label": "address",
        "numberOfBytes": "20"
      },
      "t_array(t_uint256)50_storage": {
        "base": "t_uint256",
        "encoding": "inplace",
        "label": "uint256[50]",
        "numberOfBytes": "1600"
      },
      "t_bool": {
        "encoding": "inplace",
        "label": "bool",
        "numberOfBytes": "1"
      },
      "t_bytes32": {
        "encoding": "inplace",
        "label": "bytes32",
        "numberOfBytes": "32"
      },
      "t_mapping(t_address,t_uint256)": {
        "encoding": "mapping",
        "key": "t_address",
        "label": "mapping(address => uint256)",
        "numberOfBytes": "32",
        "value": "t_uint256"
      },
      "t_uint256": {
        "encoding": "inplace",
        "label": "uint256",
        "numberOfBytes": "32"
      }
    }
  }
}