{
  "_format": "hh-sol-artifact-1",
  "contractName": "ZeroController",
  "sourceName": "contracts/controllers/ZeroController.sol",
  "abi": [
    {
      "anonymous": false,
      "inputs": [
        {
          "indexed": true,
          "internalType": "address",
          "name": "owner",
          "type": "address"
        },
        {
          "indexed": true,
          "internalType": "address",
          "name": "approved",
          "type": "address"
        },
        {
          "indexed": true,
          "internalType": "uint256",
          "name": "tokenId",
          "type": "uint256"
        }
      ],
      "name": "Approval",
      "type": "event"
    },
    {
      "anonymous": false,
      "inputs": [
        {
          "indexed": true,
          "internalType": "address",
          "name": "owner",
          "type": "address"
        },
        {
          "indexed": true,
          "internalType": "address",
          "name": "operator",
          "type": "address"
        },
        {
          "indexed": false,
          "internalType": "bool",
          "name": "approved",
          "type": "bool"
        }
      ],
      "name": "ApprovalForAll",
      "type": "event"
    },
    {
      "anonymous": false,
      "inputs": [
        {
          "indexed": true,
          "internalType": "address",
          "name": "previousOwner",
          "type": "address"
        },
        {
          "indexed": true,
          "internalType": "address",
          "name": "newOwner",
          "type": "address"
        }
      ],
      "name": "OwnershipTransferred",
      "type": "event"
    },
    {
      "anonymous": false,
      "inputs": [
        {
          "indexed": true,
          "internalType": "address",
          "name": "from",
          "type": "address"
        },
        {
          "indexed": true,
          "internalType": "address",
          "name": "to",
          "type": "address"
        },
        {
          "indexed": true,
          "internalType": "uint256",
          "name": "tokenId",
          "type": "uint256"
        }
      ],
      "name": "Transfer",
      "type": "event"
    },
    {
      "inputs": [
        {
          "internalType": "address",
          "name": "to",
          "type": "address"
        },
        {
          "internalType": "uint256",
          "name": "tokenId",
          "type": "uint256"
        }
      ],
      "name": "approve",
      "outputs": [],
      "stateMutability": "nonpayable",
      "type": "function"
    },
    {
      "inputs": [
        {
          "internalType": "address",
          "name": "_token",
          "type": "address"
        },
        {
          "internalType": "address",
          "name": "_strategy",
          "type": "address"
        }
      ],
      "name": "approveStrategy",
      "outputs": [],
      "stateMutability": "nonpayable",
      "type": "function"
    },
    {
      "inputs": [
        {
          "internalType": "address",
          "name": "",
          "type": "address"
        },
        {
          "internalType": "address",
          "name": "",
          "type": "address"
        }
      ],
      "name": "approvedStrategies",
      "outputs": [
        {
          "internalType": "bool",
          "name": "",
          "type": "bool"
        }
      ],
      "stateMutability": "view",
      "type": "function"
    },
    {
      "inputs": [
        {
          "internalType": "address",
          "name": "_owner",
          "type": "address"
        }
      ],
      "name": "balanceOf",
      "outputs": [
        {
          "internalType": "uint256",
          "name": "result",
          "type": "uint256"
        }
      ],
      "stateMutability": "view",
      "type": "function"
    },
    {
      "inputs": [
        {
          "internalType": "address",
          "name": "",
          "type": "address"
        },
        {
          "internalType": "address",
          "name": "",
          "type": "address"
        }
      ],
      "name": "converters",
      "outputs": [
        {
          "internalType": "address",
          "name": "",
          "type": "address"
        }
      ],
      "stateMutability": "view",
      "type": "function"
    },
    {
      "inputs": [
        {
          "internalType": "address",
          "name": "_token",
          "type": "address"
        },
        {
          "internalType": "uint256",
          "name": "_amount",
          "type": "uint256"
        }
      ],
      "name": "earn",
      "outputs": [],
      "stateMutability": "nonpayable",
      "type": "function"
    },
    {
      "inputs": [],
      "name": "gatewayRegistry",
      "outputs": [
        {
          "internalType": "address",
          "name": "",
          "type": "address"
        }
      ],
      "stateMutability": "view",
      "type": "function"
    },
    {
      "inputs": [
        {
          "internalType": "uint256",
          "name": "tokenId",
          "type": "uint256"
        }
      ],
      "name": "getApproved",
      "outputs": [
        {
          "internalType": "address",
          "name": "",
          "type": "address"
        }
      ],
      "stateMutability": "view",
      "type": "function"
    },
    {
      "inputs": [
        {
          "internalType": "address",
          "name": "_strategy",
          "type": "address"
        },
        {
          "internalType": "address",
          "name": "_token",
          "type": "address"
        },
        {
          "internalType": "uint256",
          "name": "parts",
          "type": "uint256"
        }
      ],
      "name": "getExpectedReturn",
      "outputs": [
        {
          "internalType": "uint256",
          "name": "expected",
          "type": "uint256"
        }
      ],
      "stateMutability": "view",
      "type": "function"
    },
    {
      "inputs": [],
      "name": "governance",
      "outputs": [
        {
          "internalType": "address",
          "name": "",
          "type": "address"
        }
      ],
      "stateMutability": "view",
      "type": "function"
    },
    {
      "inputs": [
        {
          "internalType": "address",
          "name": "_strategy",
          "type": "address"
        },
        {
          "internalType": "address",
          "name": "_token",
          "type": "address"
        }
      ],
      "name": "inCaseStrategyTokenGetStuck",
      "outputs": [],
      "stateMutability": "nonpayable",
      "type": "function"
    },
    {
      "inputs": [
        {
          "internalType": "address",
          "name": "_token",
          "type": "address"
        },
        {
          "internalType": "uint256",
          "name": "_amount",
          "type": "uint256"
        }
      ],
      "name": "inCaseTokensGetStuck",
      "outputs": [],
      "stateMutability": "nonpayable",
      "type": "function"
    },
    {
      "inputs": [
        {
          "internalType": "address",
          "name": "_rewards",
          "type": "address"
        }
      ],
      "name": "initialize",
      "outputs": [],
      "stateMutability": "nonpayable",
      "type": "function"
    },
    {
      "inputs": [
        {
          "internalType": "address",
          "name": "owner",
          "type": "address"
        },
        {
          "internalType": "address",
          "name": "operator",
          "type": "address"
        }
      ],
      "name": "isApprovedForAll",
      "outputs": [
        {
          "internalType": "bool",
          "name": "",
          "type": "bool"
        }
      ],
      "stateMutability": "view",
      "type": "function"
    },
    {
      "inputs": [
        {
          "internalType": "address",
          "name": "to",
          "type": "address"
        },
        {
          "internalType": "address",
          "name": "asset",
          "type": "address"
        },
        {
          "internalType": "uint256",
          "name": "amount",
          "type": "uint256"
        },
        {
          "internalType": "uint256",
          "name": "nonce",
          "type": "uint256"
        },
        {
          "internalType": "address",
          "name": "module",
          "type": "address"
        },
        {
          "internalType": "bytes",
          "name": "data",
          "type": "bytes"
        },
        {
          "internalType": "bytes",
          "name": "userSignature",
          "type": "bytes"
        }
      ],
      "name": "loan",
      "outputs": [],
      "stateMutability": "nonpayable",
      "type": "function"
    },
    {
      "inputs": [
        {
          "internalType": "bytes32",
          "name": "",
          "type": "bytes32"
        }
      ],
      "name": "loanStatus",
      "outputs": [
        {
          "internalType": "address",
          "name": "underwriter",
          "type": "address"
        },
        {
          "internalType": "enum ZeroLib.LoanStatusCode",
          "name": "status",
          "type": "uint8"
        }
      ],
      "stateMutability": "view",
      "type": "function"
    },
    {
      "inputs": [
        {
          "internalType": "address",
          "name": "",
          "type": "address"
        }
      ],
      "name": "loaned",
      "outputs": [
        {
          "internalType": "uint256",
          "name": "",
          "type": "uint256"
        }
      ],
      "stateMutability": "view",
      "type": "function"
    },
    {
      "inputs": [
        {
          "internalType": "address",
          "name": "underwriter",
          "type": "address"
        }
      ],
      "name": "lockFor",
      "outputs": [
        {
          "internalType": "contract ZeroUnderwriterLock",
          "name": "result",
          "type": "address"
        }
      ],
      "stateMutability": "view",
      "type": "function"
    },
    {
      "inputs": [],
      "name": "max",
      "outputs": [
        {
          "internalType": "uint256",
          "name": "",
          "type": "uint256"
        }
      ],
      "stateMutability": "view",
      "type": "function"
    },
    {
      "inputs": [
        {
          "internalType": "address",
          "name": "underwriter",
          "type": "address"
        },
        {
          "internalType": "address",
          "name": "vault",
          "type": "address"
        }
      ],
      "name": "mint",
      "outputs": [],
      "stateMutability": "nonpayable",
      "type": "function"
    },
    {
      "inputs": [
        {
          "internalType": "address",
          "name": "",
          "type": "address"
        }
      ],
      "name": "moduleApproved",
      "outputs": [
        {
          "internalType": "bool",
          "name": "",
          "type": "bool"
        }
      ],
      "stateMutability": "view",
      "type": "function"
    },
    {
      "inputs": [],
      "name": "name",
      "outputs": [
        {
          "internalType": "string",
          "name": "",
          "type": "string"
        }
      ],
      "stateMutability": "view",
      "type": "function"
    },
    {
      "inputs": [],
      "name": "onesplit",
      "outputs": [
        {
          "internalType": "address",
          "name": "",
          "type": "address"
        }
      ],
      "stateMutability": "view",
      "type": "function"
    },
    {
      "inputs": [],
      "name": "owner",
      "outputs": [
        {
          "internalType": "address",
          "name": "",
          "type": "address"
        }
      ],
      "stateMutability": "view",
      "type": "function"
    },
    {
      "inputs": [
        {
          "internalType": "uint256",
          "name": "tokenId",
          "type": "uint256"
        }
      ],
      "name": "ownerOf",
      "outputs": [
        {
          "internalType": "address",
          "name": "",
          "type": "address"
        }
      ],
      "stateMutability": "view",
      "type": "function"
    },
    {
      "inputs": [],
      "name": "renounceOwnership",
      "outputs": [],
      "stateMutability": "nonpayable",
      "type": "function"
    },
    {
      "inputs": [
        {
          "internalType": "address",
          "name": "",
          "type": "address"
        }
      ],
      "name": "repaid",
      "outputs": [
        {
          "internalType": "uint256",
          "name": "",
          "type": "uint256"
        }
      ],
      "stateMutability": "view",
      "type": "function"
    },
    {
      "inputs": [
        {
          "internalType": "address",
          "name": "underwriter",
          "type": "address"
        },
        {
          "internalType": "address",
          "name": "to",
          "type": "address"
        },
        {
          "internalType": "address",
          "name": "asset",
          "type": "address"
        },
        {
          "internalType": "uint256",
          "name": "amount",
          "type": "uint256"
        },
        {
          "internalType": "uint256",
          "name": "actualAmount",
          "type": "uint256"
        },
        {
          "internalType": "uint256",
          "name": "nonce",
          "type": "uint256"
        },
        {
          "internalType": "address",
          "name": "module",
          "type": "address"
        },
        {
          "internalType": "bytes32",
          "name": "nHash",
          "type": "bytes32"
        },
        {
          "internalType": "bytes",
          "name": "data",
          "type": "bytes"
        },
        {
          "internalType": "bytes",
          "name": "signature",
          "type": "bytes"
        }
      ],
      "name": "repay",
      "outputs": [],
      "stateMutability": "nonpayable",
      "type": "function"
    },
    {
      "inputs": [
        {
          "internalType": "address",
          "name": "_token",
          "type": "address"
        },
        {
          "internalType": "address",
          "name": "_strategy",
          "type": "address"
        }
      ],
      "name": "revokeStrategy",
      "outputs": [],
      "stateMutability": "nonpayable",
      "type": "function"
    },
    {
      "inputs": [],
      "name": "rewards",
      "outputs": [
        {
          "internalType": "address",
          "name": "",
          "type": "address"
        }
      ],
      "stateMutability": "view",
      "type": "function"
    },
    {
      "inputs": [
        {
          "internalType": "address",
          "name": "from",
          "type": "address"
        },
        {
          "internalType": "address",
          "name": "to",
          "type": "address"
        },
        {
          "internalType": "uint256",
          "name": "tokenId",
          "type": "uint256"
        }
      ],
      "name": "safeTransferFrom",
      "outputs": [],
      "stateMutability": "nonpayable",
      "type": "function"
    },
    {
      "inputs": [
        {
          "internalType": "address",
          "name": "from",
          "type": "address"
        },
        {
          "internalType": "address",
          "name": "to",
          "type": "address"
        },
        {
          "internalType": "uint256",
          "name": "tokenId",
          "type": "uint256"
        },
        {
          "internalType": "bytes",
          "name": "_data",
          "type": "bytes"
        }
      ],
      "name": "safeTransferFrom",
      "outputs": [],
      "stateMutability": "nonpayable",
      "type": "function"
    },
    {
      "inputs": [
        {
          "internalType": "address",
          "name": "operator",
          "type": "address"
        },
        {
          "internalType": "bool",
          "name": "approved",
          "type": "bool"
        }
      ],
      "name": "setApprovalForAll",
      "outputs": [],
      "stateMutability": "nonpayable",
      "type": "function"
    },
    {
      "inputs": [
        {
          "internalType": "address",
          "name": "_input",
          "type": "address"
        },
        {
          "internalType": "address",
          "name": "_output",
          "type": "address"
        },
        {
          "internalType": "address",
          "name": "_converter",
          "type": "address"
        }
      ],
      "name": "setConverter",
      "outputs": [],
      "stateMutability": "nonpayable",
      "type": "function"
    },
    {
      "inputs": [
        {
          "internalType": "address",
          "name": "_governance",
          "type": "address"
        }
      ],
      "name": "setGovernance",
      "outputs": [],
      "stateMutability": "nonpayable",
      "type": "function"
    },
    {
      "inputs": [
        {
          "internalType": "address",
          "name": "_onesplit",
          "type": "address"
        }
      ],
      "name": "setOneSplit",
      "outputs": [],
      "stateMutability": "nonpayable",
      "type": "function"
    },
    {
      "inputs": [
        {
          "internalType": "address",
          "name": "_rewards",
          "type": "address"
        }
      ],
      "name": "setRewards",
      "outputs": [],
      "stateMutability": "nonpayable",
      "type": "function"
    },
    {
      "inputs": [
        {
          "internalType": "uint256",
          "name": "_split",
          "type": "uint256"
        }
      ],
      "name": "setSplit",
      "outputs": [],
      "stateMutability": "nonpayable",
      "type": "function"
    },
    {
      "inputs": [
        {
          "internalType": "address",
          "name": "_strategist",
          "type": "address"
        }
      ],
      "name": "setStrategist",
      "outputs": [],
      "stateMutability": "nonpayable",
      "type": "function"
    },
    {
      "inputs": [
        {
          "internalType": "address",
          "name": "_token",
          "type": "address"
        },
        {
          "internalType": "address",
          "name": "_strategy",
          "type": "address"
        }
      ],
      "name": "setStrategy",
      "outputs": [],
      "stateMutability": "nonpayable",
      "type": "function"
    },
    {
      "inputs": [
        {
          "internalType": "address",
          "name": "_token",
          "type": "address"
        },
        {
          "internalType": "address",
          "name": "_vault",
          "type": "address"
        }
      ],
      "name": "setVault",
      "outputs": [],
      "stateMutability": "nonpayable",
      "type": "function"
    },
    {
      "inputs": [],
      "name": "split",
      "outputs": [
        {
          "internalType": "uint256",
          "name": "",
          "type": "uint256"
        }
      ],
      "stateMutability": "view",
      "type": "function"
    },
    {
      "inputs": [
        {
          "internalType": "address",
          "name": "",
          "type": "address"
        }
      ],
      "name": "strategies",
      "outputs": [
        {
          "internalType": "address",
          "name": "",
          "type": "address"
        }
      ],
      "stateMutability": "view",
      "type": "function"
    },
    {
      "inputs": [],
      "name": "strategist",
      "outputs": [
        {
          "internalType": "address",
          "name": "",
          "type": "address"
        }
      ],
      "stateMutability": "view",
      "type": "function"
    },
    {
      "inputs": [
        {
          "internalType": "bytes4",
          "name": "interfaceId",
          "type": "bytes4"
        }
      ],
      "name": "supportsInterface",
      "outputs": [
        {
          "internalType": "bool",
          "name": "",
          "type": "bool"
        }
      ],
      "stateMutability": "view",
      "type": "function"
    },
    {
      "inputs": [],
      "name": "symbol",
      "outputs": [
        {
          "internalType": "string",
          "name": "",
          "type": "string"
        }
      ],
      "stateMutability": "view",
      "type": "function"
    },
    {
      "inputs": [
        {
          "internalType": "uint256",
          "name": "tokenId",
          "type": "uint256"
        }
      ],
      "name": "tokenURI",
      "outputs": [
        {
          "internalType": "string",
          "name": "",
          "type": "string"
        }
      ],
      "stateMutability": "view",
      "type": "function"
    },
    {
      "inputs": [
        {
          "internalType": "address",
          "name": "from",
          "type": "address"
        },
        {
          "internalType": "address",
          "name": "to",
          "type": "address"
        },
        {
          "internalType": "uint256",
          "name": "tokenId",
          "type": "uint256"
        }
      ],
      "name": "transferFrom",
      "outputs": [],
      "stateMutability": "nonpayable",
      "type": "function"
    },
    {
      "inputs": [
        {
          "internalType": "address",
          "name": "newOwner",
          "type": "address"
        }
      ],
      "name": "transferOwnership",
      "outputs": [],
      "stateMutability": "nonpayable",
      "type": "function"
    },
    {
      "inputs": [
        {
          "internalType": "address",
          "name": "",
          "type": "address"
        }
      ],
      "name": "vaults",
      "outputs": [
        {
          "internalType": "address",
          "name": "",
          "type": "address"
        }
      ],
      "stateMutability": "view",
      "type": "function"
    },
    {
      "inputs": [
        {
          "internalType": "address",
          "name": "_token",
          "type": "address"
        },
        {
          "internalType": "uint256",
          "name": "_amount",
          "type": "uint256"
        }
      ],
      "name": "withdraw",
      "outputs": [],
      "stateMutability": "nonpayable",
      "type": "function"
    },
    {
      "inputs": [
        {
          "internalType": "address",
          "name": "_token",
          "type": "address"
        }
      ],
      "name": "withdrawAll",
      "outputs": [],
      "stateMutability": "nonpayable",
      "type": "function"
    },
    {
      "inputs": [
        {
          "internalType": "address",
          "name": "_strategy",
          "type": "address"
        },
        {
          "internalType": "address",
          "name": "_token",
          "type": "address"
        },
        {
          "internalType": "uint256",
          "name": "parts",
          "type": "uint256"
        }
      ],
      "name": "yearn",
      "outputs": [],
      "stateMutability": "nonpayable",
      "type": "function"
    }
  ],
  "bytecode": "0x60806040526101f460085534801561001657600080fd5b50615185806100266000396000f3fe608060405234801561001057600080fd5b50600436106103275760003560e01c806395d89b41116101b8578063c7b9d53011610104578063ec38a862116100a2578063f3fef3a31161007c578063f3fef3a3146107df578063f712adbb146107f2578063f765417614610805578063fa09e6301461080e57600080fd5b8063ec38a862146107a6578063ee1fe2ad146107b9578063f2fde38b146107cc57600080fd5b8063d693452e116100de578063d693452e14610708578063e4f2494d14610723578063e6b512d414610757578063e985e9c51461076a57600080fd5b8063c7b9d530146106cf578063c87b56dd146106e2578063ccd06318146106f557600080fd5b8063ab033ea911610171578063baf11db81161014b578063baf11db814610676578063c494448e14610696578063c4d66de8146106a9578063c6d758cb146106bc57600080fd5b8063ab033ea91461063d578063b02bf4b914610650578063b88d4fde1461066357600080fd5b806395d89b41146105985780639e7e0e83146105a05780639ec5a894146105c0578063a1578b6a146105d3578063a22cb46514610601578063a622ee7c1461061457600080fd5b80635aa6e6751161027757806370a082311161023057806372cb5d971161020a57806372cb5d971461051e5780638c509eae146105315780638da1df4d146105745780638da5cb5b1461058757600080fd5b806370a08231146104f0578063714ccf7b14610503578063715018a61461051657600080fd5b80635aa6e6751461047a5780636352211e1461048d578063674e694f146104a05780636ac5db19146104b35780636c285cc6146104ca5780636dcd64e5146104dd57600080fd5b80631fe4a686116102e457806339ebf823116102be57806339ebf823146104185780633b36c7f81461044157806342842e0e14610454578063590bbb601461046757600080fd5b80631fe4a686146103cf57806323b872dd146103e25780632c326109146103f557600080fd5b806301ffc9a71461032c57806304209f481461035457806306fdde0314610369578063081812fc1461037e578063095ea7b3146103a9578063197baa6d146103bc575b600080fd5b61033f61033a366004613b42565b610821565b60405190151581526020015b60405180910390f35b610367610362366004613956565b610873565b005b610371610d6b565b60405161034b9190613e0c565b61039161038c366004613b29565b610dfd565b6040516001600160a01b03909116815260200161034b565b6103676103b7366004613ae0565b610e92565b6103676103ca366004613803565b610fa8565b600154610391906001600160a01b031681565b6103676103f0366004613956565b611047565b61033f6104033660046137c9565b60d56020526000908152604090205460ff1681565b6103916104263660046137c9565b6005602052600090815260409020546001600160a01b031681565b61036761044f366004613887565b611078565b610367610462366004613956565b611342565b610367610475366004613803565b61135d565b600054610391906001600160a01b031681565b61039161049b366004613b29565b6113b8565b6103676104ae366004613b29565b61142f565b6104bc61271081565b60405190815260200161034b565b6103676104d8366004613a03565b61145e565b6104bc6104eb366004613956565b611809565b6104bc6104fe3660046137c9565b6119a7565b610367610511366004613803565b6119b2565b610367611a6f565b61036761052c366004613803565b611b13565b61056661053f366004613b29565b60d6602052600090815260409020546001600160a01b03811690600160a01b900460ff1682565b60405161034b929190613dac565b6103676105823660046137c9565b611c5c565b603c546001600160a01b0316610391565b610371611ca8565b6104bc6105ae3660046137c9565b60d46020526000908152604090205481565b600354610391906001600160a01b031681565b61033f6105e1366004613803565b600760209081526000928352604080842090915290825290205460ff1681565b61036761060f366004613ab2565b611cb7565b6103916106223660046137c9565b6004602052600090815260409020546001600160a01b031681565b61036761064b3660046137c9565b611d7c565b61036761065e366004613ae0565b611dc8565b610367610671366004613997565b611fa6565b6104bc6106843660046137c9565b60d36020526000908152604090205481565b6103676106a4366004613803565b611fde565b6103676106b73660046137c9565b61203c565b6103676106ca366004613ae0565b61214c565b6103676106dd3660046137c9565b6121a3565b6103716106f0366004613b29565b6121ef565b61036761070336600461383c565b6122d7565b61039173e80d347df1209a76dd9d2319d62912ba98c54ddd81565b610391610731366004613803565b60066020908152600092835260408084209091529082529020546001600160a01b031681565b6103916107653660046137c9565b612353565b61033f610778366004613803565b6001600160a01b03918216600090815260a56020908152604080832093909416825291909152205460ff1690565b6103676107b43660046137c9565b61236e565b6103676107c7366004613803565b6123ba565b6103676107da3660046137c9565b612477565b6103676107ed366004613ae0565b612592565b600254610391906001600160a01b031681565b6104bc60085481565b61036761081c3660046137c9565b6125ee565b60006001600160e01b031982166380ac58cd60e01b148061085257506001600160e01b03198216635b5e139f60e01b145b8061086d57506301ffc9a760e01b6001600160e01b03198316145b92915050565b6001546001600160a01b031633148061089657506000546001600160a01b031633145b6108bb5760405162461bcd60e51b81526004016108b290613e96565b60405180910390fd5b6040516370a0823160e01b81523060048201526000906001600160a01b038416906370a082319060240160206040518083038186803b1580156108fd57600080fd5b505afa158015610911573d6000803e3d6000fd5b505050506040513d601f19601f820116820180604052508101906109359190613b7c565b6040516351cff8d960e01b81526001600160a01b038581166004830152919250908516906351cff8d990602401600060405180830381600087803b15801561097c57600080fd5b505af1158015610990573d6000803e3d6000fd5b50506040516370a0823160e01b8152306004820152600092506001600160a01b03861691506370a082319060240160206040518083038186803b1580156109d657600080fd5b505afa1580156109ea573d6000803e3d6000fd5b505050506040513d601f19601f82011682018060405250810190610a0e9190613b7c565b905081811115610d64576000610a248284612691565b90506000866001600160a01b0316631f1fcd516040518163ffffffff1660e01b815260040160206040518083038186803b158015610a6157600080fd5b505afa158015610a75573d6000803e3d6000fd5b505050506040513d601f19601f82011682018060405250810190610a9991906137e6565b6040516370a0823160e01b81523060048201529091506060906000906001600160a01b038416906370a082319060240160206040518083038186803b158015610ae157600080fd5b505afa158015610af5573d6000803e3d6000fd5b505050506040513d601f19601f82011682018060405250810190610b199190613b7c565b600254909650610b37906001600160a01b038a81169116600061269d565b600254610b51906001600160a01b038a811691168661269d565b60025460405163085e2c5b60e01b81526001600160a01b038a81166004830152858116602483015260448201879052606482018a9052600060848301529091169063085e2c5b9060a40160006040518083038186803b158015610bb357600080fd5b505afa158015610bc7573d6000803e3d6000fd5b505050506040513d6000823e601f3d908101601f19168201604052610bef9190810190613b95565b600254604051637153a8af60e11b81529194509192506001600160a01b039091169063e2a7515e90610c30908b908790899087908990600090600401613cf8565b602060405180830381600087803b158015610c4a57600080fd5b505af1158015610c5e573d6000803e3d6000fd5b505050506040513d601f19601f82011682018060405250810190610c829190613b7c565b506040516370a0823160e01b81523060048201526001600160a01b038416906370a082319060240160206040518083038186803b158015610cc257600080fd5b505afa158015610cd6573d6000803e3d6000fd5b505050506040513d601f19601f82011682018060405250810190610cfa9190613b7c565b945085851115610d5f57610d0e8587612691565b93506000610d33612710610d2d600854886127f490919063ffffffff16565b90612800565b9050610d438461065e8784612691565b600354610d5d906001600160a01b0386811691168361280c565b505b505050505b5050505050565b606060a08054610d7a90614032565b80601f0160208091040260200160405190810160405280929190818152602001828054610da690614032565b8015610df35780601f10610dc857610100808354040283529160200191610df3565b820191906000526020600020905b815481529060010190602001808311610dd657829003601f168201915b5050505050905090565b600081815260a260205260408120546001600160a01b0316610e765760405162461bcd60e51b815260206004820152602c60248201527f4552433732313a20617070726f76656420717565727920666f72206e6f6e657860448201526b34b9ba32b73a103a37b5b2b760a11b60648201526084016108b2565b50600090815260a460205260409020546001600160a01b031690565b6000610e9d826113b8565b9050806001600160a01b0316836001600160a01b03161415610f0b5760405162461bcd60e51b815260206004820152602160248201527f4552433732313a20617070726f76616c20746f2063757272656e74206f776e656044820152603960f91b60648201526084016108b2565b336001600160a01b0382161480610f275750610f278133610778565b610f995760405162461bcd60e51b815260206004820152603860248201527f4552433732313a20617070726f76652063616c6c6572206973206e6f74206f7760448201527f6e6572206e6f7220617070726f76656420666f7220616c6c000000000000000060648201526084016108b2565b610fa3838361283c565b505050565b6001546001600160a01b0316331480610fcb57506000546001600160a01b031633145b610fe75760405162461bcd60e51b81526004016108b290613e96565b6040516351cff8d960e01b81526001600160a01b0382811660048301528316906351cff8d9906024015b600060405180830381600087803b15801561102b57600080fd5b505af115801561103f573d6000803e3d6000fd5b505050505050565b61105133826128aa565b61106d5760405162461bcd60e51b81526004016108b290613f09565b610fa38383836129a1565b6040805160c0810182526001600160a01b03808c1682528a8116602083015291810189905260608101879052908516608082015260a0810183905260006001600082815260d66020526040902054600160a01b900460ff1660028111156110e1576110e16140c8565b1461112e5760405162461bcd60e51b815260206004820152601f60248201527f6c6f616e206973206e6f7420696e2074686520554e504149442073746174650060448201526064016108b2565b61113733612353565b6001600160a01b0316635583376e896040518263ffffffff1660e01b815260040161116491815260200190565b600060405180830381600087803b15801561117e57600080fd5b505af1158015611192573d6000803e3d6000fd5b50508351604051633f63a45560e21b81526001600160a01b038a16935063fd8e915492506111cb91908e908d908d908b90600401613d72565b600060405180830381600087803b1580156111e557600080fd5b505af11580156111f9573d6000803e3d6000fd5b5050604051631b95e30560e01b81526001600160a01b038d16600482015273e80d347df1209a76dd9d2319d62912ba98c54ddd9250631b95e305915060240160206040518083038186803b15801561125057600080fd5b505afa158015611264573d6000803e3d6000fd5b505050506040513d601f19601f8201168201806040525081019061128891906137e6565b6001600160a01b031663159ab14d88866040516020016112a9929190613f5a565b604051602081830303815290604052805190602001208a88876040518563ffffffff1660e01b81526004016112e19493929190613de7565b602060405180830381600087803b1580156112fb57600080fd5b505af115801561130f573d6000803e3d6000fd5b505050506040513d601f19601f820116820180604052508101906113339190613b7c565b50505050505050505050505050565b610fa383838360405180602001604052806000815250611fa6565b6000546001600160a01b031633146113875760405162461bcd60e51b81526004016108b290613e96565b6001600160a01b0391821660009081526007602090815260408083209390941682529190915220805460ff19169055565b600081815260a260205260408120546001600160a01b03168061086d5760405162461bcd60e51b815260206004820152602960248201527f4552433732313a206f776e657220717565727920666f72206e6f6e657869737460448201526832b73a103a37b5b2b760b91b60648201526084016108b2565b6000546001600160a01b031633146114595760405162461bcd60e51b81526004016108b290613e96565b600855565b600061147a61146c33612353565b6001600160a01b03166113b8565b6001600160a01b031614156114d15760405162461bcd60e51b815260206004820152601d60248201527f6d7573742062652063616c6c656420627920756e64657277726974657200000060448201526064016108b2565b6040805160c0810182526001600160a01b038981168083528982166020840152928201889052606082018790528516608082015260a0810184905290611518600084612b44565b6001600160a01b0316146115625760405162461bcd60e51b8152602060048201526011602482015270696e76616c6964207369676e617475726560781b60448201526064016108b2565b8051606082015160405160009261159592909160200160609290921b6001600160601b0319168252601482015260340190565b60408051601f198184030181529190528051602090910120905060008082815260d66020526040902054600160a01b900460ff1660028111156115da576115da6140c8565b146116275760405162461bcd60e51b815260206004820152601760248201527f616c7265616479207370656e742074686973206c6f616e00000000000000000060448201526064016108b2565b604080518082019091523381526020810160019052600082815260d660209081526040909120825181546001600160a01b039091166001600160a01b031982168117835592840151919283916001600160a81b03191617600160a01b836002811115611695576116956140c8565b021790555090505060006116a833612353565b60808401516040516311ae7b7d60e21b81526001600160a01b039182166004820152602481018490529116906346b9edf490604401600060405180830381600087803b1580156116f757600080fd5b505af115801561170b573d6000803e3d6000fd5b505050506020838101516001600160a01b039081166000908152600590925260409182902054915163014c177960e71b815288821660048201526024810184905291169063a60bbc8090604401600060405180830381600087803b15801561177257600080fd5b505af1158015611786573d6000803e3d6000fd5b505084516020860151606087015160a0880151604051631639743b60e01b81526001600160a01b038d169650631639743b95506117cb94939288929091600401613d72565b600060405180830381600087803b1580156117e557600080fd5b505af11580156117f9573d6000803e3d6000fd5b5050505050505050505050505050565b6040516370a0823160e01b81526001600160a01b03848116600483015260009182918516906370a082319060240160206040518083038186803b15801561184f57600080fd5b505afa158015611863573d6000803e3d6000fd5b505050506040513d601f19601f820116820180604052508101906118879190613b7c565b90506000856001600160a01b0316631f1fcd516040518163ffffffff1660e01b815260040160206040518083038186803b1580156118c457600080fd5b505afa1580156118d8573d6000803e3d6000fd5b505050506040513d601f19601f820116820180604052508101906118fc91906137e6565b60025460405163085e2c5b60e01b81526001600160a01b038881166004830152808416602483015260448201869052606482018890526000608483015292935091169063085e2c5b9060a40160006040518083038186803b15801561196057600080fd5b505afa158015611974573d6000803e3d6000fd5b505050506040513d6000823e601f3d908101601f1916820160405261199c9190810190613b95565b509695505050505050565b600061086d82612bfa565b6001546001600160a01b03163314806119d557506000546001600160a01b031633145b6119f15760405162461bcd60e51b81526004016108b290613e1f565b6001600160a01b038281166000908152600460205260409020541615611a415760405162461bcd60e51b81526020600482015260056024820152641d985d5b1d60da1b60448201526064016108b2565b6001600160a01b03918216600090815260046020526040902080546001600160a01b03191691909216179055565b603c546001600160a01b03163314611ac95760405162461bcd60e51b815260206004820181905260248201527f4f776e61626c653a2063616c6c6572206973206e6f7420746865206f776e657260448201526064016108b2565b603c546040516000916001600160a01b0316907f8be0079c531659141344cd1fd0a4f28419497f9722a3daafe3b4186f6b6457e0908390a3603c80546001600160a01b0319169055565b6001546001600160a01b0316331480611b3657506000546001600160a01b031633145b611b525760405162461bcd60e51b81526004016108b290613e1f565b6001600160a01b0380831660009081526007602090815260408083209385168352929052205460ff161515600114611bb85760405162461bcd60e51b815260206004820152600960248201526808585c1c1c9bdd995960ba1b60448201526064016108b2565b6001600160a01b03808316600090815260056020526040902054168015611c2d57806001600160a01b031663853828b66040518163ffffffff1660e01b8152600401600060405180830381600087803b158015611c1457600080fd5b505af1158015611c28573d6000803e3d6000fd5b505050505b506001600160a01b03918216600090815260056020526040902080546001600160a01b03191691909216179055565b6000546001600160a01b03163314611c865760405162461bcd60e51b81526004016108b290613e96565b600280546001600160a01b0319166001600160a01b0392909216919091179055565b606060a18054610d7a90614032565b6001600160a01b038216331415611d105760405162461bcd60e51b815260206004820152601960248201527f4552433732313a20617070726f766520746f2063616c6c65720000000000000060448201526064016108b2565b33600081815260a5602090815260408083206001600160a01b03871680855290835292819020805460ff191686151590811790915590519081529192917f17307eab39ab6107e8899845ad3d59bd9653f200f220920489ca2b5937696c31910160405180910390a35050565b6000546001600160a01b03163314611da65760405162461bcd60e51b81526004016108b290613e96565b600080546001600160a01b0319166001600160a01b0392909216919091179055565b6001600160a01b038083166000908152600560209081526040808320548151631f1fcd5160e01b815291519416938492631f1fcd519260048082019391829003018186803b158015611e1957600080fd5b505afa158015611e2d573d6000803e3d6000fd5b505050506040513d601f19601f82011682018060405250810190611e5191906137e6565b9050836001600160a01b0316816001600160a01b031614611f39576001600160a01b038085166000818152600660209081526040808320868616845290915290205490911690611ea290828661280c565b60405163def2489b60e01b81526001600160a01b03848116600483015282169063def2489b90602401602060405180830381600087803b158015611ee557600080fd5b505af1158015611ef9573d6000803e3d6000fd5b505050506040513d601f19601f82011682018060405250810190611f1d9190613b7c565b9350611f336001600160a01b038316848661280c565b50611f4d565b611f4d6001600160a01b038516838561280c565b816001600160a01b031663d0e30db06040518163ffffffff1660e01b8152600401600060405180830381600087803b158015611f8857600080fd5b505af1158015611f9c573d6000803e3d6000fd5b5050505050505050565b611fb033836128aa565b611fcc5760405162461bcd60e51b81526004016108b290613f09565b611fd884848484612c84565b50505050565b6000546001600160a01b031633146120085760405162461bcd60e51b81526004016108b290613e96565b6001600160a01b0391821660009081526007602090815260408083209390941682529190915220805460ff19166001179055565b612044612cb7565b60008054336001600160a01b03199182168117909255600180548216909217909155600280547350fda034c0ce7a8f7efdaebda7aa7ca21cc1267e908316179055600380549091166001600160a01b0383161790556120e76040518060400160405280600e81526020016d2d32b937a1b7b73a3937b63632b960911b815250604051806040016040528060068152602001655a575249544560d01b815250612d65565b612124604051806020016120fa906136a3565b601f19828203810183526060601f90920116908101604052602480825261512c6020830139612dfa565b60d280546001600160a01b0319166001600160a01b039290921691909117905550600060d755565b6001546001600160a01b031633148061216f57506000546001600160a01b031633145b61218b5760405162461bcd60e51b81526004016108b290613e96565b61219f6001600160a01b038316338361280c565b5050565b6000546001600160a01b031633146121cd5760405162461bcd60e51b81526004016108b290613e96565b600180546001600160a01b0319166001600160a01b0392909216919091179055565b600081815260a260205260409020546060906001600160a01b031661226e5760405162461bcd60e51b815260206004820152602f60248201527f4552433732314d657461646174613a2055524920717565727920666f72206e6f60448201526e3732bc34b9ba32b73a103a37b5b2b760891b60648201526084016108b2565b600061228560408051602081019091526000815290565b905060008151116122a557604051806020016040528060008152506122d0565b806122af84612e8c565b6040516020016122c0929190613c96565b6040516020818303038152906040525b9392505050565b6001546001600160a01b03163314806122fa57506000546001600160a01b031633145b6123165760405162461bcd60e51b81526004016108b290613e1f565b6001600160a01b03928316600090815260066020908152604080832094861683529390529190912080546001600160a01b03191691909216179055565b60d25460009061086d9030906001600160a01b031684612f8a565b6000546001600160a01b031633146123985760405162461bcd60e51b81526004016108b290613e96565b600380546001600160a01b0319166001600160a01b0392909216919091179055565b60d2546040516001600160601b0319606085901b166020820152600091612405916001600160a01b039091169060340160405160208183030381529060405280519060200120612fa9565b60405163189acdbd60e31b81526001600160a01b0384811660048301529192509082169063c4d66de890602401600060405180830381600087803b15801561244c57600080fd5b505af1158015612460573d6000803e3d6000fd5b50505050610fa333826001600160a01b0316612fc9565b603c546001600160a01b031633146124d15760405162461bcd60e51b815260206004820181905260248201527f4f776e61626c653a2063616c6c6572206973206e6f7420746865206f776e657260448201526064016108b2565b6001600160a01b0381166125365760405162461bcd60e51b815260206004820152602660248201527f4f776e61626c653a206e6577206f776e657220697320746865207a65726f206160448201526564647265737360d01b60648201526084016108b2565b603c546040516001600160a01b038084169216907f8be0079c531659141344cd1fd0a4f28419497f9722a3daafe3b4186f6b6457e090600090a3603c80546001600160a01b0319166001600160a01b0392909216919091179055565b6001600160a01b038281166000908152600460205260409020541633146125e45760405162461bcd60e51b8152602060048201526006602482015265085d985d5b1d60d21b60448201526064016108b2565b61219f828261310b565b6001546001600160a01b031633148061261157506000546001600160a01b031633145b61262d5760405162461bcd60e51b81526004016108b290613e1f565b6001600160a01b0380821660009081526005602052604080822054815163429c145b60e11b8152915193169263853828b69260048084019391929182900301818387803b15801561267d57600080fd5b505af1158015610d64573d6000803e3d6000fd5b60006122d08284613fef565b8015806127265750604051636eb1769f60e11b81523060048201526001600160a01b03838116602483015284169063dd62ed3e9060440160206040518083038186803b1580156126ec57600080fd5b505afa158015612700573d6000803e3d6000fd5b505050506040513d601f19601f820116820180604052508101906127249190613b7c565b155b6127915760405162461bcd60e51b815260206004820152603660248201527f5361666545524332303a20617070726f76652066726f6d206e6f6e2d7a65726f60448201527520746f206e6f6e2d7a65726f20616c6c6f77616e636560501b60648201526084016108b2565b6040516001600160a01b038316602482015260448101829052610fa390849063095ea7b360e01b906064015b60408051601f198184030181529190526020810180516001600160e01b03166001600160e01b03199093169290921790915261314b565b60006122d08284613fd0565b60006122d08284613fbc565b6040516001600160a01b038316602482015260448101829052610fa390849063a9059cbb60e01b906064016127bd565b600081815260a46020526040902080546001600160a01b0319166001600160a01b0384169081179091558190612871826113b8565b6001600160a01b03167f8c5be1e5ebec7d5bd14f71427d1e84f3dd0314c0f7b2291e5b200ac8c7c3b92560405160405180910390a45050565b600081815260a260205260408120546001600160a01b03166129235760405162461bcd60e51b815260206004820152602c60248201527f4552433732313a206f70657261746f7220717565727920666f72206e6f6e657860448201526b34b9ba32b73a103a37b5b2b760a11b60648201526084016108b2565b600061292e836113b8565b9050806001600160a01b0316846001600160a01b031614806129695750836001600160a01b031661295e84610dfd565b6001600160a01b0316145b8061299957506001600160a01b03808216600090815260a5602090815260408083209388168352929052205460ff165b949350505050565b826001600160a01b03166129b4826113b8565b6001600160a01b031614612a1c5760405162461bcd60e51b815260206004820152602960248201527f4552433732313a207472616e73666572206f6620746f6b656e2074686174206960448201526839903737ba1037bbb760b91b60648201526084016108b2565b6001600160a01b038216612a7e5760405162461bcd60e51b8152602060048201526024808201527f4552433732313a207472616e7366657220746f20746865207a65726f206164646044820152637265737360e01b60648201526084016108b2565b612a8960008261283c565b6001600160a01b038316600090815260a360205260408120805460019290612ab2908490613fef565b90915550506001600160a01b038216600090815260a360205260408120805460019290612ae0908490613fa4565b9091555050600081815260a2602052604080822080546001600160a01b0319166001600160a01b0386811691821790925591518493918716917fddf252ad1be2c89b69c2b068fc378daa952ba7f163c4a11628f55a4df523b3ef91a4505050565b50565b600080600080845160411415612b6e5750505060208201516040830151606084015160001a612be4565b845160401415612b9c5750505060408201516020830151906001600160ff1b0381169060ff1c601b01612be4565b60405162461bcd60e51b815260206004820152601f60248201527f45434453413a20696e76616c6964207369676e6174757265206c656e6774680060448201526064016108b2565b612bf08682858561321d565b9695505050505050565b6001600160a01b03808216600090815260056020908152604080832054815163722713f760e01b815291519394169263722713f792600480840193919291829003018186803b158015612c4c57600080fd5b505afa158015612c60573d6000803e3d6000fd5b505050506040513d601f19601f8201168201806040525081019061086d9190613b7c565b612c8f8484846129a1565b612c9b848484846133c6565b611fd85760405162461bcd60e51b81526004016108b290613e44565b600954610100900460ff1680612cd0575060095460ff16155b612cec5760405162461bcd60e51b81526004016108b290613ebb565b600954610100900460ff16158015612d0e576009805461ffff19166101011790555b603c80546001600160a01b0319163390811790915560405181906000907f8be0079c531659141344cd1fd0a4f28419497f9722a3daafe3b4186f6b6457e0908290a3508015612b41576009805461ff001916905550565b600954610100900460ff1680612d7e575060095460ff16155b612d9a5760405162461bcd60e51b81526004016108b290613ebb565b600954610100900460ff16158015612dbc576009805461ffff19166101011790555b8251612dcf9060a09060208601906136b0565b508151612de39060a19060208501906136b0565b508015610fa3576009805461ff0019169055505050565b60008082604051602001612e0e9190613c7a565b604051602081830303815290604052805190602001209050808451856020016000f59150816001600160a01b031663f83d08ba6040518163ffffffff1660e01b8152600401600060405180830381600087803b158015612e6d57600080fd5b505af1158015612e81573d6000803e3d6000fd5b505050505092915050565b606081612eb05750506040805180820190915260018152600360fc1b602082015290565b8160005b8115612eda5780612ec48161406d565b9150612ed39050600a83613fbc565b9150612eb4565b60008167ffffffffffffffff811115612ef557612ef56140f4565b6040519080825280601f01601f191660200182016040528015612f1f576020820181803683370190505b5090505b841561299957612f34600183613fef565b9150612f41600a86614088565b612f4c906030613fa4565b60f81b818381518110612f6157612f616140de565b60200101906001600160f81b031916908160001a905350612f83600a86613fbc565b9450612f23565b600061299984848460601b6bffffffffffffffffffffffff19166134d0565b600080612fb584613537565b9050826037826020016000f5949350505050565b6001600160a01b03821661301f5760405162461bcd60e51b815260206004820181905260248201527f4552433732313a206d696e7420746f20746865207a65726f206164647265737360448201526064016108b2565b600081815260a260205260409020546001600160a01b0316156130845760405162461bcd60e51b815260206004820152601c60248201527f4552433732313a20746f6b656e20616c7265616479206d696e7465640000000060448201526064016108b2565b6001600160a01b038216600090815260a3602052604081208054600192906130ad908490613fa4565b9091555050600081815260a2602052604080822080546001600160a01b0319166001600160a01b03861690811790915590518392907fddf252ad1be2c89b69c2b068fc378daa952ba7f163c4a11628f55a4df523b3ef908290a45050565b6001600160a01b0382811660009081526005602052604090819020549051632e1a7d4d60e01b815260048101849052911690632e1a7d4d90602401611011565b60006131a0826040518060400160405280602081526020017f5361666545524332303a206c6f772d6c6576656c2063616c6c206661696c6564815250856001600160a01b03166135989092919063ffffffff16565b805190915015610fa357808060200190518101906131be9190613b0c565b610fa35760405162461bcd60e51b815260206004820152602a60248201527f5361666545524332303a204552433230206f7065726174696f6e20646964206e6044820152691bdd081cdd58d8d9595960b21b60648201526084016108b2565b60007f7fffffffffffffffffffffffffffffff5d576e7357a4501ddfe92f46681b20a082111561329a5760405162461bcd60e51b815260206004820152602260248201527f45434453413a20696e76616c6964207369676e6174757265202773272076616c604482015261756560f01b60648201526084016108b2565b8360ff16601b14806132af57508360ff16601c145b6133065760405162461bcd60e51b815260206004820152602260248201527f45434453413a20696e76616c6964207369676e6174757265202776272076616c604482015261756560f01b60648201526084016108b2565b6040805160008082526020820180845288905260ff871692820192909252606081018590526080810184905260019060a0016020604051602081039080840390855afa15801561335a573d6000803e3d6000fd5b5050604051601f1901519150506001600160a01b0381166133bd5760405162461bcd60e51b815260206004820152601860248201527f45434453413a20696e76616c6964207369676e6174757265000000000000000060448201526064016108b2565b95945050505050565b60006001600160a01b0384163b156134c857604051630a85bd0160e11b81526001600160a01b0385169063150b7a029061340a903390899088908890600401613cc5565b602060405180830381600087803b15801561342457600080fd5b505af1925050508015613454575060408051601f3d908101601f1916820190925261345191810190613b5f565b60015b6134ae573d808015613482576040519150601f19603f3d011682016040523d82523d6000602084013e613487565b606091505b5080516134a65760405162461bcd60e51b81526004016108b290613e44565b805181602001fd5b6001600160e01b031916630a85bd0160e11b149050612999565b506001612999565b6000612999826134df85613537565b8051602091820120604080516001600160f81b0319818501526001600160601b031960608b901b1660218201526035810194909452605580850192909252805180850390920182526075909301909252815191012090565b60408051603780825260608281019093526020820181803683375050733d602d80600a3d3981f3363d3d373d3d3d363d7360601b60208301525060609290921b6034830152506e5af43d82803e903d91602b57fd5bf360881b604882015290565b6060612999848460008585843b6135f15760405162461bcd60e51b815260206004820152601d60248201527f416464726573733a2063616c6c20746f206e6f6e2d636f6e747261637400000060448201526064016108b2565b600080866001600160a01b0316858760405161360d9190613c7a565b60006040518083038185875af1925050503d806000811461364a576040519150601f19603f3d011682016040523d82523d6000602084013e61364f565b606091505b509150915061365f82828661366a565b979650505050505050565b606083156136795750816122d0565b8251156136895782518084602001fd5b8160405162461bcd60e51b81526004016108b29190613e0c565b610fe88061414483390190565b8280546136bc90614032565b90600052602060002090601f0160209004810192826136de5760008555613724565b82601f106136f757805160ff1916838001178555613724565b82800160010185558215613724579182015b82811115613724578251825591602001919060010190613709565b50613730929150613734565b5090565b5b808211156137305760008155600101613735565b80356137548161410a565b919050565b600082601f83011261376a57600080fd5b813567ffffffffffffffff811115613784576137846140f4565b613797601f8201601f1916602001613f73565b8181528460208386010111156137ac57600080fd5b816020850160208301376000918101602001919091529392505050565b6000602082840312156137db57600080fd5b81356122d08161410a565b6000602082840312156137f857600080fd5b81516122d08161410a565b6000806040838503121561381657600080fd5b82356138218161410a565b915060208301356138318161410a565b809150509250929050565b60008060006060848603121561385157600080fd5b833561385c8161410a565b9250602084013561386c8161410a565b9150604084013561387c8161410a565b809150509250925092565b6000806000806000806000806000806101408b8d0312156138a757600080fd5b6138b08b613749565b99506138be60208c01613749565b98506138cc60408c01613749565b975060608b0135965060808b0135955060a08b013594506138ef60c08c01613749565b935060e08b013592506101008b013567ffffffffffffffff8082111561391457600080fd5b6139208e838f01613759565b93506101208d013591508082111561393757600080fd5b506139448d828e01613759565b9150509295989b9194979a5092959850565b60008060006060848603121561396b57600080fd5b83356139768161410a565b925060208401356139868161410a565b929592945050506040919091013590565b600080600080608085870312156139ad57600080fd5b84356139b88161410a565b935060208501356139c88161410a565b925060408501359150606085013567ffffffffffffffff8111156139eb57600080fd5b6139f787828801613759565b91505092959194509250565b600080600080600080600060e0888a031215613a1e57600080fd5b8735613a298161410a565b96506020880135613a398161410a565b955060408801359450606088013593506080880135613a578161410a565b925060a088013567ffffffffffffffff80821115613a7457600080fd5b613a808b838c01613759565b935060c08a0135915080821115613a9657600080fd5b50613aa38a828b01613759565b91505092959891949750929550565b60008060408385031215613ac557600080fd5b8235613ad08161410a565b915060208301356138318161411f565b60008060408385031215613af357600080fd5b8235613afe8161410a565b946020939093013593505050565b600060208284031215613b1e57600080fd5b81516122d08161411f565b600060208284031215613b3b57600080fd5b5035919050565b600060208284031215613b5457600080fd5b81356122d08161412d565b600060208284031215613b7157600080fd5b81516122d08161412d565b600060208284031215613b8e57600080fd5b5051919050565b60008060408385031215613ba857600080fd5b8251915060208084015167ffffffffffffffff80821115613bc857600080fd5b818601915086601f830112613bdc57600080fd5b815181811115613bee57613bee6140f4565b8060051b9150613bff848301613f73565b8181528481019084860184860187018b1015613c1a57600080fd5b600095505b83861015613c3d578051835260019590950194918601918601613c1f565b508096505050505050509250929050565b60008151808452613c66816020860160208601614006565b601f01601f19169290920160200192915050565b60008251613c8c818460208701614006565b9190910192915050565b60008351613ca8818460208801614006565b835190830190613cbc818360208801614006565b01949350505050565b6001600160a01b0385811682528416602082015260408101839052608060608201819052600090612bf090830184613c4e565b6001600160a01b0387811682528616602080830191909152604082018690526060820185905260c06080830181905284519083018190526000918581019160e085019190845b81811015613d5a57845184529382019392820192600101613d3e565b50505060a09390930193909352509695505050505050565b6001600160a01b03868116825285166020820152604081018490526060810183905260a06080820181905260009061365f90830184613c4e565b6001600160a01b03831681526040810160038310613dda57634e487b7160e01b600052602160045260246000fd5b8260208301529392505050565b848152836020820152826040820152608060608201526000612bf06080830184613c4e565b6020815260006122d06020830184613c4e565b6020808252600b908201526a085cdd1c985d1959da5cdd60aa1b604082015260600190565b60208082526032908201527f4552433732313a207472616e7366657220746f206e6f6e20455243373231526560408201527131b2b4bb32b91034b6b83632b6b2b73a32b960711b606082015260800190565b6020808252600b908201526a21676f7665726e616e636560a81b604082015260600190565b6020808252602e908201527f496e697469616c697a61626c653a20636f6e747261637420697320616c72656160408201526d191e481a5b9a5d1a585b1a5e995960921b606082015260800190565b60208082526031908201527f4552433732313a207472616e736665722063616c6c6572206973206e6f74206f6040820152701ddb995c881b9bdc88185c1c1c9bdd9959607a1b606082015260800190565b8281526040602082015260006129996040830184613c4e565b604051601f8201601f1916810167ffffffffffffffff81118282101715613f9c57613f9c6140f4565b604052919050565b60008219821115613fb757613fb761409c565b500190565b600082613fcb57613fcb6140b2565b500490565b6000816000190483118215151615613fea57613fea61409c565b500290565b6000828210156140015761400161409c565b500390565b60005b83811015614021578181015183820152602001614009565b83811115611fd85750506000910152565b600181811c9082168061404657607f821691505b6020821081141561406757634e487b7160e01b600052602260045260246000fd5b50919050565b60006000198214156140815761408161409c565b5060010190565b600082614097576140976140b2565b500690565b634e487b7160e01b600052601160045260246000fd5b634e487b7160e01b600052601260045260246000fd5b634e487b7160e01b600052602160045260246000fd5b634e487b7160e01b600052603260045260246000fd5b634e487b7160e01b600052604160045260246000fd5b6001600160a01b0381168114612b4157600080fd5b8015158114612b4157600080fd5b6001600160e01b031981168114612b4157600080fdfe608060405234801561001057600080fd5b50600080546001600160a01b031916339081178255604051909182917f8be0079c531659141344cd1fd0a4f28419497f9722a3daafe3b4186f6b6457e0908290a350610f87806100616000396000f3fe608060405234801561001057600080fd5b50600436106100cf5760003560e01c8063bc25cf771161008c578063cd3293de11610066578063cd3293de146101aa578063f2fde38b146101b2578063f77c4791146101c5578063fbfa77cf146101d857600080fd5b8063bc25cf771461016e578063c4d66de814610181578063c87d67791461019457600080fd5b806322285cf6146100d457806346b9edf41461010b5780635583376e14610120578063715018a61461013357806389afcb441461013b5780638da5cb5b1461014e575b600080fd5b600354600454604080516001600160801b038085168252600160801b90940490931660208401528201526060015b60405180910390f35b61011e610119366004610d82565b6101eb565b005b61011e61012e366004610dd0565b610364565b61011e610431565b61011e610149366004610d48565b6104aa565b61015661063e565b6040516001600160a01b039091168152602001610102565b61011e61017c366004610d48565b6106bf565b61011e61018f366004610d48565b6107ae565b61019c61089e565b604051908152602001610102565b61019c6108ba565b61011e6101c0366004610d48565b610981565b600154610156906001600160a01b031681565b600254610156906001600160a01b031681565b6001546001600160a01b031633146102385760405162461bcd60e51b815260206004820152600b60248201526a10b1b7b73a3937b63632b960a91b60448201526064015b60405180910390fd5b600354600090610251906001600160801b031683610a70565b9050600061025d61089e565b9050816103346103036102708487610a70565b6040516373883a2b60e01b8152600481018890526102fd90670de0b6b3a7640000906001600160a01b038b16906373883a2b906024015b60206040518083038186803b1580156102bf57600080fd5b505afa1580156102d3573d6000803e3d6000fd5b505050506040513d601f19601f820116820180604052508101906102f79190610de9565b90610a83565b90610a8f565b60035461032e90670de0b6b3a7640000906102fd90600160801b90046001600160801b031687610a83565b90610a70565b6001600160801b039182169116600160801b026fffffffffffffffffffffffffffffffff19161760035550505050565b6001546001600160a01b031633146103ac5760405162461bcd60e51b815260206004820152600b60248201526a10b1b7b73a3937b63632b960a91b604482015260640161022f565b60006103b661089e565b90506104006103c58284610a9b565b6003546102fd90670de0b6b3a7640000906102f79087906103fa9084908690600160801b90046001600160801b03168a610a83565b90610a9b565b600380546001600160801b03928316600160801b02921691909117905560045461042a9083610a70565b6004555050565b3361043a61063e565b6001600160a01b0316146104605760405162461bcd60e51b815260040161022f90610e51565b600080546040516001600160a01b03909116907f8be0079c531659141344cd1fd0a4f28419497f9722a3daafe3b4186f6b6457e0908390a3600080546001600160a01b0319169055565b336104b361063e565b6001600160a01b0316146104d95760405162461bcd60e51b815260040161022f90610e51565b6002546040516370a0823160e01b81523060048201526001600160a01b039091169063a9059cbb90839083906370a082319060240160206040518083038186803b15801561052657600080fd5b505afa15801561053a573d6000803e3d6000fd5b505050506040513d601f19601f8201168201806040525081019061055e9190610de9565b6040516001600160e01b031960e085901b1681526001600160a01b0390921660048301526024820152604401602060405180830381600087803b1580156105a457600080fd5b505af11580156105b8573d6000803e3d6000fd5b505050506040513d601f19601f820116820180604052508101906105dc9190610dae565b61063b5760405162461bcd60e51b815260206004820152602a60248201527f6661696c656420746f207472616e73666572207661756c7420746f6b656e207460448201526937903932b1b2b4bb32b960b11b606482015260840161022f565b33ff5b6001546040516331a9108f60e11b81523060048201526000916001600160a01b031690636352211e9060240160206040518083038186803b15801561068257600080fd5b505afa158015610696573d6000803e3d6000fd5b505050506040513d601f19601f820116820180604052508101906106ba9190610d65565b905090565b6002546001600160a01b038281169116141561071d5760405162461bcd60e51b815260206004820152601760248201527f63616e6e6f7420736b696d207661756c7420746f6b656e000000000000000000604482015260640161022f565b6040516370a0823160e01b81523060048201526107ab9033906001600160a01b038416906370a082319060240160206040518083038186803b15801561076257600080fd5b505afa158015610776573d6000803e3d6000fd5b505050506040513d601f19601f8201168201806040525081019061079a9190610de9565b6001600160a01b0384169190610aa7565b50565b600054600160a81b900460ff16806107d05750600054600160a01b900460ff16155b6108335760405162461bcd60e51b815260206004820152602e60248201527f496e697469616c697a61626c653a20636f6e747261637420697320616c72656160448201526d191e481a5b9a5d1a585b1a5e995960921b606482015260840161022f565b600054600160a81b900460ff1615801561085d576000805461ffff60a01b191661010160a01b1790555b60018054336001600160a01b031991821617909155600280549091166001600160a01b038416179055801561089a576000805460ff60a81b191690555b5050565b6003546004546000916106ba91906001600160801b0316610a9b565b60006106ba670de0b6b3a76400006102fd600260009054906101000a90046001600160a01b03166001600160a01b03166377c7b8fc6040518163ffffffff1660e01b815260040160206040518083038186803b15801561091957600080fd5b505afa15801561092d573d6000803e3d6000fd5b505050506040513d601f19601f820116820180604052508101906109519190610de9565b6002546040516370a0823160e01b81523060048201526001600160a01b03909116906370a08231906024016102a7565b3361098a61063e565b6001600160a01b0316146109b05760405162461bcd60e51b815260040161022f90610e51565b6001600160a01b038116610a155760405162461bcd60e51b815260206004820152602660248201527f4f776e61626c653a206e6577206f776e657220697320746865207a65726f206160448201526564647265737360d01b606482015260840161022f565b600080546040516001600160a01b03808516939216917f8be0079c531659141344cd1fd0a4f28419497f9722a3daafe3b4186f6b6457e091a3600080546001600160a01b0319166001600160a01b0392909216919091179055565b6000610a7c8284610e86565b9392505050565b6000610a7c8284610ec0565b6000610a7c8284610e9e565b6000610a7c8284610edf565b604080516001600160a01b038416602482015260448082018490528251808303909101815260649091019091526020810180516001600160e01b031663a9059cbb60e01b179052610af9908490610afe565b505050565b6000610b53826040518060400160405280602081526020017f5361666545524332303a206c6f772d6c6576656c2063616c6c206661696c6564815250856001600160a01b0316610bd09092919063ffffffff16565b805190915015610af95780806020019051810190610b719190610dae565b610af95760405162461bcd60e51b815260206004820152602a60248201527f5361666545524332303a204552433230206f7065726174696f6e20646964206e6044820152691bdd081cdd58d8d9595960b21b606482015260840161022f565b6060610bdf8484600085610be7565b949350505050565b606082471015610c485760405162461bcd60e51b815260206004820152602660248201527f416464726573733a20696e73756666696369656e742062616c616e636520666f6044820152651c8818d85b1b60d21b606482015260840161022f565b843b610c965760405162461bcd60e51b815260206004820152601d60248201527f416464726573733a2063616c6c20746f206e6f6e2d636f6e7472616374000000604482015260640161022f565b600080866001600160a01b03168587604051610cb29190610e02565b60006040518083038185875af1925050503d8060008114610cef576040519150601f19603f3d011682016040523d82523d6000602084013e610cf4565b606091505b5091509150610d04828286610d0f565b979650505050505050565b60608315610d1e575081610a7c565b825115610d2e5782518084602001fd5b8160405162461bcd60e51b815260040161022f9190610e1e565b600060208284031215610d5a57600080fd5b8135610a7c81610f3c565b600060208284031215610d7757600080fd5b8151610a7c81610f3c565b60008060408385031215610d9557600080fd5b8235610da081610f3c565b946020939093013593505050565b600060208284031215610dc057600080fd5b81518015158114610a7c57600080fd5b600060208284031215610de257600080fd5b5035919050565b600060208284031215610dfb57600080fd5b5051919050565b60008251610e14818460208701610ef6565b9190910192915050565b6020815260008251806020840152610e3d816040850160208701610ef6565b601f01601f19169190910160400192915050565b6020808252818101527f4f776e61626c653a2063616c6c6572206973206e6f7420746865206f776e6572604082015260600190565b60008219821115610e9957610e99610f26565b500190565b600082610ebb57634e487b7160e01b600052601260045260246000fd5b500490565b6000816000190483118215151615610eda57610eda610f26565b500290565b600082821015610ef157610ef1610f26565b500390565b60005b83811015610f11578181015183820152602001610ef9565b83811115610f20576000848401525b50505050565b634e487b7160e01b600052601160045260246000fd5b6001600160a01b03811681146107ab57600080fdfea2646970667358221220c319426f2886c348e110e3bde5e875af62eae2f54459afd40ce157500d35fc9064736f6c634300080500337a65726f2e756e6465727772697465722e6c6f636b2d696d706c656d656e746174696f6ea264697066735822122034c88de7bf1c2378f852cc47e40c0a099d81aa887d7f1d9e5ac1104396cea38964736f6c63430008050033",
  "linkReferences": {},
  "deployedLinkReferences": {}
}