{
  "_format": "hh-sol-artifact-1",
  "contractName": "ZeroController",
  "sourceName": "contracts/controllers/ZeroController.sol",
  "abi": [
    {
      "anonymous": false,
      "inputs": [
        {
          "indexed": true,
          "internalType": "address",
          "name": "owner",
          "type": "address"
        },
        {
          "indexed": true,
          "internalType": "address",
          "name": "approved",
          "type": "address"
        },
        {
          "indexed": true,
          "internalType": "uint256",
          "name": "tokenId",
          "type": "uint256"
        }
      ],
      "name": "Approval",
      "type": "event"
    },
    {
      "anonymous": false,
      "inputs": [
        {
          "indexed": true,
          "internalType": "address",
          "name": "owner",
          "type": "address"
        },
        {
          "indexed": true,
          "internalType": "address",
          "name": "operator",
          "type": "address"
        },
        {
          "indexed": false,
          "internalType": "bool",
          "name": "approved",
          "type": "bool"
        }
      ],
      "name": "ApprovalForAll",
      "type": "event"
    },
    {
      "anonymous": false,
      "inputs": [
        {
          "indexed": true,
          "internalType": "address",
          "name": "previousOwner",
          "type": "address"
        },
        {
          "indexed": true,
          "internalType": "address",
          "name": "newOwner",
          "type": "address"
        }
      ],
      "name": "OwnershipTransferred",
      "type": "event"
    },
    {
      "anonymous": false,
      "inputs": [
        {
          "indexed": true,
          "internalType": "address",
          "name": "from",
          "type": "address"
        },
        {
          "indexed": true,
          "internalType": "address",
          "name": "to",
          "type": "address"
        },
        {
          "indexed": true,
          "internalType": "uint256",
          "name": "tokenId",
          "type": "uint256"
        }
      ],
      "name": "Transfer",
      "type": "event"
    },
    {
      "inputs": [
        {
          "internalType": "address",
          "name": "to",
          "type": "address"
        },
        {
          "internalType": "uint256",
          "name": "tokenId",
          "type": "uint256"
        }
      ],
      "name": "approve",
      "outputs": [],
      "stateMutability": "nonpayable",
      "type": "function"
    },
    {
      "inputs": [
        {
          "internalType": "address",
          "name": "_token",
          "type": "address"
        },
        {
          "internalType": "address",
          "name": "_strategy",
          "type": "address"
        }
      ],
      "name": "approveStrategy",
      "outputs": [],
      "stateMutability": "nonpayable",
      "type": "function"
    },
    {
      "inputs": [
        {
          "internalType": "address",
          "name": "",
          "type": "address"
        },
        {
          "internalType": "address",
          "name": "",
          "type": "address"
        }
      ],
      "name": "approvedStrategies",
      "outputs": [
        {
          "internalType": "bool",
          "name": "",
          "type": "bool"
        }
      ],
      "stateMutability": "view",
      "type": "function"
    },
    {
      "inputs": [
        {
          "internalType": "address",
          "name": "_owner",
          "type": "address"
        }
      ],
      "name": "balanceOf",
      "outputs": [
        {
          "internalType": "uint256",
          "name": "result",
          "type": "uint256"
        }
      ],
      "stateMutability": "view",
      "type": "function"
    },
    {
      "inputs": [],
      "name": "baseURI",
      "outputs": [
        {
          "internalType": "string",
          "name": "",
          "type": "string"
        }
      ],
      "stateMutability": "view",
      "type": "function"
    },
    {
      "inputs": [
        {
          "internalType": "address",
          "name": "",
          "type": "address"
        },
        {
          "internalType": "address",
          "name": "",
          "type": "address"
        }
      ],
      "name": "converters",
      "outputs": [
        {
          "internalType": "address",
          "name": "",
          "type": "address"
        }
      ],
      "stateMutability": "view",
      "type": "function"
    },
    {
      "inputs": [
        {
          "internalType": "address",
          "name": "_token",
          "type": "address"
        },
        {
          "internalType": "uint256",
          "name": "_amount",
          "type": "uint256"
        }
      ],
      "name": "earn",
      "outputs": [],
      "stateMutability": "nonpayable",
      "type": "function"
    },
    {
      "inputs": [],
      "name": "gatewayRegistry",
      "outputs": [
        {
          "internalType": "address",
          "name": "",
          "type": "address"
        }
      ],
      "stateMutability": "view",
      "type": "function"
    },
    {
      "inputs": [
        {
          "internalType": "uint256",
          "name": "tokenId",
          "type": "uint256"
        }
      ],
      "name": "getApproved",
      "outputs": [
        {
          "internalType": "address",
          "name": "",
          "type": "address"
        }
      ],
      "stateMutability": "view",
      "type": "function"
    },
    {
      "inputs": [
        {
          "internalType": "address",
          "name": "_strategy",
          "type": "address"
        },
        {
          "internalType": "address",
          "name": "_token",
          "type": "address"
        },
        {
          "internalType": "uint256",
          "name": "parts",
          "type": "uint256"
        }
      ],
      "name": "getExpectedReturn",
      "outputs": [
        {
          "internalType": "uint256",
          "name": "expected",
          "type": "uint256"
        }
      ],
      "stateMutability": "view",
      "type": "function"
    },
    {
      "inputs": [],
      "name": "governance",
      "outputs": [
        {
          "internalType": "address",
          "name": "",
          "type": "address"
        }
      ],
      "stateMutability": "view",
      "type": "function"
    },
    {
      "inputs": [
        {
          "internalType": "address",
          "name": "_strategy",
          "type": "address"
        },
        {
          "internalType": "address",
          "name": "_token",
          "type": "address"
        }
      ],
      "name": "inCaseStrategyTokenGetStuck",
      "outputs": [],
      "stateMutability": "nonpayable",
      "type": "function"
    },
    {
      "inputs": [
        {
          "internalType": "address",
          "name": "_token",
          "type": "address"
        },
        {
          "internalType": "uint256",
          "name": "_amount",
          "type": "uint256"
        }
      ],
      "name": "inCaseTokensGetStuck",
      "outputs": [],
      "stateMutability": "nonpayable",
      "type": "function"
    },
    {
      "inputs": [
        {
          "internalType": "address",
          "name": "_rewards",
          "type": "address"
        }
      ],
      "name": "initialize",
      "outputs": [],
      "stateMutability": "nonpayable",
      "type": "function"
    },
    {
      "inputs": [
        {
          "internalType": "address",
          "name": "owner",
          "type": "address"
        },
        {
          "internalType": "address",
          "name": "operator",
          "type": "address"
        }
      ],
      "name": "isApprovedForAll",
      "outputs": [
        {
          "internalType": "bool",
          "name": "",
          "type": "bool"
        }
      ],
      "stateMutability": "view",
      "type": "function"
    },
    {
      "inputs": [
        {
          "internalType": "address",
          "name": "to",
          "type": "address"
        },
        {
          "internalType": "address",
          "name": "asset",
          "type": "address"
        },
        {
          "internalType": "uint256",
          "name": "amount",
          "type": "uint256"
        },
        {
          "internalType": "uint256",
          "name": "nonce",
          "type": "uint256"
        },
        {
          "internalType": "address",
          "name": "module",
          "type": "address"
        },
        {
          "internalType": "bytes",
          "name": "data",
          "type": "bytes"
        },
        {
          "internalType": "bytes",
          "name": "userSignature",
          "type": "bytes"
        }
      ],
      "name": "loan",
      "outputs": [],
      "stateMutability": "nonpayable",
      "type": "function"
    },
    {
      "inputs": [
        {
          "internalType": "bytes32",
          "name": "",
          "type": "bytes32"
        }
      ],
      "name": "loanStatus",
      "outputs": [
        {
          "internalType": "address",
          "name": "underwriter",
          "type": "address"
        },
        {
          "internalType": "enum ZeroLib.LoanStatusCode",
          "name": "status",
          "type": "uint8"
        }
      ],
      "stateMutability": "view",
      "type": "function"
    },
    {
      "inputs": [
        {
          "internalType": "address",
          "name": "",
          "type": "address"
        }
      ],
      "name": "loaned",
      "outputs": [
        {
          "internalType": "uint256",
          "name": "",
          "type": "uint256"
        }
      ],
      "stateMutability": "view",
      "type": "function"
    },
    {
      "inputs": [
        {
          "internalType": "address",
          "name": "underwriter",
          "type": "address"
        }
      ],
      "name": "lockFor",
      "outputs": [
        {
          "internalType": "contract ZeroUnderwriterLock",
          "name": "result",
          "type": "address"
        }
      ],
      "stateMutability": "view",
      "type": "function"
    },
    {
      "inputs": [],
      "name": "max",
      "outputs": [
        {
          "internalType": "uint256",
          "name": "",
          "type": "uint256"
        }
      ],
      "stateMutability": "view",
      "type": "function"
    },
    {
      "inputs": [
        {
          "internalType": "address",
          "name": "underwriter",
          "type": "address"
        },
        {
          "internalType": "address",
          "name": "vault",
          "type": "address"
        }
      ],
      "name": "mint",
      "outputs": [],
      "stateMutability": "nonpayable",
      "type": "function"
    },
    {
      "inputs": [
        {
          "internalType": "address",
          "name": "",
          "type": "address"
        }
      ],
      "name": "moduleApproved",
      "outputs": [
        {
          "internalType": "bool",
          "name": "",
          "type": "bool"
        }
      ],
      "stateMutability": "view",
      "type": "function"
    },
    {
      "inputs": [],
      "name": "name",
      "outputs": [
        {
          "internalType": "string",
          "name": "",
          "type": "string"
        }
      ],
      "stateMutability": "view",
      "type": "function"
    },
    {
      "inputs": [],
      "name": "onesplit",
      "outputs": [
        {
          "internalType": "address",
          "name": "",
          "type": "address"
        }
      ],
      "stateMutability": "view",
      "type": "function"
    },
    {
      "inputs": [],
      "name": "owner",
      "outputs": [
        {
          "internalType": "address",
          "name": "",
          "type": "address"
        }
      ],
      "stateMutability": "view",
      "type": "function"
    },
    {
      "inputs": [
        {
          "internalType": "uint256",
          "name": "tokenId",
          "type": "uint256"
        }
      ],
      "name": "ownerOf",
      "outputs": [
        {
          "internalType": "address",
          "name": "",
          "type": "address"
        }
      ],
      "stateMutability": "view",
      "type": "function"
    },
    {
      "inputs": [],
      "name": "renounceOwnership",
      "outputs": [],
      "stateMutability": "nonpayable",
      "type": "function"
    },
    {
      "inputs": [
        {
          "internalType": "address",
          "name": "",
          "type": "address"
        }
      ],
      "name": "repaid",
      "outputs": [
        {
          "internalType": "uint256",
          "name": "",
          "type": "uint256"
        }
      ],
      "stateMutability": "view",
      "type": "function"
    },
    {
      "inputs": [
        {
          "internalType": "address",
          "name": "underwriter",
          "type": "address"
        },
        {
          "internalType": "address",
          "name": "to",
          "type": "address"
        },
        {
          "internalType": "address",
          "name": "asset",
          "type": "address"
        },
        {
          "internalType": "uint256",
          "name": "amount",
          "type": "uint256"
        },
        {
          "internalType": "uint256",
          "name": "actualAmount",
          "type": "uint256"
        },
        {
          "internalType": "uint256",
          "name": "nonce",
          "type": "uint256"
        },
        {
          "internalType": "address",
          "name": "module",
          "type": "address"
        },
        {
          "internalType": "bytes32",
          "name": "nHash",
          "type": "bytes32"
        },
        {
          "internalType": "bytes",
          "name": "data",
          "type": "bytes"
        },
        {
          "internalType": "bytes",
          "name": "signature",
          "type": "bytes"
        }
      ],
      "name": "repay",
      "outputs": [],
      "stateMutability": "nonpayable",
      "type": "function"
    },
    {
      "inputs": [
        {
          "internalType": "address",
          "name": "_token",
          "type": "address"
        },
        {
          "internalType": "address",
          "name": "_strategy",
          "type": "address"
        }
      ],
      "name": "revokeStrategy",
      "outputs": [],
      "stateMutability": "nonpayable",
      "type": "function"
    },
    {
      "inputs": [],
      "name": "rewards",
      "outputs": [
        {
          "internalType": "address",
          "name": "",
          "type": "address"
        }
      ],
      "stateMutability": "view",
      "type": "function"
    },
    {
      "inputs": [
        {
          "internalType": "address",
          "name": "from",
          "type": "address"
        },
        {
          "internalType": "address",
          "name": "to",
          "type": "address"
        },
        {
          "internalType": "uint256",
          "name": "tokenId",
          "type": "uint256"
        }
      ],
      "name": "safeTransferFrom",
      "outputs": [],
      "stateMutability": "nonpayable",
      "type": "function"
    },
    {
      "inputs": [
        {
          "internalType": "address",
          "name": "from",
          "type": "address"
        },
        {
          "internalType": "address",
          "name": "to",
          "type": "address"
        },
        {
          "internalType": "uint256",
          "name": "tokenId",
          "type": "uint256"
        },
        {
          "internalType": "bytes",
          "name": "_data",
          "type": "bytes"
        }
      ],
      "name": "safeTransferFrom",
      "outputs": [],
      "stateMutability": "nonpayable",
      "type": "function"
    },
    {
      "inputs": [
        {
          "internalType": "address",
          "name": "operator",
          "type": "address"
        },
        {
          "internalType": "bool",
          "name": "approved",
          "type": "bool"
        }
      ],
      "name": "setApprovalForAll",
      "outputs": [],
      "stateMutability": "nonpayable",
      "type": "function"
    },
    {
      "inputs": [
        {
          "internalType": "address",
          "name": "_input",
          "type": "address"
        },
        {
          "internalType": "address",
          "name": "_output",
          "type": "address"
        },
        {
          "internalType": "address",
          "name": "_converter",
          "type": "address"
        }
      ],
      "name": "setConverter",
      "outputs": [],
      "stateMutability": "nonpayable",
      "type": "function"
    },
    {
      "inputs": [
        {
          "internalType": "address",
          "name": "_governance",
          "type": "address"
        }
      ],
      "name": "setGovernance",
      "outputs": [],
      "stateMutability": "nonpayable",
      "type": "function"
    },
    {
      "inputs": [
        {
          "internalType": "address",
          "name": "_onesplit",
          "type": "address"
        }
      ],
      "name": "setOneSplit",
      "outputs": [],
      "stateMutability": "nonpayable",
      "type": "function"
    },
    {
      "inputs": [
        {
          "internalType": "address",
          "name": "_rewards",
          "type": "address"
        }
      ],
      "name": "setRewards",
      "outputs": [],
      "stateMutability": "nonpayable",
      "type": "function"
    },
    {
      "inputs": [
        {
          "internalType": "uint256",
          "name": "_split",
          "type": "uint256"
        }
      ],
      "name": "setSplit",
      "outputs": [],
      "stateMutability": "nonpayable",
      "type": "function"
    },
    {
      "inputs": [
        {
          "internalType": "address",
          "name": "_strategist",
          "type": "address"
        }
      ],
      "name": "setStrategist",
      "outputs": [],
      "stateMutability": "nonpayable",
      "type": "function"
    },
    {
      "inputs": [
        {
          "internalType": "address",
          "name": "_token",
          "type": "address"
        },
        {
          "internalType": "address",
          "name": "_strategy",
          "type": "address"
        }
      ],
      "name": "setStrategy",
      "outputs": [],
      "stateMutability": "nonpayable",
      "type": "function"
    },
    {
      "inputs": [
        {
          "internalType": "address",
          "name": "_token",
          "type": "address"
        },
        {
          "internalType": "address",
          "name": "_vault",
          "type": "address"
        }
      ],
      "name": "setVault",
      "outputs": [],
      "stateMutability": "nonpayable",
      "type": "function"
    },
    {
      "inputs": [],
      "name": "split",
      "outputs": [
        {
          "internalType": "uint256",
          "name": "",
          "type": "uint256"
        }
      ],
      "stateMutability": "view",
      "type": "function"
    },
    {
      "inputs": [
        {
          "internalType": "address",
          "name": "",
          "type": "address"
        }
      ],
      "name": "strategies",
      "outputs": [
        {
          "internalType": "address",
          "name": "",
          "type": "address"
        }
      ],
      "stateMutability": "view",
      "type": "function"
    },
    {
      "inputs": [],
      "name": "strategist",
      "outputs": [
        {
          "internalType": "address",
          "name": "",
          "type": "address"
        }
      ],
      "stateMutability": "view",
      "type": "function"
    },
    {
      "inputs": [
        {
          "internalType": "bytes4",
          "name": "interfaceId",
          "type": "bytes4"
        }
      ],
      "name": "supportsInterface",
      "outputs": [
        {
          "internalType": "bool",
          "name": "",
          "type": "bool"
        }
      ],
      "stateMutability": "view",
      "type": "function"
    },
    {
      "inputs": [],
      "name": "symbol",
      "outputs": [
        {
          "internalType": "string",
          "name": "",
          "type": "string"
        }
      ],
      "stateMutability": "view",
      "type": "function"
    },
    {
      "inputs": [
        {
          "internalType": "uint256",
          "name": "index",
          "type": "uint256"
        }
      ],
      "name": "tokenByIndex",
      "outputs": [
        {
          "internalType": "uint256",
          "name": "",
          "type": "uint256"
        }
      ],
      "stateMutability": "view",
      "type": "function"
    },
    {
      "inputs": [
        {
          "internalType": "address",
          "name": "owner",
          "type": "address"
        },
        {
          "internalType": "uint256",
          "name": "index",
          "type": "uint256"
        }
      ],
      "name": "tokenOfOwnerByIndex",
      "outputs": [
        {
          "internalType": "uint256",
          "name": "",
          "type": "uint256"
        }
      ],
      "stateMutability": "view",
      "type": "function"
    },
    {
      "inputs": [
        {
          "internalType": "uint256",
          "name": "tokenId",
          "type": "uint256"
        }
      ],
      "name": "tokenURI",
      "outputs": [
        {
          "internalType": "string",
          "name": "",
          "type": "string"
        }
      ],
      "stateMutability": "view",
      "type": "function"
    },
    {
      "inputs": [],
      "name": "totalSupply",
      "outputs": [
        {
          "internalType": "uint256",
          "name": "",
          "type": "uint256"
        }
      ],
      "stateMutability": "view",
      "type": "function"
    },
    {
      "inputs": [
        {
          "internalType": "address",
          "name": "from",
          "type": "address"
        },
        {
          "internalType": "address",
          "name": "to",
          "type": "address"
        },
        {
          "internalType": "uint256",
          "name": "tokenId",
          "type": "uint256"
        }
      ],
      "name": "transferFrom",
      "outputs": [],
      "stateMutability": "nonpayable",
      "type": "function"
    },
    {
      "inputs": [
        {
          "internalType": "address",
          "name": "newOwner",
          "type": "address"
        }
      ],
      "name": "transferOwnership",
      "outputs": [],
      "stateMutability": "nonpayable",
      "type": "function"
    },
    {
      "inputs": [
        {
          "internalType": "address",
          "name": "",
          "type": "address"
        }
      ],
      "name": "vaults",
      "outputs": [
        {
          "internalType": "address",
          "name": "",
          "type": "address"
        }
      ],
      "stateMutability": "view",
      "type": "function"
    },
    {
      "inputs": [
        {
          "internalType": "address",
          "name": "_token",
          "type": "address"
        },
        {
          "internalType": "uint256",
          "name": "_amount",
          "type": "uint256"
        }
      ],
      "name": "withdraw",
      "outputs": [],
      "stateMutability": "nonpayable",
      "type": "function"
    },
    {
      "inputs": [
        {
          "internalType": "address",
          "name": "_token",
          "type": "address"
        }
      ],
      "name": "withdrawAll",
      "outputs": [],
      "stateMutability": "nonpayable",
      "type": "function"
    },
    {
      "inputs": [
        {
          "internalType": "address",
          "name": "_strategy",
          "type": "address"
        },
        {
          "internalType": "address",
          "name": "_token",
          "type": "address"
        },
        {
          "internalType": "uint256",
          "name": "parts",
          "type": "uint256"
        }
      ],
      "name": "yearn",
      "outputs": [],
      "stateMutability": "nonpayable",
      "type": "function"
    }
  ],
  "bytecode": "0x60806040526101f460085534801561001657600080fd5b506154d2806100266000396000f3fe608060405234801561001057600080fd5b50600436106103835760003560e01c80638da1df4d116101de578063c6d758cb1161010f578063e985e9c5116100ad578063f3fef3a31161007c578063f3fef3a314610e9e578063f712adbb14610eca578063f765417614610ed2578063fa09e63014610eda57610383565b8063e985e9c514610df6578063ec38a86214610e24578063ee1fe2ad14610e4a578063f2fde38b14610e7857610383565b8063ccd06318116100e9578063ccd0631814610d62578063d693452e14610d9a578063e4f2494d14610da2578063e6b512d414610dd057610383565b8063c6d758cb14610cf3578063c7b9d53014610d1f578063c87b56dd14610d4557610383565b8063a622ee7c1161017c578063b88d4fde11610156578063b88d4fde14610bb5578063baf11db814610c79578063c494448e14610c9f578063c4d66de814610ccd57610383565b8063a622ee7c14610b3d578063ab033ea914610b63578063b02bf4b914610b8957610383565b80639e7e0e83116101b85780639e7e0e8314610ab35780639ec5a89414610ad9578063a1578b6a14610ae1578063a22cb46514610b0f57610383565b80638da1df4d14610a7d5780638da5cb5b14610aa357806395d89b4114610aab57610383565b80634f6ccce7116102b85780636c285cc611610256578063714ccf7b11610230578063714ccf7b146109cb578063715018a6146109f957806372cb5d9714610a015780638c509eae14610a2f57610383565b80636c285cc6146108195780636dcd64e51461096f57806370a08231146109a557610383565b80636352211e116102925780636352211e146107cf578063674e694f146107ec5780636ac5db19146108095780636c0360eb1461081157610383565b80634f6ccce71461077c578063590bbb60146107995780635aa6e675146107c757610383565b80631fe4a686116103255780632f745c59116102ff5780632f745c591461058957806339ebf823146105b55780633b36c7f8146105db57806342842e0e1461074657610383565b80631fe4a6861461052557806323b872dd1461052d5780632c3261091461056357610383565b8063081812fc11610361578063081812fc14610478578063095ea7b3146104b157806318160ddd146104dd578063197baa6d146104f757610383565b806301ffc9a71461038857806304209f48146103c357806306fdde03146103fb575b600080fd5b6103af6004803603602081101561039e57600080fd5b50356001600160e01b031916610f00565b604080519115158252519081900360200190f35b6103f9600480360360608110156103d957600080fd5b506001600160a01b03813581169160208101359091169060400135610f23565b005b61040361153a565b6040805160208082528351818301528351919283929083019185019080838360005b8381101561043d578181015183820152602001610425565b50505050905090810190601f16801561046a5780820380516001836020036101000a031916815260200191505b509250505060405180910390f35b6104956004803603602081101561048e57600080fd5b50356115d0565b604080516001600160a01b039092168252519081900360200190f35b6103f9600480360360408110156104c757600080fd5b506001600160a01b038135169060200135611632565b6104e561170d565b60408051918252519081900360200190f35b6103f96004803603604081101561050d57600080fd5b506001600160a01b038135811691602001351661171e565b6104956117eb565b6103f96004803603606081101561054357600080fd5b506001600160a01b038135811691602081013590911690604001356117fa565b6103af6004803603602081101561057957600080fd5b50356001600160a01b0316611851565b6104e56004803603604081101561059f57600080fd5b506001600160a01b038135169060200135611867565b610495600480360360208110156105cb57600080fd5b50356001600160a01b0316611892565b6103f960048036036101408110156105f257600080fd5b6001600160a01b0382358116926020810135821692604082013583169260608301359260808101359260a08201359260c0830135169160e0810135918101906101208101610100820135600160201b81111561064d57600080fd5b82018360208201111561065f57600080fd5b803590602001918460018302840111600160201b8311171561068057600080fd5b91908080601f0160208091040260200160405190810160405280939291908181526020018383808284376000920191909152509295949360208101935035915050600160201b8111156106d257600080fd5b8201836020820111156106e457600080fd5b803590602001918460018302840111600160201b8311171561070557600080fd5b91908080601f0160208091040260200160405190810160405280939291908181526020018383808284376000920191909152509295506118ad945050505050565b6103f96004803603606081101561075c57600080fd5b506001600160a01b03813581169160208101359091169060400135611cf9565b6104e56004803603602081101561079257600080fd5b5035611d14565b6103f9600480360360408110156107af57600080fd5b506001600160a01b0381358116916020013516611d2a565b610495611da8565b610495600480360360208110156107e557600080fd5b5035611db7565b6103f96004803603602081101561080257600080fd5b5035611ddf565b6104e5611e31565b610403611e37565b6103f9600480360360e081101561082f57600080fd5b6001600160a01b038235811692602081013582169260408201359260608301359260808101359091169181019060c0810160a0820135600160201b81111561087657600080fd5b82018360208201111561088857600080fd5b803590602001918460018302840111600160201b831117156108a957600080fd5b91908080601f0160208091040260200160405190810160405280939291908181526020018383808284376000920191909152509295949360208101935035915050600160201b8111156108fb57600080fd5b82018360208201111561090d57600080fd5b803590602001918460018302840111600160201b8311171561092e57600080fd5b91908080601f016020809104026020016040519081016040528093929190818152602001838380828437600092019190915250929550611e98945050505050565b6104e56004803603606081101561098557600080fd5b506001600160a01b038135811691602081013590911690604001356122ce565b6104e5600480360360208110156109bb57600080fd5b50356001600160a01b0316612503565b6103f9600480360360408110156109e157600080fd5b506001600160a01b038135811691602001351661250e565b6103f96125f3565b6103f960048036036040811015610a1757600080fd5b506001600160a01b03813581169160200135166126b1565b610a4c60048036036020811015610a4557600080fd5b5035612822565b60405180836001600160a01b03168152602001826002811115610a6b57fe5b81526020019250505060405180910390f35b6103f960048036036020811015610a9357600080fd5b50356001600160a01b031661284a565b6104956128b9565b6104036128c8565b6104e560048036036020811015610ac957600080fd5b50356001600160a01b0316612929565b61049561293c565b6103af60048036036040811015610af757600080fd5b506001600160a01b038135811691602001351661294b565b6103f960048036036040811015610b2557600080fd5b506001600160a01b038135169060200135151561296b565b61049560048036036020811015610b5357600080fd5b50356001600160a01b0316612a70565b6103f960048036036020811015610b7957600080fd5b50356001600160a01b0316612a8b565b6103f960048036036040811015610b9f57600080fd5b506001600160a01b038135169060200135612afa565b6103f960048036036080811015610bcb57600080fd5b6001600160a01b03823581169260208101359091169160408201359190810190608081016060820135600160201b811115610c0557600080fd5b820183602082011115610c1757600080fd5b803590602001918460018302840111600160201b83111715610c3857600080fd5b91908080601f016020809104026020016040519081016040528093929190818152602001838380828437600092019190915250929550612cc6945050505050565b6104e560048036036020811015610c8f57600080fd5b50356001600160a01b0316612d24565b6103f960048036036040811015610cb557600080fd5b506001600160a01b0381358116916020013516612d37565b6103f960048036036020811015610ce357600080fd5b50356001600160a01b0316612db8565b6103f960048036036040811015610d0957600080fd5b506001600160a01b038135169060200135612fa4565b6103f960048036036020811015610d3557600080fd5b50356001600160a01b031661301e565b61040360048036036020811015610d5b57600080fd5b503561308d565b6103f960048036036060811015610d7857600080fd5b506001600160a01b03813581169160208101358216916040909101351661330e565b6104956133ad565b61049560048036036040811015610db857600080fd5b506001600160a01b03813581169160200135166133c5565b61049560048036036020811015610de657600080fd5b50356001600160a01b03166133eb565b6103af60048036036040811015610e0c57600080fd5b506001600160a01b0381358116916020013516613407565b6103f960048036036020811015610e3a57600080fd5b50356001600160a01b0316613435565b6103f960048036036040811015610e6057600080fd5b506001600160a01b03813581169160200135166134a4565b6103f960048036036020811015610e8e57600080fd5b50356001600160a01b0316613574565b6103f960048036036040811015610eb457600080fd5b506001600160a01b038135169060200135613689565b6104956136ea565b6104e56136f9565b6103f960048036036020811015610ef057600080fd5b50356001600160a01b03166136ff565b6001600160e01b031981166000908152606e602052604090205460ff165b919050565b6001546001600160a01b0316331480610f4657506000546001600160a01b031633145b610f85576040805162461bcd60e51b815260206004820152600b60248201526a21676f7665726e616e636560a81b604482015290519081900360640190fd5b6000826001600160a01b03166370a08231306040518263ffffffff1660e01b815260040180826001600160a01b0316815260200191505060206040518083038186803b158015610fd457600080fd5b505afa158015610fe8573d6000803e3d6000fd5b505050506040513d6020811015610ffe57600080fd5b5051604080516351cff8d960e01b81526001600160a01b0386811660048301529151929350908616916351cff8d99160248082019260009290919082900301818387803b15801561104e57600080fd5b505af1158015611062573d6000803e3d6000fd5b505050506000836001600160a01b03166370a08231306040518263ffffffff1660e01b815260040180826001600160a01b0316815260200191505060206040518083038186803b1580156110b557600080fd5b505afa1580156110c9573d6000803e3d6000fd5b505050506040513d60208110156110df57600080fd5b50519050818111156115335760006110f782846137c5565b90506000866001600160a01b0316631f1fcd516040518163ffffffff1660e01b815260040160206040518083038186803b15801561113457600080fd5b505afa158015611148573d6000803e3d6000fd5b505050506040513d602081101561115e57600080fd5b5051604080516370a0823160e01b815230600482015290519192506060916000916001600160a01b038516916370a0823191602480820192602092909190829003018186803b1580156111b057600080fd5b505afa1580156111c4573d6000803e3d6000fd5b505050506040513d60208110156111da57600080fd5b50516002549096506111fa906001600160a01b038a811691166000613822565b600254611214906001600160a01b038a8116911686613822565b6002546040805163085e2c5b60e01b81526001600160a01b038b81166004830152868116602483015260448201889052606482018b9052600060848301819052925193169263085e2c5b9260a480840193919291829003018186803b15801561127c57600080fd5b505afa158015611290573d6000803e3d6000fd5b505050506040513d6000823e601f3d908101601f1916820160409081528110156112b957600080fd5b815160208301805160405192949293830192919084600160201b8211156112df57600080fd5b9083019060208201858111156112f457600080fd5b82518660208202830111600160201b8211171561131057600080fd5b82525081516020918201928201910280838360005b8381101561133d578181015183820152602001611325565b505050509050016040525050508093508192505050600260009054906101000a90046001600160a01b03166001600160a01b031663e2a7515e898587858760006040518763ffffffff1660e01b815260040180876001600160a01b03168152602001866001600160a01b0316815260200185815260200184815260200180602001838152602001828103825284818151815260200191508051906020019060200280838360005b838110156113fc5781810151838201526020016113e4565b50505050905001975050505050505050602060405180830381600087803b15801561142657600080fd5b505af115801561143a573d6000803e3d6000fd5b505050506040513d602081101561145057600080fd5b5050604080516370a0823160e01b815230600482015290516001600160a01b038516916370a08231916024808301926020929190829003018186803b15801561149857600080fd5b505afa1580156114ac573d6000803e3d6000fd5b505050506040513d60208110156114c257600080fd5b505194508585111561152e576114d885876137c5565b935060006114fd6127106114f76008548861393590919063ffffffff16565b9061398e565b90506115128461150d87846137c5565b612afa565b60035461152c906001600160a01b038681169116836139f5565b505b505050505b5050505050565b60a58054604080516020601f60026000196101006001881615020190951694909404938401819004810282018101909252828152606093909290918301828280156115c65780601f1061159b576101008083540402835291602001916115c6565b820191906000526020600020905b8154815290600101906020018083116115a957829003601f168201915b5050505050905090565b60006115db82613a47565b6116165760405162461bcd60e51b815260040180806020018281038252602c815260200180615367602c913960400191505060405180910390fd5b50600090815260a360205260409020546001600160a01b031690565b600061163d82611db7565b9050806001600160a01b0316836001600160a01b031614156116905760405162461bcd60e51b81526004018080602001828103825260218152602001806153eb6021913960400191505060405180910390fd5b806001600160a01b03166116a2613a54565b6001600160a01b031614806116c357506116c3816116be613a54565b613407565b6116fe5760405162461bcd60e51b81526004018080602001828103825260388152602001806152736038913960400191505060405180910390fd5b6117088383613a58565b505050565b600061171960a1613ac6565b905090565b6001546001600160a01b031633148061174157506000546001600160a01b031633145b611780576040805162461bcd60e51b815260206004820152600b60248201526a21676f7665726e616e636560a81b604482015290519081900360640190fd5b816001600160a01b03166351cff8d9826040518263ffffffff1660e01b815260040180826001600160a01b03168152602001915050600060405180830381600087803b1580156117cf57600080fd5b505af11580156117e3573d6000803e3d6000fd5b505050505050565b6001546001600160a01b031681565b61180b611805613a54565b82613ad1565b6118465760405162461bcd60e51b815260040180806020018281038252603181526020018061540c6031913960400191505060405180910390fd5b611708838383613b75565b6101096020526000908152604090205460ff1681565b6001600160a01b038216600090815260a0602052604081206118899083613cc1565b90505b92915050565b6005602052600090815260409020546001600160a01b031681565b60006040518060c001604052808b6001600160a01b031681526020018a6001600160a01b03168152602001898152602001878152602001866001600160a01b031681526020018481525090506000611905828d613ccd565b90506001600082815261010a6020526040902054600160a01b900460ff16600281111561192e57fe5b14611980576040805162461bcd60e51b815260206004820152601f60248201527f6c6f616e206973206e6f7420696e2074686520554e5041494420737461746500604482015290519081900360640190fd5b611989336133eb565b6001600160a01b0316635583376e896040518263ffffffff1660e01b815260040180828152602001915050600060405180830381600087803b1580156119ce57600080fd5b505af11580156119e2573d6000803e3d6000fd5b50505050856001600160a01b031663fd8e915483600001518c8b8b896040518663ffffffff1660e01b815260040180866001600160a01b03168152602001856001600160a01b0316815260200184815260200183815260200180602001828103825283818151815260200191508051906020019080838360005b83811015611a74578181015183820152602001611a5c565b50505050905090810190601f168015611aa15780820380516001836020036101000a031916815260200191505b509650505050505050600060405180830381600087803b158015611ac457600080fd5b505af1158015611ad8573d6000803e3d6000fd5b505060408051631b95e30560e01b81526001600160a01b038e166004820152905173e80d347df1209a76dd9d2319d62912ba98c54ddd9350631b95e30592506024808301926020929190829003018186803b158015611b3657600080fd5b505afa158015611b4a573d6000803e3d6000fd5b505050506040513d6020811015611b6057600080fd5b50516040805160208181018b81528284019384528851606084015288516001600160a01b039095169463159ab14d948d948b94919260809091019185019080838360005b83811015611bbc578181015183820152602001611ba4565b50505050905090810190601f168015611be95780820380516001836020036101000a031916815260200191505b509350505050604051602081830303815290604052805190602001208a88876040518563ffffffff1660e01b81526004018085815260200184815260200183815260200180602001828103825283818151815260200191508051906020019080838360005b83811015611c66578181015183820152602001611c4e565b50505050905090810190601f168015611c935780820380516001836020036101000a031916815260200191505b5095505050505050602060405180830381600087803b158015611cb557600080fd5b505af1158015611cc9573d6000803e3d6000fd5b505050506040513d6020811015611cdf57600080fd5b50611ceb90508a613d79565b505050505050505050505050565b61170883838360405180602001604052806000815250612cc6565b600080611d2260a184613d7c565b509392505050565b6000546001600160a01b03163314611d77576040805162461bcd60e51b815260206004820152600b60248201526a21676f7665726e616e636560a81b604482015290519081900360640190fd5b6001600160a01b0391821660009081526007602090815260408083209390941682529190915220805460ff19169055565b6000546001600160a01b031681565b600061188c826040518060600160405280602981526020016152ab6029913960a19190613d98565b6000546001600160a01b03163314611e2c576040805162461bcd60e51b815260206004820152600b60248201526a21676f7665726e616e636560a81b604482015290519081900360640190fd5b600855565b61271081565b60a88054604080516020601f60026000196101006001881615020190951694909404938401819004810282018101909252828152606093909290918301828280156115c65780601f1061159b576101008083540402835291602001916115c6565b6000611eb4611ea6336133eb565b6001600160a01b0316611db7565b6001600160a01b03161415611f10576040805162461bcd60e51b815260206004820152601d60248201527f6d7573742062652063616c6c656420627920756e646572777269746572000000604482015290519081900360640190fd5b6040805160c0810182526001600160a01b0389811682528881166020808401919091528284018990526060808401899052918716608084015260a083018690528351918b901b6bffffffffffffffffffffffff1916828201526034808301899052845180840390910181526054909201909352805192019190912033611f968285613daf565b6001600160a01b031614611fe5576040805162461bcd60e51b8152602060048201526011602482015270696e76616c6964207369676e617475726560781b604482015290519081900360640190fd5b60008082815261010a6020526040902054600160a01b900460ff16600281111561200b57fe5b1461205d576040805162461bcd60e51b815260206004820152601760248201527f616c7265616479207370656e742074686973206c6f616e000000000000000000604482015290519081900360640190fd5b604080518082019091523381526020810160019052600082815261010a60209081526040909120825181546001600160a01b0319166001600160a01b0390911617808255918301519091829060ff60a01b1916600160a01b8360028111156120c157fe5b021790555090505060006120d4336133eb565b6001600160a01b03166346b9edf48460800151836040518363ffffffff1660e01b815260040180836001600160a01b0316815260200182815260200192505050600060405180830381600087803b15801561212e57600080fd5b505af1158015612142573d6000803e3d6000fd5b505050506020838101516001600160a01b0390811660009081526005909252604080832054815163014c177960e71b81528a8416600482015260248101869052915192169263a60bbc809260448084019382900301818387803b1580156121a857600080fd5b505af11580156121bc573d6000803e3d6000fd5b50505050856001600160a01b0316631639743b846000015185602001518487606001518860a001516040518663ffffffff1660e01b815260040180866001600160a01b03168152602001856001600160a01b0316815260200184815260200183815260200180602001828103825283818151815260200191508051906020019080838360005b8381101561225a578181015183820152602001612242565b50505050905090810190601f1680156122875780820380516001836020036101000a031916815260200191505b509650505050505050600060405180830381600087803b1580156122aa57600080fd5b505af11580156122be573d6000803e3d6000fd5b5050505050505050505050505050565b600080836001600160a01b03166370a08231866040518263ffffffff1660e01b815260040180826001600160a01b0316815260200191505060206040518083038186803b15801561231e57600080fd5b505afa158015612332573d6000803e3d6000fd5b505050506040513d602081101561234857600080fd5b505160408051631f1fcd5160e01b815290519192506000916001600160a01b03881691631f1fcd51916004808301926020929190829003018186803b15801561239057600080fd5b505afa1580156123a4573d6000803e3d6000fd5b505050506040513d60208110156123ba57600080fd5b50516002546040805163085e2c5b60e01b81526001600160a01b0389811660048301528085166024830152604482018790526064820189905260006084830181905292519495509092169263085e2c5b9260a4808201939291829003018186803b15801561242757600080fd5b505afa15801561243b573d6000803e3d6000fd5b505050506040513d6000823e601f3d908101601f19168201604090815281101561246457600080fd5b815160208301805160405192949293830192919084600160201b82111561248a57600080fd5b90830190602082018581111561249f57600080fd5b82518660208202830111600160201b821117156124bb57600080fd5b82525081516020918201928201910280838360005b838110156124e85781810151838201526020016124d0565b50505050905001604052505050508093505050509392505050565b600061188c82613e2f565b6001546001600160a01b031633148061253157506000546001600160a01b031633145b612570576040805162461bcd60e51b815260206004820152600b60248201526a085cdd1c985d1959da5cdd60aa1b604482015290519081900360640190fd5b6001600160a01b0382811660009081526004602052604090205416156125c5576040805162461bcd60e51b81526020600482015260056024820152641d985d5b1d60da1b604482015290519081900360640190fd5b6001600160a01b03918216600090815260046020526040902080546001600160a01b03191691909216179055565b6125fb613a54565b6001600160a01b031661260c6128b9565b6001600160a01b031614612667576040805162461bcd60e51b815260206004820181905260248201527f4f776e61626c653a2063616c6c6572206973206e6f7420746865206f776e6572604482015290519081900360640190fd5b603c546040516000916001600160a01b0316907f8be0079c531659141344cd1fd0a4f28419497f9722a3daafe3b4186f6b6457e0908390a3603c80546001600160a01b0319169055565b6001546001600160a01b03163314806126d457506000546001600160a01b031633145b612713576040805162461bcd60e51b815260206004820152600b60248201526a085cdd1c985d1959da5cdd60aa1b604482015290519081900360640190fd5b6001600160a01b0380831660009081526007602090815260408083209385168352929052205460ff16151560011461277e576040805162461bcd60e51b815260206004820152600960248201526808585c1c1c9bdd995960ba1b604482015290519081900360640190fd5b6001600160a01b038083166000908152600560205260409020541680156127f357806001600160a01b031663853828b66040518163ffffffff1660e01b8152600401600060405180830381600087803b1580156127da57600080fd5b505af11580156127ee573d6000803e3d6000fd5b505050505b506001600160a01b03918216600090815260056020526040902080546001600160a01b03191691909216179055565b61010a602052600090815260409020546001600160a01b03811690600160a01b900460ff1682565b6000546001600160a01b03163314612897576040805162461bcd60e51b815260206004820152600b60248201526a21676f7665726e616e636560a81b604482015290519081900360640190fd5b600280546001600160a01b0319166001600160a01b0392909216919091179055565b603c546001600160a01b031690565b60a68054604080516020601f60026000196101006001881615020190951694909404938401819004810282018101909252828152606093909290918301828280156115c65780601f1061159b576101008083540402835291602001916115c6565b6101086020526000908152604090205481565b6003546001600160a01b031681565b600760209081526000928352604080842090915290825290205460ff1681565b612973613a54565b6001600160a01b0316826001600160a01b031614156129d9576040805162461bcd60e51b815260206004820152601960248201527f4552433732313a20617070726f766520746f2063616c6c657200000000000000604482015290519081900360640190fd5b8060a460006129e6613a54565b6001600160a01b03908116825260208083019390935260409182016000908120918716808252919093529120805460ff191692151592909217909155612a2a613a54565b6001600160a01b03167f17307eab39ab6107e8899845ad3d59bd9653f200f220920489ca2b5937696c318360405180821515815260200191505060405180910390a35050565b6004602052600090815260409020546001600160a01b031681565b6000546001600160a01b03163314612ad8576040805162461bcd60e51b815260206004820152600b60248201526a21676f7665726e616e636560a81b604482015290519081900360640190fd5b600080546001600160a01b0319166001600160a01b0392909216919091179055565b6001600160a01b038083166000908152600560209081526040808320548151631f1fcd5160e01b815291519416938492631f1fcd519260048082019391829003018186803b158015612b4b57600080fd5b505afa158015612b5f573d6000803e3d6000fd5b505050506040513d6020811015612b7557600080fd5b505190506001600160a01b0380821690851614612c59576001600160a01b038085166000818152600660209081526040808320868616845290915290205490911690612bc29082866139f5565b806001600160a01b031663def2489b846040518263ffffffff1660e01b815260040180826001600160a01b03168152602001915050602060405180830381600087803b158015612c1157600080fd5b505af1158015612c25573d6000803e3d6000fd5b505050506040513d6020811015612c3b57600080fd5b50519350612c536001600160a01b03831684866139f5565b50612c6d565b612c6d6001600160a01b03851683856139f5565b816001600160a01b031663d0e30db06040518163ffffffff1660e01b8152600401600060405180830381600087803b158015612ca857600080fd5b505af1158015612cbc573d6000803e3d6000fd5b5050505050505050565b612cd7612cd1613a54565b83613ad1565b612d125760405162461bcd60e51b815260040180806020018281038252603181526020018061540c6031913960400191505060405180910390fd5b612d1e84848484613ed8565b50505050565b6101076020526000908152604090205481565b6000546001600160a01b03163314612d84576040805162461bcd60e51b815260206004820152600b60248201526a21676f7665726e616e636560a81b604482015290519081900360640190fd5b6001600160a01b0391821660009081526007602090815260408083209390941682529190915220805460ff19166001179055565b612dc0613f2a565b612dc981614023565b612e176040518060400160405280600e81526020016d2d32b937a1b7b73a3937b63632b960911b815250604051806040016040528060068152602001655a575249544560d01b81525061407f565b612e606040518060400160405280600e81526020016d2d32b937a1b7b73a3937b63632b960911b815250604051806040016040528060018152602001603160f81b81525061417a565b73__$ec2a3eaceaa7013178bbf2660e1d8c4363$__636d4ce63c6040518163ffffffff1660e01b815260040160006040518083038186803b158015612ea457600080fd5b505af4158015612eb8573d6000803e3d6000fd5b505050506040513d6000823e601f3d908101601f191682016040526020811015612ee157600080fd5b8101908080516040519392919084600160201b821115612f0057600080fd5b908301906020820185811115612f1557600080fd5b8251600160201b811182820188101715612f2e57600080fd5b82525081516020918201929091019080838360005b83811015612f5b578181015183820152602001612f43565b50505050905090810190601f168015612f885780820380516001836020036101000a031916815260200191505b50604052505061010680546001600160a01b0319169055505050565b6001546001600160a01b0316331480612fc757506000546001600160a01b031633145b613006576040805162461bcd60e51b815260206004820152600b60248201526a21676f7665726e616e636560a81b604482015290519081900360640190fd5b61301a6001600160a01b03831633836139f5565b5050565b6000546001600160a01b0316331461306b576040805162461bcd60e51b815260206004820152600b60248201526a21676f7665726e616e636560a81b604482015290519081900360640190fd5b600180546001600160a01b0319166001600160a01b0392909216919091179055565b606061309882613a47565b6130d35760405162461bcd60e51b815260040180806020018281038252602f8152602001806153bc602f913960400191505060405180910390fd5b600082815260a7602090815260408083208054825160026001831615610100026000190190921691909104601f8101859004850282018501909352828152929091908301828280156131665780601f1061313b57610100808354040283529160200191613166565b820191906000526020600020905b81548152906001019060200180831161314957829003601f168201915b505050505090506000613177611e37565b905080516000141561318b57509050610f1e565b81511561324c5780826040516020018083805190602001908083835b602083106131c65780518252601f1990920191602091820191016131a7565b51815160209384036101000a600019018019909216911617905285519190930192850191508083835b6020831061320e5780518252601f1990920191602091820191016131ef565b6001836020036101000a0380198251168184511680821785525050505050509050019250505060405160208183030381529060405292505050610f1e565b806132568561423a565b6040516020018083805190602001908083835b602083106132885780518252601f199092019160209182019101613269565b51815160209384036101000a600019018019909216911617905285519190930192850191508083835b602083106132d05780518252601f1990920191602091820191016132b1565b6001836020036101000a0380198251168184511680821785525050505050509050019250505060405160208183030381529060405292505050919050565b6001546001600160a01b031633148061333157506000546001600160a01b031633145b613370576040805162461bcd60e51b815260206004820152600b60248201526a085cdd1c985d1959da5cdd60aa1b604482015290519081900360640190fd5b6001600160a01b03928316600090815260066020908152604080832094861683529390529190912080546001600160a01b03191691909216179055565b73e80d347df1209a76dd9d2319d62912ba98c54ddd81565b60066020908152600092835260408084209091529082529020546001600160a01b031681565b6101065460009061188c9030906001600160a01b031684614315565b6001600160a01b03918216600090815260a46020908152604080832093909416825291909152205460ff1690565b6000546001600160a01b03163314613482576040805162461bcd60e51b815260206004820152600b60248201526a21676f7665726e616e636560a81b604482015290519081900360640190fd5b600380546001600160a01b0319166001600160a01b0392909216919091179055565b60006134f861010660009054906101000a90046001600160a01b03168460405160200180826001600160a01b031660601b815260140191505060405160208183030381529060405280519060200120614334565b9050806001600160a01b031663c4d66de8836040518263ffffffff1660e01b815260040180826001600160a01b03168152602001915050600060405180830381600087803b15801561354957600080fd5b505af115801561355d573d6000803e3d6000fd5b5050505061170833826001600160a01b0316614354565b61357c613a54565b6001600160a01b031661358d6128b9565b6001600160a01b0316146135e8576040805162461bcd60e51b815260206004820181905260248201527f4f776e61626c653a2063616c6c6572206973206e6f7420746865206f776e6572604482015290519081900360640190fd5b6001600160a01b03811661362d5760405162461bcd60e51b81526004018080602001828103825260268152602001806151b56026913960400191505060405180910390fd5b603c546040516001600160a01b038084169216907f8be0079c531659141344cd1fd0a4f28419497f9722a3daafe3b4186f6b6457e090600090a3603c80546001600160a01b0319166001600160a01b0392909216919091179055565b6001600160a01b038281166000908152600460205260409020541633146136e0576040805162461bcd60e51b8152602060048201526006602482015265085d985d5b1d60d21b604482015290519081900360640190fd5b61301a8282614482565b6002546001600160a01b031681565b60085481565b6001546001600160a01b031633148061372257506000546001600160a01b031633145b613761576040805162461bcd60e51b815260206004820152600b60248201526a085cdd1c985d1959da5cdd60aa1b604482015290519081900360640190fd5b6001600160a01b0380821660009081526005602052604080822054815163429c145b60e11b8152915193169263853828b69260048084019391929182900301818387803b1580156137b157600080fd5b505af1158015611533573d6000803e3d6000fd5b60008282111561381c576040805162461bcd60e51b815260206004820152601e60248201527f536166654d6174683a207375627472616374696f6e206f766572666c6f770000604482015290519081900360640190fd5b50900390565b8015806138a8575060408051636eb1769f60e11b81523060048201526001600160a01b03848116602483015291519185169163dd62ed3e91604480820192602092909190829003018186803b15801561387a57600080fd5b505afa15801561388e573d6000803e3d6000fd5b505050506040513d60208110156138a457600080fd5b5051155b6138e35760405162461bcd60e51b81526004018080602001828103825260368152602001806154676036913960400191505060405180910390fd5b604080516001600160a01b038416602482015260448082018490528251808303909101815260649091019091526020810180516001600160e01b031663095ea7b360e01b1790526117089084906144d9565b6000826139445750600061188c565b8282028284828161395157fe5b04146118895760405162461bcd60e51b81526004018080602001828103825260218152602001806153466021913960400191505060405180910390fd5b60008082116139e4576040805162461bcd60e51b815260206004820152601a60248201527f536166654d6174683a206469766973696f6e206279207a65726f000000000000604482015290519081900360640190fd5b8183816139ed57fe5b049392505050565b604080516001600160a01b038416602482015260448082018490528251808303909101815260649091019091526020810180516001600160e01b031663a9059cbb60e01b1790526117089084906144d9565b600061188c60a18361458a565b3390565b600081815260a36020526040902080546001600160a01b0319166001600160a01b0384169081179091558190613a8d82611db7565b6001600160a01b03167f8c5be1e5ebec7d5bd14f71427d1e84f3dd0314c0f7b2291e5b200ac8c7c3b92560405160405180910390a45050565b600061188c82614596565b6000613adc82613a47565b613b175760405162461bcd60e51b815260040180806020018281038252602c815260200180615247602c913960400191505060405180910390fd5b6000613b2283611db7565b9050806001600160a01b0316846001600160a01b03161480613b5d5750836001600160a01b0316613b52846115d0565b6001600160a01b0316145b80613b6d5750613b6d8185613407565b949350505050565b826001600160a01b0316613b8882611db7565b6001600160a01b031614613bcd5760405162461bcd60e51b81526004018080602001828103825260298152602001806153936029913960400191505060405180910390fd5b6001600160a01b038216613c125760405162461bcd60e51b81526004018080602001828103825260248152602001806151db6024913960400191505060405180910390fd5b613c1d838383611708565b613c28600082613a58565b6001600160a01b038316600090815260a060205260409020613c4a908261459a565b506001600160a01b038216600090815260a060205260409020613c6d90826145a6565b50613c7a60a182846145b2565b5080826001600160a01b0316846001600160a01b03167fddf252ad1be2c89b69c2b068fc378daa952ba7f163c4a11628f55a4df523b3ef60405160405180910390a4505050565b600061188983836145c8565b600080613b6d7f4ea0dd52c14d6270188cf78556df070a907a1babd4f3e35dec98a436e32b1a4d856020015186604001518688608001518960a001518051906020012060405160200180878152602001866001600160a01b03168152602001858152602001846001600160a01b03168152602001836001600160a01b0316815260200182815260200196505050505050506040516020818303038152906040528051906020012061462c565b50565b6000808080613d8b8686614678565b9097909650945050505050565b6000613da58484846146f3565b90505b9392505050565b60008151604114613e07576040805162461bcd60e51b815260206004820152601f60248201527f45434453413a20696e76616c6964207369676e6174757265206c656e67746800604482015290519081900360640190fd5b60208201516040830151606084015160001a613e25868285856147bd565b9695505050505050565b6001600160a01b038082166000908152600560205260408120549091613e55911661493b565b6001600160a01b0380831660009081526005602090815260409182902054825163722713f760e01b8152925193169263722713f7926004808201939291829003018186803b158015613ea657600080fd5b505afa158015613eba573d6000803e3d6000fd5b505050506040513d6020811015613ed057600080fd5b505192915050565b613ee3848484613b75565b613eef84848484614987565b612d1e5760405162461bcd60e51b81526004018080602001828103825260328152602001806151836032913960400191505060405180910390fd5b600954610100900460ff1680613f435750613f43614aef565b80613f51575060095460ff16155b613f8c5760405162461bcd60e51b815260040180806020018281038252602e8152602001806152d4602e913960400191505060405180910390fd5b600954610100900460ff16158015613fb7576009805460ff1961ff0019909116610100171660011790555b6000613fc1613a54565b603c80546001600160a01b0319166001600160a01b038316908117909155604051919250906000907f8be0079c531659141344cd1fd0a4f28419497f9722a3daafe3b4186f6b6457e0908290a3508015613d79576009805461ff001916905550565b60008054336001600160a01b03199182168117909255600180548216909217909155600280547350fda034c0ce7a8f7efdaebda7aa7ca21cc1267e908316179055600380549091166001600160a01b0392909216919091179055565b600954610100900460ff16806140985750614098614aef565b806140a6575060095460ff16155b6140e15760405162461bcd60e51b815260040180806020018281038252602e8152602001806152d4602e913960400191505060405180910390fd5b600954610100900460ff1615801561410c576009805460ff1961ff0019909116610100171660011790555b825161411f9060a59060208601906150bf565b5081516141339060a69060208501906150bf565b506141446380ac58cd60e01b614b00565b614154635b5e139f60e01b614b00565b61416463780e9d6360e01b614b00565b8015611708576009805461ff0019169055505050565b600954610100900460ff16806141935750614193614aef565b806141a1575060095460ff16155b6141dc5760405162461bcd60e51b815260040180806020018281038252602e8152602001806152d4602e913960400191505060405180910390fd5b600954610100900460ff16158015614207576009805460ff1961ff0019909116610100171660011790555b825160208085019190912083519184019190912060d29190915560d3558015611708576009805461ff0019169055505050565b60608161425f57506040805180820190915260018152600360fc1b6020820152610f1e565b8160005b811561427757600101600a82049150614263565b60008167ffffffffffffffff8111801561429057600080fd5b506040519080825280601f01601f1916602001820160405280156142bb576020820181803683370190505b50859350905060001982015b831561430c57600a840660300160f81b828280600190039350815181106142ea57fe5b60200101906001600160f81b031916908160001a905350600a840493506142c7565b50949350505050565b6000613b6d84848460601b6bffffffffffffffffffffffff1916614b84565b60008061434084614ba0565b9050826037826020016000f5949350505050565b6001600160a01b0382166143af576040805162461bcd60e51b815260206004820181905260248201527f4552433732313a206d696e7420746f20746865207a65726f2061646472657373604482015290519081900360640190fd5b6143b881613a47565b1561440a576040805162461bcd60e51b815260206004820152601c60248201527f4552433732313a20746f6b656e20616c7265616479206d696e74656400000000604482015290519081900360640190fd5b61441660008383611708565b6001600160a01b038216600090815260a06020526040902061443890826145a6565b5061444560a182846145b2565b5060405181906001600160a01b038416906000907fddf252ad1be2c89b69c2b068fc378daa952ba7f163c4a11628f55a4df523b3ef908290a45050565b6001600160a01b03808316600090815260056020526040808220548151632e1a7d4d60e01b8152600481018690529151931692632e1a7d4d9260248084019391929182900301818387803b1580156117cf57600080fd5b600061452e826040518060400160405280602081526020017f5361666545524332303a206c6f772d6c6576656c2063616c6c206661696c6564815250856001600160a01b0316614c019092919063ffffffff16565b8051909150156117085780806020019051602081101561454d57600080fd5b50516117085760405162461bcd60e51b815260040180806020018281038252602a81526020018061543d602a913960400191505060405180910390fd5b60006118898383614c10565b5490565b60006118898383614c28565b60006118898383614cee565b6000613b6d84846001600160a01b038516614d38565b8154600090821061460a5760405162461bcd60e51b81526004018080602001828103825260228152602001806151616022913960400191505060405180910390fd5b82600001828154811061461957fe5b9060005260206000200154905092915050565b6000614636614dcf565b82604051602001808061190160f01b81525060020183815260200182815260200192505050604051602081830303815290604052805190602001209050919050565b8154600090819083106146bc5760405162461bcd60e51b81526004018080602001828103825260228152602001806153246022913960400191505060405180910390fd5b60008460000184815481106146cd57fe5b906000526020600020906002020190508060000154816001015492509250509250929050565b6000828152600184016020526040812054828161478e5760405162461bcd60e51b81526004018080602001828103825283818151815260200191508051906020019080838360005b8381101561475357818101518382015260200161473b565b50505050905090810190601f1680156147805780820380516001836020036101000a031916815260200191505b509250505060405180910390fd5b508460000160018203815481106147a157fe5b9060005260206000209060020201600101549150509392505050565b60007f7fffffffffffffffffffffffffffffff5d576e7357a4501ddfe92f46681b20a082111561481e5760405162461bcd60e51b81526004018080602001828103825260228152602001806151ff6022913960400191505060405180910390fd5b8360ff16601b148061483357508360ff16601c145b61486e5760405162461bcd60e51b81526004018080602001828103825260228152602001806153026022913960400191505060405180910390fd5b600060018686868660405160008152602001604052604051808581526020018460ff1681526020018381526020018281526020019450505050506020604051602081039080840390855afa1580156148ca573d6000803e3d6000fd5b5050604051601f1901519150506001600160a01b038116614932576040805162461bcd60e51b815260206004820152601860248201527f45434453413a20696e76616c6964207369676e61747572650000000000000000604482015290519081900360640190fd5b95945050505050565b604080516001600160a01b0383166024808301919091528251808303909101815260449091019091526020810180516001600160e01b031663161765e160e11b179052613d7990614e0a565b600061499b846001600160a01b0316614e2b565b6149a757506001613b6d565b6000614ab5630a85bd0160e11b6149bc613a54565b88878760405160240180856001600160a01b03168152602001846001600160a01b0316815260200183815260200180602001828103825283818151815260200191508051906020019080838360005b83811015614a23578181015183820152602001614a0b565b50505050905090810190601f168015614a505780820380516001836020036101000a031916815260200191505b5095505050505050604051602081830303815290604052906001600160e01b0319166020820180516001600160e01b038381831617835250505050604051806060016040528060328152602001615183603291396001600160a01b0388169190614c01565b90506000818060200190516020811015614ace57600080fd5b50516001600160e01b031916630a85bd0160e11b1492505050949350505050565b6000614afa30614e2b565b15905090565b6001600160e01b03198082161415614b5f576040805162461bcd60e51b815260206004820152601c60248201527f4552433136353a20696e76616c696420696e7465726661636520696400000000604482015290519081900360640190fd5b6001600160e01b0319166000908152606e60205260409020805460ff19166001179055565b6000613b6d82614b9385614ba0565b8051906020012086614e31565b60408051603780825260608281019093526020820181803683375050733d602d80600a3d3981f3363d3d373d3d3d363d7360601b60208301525060609290921b6034830152506e5af43d82803e903d91602b57fd5bf360881b604882015290565b6060613b6d8484600085614e8c565b60009081526001919091016020526040902054151590565b60008181526001830160205260408120548015614ce45783546000198083019190810190600090879083908110614c5b57fe5b9060005260206000200154905080876000018481548110614c7857fe5b600091825260208083209091019290925582815260018981019092526040902090840190558654879080614ca857fe5b6001900381819060005260206000200160009055905586600101600087815260200190815260200160002060009055600194505050505061188c565b600091505061188c565b6000614cfa8383614c10565b614d305750815460018181018455600084815260208082209093018490558454848252828601909352604090209190915561188c565b50600061188c565b600082815260018401602052604081205480614d9d575050604080518082018252838152602080820184815286546001818101895560008981528481209551600290930290950191825591519082015586548684528188019092529290912055613da8565b82856000016001830381548110614db057fe5b9060005260206000209060020201600101819055506000915050613da8565b60006117197f8b73c3c69bb8fe3d512ecc4cf759cc79239f7b179b0ffacaa9a75d522b39400f614dfd614fe7565b614e05614fed565b614ff3565b80516a636f6e736f6c652e6c6f67602083016000808483855afa5050505050565b3b151590565b604080516001600160f81b031960208083019190915260609390931b6bffffffffffffffffffffffff191660218201526035810194909452605580850193909352805180850390930183526075909301909252805191012090565b606082471015614ecd5760405162461bcd60e51b81526004018080602001828103825260268152602001806152216026913960400191505060405180910390fd5b614ed685614e2b565b614f27576040805162461bcd60e51b815260206004820152601d60248201527f416464726573733a2063616c6c20746f206e6f6e2d636f6e7472616374000000604482015290519081900360640190fd5b600080866001600160a01b031685876040518082805190602001908083835b60208310614f655780518252601f199092019160209182019101614f46565b6001836020036101000a03801982511681845116808217855250505050505090500191505060006040518083038185875af1925050503d8060008114614fc7576040519150601f19603f3d011682016040523d82523d6000602084013e614fcc565b606091505b5091509150614fdc828286615055565b979650505050505050565b60d25490565b60d35490565b60008383836150006150bb565b3060405160200180868152602001858152602001848152602001838152602001826001600160a01b03168152602001955050505050506040516020818303038152906040528051906020012090509392505050565b60608315615064575081613da8565b8251156150745782518084602001fd5b60405162461bcd60e51b815260206004820181815284516024840152845185939192839260440191908501908083836000831561475357818101518382015260200161473b565b4690565b828054600181600116156101000203166002900490600052602060002090601f0160209004810192826150f5576000855561513b565b82601f1061510e57805160ff191683800117855561513b565b8280016001018555821561513b579182015b8281111561513b578251825591602001919060010190615120565b5061514792915061514b565b5090565b5b80821115615147576000815560010161514c56fe456e756d657261626c655365743a20696e646578206f7574206f6620626f756e64734552433732313a207472616e7366657220746f206e6f6e20455243373231526563656976657220696d706c656d656e7465724f776e61626c653a206e6577206f776e657220697320746865207a65726f20616464726573734552433732313a207472616e7366657220746f20746865207a65726f206164647265737345434453413a20696e76616c6964207369676e6174757265202773272076616c7565416464726573733a20696e73756666696369656e742062616c616e636520666f722063616c6c4552433732313a206f70657261746f7220717565727920666f72206e6f6e6578697374656e7420746f6b656e4552433732313a20617070726f76652063616c6c6572206973206e6f74206f776e6572206e6f7220617070726f76656420666f7220616c6c4552433732313a206f776e657220717565727920666f72206e6f6e6578697374656e7420746f6b656e496e697469616c697a61626c653a20636f6e747261637420697320616c726561647920696e697469616c697a656445434453413a20696e76616c6964207369676e6174757265202776272076616c7565456e756d657261626c654d61703a20696e646578206f7574206f6620626f756e6473536166654d6174683a206d756c7469706c69636174696f6e206f766572666c6f774552433732313a20617070726f76656420717565727920666f72206e6f6e6578697374656e7420746f6b656e4552433732313a207472616e73666572206f6620746f6b656e2074686174206973206e6f74206f776e4552433732314d657461646174613a2055524920717565727920666f72206e6f6e6578697374656e7420746f6b656e4552433732313a20617070726f76616c20746f2063757272656e74206f776e65724552433732313a207472616e736665722063616c6c6572206973206e6f74206f776e6572206e6f7220617070726f7665645361666545524332303a204552433230206f7065726174696f6e20646964206e6f7420737563636565645361666545524332303a20617070726f76652066726f6d206e6f6e2d7a65726f20746f206e6f6e2d7a65726f20616c6c6f77616e6365a26469706673582212208e2e3b7091c2236a4586a487bed72d47030cb454e0f9bc3c400a3cae8a2c63d764736f6c63430007060033",
  "linkReferences": {
    "contracts/libraries/bytecode/ZeroUnderwriterLockBytecodeLib.sol": {
      "ZeroUnderwriterLockBytecodeLib": [
        {
          "length": 20,
          "start": 11912
        }
      ]
    }
  },
  "deployedLinkReferences": {
    "contracts/libraries/bytecode/ZeroUnderwriterLockBytecodeLib.sol": {
      "ZeroUnderwriterLockBytecodeLib": [
        {
          "length": 20,
          "start": 11874
        }
      ]
    }
  }
}