{
  "_format": "hh-sol-artifact-1",
  "contractName": "ZeroController",
  "sourceName": "contracts/controllers/ZeroController.sol",
  "abi": [
    {
      "anonymous": false,
      "inputs": [
        {
          "indexed": true,
          "internalType": "address",
          "name": "owner",
          "type": "address"
        },
        {
          "indexed": true,
          "internalType": "address",
          "name": "approved",
          "type": "address"
        },
        {
          "indexed": true,
          "internalType": "uint256",
          "name": "tokenId",
          "type": "uint256"
        }
      ],
      "name": "Approval",
      "type": "event"
    },
    {
      "anonymous": false,
      "inputs": [
        {
          "indexed": true,
          "internalType": "address",
          "name": "owner",
          "type": "address"
        },
        {
          "indexed": true,
          "internalType": "address",
          "name": "operator",
          "type": "address"
        },
        {
          "indexed": false,
          "internalType": "bool",
          "name": "approved",
          "type": "bool"
        }
      ],
      "name": "ApprovalForAll",
      "type": "event"
    },
    {
      "anonymous": false,
      "inputs": [
        {
          "indexed": true,
          "internalType": "address",
          "name": "previousOwner",
          "type": "address"
        },
        {
          "indexed": true,
          "internalType": "address",
          "name": "newOwner",
          "type": "address"
        }
      ],
      "name": "OwnershipTransferred",
      "type": "event"
    },
    {
      "anonymous": false,
      "inputs": [
        {
          "indexed": true,
          "internalType": "address",
          "name": "from",
          "type": "address"
        },
        {
          "indexed": true,
          "internalType": "address",
          "name": "to",
          "type": "address"
        },
        {
          "indexed": true,
          "internalType": "uint256",
          "name": "tokenId",
          "type": "uint256"
        }
      ],
      "name": "Transfer",
      "type": "event"
    },
    {
      "inputs": [
        {
          "internalType": "address",
          "name": "to",
          "type": "address"
        },
        {
          "internalType": "uint256",
          "name": "tokenId",
          "type": "uint256"
        }
      ],
      "name": "approve",
      "outputs": [],
      "stateMutability": "nonpayable",
      "type": "function"
    },
    {
      "inputs": [
        {
          "internalType": "address",
          "name": "_token",
          "type": "address"
        },
        {
          "internalType": "address",
          "name": "_strategy",
          "type": "address"
        }
      ],
      "name": "approveStrategy",
      "outputs": [],
      "stateMutability": "nonpayable",
      "type": "function"
    },
    {
      "inputs": [
        {
          "internalType": "address",
          "name": "",
          "type": "address"
        },
        {
          "internalType": "address",
          "name": "",
          "type": "address"
        }
      ],
      "name": "approvedStrategies",
      "outputs": [
        {
          "internalType": "bool",
          "name": "",
          "type": "bool"
        }
      ],
      "stateMutability": "view",
      "type": "function"
    },
    {
      "inputs": [
        {
          "internalType": "address",
          "name": "_owner",
          "type": "address"
        }
      ],
      "name": "balanceOf",
      "outputs": [
        {
          "internalType": "uint256",
          "name": "result",
          "type": "uint256"
        }
      ],
      "stateMutability": "view",
      "type": "function"
    },
    {
      "inputs": [],
      "name": "baseURI",
      "outputs": [
        {
          "internalType": "string",
          "name": "",
          "type": "string"
        }
      ],
      "stateMutability": "view",
      "type": "function"
    },
    {
      "inputs": [
        {
          "internalType": "address",
          "name": "",
          "type": "address"
        },
        {
          "internalType": "address",
          "name": "",
          "type": "address"
        }
      ],
      "name": "converters",
      "outputs": [
        {
          "internalType": "address",
          "name": "",
          "type": "address"
        }
      ],
      "stateMutability": "view",
      "type": "function"
    },
    {
      "inputs": [
        {
          "internalType": "address",
          "name": "_token",
          "type": "address"
        },
        {
          "internalType": "uint256",
          "name": "_amount",
          "type": "uint256"
        }
      ],
      "name": "earn",
      "outputs": [],
      "stateMutability": "nonpayable",
      "type": "function"
    },
    {
      "inputs": [],
      "name": "gatewayRegistry",
      "outputs": [
        {
          "internalType": "address",
          "name": "",
          "type": "address"
        }
      ],
      "stateMutability": "view",
      "type": "function"
    },
    {
      "inputs": [
        {
          "internalType": "uint256",
          "name": "tokenId",
          "type": "uint256"
        }
      ],
      "name": "getApproved",
      "outputs": [
        {
          "internalType": "address",
          "name": "",
          "type": "address"
        }
      ],
      "stateMutability": "view",
      "type": "function"
    },
    {
      "inputs": [
        {
          "internalType": "address",
          "name": "_strategy",
          "type": "address"
        },
        {
          "internalType": "address",
          "name": "_token",
          "type": "address"
        },
        {
          "internalType": "uint256",
          "name": "parts",
          "type": "uint256"
        }
      ],
      "name": "getExpectedReturn",
      "outputs": [
        {
          "internalType": "uint256",
          "name": "expected",
          "type": "uint256"
        }
      ],
      "stateMutability": "view",
      "type": "function"
    },
    {
      "inputs": [],
      "name": "governance",
      "outputs": [
        {
          "internalType": "address",
          "name": "",
          "type": "address"
        }
      ],
      "stateMutability": "view",
      "type": "function"
    },
    {
      "inputs": [
        {
          "internalType": "address",
          "name": "_strategy",
          "type": "address"
        },
        {
          "internalType": "address",
          "name": "_token",
          "type": "address"
        }
      ],
      "name": "inCaseStrategyTokenGetStuck",
      "outputs": [],
      "stateMutability": "nonpayable",
      "type": "function"
    },
    {
      "inputs": [
        {
          "internalType": "address",
          "name": "_token",
          "type": "address"
        },
        {
          "internalType": "uint256",
          "name": "_amount",
          "type": "uint256"
        }
      ],
      "name": "inCaseTokensGetStuck",
      "outputs": [],
      "stateMutability": "nonpayable",
      "type": "function"
    },
    {
      "inputs": [
        {
          "internalType": "address",
          "name": "_rewards",
          "type": "address"
        }
      ],
      "name": "initialize",
      "outputs": [],
      "stateMutability": "nonpayable",
      "type": "function"
    },
    {
      "inputs": [
        {
          "internalType": "address",
          "name": "owner",
          "type": "address"
        },
        {
          "internalType": "address",
          "name": "operator",
          "type": "address"
        }
      ],
      "name": "isApprovedForAll",
      "outputs": [
        {
          "internalType": "bool",
          "name": "",
          "type": "bool"
        }
      ],
      "stateMutability": "view",
      "type": "function"
    },
    {
      "inputs": [
        {
          "internalType": "address",
          "name": "to",
          "type": "address"
        },
        {
          "internalType": "address",
          "name": "asset",
          "type": "address"
        },
        {
          "internalType": "uint256",
          "name": "amount",
          "type": "uint256"
        },
        {
          "internalType": "uint256",
          "name": "nonce",
          "type": "uint256"
        },
        {
          "internalType": "address",
          "name": "module",
          "type": "address"
        },
        {
          "internalType": "bytes",
          "name": "data",
          "type": "bytes"
        },
        {
          "internalType": "bytes",
          "name": "userSignature",
          "type": "bytes"
        }
      ],
      "name": "loan",
      "outputs": [],
      "stateMutability": "nonpayable",
      "type": "function"
    },
    {
      "inputs": [
        {
          "internalType": "bytes32",
          "name": "",
          "type": "bytes32"
        }
      ],
      "name": "loanStatus",
      "outputs": [
        {
          "internalType": "address",
          "name": "underwriter",
          "type": "address"
        },
        {
          "internalType": "enum ZeroLib.LoanStatusCode",
          "name": "status",
          "type": "uint8"
        }
      ],
      "stateMutability": "view",
      "type": "function"
    },
    {
      "inputs": [
        {
          "internalType": "address",
          "name": "",
          "type": "address"
        }
      ],
      "name": "loaned",
      "outputs": [
        {
          "internalType": "uint256",
          "name": "",
          "type": "uint256"
        }
      ],
      "stateMutability": "view",
      "type": "function"
    },
    {
      "inputs": [
        {
          "internalType": "address",
          "name": "underwriter",
          "type": "address"
        }
      ],
      "name": "lockFor",
      "outputs": [
        {
          "internalType": "contract ZeroUnderwriterLock",
          "name": "result",
          "type": "address"
        }
      ],
      "stateMutability": "view",
      "type": "function"
    },
    {
      "inputs": [],
      "name": "max",
      "outputs": [
        {
          "internalType": "uint256",
          "name": "",
          "type": "uint256"
        }
      ],
      "stateMutability": "view",
      "type": "function"
    },
    {
      "inputs": [
        {
          "internalType": "address",
          "name": "underwriter",
          "type": "address"
        },
        {
          "internalType": "address",
          "name": "vault",
          "type": "address"
        }
      ],
      "name": "mint",
      "outputs": [],
      "stateMutability": "nonpayable",
      "type": "function"
    },
    {
      "inputs": [
        {
          "internalType": "address",
          "name": "",
          "type": "address"
        }
      ],
      "name": "moduleApproved",
      "outputs": [
        {
          "internalType": "bool",
          "name": "",
          "type": "bool"
        }
      ],
      "stateMutability": "view",
      "type": "function"
    },
    {
      "inputs": [],
      "name": "name",
      "outputs": [
        {
          "internalType": "string",
          "name": "",
          "type": "string"
        }
      ],
      "stateMutability": "view",
      "type": "function"
    },
    {
      "inputs": [],
      "name": "onesplit",
      "outputs": [
        {
          "internalType": "address",
          "name": "",
          "type": "address"
        }
      ],
      "stateMutability": "view",
      "type": "function"
    },
    {
      "inputs": [],
      "name": "owner",
      "outputs": [
        {
          "internalType": "address",
          "name": "",
          "type": "address"
        }
      ],
      "stateMutability": "view",
      "type": "function"
    },
    {
      "inputs": [
        {
          "internalType": "uint256",
          "name": "tokenId",
          "type": "uint256"
        }
      ],
      "name": "ownerOf",
      "outputs": [
        {
          "internalType": "address",
          "name": "",
          "type": "address"
        }
      ],
      "stateMutability": "view",
      "type": "function"
    },
    {
      "inputs": [],
      "name": "renounceOwnership",
      "outputs": [],
      "stateMutability": "nonpayable",
      "type": "function"
    },
    {
      "inputs": [
        {
          "internalType": "address",
          "name": "",
          "type": "address"
        }
      ],
      "name": "repaid",
      "outputs": [
        {
          "internalType": "uint256",
          "name": "",
          "type": "uint256"
        }
      ],
      "stateMutability": "view",
      "type": "function"
    },
    {
      "inputs": [
        {
          "internalType": "address",
          "name": "underwriter",
          "type": "address"
        },
        {
          "internalType": "address",
          "name": "to",
          "type": "address"
        },
        {
          "internalType": "address",
          "name": "asset",
          "type": "address"
        },
        {
          "internalType": "uint256",
          "name": "amount",
          "type": "uint256"
        },
        {
          "internalType": "uint256",
          "name": "actualAmount",
          "type": "uint256"
        },
        {
          "internalType": "uint256",
          "name": "nonce",
          "type": "uint256"
        },
        {
          "internalType": "address",
          "name": "module",
          "type": "address"
        },
        {
          "internalType": "bytes32",
          "name": "nHash",
          "type": "bytes32"
        },
        {
          "internalType": "bytes",
          "name": "data",
          "type": "bytes"
        },
        {
          "internalType": "bytes",
          "name": "signature",
          "type": "bytes"
        }
      ],
      "name": "repay",
      "outputs": [],
      "stateMutability": "nonpayable",
      "type": "function"
    },
    {
      "inputs": [
        {
          "internalType": "address",
          "name": "_token",
          "type": "address"
        },
        {
          "internalType": "address",
          "name": "_strategy",
          "type": "address"
        }
      ],
      "name": "revokeStrategy",
      "outputs": [],
      "stateMutability": "nonpayable",
      "type": "function"
    },
    {
      "inputs": [],
      "name": "rewards",
      "outputs": [
        {
          "internalType": "address",
          "name": "",
          "type": "address"
        }
      ],
      "stateMutability": "view",
      "type": "function"
    },
    {
      "inputs": [
        {
          "internalType": "address",
          "name": "from",
          "type": "address"
        },
        {
          "internalType": "address",
          "name": "to",
          "type": "address"
        },
        {
          "internalType": "uint256",
          "name": "tokenId",
          "type": "uint256"
        }
      ],
      "name": "safeTransferFrom",
      "outputs": [],
      "stateMutability": "nonpayable",
      "type": "function"
    },
    {
      "inputs": [
        {
          "internalType": "address",
          "name": "from",
          "type": "address"
        },
        {
          "internalType": "address",
          "name": "to",
          "type": "address"
        },
        {
          "internalType": "uint256",
          "name": "tokenId",
          "type": "uint256"
        },
        {
          "internalType": "bytes",
          "name": "_data",
          "type": "bytes"
        }
      ],
      "name": "safeTransferFrom",
      "outputs": [],
      "stateMutability": "nonpayable",
      "type": "function"
    },
    {
      "inputs": [
        {
          "internalType": "address",
          "name": "operator",
          "type": "address"
        },
        {
          "internalType": "bool",
          "name": "approved",
          "type": "bool"
        }
      ],
      "name": "setApprovalForAll",
      "outputs": [],
      "stateMutability": "nonpayable",
      "type": "function"
    },
    {
      "inputs": [
        {
          "internalType": "address",
          "name": "_input",
          "type": "address"
        },
        {
          "internalType": "address",
          "name": "_output",
          "type": "address"
        },
        {
          "internalType": "address",
          "name": "_converter",
          "type": "address"
        }
      ],
      "name": "setConverter",
      "outputs": [],
      "stateMutability": "nonpayable",
      "type": "function"
    },
    {
      "inputs": [
        {
          "internalType": "address",
          "name": "_governance",
          "type": "address"
        }
      ],
      "name": "setGovernance",
      "outputs": [],
      "stateMutability": "nonpayable",
      "type": "function"
    },
    {
      "inputs": [
        {
          "internalType": "address",
          "name": "_onesplit",
          "type": "address"
        }
      ],
      "name": "setOneSplit",
      "outputs": [],
      "stateMutability": "nonpayable",
      "type": "function"
    },
    {
      "inputs": [
        {
          "internalType": "address",
          "name": "_rewards",
          "type": "address"
        }
      ],
      "name": "setRewards",
      "outputs": [],
      "stateMutability": "nonpayable",
      "type": "function"
    },
    {
      "inputs": [
        {
          "internalType": "uint256",
          "name": "_split",
          "type": "uint256"
        }
      ],
      "name": "setSplit",
      "outputs": [],
      "stateMutability": "nonpayable",
      "type": "function"
    },
    {
      "inputs": [
        {
          "internalType": "address",
          "name": "_strategist",
          "type": "address"
        }
      ],
      "name": "setStrategist",
      "outputs": [],
      "stateMutability": "nonpayable",
      "type": "function"
    },
    {
      "inputs": [
        {
          "internalType": "address",
          "name": "_token",
          "type": "address"
        },
        {
          "internalType": "address",
          "name": "_strategy",
          "type": "address"
        }
      ],
      "name": "setStrategy",
      "outputs": [],
      "stateMutability": "nonpayable",
      "type": "function"
    },
    {
      "inputs": [
        {
          "internalType": "address",
          "name": "_token",
          "type": "address"
        },
        {
          "internalType": "address",
          "name": "_vault",
          "type": "address"
        }
      ],
      "name": "setVault",
      "outputs": [],
      "stateMutability": "nonpayable",
      "type": "function"
    },
    {
      "inputs": [],
      "name": "split",
      "outputs": [
        {
          "internalType": "uint256",
          "name": "",
          "type": "uint256"
        }
      ],
      "stateMutability": "view",
      "type": "function"
    },
    {
      "inputs": [
        {
          "internalType": "address",
          "name": "",
          "type": "address"
        }
      ],
      "name": "strategies",
      "outputs": [
        {
          "internalType": "address",
          "name": "",
          "type": "address"
        }
      ],
      "stateMutability": "view",
      "type": "function"
    },
    {
      "inputs": [],
      "name": "strategist",
      "outputs": [
        {
          "internalType": "address",
          "name": "",
          "type": "address"
        }
      ],
      "stateMutability": "view",
      "type": "function"
    },
    {
      "inputs": [
        {
          "internalType": "bytes4",
          "name": "interfaceId",
          "type": "bytes4"
        }
      ],
      "name": "supportsInterface",
      "outputs": [
        {
          "internalType": "bool",
          "name": "",
          "type": "bool"
        }
      ],
      "stateMutability": "view",
      "type": "function"
    },
    {
      "inputs": [],
      "name": "symbol",
      "outputs": [
        {
          "internalType": "string",
          "name": "",
          "type": "string"
        }
      ],
      "stateMutability": "view",
      "type": "function"
    },
    {
      "inputs": [
        {
          "internalType": "uint256",
          "name": "index",
          "type": "uint256"
        }
      ],
      "name": "tokenByIndex",
      "outputs": [
        {
          "internalType": "uint256",
          "name": "",
          "type": "uint256"
        }
      ],
      "stateMutability": "view",
      "type": "function"
    },
    {
      "inputs": [
        {
          "internalType": "address",
          "name": "owner",
          "type": "address"
        },
        {
          "internalType": "uint256",
          "name": "index",
          "type": "uint256"
        }
      ],
      "name": "tokenOfOwnerByIndex",
      "outputs": [
        {
          "internalType": "uint256",
          "name": "",
          "type": "uint256"
        }
      ],
      "stateMutability": "view",
      "type": "function"
    },
    {
      "inputs": [
        {
          "internalType": "uint256",
          "name": "tokenId",
          "type": "uint256"
        }
      ],
      "name": "tokenURI",
      "outputs": [
        {
          "internalType": "string",
          "name": "",
          "type": "string"
        }
      ],
      "stateMutability": "view",
      "type": "function"
    },
    {
      "inputs": [],
      "name": "totalSupply",
      "outputs": [
        {
          "internalType": "uint256",
          "name": "",
          "type": "uint256"
        }
      ],
      "stateMutability": "view",
      "type": "function"
    },
    {
      "inputs": [
        {
          "internalType": "address",
          "name": "from",
          "type": "address"
        },
        {
          "internalType": "address",
          "name": "to",
          "type": "address"
        },
        {
          "internalType": "uint256",
          "name": "tokenId",
          "type": "uint256"
        }
      ],
      "name": "transferFrom",
      "outputs": [],
      "stateMutability": "nonpayable",
      "type": "function"
    },
    {
      "inputs": [
        {
          "internalType": "address",
          "name": "newOwner",
          "type": "address"
        }
      ],
      "name": "transferOwnership",
      "outputs": [],
      "stateMutability": "nonpayable",
      "type": "function"
    },
    {
      "inputs": [
        {
          "internalType": "address",
          "name": "",
          "type": "address"
        }
      ],
      "name": "vaults",
      "outputs": [
        {
          "internalType": "address",
          "name": "",
          "type": "address"
        }
      ],
      "stateMutability": "view",
      "type": "function"
    },
    {
      "inputs": [
        {
          "internalType": "address",
          "name": "_token",
          "type": "address"
        },
        {
          "internalType": "uint256",
          "name": "_amount",
          "type": "uint256"
        }
      ],
      "name": "withdraw",
      "outputs": [],
      "stateMutability": "nonpayable",
      "type": "function"
    },
    {
      "inputs": [
        {
          "internalType": "address",
          "name": "_token",
          "type": "address"
        }
      ],
      "name": "withdrawAll",
      "outputs": [],
      "stateMutability": "nonpayable",
      "type": "function"
    },
    {
      "inputs": [
        {
          "internalType": "address",
          "name": "_strategy",
          "type": "address"
        },
        {
          "internalType": "address",
          "name": "_token",
          "type": "address"
        },
        {
          "internalType": "uint256",
          "name": "parts",
          "type": "uint256"
        }
      ],
      "name": "yearn",
      "outputs": [],
      "stateMutability": "nonpayable",
      "type": "function"
    }
  ],
  "bytecode": "0x60806040526101f460085534801561001657600080fd5b50615703806100266000396000f3fe608060405234801561001057600080fd5b50600436106103835760003560e01c80638da1df4d116101de578063c6d758cb1161010f578063e985e9c5116100ad578063f3fef3a31161007c578063f3fef3a314610e9e578063f712adbb14610eca578063f765417614610ed2578063fa09e63014610eda57610383565b8063e985e9c514610df6578063ec38a86214610e24578063ee1fe2ad14610e4a578063f2fde38b14610e7857610383565b8063ccd06318116100e9578063ccd0631814610d62578063d693452e14610d9a578063e4f2494d14610da2578063e6b512d414610dd057610383565b8063c6d758cb14610cf3578063c7b9d53014610d1f578063c87b56dd14610d4557610383565b8063a622ee7c1161017c578063b88d4fde11610156578063b88d4fde14610bb5578063baf11db814610c79578063c494448e14610c9f578063c4d66de814610ccd57610383565b8063a622ee7c14610b3d578063ab033ea914610b63578063b02bf4b914610b8957610383565b80639e7e0e83116101b85780639e7e0e8314610ab35780639ec5a89414610ad9578063a1578b6a14610ae1578063a22cb46514610b0f57610383565b80638da1df4d14610a7d5780638da5cb5b14610aa357806395d89b4114610aab57610383565b80634f6ccce7116102b85780636c285cc611610256578063714ccf7b11610230578063714ccf7b146109cb578063715018a6146109f957806372cb5d9714610a015780638c509eae14610a2f57610383565b80636c285cc6146108195780636dcd64e51461096f57806370a08231146109a557610383565b80636352211e116102925780636352211e146107cf578063674e694f146107ec5780636ac5db19146108095780636c0360eb1461081157610383565b80634f6ccce71461077c578063590bbb60146107995780635aa6e675146107c757610383565b80631fe4a686116103255780632f745c59116102ff5780632f745c591461058957806339ebf823146105b55780633b36c7f8146105db57806342842e0e1461074657610383565b80631fe4a6861461052557806323b872dd1461052d5780632c3261091461056357610383565b8063081812fc11610361578063081812fc14610478578063095ea7b3146104b157806318160ddd146104dd578063197baa6d146104f757610383565b806301ffc9a71461038857806304209f48146103c357806306fdde03146103fb575b600080fd5b6103af6004803603602081101561039e57600080fd5b50356001600160e01b031916610f00565b604080519115158252519081900360200190f35b6103f9600480360360608110156103d957600080fd5b506001600160a01b03813581169160208101359091169060400135610f23565b005b61040361153a565b6040805160208082528351818301528351919283929083019185019080838360005b8381101561043d578181015183820152602001610425565b50505050905090810190601f16801561046a5780820380516001836020036101000a031916815260200191505b509250505060405180910390f35b6104956004803603602081101561048e57600080fd5b50356115d0565b604080516001600160a01b039092168252519081900360200190f35b6103f9600480360360408110156104c757600080fd5b506001600160a01b038135169060200135611632565b6104e561170d565b60408051918252519081900360200190f35b6103f96004803603604081101561050d57600080fd5b506001600160a01b038135811691602001351661171e565b6104956117eb565b6103f96004803603606081101561054357600080fd5b506001600160a01b038135811691602081013590911690604001356117fa565b6103af6004803603602081101561057957600080fd5b50356001600160a01b0316611851565b6104e56004803603604081101561059f57600080fd5b506001600160a01b038135169060200135611867565b610495600480360360208110156105cb57600080fd5b50356001600160a01b0316611892565b6103f960048036036101408110156105f257600080fd5b6001600160a01b0382358116926020810135821692604082013583169260608301359260808101359260a08201359260c0830135169160e0810135918101906101208101610100820135600160201b81111561064d57600080fd5b82018360208201111561065f57600080fd5b803590602001918460018302840111600160201b8311171561068057600080fd5b91908080601f0160208091040260200160405190810160405280939291908181526020018383808284376000920191909152509295949360208101935035915050600160201b8111156106d257600080fd5b8201836020820111156106e457600080fd5b803590602001918460018302840111600160201b8311171561070557600080fd5b91908080601f0160208091040260200160405190810160405280939291908181526020018383808284376000920191909152509295506118ad945050505050565b6103f96004803603606081101561075c57600080fd5b506001600160a01b03813581169160208101359091169060400135611cf9565b6104e56004803603602081101561079257600080fd5b5035611d14565b6103f9600480360360408110156107af57600080fd5b506001600160a01b0381358116916020013516611d2a565b610495611da8565b610495600480360360208110156107e557600080fd5b5035611db7565b6103f96004803603602081101561080257600080fd5b5035611ddf565b6104e5611e31565b610403611e37565b6103f9600480360360e081101561082f57600080fd5b6001600160a01b038235811692602081013582169260408201359260608301359260808101359091169181019060c0810160a0820135600160201b81111561087657600080fd5b82018360208201111561088857600080fd5b803590602001918460018302840111600160201b831117156108a957600080fd5b91908080601f0160208091040260200160405190810160405280939291908181526020018383808284376000920191909152509295949360208101935035915050600160201b8111156108fb57600080fd5b82018360208201111561090d57600080fd5b803590602001918460018302840111600160201b8311171561092e57600080fd5b91908080601f016020809104026020016040519081016040528093929190818152602001838380828437600092019190915250929550611e98945050505050565b6104e56004803603606081101561098557600080fd5b506001600160a01b03813581169160208101359091169060400135612359565b6104e5600480360360208110156109bb57600080fd5b50356001600160a01b031661258e565b6103f9600480360360408110156109e157600080fd5b506001600160a01b0381358116916020013516612599565b6103f961267e565b6103f960048036036040811015610a1757600080fd5b506001600160a01b038135811691602001351661273c565b610a4c60048036036020811015610a4557600080fd5b50356128ad565b60405180836001600160a01b03168152602001826002811115610a6b57fe5b81526020019250505060405180910390f35b6103f960048036036020811015610a9357600080fd5b50356001600160a01b03166128d5565b610495612944565b610403612953565b6104e560048036036020811015610ac957600080fd5b50356001600160a01b03166129b4565b6104956129c7565b6103af60048036036040811015610af757600080fd5b506001600160a01b03813581169160200135166129d6565b6103f960048036036040811015610b2557600080fd5b506001600160a01b03813516906020013515156129f6565b61049560048036036020811015610b5357600080fd5b50356001600160a01b0316612afb565b6103f960048036036020811015610b7957600080fd5b50356001600160a01b0316612b16565b6103f960048036036040811015610b9f57600080fd5b506001600160a01b038135169060200135612b85565b6103f960048036036080811015610bcb57600080fd5b6001600160a01b03823581169260208101359091169160408201359190810190608081016060820135600160201b811115610c0557600080fd5b820183602082011115610c1757600080fd5b803590602001918460018302840111600160201b83111715610c3857600080fd5b91908080601f016020809104026020016040519081016040528093929190818152602001838380828437600092019190915250929550612d51945050505050565b6104e560048036036020811015610c8f57600080fd5b50356001600160a01b0316612daf565b6103f960048036036040811015610cb557600080fd5b506001600160a01b0381358116916020013516612dc2565b6103f960048036036020811015610ce357600080fd5b50356001600160a01b0316612e43565b6103f960048036036040811015610d0957600080fd5b506001600160a01b03813516906020013561305b565b6103f960048036036020811015610d3557600080fd5b50356001600160a01b03166130d5565b61040360048036036020811015610d5b57600080fd5b5035613144565b6103f960048036036060811015610d7857600080fd5b506001600160a01b0381358116916020810135821691604090910135166133c5565b610495613464565b61049560048036036040811015610db857600080fd5b506001600160a01b038135811691602001351661347c565b61049560048036036020811015610de657600080fd5b50356001600160a01b03166134a2565b6103af60048036036040811015610e0c57600080fd5b506001600160a01b03813581169160200135166134be565b6103f960048036036020811015610e3a57600080fd5b50356001600160a01b03166134ec565b6103f960048036036040811015610e6057600080fd5b506001600160a01b038135811691602001351661355b565b6103f960048036036020811015610e8e57600080fd5b50356001600160a01b031661364e565b6103f960048036036040811015610eb457600080fd5b506001600160a01b038135169060200135613763565b6104956137c4565b6104e56137d3565b6103f960048036036020811015610ef057600080fd5b50356001600160a01b03166137d9565b6001600160e01b031981166000908152606e602052604090205460ff165b919050565b6001546001600160a01b0316331480610f4657506000546001600160a01b031633145b610f85576040805162461bcd60e51b815260206004820152600b60248201526a21676f7665726e616e636560a81b604482015290519081900360640190fd5b6000826001600160a01b03166370a08231306040518263ffffffff1660e01b815260040180826001600160a01b0316815260200191505060206040518083038186803b158015610fd457600080fd5b505afa158015610fe8573d6000803e3d6000fd5b505050506040513d6020811015610ffe57600080fd5b5051604080516351cff8d960e01b81526001600160a01b0386811660048301529151929350908616916351cff8d99160248082019260009290919082900301818387803b15801561104e57600080fd5b505af1158015611062573d6000803e3d6000fd5b505050506000836001600160a01b03166370a08231306040518263ffffffff1660e01b815260040180826001600160a01b0316815260200191505060206040518083038186803b1580156110b557600080fd5b505afa1580156110c9573d6000803e3d6000fd5b505050506040513d60208110156110df57600080fd5b50519050818111156115335760006110f7828461389f565b90506000866001600160a01b0316631f1fcd516040518163ffffffff1660e01b815260040160206040518083038186803b15801561113457600080fd5b505afa158015611148573d6000803e3d6000fd5b505050506040513d602081101561115e57600080fd5b5051604080516370a0823160e01b815230600482015290519192506060916000916001600160a01b038516916370a0823191602480820192602092909190829003018186803b1580156111b057600080fd5b505afa1580156111c4573d6000803e3d6000fd5b505050506040513d60208110156111da57600080fd5b50516002549096506111fa906001600160a01b038a8116911660006138fc565b600254611214906001600160a01b038a81169116866138fc565b6002546040805163085e2c5b60e01b81526001600160a01b038b81166004830152868116602483015260448201889052606482018b9052600060848301819052925193169263085e2c5b9260a480840193919291829003018186803b15801561127c57600080fd5b505afa158015611290573d6000803e3d6000fd5b505050506040513d6000823e601f3d908101601f1916820160409081528110156112b957600080fd5b815160208301805160405192949293830192919084600160201b8211156112df57600080fd5b9083019060208201858111156112f457600080fd5b82518660208202830111600160201b8211171561131057600080fd5b82525081516020918201928201910280838360005b8381101561133d578181015183820152602001611325565b505050509050016040525050508093508192505050600260009054906101000a90046001600160a01b03166001600160a01b031663e2a7515e898587858760006040518763ffffffff1660e01b815260040180876001600160a01b03168152602001866001600160a01b0316815260200185815260200184815260200180602001838152602001828103825284818151815260200191508051906020019060200280838360005b838110156113fc5781810151838201526020016113e4565b50505050905001975050505050505050602060405180830381600087803b15801561142657600080fd5b505af115801561143a573d6000803e3d6000fd5b505050506040513d602081101561145057600080fd5b5050604080516370a0823160e01b815230600482015290516001600160a01b038516916370a08231916024808301926020929190829003018186803b15801561149857600080fd5b505afa1580156114ac573d6000803e3d6000fd5b505050506040513d60208110156114c257600080fd5b505194508585111561152e576114d8858761389f565b935060006114fd6127106114f760085488613a0f90919063ffffffff16565b90613a68565b90506115128461150d878461389f565b612b85565b60035461152c906001600160a01b03868116911683613acf565b505b505050505b5050505050565b60a58054604080516020601f60026000196101006001881615020190951694909404938401819004810282018101909252828152606093909290918301828280156115c65780601f1061159b576101008083540402835291602001916115c6565b820191906000526020600020905b8154815290600101906020018083116115a957829003601f168201915b5050505050905090565b60006115db82613b21565b6116165760405162461bcd60e51b815260040180806020018281038252602c815260200180615574602c913960400191505060405180910390fd5b50600090815260a360205260409020546001600160a01b031690565b600061163d82611db7565b9050806001600160a01b0316836001600160a01b031614156116905760405162461bcd60e51b815260040180806020018281038252602181526020018061561c6021913960400191505060405180910390fd5b806001600160a01b03166116a2613b2e565b6001600160a01b031614806116c357506116c3816116be613b2e565b6134be565b6116fe5760405162461bcd60e51b81526004018080602001828103825260388152602001806154806038913960400191505060405180910390fd5b6117088383613b32565b505050565b600061171960a1613ba0565b905090565b6001546001600160a01b031633148061174157506000546001600160a01b031633145b611780576040805162461bcd60e51b815260206004820152600b60248201526a21676f7665726e616e636560a81b604482015290519081900360640190fd5b816001600160a01b03166351cff8d9826040518263ffffffff1660e01b815260040180826001600160a01b03168152602001915050600060405180830381600087803b1580156117cf57600080fd5b505af11580156117e3573d6000803e3d6000fd5b505050505050565b6001546001600160a01b031681565b61180b611805613b2e565b82613bab565b6118465760405162461bcd60e51b815260040180806020018281038252603181526020018061563d6031913960400191505060405180910390fd5b611708838383613c4f565b6101096020526000908152604090205460ff1681565b6001600160a01b038216600090815260a0602052604081206118899083613d9b565b90505b92915050565b6005602052600090815260409020546001600160a01b031681565b60006040518060c001604052808b6001600160a01b031681526020018a6001600160a01b03168152602001898152602001878152602001866001600160a01b031681526020018481525090506000611905828d613da7565b90506001600082815261010a6020526040902054600160a01b900460ff16600281111561192e57fe5b14611980576040805162461bcd60e51b815260206004820152601f60248201527f6c6f616e206973206e6f7420696e2074686520554e5041494420737461746500604482015290519081900360640190fd5b611989336134a2565b6001600160a01b0316635583376e896040518263ffffffff1660e01b815260040180828152602001915050600060405180830381600087803b1580156119ce57600080fd5b505af11580156119e2573d6000803e3d6000fd5b50505050856001600160a01b031663fd8e915483600001518c8b8b896040518663ffffffff1660e01b815260040180866001600160a01b03168152602001856001600160a01b0316815260200184815260200183815260200180602001828103825283818151815260200191508051906020019080838360005b83811015611a74578181015183820152602001611a5c565b50505050905090810190601f168015611aa15780820380516001836020036101000a031916815260200191505b509650505050505050600060405180830381600087803b158015611ac457600080fd5b505af1158015611ad8573d6000803e3d6000fd5b505060408051631b95e30560e01b81526001600160a01b038e166004820152905173e80d347df1209a76dd9d2319d62912ba98c54ddd9350631b95e30592506024808301926020929190829003018186803b158015611b3657600080fd5b505afa158015611b4a573d6000803e3d6000fd5b505050506040513d6020811015611b6057600080fd5b50516040805160208181018b81528284019384528851606084015288516001600160a01b039095169463159ab14d948d948b94919260809091019185019080838360005b83811015611bbc578181015183820152602001611ba4565b50505050905090810190601f168015611be95780820380516001836020036101000a031916815260200191505b509350505050604051602081830303815290604052805190602001208a88876040518563ffffffff1660e01b81526004018085815260200184815260200183815260200180602001828103825283818151815260200191508051906020019080838360005b83811015611c66578181015183820152602001611c4e565b50505050905090810190601f168015611c935780820380516001836020036101000a031916815260200191505b5095505050505050602060405180830381600087803b158015611cb557600080fd5b505af1158015611cc9573d6000803e3d6000fd5b505050506040513d6020811015611cdf57600080fd5b50611ceb90508a613e53565b505050505050505050505050565b61170883838360405180602001604052806000815250612d51565b600080611d2260a184613e56565b509392505050565b6000546001600160a01b03163314611d77576040805162461bcd60e51b815260206004820152600b60248201526a21676f7665726e616e636560a81b604482015290519081900360640190fd5b6001600160a01b0391821660009081526007602090815260408083209390941682529190915220805460ff19169055565b6000546001600160a01b031681565b600061188c826040518060600160405280602981526020016154b86029913960a19190613e72565b6000546001600160a01b03163314611e2c576040805162461bcd60e51b815260206004820152600b60248201526a21676f7665726e616e636560a81b604482015290519081900360640190fd5b600855565b61271081565b60a88054604080516020601f60026000196101006001881615020190951694909404938401819004810282018101909252828152606093909290918301828280156115c65780601f1061159b576101008083540402835291602001916115c6565b611ec36040518060400160405280600981526020016853656e64657220697360b81b81525033613e89565b611ef26040518060400160405280600d81526020016c03ab73232b93bb934ba32b91d1609d1b81525033613e89565b611f23604051806040016040528060078152602001664c6f636b20697360c81b815250611f1e336134a2565b613e89565b6000611f3f611f31336134a2565b6001600160a01b0316611db7565b6001600160a01b03161415611f9b576040805162461bcd60e51b815260206004820152601d60248201527f6d7573742062652063616c6c656420627920756e646572777269746572000000604482015290519081900360640190fd5b6040805160c0810182526001600160a01b0389811682528881166020808401919091528284018990526060808401899052918716608084015260a083018690528351918b901b6bffffffffffffffffffffffff19168282015260348083018990528451808403909101815260549092019093528051920191909120336120218285613f40565b6001600160a01b031614612070576040805162461bcd60e51b8152602060048201526011602482015270696e76616c6964207369676e617475726560781b604482015290519081900360640190fd5b60008082815261010a6020526040902054600160a01b900460ff16600281111561209657fe5b146120e8576040805162461bcd60e51b815260206004820152601760248201527f616c7265616479207370656e742074686973206c6f616e000000000000000000604482015290519081900360640190fd5b604080518082019091523381526020810160019052600082815261010a60209081526040909120825181546001600160a01b0319166001600160a01b0390911617808255918301519091829060ff60a01b1916600160a01b83600281111561214c57fe5b0217905550905050600061215f336134a2565b6001600160a01b03166346b9edf48460800151836040518363ffffffff1660e01b815260040180836001600160a01b0316815260200182815260200192505050600060405180830381600087803b1580156121b957600080fd5b505af11580156121cd573d6000803e3d6000fd5b505050506020838101516001600160a01b0390811660009081526005909252604080832054815163014c177960e71b81528a8416600482015260248101869052915192169263a60bbc809260448084019382900301818387803b15801561223357600080fd5b505af1158015612247573d6000803e3d6000fd5b50505050856001600160a01b0316631639743b846000015185602001518487606001518860a001516040518663ffffffff1660e01b815260040180866001600160a01b03168152602001856001600160a01b0316815260200184815260200183815260200180602001828103825283818151815260200191508051906020019080838360005b838110156122e55781810151838201526020016122cd565b50505050905090810190601f1680156123125780820380516001836020036101000a031916815260200191505b509650505050505050600060405180830381600087803b15801561233557600080fd5b505af1158015612349573d6000803e3d6000fd5b5050505050505050505050505050565b600080836001600160a01b03166370a08231866040518263ffffffff1660e01b815260040180826001600160a01b0316815260200191505060206040518083038186803b1580156123a957600080fd5b505afa1580156123bd573d6000803e3d6000fd5b505050506040513d60208110156123d357600080fd5b505160408051631f1fcd5160e01b815290519192506000916001600160a01b03881691631f1fcd51916004808301926020929190829003018186803b15801561241b57600080fd5b505afa15801561242f573d6000803e3d6000fd5b505050506040513d602081101561244557600080fd5b50516002546040805163085e2c5b60e01b81526001600160a01b0389811660048301528085166024830152604482018790526064820189905260006084830181905292519495509092169263085e2c5b9260a4808201939291829003018186803b1580156124b257600080fd5b505afa1580156124c6573d6000803e3d6000fd5b505050506040513d6000823e601f3d908101601f1916820160409081528110156124ef57600080fd5b815160208301805160405192949293830192919084600160201b82111561251557600080fd5b90830190602082018581111561252a57600080fd5b82518660208202830111600160201b8211171561254657600080fd5b82525081516020918201928201910280838360005b8381101561257357818101518382015260200161255b565b50505050905001604052505050508093505050509392505050565b600061188c82613fc0565b6001546001600160a01b03163314806125bc57506000546001600160a01b031633145b6125fb576040805162461bcd60e51b815260206004820152600b60248201526a085cdd1c985d1959da5cdd60aa1b604482015290519081900360640190fd5b6001600160a01b038281166000908152600460205260409020541615612650576040805162461bcd60e51b81526020600482015260056024820152641d985d5b1d60da1b604482015290519081900360640190fd5b6001600160a01b03918216600090815260046020526040902080546001600160a01b03191691909216179055565b612686613b2e565b6001600160a01b0316612697612944565b6001600160a01b0316146126f2576040805162461bcd60e51b815260206004820181905260248201527f4f776e61626c653a2063616c6c6572206973206e6f7420746865206f776e6572604482015290519081900360640190fd5b603c546040516000916001600160a01b0316907f8be0079c531659141344cd1fd0a4f28419497f9722a3daafe3b4186f6b6457e0908390a3603c80546001600160a01b0319169055565b6001546001600160a01b031633148061275f57506000546001600160a01b031633145b61279e576040805162461bcd60e51b815260206004820152600b60248201526a085cdd1c985d1959da5cdd60aa1b604482015290519081900360640190fd5b6001600160a01b0380831660009081526007602090815260408083209385168352929052205460ff161515600114612809576040805162461bcd60e51b815260206004820152600960248201526808585c1c1c9bdd995960ba1b604482015290519081900360640190fd5b6001600160a01b0380831660009081526005602052604090205416801561287e57806001600160a01b031663853828b66040518163ffffffff1660e01b8152600401600060405180830381600087803b15801561286557600080fd5b505af1158015612879573d6000803e3d6000fd5b505050505b506001600160a01b03918216600090815260056020526040902080546001600160a01b03191691909216179055565b61010a602052600090815260409020546001600160a01b03811690600160a01b900460ff1682565b6000546001600160a01b03163314612922576040805162461bcd60e51b815260206004820152600b60248201526a21676f7665726e616e636560a81b604482015290519081900360640190fd5b600280546001600160a01b0319166001600160a01b0392909216919091179055565b603c546001600160a01b031690565b60a68054604080516020601f60026000196101006001881615020190951694909404938401819004810282018101909252828152606093909290918301828280156115c65780601f1061159b576101008083540402835291602001916115c6565b6101086020526000908152604090205481565b6003546001600160a01b031681565b600760209081526000928352604080842090915290825290205460ff1681565b6129fe613b2e565b6001600160a01b0316826001600160a01b03161415612a64576040805162461bcd60e51b815260206004820152601960248201527f4552433732313a20617070726f766520746f2063616c6c657200000000000000604482015290519081900360640190fd5b8060a46000612a71613b2e565b6001600160a01b03908116825260208083019390935260409182016000908120918716808252919093529120805460ff191692151592909217909155612ab5613b2e565b6001600160a01b03167f17307eab39ab6107e8899845ad3d59bd9653f200f220920489ca2b5937696c318360405180821515815260200191505060405180910390a35050565b6004602052600090815260409020546001600160a01b031681565b6000546001600160a01b03163314612b63576040805162461bcd60e51b815260206004820152600b60248201526a21676f7665726e616e636560a81b604482015290519081900360640190fd5b600080546001600160a01b0319166001600160a01b0392909216919091179055565b6001600160a01b038083166000908152600560209081526040808320548151631f1fcd5160e01b815291519416938492631f1fcd519260048082019391829003018186803b158015612bd657600080fd5b505afa158015612bea573d6000803e3d6000fd5b505050506040513d6020811015612c0057600080fd5b505190506001600160a01b0380821690851614612ce4576001600160a01b038085166000818152600660209081526040808320868616845290915290205490911690612c4d908286613acf565b806001600160a01b031663def2489b846040518263ffffffff1660e01b815260040180826001600160a01b03168152602001915050602060405180830381600087803b158015612c9c57600080fd5b505af1158015612cb0573d6000803e3d6000fd5b505050506040513d6020811015612cc657600080fd5b50519350612cde6001600160a01b0383168486613acf565b50612cf8565b612cf86001600160a01b0385168385613acf565b816001600160a01b031663d0e30db06040518163ffffffff1660e01b8152600401600060405180830381600087803b158015612d3357600080fd5b505af1158015612d47573d6000803e3d6000fd5b5050505050505050565b612d62612d5c613b2e565b83613bab565b612d9d5760405162461bcd60e51b815260040180806020018281038252603181526020018061563d6031913960400191505060405180910390fd5b612da984848484614069565b50505050565b6101076020526000908152604090205481565b6000546001600160a01b03163314612e0f576040805162461bcd60e51b815260206004820152600b60248201526a21676f7665726e616e636560a81b604482015290519081900360640190fd5b6001600160a01b0391821660009081526007602090815260408083209390941682529190915220805460ff19166001179055565b612e4b6140bb565b612e54816141b4565b612ea26040518060400160405280600e81526020016d2d32b937a1b7b73a3937b63632b960911b815250604051806040016040528060068152602001655a575249544560d01b815250614210565b612eeb6040518060400160405280600e81526020016d2d32b937a1b7b73a3937b63632b960911b815250604051806040016040528060018152602001603160f81b81525061430b565b61303773__$ec2a3eaceaa7013178bbf2660e1d8c4363$__636d4ce63c6040518163ffffffff1660e01b815260040160006040518083038186803b158015612f3257600080fd5b505af4158015612f46573d6000803e3d6000fd5b505050506040513d6000823e601f3d908101601f191682016040526020811015612f6f57600080fd5b8101908080516040519392919084600160201b821115612f8e57600080fd5b908301906020820185811115612fa357600080fd5b8251600160201b811182820188101715612fbc57600080fd5b82525081516020918201929091019080838360005b83811015612fe9578181015183820152602001612fd1565b50505050905090810190601f1680156130165780820380516001836020036101000a031916815260200191505b5060608101604052602480825290935091506155a0905060208301396143cb565b61010680546001600160a01b0319166001600160a01b039290921691909117905550565b6001546001600160a01b031633148061307e57506000546001600160a01b031633145b6130bd576040805162461bcd60e51b815260206004820152600b60248201526a21676f7665726e616e636560a81b604482015290519081900360640190fd5b6130d16001600160a01b0383163383613acf565b5050565b6000546001600160a01b03163314613122576040805162461bcd60e51b815260206004820152600b60248201526a21676f7665726e616e636560a81b604482015290519081900360640190fd5b600180546001600160a01b0319166001600160a01b0392909216919091179055565b606061314f82613b21565b61318a5760405162461bcd60e51b815260040180806020018281038252602f8152602001806155ed602f913960400191505060405180910390fd5b600082815260a7602090815260408083208054825160026001831615610100026000190190921691909104601f81018590048502820185019093528281529290919083018282801561321d5780601f106131f25761010080835404028352916020019161321d565b820191906000526020600020905b81548152906001019060200180831161320057829003601f168201915b50505050509050600061322e611e37565b905080516000141561324257509050610f1e565b8151156133035780826040516020018083805190602001908083835b6020831061327d5780518252601f19909201916020918201910161325e565b51815160209384036101000a600019018019909216911617905285519190930192850191508083835b602083106132c55780518252601f1990920191602091820191016132a6565b6001836020036101000a0380198251168184511680821785525050505050509050019250505060405160208183030381529060405292505050610f1e565b8061330d85614450565b6040516020018083805190602001908083835b6020831061333f5780518252601f199092019160209182019101613320565b51815160209384036101000a600019018019909216911617905285519190930192850191508083835b602083106133875780518252601f199092019160209182019101613368565b6001836020036101000a0380198251168184511680821785525050505050509050019250505060405160208183030381529060405292505050919050565b6001546001600160a01b03163314806133e857506000546001600160a01b031633145b613427576040805162461bcd60e51b815260206004820152600b60248201526a085cdd1c985d1959da5cdd60aa1b604482015290519081900360640190fd5b6001600160a01b03928316600090815260066020908152604080832094861683529390529190912080546001600160a01b03191691909216179055565b73e80d347df1209a76dd9d2319d62912ba98c54ddd81565b60066020908152600092835260408084209091529082529020546001600160a01b031681565b6101065460009061188c9030906001600160a01b03168461452b565b6001600160a01b03918216600090815260a46020908152604080832093909416825291909152205460ff1690565b6000546001600160a01b03163314613539576040805162461bcd60e51b815260206004820152600b60248201526a21676f7665726e616e636560a81b604482015290519081900360640190fd5b600380546001600160a01b0319166001600160a01b0392909216919091179055565b61010654600090613579906001600160a01b03908116908516614541565b90506135a66040518060400160405280600981526020016802637b1b59034b99d160bd1b81525082613e89565b6135d46040518060400160405280600981526020016803637b1b5a337b91d160bd1b815250611f1e856134a2565b806001600160a01b031663c4d66de8836040518263ffffffff1660e01b815260040180826001600160a01b03168152602001915050600060405180830381600087803b15801561362357600080fd5b505af1158015613637573d6000803e3d6000fd5b5050505061170833826001600160a01b0316614561565b613656613b2e565b6001600160a01b0316613667612944565b6001600160a01b0316146136c2576040805162461bcd60e51b815260206004820181905260248201527f4f776e61626c653a2063616c6c6572206973206e6f7420746865206f776e6572604482015290519081900360640190fd5b6001600160a01b0381166137075760405162461bcd60e51b81526004018080602001828103825260268152602001806153c26026913960400191505060405180910390fd5b603c546040516001600160a01b038084169216907f8be0079c531659141344cd1fd0a4f28419497f9722a3daafe3b4186f6b6457e090600090a3603c80546001600160a01b0319166001600160a01b0392909216919091179055565b6001600160a01b038281166000908152600460205260409020541633146137ba576040805162461bcd60e51b8152602060048201526006602482015265085d985d5b1d60d21b604482015290519081900360640190fd5b6130d1828261468f565b6002546001600160a01b031681565b60085481565b6001546001600160a01b03163314806137fc57506000546001600160a01b031633145b61383b576040805162461bcd60e51b815260206004820152600b60248201526a085cdd1c985d1959da5cdd60aa1b604482015290519081900360640190fd5b6001600160a01b0380821660009081526005602052604080822054815163429c145b60e11b8152915193169263853828b69260048084019391929182900301818387803b15801561388b57600080fd5b505af1158015611533573d6000803e3d6000fd5b6000828211156138f6576040805162461bcd60e51b815260206004820152601e60248201527f536166654d6174683a207375627472616374696f6e206f766572666c6f770000604482015290519081900360640190fd5b50900390565b801580613982575060408051636eb1769f60e11b81523060048201526001600160a01b03848116602483015291519185169163dd62ed3e91604480820192602092909190829003018186803b15801561395457600080fd5b505afa158015613968573d6000803e3d6000fd5b505050506040513d602081101561397e57600080fd5b5051155b6139bd5760405162461bcd60e51b81526004018080602001828103825260368152602001806156986036913960400191505060405180910390fd5b604080516001600160a01b038416602482015260448082018490528251808303909101815260649091019091526020810180516001600160e01b031663095ea7b360e01b1790526117089084906146e6565b600082613a1e5750600061188c565b82820282848281613a2b57fe5b04146118895760405162461bcd60e51b81526004018080602001828103825260218152602001806155536021913960400191505060405180910390fd5b6000808211613abe576040805162461bcd60e51b815260206004820152601a60248201527f536166654d6174683a206469766973696f6e206279207a65726f000000000000604482015290519081900360640190fd5b818381613ac757fe5b049392505050565b604080516001600160a01b038416602482015260448082018490528251808303909101815260649091019091526020810180516001600160e01b031663a9059cbb60e01b1790526117089084906146e6565b600061188c60a183614797565b3390565b600081815260a36020526040902080546001600160a01b0319166001600160a01b0384169081179091558190613b6782611db7565b6001600160a01b03167f8c5be1e5ebec7d5bd14f71427d1e84f3dd0314c0f7b2291e5b200ac8c7c3b92560405160405180910390a45050565b600061188c826147a3565b6000613bb682613b21565b613bf15760405162461bcd60e51b815260040180806020018281038252602c815260200180615454602c913960400191505060405180910390fd5b6000613bfc83611db7565b9050806001600160a01b0316846001600160a01b03161480613c375750836001600160a01b0316613c2c846115d0565b6001600160a01b0316145b80613c475750613c4781856134be565b949350505050565b826001600160a01b0316613c6282611db7565b6001600160a01b031614613ca75760405162461bcd60e51b81526004018080602001828103825260298152602001806155c46029913960400191505060405180910390fd5b6001600160a01b038216613cec5760405162461bcd60e51b81526004018080602001828103825260248152602001806153e86024913960400191505060405180910390fd5b613cf7838383611708565b613d02600082613b32565b6001600160a01b038316600090815260a060205260409020613d2490826147a7565b506001600160a01b038216600090815260a060205260409020613d4790826147b3565b50613d5460a182846147bf565b5080826001600160a01b0316846001600160a01b03167fddf252ad1be2c89b69c2b068fc378daa952ba7f163c4a11628f55a4df523b3ef60405160405180910390a4505050565b600061188983836147d5565b600080613c477f4ea0dd52c14d6270188cf78556df070a907a1babd4f3e35dec98a436e32b1a4d856020015186604001518688608001518960a001518051906020012060405160200180878152602001866001600160a01b03168152602001858152602001846001600160a01b03168152602001836001600160a01b03168152602001828152602001965050505050505060405160208183030381529060405280519060200120614839565b50565b6000808080613e658686614885565b9097909650945050505050565b6000613e7f848484614900565b90505b9392505050565b6130d182826040516024018080602001836001600160a01b03168152602001828103825284818151815260200191508051906020019080838360005b83811015613edd578181015183820152602001613ec5565b50505050905090810190601f168015613f0a5780820380516001836020036101000a031916815260200191505b5060408051601f198184030181529190526020810180516001600160e01b031663319af33360e01b17905293506149ca92505050565b60008151604114613f98576040805162461bcd60e51b815260206004820152601f60248201527f45434453413a20696e76616c6964207369676e6174757265206c656e67746800604482015290519081900360640190fd5b60208201516040830151606084015160001a613fb6868285856149eb565b9695505050505050565b6001600160a01b038082166000908152600560205260408120549091613fe69116614b69565b6001600160a01b0380831660009081526005602090815260409182902054825163722713f760e01b8152925193169263722713f7926004808201939291829003018186803b15801561403757600080fd5b505afa15801561404b573d6000803e3d6000fd5b505050506040513d602081101561406157600080fd5b505192915050565b614074848484613c4f565b61408084848484614bb5565b612da95760405162461bcd60e51b81526004018080602001828103825260328152602001806153906032913960400191505060405180910390fd5b600954610100900460ff16806140d457506140d4614d1d565b806140e2575060095460ff16155b61411d5760405162461bcd60e51b815260040180806020018281038252602e8152602001806154e1602e913960400191505060405180910390fd5b600954610100900460ff16158015614148576009805460ff1961ff0019909116610100171660011790555b6000614152613b2e565b603c80546001600160a01b0319166001600160a01b038316908117909155604051919250906000907f8be0079c531659141344cd1fd0a4f28419497f9722a3daafe3b4186f6b6457e0908290a3508015613e53576009805461ff001916905550565b60008054336001600160a01b03199182168117909255600180548216909217909155600280547350fda034c0ce7a8f7efdaebda7aa7ca21cc1267e908316179055600380549091166001600160a01b0392909216919091179055565b600954610100900460ff16806142295750614229614d1d565b80614237575060095460ff16155b6142725760405162461bcd60e51b815260040180806020018281038252602e8152602001806154e1602e913960400191505060405180910390fd5b600954610100900460ff1615801561429d576009805460ff1961ff0019909116610100171660011790555b82516142b09060a59060208601906152cc565b5081516142c49060a69060208501906152cc565b506142d56380ac58cd60e01b614d2e565b6142e5635b5e139f60e01b614d2e565b6142f563780e9d6360e01b614d2e565b8015611708576009805461ff0019169055505050565b600954610100900460ff16806143245750614324614d1d565b80614332575060095460ff16155b61436d5760405162461bcd60e51b815260040180806020018281038252602e8152602001806154e1602e913960400191505060405180910390fd5b600954610100900460ff16158015614398576009805460ff1961ff0019909116610100171660011790555b825160208085019190912083519184019190912060d29190915560d3558015611708576009805461ff0019169055505050565b600080826040516020018082805190602001908083835b602083106144015780518252601f1990920191602091820191016143e2565b6001836020036101000a038019825116818451168082178552505050505050905001915050604051602081830303815290604052805190602001209050808451856020016000f5949350505050565b60608161447557506040805180820190915260018152600360fc1b6020820152610f1e565b8160005b811561448d57600101600a82049150614479565b60008167ffffffffffffffff811180156144a657600080fd5b506040519080825280601f01601f1916602001820160405280156144d1576020820181803683370190505b50859350905060001982015b831561452257600a840660300160f81b8282806001900393508151811061450057fe5b60200101906001600160f81b031916908160001a905350600a840493506144dd565b50949350505050565b6000613c4784846001600160a01b038516614db2565b60008061454d84614dce565b9050826037826020016000f5949350505050565b6001600160a01b0382166145bc576040805162461bcd60e51b815260206004820181905260248201527f4552433732313a206d696e7420746f20746865207a65726f2061646472657373604482015290519081900360640190fd5b6145c581613b21565b15614617576040805162461bcd60e51b815260206004820152601c60248201527f4552433732313a20746f6b656e20616c7265616479206d696e74656400000000604482015290519081900360640190fd5b61462360008383611708565b6001600160a01b038216600090815260a06020526040902061464590826147b3565b5061465260a182846147bf565b5060405181906001600160a01b038416906000907fddf252ad1be2c89b69c2b068fc378daa952ba7f163c4a11628f55a4df523b3ef908290a45050565b6001600160a01b03808316600090815260056020526040808220548151632e1a7d4d60e01b8152600481018690529151931692632e1a7d4d9260248084019391929182900301818387803b1580156117cf57600080fd5b600061473b826040518060400160405280602081526020017f5361666545524332303a206c6f772d6c6576656c2063616c6c206661696c6564815250856001600160a01b0316614e2f9092919063ffffffff16565b8051909150156117085780806020019051602081101561475a57600080fd5b50516117085760405162461bcd60e51b815260040180806020018281038252602a81526020018061566e602a913960400191505060405180910390fd5b60006118898383614e3e565b5490565b60006118898383614e56565b60006118898383614f1c565b6000613c4784846001600160a01b038516614f66565b815460009082106148175760405162461bcd60e51b815260040180806020018281038252602281526020018061536e6022913960400191505060405180910390fd5b82600001828154811061482657fe5b9060005260206000200154905092915050565b6000614843614ffd565b82604051602001808061190160f01b81525060020183815260200182815260200192505050604051602081830303815290604052805190602001209050919050565b8154600090819083106148c95760405162461bcd60e51b81526004018080602001828103825260228152602001806155316022913960400191505060405180910390fd5b60008460000184815481106148da57fe5b906000526020600020906002020190508060000154816001015492509250509250929050565b6000828152600184016020526040812054828161499b5760405162461bcd60e51b81526004018080602001828103825283818151815260200191508051906020019080838360005b83811015614960578181015183820152602001614948565b50505050905090810190601f16801561498d5780820380516001836020036101000a031916815260200191505b509250505060405180910390fd5b508460000160018203815481106149ae57fe5b9060005260206000209060020201600101549150509392505050565b80516a636f6e736f6c652e6c6f67602083016000808483855afa5050505050565b60007f7fffffffffffffffffffffffffffffff5d576e7357a4501ddfe92f46681b20a0821115614a4c5760405162461bcd60e51b815260040180806020018281038252602281526020018061540c6022913960400191505060405180910390fd5b8360ff16601b1480614a6157508360ff16601c145b614a9c5760405162461bcd60e51b815260040180806020018281038252602281526020018061550f6022913960400191505060405180910390fd5b600060018686868660405160008152602001604052604051808581526020018460ff1681526020018381526020018281526020019450505050506020604051602081039080840390855afa158015614af8573d6000803e3d6000fd5b5050604051601f1901519150506001600160a01b038116614b60576040805162461bcd60e51b815260206004820152601860248201527f45434453413a20696e76616c6964207369676e61747572650000000000000000604482015290519081900360640190fd5b95945050505050565b604080516001600160a01b0383166024808301919091528251808303909101815260449091019091526020810180516001600160e01b031663161765e160e11b179052613e53906149ca565b6000614bc9846001600160a01b0316615038565b614bd557506001613c47565b6000614ce3630a85bd0160e11b614bea613b2e565b88878760405160240180856001600160a01b03168152602001846001600160a01b0316815260200183815260200180602001828103825283818151815260200191508051906020019080838360005b83811015614c51578181015183820152602001614c39565b50505050905090810190601f168015614c7e5780820380516001836020036101000a031916815260200191505b5095505050505050604051602081830303815290604052906001600160e01b0319166020820180516001600160e01b038381831617835250505050604051806060016040528060328152602001615390603291396001600160a01b0388169190614e2f565b90506000818060200190516020811015614cfc57600080fd5b50516001600160e01b031916630a85bd0160e11b1492505050949350505050565b6000614d2830615038565b15905090565b6001600160e01b03198082161415614d8d576040805162461bcd60e51b815260206004820152601c60248201527f4552433136353a20696e76616c696420696e7465726661636520696400000000604482015290519081900360640190fd5b6001600160e01b0319166000908152606e60205260409020805460ff19166001179055565b6000613c4782614dc185614dce565b805190602001208661503e565b60408051603780825260608281019093526020820181803683375050733d602d80600a3d3981f3363d3d373d3d3d363d7360601b60208301525060609290921b6034830152506e5af43d82803e903d91602b57fd5bf360881b604882015290565b6060613c478484600085615099565b60009081526001919091016020526040902054151590565b60008181526001830160205260408120548015614f125783546000198083019190810190600090879083908110614e8957fe5b9060005260206000200154905080876000018481548110614ea657fe5b600091825260208083209091019290925582815260018981019092526040902090840190558654879080614ed657fe5b6001900381819060005260206000200160009055905586600101600087815260200190815260200160002060009055600194505050505061188c565b600091505061188c565b6000614f288383614e3e565b614f5e5750815460018181018455600084815260208082209093018490558454848252828601909352604090209190915561188c565b50600061188c565b600082815260018401602052604081205480614fcb575050604080518082018252838152602080820184815286546001818101895560008981528481209551600290930290950191825591519082015586548684528188019092529290912055613e82565b82856000016001830381548110614fde57fe5b9060005260206000209060020201600101819055506000915050613e82565b60006117197f8b73c3c69bb8fe3d512ecc4cf759cc79239f7b179b0ffacaa9a75d522b39400f61502b6151f4565b6150336151fa565b615200565b3b151590565b604080516001600160f81b031960208083019190915260609390931b6bffffffffffffffffffffffff191660218201526035810194909452605580850193909352805180850390930183526075909301909252805191012090565b6060824710156150da5760405162461bcd60e51b815260040180806020018281038252602681526020018061542e6026913960400191505060405180910390fd5b6150e385615038565b615134576040805162461bcd60e51b815260206004820152601d60248201527f416464726573733a2063616c6c20746f206e6f6e2d636f6e7472616374000000604482015290519081900360640190fd5b600080866001600160a01b031685876040518082805190602001908083835b602083106151725780518252601f199092019160209182019101615153565b6001836020036101000a03801982511681845116808217855250505050505090500191505060006040518083038185875af1925050503d80600081146151d4576040519150601f19603f3d011682016040523d82523d6000602084013e6151d9565b606091505b50915091506151e9828286615262565b979650505050505050565b60d25490565b60d35490565b600083838361520d6152c8565b3060405160200180868152602001858152602001848152602001838152602001826001600160a01b03168152602001955050505050506040516020818303038152906040528051906020012090509392505050565b60608315615271575081613e82565b8251156152815782518084602001fd5b60405162461bcd60e51b8152602060048201818152845160248401528451859391928392604401919085019080838360008315614960578181015183820152602001614948565b4690565b828054600181600116156101000203166002900490600052602060002090601f0160209004810192826153025760008555615348565b82601f1061531b57805160ff1916838001178555615348565b82800160010185558215615348579182015b8281111561534857825182559160200191906001019061532d565b50615354929150615358565b5090565b5b80821115615354576000815560010161535956fe456e756d657261626c655365743a20696e646578206f7574206f6620626f756e64734552433732313a207472616e7366657220746f206e6f6e20455243373231526563656976657220696d706c656d656e7465724f776e61626c653a206e6577206f776e657220697320746865207a65726f20616464726573734552433732313a207472616e7366657220746f20746865207a65726f206164647265737345434453413a20696e76616c6964207369676e6174757265202773272076616c7565416464726573733a20696e73756666696369656e742062616c616e636520666f722063616c6c4552433732313a206f70657261746f7220717565727920666f72206e6f6e6578697374656e7420746f6b656e4552433732313a20617070726f76652063616c6c6572206973206e6f74206f776e6572206e6f7220617070726f76656420666f7220616c6c4552433732313a206f776e657220717565727920666f72206e6f6e6578697374656e7420746f6b656e496e697469616c697a61626c653a20636f6e747261637420697320616c726561647920696e697469616c697a656445434453413a20696e76616c6964207369676e6174757265202776272076616c7565456e756d657261626c654d61703a20696e646578206f7574206f6620626f756e6473536166654d6174683a206d756c7469706c69636174696f6e206f766572666c6f774552433732313a20617070726f76656420717565727920666f72206e6f6e6578697374656e7420746f6b656e7a65726f2e756e6465727772697465722e6c6f636b2d696d706c656d656e746174696f6e4552433732313a207472616e73666572206f6620746f6b656e2074686174206973206e6f74206f776e4552433732314d657461646174613a2055524920717565727920666f72206e6f6e6578697374656e7420746f6b656e4552433732313a20617070726f76616c20746f2063757272656e74206f776e65724552433732313a207472616e736665722063616c6c6572206973206e6f74206f776e6572206e6f7220617070726f7665645361666545524332303a204552433230206f7065726174696f6e20646964206e6f7420737563636565645361666545524332303a20617070726f76652066726f6d206e6f6e2d7a65726f20746f206e6f6e2d7a65726f20616c6c6f77616e6365a2646970667358221220aa83ea354e4bc0cea20bdd5f8f1bb8b354864ba0e3c6f8a4d75e85ac0a7d207264736f6c63430007060033",
  "linkReferences": {
    "contracts/libraries/bytecode/ZeroUnderwriterLockBytecodeLib.sol": {
      "ZeroUnderwriterLockBytecodeLib": [
        {
          "length": 20,
          "start": 12054
        }
      ]
    }
  },
  "deployedLinkReferences": {
    "contracts/libraries/bytecode/ZeroUnderwriterLockBytecodeLib.sol": {
      "ZeroUnderwriterLockBytecodeLib": [
        {
          "length": 20,
          "start": 12016
        }
      ]
    }
  }
}